{
	"src/contracts/Desca.sol": {
		"DeSCA": {
			"abi": [
				{
					"anonymous": false,
					"inputs": [
						{
							"indexed": true,
							"internalType": "bytes32",
							"name": "role",
							"type": "bytes32"
						},
						{
							"indexed": true,
							"internalType": "bytes32",
							"name": "previousAdminRole",
							"type": "bytes32"
						},
						{
							"indexed": true,
							"internalType": "bytes32",
							"name": "newAdminRole",
							"type": "bytes32"
						}
					],
					"name": "RoleAdminChanged",
					"type": "event"
				},
				{
					"anonymous": false,
					"inputs": [
						{
							"indexed": true,
							"internalType": "bytes32",
							"name": "role",
							"type": "bytes32"
						},
						{
							"indexed": true,
							"internalType": "address",
							"name": "account",
							"type": "address"
						},
						{
							"indexed": true,
							"internalType": "address",
							"name": "sender",
							"type": "address"
						}
					],
					"name": "RoleGranted",
					"type": "event"
				},
				{
					"anonymous": false,
					"inputs": [
						{
							"indexed": true,
							"internalType": "bytes32",
							"name": "role",
							"type": "bytes32"
						},
						{
							"indexed": true,
							"internalType": "address",
							"name": "account",
							"type": "address"
						},
						{
							"indexed": true,
							"internalType": "address",
							"name": "sender",
							"type": "address"
						}
					],
					"name": "RoleRevoked",
					"type": "event"
				},
				{
					"inputs": [],
					"name": "DAO_ROLE",
					"outputs": [
						{
							"internalType": "bytes32",
							"name": "",
							"type": "bytes32"
						}
					],
					"stateMutability": "view",
					"type": "function"
				},
				{
					"inputs": [],
					"name": "DEFAULT_ADMIN_ROLE",
					"outputs": [
						{
							"internalType": "bytes32",
							"name": "",
							"type": "bytes32"
						}
					],
					"stateMutability": "view",
					"type": "function"
				},
				{
					"inputs": [
						{
							"internalType": "address",
							"name": "voter",
							"type": "address"
						}
					],
					"name": "add",
					"outputs": [
						{
							"internalType": "string",
							"name": "",
							"type": "string"
						}
					],
					"stateMutability": "nonpayable",
					"type": "function"
				},
				{
					"inputs": [
						{
							"internalType": "bytes32",
							"name": "role",
							"type": "bytes32"
						}
					],
					"name": "getRoleAdmin",
					"outputs": [
						{
							"internalType": "bytes32",
							"name": "",
							"type": "bytes32"
						}
					],
					"stateMutability": "view",
					"type": "function"
				},
				{
					"inputs": [
						{
							"internalType": "bytes32",
							"name": "role",
							"type": "bytes32"
						},
						{
							"internalType": "address",
							"name": "account",
							"type": "address"
						}
					],
					"name": "grantRole",
					"outputs": [],
					"stateMutability": "nonpayable",
					"type": "function"
				},
				{
					"inputs": [
						{
							"internalType": "bytes32",
							"name": "role",
							"type": "bytes32"
						},
						{
							"internalType": "address",
							"name": "account",
							"type": "address"
						}
					],
					"name": "hasRole",
					"outputs": [
						{
							"internalType": "bool",
							"name": "",
							"type": "bool"
						}
					],
					"stateMutability": "view",
					"type": "function"
				},
				{
					"inputs": [
						{
							"internalType": "bytes32",
							"name": "role",
							"type": "bytes32"
						},
						{
							"internalType": "address",
							"name": "account",
							"type": "address"
						}
					],
					"name": "renounceRole",
					"outputs": [],
					"stateMutability": "nonpayable",
					"type": "function"
				},
				{
					"inputs": [
						{
							"internalType": "bytes32",
							"name": "role",
							"type": "bytes32"
						},
						{
							"internalType": "address",
							"name": "account",
							"type": "address"
						}
					],
					"name": "revokeRole",
					"outputs": [],
					"stateMutability": "nonpayable",
					"type": "function"
				},
				{
					"inputs": [
						{
							"internalType": "bytes4",
							"name": "interfaceId",
							"type": "bytes4"
						}
					],
					"name": "supportsInterface",
					"outputs": [
						{
							"internalType": "bool",
							"name": "",
							"type": "bool"
						}
					],
					"stateMutability": "view",
					"type": "function"
				}
			],
			"devdoc": {
				"kind": "dev",
				"methods": {
					"getRoleAdmin(bytes32)": {
						"details": "Returns the admin role that controls `role`. See {grantRole} and {revokeRole}. To change a role's admin, use {_setRoleAdmin}."
					},
					"grantRole(bytes32,address)": {
						"details": "Grants `role` to `account`. If `account` had not been already granted `role`, emits a {RoleGranted} event. Requirements: - the caller must have ``role``'s admin role."
					},
					"hasRole(bytes32,address)": {
						"details": "Returns `true` if `account` has been granted `role`."
					},
					"renounceRole(bytes32,address)": {
						"details": "Revokes `role` from the calling account. Roles are often managed via {grantRole} and {revokeRole}: this function's purpose is to provide a mechanism for accounts to lose their privileges if they are compromised (such as when a trusted device is misplaced). If the calling account had been revoked `role`, emits a {RoleRevoked} event. Requirements: - the caller must be `account`."
					},
					"revokeRole(bytes32,address)": {
						"details": "Revokes `role` from `account`. If `account` had been granted `role`, emits a {RoleRevoked} event. Requirements: - the caller must have ``role``'s admin role."
					},
					"supportsInterface(bytes4)": {
						"details": "See {IERC165-supportsInterface}."
					}
				},
				"version": 1
			},
			"evm": {
				"assembly": "    /* \"src/contracts/Desca.sol\":147:920  contract DeSCA is AccessControl {... */\n  mstore(0x40, 0x80)\n    /* \"src/contracts/Desca.sol\":580:581  0 */\n  0x00\n    /* \"src/contracts/Desca.sol\":562:581  uint testLength = 0 */\n  0x01\n  sstore\n    /* \"src/contracts/Desca.sol\":147:920  contract DeSCA is AccessControl {... */\n  callvalue\n  dup1\n  iszero\n  tag_1\n  jumpi\n  0x00\n  dup1\n  revert\ntag_1:\n  pop\n  dataSize(sub_0)\n  dup1\n  dataOffset(sub_0)\n  0x00\n  codecopy\n  0x00\n  return\nstop\n\nsub_0: assembly {\n        /* \"src/contracts/Desca.sol\":147:920  contract DeSCA is AccessControl {... */\n      mstore(0x40, 0x80)\n      callvalue\n      dup1\n      iszero\n      tag_1\n      jumpi\n      0x00\n      dup1\n      revert\n    tag_1:\n      pop\n      jumpi(tag_2, lt(calldatasize, 0x04))\n      shr(0xe0, calldataload(0x00))\n      dup1\n      0x36568abe\n      gt\n      tag_12\n      jumpi\n      dup1\n      0x36568abe\n      eq\n      tag_7\n      jumpi\n      dup1\n      0x91d14854\n      eq\n      tag_8\n      jumpi\n      dup1\n      0xa217fddf\n      eq\n      tag_9\n      jumpi\n      dup1\n      0xd547741f\n      eq\n      tag_10\n      jumpi\n      dup1\n      0xe9c26518\n      eq\n      tag_11\n      jumpi\n      jump(tag_2)\n    tag_12:\n      dup1\n      0x01ffc9a7\n      eq\n      tag_3\n      jumpi\n      dup1\n      0x0a3b0a4f\n      eq\n      tag_4\n      jumpi\n      dup1\n      0x248a9ca3\n      eq\n      tag_5\n      jumpi\n      dup1\n      0x2f2ff15d\n      eq\n      tag_6\n      jumpi\n    tag_2:\n      0x00\n      dup1\n      revert\n        /* \"@openzeppelin/contracts/access/AccessControl.sol\":2620:2822  function supportsInterface(bytes4 interfaceId) public view virtual override returns (bool) {... */\n    tag_3:\n      tag_13\n      0x04\n      dup1\n      calldatasize\n      sub\n      dup2\n      add\n      swap1\n      tag_14\n      swap2\n      swap1\n      tag_15\n      jump\t// in\n    tag_14:\n      tag_16\n      jump\t// in\n    tag_13:\n      mload(0x40)\n      tag_17\n      swap2\n      swap1\n      tag_18\n      jump\t// in\n    tag_17:\n      mload(0x40)\n      dup1\n      swap2\n      sub\n      swap1\n      return\n        /* \"src/contracts/Desca.sol\":624:918  function add(address voter) public returns (string memory) {... */\n    tag_4:\n      tag_19\n      0x04\n      dup1\n      calldatasize\n      sub\n      dup2\n      add\n      swap1\n      tag_20\n      swap2\n      swap1\n      tag_21\n      jump\t// in\n    tag_20:\n      tag_22\n      jump\t// in\n    tag_19:\n      mload(0x40)\n      tag_23\n      swap2\n      swap1\n      tag_24\n      jump\t// in\n    tag_23:\n      mload(0x40)\n      dup1\n      swap2\n      sub\n      swap1\n      return\n        /* \"@openzeppelin/contracts/access/AccessControl.sol\":4008:4137  function getRoleAdmin(bytes32 role) public view virtual override returns (bytes32) {... */\n    tag_5:\n      tag_25\n      0x04\n      dup1\n      calldatasize\n      sub\n      dup2\n      add\n      swap1\n      tag_26\n      swap2\n      swap1\n      tag_27\n      jump\t// in\n    tag_26:\n      tag_28\n      jump\t// in\n    tag_25:\n      mload(0x40)\n      tag_29\n      swap2\n      swap1\n      tag_30\n      jump\t// in\n    tag_29:\n      mload(0x40)\n      dup1\n      swap2\n      sub\n      swap1\n      return\n        /* \"@openzeppelin/contracts/access/AccessControl.sol\":4387:4532  function grantRole(bytes32 role, address account) public virtual override onlyRole(getRoleAdmin(role)) {... */\n    tag_6:\n      tag_31\n      0x04\n      dup1\n      calldatasize\n      sub\n      dup2\n      add\n      swap1\n      tag_32\n      swap2\n      swap1\n      tag_33\n      jump\t// in\n    tag_32:\n      tag_34\n      jump\t// in\n    tag_31:\n      stop\n        /* \"@openzeppelin/contracts/access/AccessControl.sol\":5404:5618  function renounceRole(bytes32 role, address account) public virtual override {... */\n    tag_7:\n      tag_35\n      0x04\n      dup1\n      calldatasize\n      sub\n      dup2\n      add\n      swap1\n      tag_36\n      swap2\n      swap1\n      tag_33\n      jump\t// in\n    tag_36:\n      tag_37\n      jump\t// in\n    tag_35:\n      stop\n        /* \"@openzeppelin/contracts/access/AccessControl.sol\":2909:3054  function hasRole(bytes32 role, address account) public view virtual override returns (bool) {... */\n    tag_8:\n      tag_38\n      0x04\n      dup1\n      calldatasize\n      sub\n      dup2\n      add\n      swap1\n      tag_39\n      swap2\n      swap1\n      tag_33\n      jump\t// in\n    tag_39:\n      tag_40\n      jump\t// in\n    tag_38:\n      mload(0x40)\n      tag_41\n      swap2\n      swap1\n      tag_18\n      jump\t// in\n    tag_41:\n      mload(0x40)\n      dup1\n      swap2\n      sub\n      swap1\n      return\n        /* \"@openzeppelin/contracts/access/AccessControl.sol\":2027:2076  bytes32 public constant DEFAULT_ADMIN_ROLE = 0x00 */\n    tag_9:\n      tag_42\n      tag_43\n      jump\t// in\n    tag_42:\n      mload(0x40)\n      tag_44\n      swap2\n      swap1\n      tag_30\n      jump\t// in\n    tag_44:\n      mload(0x40)\n      dup1\n      swap2\n      sub\n      swap1\n      return\n        /* \"@openzeppelin/contracts/access/AccessControl.sol\":4766:4913  function revokeRole(bytes32 role, address account) public virtual override onlyRole(getRoleAdmin(role)) {... */\n    tag_10:\n      tag_45\n      0x04\n      dup1\n      calldatasize\n      sub\n      dup2\n      add\n      swap1\n      tag_46\n      swap2\n      swap1\n      tag_33\n      jump\t// in\n    tag_46:\n      tag_47\n      jump\t// in\n    tag_45:\n      stop\n        /* \"src/contracts/Desca.sol\":499:555  bytes32 public constant DAO_ROLE = keccak256(\"DAO_ROLE\") */\n    tag_11:\n      tag_48\n      tag_49\n      jump\t// in\n    tag_48:\n      mload(0x40)\n      tag_50\n      swap2\n      swap1\n      tag_30\n      jump\t// in\n    tag_50:\n      mload(0x40)\n      dup1\n      swap2\n      sub\n      swap1\n      return\n        /* \"@openzeppelin/contracts/access/AccessControl.sol\":2620:2822  function supportsInterface(bytes4 interfaceId) public view virtual override returns (bool) {... */\n    tag_16:\n        /* \"@openzeppelin/contracts/access/AccessControl.sol\":2705:2709  bool */\n      0x00\n        /* \"@openzeppelin/contracts/access/AccessControl.sol\":2743:2775  type(IAccessControl).interfaceId */\n      0x7965db0b00000000000000000000000000000000000000000000000000000000\n        /* \"@openzeppelin/contracts/access/AccessControl.sol\":2728:2775  interfaceId == type(IAccessControl).interfaceId */\n      not(0xffffffffffffffffffffffffffffffffffffffffffffffffffffffff)\n      and\n        /* \"@openzeppelin/contracts/access/AccessControl.sol\":2728:2739  interfaceId */\n      dup3\n        /* \"@openzeppelin/contracts/access/AccessControl.sol\":2728:2775  interfaceId == type(IAccessControl).interfaceId */\n      not(0xffffffffffffffffffffffffffffffffffffffffffffffffffffffff)\n      and\n      eq\n        /* \"@openzeppelin/contracts/access/AccessControl.sol\":2728:2815  interfaceId == type(IAccessControl).interfaceId || super.supportsInterface(interfaceId) */\n      dup1\n      tag_52\n      jumpi\n      pop\n        /* \"@openzeppelin/contracts/access/AccessControl.sol\":2779:2815  super.supportsInterface(interfaceId) */\n      tag_53\n        /* \"@openzeppelin/contracts/access/AccessControl.sol\":2803:2814  interfaceId */\n      dup3\n        /* \"@openzeppelin/contracts/access/AccessControl.sol\":2779:2802  super.supportsInterface */\n      tag_54\n        /* \"@openzeppelin/contracts/access/AccessControl.sol\":2779:2815  super.supportsInterface(interfaceId) */\n      jump\t// in\n    tag_53:\n        /* \"@openzeppelin/contracts/access/AccessControl.sol\":2728:2815  interfaceId == type(IAccessControl).interfaceId || super.supportsInterface(interfaceId) */\n    tag_52:\n        /* \"@openzeppelin/contracts/access/AccessControl.sol\":2721:2815  return interfaceId == type(IAccessControl).interfaceId || super.supportsInterface(interfaceId) */\n      swap1\n      pop\n        /* \"@openzeppelin/contracts/access/AccessControl.sol\":2620:2822  function supportsInterface(bytes4 interfaceId) public view virtual override returns (bool) {... */\n      swap2\n      swap1\n      pop\n      jump\t// out\n        /* \"src/contracts/Desca.sol\":624:918  function add(address voter) public returns (string memory) {... */\n    tag_22:\n        /* \"src/contracts/Desca.sol\":668:681  string memory */\n      0x60\n        /* \"src/contracts/Desca.sol\":707:712  false */\n      0x00\n        /* \"src/contracts/Desca.sol\":693:697  test */\n      0x02\n        /* \"src/contracts/Desca.sol\":693:704  test[voter] */\n      0x00\n        /* \"src/contracts/Desca.sol\":698:703  voter */\n      dup5\n        /* \"src/contracts/Desca.sol\":693:704  test[voter] */\n      0xffffffffffffffffffffffffffffffffffffffff\n      and\n      0xffffffffffffffffffffffffffffffffffffffff\n      and\n      dup2\n      mstore\n      0x20\n      add\n      swap1\n      dup2\n      mstore\n      0x20\n      add\n      0x00\n      keccak256\n      0x00\n        /* \"src/contracts/Desca.sol\":693:712  test[voter] = false */\n      0x0100\n      exp\n      dup2\n      sload\n      dup2\n      0xff\n      mul\n      not\n      and\n      swap1\n      dup4\n      iszero\n      iszero\n      mul\n      or\n      swap1\n      sstore\n      pop\n        /* \"src/contracts/Desca.sol\":722:732  testLength */\n      0x01\n      0x00\n        /* \"src/contracts/Desca.sol\":722:734  testLength++ */\n      dup2\n      sload\n      dup1\n      swap3\n      swap2\n      swap1\n      tag_56\n      swap1\n      tag_57\n      jump\t// in\n    tag_56:\n      swap2\n      swap1\n      pop\n      sstore\n      pop\n        /* \"src/contracts/Desca.sol\":745:764  string memory testt */\n      0x00\n        /* \"src/contracts/Desca.sol\":745:769  string memory testt = \"\" */\n      mload(0x40)\n      dup1\n      0x20\n      add\n      0x40\n      mstore\n      dup1\n      0x00\n      dup2\n      mstore\n      pop\n      swap1\n      pop\n        /* \"src/contracts/Desca.sol\":785:791  uint i */\n      0x00\n        /* \"src/contracts/Desca.sol\":780:889  for (uint i = 0; i < testLength; i++) {... */\n    tag_58:\n        /* \"src/contracts/Desca.sol\":801:811  testLength */\n      sload(0x01)\n        /* \"src/contracts/Desca.sol\":797:798  i */\n      dup2\n        /* \"src/contracts/Desca.sol\":797:811  i < testLength */\n      lt\n        /* \"src/contracts/Desca.sol\":780:889  for (uint i = 0; i < testLength; i++) {... */\n      iszero\n      tag_59\n      jumpi\n        /* \"src/contracts/Desca.sol\":866:871  testt */\n      dup2\n        /* \"src/contracts/Desca.sol\":847:877  bytes.concat(bytes(testt),\"t\") */\n      add(0x20, mload(0x40))\n      tag_61\n      swap2\n      swap1\n      tag_62\n      jump\t// in\n    tag_61:\n      mload(0x40)\n      0x20\n      dup2\n      dup4\n      sub\n      sub\n      dup2\n      mstore\n      swap1\n      0x40\n      mstore\n        /* \"src/contracts/Desca.sol\":832:878  testt = string(bytes.concat(bytes(testt),\"t\")) */\n      swap2\n      pop\n        /* \"src/contracts/Desca.sol\":813:816  i++ */\n      dup1\n      dup1\n      tag_63\n      swap1\n      tag_57\n      jump\t// in\n    tag_63:\n      swap2\n      pop\n      pop\n        /* \"src/contracts/Desca.sol\":780:889  for (uint i = 0; i < testLength; i++) {... */\n      jump(tag_58)\n    tag_59:\n      pop\n        /* \"src/contracts/Desca.sol\":906:911  testt */\n      dup1\n        /* \"src/contracts/Desca.sol\":899:911  return testt */\n      swap2\n      pop\n      pop\n        /* \"src/contracts/Desca.sol\":624:918  function add(address voter) public returns (string memory) {... */\n      swap2\n      swap1\n      pop\n      jump\t// out\n        /* \"@openzeppelin/contracts/access/AccessControl.sol\":4008:4137  function getRoleAdmin(bytes32 role) public view virtual override returns (bytes32) {... */\n    tag_28:\n        /* \"@openzeppelin/contracts/access/AccessControl.sol\":4082:4089  bytes32 */\n      0x00\n        /* \"@openzeppelin/contracts/access/AccessControl.sol\":4108:4114  _roles */\n      dup1\n        /* \"@openzeppelin/contracts/access/AccessControl.sol\":4108:4120  _roles[role] */\n      0x00\n        /* \"@openzeppelin/contracts/access/AccessControl.sol\":4115:4119  role */\n      dup4\n        /* \"@openzeppelin/contracts/access/AccessControl.sol\":4108:4120  _roles[role] */\n      dup2\n      mstore\n      0x20\n      add\n      swap1\n      dup2\n      mstore\n      0x20\n      add\n      0x00\n      keccak256\n        /* \"@openzeppelin/contracts/access/AccessControl.sol\":4108:4130  _roles[role].adminRole */\n      0x01\n      add\n      sload\n        /* \"@openzeppelin/contracts/access/AccessControl.sol\":4101:4130  return _roles[role].adminRole */\n      swap1\n      pop\n        /* \"@openzeppelin/contracts/access/AccessControl.sol\":4008:4137  function getRoleAdmin(bytes32 role) public view virtual override returns (bytes32) {... */\n      swap2\n      swap1\n      pop\n      jump\t// out\n        /* \"@openzeppelin/contracts/access/AccessControl.sol\":4387:4532  function grantRole(bytes32 role, address account) public virtual override onlyRole(getRoleAdmin(role)) {... */\n    tag_34:\n        /* \"@openzeppelin/contracts/access/AccessControl.sol\":4470:4488  getRoleAdmin(role) */\n      tag_65\n        /* \"@openzeppelin/contracts/access/AccessControl.sol\":4483:4487  role */\n      dup3\n        /* \"@openzeppelin/contracts/access/AccessControl.sol\":4470:4482  getRoleAdmin */\n      tag_28\n        /* \"@openzeppelin/contracts/access/AccessControl.sol\":4470:4488  getRoleAdmin(role) */\n      jump\t// in\n    tag_65:\n        /* \"@openzeppelin/contracts/access/AccessControl.sol\":2505:2535  _checkRole(role, _msgSender()) */\n      tag_67\n        /* \"@openzeppelin/contracts/access/AccessControl.sol\":2516:2520  role */\n      dup2\n        /* \"@openzeppelin/contracts/access/AccessControl.sol\":2522:2534  _msgSender() */\n      tag_68\n        /* \"@openzeppelin/contracts/access/AccessControl.sol\":2522:2532  _msgSender */\n      tag_69\n        /* \"@openzeppelin/contracts/access/AccessControl.sol\":2522:2534  _msgSender() */\n      jump\t// in\n    tag_68:\n        /* \"@openzeppelin/contracts/access/AccessControl.sol\":2505:2515  _checkRole */\n      tag_70\n        /* \"@openzeppelin/contracts/access/AccessControl.sol\":2505:2535  _checkRole(role, _msgSender()) */\n      jump\t// in\n    tag_67:\n        /* \"@openzeppelin/contracts/access/AccessControl.sol\":4500:4525  _grantRole(role, account) */\n      tag_72\n        /* \"@openzeppelin/contracts/access/AccessControl.sol\":4511:4515  role */\n      dup4\n        /* \"@openzeppelin/contracts/access/AccessControl.sol\":4517:4524  account */\n      dup4\n        /* \"@openzeppelin/contracts/access/AccessControl.sol\":4500:4510  _grantRole */\n      tag_73\n        /* \"@openzeppelin/contracts/access/AccessControl.sol\":4500:4525  _grantRole(role, account) */\n      jump\t// in\n    tag_72:\n        /* \"@openzeppelin/contracts/access/AccessControl.sol\":4387:4532  function grantRole(bytes32 role, address account) public virtual override onlyRole(getRoleAdmin(role)) {... */\n      pop\n      pop\n      pop\n      jump\t// out\n        /* \"@openzeppelin/contracts/access/AccessControl.sol\":5404:5618  function renounceRole(bytes32 role, address account) public virtual override {... */\n    tag_37:\n        /* \"@openzeppelin/contracts/access/AccessControl.sol\":5510:5522  _msgSender() */\n      tag_75\n        /* \"@openzeppelin/contracts/access/AccessControl.sol\":5510:5520  _msgSender */\n      tag_69\n        /* \"@openzeppelin/contracts/access/AccessControl.sol\":5510:5522  _msgSender() */\n      jump\t// in\n    tag_75:\n        /* \"@openzeppelin/contracts/access/AccessControl.sol\":5499:5522  account == _msgSender() */\n      0xffffffffffffffffffffffffffffffffffffffff\n      and\n        /* \"@openzeppelin/contracts/access/AccessControl.sol\":5499:5506  account */\n      dup2\n        /* \"@openzeppelin/contracts/access/AccessControl.sol\":5499:5522  account == _msgSender() */\n      0xffffffffffffffffffffffffffffffffffffffff\n      and\n      eq\n        /* \"@openzeppelin/contracts/access/AccessControl.sol\":5491:5574  require(account == _msgSender(), \"AccessControl: can only renounce roles for self\") */\n      tag_76\n      jumpi\n      mload(0x40)\n      0x08c379a000000000000000000000000000000000000000000000000000000000\n      dup2\n      mstore\n      0x04\n      add\n      tag_77\n      swap1\n      tag_78\n      jump\t// in\n    tag_77:\n      mload(0x40)\n      dup1\n      swap2\n      sub\n      swap1\n      revert\n    tag_76:\n        /* \"@openzeppelin/contracts/access/AccessControl.sol\":5585:5611  _revokeRole(role, account) */\n      tag_79\n        /* \"@openzeppelin/contracts/access/AccessControl.sol\":5597:5601  role */\n      dup3\n        /* \"@openzeppelin/contracts/access/AccessControl.sol\":5603:5610  account */\n      dup3\n        /* \"@openzeppelin/contracts/access/AccessControl.sol\":5585:5596  _revokeRole */\n      tag_80\n        /* \"@openzeppelin/contracts/access/AccessControl.sol\":5585:5611  _revokeRole(role, account) */\n      jump\t// in\n    tag_79:\n        /* \"@openzeppelin/contracts/access/AccessControl.sol\":5404:5618  function renounceRole(bytes32 role, address account) public virtual override {... */\n      pop\n      pop\n      jump\t// out\n        /* \"@openzeppelin/contracts/access/AccessControl.sol\":2909:3054  function hasRole(bytes32 role, address account) public view virtual override returns (bool) {... */\n    tag_40:\n        /* \"@openzeppelin/contracts/access/AccessControl.sol\":2995:2999  bool */\n      0x00\n        /* \"@openzeppelin/contracts/access/AccessControl.sol\":3018:3024  _roles */\n      dup1\n        /* \"@openzeppelin/contracts/access/AccessControl.sol\":3018:3030  _roles[role] */\n      0x00\n        /* \"@openzeppelin/contracts/access/AccessControl.sol\":3025:3029  role */\n      dup5\n        /* \"@openzeppelin/contracts/access/AccessControl.sol\":3018:3030  _roles[role] */\n      dup2\n      mstore\n      0x20\n      add\n      swap1\n      dup2\n      mstore\n      0x20\n      add\n      0x00\n      keccak256\n        /* \"@openzeppelin/contracts/access/AccessControl.sol\":3018:3038  _roles[role].members */\n      0x00\n      add\n        /* \"@openzeppelin/contracts/access/AccessControl.sol\":3018:3047  _roles[role].members[account] */\n      0x00\n        /* \"@openzeppelin/contracts/access/AccessControl.sol\":3039:3046  account */\n      dup4\n        /* \"@openzeppelin/contracts/access/AccessControl.sol\":3018:3047  _roles[role].members[account] */\n      0xffffffffffffffffffffffffffffffffffffffff\n      and\n      0xffffffffffffffffffffffffffffffffffffffff\n      and\n      dup2\n      mstore\n      0x20\n      add\n      swap1\n      dup2\n      mstore\n      0x20\n      add\n      0x00\n      keccak256\n      0x00\n      swap1\n      sload\n      swap1\n      0x0100\n      exp\n      swap1\n      div\n      0xff\n      and\n        /* \"@openzeppelin/contracts/access/AccessControl.sol\":3011:3047  return _roles[role].members[account] */\n      swap1\n      pop\n        /* \"@openzeppelin/contracts/access/AccessControl.sol\":2909:3054  function hasRole(bytes32 role, address account) public view virtual override returns (bool) {... */\n      swap3\n      swap2\n      pop\n      pop\n      jump\t// out\n        /* \"@openzeppelin/contracts/access/AccessControl.sol\":2027:2076  bytes32 public constant DEFAULT_ADMIN_ROLE = 0x00 */\n    tag_43:\n        /* \"@openzeppelin/contracts/access/AccessControl.sol\":2072:2076  0x00 */\n      0x00\n        /* \"@openzeppelin/contracts/access/AccessControl.sol\":2027:2076  bytes32 public constant DEFAULT_ADMIN_ROLE = 0x00 */\n      dup1\n      shl\n      dup2\n      jump\t// out\n        /* \"@openzeppelin/contracts/access/AccessControl.sol\":4766:4913  function revokeRole(bytes32 role, address account) public virtual override onlyRole(getRoleAdmin(role)) {... */\n    tag_47:\n        /* \"@openzeppelin/contracts/access/AccessControl.sol\":4850:4868  getRoleAdmin(role) */\n      tag_82\n        /* \"@openzeppelin/contracts/access/AccessControl.sol\":4863:4867  role */\n      dup3\n        /* \"@openzeppelin/contracts/access/AccessControl.sol\":4850:4862  getRoleAdmin */\n      tag_28\n        /* \"@openzeppelin/contracts/access/AccessControl.sol\":4850:4868  getRoleAdmin(role) */\n      jump\t// in\n    tag_82:\n        /* \"@openzeppelin/contracts/access/AccessControl.sol\":2505:2535  _checkRole(role, _msgSender()) */\n      tag_84\n        /* \"@openzeppelin/contracts/access/AccessControl.sol\":2516:2520  role */\n      dup2\n        /* \"@openzeppelin/contracts/access/AccessControl.sol\":2522:2534  _msgSender() */\n      tag_85\n        /* \"@openzeppelin/contracts/access/AccessControl.sol\":2522:2532  _msgSender */\n      tag_69\n        /* \"@openzeppelin/contracts/access/AccessControl.sol\":2522:2534  _msgSender() */\n      jump\t// in\n    tag_85:\n        /* \"@openzeppelin/contracts/access/AccessControl.sol\":2505:2515  _checkRole */\n      tag_70\n        /* \"@openzeppelin/contracts/access/AccessControl.sol\":2505:2535  _checkRole(role, _msgSender()) */\n      jump\t// in\n    tag_84:\n        /* \"@openzeppelin/contracts/access/AccessControl.sol\":4880:4906  _revokeRole(role, account) */\n      tag_87\n        /* \"@openzeppelin/contracts/access/AccessControl.sol\":4892:4896  role */\n      dup4\n        /* \"@openzeppelin/contracts/access/AccessControl.sol\":4898:4905  account */\n      dup4\n        /* \"@openzeppelin/contracts/access/AccessControl.sol\":4880:4891  _revokeRole */\n      tag_80\n        /* \"@openzeppelin/contracts/access/AccessControl.sol\":4880:4906  _revokeRole(role, account) */\n      jump\t// in\n    tag_87:\n        /* \"@openzeppelin/contracts/access/AccessControl.sol\":4766:4913  function revokeRole(bytes32 role, address account) public virtual override onlyRole(getRoleAdmin(role)) {... */\n      pop\n      pop\n      pop\n      jump\t// out\n        /* \"src/contracts/Desca.sol\":499:555  bytes32 public constant DAO_ROLE = keccak256(\"DAO_ROLE\") */\n    tag_49:\n        /* \"src/contracts/Desca.sol\":534:555  keccak256(\"DAO_ROLE\") */\n      0x3b5d4cc60d3ec3516ee8ae083bd60934f6eb2a6c54b1229985c41bfb092b2603\n        /* \"src/contracts/Desca.sol\":499:555  bytes32 public constant DAO_ROLE = keccak256(\"DAO_ROLE\") */\n      dup2\n      jump\t// out\n        /* \"@openzeppelin/contracts/utils/introspection/ERC165.sol\":829:984  function supportsInterface(bytes4 interfaceId) public view virtual override returns (bool) {... */\n    tag_54:\n        /* \"@openzeppelin/contracts/utils/introspection/ERC165.sol\":914:918  bool */\n      0x00\n        /* \"@openzeppelin/contracts/utils/introspection/ERC165.sol\":952:977  type(IERC165).interfaceId */\n      0x01ffc9a700000000000000000000000000000000000000000000000000000000\n        /* \"@openzeppelin/contracts/utils/introspection/ERC165.sol\":937:977  interfaceId == type(IERC165).interfaceId */\n      not(0xffffffffffffffffffffffffffffffffffffffffffffffffffffffff)\n      and\n        /* \"@openzeppelin/contracts/utils/introspection/ERC165.sol\":937:948  interfaceId */\n      dup3\n        /* \"@openzeppelin/contracts/utils/introspection/ERC165.sol\":937:977  interfaceId == type(IERC165).interfaceId */\n      not(0xffffffffffffffffffffffffffffffffffffffffffffffffffffffff)\n      and\n      eq\n        /* \"@openzeppelin/contracts/utils/introspection/ERC165.sol\":930:977  return interfaceId == type(IERC165).interfaceId */\n      swap1\n      pop\n        /* \"@openzeppelin/contracts/utils/introspection/ERC165.sol\":829:984  function supportsInterface(bytes4 interfaceId) public view virtual override returns (bool) {... */\n      swap2\n      swap1\n      pop\n      jump\t// out\n        /* \"@openzeppelin/contracts/utils/Context.sol\":640:736  function _msgSender() internal view virtual returns (address) {... */\n    tag_69:\n        /* \"@openzeppelin/contracts/utils/Context.sol\":693:700  address */\n      0x00\n        /* \"@openzeppelin/contracts/utils/Context.sol\":719:729  msg.sender */\n      caller\n        /* \"@openzeppelin/contracts/utils/Context.sol\":712:729  return msg.sender */\n      swap1\n      pop\n        /* \"@openzeppelin/contracts/utils/Context.sol\":640:736  function _msgSender() internal view virtual returns (address) {... */\n      swap1\n      jump\t// out\n        /* \"@openzeppelin/contracts/access/AccessControl.sol\":3335:3827  function _checkRole(bytes32 role, address account) internal view virtual {... */\n    tag_70:\n        /* \"@openzeppelin/contracts/access/AccessControl.sol\":3423:3445  hasRole(role, account) */\n      tag_91\n        /* \"@openzeppelin/contracts/access/AccessControl.sol\":3431:3435  role */\n      dup3\n        /* \"@openzeppelin/contracts/access/AccessControl.sol\":3437:3444  account */\n      dup3\n        /* \"@openzeppelin/contracts/access/AccessControl.sol\":3423:3430  hasRole */\n      tag_40\n        /* \"@openzeppelin/contracts/access/AccessControl.sol\":3423:3445  hasRole(role, account) */\n      jump\t// in\n    tag_91:\n        /* \"@openzeppelin/contracts/access/AccessControl.sol\":3418:3821  if (!hasRole(role, account)) {... */\n      tag_92\n      jumpi\n        /* \"@openzeppelin/contracts/access/AccessControl.sol\":3606:3647  Strings.toHexString(uint160(account), 20) */\n      tag_93\n        /* \"@openzeppelin/contracts/access/AccessControl.sol\":3634:3641  account */\n      dup2\n        /* \"@openzeppelin/contracts/access/AccessControl.sol\":3606:3647  Strings.toHexString(uint160(account), 20) */\n      0xffffffffffffffffffffffffffffffffffffffff\n      and\n        /* \"@openzeppelin/contracts/access/AccessControl.sol\":3644:3646  20 */\n      0x14\n        /* \"@openzeppelin/contracts/access/AccessControl.sol\":3606:3625  Strings.toHexString */\n      tag_94\n        /* \"@openzeppelin/contracts/access/AccessControl.sol\":3606:3647  Strings.toHexString(uint160(account), 20) */\n      jump\t// in\n    tag_93:\n        /* \"@openzeppelin/contracts/access/AccessControl.sol\":3718:3756  Strings.toHexString(uint256(role), 32) */\n      tag_95\n        /* \"@openzeppelin/contracts/access/AccessControl.sol\":3746:3750  role */\n      dup4\n        /* \"@openzeppelin/contracts/access/AccessControl.sol\":3738:3751  uint256(role) */\n      0x00\n      shr\n        /* \"@openzeppelin/contracts/access/AccessControl.sol\":3753:3755  32 */\n      0x20\n        /* \"@openzeppelin/contracts/access/AccessControl.sol\":3718:3737  Strings.toHexString */\n      tag_94\n        /* \"@openzeppelin/contracts/access/AccessControl.sol\":3718:3756  Strings.toHexString(uint256(role), 32) */\n      jump\t// in\n    tag_95:\n        /* \"@openzeppelin/contracts/access/AccessControl.sol\":3513:3778  abi.encodePacked(... */\n      add(0x20, mload(0x40))\n      tag_96\n      swap3\n      swap2\n      swap1\n      tag_97\n      jump\t// in\n    tag_96:\n      mload(0x40)\n      0x20\n      dup2\n      dup4\n      sub\n      sub\n      dup2\n      mstore\n      swap1\n      0x40\n      mstore\n        /* \"@openzeppelin/contracts/access/AccessControl.sol\":3461:3810  revert(... */\n      mload(0x40)\n      0x08c379a000000000000000000000000000000000000000000000000000000000\n      dup2\n      mstore\n      0x04\n      add\n      tag_98\n      swap2\n      swap1\n      tag_24\n      jump\t// in\n    tag_98:\n      mload(0x40)\n      dup1\n      swap2\n      sub\n      swap1\n      revert\n        /* \"@openzeppelin/contracts/access/AccessControl.sol\":3418:3821  if (!hasRole(role, account)) {... */\n    tag_92:\n        /* \"@openzeppelin/contracts/access/AccessControl.sol\":3335:3827  function _checkRole(bytes32 role, address account) internal view virtual {... */\n      pop\n      pop\n      jump\t// out\n        /* \"@openzeppelin/contracts/access/AccessControl.sol\":6861:7094  function _grantRole(bytes32 role, address account) internal virtual {... */\n    tag_73:\n        /* \"@openzeppelin/contracts/access/AccessControl.sol\":6944:6966  hasRole(role, account) */\n      tag_100\n        /* \"@openzeppelin/contracts/access/AccessControl.sol\":6952:6956  role */\n      dup3\n        /* \"@openzeppelin/contracts/access/AccessControl.sol\":6958:6965  account */\n      dup3\n        /* \"@openzeppelin/contracts/access/AccessControl.sol\":6944:6951  hasRole */\n      tag_40\n        /* \"@openzeppelin/contracts/access/AccessControl.sol\":6944:6966  hasRole(role, account) */\n      jump\t// in\n    tag_100:\n        /* \"@openzeppelin/contracts/access/AccessControl.sol\":6939:7088  if (!hasRole(role, account)) {... */\n      tag_101\n      jumpi\n        /* \"@openzeppelin/contracts/access/AccessControl.sol\":7014:7018  true */\n      0x01\n        /* \"@openzeppelin/contracts/access/AccessControl.sol\":6982:6988  _roles */\n      0x00\n        /* \"@openzeppelin/contracts/access/AccessControl.sol\":6982:6994  _roles[role] */\n      dup1\n        /* \"@openzeppelin/contracts/access/AccessControl.sol\":6989:6993  role */\n      dup5\n        /* \"@openzeppelin/contracts/access/AccessControl.sol\":6982:6994  _roles[role] */\n      dup2\n      mstore\n      0x20\n      add\n      swap1\n      dup2\n      mstore\n      0x20\n      add\n      0x00\n      keccak256\n        /* \"@openzeppelin/contracts/access/AccessControl.sol\":6982:7002  _roles[role].members */\n      0x00\n      add\n        /* \"@openzeppelin/contracts/access/AccessControl.sol\":6982:7011  _roles[role].members[account] */\n      0x00\n        /* \"@openzeppelin/contracts/access/AccessControl.sol\":7003:7010  account */\n      dup4\n        /* \"@openzeppelin/contracts/access/AccessControl.sol\":6982:7011  _roles[role].members[account] */\n      0xffffffffffffffffffffffffffffffffffffffff\n      and\n      0xffffffffffffffffffffffffffffffffffffffff\n      and\n      dup2\n      mstore\n      0x20\n      add\n      swap1\n      dup2\n      mstore\n      0x20\n      add\n      0x00\n      keccak256\n      0x00\n        /* \"@openzeppelin/contracts/access/AccessControl.sol\":6982:7018  _roles[role].members[account] = true */\n      0x0100\n      exp\n      dup2\n      sload\n      dup2\n      0xff\n      mul\n      not\n      and\n      swap1\n      dup4\n      iszero\n      iszero\n      mul\n      or\n      swap1\n      sstore\n      pop\n        /* \"@openzeppelin/contracts/access/AccessControl.sol\":7064:7076  _msgSender() */\n      tag_102\n        /* \"@openzeppelin/contracts/access/AccessControl.sol\":7064:7074  _msgSender */\n      tag_69\n        /* \"@openzeppelin/contracts/access/AccessControl.sol\":7064:7076  _msgSender() */\n      jump\t// in\n    tag_102:\n        /* \"@openzeppelin/contracts/access/AccessControl.sol\":7037:7077  RoleGranted(role, account, _msgSender()) */\n      0xffffffffffffffffffffffffffffffffffffffff\n      and\n        /* \"@openzeppelin/contracts/access/AccessControl.sol\":7055:7062  account */\n      dup2\n        /* \"@openzeppelin/contracts/access/AccessControl.sol\":7037:7077  RoleGranted(role, account, _msgSender()) */\n      0xffffffffffffffffffffffffffffffffffffffff\n      and\n        /* \"@openzeppelin/contracts/access/AccessControl.sol\":7049:7053  role */\n      dup4\n        /* \"@openzeppelin/contracts/access/AccessControl.sol\":7037:7077  RoleGranted(role, account, _msgSender()) */\n      0x2f8788117e7eff1d82e926ec794901d17c78024a50270940304540a733656f0d\n      mload(0x40)\n      mload(0x40)\n      dup1\n      swap2\n      sub\n      swap1\n      log4\n        /* \"@openzeppelin/contracts/access/AccessControl.sol\":6939:7088  if (!hasRole(role, account)) {... */\n    tag_101:\n        /* \"@openzeppelin/contracts/access/AccessControl.sol\":6861:7094  function _grantRole(bytes32 role, address account) internal virtual {... */\n      pop\n      pop\n      jump\t// out\n        /* \"@openzeppelin/contracts/access/AccessControl.sol\":7219:7453  function _revokeRole(bytes32 role, address account) internal virtual {... */\n    tag_80:\n        /* \"@openzeppelin/contracts/access/AccessControl.sol\":7302:7324  hasRole(role, account) */\n      tag_104\n        /* \"@openzeppelin/contracts/access/AccessControl.sol\":7310:7314  role */\n      dup3\n        /* \"@openzeppelin/contracts/access/AccessControl.sol\":7316:7323  account */\n      dup3\n        /* \"@openzeppelin/contracts/access/AccessControl.sol\":7302:7309  hasRole */\n      tag_40\n        /* \"@openzeppelin/contracts/access/AccessControl.sol\":7302:7324  hasRole(role, account) */\n      jump\t// in\n    tag_104:\n        /* \"@openzeppelin/contracts/access/AccessControl.sol\":7298:7447  if (hasRole(role, account)) {... */\n      iszero\n      tag_105\n      jumpi\n        /* \"@openzeppelin/contracts/access/AccessControl.sol\":7372:7377  false */\n      0x00\n        /* \"@openzeppelin/contracts/access/AccessControl.sol\":7340:7346  _roles */\n      dup1\n        /* \"@openzeppelin/contracts/access/AccessControl.sol\":7340:7352  _roles[role] */\n      0x00\n        /* \"@openzeppelin/contracts/access/AccessControl.sol\":7347:7351  role */\n      dup5\n        /* \"@openzeppelin/contracts/access/AccessControl.sol\":7340:7352  _roles[role] */\n      dup2\n      mstore\n      0x20\n      add\n      swap1\n      dup2\n      mstore\n      0x20\n      add\n      0x00\n      keccak256\n        /* \"@openzeppelin/contracts/access/AccessControl.sol\":7340:7360  _roles[role].members */\n      0x00\n      add\n        /* \"@openzeppelin/contracts/access/AccessControl.sol\":7340:7369  _roles[role].members[account] */\n      0x00\n        /* \"@openzeppelin/contracts/access/AccessControl.sol\":7361:7368  account */\n      dup4\n        /* \"@openzeppelin/contracts/access/AccessControl.sol\":7340:7369  _roles[role].members[account] */\n      0xffffffffffffffffffffffffffffffffffffffff\n      and\n      0xffffffffffffffffffffffffffffffffffffffff\n      and\n      dup2\n      mstore\n      0x20\n      add\n      swap1\n      dup2\n      mstore\n      0x20\n      add\n      0x00\n      keccak256\n      0x00\n        /* \"@openzeppelin/contracts/access/AccessControl.sol\":7340:7377  _roles[role].members[account] = false */\n      0x0100\n      exp\n      dup2\n      sload\n      dup2\n      0xff\n      mul\n      not\n      and\n      swap1\n      dup4\n      iszero\n      iszero\n      mul\n      or\n      swap1\n      sstore\n      pop\n        /* \"@openzeppelin/contracts/access/AccessControl.sol\":7423:7435  _msgSender() */\n      tag_106\n        /* \"@openzeppelin/contracts/access/AccessControl.sol\":7423:7433  _msgSender */\n      tag_69\n        /* \"@openzeppelin/contracts/access/AccessControl.sol\":7423:7435  _msgSender() */\n      jump\t// in\n    tag_106:\n        /* \"@openzeppelin/contracts/access/AccessControl.sol\":7396:7436  RoleRevoked(role, account, _msgSender()) */\n      0xffffffffffffffffffffffffffffffffffffffff\n      and\n        /* \"@openzeppelin/contracts/access/AccessControl.sol\":7414:7421  account */\n      dup2\n        /* \"@openzeppelin/contracts/access/AccessControl.sol\":7396:7436  RoleRevoked(role, account, _msgSender()) */\n      0xffffffffffffffffffffffffffffffffffffffff\n      and\n        /* \"@openzeppelin/contracts/access/AccessControl.sol\":7408:7412  role */\n      dup4\n        /* \"@openzeppelin/contracts/access/AccessControl.sol\":7396:7436  RoleRevoked(role, account, _msgSender()) */\n      0xf6391f5c32d9c69d2a47ea670b442974b53935d1edc7fd64eb21e047a839171b\n      mload(0x40)\n      mload(0x40)\n      dup1\n      swap2\n      sub\n      swap1\n      log4\n        /* \"@openzeppelin/contracts/access/AccessControl.sol\":7298:7447  if (hasRole(role, account)) {... */\n    tag_105:\n        /* \"@openzeppelin/contracts/access/AccessControl.sol\":7219:7453  function _revokeRole(bytes32 role, address account) internal virtual {... */\n      pop\n      pop\n      jump\t// out\n        /* \"@openzeppelin/contracts/utils/Strings.sol\":1588:2029  function toHexString(uint256 value, uint256 length) internal pure returns (string memory) {... */\n    tag_94:\n        /* \"@openzeppelin/contracts/utils/Strings.sol\":1663:1676  string memory */\n      0x60\n        /* \"@openzeppelin/contracts/utils/Strings.sol\":1688:1707  bytes memory buffer */\n      0x00\n        /* \"@openzeppelin/contracts/utils/Strings.sol\":1733:1734  2 */\n      0x02\n        /* \"@openzeppelin/contracts/utils/Strings.sol\":1724:1730  length */\n      dup4\n        /* \"@openzeppelin/contracts/utils/Strings.sol\":1720:1721  2 */\n      0x02\n        /* \"@openzeppelin/contracts/utils/Strings.sol\":1720:1730  2 * length */\n      tag_108\n      swap2\n      swap1\n      tag_109\n      jump\t// in\n    tag_108:\n        /* \"@openzeppelin/contracts/utils/Strings.sol\":1720:1734  2 * length + 2 */\n      tag_110\n      swap2\n      swap1\n      tag_111\n      jump\t// in\n    tag_110:\n        /* \"@openzeppelin/contracts/utils/Strings.sol\":1710:1735  new bytes(2 * length + 2) */\n      0xffffffffffffffff\n      dup2\n      gt\n      iszero\n      tag_112\n      jumpi\n      tag_113\n      tag_114\n      jump\t// in\n    tag_113:\n    tag_112:\n      mload(0x40)\n      swap1\n      dup1\n      dup3\n      mstore\n      dup1\n      0x1f\n      add\n      not(0x1f)\n      and\n      0x20\n      add\n      dup3\n      add\n      0x40\n      mstore\n      dup1\n      iszero\n      tag_115\n      jumpi\n      dup2\n      0x20\n      add\n      0x01\n      dup3\n      mul\n      dup1\n      calldatasize\n      dup4\n      calldatacopy\n      dup1\n      dup3\n      add\n      swap2\n      pop\n      pop\n      swap1\n      pop\n    tag_115:\n      pop\n        /* \"@openzeppelin/contracts/utils/Strings.sol\":1688:1735  bytes memory buffer = new bytes(2 * length + 2) */\n      swap1\n      pop\n        /* \"@openzeppelin/contracts/utils/Strings.sol\":1745:1760  buffer[0] = \"0\" */\n      0x3000000000000000000000000000000000000000000000000000000000000000\n        /* \"@openzeppelin/contracts/utils/Strings.sol\":1745:1751  buffer */\n      dup2\n        /* \"@openzeppelin/contracts/utils/Strings.sol\":1752:1753  0 */\n      0x00\n        /* \"@openzeppelin/contracts/utils/Strings.sol\":1745:1754  buffer[0] */\n      dup2\n      mload\n      dup2\n      lt\n      tag_116\n      jumpi\n      tag_117\n      tag_118\n      jump\t// in\n    tag_117:\n    tag_116:\n      0x20\n      add\n      add\n        /* \"@openzeppelin/contracts/utils/Strings.sol\":1745:1760  buffer[0] = \"0\" */\n      swap1\n      not(0xffffffffffffffffffffffffffffffffffffffffffffffffffffffffffffff)\n      and\n      swap1\n      dup2\n      0x00\n      byte\n      swap1\n      mstore8\n      pop\n        /* \"@openzeppelin/contracts/utils/Strings.sol\":1770:1785  buffer[1] = \"x\" */\n      0x7800000000000000000000000000000000000000000000000000000000000000\n        /* \"@openzeppelin/contracts/utils/Strings.sol\":1770:1776  buffer */\n      dup2\n        /* \"@openzeppelin/contracts/utils/Strings.sol\":1777:1778  1 */\n      0x01\n        /* \"@openzeppelin/contracts/utils/Strings.sol\":1770:1779  buffer[1] */\n      dup2\n      mload\n      dup2\n      lt\n      tag_119\n      jumpi\n      tag_120\n      tag_118\n      jump\t// in\n    tag_120:\n    tag_119:\n      0x20\n      add\n      add\n        /* \"@openzeppelin/contracts/utils/Strings.sol\":1770:1785  buffer[1] = \"x\" */\n      swap1\n      not(0xffffffffffffffffffffffffffffffffffffffffffffffffffffffffffffff)\n      and\n      swap1\n      dup2\n      0x00\n      byte\n      swap1\n      mstore8\n      pop\n        /* \"@openzeppelin/contracts/utils/Strings.sol\":1800:1809  uint256 i */\n      0x00\n        /* \"@openzeppelin/contracts/utils/Strings.sol\":1825:1826  1 */\n      0x01\n        /* \"@openzeppelin/contracts/utils/Strings.sol\":1816:1822  length */\n      dup5\n        /* \"@openzeppelin/contracts/utils/Strings.sol\":1812:1813  2 */\n      0x02\n        /* \"@openzeppelin/contracts/utils/Strings.sol\":1812:1822  2 * length */\n      tag_124\n      swap2\n      swap1\n      tag_109\n      jump\t// in\n    tag_124:\n        /* \"@openzeppelin/contracts/utils/Strings.sol\":1812:1826  2 * length + 1 */\n      tag_125\n      swap2\n      swap1\n      tag_111\n      jump\t// in\n    tag_125:\n        /* \"@openzeppelin/contracts/utils/Strings.sol\":1800:1826  uint256 i = 2 * length + 1 */\n      swap1\n      pop\n        /* \"@openzeppelin/contracts/utils/Strings.sol\":1795:1927  for (uint256 i = 2 * length + 1; i > 1; --i) {... */\n    tag_121:\n        /* \"@openzeppelin/contracts/utils/Strings.sol\":1832:1833  1 */\n      0x01\n        /* \"@openzeppelin/contracts/utils/Strings.sol\":1828:1829  i */\n      dup2\n        /* \"@openzeppelin/contracts/utils/Strings.sol\":1828:1833  i > 1 */\n      gt\n        /* \"@openzeppelin/contracts/utils/Strings.sol\":1795:1927  for (uint256 i = 2 * length + 1; i > 1; --i) {... */\n      iszero\n      tag_122\n      jumpi\n        /* \"@openzeppelin/contracts/utils/Strings.sol\":1866:1878  _HEX_SYMBOLS */\n      0x3031323334353637383961626364656600000000000000000000000000000000\n        /* \"@openzeppelin/contracts/utils/Strings.sol\":1887:1890  0xf */\n      0x0f\n        /* \"@openzeppelin/contracts/utils/Strings.sol\":1879:1884  value */\n      dup7\n        /* \"@openzeppelin/contracts/utils/Strings.sol\":1879:1890  value & 0xf */\n      and\n        /* \"@openzeppelin/contracts/utils/Strings.sol\":1866:1891  _HEX_SYMBOLS[value & 0xf] */\n      0x10\n      dup2\n      lt\n      tag_126\n      jumpi\n      tag_127\n      tag_118\n      jump\t// in\n    tag_127:\n    tag_126:\n      byte\n      0xf8\n      shl\n        /* \"@openzeppelin/contracts/utils/Strings.sol\":1854:1860  buffer */\n      dup3\n        /* \"@openzeppelin/contracts/utils/Strings.sol\":1861:1862  i */\n      dup3\n        /* \"@openzeppelin/contracts/utils/Strings.sol\":1854:1863  buffer[i] */\n      dup2\n      mload\n      dup2\n      lt\n      tag_128\n      jumpi\n      tag_129\n      tag_118\n      jump\t// in\n    tag_129:\n    tag_128:\n      0x20\n      add\n      add\n        /* \"@openzeppelin/contracts/utils/Strings.sol\":1854:1891  buffer[i] = _HEX_SYMBOLS[value & 0xf] */\n      swap1\n      not(0xffffffffffffffffffffffffffffffffffffffffffffffffffffffffffffff)\n      and\n      swap1\n      dup2\n      0x00\n      byte\n      swap1\n      mstore8\n      pop\n        /* \"@openzeppelin/contracts/utils/Strings.sol\":1915:1916  4 */\n      0x04\n        /* \"@openzeppelin/contracts/utils/Strings.sol\":1905:1916  value >>= 4 */\n      dup6\n      swap1\n      shr\n      swap5\n      pop\n        /* \"@openzeppelin/contracts/utils/Strings.sol\":1835:1838  --i */\n      dup1\n      tag_130\n      swap1\n      tag_131\n      jump\t// in\n    tag_130:\n      swap1\n      pop\n        /* \"@openzeppelin/contracts/utils/Strings.sol\":1795:1927  for (uint256 i = 2 * length + 1; i > 1; --i) {... */\n      jump(tag_121)\n    tag_122:\n      pop\n        /* \"@openzeppelin/contracts/utils/Strings.sol\":1953:1954  0 */\n      0x00\n        /* \"@openzeppelin/contracts/utils/Strings.sol\":1944:1949  value */\n      dup5\n        /* \"@openzeppelin/contracts/utils/Strings.sol\":1944:1954  value == 0 */\n      eq\n        /* \"@openzeppelin/contracts/utils/Strings.sol\":1936:1991  require(value == 0, \"Strings: hex length insufficient\") */\n      tag_132\n      jumpi\n      mload(0x40)\n      0x08c379a000000000000000000000000000000000000000000000000000000000\n      dup2\n      mstore\n      0x04\n      add\n      tag_133\n      swap1\n      tag_134\n      jump\t// in\n    tag_133:\n      mload(0x40)\n      dup1\n      swap2\n      sub\n      swap1\n      revert\n    tag_132:\n        /* \"@openzeppelin/contracts/utils/Strings.sol\":2015:2021  buffer */\n      dup1\n        /* \"@openzeppelin/contracts/utils/Strings.sol\":2001:2022  return string(buffer) */\n      swap2\n      pop\n      pop\n        /* \"@openzeppelin/contracts/utils/Strings.sol\":1588:2029  function toHexString(uint256 value, uint256 length) internal pure returns (string memory) {... */\n      swap3\n      swap2\n      pop\n      pop\n      jump\t// out\n        /* \"#utility.yul\":88:205   */\n    tag_136:\n        /* \"#utility.yul\":197:198   */\n      0x00\n        /* \"#utility.yul\":194:195   */\n      dup1\n        /* \"#utility.yul\":187:199   */\n      revert\n        /* \"#utility.yul\":334:483   */\n    tag_138:\n        /* \"#utility.yul\":370:377   */\n      0x00\n        /* \"#utility.yul\":410:476   */\n      0xffffffff00000000000000000000000000000000000000000000000000000000\n        /* \"#utility.yul\":403:408   */\n      dup3\n        /* \"#utility.yul\":399:477   */\n      and\n        /* \"#utility.yul\":388:477   */\n      swap1\n      pop\n        /* \"#utility.yul\":334:483   */\n      swap2\n      swap1\n      pop\n      jump\t// out\n        /* \"#utility.yul\":489:609   */\n    tag_139:\n        /* \"#utility.yul\":561:584   */\n      tag_178\n        /* \"#utility.yul\":578:583   */\n      dup2\n        /* \"#utility.yul\":561:584   */\n      tag_138\n      jump\t// in\n    tag_178:\n        /* \"#utility.yul\":554:559   */\n      dup2\n        /* \"#utility.yul\":551:585   */\n      eq\n        /* \"#utility.yul\":541:603   */\n      tag_179\n      jumpi\n        /* \"#utility.yul\":599:600   */\n      0x00\n        /* \"#utility.yul\":596:597   */\n      dup1\n        /* \"#utility.yul\":589:601   */\n      revert\n        /* \"#utility.yul\":541:603   */\n    tag_179:\n        /* \"#utility.yul\":489:609   */\n      pop\n      jump\t// out\n        /* \"#utility.yul\":615:752   */\n    tag_140:\n        /* \"#utility.yul\":660:665   */\n      0x00\n        /* \"#utility.yul\":698:704   */\n      dup2\n        /* \"#utility.yul\":685:705   */\n      calldataload\n        /* \"#utility.yul\":676:705   */\n      swap1\n      pop\n        /* \"#utility.yul\":714:746   */\n      tag_181\n        /* \"#utility.yul\":740:745   */\n      dup2\n        /* \"#utility.yul\":714:746   */\n      tag_139\n      jump\t// in\n    tag_181:\n        /* \"#utility.yul\":615:752   */\n      swap3\n      swap2\n      pop\n      pop\n      jump\t// out\n        /* \"#utility.yul\":758:1085   */\n    tag_15:\n        /* \"#utility.yul\":816:822   */\n      0x00\n        /* \"#utility.yul\":865:867   */\n      0x20\n        /* \"#utility.yul\":853:862   */\n      dup3\n        /* \"#utility.yul\":844:851   */\n      dup5\n        /* \"#utility.yul\":840:863   */\n      sub\n        /* \"#utility.yul\":836:868   */\n      slt\n        /* \"#utility.yul\":833:952   */\n      iszero\n      tag_183\n      jumpi\n        /* \"#utility.yul\":871:950   */\n      tag_184\n      tag_136\n      jump\t// in\n    tag_184:\n        /* \"#utility.yul\":833:952   */\n    tag_183:\n        /* \"#utility.yul\":991:992   */\n      0x00\n        /* \"#utility.yul\":1016:1068   */\n      tag_185\n        /* \"#utility.yul\":1060:1067   */\n      dup5\n        /* \"#utility.yul\":1051:1057   */\n      dup3\n        /* \"#utility.yul\":1040:1049   */\n      dup6\n        /* \"#utility.yul\":1036:1058   */\n      add\n        /* \"#utility.yul\":1016:1068   */\n      tag_140\n      jump\t// in\n    tag_185:\n        /* \"#utility.yul\":1006:1068   */\n      swap2\n      pop\n        /* \"#utility.yul\":962:1078   */\n      pop\n        /* \"#utility.yul\":758:1085   */\n      swap3\n      swap2\n      pop\n      pop\n      jump\t// out\n        /* \"#utility.yul\":1091:1181   */\n    tag_141:\n        /* \"#utility.yul\":1125:1132   */\n      0x00\n        /* \"#utility.yul\":1168:1173   */\n      dup2\n        /* \"#utility.yul\":1161:1174   */\n      iszero\n        /* \"#utility.yul\":1154:1175   */\n      iszero\n        /* \"#utility.yul\":1143:1175   */\n      swap1\n      pop\n        /* \"#utility.yul\":1091:1181   */\n      swap2\n      swap1\n      pop\n      jump\t// out\n        /* \"#utility.yul\":1187:1296   */\n    tag_142:\n        /* \"#utility.yul\":1268:1289   */\n      tag_188\n        /* \"#utility.yul\":1283:1288   */\n      dup2\n        /* \"#utility.yul\":1268:1289   */\n      tag_141\n      jump\t// in\n    tag_188:\n        /* \"#utility.yul\":1263:1266   */\n      dup3\n        /* \"#utility.yul\":1256:1290   */\n      mstore\n        /* \"#utility.yul\":1187:1296   */\n      pop\n      pop\n      jump\t// out\n        /* \"#utility.yul\":1302:1512   */\n    tag_18:\n        /* \"#utility.yul\":1389:1393   */\n      0x00\n        /* \"#utility.yul\":1427:1429   */\n      0x20\n        /* \"#utility.yul\":1416:1425   */\n      dup3\n        /* \"#utility.yul\":1412:1430   */\n      add\n        /* \"#utility.yul\":1404:1430   */\n      swap1\n      pop\n        /* \"#utility.yul\":1440:1505   */\n      tag_190\n        /* \"#utility.yul\":1502:1503   */\n      0x00\n        /* \"#utility.yul\":1491:1500   */\n      dup4\n        /* \"#utility.yul\":1487:1504   */\n      add\n        /* \"#utility.yul\":1478:1484   */\n      dup5\n        /* \"#utility.yul\":1440:1505   */\n      tag_142\n      jump\t// in\n    tag_190:\n        /* \"#utility.yul\":1302:1512   */\n      swap3\n      swap2\n      pop\n      pop\n      jump\t// out\n        /* \"#utility.yul\":1518:1644   */\n    tag_143:\n        /* \"#utility.yul\":1555:1562   */\n      0x00\n        /* \"#utility.yul\":1595:1637   */\n      0xffffffffffffffffffffffffffffffffffffffff\n        /* \"#utility.yul\":1588:1593   */\n      dup3\n        /* \"#utility.yul\":1584:1638   */\n      and\n        /* \"#utility.yul\":1573:1638   */\n      swap1\n      pop\n        /* \"#utility.yul\":1518:1644   */\n      swap2\n      swap1\n      pop\n      jump\t// out\n        /* \"#utility.yul\":1650:1746   */\n    tag_144:\n        /* \"#utility.yul\":1687:1694   */\n      0x00\n        /* \"#utility.yul\":1716:1740   */\n      tag_193\n        /* \"#utility.yul\":1734:1739   */\n      dup3\n        /* \"#utility.yul\":1716:1740   */\n      tag_143\n      jump\t// in\n    tag_193:\n        /* \"#utility.yul\":1705:1740   */\n      swap1\n      pop\n        /* \"#utility.yul\":1650:1746   */\n      swap2\n      swap1\n      pop\n      jump\t// out\n        /* \"#utility.yul\":1752:1874   */\n    tag_145:\n        /* \"#utility.yul\":1825:1849   */\n      tag_195\n        /* \"#utility.yul\":1843:1848   */\n      dup2\n        /* \"#utility.yul\":1825:1849   */\n      tag_144\n      jump\t// in\n    tag_195:\n        /* \"#utility.yul\":1818:1823   */\n      dup2\n        /* \"#utility.yul\":1815:1850   */\n      eq\n        /* \"#utility.yul\":1805:1868   */\n      tag_196\n      jumpi\n        /* \"#utility.yul\":1864:1865   */\n      0x00\n        /* \"#utility.yul\":1861:1862   */\n      dup1\n        /* \"#utility.yul\":1854:1866   */\n      revert\n        /* \"#utility.yul\":1805:1868   */\n    tag_196:\n        /* \"#utility.yul\":1752:1874   */\n      pop\n      jump\t// out\n        /* \"#utility.yul\":1880:2019   */\n    tag_146:\n        /* \"#utility.yul\":1926:1931   */\n      0x00\n        /* \"#utility.yul\":1964:1970   */\n      dup2\n        /* \"#utility.yul\":1951:1971   */\n      calldataload\n        /* \"#utility.yul\":1942:1971   */\n      swap1\n      pop\n        /* \"#utility.yul\":1980:2013   */\n      tag_198\n        /* \"#utility.yul\":2007:2012   */\n      dup2\n        /* \"#utility.yul\":1980:2013   */\n      tag_145\n      jump\t// in\n    tag_198:\n        /* \"#utility.yul\":1880:2019   */\n      swap3\n      swap2\n      pop\n      pop\n      jump\t// out\n        /* \"#utility.yul\":2025:2354   */\n    tag_21:\n        /* \"#utility.yul\":2084:2090   */\n      0x00\n        /* \"#utility.yul\":2133:2135   */\n      0x20\n        /* \"#utility.yul\":2121:2130   */\n      dup3\n        /* \"#utility.yul\":2112:2119   */\n      dup5\n        /* \"#utility.yul\":2108:2131   */\n      sub\n        /* \"#utility.yul\":2104:2136   */\n      slt\n        /* \"#utility.yul\":2101:2220   */\n      iszero\n      tag_200\n      jumpi\n        /* \"#utility.yul\":2139:2218   */\n      tag_201\n      tag_136\n      jump\t// in\n    tag_201:\n        /* \"#utility.yul\":2101:2220   */\n    tag_200:\n        /* \"#utility.yul\":2259:2260   */\n      0x00\n        /* \"#utility.yul\":2284:2337   */\n      tag_202\n        /* \"#utility.yul\":2329:2336   */\n      dup5\n        /* \"#utility.yul\":2320:2326   */\n      dup3\n        /* \"#utility.yul\":2309:2318   */\n      dup6\n        /* \"#utility.yul\":2305:2327   */\n      add\n        /* \"#utility.yul\":2284:2337   */\n      tag_146\n      jump\t// in\n    tag_202:\n        /* \"#utility.yul\":2274:2337   */\n      swap2\n      pop\n        /* \"#utility.yul\":2230:2347   */\n      pop\n        /* \"#utility.yul\":2025:2354   */\n      swap3\n      swap2\n      pop\n      pop\n      jump\t// out\n        /* \"#utility.yul\":2360:2459   */\n    tag_147:\n        /* \"#utility.yul\":2412:2418   */\n      0x00\n        /* \"#utility.yul\":2446:2451   */\n      dup2\n        /* \"#utility.yul\":2440:2452   */\n      mload\n        /* \"#utility.yul\":2430:2452   */\n      swap1\n      pop\n        /* \"#utility.yul\":2360:2459   */\n      swap2\n      swap1\n      pop\n      jump\t// out\n        /* \"#utility.yul\":2465:2634   */\n    tag_148:\n        /* \"#utility.yul\":2549:2560   */\n      0x00\n        /* \"#utility.yul\":2583:2589   */\n      dup3\n        /* \"#utility.yul\":2578:2581   */\n      dup3\n        /* \"#utility.yul\":2571:2590   */\n      mstore\n        /* \"#utility.yul\":2623:2627   */\n      0x20\n        /* \"#utility.yul\":2618:2621   */\n      dup3\n        /* \"#utility.yul\":2614:2628   */\n      add\n        /* \"#utility.yul\":2599:2628   */\n      swap1\n      pop\n        /* \"#utility.yul\":2465:2634   */\n      swap3\n      swap2\n      pop\n      pop\n      jump\t// out\n        /* \"#utility.yul\":2640:2947   */\n    tag_149:\n        /* \"#utility.yul\":2708:2709   */\n      0x00\n        /* \"#utility.yul\":2718:2831   */\n    tag_206:\n        /* \"#utility.yul\":2732:2738   */\n      dup4\n        /* \"#utility.yul\":2729:2730   */\n      dup2\n        /* \"#utility.yul\":2726:2739   */\n      lt\n        /* \"#utility.yul\":2718:2831   */\n      iszero\n      tag_208\n      jumpi\n        /* \"#utility.yul\":2817:2818   */\n      dup1\n        /* \"#utility.yul\":2812:2815   */\n      dup3\n        /* \"#utility.yul\":2808:2819   */\n      add\n        /* \"#utility.yul\":2802:2820   */\n      mload\n        /* \"#utility.yul\":2798:2799   */\n      dup2\n        /* \"#utility.yul\":2793:2796   */\n      dup5\n        /* \"#utility.yul\":2789:2800   */\n      add\n        /* \"#utility.yul\":2782:2821   */\n      mstore\n        /* \"#utility.yul\":2754:2756   */\n      0x20\n        /* \"#utility.yul\":2751:2752   */\n      dup2\n        /* \"#utility.yul\":2747:2757   */\n      add\n        /* \"#utility.yul\":2742:2757   */\n      swap1\n      pop\n        /* \"#utility.yul\":2718:2831   */\n      jump(tag_206)\n    tag_208:\n        /* \"#utility.yul\":2849:2855   */\n      dup4\n        /* \"#utility.yul\":2846:2847   */\n      dup2\n        /* \"#utility.yul\":2843:2856   */\n      gt\n        /* \"#utility.yul\":2840:2941   */\n      iszero\n      tag_209\n      jumpi\n        /* \"#utility.yul\":2929:2930   */\n      0x00\n        /* \"#utility.yul\":2920:2926   */\n      dup5\n        /* \"#utility.yul\":2915:2918   */\n      dup5\n        /* \"#utility.yul\":2911:2927   */\n      add\n        /* \"#utility.yul\":2904:2931   */\n      mstore\n        /* \"#utility.yul\":2840:2941   */\n    tag_209:\n        /* \"#utility.yul\":2689:2947   */\n      pop\n        /* \"#utility.yul\":2640:2947   */\n      pop\n      pop\n      pop\n      jump\t// out\n        /* \"#utility.yul\":2953:3055   */\n    tag_150:\n        /* \"#utility.yul\":2994:3000   */\n      0x00\n        /* \"#utility.yul\":3045:3047   */\n      0x1f\n        /* \"#utility.yul\":3041:3048   */\n      not\n        /* \"#utility.yul\":3036:3038   */\n      0x1f\n        /* \"#utility.yul\":3029:3034   */\n      dup4\n        /* \"#utility.yul\":3025:3039   */\n      add\n        /* \"#utility.yul\":3021:3049   */\n      and\n        /* \"#utility.yul\":3011:3049   */\n      swap1\n      pop\n        /* \"#utility.yul\":2953:3055   */\n      swap2\n      swap1\n      pop\n      jump\t// out\n        /* \"#utility.yul\":3061:3425   */\n    tag_151:\n        /* \"#utility.yul\":3149:3152   */\n      0x00\n        /* \"#utility.yul\":3177:3216   */\n      tag_212\n        /* \"#utility.yul\":3210:3215   */\n      dup3\n        /* \"#utility.yul\":3177:3216   */\n      tag_147\n      jump\t// in\n    tag_212:\n        /* \"#utility.yul\":3232:3303   */\n      tag_213\n        /* \"#utility.yul\":3296:3302   */\n      dup2\n        /* \"#utility.yul\":3291:3294   */\n      dup6\n        /* \"#utility.yul\":3232:3303   */\n      tag_148\n      jump\t// in\n    tag_213:\n        /* \"#utility.yul\":3225:3303   */\n      swap4\n      pop\n        /* \"#utility.yul\":3312:3364   */\n      tag_214\n        /* \"#utility.yul\":3357:3363   */\n      dup2\n        /* \"#utility.yul\":3352:3355   */\n      dup6\n        /* \"#utility.yul\":3345:3349   */\n      0x20\n        /* \"#utility.yul\":3338:3343   */\n      dup7\n        /* \"#utility.yul\":3334:3350   */\n      add\n        /* \"#utility.yul\":3312:3364   */\n      tag_149\n      jump\t// in\n    tag_214:\n        /* \"#utility.yul\":3389:3418   */\n      tag_215\n        /* \"#utility.yul\":3411:3417   */\n      dup2\n        /* \"#utility.yul\":3389:3418   */\n      tag_150\n      jump\t// in\n    tag_215:\n        /* \"#utility.yul\":3384:3387   */\n      dup5\n        /* \"#utility.yul\":3380:3419   */\n      add\n        /* \"#utility.yul\":3373:3419   */\n      swap2\n      pop\n        /* \"#utility.yul\":3153:3425   */\n      pop\n        /* \"#utility.yul\":3061:3425   */\n      swap3\n      swap2\n      pop\n      pop\n      jump\t// out\n        /* \"#utility.yul\":3431:3744   */\n    tag_24:\n        /* \"#utility.yul\":3544:3548   */\n      0x00\n        /* \"#utility.yul\":3582:3584   */\n      0x20\n        /* \"#utility.yul\":3571:3580   */\n      dup3\n        /* \"#utility.yul\":3567:3585   */\n      add\n        /* \"#utility.yul\":3559:3585   */\n      swap1\n      pop\n        /* \"#utility.yul\":3631:3640   */\n      dup2\n        /* \"#utility.yul\":3625:3629   */\n      dup2\n        /* \"#utility.yul\":3621:3641   */\n      sub\n        /* \"#utility.yul\":3617:3618   */\n      0x00\n        /* \"#utility.yul\":3606:3615   */\n      dup4\n        /* \"#utility.yul\":3602:3619   */\n      add\n        /* \"#utility.yul\":3595:3642   */\n      mstore\n        /* \"#utility.yul\":3659:3737   */\n      tag_217\n        /* \"#utility.yul\":3732:3736   */\n      dup2\n        /* \"#utility.yul\":3723:3729   */\n      dup5\n        /* \"#utility.yul\":3659:3737   */\n      tag_151\n      jump\t// in\n    tag_217:\n        /* \"#utility.yul\":3651:3737   */\n      swap1\n      pop\n        /* \"#utility.yul\":3431:3744   */\n      swap3\n      swap2\n      pop\n      pop\n      jump\t// out\n        /* \"#utility.yul\":3750:3827   */\n    tag_152:\n        /* \"#utility.yul\":3787:3794   */\n      0x00\n        /* \"#utility.yul\":3816:3821   */\n      dup2\n        /* \"#utility.yul\":3805:3821   */\n      swap1\n      pop\n        /* \"#utility.yul\":3750:3827   */\n      swap2\n      swap1\n      pop\n      jump\t// out\n        /* \"#utility.yul\":3833:3955   */\n    tag_153:\n        /* \"#utility.yul\":3906:3930   */\n      tag_220\n        /* \"#utility.yul\":3924:3929   */\n      dup2\n        /* \"#utility.yul\":3906:3930   */\n      tag_152\n      jump\t// in\n    tag_220:\n        /* \"#utility.yul\":3899:3904   */\n      dup2\n        /* \"#utility.yul\":3896:3931   */\n      eq\n        /* \"#utility.yul\":3886:3949   */\n      tag_221\n      jumpi\n        /* \"#utility.yul\":3945:3946   */\n      0x00\n        /* \"#utility.yul\":3942:3943   */\n      dup1\n        /* \"#utility.yul\":3935:3947   */\n      revert\n        /* \"#utility.yul\":3886:3949   */\n    tag_221:\n        /* \"#utility.yul\":3833:3955   */\n      pop\n      jump\t// out\n        /* \"#utility.yul\":3961:4100   */\n    tag_154:\n        /* \"#utility.yul\":4007:4012   */\n      0x00\n        /* \"#utility.yul\":4045:4051   */\n      dup2\n        /* \"#utility.yul\":4032:4052   */\n      calldataload\n        /* \"#utility.yul\":4023:4052   */\n      swap1\n      pop\n        /* \"#utility.yul\":4061:4094   */\n      tag_223\n        /* \"#utility.yul\":4088:4093   */\n      dup2\n        /* \"#utility.yul\":4061:4094   */\n      tag_153\n      jump\t// in\n    tag_223:\n        /* \"#utility.yul\":3961:4100   */\n      swap3\n      swap2\n      pop\n      pop\n      jump\t// out\n        /* \"#utility.yul\":4106:4435   */\n    tag_27:\n        /* \"#utility.yul\":4165:4171   */\n      0x00\n        /* \"#utility.yul\":4214:4216   */\n      0x20\n        /* \"#utility.yul\":4202:4211   */\n      dup3\n        /* \"#utility.yul\":4193:4200   */\n      dup5\n        /* \"#utility.yul\":4189:4212   */\n      sub\n        /* \"#utility.yul\":4185:4217   */\n      slt\n        /* \"#utility.yul\":4182:4301   */\n      iszero\n      tag_225\n      jumpi\n        /* \"#utility.yul\":4220:4299   */\n      tag_226\n      tag_136\n      jump\t// in\n    tag_226:\n        /* \"#utility.yul\":4182:4301   */\n    tag_225:\n        /* \"#utility.yul\":4340:4341   */\n      0x00\n        /* \"#utility.yul\":4365:4418   */\n      tag_227\n        /* \"#utility.yul\":4410:4417   */\n      dup5\n        /* \"#utility.yul\":4401:4407   */\n      dup3\n        /* \"#utility.yul\":4390:4399   */\n      dup6\n        /* \"#utility.yul\":4386:4408   */\n      add\n        /* \"#utility.yul\":4365:4418   */\n      tag_154\n      jump\t// in\n    tag_227:\n        /* \"#utility.yul\":4355:4418   */\n      swap2\n      pop\n        /* \"#utility.yul\":4311:4428   */\n      pop\n        /* \"#utility.yul\":4106:4435   */\n      swap3\n      swap2\n      pop\n      pop\n      jump\t// out\n        /* \"#utility.yul\":4441:4559   */\n    tag_155:\n        /* \"#utility.yul\":4528:4552   */\n      tag_229\n        /* \"#utility.yul\":4546:4551   */\n      dup2\n        /* \"#utility.yul\":4528:4552   */\n      tag_152\n      jump\t// in\n    tag_229:\n        /* \"#utility.yul\":4523:4526   */\n      dup3\n        /* \"#utility.yul\":4516:4553   */\n      mstore\n        /* \"#utility.yul\":4441:4559   */\n      pop\n      pop\n      jump\t// out\n        /* \"#utility.yul\":4565:4787   */\n    tag_30:\n        /* \"#utility.yul\":4658:4662   */\n      0x00\n        /* \"#utility.yul\":4696:4698   */\n      0x20\n        /* \"#utility.yul\":4685:4694   */\n      dup3\n        /* \"#utility.yul\":4681:4699   */\n      add\n        /* \"#utility.yul\":4673:4699   */\n      swap1\n      pop\n        /* \"#utility.yul\":4709:4780   */\n      tag_231\n        /* \"#utility.yul\":4777:4778   */\n      0x00\n        /* \"#utility.yul\":4766:4775   */\n      dup4\n        /* \"#utility.yul\":4762:4779   */\n      add\n        /* \"#utility.yul\":4753:4759   */\n      dup5\n        /* \"#utility.yul\":4709:4780   */\n      tag_155\n      jump\t// in\n    tag_231:\n        /* \"#utility.yul\":4565:4787   */\n      swap3\n      swap2\n      pop\n      pop\n      jump\t// out\n        /* \"#utility.yul\":4793:5267   */\n    tag_33:\n        /* \"#utility.yul\":4861:4867   */\n      0x00\n        /* \"#utility.yul\":4869:4875   */\n      dup1\n        /* \"#utility.yul\":4918:4920   */\n      0x40\n        /* \"#utility.yul\":4906:4915   */\n      dup4\n        /* \"#utility.yul\":4897:4904   */\n      dup6\n        /* \"#utility.yul\":4893:4916   */\n      sub\n        /* \"#utility.yul\":4889:4921   */\n      slt\n        /* \"#utility.yul\":4886:5005   */\n      iszero\n      tag_233\n      jumpi\n        /* \"#utility.yul\":4924:5003   */\n      tag_234\n      tag_136\n      jump\t// in\n    tag_234:\n        /* \"#utility.yul\":4886:5005   */\n    tag_233:\n        /* \"#utility.yul\":5044:5045   */\n      0x00\n        /* \"#utility.yul\":5069:5122   */\n      tag_235\n        /* \"#utility.yul\":5114:5121   */\n      dup6\n        /* \"#utility.yul\":5105:5111   */\n      dup3\n        /* \"#utility.yul\":5094:5103   */\n      dup7\n        /* \"#utility.yul\":5090:5112   */\n      add\n        /* \"#utility.yul\":5069:5122   */\n      tag_154\n      jump\t// in\n    tag_235:\n        /* \"#utility.yul\":5059:5122   */\n      swap3\n      pop\n        /* \"#utility.yul\":5015:5132   */\n      pop\n        /* \"#utility.yul\":5171:5173   */\n      0x20\n        /* \"#utility.yul\":5197:5250   */\n      tag_236\n        /* \"#utility.yul\":5242:5249   */\n      dup6\n        /* \"#utility.yul\":5233:5239   */\n      dup3\n        /* \"#utility.yul\":5222:5231   */\n      dup7\n        /* \"#utility.yul\":5218:5240   */\n      add\n        /* \"#utility.yul\":5197:5250   */\n      tag_146\n      jump\t// in\n    tag_236:\n        /* \"#utility.yul\":5187:5250   */\n      swap2\n      pop\n        /* \"#utility.yul\":5142:5260   */\n      pop\n        /* \"#utility.yul\":4793:5267   */\n      swap3\n      pop\n      swap3\n      swap1\n      pop\n      jump\t// out\n        /* \"#utility.yul\":5273:5453   */\n    tag_156:\n        /* \"#utility.yul\":5321:5398   */\n      0x4e487b7100000000000000000000000000000000000000000000000000000000\n        /* \"#utility.yul\":5318:5319   */\n      0x00\n        /* \"#utility.yul\":5311:5399   */\n      mstore\n        /* \"#utility.yul\":5418:5422   */\n      0x11\n        /* \"#utility.yul\":5415:5416   */\n      0x04\n        /* \"#utility.yul\":5408:5423   */\n      mstore\n        /* \"#utility.yul\":5442:5446   */\n      0x24\n        /* \"#utility.yul\":5439:5440   */\n      0x00\n        /* \"#utility.yul\":5432:5447   */\n      revert\n        /* \"#utility.yul\":5459:5536   */\n    tag_157:\n        /* \"#utility.yul\":5496:5503   */\n      0x00\n        /* \"#utility.yul\":5525:5530   */\n      dup2\n        /* \"#utility.yul\":5514:5530   */\n      swap1\n      pop\n        /* \"#utility.yul\":5459:5536   */\n      swap2\n      swap1\n      pop\n      jump\t// out\n        /* \"#utility.yul\":5542:5775   */\n    tag_57:\n        /* \"#utility.yul\":5581:5584   */\n      0x00\n        /* \"#utility.yul\":5604:5628   */\n      tag_240\n        /* \"#utility.yul\":5622:5627   */\n      dup3\n        /* \"#utility.yul\":5604:5628   */\n      tag_157\n      jump\t// in\n    tag_240:\n        /* \"#utility.yul\":5595:5628   */\n      swap2\n      pop\n        /* \"#utility.yul\":5650:5716   */\n      0xffffffffffffffffffffffffffffffffffffffffffffffffffffffffffffffff\n        /* \"#utility.yul\":5643:5648   */\n      dup3\n        /* \"#utility.yul\":5640:5717   */\n      sub\n        /* \"#utility.yul\":5637:5740   */\n      tag_241\n      jumpi\n        /* \"#utility.yul\":5720:5738   */\n      tag_242\n      tag_156\n      jump\t// in\n    tag_242:\n        /* \"#utility.yul\":5637:5740   */\n    tag_241:\n        /* \"#utility.yul\":5767:5768   */\n      0x01\n        /* \"#utility.yul\":5760:5765   */\n      dup3\n        /* \"#utility.yul\":5756:5769   */\n      add\n        /* \"#utility.yul\":5749:5769   */\n      swap1\n      pop\n        /* \"#utility.yul\":5542:5775   */\n      swap2\n      swap1\n      pop\n      jump\t// out\n        /* \"#utility.yul\":5781:5879   */\n    tag_158:\n        /* \"#utility.yul\":5832:5838   */\n      0x00\n        /* \"#utility.yul\":5866:5871   */\n      dup2\n        /* \"#utility.yul\":5860:5872   */\n      mload\n        /* \"#utility.yul\":5850:5872   */\n      swap1\n      pop\n        /* \"#utility.yul\":5781:5879   */\n      swap2\n      swap1\n      pop\n      jump\t// out\n        /* \"#utility.yul\":5885:6032   */\n    tag_159:\n        /* \"#utility.yul\":5986:5997   */\n      0x00\n        /* \"#utility.yul\":6023:6026   */\n      dup2\n        /* \"#utility.yul\":6008:6026   */\n      swap1\n      pop\n        /* \"#utility.yul\":5885:6032   */\n      swap3\n      swap2\n      pop\n      pop\n      jump\t// out\n        /* \"#utility.yul\":6038:6411   */\n    tag_160:\n        /* \"#utility.yul\":6142:6145   */\n      0x00\n        /* \"#utility.yul\":6170:6208   */\n      tag_246\n        /* \"#utility.yul\":6202:6207   */\n      dup3\n        /* \"#utility.yul\":6170:6208   */\n      tag_158\n      jump\t// in\n    tag_246:\n        /* \"#utility.yul\":6224:6312   */\n      tag_247\n        /* \"#utility.yul\":6305:6311   */\n      dup2\n        /* \"#utility.yul\":6300:6303   */\n      dup6\n        /* \"#utility.yul\":6224:6312   */\n      tag_159\n      jump\t// in\n    tag_247:\n        /* \"#utility.yul\":6217:6312   */\n      swap4\n      pop\n        /* \"#utility.yul\":6321:6373   */\n      tag_248\n        /* \"#utility.yul\":6366:6372   */\n      dup2\n        /* \"#utility.yul\":6361:6364   */\n      dup6\n        /* \"#utility.yul\":6354:6358   */\n      0x20\n        /* \"#utility.yul\":6347:6352   */\n      dup7\n        /* \"#utility.yul\":6343:6359   */\n      add\n        /* \"#utility.yul\":6321:6373   */\n      tag_149\n      jump\t// in\n    tag_248:\n        /* \"#utility.yul\":6398:6404   */\n      dup1\n        /* \"#utility.yul\":6393:6396   */\n      dup5\n        /* \"#utility.yul\":6389:6405   */\n      add\n        /* \"#utility.yul\":6382:6405   */\n      swap2\n      pop\n        /* \"#utility.yul\":6146:6411   */\n      pop\n        /* \"#utility.yul\":6038:6411   */\n      swap3\n      swap2\n      pop\n      pop\n      jump\t// out\n        /* \"#utility.yul\":6417:6595   */\n    tag_161:\n        /* \"#utility.yul\":6585:6588   */\n      0x7400000000000000000000000000000000000000000000000000000000000000\n        /* \"#utility.yul\":6580:6583   */\n      dup2\n        /* \"#utility.yul\":6573:6589   */\n      mstore\n        /* \"#utility.yul\":6417:6595   */\n      pop\n      jump\t// out\n        /* \"#utility.yul\":6601:7136   */\n    tag_62:\n        /* \"#utility.yul\":6821:6824   */\n      0x00\n        /* \"#utility.yul\":6843:6936   */\n      tag_251\n        /* \"#utility.yul\":6932:6935   */\n      dup3\n        /* \"#utility.yul\":6923:6929   */\n      dup5\n        /* \"#utility.yul\":6843:6936   */\n      tag_160\n      jump\t// in\n    tag_251:\n        /* \"#utility.yul\":6836:6936   */\n      swap2\n      pop\n        /* \"#utility.yul\":6946:7083   */\n      tag_252\n        /* \"#utility.yul\":7079:7082   */\n      dup3\n        /* \"#utility.yul\":6946:7083   */\n      tag_161\n      jump\t// in\n    tag_252:\n        /* \"#utility.yul\":7108:7109   */\n      0x01\n        /* \"#utility.yul\":7103:7106   */\n      dup3\n        /* \"#utility.yul\":7099:7110   */\n      add\n        /* \"#utility.yul\":7092:7110   */\n      swap2\n      pop\n        /* \"#utility.yul\":7127:7130   */\n      dup2\n        /* \"#utility.yul\":7120:7130   */\n      swap1\n      pop\n        /* \"#utility.yul\":6601:7136   */\n      swap3\n      swap2\n      pop\n      pop\n      jump\t// out\n        /* \"#utility.yul\":7142:7376   */\n    tag_162:\n        /* \"#utility.yul\":7282:7316   */\n      0x416363657373436f6e74726f6c3a2063616e206f6e6c792072656e6f756e6365\n        /* \"#utility.yul\":7278:7279   */\n      0x00\n        /* \"#utility.yul\":7270:7276   */\n      dup3\n        /* \"#utility.yul\":7266:7280   */\n      add\n        /* \"#utility.yul\":7259:7317   */\n      mstore\n        /* \"#utility.yul\":7351:7368   */\n      0x20726f6c657320666f722073656c660000000000000000000000000000000000\n        /* \"#utility.yul\":7346:7348   */\n      0x20\n        /* \"#utility.yul\":7338:7344   */\n      dup3\n        /* \"#utility.yul\":7334:7349   */\n      add\n        /* \"#utility.yul\":7327:7369   */\n      mstore\n        /* \"#utility.yul\":7142:7376   */\n      pop\n      jump\t// out\n        /* \"#utility.yul\":7382:7748   */\n    tag_163:\n        /* \"#utility.yul\":7524:7527   */\n      0x00\n        /* \"#utility.yul\":7545:7612   */\n      tag_255\n        /* \"#utility.yul\":7609:7611   */\n      0x2f\n        /* \"#utility.yul\":7604:7607   */\n      dup4\n        /* \"#utility.yul\":7545:7612   */\n      tag_148\n      jump\t// in\n    tag_255:\n        /* \"#utility.yul\":7538:7612   */\n      swap2\n      pop\n        /* \"#utility.yul\":7621:7714   */\n      tag_256\n        /* \"#utility.yul\":7710:7713   */\n      dup3\n        /* \"#utility.yul\":7621:7714   */\n      tag_162\n      jump\t// in\n    tag_256:\n        /* \"#utility.yul\":7739:7741   */\n      0x40\n        /* \"#utility.yul\":7734:7737   */\n      dup3\n        /* \"#utility.yul\":7730:7742   */\n      add\n        /* \"#utility.yul\":7723:7742   */\n      swap1\n      pop\n        /* \"#utility.yul\":7382:7748   */\n      swap2\n      swap1\n      pop\n      jump\t// out\n        /* \"#utility.yul\":7754:8173   */\n    tag_78:\n        /* \"#utility.yul\":7920:7924   */\n      0x00\n        /* \"#utility.yul\":7958:7960   */\n      0x20\n        /* \"#utility.yul\":7947:7956   */\n      dup3\n        /* \"#utility.yul\":7943:7961   */\n      add\n        /* \"#utility.yul\":7935:7961   */\n      swap1\n      pop\n        /* \"#utility.yul\":8007:8016   */\n      dup2\n        /* \"#utility.yul\":8001:8005   */\n      dup2\n        /* \"#utility.yul\":7997:8017   */\n      sub\n        /* \"#utility.yul\":7993:7994   */\n      0x00\n        /* \"#utility.yul\":7982:7991   */\n      dup4\n        /* \"#utility.yul\":7978:7995   */\n      add\n        /* \"#utility.yul\":7971:8018   */\n      mstore\n        /* \"#utility.yul\":8035:8166   */\n      tag_258\n        /* \"#utility.yul\":8161:8165   */\n      dup2\n        /* \"#utility.yul\":8035:8166   */\n      tag_163\n      jump\t// in\n    tag_258:\n        /* \"#utility.yul\":8027:8166   */\n      swap1\n      pop\n        /* \"#utility.yul\":7754:8173   */\n      swap2\n      swap1\n      pop\n      jump\t// out\n        /* \"#utility.yul\":8179:8327   */\n    tag_164:\n        /* \"#utility.yul\":8281:8292   */\n      0x00\n        /* \"#utility.yul\":8318:8321   */\n      dup2\n        /* \"#utility.yul\":8303:8321   */\n      swap1\n      pop\n        /* \"#utility.yul\":8179:8327   */\n      swap3\n      swap2\n      pop\n      pop\n      jump\t// out\n        /* \"#utility.yul\":8333:8506   */\n    tag_165:\n        /* \"#utility.yul\":8473:8498   */\n      0x416363657373436f6e74726f6c3a206163636f756e7420000000000000000000\n        /* \"#utility.yul\":8469:8470   */\n      0x00\n        /* \"#utility.yul\":8461:8467   */\n      dup3\n        /* \"#utility.yul\":8457:8471   */\n      add\n        /* \"#utility.yul\":8450:8499   */\n      mstore\n        /* \"#utility.yul\":8333:8506   */\n      pop\n      jump\t// out\n        /* \"#utility.yul\":8512:8914   */\n    tag_166:\n        /* \"#utility.yul\":8672:8675   */\n      0x00\n        /* \"#utility.yul\":8693:8778   */\n      tag_262\n        /* \"#utility.yul\":8775:8777   */\n      0x17\n        /* \"#utility.yul\":8770:8773   */\n      dup4\n        /* \"#utility.yul\":8693:8778   */\n      tag_164\n      jump\t// in\n    tag_262:\n        /* \"#utility.yul\":8686:8778   */\n      swap2\n      pop\n        /* \"#utility.yul\":8787:8880   */\n      tag_263\n        /* \"#utility.yul\":8876:8879   */\n      dup3\n        /* \"#utility.yul\":8787:8880   */\n      tag_165\n      jump\t// in\n    tag_263:\n        /* \"#utility.yul\":8905:8907   */\n      0x17\n        /* \"#utility.yul\":8900:8903   */\n      dup3\n        /* \"#utility.yul\":8896:8908   */\n      add\n        /* \"#utility.yul\":8889:8908   */\n      swap1\n      pop\n        /* \"#utility.yul\":8512:8914   */\n      swap2\n      swap1\n      pop\n      jump\t// out\n        /* \"#utility.yul\":8920:9297   */\n    tag_167:\n        /* \"#utility.yul\":9026:9029   */\n      0x00\n        /* \"#utility.yul\":9054:9093   */\n      tag_265\n        /* \"#utility.yul\":9087:9092   */\n      dup3\n        /* \"#utility.yul\":9054:9093   */\n      tag_147\n      jump\t// in\n    tag_265:\n        /* \"#utility.yul\":9109:9198   */\n      tag_266\n        /* \"#utility.yul\":9191:9197   */\n      dup2\n        /* \"#utility.yul\":9186:9189   */\n      dup6\n        /* \"#utility.yul\":9109:9198   */\n      tag_164\n      jump\t// in\n    tag_266:\n        /* \"#utility.yul\":9102:9198   */\n      swap4\n      pop\n        /* \"#utility.yul\":9207:9259   */\n      tag_267\n        /* \"#utility.yul\":9252:9258   */\n      dup2\n        /* \"#utility.yul\":9247:9250   */\n      dup6\n        /* \"#utility.yul\":9240:9244   */\n      0x20\n        /* \"#utility.yul\":9233:9238   */\n      dup7\n        /* \"#utility.yul\":9229:9245   */\n      add\n        /* \"#utility.yul\":9207:9259   */\n      tag_149\n      jump\t// in\n    tag_267:\n        /* \"#utility.yul\":9284:9290   */\n      dup1\n        /* \"#utility.yul\":9279:9282   */\n      dup5\n        /* \"#utility.yul\":9275:9291   */\n      add\n        /* \"#utility.yul\":9268:9291   */\n      swap2\n      pop\n        /* \"#utility.yul\":9030:9297   */\n      pop\n        /* \"#utility.yul\":8920:9297   */\n      swap3\n      swap2\n      pop\n      pop\n      jump\t// out\n        /* \"#utility.yul\":9303:9470   */\n    tag_168:\n        /* \"#utility.yul\":9443:9462   */\n      0x206973206d697373696e6720726f6c6520000000000000000000000000000000\n        /* \"#utility.yul\":9439:9440   */\n      0x00\n        /* \"#utility.yul\":9431:9437   */\n      dup3\n        /* \"#utility.yul\":9427:9441   */\n      add\n        /* \"#utility.yul\":9420:9463   */\n      mstore\n        /* \"#utility.yul\":9303:9470   */\n      pop\n      jump\t// out\n        /* \"#utility.yul\":9476:9878   */\n    tag_169:\n        /* \"#utility.yul\":9636:9639   */\n      0x00\n        /* \"#utility.yul\":9657:9742   */\n      tag_270\n        /* \"#utility.yul\":9739:9741   */\n      0x11\n        /* \"#utility.yul\":9734:9737   */\n      dup4\n        /* \"#utility.yul\":9657:9742   */\n      tag_164\n      jump\t// in\n    tag_270:\n        /* \"#utility.yul\":9650:9742   */\n      swap2\n      pop\n        /* \"#utility.yul\":9751:9844   */\n      tag_271\n        /* \"#utility.yul\":9840:9843   */\n      dup3\n        /* \"#utility.yul\":9751:9844   */\n      tag_168\n      jump\t// in\n    tag_271:\n        /* \"#utility.yul\":9869:9871   */\n      0x11\n        /* \"#utility.yul\":9864:9867   */\n      dup3\n        /* \"#utility.yul\":9860:9872   */\n      add\n        /* \"#utility.yul\":9853:9872   */\n      swap1\n      pop\n        /* \"#utility.yul\":9476:9878   */\n      swap2\n      swap1\n      pop\n      jump\t// out\n        /* \"#utility.yul\":9884:10851   */\n    tag_97:\n        /* \"#utility.yul\":10266:10269   */\n      0x00\n        /* \"#utility.yul\":10288:10436   */\n      tag_273\n        /* \"#utility.yul\":10432:10435   */\n      dup3\n        /* \"#utility.yul\":10288:10436   */\n      tag_166\n      jump\t// in\n    tag_273:\n        /* \"#utility.yul\":10281:10436   */\n      swap2\n      pop\n        /* \"#utility.yul\":10453:10548   */\n      tag_274\n        /* \"#utility.yul\":10544:10547   */\n      dup3\n        /* \"#utility.yul\":10535:10541   */\n      dup6\n        /* \"#utility.yul\":10453:10548   */\n      tag_167\n      jump\t// in\n    tag_274:\n        /* \"#utility.yul\":10446:10548   */\n      swap2\n      pop\n        /* \"#utility.yul\":10565:10713   */\n      tag_275\n        /* \"#utility.yul\":10709:10712   */\n      dup3\n        /* \"#utility.yul\":10565:10713   */\n      tag_169\n      jump\t// in\n    tag_275:\n        /* \"#utility.yul\":10558:10713   */\n      swap2\n      pop\n        /* \"#utility.yul\":10730:10825   */\n      tag_276\n        /* \"#utility.yul\":10821:10824   */\n      dup3\n        /* \"#utility.yul\":10812:10818   */\n      dup5\n        /* \"#utility.yul\":10730:10825   */\n      tag_167\n      jump\t// in\n    tag_276:\n        /* \"#utility.yul\":10723:10825   */\n      swap2\n      pop\n        /* \"#utility.yul\":10842:10845   */\n      dup2\n        /* \"#utility.yul\":10835:10845   */\n      swap1\n      pop\n        /* \"#utility.yul\":9884:10851   */\n      swap4\n      swap3\n      pop\n      pop\n      pop\n      jump\t// out\n        /* \"#utility.yul\":10857:11205   */\n    tag_109:\n        /* \"#utility.yul\":10897:10904   */\n      0x00\n        /* \"#utility.yul\":10920:10940   */\n      tag_278\n        /* \"#utility.yul\":10938:10939   */\n      dup3\n        /* \"#utility.yul\":10920:10940   */\n      tag_157\n      jump\t// in\n    tag_278:\n        /* \"#utility.yul\":10915:10940   */\n      swap2\n      pop\n        /* \"#utility.yul\":10954:10974   */\n      tag_279\n        /* \"#utility.yul\":10972:10973   */\n      dup4\n        /* \"#utility.yul\":10954:10974   */\n      tag_157\n      jump\t// in\n    tag_279:\n        /* \"#utility.yul\":10949:10974   */\n      swap3\n      pop\n        /* \"#utility.yul\":11142:11143   */\n      dup2\n        /* \"#utility.yul\":11074:11140   */\n      0xffffffffffffffffffffffffffffffffffffffffffffffffffffffffffffffff\n        /* \"#utility.yul\":11070:11144   */\n      div\n        /* \"#utility.yul\":11067:11068   */\n      dup4\n        /* \"#utility.yul\":11064:11145   */\n      gt\n        /* \"#utility.yul\":11059:11060   */\n      dup3\n        /* \"#utility.yul\":11052:11061   */\n      iszero\n        /* \"#utility.yul\":11045:11062   */\n      iszero\n        /* \"#utility.yul\":11041:11146   */\n      and\n        /* \"#utility.yul\":11038:11169   */\n      iszero\n      tag_280\n      jumpi\n        /* \"#utility.yul\":11149:11167   */\n      tag_281\n      tag_156\n      jump\t// in\n    tag_281:\n        /* \"#utility.yul\":11038:11169   */\n    tag_280:\n        /* \"#utility.yul\":11197:11198   */\n      dup3\n        /* \"#utility.yul\":11194:11195   */\n      dup3\n        /* \"#utility.yul\":11190:11199   */\n      mul\n        /* \"#utility.yul\":11179:11199   */\n      swap1\n      pop\n        /* \"#utility.yul\":10857:11205   */\n      swap3\n      swap2\n      pop\n      pop\n      jump\t// out\n        /* \"#utility.yul\":11211:11516   */\n    tag_111:\n        /* \"#utility.yul\":11251:11254   */\n      0x00\n        /* \"#utility.yul\":11270:11290   */\n      tag_283\n        /* \"#utility.yul\":11288:11289   */\n      dup3\n        /* \"#utility.yul\":11270:11290   */\n      tag_157\n      jump\t// in\n    tag_283:\n        /* \"#utility.yul\":11265:11290   */\n      swap2\n      pop\n        /* \"#utility.yul\":11304:11324   */\n      tag_284\n        /* \"#utility.yul\":11322:11323   */\n      dup4\n        /* \"#utility.yul\":11304:11324   */\n      tag_157\n      jump\t// in\n    tag_284:\n        /* \"#utility.yul\":11299:11324   */\n      swap3\n      pop\n        /* \"#utility.yul\":11458:11459   */\n      dup3\n        /* \"#utility.yul\":11390:11456   */\n      0xffffffffffffffffffffffffffffffffffffffffffffffffffffffffffffffff\n        /* \"#utility.yul\":11386:11460   */\n      sub\n        /* \"#utility.yul\":11383:11384   */\n      dup3\n        /* \"#utility.yul\":11380:11461   */\n      gt\n        /* \"#utility.yul\":11377:11484   */\n      iszero\n      tag_285\n      jumpi\n        /* \"#utility.yul\":11464:11482   */\n      tag_286\n      tag_156\n      jump\t// in\n    tag_286:\n        /* \"#utility.yul\":11377:11484   */\n    tag_285:\n        /* \"#utility.yul\":11508:11509   */\n      dup3\n        /* \"#utility.yul\":11505:11506   */\n      dup3\n        /* \"#utility.yul\":11501:11510   */\n      add\n        /* \"#utility.yul\":11494:11510   */\n      swap1\n      pop\n        /* \"#utility.yul\":11211:11516   */\n      swap3\n      swap2\n      pop\n      pop\n      jump\t// out\n        /* \"#utility.yul\":11522:11702   */\n    tag_114:\n        /* \"#utility.yul\":11570:11647   */\n      0x4e487b7100000000000000000000000000000000000000000000000000000000\n        /* \"#utility.yul\":11567:11568   */\n      0x00\n        /* \"#utility.yul\":11560:11648   */\n      mstore\n        /* \"#utility.yul\":11667:11671   */\n      0x41\n        /* \"#utility.yul\":11664:11665   */\n      0x04\n        /* \"#utility.yul\":11657:11672   */\n      mstore\n        /* \"#utility.yul\":11691:11695   */\n      0x24\n        /* \"#utility.yul\":11688:11689   */\n      0x00\n        /* \"#utility.yul\":11681:11696   */\n      revert\n        /* \"#utility.yul\":11708:11888   */\n    tag_118:\n        /* \"#utility.yul\":11756:11833   */\n      0x4e487b7100000000000000000000000000000000000000000000000000000000\n        /* \"#utility.yul\":11753:11754   */\n      0x00\n        /* \"#utility.yul\":11746:11834   */\n      mstore\n        /* \"#utility.yul\":11853:11857   */\n      0x32\n        /* \"#utility.yul\":11850:11851   */\n      0x04\n        /* \"#utility.yul\":11843:11858   */\n      mstore\n        /* \"#utility.yul\":11877:11881   */\n      0x24\n        /* \"#utility.yul\":11874:11875   */\n      0x00\n        /* \"#utility.yul\":11867:11882   */\n      revert\n        /* \"#utility.yul\":11894:12065   */\n    tag_131:\n        /* \"#utility.yul\":11933:11936   */\n      0x00\n        /* \"#utility.yul\":11956:11980   */\n      tag_290\n        /* \"#utility.yul\":11974:11979   */\n      dup3\n        /* \"#utility.yul\":11956:11980   */\n      tag_157\n      jump\t// in\n    tag_290:\n        /* \"#utility.yul\":11947:11980   */\n      swap2\n      pop\n        /* \"#utility.yul\":12002:12006   */\n      0x00\n        /* \"#utility.yul\":11995:12000   */\n      dup3\n        /* \"#utility.yul\":11992:12007   */\n      sub\n        /* \"#utility.yul\":11989:12030   */\n      tag_291\n      jumpi\n        /* \"#utility.yul\":12010:12028   */\n      tag_292\n      tag_156\n      jump\t// in\n    tag_292:\n        /* \"#utility.yul\":11989:12030   */\n    tag_291:\n        /* \"#utility.yul\":12057:12058   */\n      0x01\n        /* \"#utility.yul\":12050:12055   */\n      dup3\n        /* \"#utility.yul\":12046:12059   */\n      sub\n        /* \"#utility.yul\":12039:12059   */\n      swap1\n      pop\n        /* \"#utility.yul\":11894:12065   */\n      swap2\n      swap1\n      pop\n      jump\t// out\n        /* \"#utility.yul\":12071:12253   */\n    tag_170:\n        /* \"#utility.yul\":12211:12245   */\n      0x537472696e67733a20686578206c656e67746820696e73756666696369656e74\n        /* \"#utility.yul\":12207:12208   */\n      0x00\n        /* \"#utility.yul\":12199:12205   */\n      dup3\n        /* \"#utility.yul\":12195:12209   */\n      add\n        /* \"#utility.yul\":12188:12246   */\n      mstore\n        /* \"#utility.yul\":12071:12253   */\n      pop\n      jump\t// out\n        /* \"#utility.yul\":12259:12625   */\n    tag_171:\n        /* \"#utility.yul\":12401:12404   */\n      0x00\n        /* \"#utility.yul\":12422:12489   */\n      tag_295\n        /* \"#utility.yul\":12486:12488   */\n      0x20\n        /* \"#utility.yul\":12481:12484   */\n      dup4\n        /* \"#utility.yul\":12422:12489   */\n      tag_148\n      jump\t// in\n    tag_295:\n        /* \"#utility.yul\":12415:12489   */\n      swap2\n      pop\n        /* \"#utility.yul\":12498:12591   */\n      tag_296\n        /* \"#utility.yul\":12587:12590   */\n      dup3\n        /* \"#utility.yul\":12498:12591   */\n      tag_170\n      jump\t// in\n    tag_296:\n        /* \"#utility.yul\":12616:12618   */\n      0x20\n        /* \"#utility.yul\":12611:12614   */\n      dup3\n        /* \"#utility.yul\":12607:12619   */\n      add\n        /* \"#utility.yul\":12600:12619   */\n      swap1\n      pop\n        /* \"#utility.yul\":12259:12625   */\n      swap2\n      swap1\n      pop\n      jump\t// out\n        /* \"#utility.yul\":12631:13050   */\n    tag_134:\n        /* \"#utility.yul\":12797:12801   */\n      0x00\n        /* \"#utility.yul\":12835:12837   */\n      0x20\n        /* \"#utility.yul\":12824:12833   */\n      dup3\n        /* \"#utility.yul\":12820:12838   */\n      add\n        /* \"#utility.yul\":12812:12838   */\n      swap1\n      pop\n        /* \"#utility.yul\":12884:12893   */\n      dup2\n        /* \"#utility.yul\":12878:12882   */\n      dup2\n        /* \"#utility.yul\":12874:12894   */\n      sub\n        /* \"#utility.yul\":12870:12871   */\n      0x00\n        /* \"#utility.yul\":12859:12868   */\n      dup4\n        /* \"#utility.yul\":12855:12872   */\n      add\n        /* \"#utility.yul\":12848:12895   */\n      mstore\n        /* \"#utility.yul\":12912:13043   */\n      tag_298\n        /* \"#utility.yul\":13038:13042   */\n      dup2\n        /* \"#utility.yul\":12912:13043   */\n      tag_171\n      jump\t// in\n    tag_298:\n        /* \"#utility.yul\":12904:13043   */\n      swap1\n      pop\n        /* \"#utility.yul\":12631:13050   */\n      swap2\n      swap1\n      pop\n      jump\t// out\n\n    auxdata: 0xa26469706673582212204b903b91474f3f1e5105a3030edb337105a0d15863fd203aea580df603b8b3ce64736f6c634300080d0033\n}\n",
				"bytecode": {
					"linkReferences": {},
					"object": "6080604052600060015534801561001557600080fd5b50611129806100256000396000f3fe608060405234801561001057600080fd5b50600436106100935760003560e01c806336568abe1161006657806336568abe1461014457806391d1485414610160578063a217fddf14610190578063d547741f146101ae578063e9c26518146101ca57610093565b806301ffc9a7146100985780630a3b0a4f146100c8578063248a9ca3146100f85780632f2ff15d14610128575b600080fd5b6100b260048036038101906100ad9190610a26565b6101e8565b6040516100bf9190610a6e565b60405180910390f35b6100e260048036038101906100dd9190610ae7565b610262565b6040516100ef9190610bad565b60405180910390f35b610112600480360381019061010d9190610c05565b610334565b60405161011f9190610c41565b60405180910390f35b610142600480360381019061013d9190610c5c565b610353565b005b61015e60048036038101906101599190610c5c565b61037c565b005b61017a60048036038101906101759190610c5c565b6103ff565b6040516101879190610a6e565b60405180910390f35b610198610469565b6040516101a59190610c41565b60405180910390f35b6101c860048036038101906101c39190610c5c565b610470565b005b6101d2610499565b6040516101df9190610c41565b60405180910390f35b60007f7965db0b000000000000000000000000000000000000000000000000000000007bffffffffffffffffffffffffffffffffffffffffffffffffffffffff1916827bffffffffffffffffffffffffffffffffffffffffffffffffffffffff1916148061025b575061025a826104bd565b5b9050919050565b60606000600260008473ffffffffffffffffffffffffffffffffffffffff1673ffffffffffffffffffffffffffffffffffffffff16815260200190815260200160002060006101000a81548160ff021916908315150217905550600160008154809291906102cf90610cd5565b9190505550600060405180602001604052806000815250905060005b60015481101561032a57816040516020016103069190610d8a565b6040516020818303038152906040529150808061032290610cd5565b9150506102eb565b5080915050919050565b6000806000838152602001908152602001600020600101549050919050565b61035c82610334565b61036d81610368610527565b61052f565b61037783836105cc565b505050565b610384610527565b73ffffffffffffffffffffffffffffffffffffffff168173ffffffffffffffffffffffffffffffffffffffff16146103f1576040517f08c379a00000000000000000000000000000000000000000000000000000000081526004016103e890610e22565b60405180910390fd5b6103fb82826106ac565b5050565b600080600084815260200190815260200160002060000160008373ffffffffffffffffffffffffffffffffffffffff1673ffffffffffffffffffffffffffffffffffffffff16815260200190815260200160002060009054906101000a900460ff16905092915050565b6000801b81565b61047982610334565b61048a81610485610527565b61052f565b61049483836106ac565b505050565b7f3b5d4cc60d3ec3516ee8ae083bd60934f6eb2a6c54b1229985c41bfb092b260381565b60007f01ffc9a7000000000000000000000000000000000000000000000000000000007bffffffffffffffffffffffffffffffffffffffffffffffffffffffff1916827bffffffffffffffffffffffffffffffffffffffffffffffffffffffff1916149050919050565b600033905090565b61053982826103ff565b6105c85761055e8173ffffffffffffffffffffffffffffffffffffffff16601461078d565b61056c8360001c602061078d565b60405160200161057d929190610f16565b6040516020818303038152906040526040517f08c379a00000000000000000000000000000000000000000000000000000000081526004016105bf9190610bad565b60405180910390fd5b5050565b6105d682826103ff565b6106a857600160008084815260200190815260200160002060000160008373ffffffffffffffffffffffffffffffffffffffff1673ffffffffffffffffffffffffffffffffffffffff16815260200190815260200160002060006101000a81548160ff02191690831515021790555061064d610527565b73ffffffffffffffffffffffffffffffffffffffff168173ffffffffffffffffffffffffffffffffffffffff16837f2f8788117e7eff1d82e926ec794901d17c78024a50270940304540a733656f0d60405160405180910390a45b5050565b6106b682826103ff565b1561078957600080600084815260200190815260200160002060000160008373ffffffffffffffffffffffffffffffffffffffff1673ffffffffffffffffffffffffffffffffffffffff16815260200190815260200160002060006101000a81548160ff02191690831515021790555061072e610527565b73ffffffffffffffffffffffffffffffffffffffff168173ffffffffffffffffffffffffffffffffffffffff16837ff6391f5c32d9c69d2a47ea670b442974b53935d1edc7fd64eb21e047a839171b60405160405180910390a45b5050565b6060600060028360026107a09190610f50565b6107aa9190610faa565b67ffffffffffffffff8111156107c3576107c2611000565b5b6040519080825280601f01601f1916602001820160405280156107f55781602001600182028036833780820191505090505b5090507f30000000000000000000000000000000000000000000000000000000000000008160008151811061082d5761082c61102f565b5b60200101907effffffffffffffffffffffffffffffffffffffffffffffffffffffffffffff1916908160001a9053507f7800000000000000000000000000000000000000000000000000000000000000816001815181106108915761089061102f565b5b60200101907effffffffffffffffffffffffffffffffffffffffffffffffffffffffffffff1916908160001a905350600060018460026108d19190610f50565b6108db9190610faa565b90505b600181111561097b577f3031323334353637383961626364656600000000000000000000000000000000600f86166010811061091d5761091c61102f565b5b1a60f81b8282815181106109345761093361102f565b5b60200101907effffffffffffffffffffffffffffffffffffffffffffffffffffffffffffff1916908160001a905350600485901c9450806109749061105e565b90506108de565b50600084146109bf576040517f08c379a00000000000000000000000000000000000000000000000000000000081526004016109b6906110d3565b60405180910390fd5b8091505092915050565b600080fd5b60007fffffffff0000000000000000000000000000000000000000000000000000000082169050919050565b610a03816109ce565b8114610a0e57600080fd5b50565b600081359050610a20816109fa565b92915050565b600060208284031215610a3c57610a3b6109c9565b5b6000610a4a84828501610a11565b91505092915050565b60008115159050919050565b610a6881610a53565b82525050565b6000602082019050610a836000830184610a5f565b92915050565b600073ffffffffffffffffffffffffffffffffffffffff82169050919050565b6000610ab482610a89565b9050919050565b610ac481610aa9565b8114610acf57600080fd5b50565b600081359050610ae181610abb565b92915050565b600060208284031215610afd57610afc6109c9565b5b6000610b0b84828501610ad2565b91505092915050565b600081519050919050565b600082825260208201905092915050565b60005b83811015610b4e578082015181840152602081019050610b33565b83811115610b5d576000848401525b50505050565b6000601f19601f8301169050919050565b6000610b7f82610b14565b610b898185610b1f565b9350610b99818560208601610b30565b610ba281610b63565b840191505092915050565b60006020820190508181036000830152610bc78184610b74565b905092915050565b6000819050919050565b610be281610bcf565b8114610bed57600080fd5b50565b600081359050610bff81610bd9565b92915050565b600060208284031215610c1b57610c1a6109c9565b5b6000610c2984828501610bf0565b91505092915050565b610c3b81610bcf565b82525050565b6000602082019050610c566000830184610c32565b92915050565b60008060408385031215610c7357610c726109c9565b5b6000610c8185828601610bf0565b9250506020610c9285828601610ad2565b9150509250929050565b7f4e487b7100000000000000000000000000000000000000000000000000000000600052601160045260246000fd5b6000819050919050565b6000610ce082610ccb565b91507fffffffffffffffffffffffffffffffffffffffffffffffffffffffffffffffff8203610d1257610d11610c9c565b5b600182019050919050565b600081519050919050565b600081905092915050565b6000610d3e82610d1d565b610d488185610d28565b9350610d58818560208601610b30565b80840191505092915050565b7f7400000000000000000000000000000000000000000000000000000000000000815250565b6000610d968284610d33565b9150610da182610d64565b60018201915081905092915050565b7f416363657373436f6e74726f6c3a2063616e206f6e6c792072656e6f756e636560008201527f20726f6c657320666f722073656c660000000000000000000000000000000000602082015250565b6000610e0c602f83610b1f565b9150610e1782610db0565b604082019050919050565b60006020820190508181036000830152610e3b81610dff565b9050919050565b600081905092915050565b7f416363657373436f6e74726f6c3a206163636f756e7420000000000000000000600082015250565b6000610e83601783610e42565b9150610e8e82610e4d565b601782019050919050565b6000610ea482610b14565b610eae8185610e42565b9350610ebe818560208601610b30565b80840191505092915050565b7f206973206d697373696e6720726f6c6520000000000000000000000000000000600082015250565b6000610f00601183610e42565b9150610f0b82610eca565b601182019050919050565b6000610f2182610e76565b9150610f2d8285610e99565b9150610f3882610ef3565b9150610f448284610e99565b91508190509392505050565b6000610f5b82610ccb565b9150610f6683610ccb565b9250817fffffffffffffffffffffffffffffffffffffffffffffffffffffffffffffffff0483118215151615610f9f57610f9e610c9c565b5b828202905092915050565b6000610fb582610ccb565b9150610fc083610ccb565b9250827fffffffffffffffffffffffffffffffffffffffffffffffffffffffffffffffff03821115610ff557610ff4610c9c565b5b828201905092915050565b7f4e487b7100000000000000000000000000000000000000000000000000000000600052604160045260246000fd5b7f4e487b7100000000000000000000000000000000000000000000000000000000600052603260045260246000fd5b600061106982610ccb565b91506000820361107c5761107b610c9c565b5b600182039050919050565b7f537472696e67733a20686578206c656e67746820696e73756666696369656e74600082015250565b60006110bd602083610b1f565b91506110c882611087565b602082019050919050565b600060208201905081810360008301526110ec816110b0565b905091905056fea26469706673582212204b903b91474f3f1e5105a3030edb337105a0d15863fd203aea580df603b8b3ce64736f6c634300080d0033",
					"opcodes": "PUSH1 0x80 PUSH1 0x40 MSTORE PUSH1 0x0 PUSH1 0x1 SSTORE CALLVALUE DUP1 ISZERO PUSH2 0x15 JUMPI PUSH1 0x0 DUP1 REVERT JUMPDEST POP PUSH2 0x1129 DUP1 PUSH2 0x25 PUSH1 0x0 CODECOPY PUSH1 0x0 RETURN INVALID PUSH1 0x80 PUSH1 0x40 MSTORE CALLVALUE DUP1 ISZERO PUSH2 0x10 JUMPI PUSH1 0x0 DUP1 REVERT JUMPDEST POP PUSH1 0x4 CALLDATASIZE LT PUSH2 0x93 JUMPI PUSH1 0x0 CALLDATALOAD PUSH1 0xE0 SHR DUP1 PUSH4 0x36568ABE GT PUSH2 0x66 JUMPI DUP1 PUSH4 0x36568ABE EQ PUSH2 0x144 JUMPI DUP1 PUSH4 0x91D14854 EQ PUSH2 0x160 JUMPI DUP1 PUSH4 0xA217FDDF EQ PUSH2 0x190 JUMPI DUP1 PUSH4 0xD547741F EQ PUSH2 0x1AE JUMPI DUP1 PUSH4 0xE9C26518 EQ PUSH2 0x1CA JUMPI PUSH2 0x93 JUMP JUMPDEST DUP1 PUSH4 0x1FFC9A7 EQ PUSH2 0x98 JUMPI DUP1 PUSH4 0xA3B0A4F EQ PUSH2 0xC8 JUMPI DUP1 PUSH4 0x248A9CA3 EQ PUSH2 0xF8 JUMPI DUP1 PUSH4 0x2F2FF15D EQ PUSH2 0x128 JUMPI JUMPDEST PUSH1 0x0 DUP1 REVERT JUMPDEST PUSH2 0xB2 PUSH1 0x4 DUP1 CALLDATASIZE SUB DUP2 ADD SWAP1 PUSH2 0xAD SWAP2 SWAP1 PUSH2 0xA26 JUMP JUMPDEST PUSH2 0x1E8 JUMP JUMPDEST PUSH1 0x40 MLOAD PUSH2 0xBF SWAP2 SWAP1 PUSH2 0xA6E JUMP JUMPDEST PUSH1 0x40 MLOAD DUP1 SWAP2 SUB SWAP1 RETURN JUMPDEST PUSH2 0xE2 PUSH1 0x4 DUP1 CALLDATASIZE SUB DUP2 ADD SWAP1 PUSH2 0xDD SWAP2 SWAP1 PUSH2 0xAE7 JUMP JUMPDEST PUSH2 0x262 JUMP JUMPDEST PUSH1 0x40 MLOAD PUSH2 0xEF SWAP2 SWAP1 PUSH2 0xBAD JUMP JUMPDEST PUSH1 0x40 MLOAD DUP1 SWAP2 SUB SWAP1 RETURN JUMPDEST PUSH2 0x112 PUSH1 0x4 DUP1 CALLDATASIZE SUB DUP2 ADD SWAP1 PUSH2 0x10D SWAP2 SWAP1 PUSH2 0xC05 JUMP JUMPDEST PUSH2 0x334 JUMP JUMPDEST PUSH1 0x40 MLOAD PUSH2 0x11F SWAP2 SWAP1 PUSH2 0xC41 JUMP JUMPDEST PUSH1 0x40 MLOAD DUP1 SWAP2 SUB SWAP1 RETURN JUMPDEST PUSH2 0x142 PUSH1 0x4 DUP1 CALLDATASIZE SUB DUP2 ADD SWAP1 PUSH2 0x13D SWAP2 SWAP1 PUSH2 0xC5C JUMP JUMPDEST PUSH2 0x353 JUMP JUMPDEST STOP JUMPDEST PUSH2 0x15E PUSH1 0x4 DUP1 CALLDATASIZE SUB DUP2 ADD SWAP1 PUSH2 0x159 SWAP2 SWAP1 PUSH2 0xC5C JUMP JUMPDEST PUSH2 0x37C JUMP JUMPDEST STOP JUMPDEST PUSH2 0x17A PUSH1 0x4 DUP1 CALLDATASIZE SUB DUP2 ADD SWAP1 PUSH2 0x175 SWAP2 SWAP1 PUSH2 0xC5C JUMP JUMPDEST PUSH2 0x3FF JUMP JUMPDEST PUSH1 0x40 MLOAD PUSH2 0x187 SWAP2 SWAP1 PUSH2 0xA6E JUMP JUMPDEST PUSH1 0x40 MLOAD DUP1 SWAP2 SUB SWAP1 RETURN JUMPDEST PUSH2 0x198 PUSH2 0x469 JUMP JUMPDEST PUSH1 0x40 MLOAD PUSH2 0x1A5 SWAP2 SWAP1 PUSH2 0xC41 JUMP JUMPDEST PUSH1 0x40 MLOAD DUP1 SWAP2 SUB SWAP1 RETURN JUMPDEST PUSH2 0x1C8 PUSH1 0x4 DUP1 CALLDATASIZE SUB DUP2 ADD SWAP1 PUSH2 0x1C3 SWAP2 SWAP1 PUSH2 0xC5C JUMP JUMPDEST PUSH2 0x470 JUMP JUMPDEST STOP JUMPDEST PUSH2 0x1D2 PUSH2 0x499 JUMP JUMPDEST PUSH1 0x40 MLOAD PUSH2 0x1DF SWAP2 SWAP1 PUSH2 0xC41 JUMP JUMPDEST PUSH1 0x40 MLOAD DUP1 SWAP2 SUB SWAP1 RETURN JUMPDEST PUSH1 0x0 PUSH32 0x7965DB0B00000000000000000000000000000000000000000000000000000000 PUSH28 0xFFFFFFFFFFFFFFFFFFFFFFFFFFFFFFFFFFFFFFFFFFFFFFFFFFFFFFFF NOT AND DUP3 PUSH28 0xFFFFFFFFFFFFFFFFFFFFFFFFFFFFFFFFFFFFFFFFFFFFFFFFFFFFFFFF NOT AND EQ DUP1 PUSH2 0x25B JUMPI POP PUSH2 0x25A DUP3 PUSH2 0x4BD JUMP JUMPDEST JUMPDEST SWAP1 POP SWAP2 SWAP1 POP JUMP JUMPDEST PUSH1 0x60 PUSH1 0x0 PUSH1 0x2 PUSH1 0x0 DUP5 PUSH20 0xFFFFFFFFFFFFFFFFFFFFFFFFFFFFFFFFFFFFFFFF AND PUSH20 0xFFFFFFFFFFFFFFFFFFFFFFFFFFFFFFFFFFFFFFFF AND DUP2 MSTORE PUSH1 0x20 ADD SWAP1 DUP2 MSTORE PUSH1 0x20 ADD PUSH1 0x0 KECCAK256 PUSH1 0x0 PUSH2 0x100 EXP DUP2 SLOAD DUP2 PUSH1 0xFF MUL NOT AND SWAP1 DUP4 ISZERO ISZERO MUL OR SWAP1 SSTORE POP PUSH1 0x1 PUSH1 0x0 DUP2 SLOAD DUP1 SWAP3 SWAP2 SWAP1 PUSH2 0x2CF SWAP1 PUSH2 0xCD5 JUMP JUMPDEST SWAP2 SWAP1 POP SSTORE POP PUSH1 0x0 PUSH1 0x40 MLOAD DUP1 PUSH1 0x20 ADD PUSH1 0x40 MSTORE DUP1 PUSH1 0x0 DUP2 MSTORE POP SWAP1 POP PUSH1 0x0 JUMPDEST PUSH1 0x1 SLOAD DUP2 LT ISZERO PUSH2 0x32A JUMPI DUP2 PUSH1 0x40 MLOAD PUSH1 0x20 ADD PUSH2 0x306 SWAP2 SWAP1 PUSH2 0xD8A JUMP JUMPDEST PUSH1 0x40 MLOAD PUSH1 0x20 DUP2 DUP4 SUB SUB DUP2 MSTORE SWAP1 PUSH1 0x40 MSTORE SWAP2 POP DUP1 DUP1 PUSH2 0x322 SWAP1 PUSH2 0xCD5 JUMP JUMPDEST SWAP2 POP POP PUSH2 0x2EB JUMP JUMPDEST POP DUP1 SWAP2 POP POP SWAP2 SWAP1 POP JUMP JUMPDEST PUSH1 0x0 DUP1 PUSH1 0x0 DUP4 DUP2 MSTORE PUSH1 0x20 ADD SWAP1 DUP2 MSTORE PUSH1 0x20 ADD PUSH1 0x0 KECCAK256 PUSH1 0x1 ADD SLOAD SWAP1 POP SWAP2 SWAP1 POP JUMP JUMPDEST PUSH2 0x35C DUP3 PUSH2 0x334 JUMP JUMPDEST PUSH2 0x36D DUP2 PUSH2 0x368 PUSH2 0x527 JUMP JUMPDEST PUSH2 0x52F JUMP JUMPDEST PUSH2 0x377 DUP4 DUP4 PUSH2 0x5CC JUMP JUMPDEST POP POP POP JUMP JUMPDEST PUSH2 0x384 PUSH2 0x527 JUMP JUMPDEST PUSH20 0xFFFFFFFFFFFFFFFFFFFFFFFFFFFFFFFFFFFFFFFF AND DUP2 PUSH20 0xFFFFFFFFFFFFFFFFFFFFFFFFFFFFFFFFFFFFFFFF AND EQ PUSH2 0x3F1 JUMPI PUSH1 0x40 MLOAD PUSH32 0x8C379A000000000000000000000000000000000000000000000000000000000 DUP2 MSTORE PUSH1 0x4 ADD PUSH2 0x3E8 SWAP1 PUSH2 0xE22 JUMP JUMPDEST PUSH1 0x40 MLOAD DUP1 SWAP2 SUB SWAP1 REVERT JUMPDEST PUSH2 0x3FB DUP3 DUP3 PUSH2 0x6AC JUMP JUMPDEST POP POP JUMP JUMPDEST PUSH1 0x0 DUP1 PUSH1 0x0 DUP5 DUP2 MSTORE PUSH1 0x20 ADD SWAP1 DUP2 MSTORE PUSH1 0x20 ADD PUSH1 0x0 KECCAK256 PUSH1 0x0 ADD PUSH1 0x0 DUP4 PUSH20 0xFFFFFFFFFFFFFFFFFFFFFFFFFFFFFFFFFFFFFFFF AND PUSH20 0xFFFFFFFFFFFFFFFFFFFFFFFFFFFFFFFFFFFFFFFF AND DUP2 MSTORE PUSH1 0x20 ADD SWAP1 DUP2 MSTORE PUSH1 0x20 ADD PUSH1 0x0 KECCAK256 PUSH1 0x0 SWAP1 SLOAD SWAP1 PUSH2 0x100 EXP SWAP1 DIV PUSH1 0xFF AND SWAP1 POP SWAP3 SWAP2 POP POP JUMP JUMPDEST PUSH1 0x0 DUP1 SHL DUP2 JUMP JUMPDEST PUSH2 0x479 DUP3 PUSH2 0x334 JUMP JUMPDEST PUSH2 0x48A DUP2 PUSH2 0x485 PUSH2 0x527 JUMP JUMPDEST PUSH2 0x52F JUMP JUMPDEST PUSH2 0x494 DUP4 DUP4 PUSH2 0x6AC JUMP JUMPDEST POP POP POP JUMP JUMPDEST PUSH32 0x3B5D4CC60D3EC3516EE8AE083BD60934F6EB2A6C54B1229985C41BFB092B2603 DUP2 JUMP JUMPDEST PUSH1 0x0 PUSH32 0x1FFC9A700000000000000000000000000000000000000000000000000000000 PUSH28 0xFFFFFFFFFFFFFFFFFFFFFFFFFFFFFFFFFFFFFFFFFFFFFFFFFFFFFFFF NOT AND DUP3 PUSH28 0xFFFFFFFFFFFFFFFFFFFFFFFFFFFFFFFFFFFFFFFFFFFFFFFFFFFFFFFF NOT AND EQ SWAP1 POP SWAP2 SWAP1 POP JUMP JUMPDEST PUSH1 0x0 CALLER SWAP1 POP SWAP1 JUMP JUMPDEST PUSH2 0x539 DUP3 DUP3 PUSH2 0x3FF JUMP JUMPDEST PUSH2 0x5C8 JUMPI PUSH2 0x55E DUP2 PUSH20 0xFFFFFFFFFFFFFFFFFFFFFFFFFFFFFFFFFFFFFFFF AND PUSH1 0x14 PUSH2 0x78D JUMP JUMPDEST PUSH2 0x56C DUP4 PUSH1 0x0 SHR PUSH1 0x20 PUSH2 0x78D JUMP JUMPDEST PUSH1 0x40 MLOAD PUSH1 0x20 ADD PUSH2 0x57D SWAP3 SWAP2 SWAP1 PUSH2 0xF16 JUMP JUMPDEST PUSH1 0x40 MLOAD PUSH1 0x20 DUP2 DUP4 SUB SUB DUP2 MSTORE SWAP1 PUSH1 0x40 MSTORE PUSH1 0x40 MLOAD PUSH32 0x8C379A000000000000000000000000000000000000000000000000000000000 DUP2 MSTORE PUSH1 0x4 ADD PUSH2 0x5BF SWAP2 SWAP1 PUSH2 0xBAD JUMP JUMPDEST PUSH1 0x40 MLOAD DUP1 SWAP2 SUB SWAP1 REVERT JUMPDEST POP POP JUMP JUMPDEST PUSH2 0x5D6 DUP3 DUP3 PUSH2 0x3FF JUMP JUMPDEST PUSH2 0x6A8 JUMPI PUSH1 0x1 PUSH1 0x0 DUP1 DUP5 DUP2 MSTORE PUSH1 0x20 ADD SWAP1 DUP2 MSTORE PUSH1 0x20 ADD PUSH1 0x0 KECCAK256 PUSH1 0x0 ADD PUSH1 0x0 DUP4 PUSH20 0xFFFFFFFFFFFFFFFFFFFFFFFFFFFFFFFFFFFFFFFF AND PUSH20 0xFFFFFFFFFFFFFFFFFFFFFFFFFFFFFFFFFFFFFFFF AND DUP2 MSTORE PUSH1 0x20 ADD SWAP1 DUP2 MSTORE PUSH1 0x20 ADD PUSH1 0x0 KECCAK256 PUSH1 0x0 PUSH2 0x100 EXP DUP2 SLOAD DUP2 PUSH1 0xFF MUL NOT AND SWAP1 DUP4 ISZERO ISZERO MUL OR SWAP1 SSTORE POP PUSH2 0x64D PUSH2 0x527 JUMP JUMPDEST PUSH20 0xFFFFFFFFFFFFFFFFFFFFFFFFFFFFFFFFFFFFFFFF AND DUP2 PUSH20 0xFFFFFFFFFFFFFFFFFFFFFFFFFFFFFFFFFFFFFFFF AND DUP4 PUSH32 0x2F8788117E7EFF1D82E926EC794901D17C78024A50270940304540A733656F0D PUSH1 0x40 MLOAD PUSH1 0x40 MLOAD DUP1 SWAP2 SUB SWAP1 LOG4 JUMPDEST POP POP JUMP JUMPDEST PUSH2 0x6B6 DUP3 DUP3 PUSH2 0x3FF JUMP JUMPDEST ISZERO PUSH2 0x789 JUMPI PUSH1 0x0 DUP1 PUSH1 0x0 DUP5 DUP2 MSTORE PUSH1 0x20 ADD SWAP1 DUP2 MSTORE PUSH1 0x20 ADD PUSH1 0x0 KECCAK256 PUSH1 0x0 ADD PUSH1 0x0 DUP4 PUSH20 0xFFFFFFFFFFFFFFFFFFFFFFFFFFFFFFFFFFFFFFFF AND PUSH20 0xFFFFFFFFFFFFFFFFFFFFFFFFFFFFFFFFFFFFFFFF AND DUP2 MSTORE PUSH1 0x20 ADD SWAP1 DUP2 MSTORE PUSH1 0x20 ADD PUSH1 0x0 KECCAK256 PUSH1 0x0 PUSH2 0x100 EXP DUP2 SLOAD DUP2 PUSH1 0xFF MUL NOT AND SWAP1 DUP4 ISZERO ISZERO MUL OR SWAP1 SSTORE POP PUSH2 0x72E PUSH2 0x527 JUMP JUMPDEST PUSH20 0xFFFFFFFFFFFFFFFFFFFFFFFFFFFFFFFFFFFFFFFF AND DUP2 PUSH20 0xFFFFFFFFFFFFFFFFFFFFFFFFFFFFFFFFFFFFFFFF AND DUP4 PUSH32 0xF6391F5C32D9C69D2A47EA670B442974B53935D1EDC7FD64EB21E047A839171B PUSH1 0x40 MLOAD PUSH1 0x40 MLOAD DUP1 SWAP2 SUB SWAP1 LOG4 JUMPDEST POP POP JUMP JUMPDEST PUSH1 0x60 PUSH1 0x0 PUSH1 0x2 DUP4 PUSH1 0x2 PUSH2 0x7A0 SWAP2 SWAP1 PUSH2 0xF50 JUMP JUMPDEST PUSH2 0x7AA SWAP2 SWAP1 PUSH2 0xFAA JUMP JUMPDEST PUSH8 0xFFFFFFFFFFFFFFFF DUP2 GT ISZERO PUSH2 0x7C3 JUMPI PUSH2 0x7C2 PUSH2 0x1000 JUMP JUMPDEST JUMPDEST PUSH1 0x40 MLOAD SWAP1 DUP1 DUP3 MSTORE DUP1 PUSH1 0x1F ADD PUSH1 0x1F NOT AND PUSH1 0x20 ADD DUP3 ADD PUSH1 0x40 MSTORE DUP1 ISZERO PUSH2 0x7F5 JUMPI DUP2 PUSH1 0x20 ADD PUSH1 0x1 DUP3 MUL DUP1 CALLDATASIZE DUP4 CALLDATACOPY DUP1 DUP3 ADD SWAP2 POP POP SWAP1 POP JUMPDEST POP SWAP1 POP PUSH32 0x3000000000000000000000000000000000000000000000000000000000000000 DUP2 PUSH1 0x0 DUP2 MLOAD DUP2 LT PUSH2 0x82D JUMPI PUSH2 0x82C PUSH2 0x102F JUMP JUMPDEST JUMPDEST PUSH1 0x20 ADD ADD SWAP1 PUSH31 0xFFFFFFFFFFFFFFFFFFFFFFFFFFFFFFFFFFFFFFFFFFFFFFFFFFFFFFFFFFFFFF NOT AND SWAP1 DUP2 PUSH1 0x0 BYTE SWAP1 MSTORE8 POP PUSH32 0x7800000000000000000000000000000000000000000000000000000000000000 DUP2 PUSH1 0x1 DUP2 MLOAD DUP2 LT PUSH2 0x891 JUMPI PUSH2 0x890 PUSH2 0x102F JUMP JUMPDEST JUMPDEST PUSH1 0x20 ADD ADD SWAP1 PUSH31 0xFFFFFFFFFFFFFFFFFFFFFFFFFFFFFFFFFFFFFFFFFFFFFFFFFFFFFFFFFFFFFF NOT AND SWAP1 DUP2 PUSH1 0x0 BYTE SWAP1 MSTORE8 POP PUSH1 0x0 PUSH1 0x1 DUP5 PUSH1 0x2 PUSH2 0x8D1 SWAP2 SWAP1 PUSH2 0xF50 JUMP JUMPDEST PUSH2 0x8DB SWAP2 SWAP1 PUSH2 0xFAA JUMP JUMPDEST SWAP1 POP JUMPDEST PUSH1 0x1 DUP2 GT ISZERO PUSH2 0x97B JUMPI PUSH32 0x3031323334353637383961626364656600000000000000000000000000000000 PUSH1 0xF DUP7 AND PUSH1 0x10 DUP2 LT PUSH2 0x91D JUMPI PUSH2 0x91C PUSH2 0x102F JUMP JUMPDEST JUMPDEST BYTE PUSH1 0xF8 SHL DUP3 DUP3 DUP2 MLOAD DUP2 LT PUSH2 0x934 JUMPI PUSH2 0x933 PUSH2 0x102F JUMP JUMPDEST JUMPDEST PUSH1 0x20 ADD ADD SWAP1 PUSH31 0xFFFFFFFFFFFFFFFFFFFFFFFFFFFFFFFFFFFFFFFFFFFFFFFFFFFFFFFFFFFFFF NOT AND SWAP1 DUP2 PUSH1 0x0 BYTE SWAP1 MSTORE8 POP PUSH1 0x4 DUP6 SWAP1 SHR SWAP5 POP DUP1 PUSH2 0x974 SWAP1 PUSH2 0x105E JUMP JUMPDEST SWAP1 POP PUSH2 0x8DE JUMP JUMPDEST POP PUSH1 0x0 DUP5 EQ PUSH2 0x9BF JUMPI PUSH1 0x40 MLOAD PUSH32 0x8C379A000000000000000000000000000000000000000000000000000000000 DUP2 MSTORE PUSH1 0x4 ADD PUSH2 0x9B6 SWAP1 PUSH2 0x10D3 JUMP JUMPDEST PUSH1 0x40 MLOAD DUP1 SWAP2 SUB SWAP1 REVERT JUMPDEST DUP1 SWAP2 POP POP SWAP3 SWAP2 POP POP JUMP JUMPDEST PUSH1 0x0 DUP1 REVERT JUMPDEST PUSH1 0x0 PUSH32 0xFFFFFFFF00000000000000000000000000000000000000000000000000000000 DUP3 AND SWAP1 POP SWAP2 SWAP1 POP JUMP JUMPDEST PUSH2 0xA03 DUP2 PUSH2 0x9CE JUMP JUMPDEST DUP2 EQ PUSH2 0xA0E JUMPI PUSH1 0x0 DUP1 REVERT JUMPDEST POP JUMP JUMPDEST PUSH1 0x0 DUP2 CALLDATALOAD SWAP1 POP PUSH2 0xA20 DUP2 PUSH2 0x9FA JUMP JUMPDEST SWAP3 SWAP2 POP POP JUMP JUMPDEST PUSH1 0x0 PUSH1 0x20 DUP3 DUP5 SUB SLT ISZERO PUSH2 0xA3C JUMPI PUSH2 0xA3B PUSH2 0x9C9 JUMP JUMPDEST JUMPDEST PUSH1 0x0 PUSH2 0xA4A DUP5 DUP3 DUP6 ADD PUSH2 0xA11 JUMP JUMPDEST SWAP2 POP POP SWAP3 SWAP2 POP POP JUMP JUMPDEST PUSH1 0x0 DUP2 ISZERO ISZERO SWAP1 POP SWAP2 SWAP1 POP JUMP JUMPDEST PUSH2 0xA68 DUP2 PUSH2 0xA53 JUMP JUMPDEST DUP3 MSTORE POP POP JUMP JUMPDEST PUSH1 0x0 PUSH1 0x20 DUP3 ADD SWAP1 POP PUSH2 0xA83 PUSH1 0x0 DUP4 ADD DUP5 PUSH2 0xA5F JUMP JUMPDEST SWAP3 SWAP2 POP POP JUMP JUMPDEST PUSH1 0x0 PUSH20 0xFFFFFFFFFFFFFFFFFFFFFFFFFFFFFFFFFFFFFFFF DUP3 AND SWAP1 POP SWAP2 SWAP1 POP JUMP JUMPDEST PUSH1 0x0 PUSH2 0xAB4 DUP3 PUSH2 0xA89 JUMP JUMPDEST SWAP1 POP SWAP2 SWAP1 POP JUMP JUMPDEST PUSH2 0xAC4 DUP2 PUSH2 0xAA9 JUMP JUMPDEST DUP2 EQ PUSH2 0xACF JUMPI PUSH1 0x0 DUP1 REVERT JUMPDEST POP JUMP JUMPDEST PUSH1 0x0 DUP2 CALLDATALOAD SWAP1 POP PUSH2 0xAE1 DUP2 PUSH2 0xABB JUMP JUMPDEST SWAP3 SWAP2 POP POP JUMP JUMPDEST PUSH1 0x0 PUSH1 0x20 DUP3 DUP5 SUB SLT ISZERO PUSH2 0xAFD JUMPI PUSH2 0xAFC PUSH2 0x9C9 JUMP JUMPDEST JUMPDEST PUSH1 0x0 PUSH2 0xB0B DUP5 DUP3 DUP6 ADD PUSH2 0xAD2 JUMP JUMPDEST SWAP2 POP POP SWAP3 SWAP2 POP POP JUMP JUMPDEST PUSH1 0x0 DUP2 MLOAD SWAP1 POP SWAP2 SWAP1 POP JUMP JUMPDEST PUSH1 0x0 DUP3 DUP3 MSTORE PUSH1 0x20 DUP3 ADD SWAP1 POP SWAP3 SWAP2 POP POP JUMP JUMPDEST PUSH1 0x0 JUMPDEST DUP4 DUP2 LT ISZERO PUSH2 0xB4E JUMPI DUP1 DUP3 ADD MLOAD DUP2 DUP5 ADD MSTORE PUSH1 0x20 DUP2 ADD SWAP1 POP PUSH2 0xB33 JUMP JUMPDEST DUP4 DUP2 GT ISZERO PUSH2 0xB5D JUMPI PUSH1 0x0 DUP5 DUP5 ADD MSTORE JUMPDEST POP POP POP POP JUMP JUMPDEST PUSH1 0x0 PUSH1 0x1F NOT PUSH1 0x1F DUP4 ADD AND SWAP1 POP SWAP2 SWAP1 POP JUMP JUMPDEST PUSH1 0x0 PUSH2 0xB7F DUP3 PUSH2 0xB14 JUMP JUMPDEST PUSH2 0xB89 DUP2 DUP6 PUSH2 0xB1F JUMP JUMPDEST SWAP4 POP PUSH2 0xB99 DUP2 DUP6 PUSH1 0x20 DUP7 ADD PUSH2 0xB30 JUMP JUMPDEST PUSH2 0xBA2 DUP2 PUSH2 0xB63 JUMP JUMPDEST DUP5 ADD SWAP2 POP POP SWAP3 SWAP2 POP POP JUMP JUMPDEST PUSH1 0x0 PUSH1 0x20 DUP3 ADD SWAP1 POP DUP2 DUP2 SUB PUSH1 0x0 DUP4 ADD MSTORE PUSH2 0xBC7 DUP2 DUP5 PUSH2 0xB74 JUMP JUMPDEST SWAP1 POP SWAP3 SWAP2 POP POP JUMP JUMPDEST PUSH1 0x0 DUP2 SWAP1 POP SWAP2 SWAP1 POP JUMP JUMPDEST PUSH2 0xBE2 DUP2 PUSH2 0xBCF JUMP JUMPDEST DUP2 EQ PUSH2 0xBED JUMPI PUSH1 0x0 DUP1 REVERT JUMPDEST POP JUMP JUMPDEST PUSH1 0x0 DUP2 CALLDATALOAD SWAP1 POP PUSH2 0xBFF DUP2 PUSH2 0xBD9 JUMP JUMPDEST SWAP3 SWAP2 POP POP JUMP JUMPDEST PUSH1 0x0 PUSH1 0x20 DUP3 DUP5 SUB SLT ISZERO PUSH2 0xC1B JUMPI PUSH2 0xC1A PUSH2 0x9C9 JUMP JUMPDEST JUMPDEST PUSH1 0x0 PUSH2 0xC29 DUP5 DUP3 DUP6 ADD PUSH2 0xBF0 JUMP JUMPDEST SWAP2 POP POP SWAP3 SWAP2 POP POP JUMP JUMPDEST PUSH2 0xC3B DUP2 PUSH2 0xBCF JUMP JUMPDEST DUP3 MSTORE POP POP JUMP JUMPDEST PUSH1 0x0 PUSH1 0x20 DUP3 ADD SWAP1 POP PUSH2 0xC56 PUSH1 0x0 DUP4 ADD DUP5 PUSH2 0xC32 JUMP JUMPDEST SWAP3 SWAP2 POP POP JUMP JUMPDEST PUSH1 0x0 DUP1 PUSH1 0x40 DUP4 DUP6 SUB SLT ISZERO PUSH2 0xC73 JUMPI PUSH2 0xC72 PUSH2 0x9C9 JUMP JUMPDEST JUMPDEST PUSH1 0x0 PUSH2 0xC81 DUP6 DUP3 DUP7 ADD PUSH2 0xBF0 JUMP JUMPDEST SWAP3 POP POP PUSH1 0x20 PUSH2 0xC92 DUP6 DUP3 DUP7 ADD PUSH2 0xAD2 JUMP JUMPDEST SWAP2 POP POP SWAP3 POP SWAP3 SWAP1 POP JUMP JUMPDEST PUSH32 0x4E487B7100000000000000000000000000000000000000000000000000000000 PUSH1 0x0 MSTORE PUSH1 0x11 PUSH1 0x4 MSTORE PUSH1 0x24 PUSH1 0x0 REVERT JUMPDEST PUSH1 0x0 DUP2 SWAP1 POP SWAP2 SWAP1 POP JUMP JUMPDEST PUSH1 0x0 PUSH2 0xCE0 DUP3 PUSH2 0xCCB JUMP JUMPDEST SWAP2 POP PUSH32 0xFFFFFFFFFFFFFFFFFFFFFFFFFFFFFFFFFFFFFFFFFFFFFFFFFFFFFFFFFFFFFFFF DUP3 SUB PUSH2 0xD12 JUMPI PUSH2 0xD11 PUSH2 0xC9C JUMP JUMPDEST JUMPDEST PUSH1 0x1 DUP3 ADD SWAP1 POP SWAP2 SWAP1 POP JUMP JUMPDEST PUSH1 0x0 DUP2 MLOAD SWAP1 POP SWAP2 SWAP1 POP JUMP JUMPDEST PUSH1 0x0 DUP2 SWAP1 POP SWAP3 SWAP2 POP POP JUMP JUMPDEST PUSH1 0x0 PUSH2 0xD3E DUP3 PUSH2 0xD1D JUMP JUMPDEST PUSH2 0xD48 DUP2 DUP6 PUSH2 0xD28 JUMP JUMPDEST SWAP4 POP PUSH2 0xD58 DUP2 DUP6 PUSH1 0x20 DUP7 ADD PUSH2 0xB30 JUMP JUMPDEST DUP1 DUP5 ADD SWAP2 POP POP SWAP3 SWAP2 POP POP JUMP JUMPDEST PUSH32 0x7400000000000000000000000000000000000000000000000000000000000000 DUP2 MSTORE POP JUMP JUMPDEST PUSH1 0x0 PUSH2 0xD96 DUP3 DUP5 PUSH2 0xD33 JUMP JUMPDEST SWAP2 POP PUSH2 0xDA1 DUP3 PUSH2 0xD64 JUMP JUMPDEST PUSH1 0x1 DUP3 ADD SWAP2 POP DUP2 SWAP1 POP SWAP3 SWAP2 POP POP JUMP JUMPDEST PUSH32 0x416363657373436F6E74726F6C3A2063616E206F6E6C792072656E6F756E6365 PUSH1 0x0 DUP3 ADD MSTORE PUSH32 0x20726F6C657320666F722073656C660000000000000000000000000000000000 PUSH1 0x20 DUP3 ADD MSTORE POP JUMP JUMPDEST PUSH1 0x0 PUSH2 0xE0C PUSH1 0x2F DUP4 PUSH2 0xB1F JUMP JUMPDEST SWAP2 POP PUSH2 0xE17 DUP3 PUSH2 0xDB0 JUMP JUMPDEST PUSH1 0x40 DUP3 ADD SWAP1 POP SWAP2 SWAP1 POP JUMP JUMPDEST PUSH1 0x0 PUSH1 0x20 DUP3 ADD SWAP1 POP DUP2 DUP2 SUB PUSH1 0x0 DUP4 ADD MSTORE PUSH2 0xE3B DUP2 PUSH2 0xDFF JUMP JUMPDEST SWAP1 POP SWAP2 SWAP1 POP JUMP JUMPDEST PUSH1 0x0 DUP2 SWAP1 POP SWAP3 SWAP2 POP POP JUMP JUMPDEST PUSH32 0x416363657373436F6E74726F6C3A206163636F756E7420000000000000000000 PUSH1 0x0 DUP3 ADD MSTORE POP JUMP JUMPDEST PUSH1 0x0 PUSH2 0xE83 PUSH1 0x17 DUP4 PUSH2 0xE42 JUMP JUMPDEST SWAP2 POP PUSH2 0xE8E DUP3 PUSH2 0xE4D JUMP JUMPDEST PUSH1 0x17 DUP3 ADD SWAP1 POP SWAP2 SWAP1 POP JUMP JUMPDEST PUSH1 0x0 PUSH2 0xEA4 DUP3 PUSH2 0xB14 JUMP JUMPDEST PUSH2 0xEAE DUP2 DUP6 PUSH2 0xE42 JUMP JUMPDEST SWAP4 POP PUSH2 0xEBE DUP2 DUP6 PUSH1 0x20 DUP7 ADD PUSH2 0xB30 JUMP JUMPDEST DUP1 DUP5 ADD SWAP2 POP POP SWAP3 SWAP2 POP POP JUMP JUMPDEST PUSH32 0x206973206D697373696E6720726F6C6520000000000000000000000000000000 PUSH1 0x0 DUP3 ADD MSTORE POP JUMP JUMPDEST PUSH1 0x0 PUSH2 0xF00 PUSH1 0x11 DUP4 PUSH2 0xE42 JUMP JUMPDEST SWAP2 POP PUSH2 0xF0B DUP3 PUSH2 0xECA JUMP JUMPDEST PUSH1 0x11 DUP3 ADD SWAP1 POP SWAP2 SWAP1 POP JUMP JUMPDEST PUSH1 0x0 PUSH2 0xF21 DUP3 PUSH2 0xE76 JUMP JUMPDEST SWAP2 POP PUSH2 0xF2D DUP3 DUP6 PUSH2 0xE99 JUMP JUMPDEST SWAP2 POP PUSH2 0xF38 DUP3 PUSH2 0xEF3 JUMP JUMPDEST SWAP2 POP PUSH2 0xF44 DUP3 DUP5 PUSH2 0xE99 JUMP JUMPDEST SWAP2 POP DUP2 SWAP1 POP SWAP4 SWAP3 POP POP POP JUMP JUMPDEST PUSH1 0x0 PUSH2 0xF5B DUP3 PUSH2 0xCCB JUMP JUMPDEST SWAP2 POP PUSH2 0xF66 DUP4 PUSH2 0xCCB JUMP JUMPDEST SWAP3 POP DUP2 PUSH32 0xFFFFFFFFFFFFFFFFFFFFFFFFFFFFFFFFFFFFFFFFFFFFFFFFFFFFFFFFFFFFFFFF DIV DUP4 GT DUP3 ISZERO ISZERO AND ISZERO PUSH2 0xF9F JUMPI PUSH2 0xF9E PUSH2 0xC9C JUMP JUMPDEST JUMPDEST DUP3 DUP3 MUL SWAP1 POP SWAP3 SWAP2 POP POP JUMP JUMPDEST PUSH1 0x0 PUSH2 0xFB5 DUP3 PUSH2 0xCCB JUMP JUMPDEST SWAP2 POP PUSH2 0xFC0 DUP4 PUSH2 0xCCB JUMP JUMPDEST SWAP3 POP DUP3 PUSH32 0xFFFFFFFFFFFFFFFFFFFFFFFFFFFFFFFFFFFFFFFFFFFFFFFFFFFFFFFFFFFFFFFF SUB DUP3 GT ISZERO PUSH2 0xFF5 JUMPI PUSH2 0xFF4 PUSH2 0xC9C JUMP JUMPDEST JUMPDEST DUP3 DUP3 ADD SWAP1 POP SWAP3 SWAP2 POP POP JUMP JUMPDEST PUSH32 0x4E487B7100000000000000000000000000000000000000000000000000000000 PUSH1 0x0 MSTORE PUSH1 0x41 PUSH1 0x4 MSTORE PUSH1 0x24 PUSH1 0x0 REVERT JUMPDEST PUSH32 0x4E487B7100000000000000000000000000000000000000000000000000000000 PUSH1 0x0 MSTORE PUSH1 0x32 PUSH1 0x4 MSTORE PUSH1 0x24 PUSH1 0x0 REVERT JUMPDEST PUSH1 0x0 PUSH2 0x1069 DUP3 PUSH2 0xCCB JUMP JUMPDEST SWAP2 POP PUSH1 0x0 DUP3 SUB PUSH2 0x107C JUMPI PUSH2 0x107B PUSH2 0xC9C JUMP JUMPDEST JUMPDEST PUSH1 0x1 DUP3 SUB SWAP1 POP SWAP2 SWAP1 POP JUMP JUMPDEST PUSH32 0x537472696E67733A20686578206C656E67746820696E73756666696369656E74 PUSH1 0x0 DUP3 ADD MSTORE POP JUMP JUMPDEST PUSH1 0x0 PUSH2 0x10BD PUSH1 0x20 DUP4 PUSH2 0xB1F JUMP JUMPDEST SWAP2 POP PUSH2 0x10C8 DUP3 PUSH2 0x1087 JUMP JUMPDEST PUSH1 0x20 DUP3 ADD SWAP1 POP SWAP2 SWAP1 POP JUMP JUMPDEST PUSH1 0x0 PUSH1 0x20 DUP3 ADD SWAP1 POP DUP2 DUP2 SUB PUSH1 0x0 DUP4 ADD MSTORE PUSH2 0x10EC DUP2 PUSH2 0x10B0 JUMP JUMPDEST SWAP1 POP SWAP2 SWAP1 POP JUMP INVALID LOG2 PUSH5 0x6970667358 0x22 SLT KECCAK256 0x4B SWAP1 EXTCODESIZE SWAP2 SELFBALANCE 0x4F EXTCODEHASH 0x1E MLOAD SDIV LOG3 SUB 0xE 0xDB CALLER PUSH18 0x5A0D15863FD203AEA580DF603B8B3CE6473 PUSH16 0x6C634300080D00330000000000000000 "
				},
				"gasEstimates": {
					"creation": {
						"codeDepositCost": "878600",
						"executionCost": "5922",
						"totalCost": "884522"
					},
					"external": {
						"DAO_ROLE()": "417",
						"DEFAULT_ADMIN_ROLE()": "379",
						"add(address)": "infinite",
						"getRoleAdmin(bytes32)": "infinite",
						"grantRole(bytes32,address)": "infinite",
						"hasRole(bytes32,address)": "3162",
						"renounceRole(bytes32,address)": "infinite",
						"revokeRole(bytes32,address)": "infinite",
						"supportsInterface(bytes4)": "728"
					}
				},
				"methodIdentifiers": {
					"DAO_ROLE()": "e9c26518",
					"DEFAULT_ADMIN_ROLE()": "a217fddf",
					"add(address)": "0a3b0a4f",
					"getRoleAdmin(bytes32)": "248a9ca3",
					"grantRole(bytes32,address)": "2f2ff15d",
					"hasRole(bytes32,address)": "91d14854",
					"renounceRole(bytes32,address)": "36568abe",
					"revokeRole(bytes32,address)": "d547741f",
					"supportsInterface(bytes4)": "01ffc9a7"
				}
			},
			"userdoc": {
				"kind": "user",
				"methods": {},
				"version": 1
			}
		}
	}
}