{
	"src/contracts/Desca.sol": {
		"DeSCA": {
			"abi": [
				{
					"anonymous": false,
					"inputs": [
						{
							"indexed": true,
							"internalType": "bytes32",
							"name": "role",
							"type": "bytes32"
						},
						{
							"indexed": true,
							"internalType": "bytes32",
							"name": "previousAdminRole",
							"type": "bytes32"
						},
						{
							"indexed": true,
							"internalType": "bytes32",
							"name": "newAdminRole",
							"type": "bytes32"
						}
					],
					"name": "RoleAdminChanged",
					"type": "event"
				},
				{
					"anonymous": false,
					"inputs": [
						{
							"indexed": true,
							"internalType": "bytes32",
							"name": "role",
							"type": "bytes32"
						},
						{
							"indexed": true,
							"internalType": "address",
							"name": "account",
							"type": "address"
						},
						{
							"indexed": true,
							"internalType": "address",
							"name": "sender",
							"type": "address"
						}
					],
					"name": "RoleGranted",
					"type": "event"
				},
				{
					"anonymous": false,
					"inputs": [
						{
							"indexed": true,
							"internalType": "bytes32",
							"name": "role",
							"type": "bytes32"
						},
						{
							"indexed": true,
							"internalType": "address",
							"name": "account",
							"type": "address"
						},
						{
							"indexed": true,
							"internalType": "address",
							"name": "sender",
							"type": "address"
						}
					],
					"name": "RoleRevoked",
					"type": "event"
				},
				{
					"inputs": [],
					"name": "DAO_ROLE",
					"outputs": [
						{
							"internalType": "bytes32",
							"name": "",
							"type": "bytes32"
						}
					],
					"stateMutability": "view",
					"type": "function"
				},
				{
					"inputs": [],
					"name": "DEFAULT_ADMIN_ROLE",
					"outputs": [
						{
							"internalType": "bytes32",
							"name": "",
							"type": "bytes32"
						}
					],
					"stateMutability": "view",
					"type": "function"
				},
				{
					"inputs": [
						{
							"internalType": "address",
							"name": "voter",
							"type": "address"
						}
					],
					"name": "addVoter",
					"outputs": [
						{
							"internalType": "enum DeSCA.VoterValue",
							"name": "",
							"type": "uint8"
						}
					],
					"stateMutability": "view",
					"type": "function"
				},
				{
					"inputs": [
						{
							"internalType": "bytes32",
							"name": "role",
							"type": "bytes32"
						}
					],
					"name": "getRoleAdmin",
					"outputs": [
						{
							"internalType": "bytes32",
							"name": "",
							"type": "bytes32"
						}
					],
					"stateMutability": "view",
					"type": "function"
				},
				{
					"inputs": [
						{
							"internalType": "bytes32",
							"name": "role",
							"type": "bytes32"
						},
						{
							"internalType": "address",
							"name": "account",
							"type": "address"
						}
					],
					"name": "grantRole",
					"outputs": [],
					"stateMutability": "nonpayable",
					"type": "function"
				},
				{
					"inputs": [
						{
							"internalType": "bytes32",
							"name": "role",
							"type": "bytes32"
						},
						{
							"internalType": "address",
							"name": "account",
							"type": "address"
						}
					],
					"name": "hasRole",
					"outputs": [
						{
							"internalType": "bool",
							"name": "",
							"type": "bool"
						}
					],
					"stateMutability": "view",
					"type": "function"
				},
				{
					"inputs": [],
					"name": "print",
					"outputs": [
						{
							"internalType": "string",
							"name": "",
							"type": "string"
						}
					],
					"stateMutability": "view",
					"type": "function"
				},
				{
					"inputs": [
						{
							"internalType": "bytes32",
							"name": "role",
							"type": "bytes32"
						},
						{
							"internalType": "address",
							"name": "account",
							"type": "address"
						}
					],
					"name": "renounceRole",
					"outputs": [],
					"stateMutability": "nonpayable",
					"type": "function"
				},
				{
					"inputs": [
						{
							"internalType": "bytes32",
							"name": "role",
							"type": "bytes32"
						},
						{
							"internalType": "address",
							"name": "account",
							"type": "address"
						}
					],
					"name": "revokeRole",
					"outputs": [],
					"stateMutability": "nonpayable",
					"type": "function"
				},
				{
					"inputs": [
						{
							"internalType": "bytes4",
							"name": "interfaceId",
							"type": "bytes4"
						}
					],
					"name": "supportsInterface",
					"outputs": [
						{
							"internalType": "bool",
							"name": "",
							"type": "bool"
						}
					],
					"stateMutability": "view",
					"type": "function"
				},
				{
					"inputs": [
						{
							"internalType": "address",
							"name": "voter",
							"type": "address"
						},
						{
							"internalType": "bool",
							"name": "vote",
							"type": "bool"
						}
					],
					"name": "vote",
					"outputs": [],
					"stateMutability": "nonpayable",
					"type": "function"
				}
			],
			"devdoc": {
				"kind": "dev",
				"methods": {
					"getRoleAdmin(bytes32)": {
						"details": "Returns the admin role that controls `role`. See {grantRole} and {revokeRole}. To change a role's admin, use {_setRoleAdmin}."
					},
					"grantRole(bytes32,address)": {
						"details": "Grants `role` to `account`. If `account` had not been already granted `role`, emits a {RoleGranted} event. Requirements: - the caller must have ``role``'s admin role."
					},
					"hasRole(bytes32,address)": {
						"details": "Returns `true` if `account` has been granted `role`."
					},
					"renounceRole(bytes32,address)": {
						"details": "Revokes `role` from the calling account. Roles are often managed via {grantRole} and {revokeRole}: this function's purpose is to provide a mechanism for accounts to lose their privileges if they are compromised (such as when a trusted device is misplaced). If the calling account had been revoked `role`, emits a {RoleRevoked} event. Requirements: - the caller must be `account`."
					},
					"revokeRole(bytes32,address)": {
						"details": "Revokes `role` from `account`. If `account` had been granted `role`, emits a {RoleRevoked} event. Requirements: - the caller must have ``role``'s admin role."
					},
					"supportsInterface(bytes4)": {
						"details": "See {IERC165-supportsInterface}."
					}
				},
				"version": 1
			},
			"evm": {
				"assembly": "    /* \"src/contracts/Desca.sol\":147:1325  contract DeSCA is AccessControl {... */\n  mstore(0x40, 0x80)\n    /* \"src/contracts/Desca.sol\":634:635  0 */\n  0x00\n    /* \"src/contracts/Desca.sol\":616:635  uint num_voters = 0 */\n  0x01\n  sstore\n    /* \"src/contracts/Desca.sol\":147:1325  contract DeSCA is AccessControl {... */\n  callvalue\n  dup1\n  iszero\n  tag_1\n  jumpi\n  0x00\n  dup1\n  revert\ntag_1:\n  pop\n  dataSize(sub_0)\n  dup1\n  dataOffset(sub_0)\n  0x00\n  codecopy\n  0x00\n  return\nstop\n\nsub_0: assembly {\n        /* \"src/contracts/Desca.sol\":147:1325  contract DeSCA is AccessControl {... */\n      mstore(0x40, 0x80)\n      callvalue\n      dup1\n      iszero\n      tag_1\n      jumpi\n      0x00\n      dup1\n      revert\n    tag_1:\n      pop\n      jumpi(tag_2, lt(calldatasize, 0x04))\n      shr(0xe0, calldataload(0x00))\n      dup1\n      0x91d14854\n      gt\n      tag_14\n      jumpi\n      dup1\n      0x91d14854\n      eq\n      tag_8\n      jumpi\n      dup1\n      0xa217fddf\n      eq\n      tag_9\n      jumpi\n      dup1\n      0xbd041c4d\n      eq\n      tag_10\n      jumpi\n      dup1\n      0xd547741f\n      eq\n      tag_11\n      jumpi\n      dup1\n      0xe9c26518\n      eq\n      tag_12\n      jumpi\n      dup1\n      0xf4ab9adf\n      eq\n      tag_13\n      jumpi\n      jump(tag_2)\n    tag_14:\n      dup1\n      0x01ffc9a7\n      eq\n      tag_3\n      jumpi\n      dup1\n      0x13bdfacd\n      eq\n      tag_4\n      jumpi\n      dup1\n      0x248a9ca3\n      eq\n      tag_5\n      jumpi\n      dup1\n      0x2f2ff15d\n      eq\n      tag_6\n      jumpi\n      dup1\n      0x36568abe\n      eq\n      tag_7\n      jumpi\n    tag_2:\n      0x00\n      dup1\n      revert\n        /* \"@openzeppelin/contracts/access/AccessControl.sol\":2620:2822  function supportsInterface(bytes4 interfaceId) public view virtual override returns (bool) {... */\n    tag_3:\n      tag_15\n      0x04\n      dup1\n      calldatasize\n      sub\n      dup2\n      add\n      swap1\n      tag_16\n      swap2\n      swap1\n      tag_17\n      jump\t// in\n    tag_16:\n      tag_18\n      jump\t// in\n    tag_15:\n      mload(0x40)\n      tag_19\n      swap2\n      swap1\n      tag_20\n      jump\t// in\n    tag_19:\n      mload(0x40)\n      dup1\n      swap2\n      sub\n      swap1\n      return\n        /* \"src/contracts/Desca.sol\":992:1060  function print() public view returns(string memory) {... */\n    tag_4:\n      tag_21\n      tag_22\n      jump\t// in\n    tag_21:\n      mload(0x40)\n      tag_23\n      swap2\n      swap1\n      tag_24\n      jump\t// in\n    tag_23:\n      mload(0x40)\n      dup1\n      swap2\n      sub\n      swap1\n      return\n        /* \"@openzeppelin/contracts/access/AccessControl.sol\":4008:4137  function getRoleAdmin(bytes32 role) public view virtual override returns (bytes32) {... */\n    tag_5:\n      tag_25\n      0x04\n      dup1\n      calldatasize\n      sub\n      dup2\n      add\n      swap1\n      tag_26\n      swap2\n      swap1\n      tag_27\n      jump\t// in\n    tag_26:\n      tag_28\n      jump\t// in\n    tag_25:\n      mload(0x40)\n      tag_29\n      swap2\n      swap1\n      tag_30\n      jump\t// in\n    tag_29:\n      mload(0x40)\n      dup1\n      swap2\n      sub\n      swap1\n      return\n        /* \"@openzeppelin/contracts/access/AccessControl.sol\":4387:4532  function grantRole(bytes32 role, address account) public virtual override onlyRole(getRoleAdmin(role)) {... */\n    tag_6:\n      tag_31\n      0x04\n      dup1\n      calldatasize\n      sub\n      dup2\n      add\n      swap1\n      tag_32\n      swap2\n      swap1\n      tag_33\n      jump\t// in\n    tag_32:\n      tag_34\n      jump\t// in\n    tag_31:\n      stop\n        /* \"@openzeppelin/contracts/access/AccessControl.sol\":5404:5618  function renounceRole(bytes32 role, address account) public virtual override {... */\n    tag_7:\n      tag_35\n      0x04\n      dup1\n      calldatasize\n      sub\n      dup2\n      add\n      swap1\n      tag_36\n      swap2\n      swap1\n      tag_33\n      jump\t// in\n    tag_36:\n      tag_37\n      jump\t// in\n    tag_35:\n      stop\n        /* \"@openzeppelin/contracts/access/AccessControl.sol\":2909:3054  function hasRole(bytes32 role, address account) public view virtual override returns (bool) {... */\n    tag_8:\n      tag_38\n      0x04\n      dup1\n      calldatasize\n      sub\n      dup2\n      add\n      swap1\n      tag_39\n      swap2\n      swap1\n      tag_33\n      jump\t// in\n    tag_39:\n      tag_40\n      jump\t// in\n    tag_38:\n      mload(0x40)\n      tag_41\n      swap2\n      swap1\n      tag_20\n      jump\t// in\n    tag_41:\n      mload(0x40)\n      dup1\n      swap2\n      sub\n      swap1\n      return\n        /* \"@openzeppelin/contracts/access/AccessControl.sol\":2027:2076  bytes32 public constant DEFAULT_ADMIN_ROLE = 0x00 */\n    tag_9:\n      tag_42\n      tag_43\n      jump\t// in\n    tag_42:\n      mload(0x40)\n      tag_44\n      swap2\n      swap1\n      tag_30\n      jump\t// in\n    tag_44:\n      mload(0x40)\n      dup1\n      swap2\n      sub\n      swap1\n      return\n        /* \"src/contracts/Desca.sol\":805:986  function vote(address voter, bool vote) public {... */\n    tag_10:\n      tag_45\n      0x04\n      dup1\n      calldatasize\n      sub\n      dup2\n      add\n      swap1\n      tag_46\n      swap2\n      swap1\n      tag_47\n      jump\t// in\n    tag_46:\n      tag_48\n      jump\t// in\n    tag_45:\n      stop\n        /* \"@openzeppelin/contracts/access/AccessControl.sol\":4766:4913  function revokeRole(bytes32 role, address account) public virtual override onlyRole(getRoleAdmin(role)) {... */\n    tag_11:\n      tag_49\n      0x04\n      dup1\n      calldatasize\n      sub\n      dup2\n      add\n      swap1\n      tag_50\n      swap2\n      swap1\n      tag_33\n      jump\t// in\n    tag_50:\n      tag_51\n      jump\t// in\n    tag_49:\n      stop\n        /* \"src/contracts/Desca.sol\":499:555  bytes32 public constant DAO_ROLE = keccak256(\"DAO_ROLE\") */\n    tag_12:\n      tag_52\n      tag_53\n      jump\t// in\n    tag_52:\n      mload(0x40)\n      tag_54\n      swap2\n      swap1\n      tag_30\n      jump\t// in\n    tag_54:\n      mload(0x40)\n      dup1\n      swap2\n      sub\n      swap1\n      return\n        /* \"src/contracts/Desca.sol\":691:799  function addVoter(address voter) public view returns (VoterValue) {... */\n    tag_13:\n      tag_55\n      0x04\n      dup1\n      calldatasize\n      sub\n      dup2\n      add\n      swap1\n      tag_56\n      swap2\n      swap1\n      tag_57\n      jump\t// in\n    tag_56:\n      tag_58\n      jump\t// in\n    tag_55:\n      mload(0x40)\n      tag_59\n      swap2\n      swap1\n      tag_60\n      jump\t// in\n    tag_59:\n      mload(0x40)\n      dup1\n      swap2\n      sub\n      swap1\n      return\n        /* \"@openzeppelin/contracts/access/AccessControl.sol\":2620:2822  function supportsInterface(bytes4 interfaceId) public view virtual override returns (bool) {... */\n    tag_18:\n        /* \"@openzeppelin/contracts/access/AccessControl.sol\":2705:2709  bool */\n      0x00\n        /* \"@openzeppelin/contracts/access/AccessControl.sol\":2743:2775  type(IAccessControl).interfaceId */\n      0x7965db0b00000000000000000000000000000000000000000000000000000000\n        /* \"@openzeppelin/contracts/access/AccessControl.sol\":2728:2775  interfaceId == type(IAccessControl).interfaceId */\n      not(0xffffffffffffffffffffffffffffffffffffffffffffffffffffffff)\n      and\n        /* \"@openzeppelin/contracts/access/AccessControl.sol\":2728:2739  interfaceId */\n      dup3\n        /* \"@openzeppelin/contracts/access/AccessControl.sol\":2728:2775  interfaceId == type(IAccessControl).interfaceId */\n      not(0xffffffffffffffffffffffffffffffffffffffffffffffffffffffff)\n      and\n      eq\n        /* \"@openzeppelin/contracts/access/AccessControl.sol\":2728:2815  interfaceId == type(IAccessControl).interfaceId || super.supportsInterface(interfaceId) */\n      dup1\n      tag_62\n      jumpi\n      pop\n        /* \"@openzeppelin/contracts/access/AccessControl.sol\":2779:2815  super.supportsInterface(interfaceId) */\n      tag_63\n        /* \"@openzeppelin/contracts/access/AccessControl.sol\":2803:2814  interfaceId */\n      dup3\n        /* \"@openzeppelin/contracts/access/AccessControl.sol\":2779:2802  super.supportsInterface */\n      tag_64\n        /* \"@openzeppelin/contracts/access/AccessControl.sol\":2779:2815  super.supportsInterface(interfaceId) */\n      jump\t// in\n    tag_63:\n        /* \"@openzeppelin/contracts/access/AccessControl.sol\":2728:2815  interfaceId == type(IAccessControl).interfaceId || super.supportsInterface(interfaceId) */\n    tag_62:\n        /* \"@openzeppelin/contracts/access/AccessControl.sol\":2721:2815  return interfaceId == type(IAccessControl).interfaceId || super.supportsInterface(interfaceId) */\n      swap1\n      pop\n        /* \"@openzeppelin/contracts/access/AccessControl.sol\":2620:2822  function supportsInterface(bytes4 interfaceId) public view virtual override returns (bool) {... */\n      swap2\n      swap1\n      pop\n      jump\t// out\n        /* \"src/contracts/Desca.sol\":992:1060  function print() public view returns(string memory) {... */\n    tag_22:\n        /* \"src/contracts/Desca.sol\":1029:1042  string memory */\n      0x60\n        /* \"src/contracts/Desca.sol\":992:1060  function print() public view returns(string memory) {... */\n      swap1\n      jump\t// out\n        /* \"@openzeppelin/contracts/access/AccessControl.sol\":4008:4137  function getRoleAdmin(bytes32 role) public view virtual override returns (bytes32) {... */\n    tag_28:\n        /* \"@openzeppelin/contracts/access/AccessControl.sol\":4082:4089  bytes32 */\n      0x00\n        /* \"@openzeppelin/contracts/access/AccessControl.sol\":4108:4114  _roles */\n      dup1\n        /* \"@openzeppelin/contracts/access/AccessControl.sol\":4108:4120  _roles[role] */\n      0x00\n        /* \"@openzeppelin/contracts/access/AccessControl.sol\":4115:4119  role */\n      dup4\n        /* \"@openzeppelin/contracts/access/AccessControl.sol\":4108:4120  _roles[role] */\n      dup2\n      mstore\n      0x20\n      add\n      swap1\n      dup2\n      mstore\n      0x20\n      add\n      0x00\n      keccak256\n        /* \"@openzeppelin/contracts/access/AccessControl.sol\":4108:4130  _roles[role].adminRole */\n      0x01\n      add\n      sload\n        /* \"@openzeppelin/contracts/access/AccessControl.sol\":4101:4130  return _roles[role].adminRole */\n      swap1\n      pop\n        /* \"@openzeppelin/contracts/access/AccessControl.sol\":4008:4137  function getRoleAdmin(bytes32 role) public view virtual override returns (bytes32) {... */\n      swap2\n      swap1\n      pop\n      jump\t// out\n        /* \"@openzeppelin/contracts/access/AccessControl.sol\":4387:4532  function grantRole(bytes32 role, address account) public virtual override onlyRole(getRoleAdmin(role)) {... */\n    tag_34:\n        /* \"@openzeppelin/contracts/access/AccessControl.sol\":4470:4488  getRoleAdmin(role) */\n      tag_67\n        /* \"@openzeppelin/contracts/access/AccessControl.sol\":4483:4487  role */\n      dup3\n        /* \"@openzeppelin/contracts/access/AccessControl.sol\":4470:4482  getRoleAdmin */\n      tag_28\n        /* \"@openzeppelin/contracts/access/AccessControl.sol\":4470:4488  getRoleAdmin(role) */\n      jump\t// in\n    tag_67:\n        /* \"@openzeppelin/contracts/access/AccessControl.sol\":2505:2535  _checkRole(role, _msgSender()) */\n      tag_69\n        /* \"@openzeppelin/contracts/access/AccessControl.sol\":2516:2520  role */\n      dup2\n        /* \"@openzeppelin/contracts/access/AccessControl.sol\":2522:2534  _msgSender() */\n      tag_70\n        /* \"@openzeppelin/contracts/access/AccessControl.sol\":2522:2532  _msgSender */\n      tag_71\n        /* \"@openzeppelin/contracts/access/AccessControl.sol\":2522:2534  _msgSender() */\n      jump\t// in\n    tag_70:\n        /* \"@openzeppelin/contracts/access/AccessControl.sol\":2505:2515  _checkRole */\n      tag_72\n        /* \"@openzeppelin/contracts/access/AccessControl.sol\":2505:2535  _checkRole(role, _msgSender()) */\n      jump\t// in\n    tag_69:\n        /* \"@openzeppelin/contracts/access/AccessControl.sol\":4500:4525  _grantRole(role, account) */\n      tag_74\n        /* \"@openzeppelin/contracts/access/AccessControl.sol\":4511:4515  role */\n      dup4\n        /* \"@openzeppelin/contracts/access/AccessControl.sol\":4517:4524  account */\n      dup4\n        /* \"@openzeppelin/contracts/access/AccessControl.sol\":4500:4510  _grantRole */\n      tag_75\n        /* \"@openzeppelin/contracts/access/AccessControl.sol\":4500:4525  _grantRole(role, account) */\n      jump\t// in\n    tag_74:\n        /* \"@openzeppelin/contracts/access/AccessControl.sol\":4387:4532  function grantRole(bytes32 role, address account) public virtual override onlyRole(getRoleAdmin(role)) {... */\n      pop\n      pop\n      pop\n      jump\t// out\n        /* \"@openzeppelin/contracts/access/AccessControl.sol\":5404:5618  function renounceRole(bytes32 role, address account) public virtual override {... */\n    tag_37:\n        /* \"@openzeppelin/contracts/access/AccessControl.sol\":5510:5522  _msgSender() */\n      tag_77\n        /* \"@openzeppelin/contracts/access/AccessControl.sol\":5510:5520  _msgSender */\n      tag_71\n        /* \"@openzeppelin/contracts/access/AccessControl.sol\":5510:5522  _msgSender() */\n      jump\t// in\n    tag_77:\n        /* \"@openzeppelin/contracts/access/AccessControl.sol\":5499:5522  account == _msgSender() */\n      0xffffffffffffffffffffffffffffffffffffffff\n      and\n        /* \"@openzeppelin/contracts/access/AccessControl.sol\":5499:5506  account */\n      dup2\n        /* \"@openzeppelin/contracts/access/AccessControl.sol\":5499:5522  account == _msgSender() */\n      0xffffffffffffffffffffffffffffffffffffffff\n      and\n      eq\n        /* \"@openzeppelin/contracts/access/AccessControl.sol\":5491:5574  require(account == _msgSender(), \"AccessControl: can only renounce roles for self\") */\n      tag_78\n      jumpi\n      mload(0x40)\n      0x08c379a000000000000000000000000000000000000000000000000000000000\n      dup2\n      mstore\n      0x04\n      add\n      tag_79\n      swap1\n      tag_80\n      jump\t// in\n    tag_79:\n      mload(0x40)\n      dup1\n      swap2\n      sub\n      swap1\n      revert\n    tag_78:\n        /* \"@openzeppelin/contracts/access/AccessControl.sol\":5585:5611  _revokeRole(role, account) */\n      tag_81\n        /* \"@openzeppelin/contracts/access/AccessControl.sol\":5597:5601  role */\n      dup3\n        /* \"@openzeppelin/contracts/access/AccessControl.sol\":5603:5610  account */\n      dup3\n        /* \"@openzeppelin/contracts/access/AccessControl.sol\":5585:5596  _revokeRole */\n      tag_82\n        /* \"@openzeppelin/contracts/access/AccessControl.sol\":5585:5611  _revokeRole(role, account) */\n      jump\t// in\n    tag_81:\n        /* \"@openzeppelin/contracts/access/AccessControl.sol\":5404:5618  function renounceRole(bytes32 role, address account) public virtual override {... */\n      pop\n      pop\n      jump\t// out\n        /* \"@openzeppelin/contracts/access/AccessControl.sol\":2909:3054  function hasRole(bytes32 role, address account) public view virtual override returns (bool) {... */\n    tag_40:\n        /* \"@openzeppelin/contracts/access/AccessControl.sol\":2995:2999  bool */\n      0x00\n        /* \"@openzeppelin/contracts/access/AccessControl.sol\":3018:3024  _roles */\n      dup1\n        /* \"@openzeppelin/contracts/access/AccessControl.sol\":3018:3030  _roles[role] */\n      0x00\n        /* \"@openzeppelin/contracts/access/AccessControl.sol\":3025:3029  role */\n      dup5\n        /* \"@openzeppelin/contracts/access/AccessControl.sol\":3018:3030  _roles[role] */\n      dup2\n      mstore\n      0x20\n      add\n      swap1\n      dup2\n      mstore\n      0x20\n      add\n      0x00\n      keccak256\n        /* \"@openzeppelin/contracts/access/AccessControl.sol\":3018:3038  _roles[role].members */\n      0x00\n      add\n        /* \"@openzeppelin/contracts/access/AccessControl.sol\":3018:3047  _roles[role].members[account] */\n      0x00\n        /* \"@openzeppelin/contracts/access/AccessControl.sol\":3039:3046  account */\n      dup4\n        /* \"@openzeppelin/contracts/access/AccessControl.sol\":3018:3047  _roles[role].members[account] */\n      0xffffffffffffffffffffffffffffffffffffffff\n      and\n      0xffffffffffffffffffffffffffffffffffffffff\n      and\n      dup2\n      mstore\n      0x20\n      add\n      swap1\n      dup2\n      mstore\n      0x20\n      add\n      0x00\n      keccak256\n      0x00\n      swap1\n      sload\n      swap1\n      0x0100\n      exp\n      swap1\n      div\n      0xff\n      and\n        /* \"@openzeppelin/contracts/access/AccessControl.sol\":3011:3047  return _roles[role].members[account] */\n      swap1\n      pop\n        /* \"@openzeppelin/contracts/access/AccessControl.sol\":2909:3054  function hasRole(bytes32 role, address account) public view virtual override returns (bool) {... */\n      swap3\n      swap2\n      pop\n      pop\n      jump\t// out\n        /* \"@openzeppelin/contracts/access/AccessControl.sol\":2027:2076  bytes32 public constant DEFAULT_ADMIN_ROLE = 0x00 */\n    tag_43:\n        /* \"@openzeppelin/contracts/access/AccessControl.sol\":2072:2076  0x00 */\n      0x00\n        /* \"@openzeppelin/contracts/access/AccessControl.sol\":2027:2076  bytes32 public constant DEFAULT_ADMIN_ROLE = 0x00 */\n      dup1\n      shl\n      dup2\n      jump\t// out\n        /* \"src/contracts/Desca.sol\":805:986  function vote(address voter, bool vote) public {... */\n    tag_48:\n        /* \"src/contracts/Desca.sol\":888:908  VoterValue.NOT_VOTED */\n      0x01\n        /* \"src/contracts/Desca.sol\":866:908  voter_votes[voter] == VoterValue.NOT_VOTED */\n      0x03\n      dup2\n      gt\n      iszero\n      tag_85\n      jumpi\n      tag_86\n      tag_87\n      jump\t// in\n    tag_86:\n    tag_85:\n        /* \"src/contracts/Desca.sol\":866:877  voter_votes */\n      0x02\n        /* \"src/contracts/Desca.sol\":866:884  voter_votes[voter] */\n      0x00\n        /* \"src/contracts/Desca.sol\":878:883  voter */\n      dup5\n        /* \"src/contracts/Desca.sol\":866:884  voter_votes[voter] */\n      0xffffffffffffffffffffffffffffffffffffffff\n      and\n      0xffffffffffffffffffffffffffffffffffffffff\n      and\n      dup2\n      mstore\n      0x20\n      add\n      swap1\n      dup2\n      mstore\n      0x20\n      add\n      0x00\n      keccak256\n      0x00\n      swap1\n      sload\n      swap1\n      0x0100\n      exp\n      swap1\n      div\n      0xff\n      and\n        /* \"src/contracts/Desca.sol\":866:908  voter_votes[voter] == VoterValue.NOT_VOTED */\n      0x03\n      dup2\n      gt\n      iszero\n      tag_88\n      jumpi\n      tag_89\n      tag_87\n      jump\t// in\n    tag_89:\n    tag_88:\n      sub\n        /* \"src/contracts/Desca.sol\":862:980  if (voter_votes[voter] == VoterValue.NOT_VOTED) {... */\n      tag_90\n      jumpi\n        /* \"src/contracts/Desca.sol\":956:960  vote */\n      dup1\n        /* \"src/contracts/Desca.sol\":956:968  vote ? 2 : 3 */\n      tag_91\n      jumpi\n        /* \"src/contracts/Desca.sol\":967:968  3 */\n      0x03\n        /* \"src/contracts/Desca.sol\":956:968  vote ? 2 : 3 */\n      jump(tag_92)\n    tag_91:\n        /* \"src/contracts/Desca.sol\":963:964  2 */\n      0x02\n        /* \"src/contracts/Desca.sol\":956:968  vote ? 2 : 3 */\n    tag_92:\n        /* \"src/contracts/Desca.sol\":945:969  VoterValue(vote ? 2 : 3) */\n      0xff\n      and\n      0x03\n      dup2\n      gt\n      iszero\n      tag_93\n      jumpi\n      tag_94\n      tag_87\n      jump\t// in\n    tag_94:\n    tag_93:\n        /* \"src/contracts/Desca.sol\":924:935  voter_votes */\n      0x02\n        /* \"src/contracts/Desca.sol\":924:942  voter_votes[voter] */\n      0x00\n        /* \"src/contracts/Desca.sol\":936:941  voter */\n      dup5\n        /* \"src/contracts/Desca.sol\":924:942  voter_votes[voter] */\n      0xffffffffffffffffffffffffffffffffffffffff\n      and\n      0xffffffffffffffffffffffffffffffffffffffff\n      and\n      dup2\n      mstore\n      0x20\n      add\n      swap1\n      dup2\n      mstore\n      0x20\n      add\n      0x00\n      keccak256\n      0x00\n        /* \"src/contracts/Desca.sol\":924:969  voter_votes[voter] = VoterValue(vote ? 2 : 3) */\n      0x0100\n      exp\n      dup2\n      sload\n      dup2\n      0xff\n      mul\n      not\n      and\n      swap1\n      dup4\n      0x03\n      dup2\n      gt\n      iszero\n      tag_95\n      jumpi\n      tag_96\n      tag_87\n      jump\t// in\n    tag_96:\n    tag_95:\n      mul\n      or\n      swap1\n      sstore\n      pop\n        /* \"src/contracts/Desca.sol\":862:980  if (voter_votes[voter] == VoterValue.NOT_VOTED) {... */\n    tag_90:\n        /* \"src/contracts/Desca.sol\":805:986  function vote(address voter, bool vote) public {... */\n      pop\n      pop\n      jump\t// out\n        /* \"@openzeppelin/contracts/access/AccessControl.sol\":4766:4913  function revokeRole(bytes32 role, address account) public virtual override onlyRole(getRoleAdmin(role)) {... */\n    tag_51:\n        /* \"@openzeppelin/contracts/access/AccessControl.sol\":4850:4868  getRoleAdmin(role) */\n      tag_97\n        /* \"@openzeppelin/contracts/access/AccessControl.sol\":4863:4867  role */\n      dup3\n        /* \"@openzeppelin/contracts/access/AccessControl.sol\":4850:4862  getRoleAdmin */\n      tag_28\n        /* \"@openzeppelin/contracts/access/AccessControl.sol\":4850:4868  getRoleAdmin(role) */\n      jump\t// in\n    tag_97:\n        /* \"@openzeppelin/contracts/access/AccessControl.sol\":2505:2535  _checkRole(role, _msgSender()) */\n      tag_99\n        /* \"@openzeppelin/contracts/access/AccessControl.sol\":2516:2520  role */\n      dup2\n        /* \"@openzeppelin/contracts/access/AccessControl.sol\":2522:2534  _msgSender() */\n      tag_100\n        /* \"@openzeppelin/contracts/access/AccessControl.sol\":2522:2532  _msgSender */\n      tag_71\n        /* \"@openzeppelin/contracts/access/AccessControl.sol\":2522:2534  _msgSender() */\n      jump\t// in\n    tag_100:\n        /* \"@openzeppelin/contracts/access/AccessControl.sol\":2505:2515  _checkRole */\n      tag_72\n        /* \"@openzeppelin/contracts/access/AccessControl.sol\":2505:2535  _checkRole(role, _msgSender()) */\n      jump\t// in\n    tag_99:\n        /* \"@openzeppelin/contracts/access/AccessControl.sol\":4880:4906  _revokeRole(role, account) */\n      tag_102\n        /* \"@openzeppelin/contracts/access/AccessControl.sol\":4892:4896  role */\n      dup4\n        /* \"@openzeppelin/contracts/access/AccessControl.sol\":4898:4905  account */\n      dup4\n        /* \"@openzeppelin/contracts/access/AccessControl.sol\":4880:4891  _revokeRole */\n      tag_82\n        /* \"@openzeppelin/contracts/access/AccessControl.sol\":4880:4906  _revokeRole(role, account) */\n      jump\t// in\n    tag_102:\n        /* \"@openzeppelin/contracts/access/AccessControl.sol\":4766:4913  function revokeRole(bytes32 role, address account) public virtual override onlyRole(getRoleAdmin(role)) {... */\n      pop\n      pop\n      pop\n      jump\t// out\n        /* \"src/contracts/Desca.sol\":499:555  bytes32 public constant DAO_ROLE = keccak256(\"DAO_ROLE\") */\n    tag_53:\n        /* \"src/contracts/Desca.sol\":534:555  keccak256(\"DAO_ROLE\") */\n      0x3b5d4cc60d3ec3516ee8ae083bd60934f6eb2a6c54b1229985c41bfb092b2603\n        /* \"src/contracts/Desca.sol\":499:555  bytes32 public constant DAO_ROLE = keccak256(\"DAO_ROLE\") */\n      dup2\n      jump\t// out\n        /* \"src/contracts/Desca.sol\":691:799  function addVoter(address voter) public view returns (VoterValue) {... */\n    tag_58:\n        /* \"src/contracts/Desca.sol\":745:755  VoterValue */\n      0x00\n        /* \"src/contracts/Desca.sol\":774:785  voter_votes */\n      0x02\n        /* \"src/contracts/Desca.sol\":774:792  voter_votes[voter] */\n      0x00\n        /* \"src/contracts/Desca.sol\":786:791  voter */\n      dup4\n        /* \"src/contracts/Desca.sol\":774:792  voter_votes[voter] */\n      0xffffffffffffffffffffffffffffffffffffffff\n      and\n      0xffffffffffffffffffffffffffffffffffffffff\n      and\n      dup2\n      mstore\n      0x20\n      add\n      swap1\n      dup2\n      mstore\n      0x20\n      add\n      0x00\n      keccak256\n      0x00\n      swap1\n      sload\n      swap1\n      0x0100\n      exp\n      swap1\n      div\n      0xff\n      and\n        /* \"src/contracts/Desca.sol\":767:792  return voter_votes[voter] */\n      swap1\n      pop\n        /* \"src/contracts/Desca.sol\":691:799  function addVoter(address voter) public view returns (VoterValue) {... */\n      swap2\n      swap1\n      pop\n      jump\t// out\n        /* \"@openzeppelin/contracts/utils/introspection/ERC165.sol\":829:984  function supportsInterface(bytes4 interfaceId) public view virtual override returns (bool) {... */\n    tag_64:\n        /* \"@openzeppelin/contracts/utils/introspection/ERC165.sol\":914:918  bool */\n      0x00\n        /* \"@openzeppelin/contracts/utils/introspection/ERC165.sol\":952:977  type(IERC165).interfaceId */\n      0x01ffc9a700000000000000000000000000000000000000000000000000000000\n        /* \"@openzeppelin/contracts/utils/introspection/ERC165.sol\":937:977  interfaceId == type(IERC165).interfaceId */\n      not(0xffffffffffffffffffffffffffffffffffffffffffffffffffffffff)\n      and\n        /* \"@openzeppelin/contracts/utils/introspection/ERC165.sol\":937:948  interfaceId */\n      dup3\n        /* \"@openzeppelin/contracts/utils/introspection/ERC165.sol\":937:977  interfaceId == type(IERC165).interfaceId */\n      not(0xffffffffffffffffffffffffffffffffffffffffffffffffffffffff)\n      and\n      eq\n        /* \"@openzeppelin/contracts/utils/introspection/ERC165.sol\":930:977  return interfaceId == type(IERC165).interfaceId */\n      swap1\n      pop\n        /* \"@openzeppelin/contracts/utils/introspection/ERC165.sol\":829:984  function supportsInterface(bytes4 interfaceId) public view virtual override returns (bool) {... */\n      swap2\n      swap1\n      pop\n      jump\t// out\n        /* \"@openzeppelin/contracts/utils/Context.sol\":640:736  function _msgSender() internal view virtual returns (address) {... */\n    tag_71:\n        /* \"@openzeppelin/contracts/utils/Context.sol\":693:700  address */\n      0x00\n        /* \"@openzeppelin/contracts/utils/Context.sol\":719:729  msg.sender */\n      caller\n        /* \"@openzeppelin/contracts/utils/Context.sol\":712:729  return msg.sender */\n      swap1\n      pop\n        /* \"@openzeppelin/contracts/utils/Context.sol\":640:736  function _msgSender() internal view virtual returns (address) {... */\n      swap1\n      jump\t// out\n        /* \"@openzeppelin/contracts/access/AccessControl.sol\":3335:3827  function _checkRole(bytes32 role, address account) internal view virtual {... */\n    tag_72:\n        /* \"@openzeppelin/contracts/access/AccessControl.sol\":3423:3445  hasRole(role, account) */\n      tag_107\n        /* \"@openzeppelin/contracts/access/AccessControl.sol\":3431:3435  role */\n      dup3\n        /* \"@openzeppelin/contracts/access/AccessControl.sol\":3437:3444  account */\n      dup3\n        /* \"@openzeppelin/contracts/access/AccessControl.sol\":3423:3430  hasRole */\n      tag_40\n        /* \"@openzeppelin/contracts/access/AccessControl.sol\":3423:3445  hasRole(role, account) */\n      jump\t// in\n    tag_107:\n        /* \"@openzeppelin/contracts/access/AccessControl.sol\":3418:3821  if (!hasRole(role, account)) {... */\n      tag_108\n      jumpi\n        /* \"@openzeppelin/contracts/access/AccessControl.sol\":3606:3647  Strings.toHexString(uint160(account), 20) */\n      tag_109\n        /* \"@openzeppelin/contracts/access/AccessControl.sol\":3634:3641  account */\n      dup2\n        /* \"@openzeppelin/contracts/access/AccessControl.sol\":3606:3647  Strings.toHexString(uint160(account), 20) */\n      0xffffffffffffffffffffffffffffffffffffffff\n      and\n        /* \"@openzeppelin/contracts/access/AccessControl.sol\":3644:3646  20 */\n      0x14\n        /* \"@openzeppelin/contracts/access/AccessControl.sol\":3606:3625  Strings.toHexString */\n      tag_110\n        /* \"@openzeppelin/contracts/access/AccessControl.sol\":3606:3647  Strings.toHexString(uint160(account), 20) */\n      jump\t// in\n    tag_109:\n        /* \"@openzeppelin/contracts/access/AccessControl.sol\":3718:3756  Strings.toHexString(uint256(role), 32) */\n      tag_111\n        /* \"@openzeppelin/contracts/access/AccessControl.sol\":3746:3750  role */\n      dup4\n        /* \"@openzeppelin/contracts/access/AccessControl.sol\":3738:3751  uint256(role) */\n      0x00\n      shr\n        /* \"@openzeppelin/contracts/access/AccessControl.sol\":3753:3755  32 */\n      0x20\n        /* \"@openzeppelin/contracts/access/AccessControl.sol\":3718:3737  Strings.toHexString */\n      tag_110\n        /* \"@openzeppelin/contracts/access/AccessControl.sol\":3718:3756  Strings.toHexString(uint256(role), 32) */\n      jump\t// in\n    tag_111:\n        /* \"@openzeppelin/contracts/access/AccessControl.sol\":3513:3778  abi.encodePacked(... */\n      add(0x20, mload(0x40))\n      tag_112\n      swap3\n      swap2\n      swap1\n      tag_113\n      jump\t// in\n    tag_112:\n      mload(0x40)\n      0x20\n      dup2\n      dup4\n      sub\n      sub\n      dup2\n      mstore\n      swap1\n      0x40\n      mstore\n        /* \"@openzeppelin/contracts/access/AccessControl.sol\":3461:3810  revert(... */\n      mload(0x40)\n      0x08c379a000000000000000000000000000000000000000000000000000000000\n      dup2\n      mstore\n      0x04\n      add\n      tag_114\n      swap2\n      swap1\n      tag_24\n      jump\t// in\n    tag_114:\n      mload(0x40)\n      dup1\n      swap2\n      sub\n      swap1\n      revert\n        /* \"@openzeppelin/contracts/access/AccessControl.sol\":3418:3821  if (!hasRole(role, account)) {... */\n    tag_108:\n        /* \"@openzeppelin/contracts/access/AccessControl.sol\":3335:3827  function _checkRole(bytes32 role, address account) internal view virtual {... */\n      pop\n      pop\n      jump\t// out\n        /* \"@openzeppelin/contracts/access/AccessControl.sol\":6861:7094  function _grantRole(bytes32 role, address account) internal virtual {... */\n    tag_75:\n        /* \"@openzeppelin/contracts/access/AccessControl.sol\":6944:6966  hasRole(role, account) */\n      tag_116\n        /* \"@openzeppelin/contracts/access/AccessControl.sol\":6952:6956  role */\n      dup3\n        /* \"@openzeppelin/contracts/access/AccessControl.sol\":6958:6965  account */\n      dup3\n        /* \"@openzeppelin/contracts/access/AccessControl.sol\":6944:6951  hasRole */\n      tag_40\n        /* \"@openzeppelin/contracts/access/AccessControl.sol\":6944:6966  hasRole(role, account) */\n      jump\t// in\n    tag_116:\n        /* \"@openzeppelin/contracts/access/AccessControl.sol\":6939:7088  if (!hasRole(role, account)) {... */\n      tag_117\n      jumpi\n        /* \"@openzeppelin/contracts/access/AccessControl.sol\":7014:7018  true */\n      0x01\n        /* \"@openzeppelin/contracts/access/AccessControl.sol\":6982:6988  _roles */\n      0x00\n        /* \"@openzeppelin/contracts/access/AccessControl.sol\":6982:6994  _roles[role] */\n      dup1\n        /* \"@openzeppelin/contracts/access/AccessControl.sol\":6989:6993  role */\n      dup5\n        /* \"@openzeppelin/contracts/access/AccessControl.sol\":6982:6994  _roles[role] */\n      dup2\n      mstore\n      0x20\n      add\n      swap1\n      dup2\n      mstore\n      0x20\n      add\n      0x00\n      keccak256\n        /* \"@openzeppelin/contracts/access/AccessControl.sol\":6982:7002  _roles[role].members */\n      0x00\n      add\n        /* \"@openzeppelin/contracts/access/AccessControl.sol\":6982:7011  _roles[role].members[account] */\n      0x00\n        /* \"@openzeppelin/contracts/access/AccessControl.sol\":7003:7010  account */\n      dup4\n        /* \"@openzeppelin/contracts/access/AccessControl.sol\":6982:7011  _roles[role].members[account] */\n      0xffffffffffffffffffffffffffffffffffffffff\n      and\n      0xffffffffffffffffffffffffffffffffffffffff\n      and\n      dup2\n      mstore\n      0x20\n      add\n      swap1\n      dup2\n      mstore\n      0x20\n      add\n      0x00\n      keccak256\n      0x00\n        /* \"@openzeppelin/contracts/access/AccessControl.sol\":6982:7018  _roles[role].members[account] = true */\n      0x0100\n      exp\n      dup2\n      sload\n      dup2\n      0xff\n      mul\n      not\n      and\n      swap1\n      dup4\n      iszero\n      iszero\n      mul\n      or\n      swap1\n      sstore\n      pop\n        /* \"@openzeppelin/contracts/access/AccessControl.sol\":7064:7076  _msgSender() */\n      tag_118\n        /* \"@openzeppelin/contracts/access/AccessControl.sol\":7064:7074  _msgSender */\n      tag_71\n        /* \"@openzeppelin/contracts/access/AccessControl.sol\":7064:7076  _msgSender() */\n      jump\t// in\n    tag_118:\n        /* \"@openzeppelin/contracts/access/AccessControl.sol\":7037:7077  RoleGranted(role, account, _msgSender()) */\n      0xffffffffffffffffffffffffffffffffffffffff\n      and\n        /* \"@openzeppelin/contracts/access/AccessControl.sol\":7055:7062  account */\n      dup2\n        /* \"@openzeppelin/contracts/access/AccessControl.sol\":7037:7077  RoleGranted(role, account, _msgSender()) */\n      0xffffffffffffffffffffffffffffffffffffffff\n      and\n        /* \"@openzeppelin/contracts/access/AccessControl.sol\":7049:7053  role */\n      dup4\n        /* \"@openzeppelin/contracts/access/AccessControl.sol\":7037:7077  RoleGranted(role, account, _msgSender()) */\n      0x2f8788117e7eff1d82e926ec794901d17c78024a50270940304540a733656f0d\n      mload(0x40)\n      mload(0x40)\n      dup1\n      swap2\n      sub\n      swap1\n      log4\n        /* \"@openzeppelin/contracts/access/AccessControl.sol\":6939:7088  if (!hasRole(role, account)) {... */\n    tag_117:\n        /* \"@openzeppelin/contracts/access/AccessControl.sol\":6861:7094  function _grantRole(bytes32 role, address account) internal virtual {... */\n      pop\n      pop\n      jump\t// out\n        /* \"@openzeppelin/contracts/access/AccessControl.sol\":7219:7453  function _revokeRole(bytes32 role, address account) internal virtual {... */\n    tag_82:\n        /* \"@openzeppelin/contracts/access/AccessControl.sol\":7302:7324  hasRole(role, account) */\n      tag_120\n        /* \"@openzeppelin/contracts/access/AccessControl.sol\":7310:7314  role */\n      dup3\n        /* \"@openzeppelin/contracts/access/AccessControl.sol\":7316:7323  account */\n      dup3\n        /* \"@openzeppelin/contracts/access/AccessControl.sol\":7302:7309  hasRole */\n      tag_40\n        /* \"@openzeppelin/contracts/access/AccessControl.sol\":7302:7324  hasRole(role, account) */\n      jump\t// in\n    tag_120:\n        /* \"@openzeppelin/contracts/access/AccessControl.sol\":7298:7447  if (hasRole(role, account)) {... */\n      iszero\n      tag_121\n      jumpi\n        /* \"@openzeppelin/contracts/access/AccessControl.sol\":7372:7377  false */\n      0x00\n        /* \"@openzeppelin/contracts/access/AccessControl.sol\":7340:7346  _roles */\n      dup1\n        /* \"@openzeppelin/contracts/access/AccessControl.sol\":7340:7352  _roles[role] */\n      0x00\n        /* \"@openzeppelin/contracts/access/AccessControl.sol\":7347:7351  role */\n      dup5\n        /* \"@openzeppelin/contracts/access/AccessControl.sol\":7340:7352  _roles[role] */\n      dup2\n      mstore\n      0x20\n      add\n      swap1\n      dup2\n      mstore\n      0x20\n      add\n      0x00\n      keccak256\n        /* \"@openzeppelin/contracts/access/AccessControl.sol\":7340:7360  _roles[role].members */\n      0x00\n      add\n        /* \"@openzeppelin/contracts/access/AccessControl.sol\":7340:7369  _roles[role].members[account] */\n      0x00\n        /* \"@openzeppelin/contracts/access/AccessControl.sol\":7361:7368  account */\n      dup4\n        /* \"@openzeppelin/contracts/access/AccessControl.sol\":7340:7369  _roles[role].members[account] */\n      0xffffffffffffffffffffffffffffffffffffffff\n      and\n      0xffffffffffffffffffffffffffffffffffffffff\n      and\n      dup2\n      mstore\n      0x20\n      add\n      swap1\n      dup2\n      mstore\n      0x20\n      add\n      0x00\n      keccak256\n      0x00\n        /* \"@openzeppelin/contracts/access/AccessControl.sol\":7340:7377  _roles[role].members[account] = false */\n      0x0100\n      exp\n      dup2\n      sload\n      dup2\n      0xff\n      mul\n      not\n      and\n      swap1\n      dup4\n      iszero\n      iszero\n      mul\n      or\n      swap1\n      sstore\n      pop\n        /* \"@openzeppelin/contracts/access/AccessControl.sol\":7423:7435  _msgSender() */\n      tag_122\n        /* \"@openzeppelin/contracts/access/AccessControl.sol\":7423:7433  _msgSender */\n      tag_71\n        /* \"@openzeppelin/contracts/access/AccessControl.sol\":7423:7435  _msgSender() */\n      jump\t// in\n    tag_122:\n        /* \"@openzeppelin/contracts/access/AccessControl.sol\":7396:7436  RoleRevoked(role, account, _msgSender()) */\n      0xffffffffffffffffffffffffffffffffffffffff\n      and\n        /* \"@openzeppelin/contracts/access/AccessControl.sol\":7414:7421  account */\n      dup2\n        /* \"@openzeppelin/contracts/access/AccessControl.sol\":7396:7436  RoleRevoked(role, account, _msgSender()) */\n      0xffffffffffffffffffffffffffffffffffffffff\n      and\n        /* \"@openzeppelin/contracts/access/AccessControl.sol\":7408:7412  role */\n      dup4\n        /* \"@openzeppelin/contracts/access/AccessControl.sol\":7396:7436  RoleRevoked(role, account, _msgSender()) */\n      0xf6391f5c32d9c69d2a47ea670b442974b53935d1edc7fd64eb21e047a839171b\n      mload(0x40)\n      mload(0x40)\n      dup1\n      swap2\n      sub\n      swap1\n      log4\n        /* \"@openzeppelin/contracts/access/AccessControl.sol\":7298:7447  if (hasRole(role, account)) {... */\n    tag_121:\n        /* \"@openzeppelin/contracts/access/AccessControl.sol\":7219:7453  function _revokeRole(bytes32 role, address account) internal virtual {... */\n      pop\n      pop\n      jump\t// out\n        /* \"@openzeppelin/contracts/utils/Strings.sol\":1588:2029  function toHexString(uint256 value, uint256 length) internal pure returns (string memory) {... */\n    tag_110:\n        /* \"@openzeppelin/contracts/utils/Strings.sol\":1663:1676  string memory */\n      0x60\n        /* \"@openzeppelin/contracts/utils/Strings.sol\":1688:1707  bytes memory buffer */\n      0x00\n        /* \"@openzeppelin/contracts/utils/Strings.sol\":1733:1734  2 */\n      0x02\n        /* \"@openzeppelin/contracts/utils/Strings.sol\":1724:1730  length */\n      dup4\n        /* \"@openzeppelin/contracts/utils/Strings.sol\":1720:1721  2 */\n      0x02\n        /* \"@openzeppelin/contracts/utils/Strings.sol\":1720:1730  2 * length */\n      tag_124\n      swap2\n      swap1\n      tag_125\n      jump\t// in\n    tag_124:\n        /* \"@openzeppelin/contracts/utils/Strings.sol\":1720:1734  2 * length + 2 */\n      tag_126\n      swap2\n      swap1\n      tag_127\n      jump\t// in\n    tag_126:\n        /* \"@openzeppelin/contracts/utils/Strings.sol\":1710:1735  new bytes(2 * length + 2) */\n      0xffffffffffffffff\n      dup2\n      gt\n      iszero\n      tag_128\n      jumpi\n      tag_129\n      tag_130\n      jump\t// in\n    tag_129:\n    tag_128:\n      mload(0x40)\n      swap1\n      dup1\n      dup3\n      mstore\n      dup1\n      0x1f\n      add\n      not(0x1f)\n      and\n      0x20\n      add\n      dup3\n      add\n      0x40\n      mstore\n      dup1\n      iszero\n      tag_131\n      jumpi\n      dup2\n      0x20\n      add\n      0x01\n      dup3\n      mul\n      dup1\n      calldatasize\n      dup4\n      calldatacopy\n      dup1\n      dup3\n      add\n      swap2\n      pop\n      pop\n      swap1\n      pop\n    tag_131:\n      pop\n        /* \"@openzeppelin/contracts/utils/Strings.sol\":1688:1735  bytes memory buffer = new bytes(2 * length + 2) */\n      swap1\n      pop\n        /* \"@openzeppelin/contracts/utils/Strings.sol\":1745:1760  buffer[0] = \"0\" */\n      0x3000000000000000000000000000000000000000000000000000000000000000\n        /* \"@openzeppelin/contracts/utils/Strings.sol\":1745:1751  buffer */\n      dup2\n        /* \"@openzeppelin/contracts/utils/Strings.sol\":1752:1753  0 */\n      0x00\n        /* \"@openzeppelin/contracts/utils/Strings.sol\":1745:1754  buffer[0] */\n      dup2\n      mload\n      dup2\n      lt\n      tag_132\n      jumpi\n      tag_133\n      tag_134\n      jump\t// in\n    tag_133:\n    tag_132:\n      0x20\n      add\n      add\n        /* \"@openzeppelin/contracts/utils/Strings.sol\":1745:1760  buffer[0] = \"0\" */\n      swap1\n      not(0xffffffffffffffffffffffffffffffffffffffffffffffffffffffffffffff)\n      and\n      swap1\n      dup2\n      0x00\n      byte\n      swap1\n      mstore8\n      pop\n        /* \"@openzeppelin/contracts/utils/Strings.sol\":1770:1785  buffer[1] = \"x\" */\n      0x7800000000000000000000000000000000000000000000000000000000000000\n        /* \"@openzeppelin/contracts/utils/Strings.sol\":1770:1776  buffer */\n      dup2\n        /* \"@openzeppelin/contracts/utils/Strings.sol\":1777:1778  1 */\n      0x01\n        /* \"@openzeppelin/contracts/utils/Strings.sol\":1770:1779  buffer[1] */\n      dup2\n      mload\n      dup2\n      lt\n      tag_135\n      jumpi\n      tag_136\n      tag_134\n      jump\t// in\n    tag_136:\n    tag_135:\n      0x20\n      add\n      add\n        /* \"@openzeppelin/contracts/utils/Strings.sol\":1770:1785  buffer[1] = \"x\" */\n      swap1\n      not(0xffffffffffffffffffffffffffffffffffffffffffffffffffffffffffffff)\n      and\n      swap1\n      dup2\n      0x00\n      byte\n      swap1\n      mstore8\n      pop\n        /* \"@openzeppelin/contracts/utils/Strings.sol\":1800:1809  uint256 i */\n      0x00\n        /* \"@openzeppelin/contracts/utils/Strings.sol\":1825:1826  1 */\n      0x01\n        /* \"@openzeppelin/contracts/utils/Strings.sol\":1816:1822  length */\n      dup5\n        /* \"@openzeppelin/contracts/utils/Strings.sol\":1812:1813  2 */\n      0x02\n        /* \"@openzeppelin/contracts/utils/Strings.sol\":1812:1822  2 * length */\n      tag_140\n      swap2\n      swap1\n      tag_125\n      jump\t// in\n    tag_140:\n        /* \"@openzeppelin/contracts/utils/Strings.sol\":1812:1826  2 * length + 1 */\n      tag_141\n      swap2\n      swap1\n      tag_127\n      jump\t// in\n    tag_141:\n        /* \"@openzeppelin/contracts/utils/Strings.sol\":1800:1826  uint256 i = 2 * length + 1 */\n      swap1\n      pop\n        /* \"@openzeppelin/contracts/utils/Strings.sol\":1795:1927  for (uint256 i = 2 * length + 1; i > 1; --i) {... */\n    tag_137:\n        /* \"@openzeppelin/contracts/utils/Strings.sol\":1832:1833  1 */\n      0x01\n        /* \"@openzeppelin/contracts/utils/Strings.sol\":1828:1829  i */\n      dup2\n        /* \"@openzeppelin/contracts/utils/Strings.sol\":1828:1833  i > 1 */\n      gt\n        /* \"@openzeppelin/contracts/utils/Strings.sol\":1795:1927  for (uint256 i = 2 * length + 1; i > 1; --i) {... */\n      iszero\n      tag_138\n      jumpi\n        /* \"@openzeppelin/contracts/utils/Strings.sol\":1866:1878  _HEX_SYMBOLS */\n      0x3031323334353637383961626364656600000000000000000000000000000000\n        /* \"@openzeppelin/contracts/utils/Strings.sol\":1887:1890  0xf */\n      0x0f\n        /* \"@openzeppelin/contracts/utils/Strings.sol\":1879:1884  value */\n      dup7\n        /* \"@openzeppelin/contracts/utils/Strings.sol\":1879:1890  value & 0xf */\n      and\n        /* \"@openzeppelin/contracts/utils/Strings.sol\":1866:1891  _HEX_SYMBOLS[value & 0xf] */\n      0x10\n      dup2\n      lt\n      tag_142\n      jumpi\n      tag_143\n      tag_134\n      jump\t// in\n    tag_143:\n    tag_142:\n      byte\n      0xf8\n      shl\n        /* \"@openzeppelin/contracts/utils/Strings.sol\":1854:1860  buffer */\n      dup3\n        /* \"@openzeppelin/contracts/utils/Strings.sol\":1861:1862  i */\n      dup3\n        /* \"@openzeppelin/contracts/utils/Strings.sol\":1854:1863  buffer[i] */\n      dup2\n      mload\n      dup2\n      lt\n      tag_144\n      jumpi\n      tag_145\n      tag_134\n      jump\t// in\n    tag_145:\n    tag_144:\n      0x20\n      add\n      add\n        /* \"@openzeppelin/contracts/utils/Strings.sol\":1854:1891  buffer[i] = _HEX_SYMBOLS[value & 0xf] */\n      swap1\n      not(0xffffffffffffffffffffffffffffffffffffffffffffffffffffffffffffff)\n      and\n      swap1\n      dup2\n      0x00\n      byte\n      swap1\n      mstore8\n      pop\n        /* \"@openzeppelin/contracts/utils/Strings.sol\":1915:1916  4 */\n      0x04\n        /* \"@openzeppelin/contracts/utils/Strings.sol\":1905:1916  value >>= 4 */\n      dup6\n      swap1\n      shr\n      swap5\n      pop\n        /* \"@openzeppelin/contracts/utils/Strings.sol\":1835:1838  --i */\n      dup1\n      tag_146\n      swap1\n      tag_147\n      jump\t// in\n    tag_146:\n      swap1\n      pop\n        /* \"@openzeppelin/contracts/utils/Strings.sol\":1795:1927  for (uint256 i = 2 * length + 1; i > 1; --i) {... */\n      jump(tag_137)\n    tag_138:\n      pop\n        /* \"@openzeppelin/contracts/utils/Strings.sol\":1953:1954  0 */\n      0x00\n        /* \"@openzeppelin/contracts/utils/Strings.sol\":1944:1949  value */\n      dup5\n        /* \"@openzeppelin/contracts/utils/Strings.sol\":1944:1954  value == 0 */\n      eq\n        /* \"@openzeppelin/contracts/utils/Strings.sol\":1936:1991  require(value == 0, \"Strings: hex length insufficient\") */\n      tag_148\n      jumpi\n      mload(0x40)\n      0x08c379a000000000000000000000000000000000000000000000000000000000\n      dup2\n      mstore\n      0x04\n      add\n      tag_149\n      swap1\n      tag_150\n      jump\t// in\n    tag_149:\n      mload(0x40)\n      dup1\n      swap2\n      sub\n      swap1\n      revert\n    tag_148:\n        /* \"@openzeppelin/contracts/utils/Strings.sol\":2015:2021  buffer */\n      dup1\n        /* \"@openzeppelin/contracts/utils/Strings.sol\":2001:2022  return string(buffer) */\n      swap2\n      pop\n      pop\n        /* \"@openzeppelin/contracts/utils/Strings.sol\":1588:2029  function toHexString(uint256 value, uint256 length) internal pure returns (string memory) {... */\n      swap3\n      swap2\n      pop\n      pop\n      jump\t// out\n        /* \"#utility.yul\":88:205   */\n    tag_152:\n        /* \"#utility.yul\":197:198   */\n      0x00\n        /* \"#utility.yul\":194:195   */\n      dup1\n        /* \"#utility.yul\":187:199   */\n      revert\n        /* \"#utility.yul\":334:483   */\n    tag_154:\n        /* \"#utility.yul\":370:377   */\n      0x00\n        /* \"#utility.yul\":410:476   */\n      0xffffffff00000000000000000000000000000000000000000000000000000000\n        /* \"#utility.yul\":403:408   */\n      dup3\n        /* \"#utility.yul\":399:477   */\n      and\n        /* \"#utility.yul\":388:477   */\n      swap1\n      pop\n        /* \"#utility.yul\":334:483   */\n      swap2\n      swap1\n      pop\n      jump\t// out\n        /* \"#utility.yul\":489:609   */\n    tag_155:\n        /* \"#utility.yul\":561:584   */\n      tag_196\n        /* \"#utility.yul\":578:583   */\n      dup2\n        /* \"#utility.yul\":561:584   */\n      tag_154\n      jump\t// in\n    tag_196:\n        /* \"#utility.yul\":554:559   */\n      dup2\n        /* \"#utility.yul\":551:585   */\n      eq\n        /* \"#utility.yul\":541:603   */\n      tag_197\n      jumpi\n        /* \"#utility.yul\":599:600   */\n      0x00\n        /* \"#utility.yul\":596:597   */\n      dup1\n        /* \"#utility.yul\":589:601   */\n      revert\n        /* \"#utility.yul\":541:603   */\n    tag_197:\n        /* \"#utility.yul\":489:609   */\n      pop\n      jump\t// out\n        /* \"#utility.yul\":615:752   */\n    tag_156:\n        /* \"#utility.yul\":660:665   */\n      0x00\n        /* \"#utility.yul\":698:704   */\n      dup2\n        /* \"#utility.yul\":685:705   */\n      calldataload\n        /* \"#utility.yul\":676:705   */\n      swap1\n      pop\n        /* \"#utility.yul\":714:746   */\n      tag_199\n        /* \"#utility.yul\":740:745   */\n      dup2\n        /* \"#utility.yul\":714:746   */\n      tag_155\n      jump\t// in\n    tag_199:\n        /* \"#utility.yul\":615:752   */\n      swap3\n      swap2\n      pop\n      pop\n      jump\t// out\n        /* \"#utility.yul\":758:1085   */\n    tag_17:\n        /* \"#utility.yul\":816:822   */\n      0x00\n        /* \"#utility.yul\":865:867   */\n      0x20\n        /* \"#utility.yul\":853:862   */\n      dup3\n        /* \"#utility.yul\":844:851   */\n      dup5\n        /* \"#utility.yul\":840:863   */\n      sub\n        /* \"#utility.yul\":836:868   */\n      slt\n        /* \"#utility.yul\":833:952   */\n      iszero\n      tag_201\n      jumpi\n        /* \"#utility.yul\":871:950   */\n      tag_202\n      tag_152\n      jump\t// in\n    tag_202:\n        /* \"#utility.yul\":833:952   */\n    tag_201:\n        /* \"#utility.yul\":991:992   */\n      0x00\n        /* \"#utility.yul\":1016:1068   */\n      tag_203\n        /* \"#utility.yul\":1060:1067   */\n      dup5\n        /* \"#utility.yul\":1051:1057   */\n      dup3\n        /* \"#utility.yul\":1040:1049   */\n      dup6\n        /* \"#utility.yul\":1036:1058   */\n      add\n        /* \"#utility.yul\":1016:1068   */\n      tag_156\n      jump\t// in\n    tag_203:\n        /* \"#utility.yul\":1006:1068   */\n      swap2\n      pop\n        /* \"#utility.yul\":962:1078   */\n      pop\n        /* \"#utility.yul\":758:1085   */\n      swap3\n      swap2\n      pop\n      pop\n      jump\t// out\n        /* \"#utility.yul\":1091:1181   */\n    tag_157:\n        /* \"#utility.yul\":1125:1132   */\n      0x00\n        /* \"#utility.yul\":1168:1173   */\n      dup2\n        /* \"#utility.yul\":1161:1174   */\n      iszero\n        /* \"#utility.yul\":1154:1175   */\n      iszero\n        /* \"#utility.yul\":1143:1175   */\n      swap1\n      pop\n        /* \"#utility.yul\":1091:1181   */\n      swap2\n      swap1\n      pop\n      jump\t// out\n        /* \"#utility.yul\":1187:1296   */\n    tag_158:\n        /* \"#utility.yul\":1268:1289   */\n      tag_206\n        /* \"#utility.yul\":1283:1288   */\n      dup2\n        /* \"#utility.yul\":1268:1289   */\n      tag_157\n      jump\t// in\n    tag_206:\n        /* \"#utility.yul\":1263:1266   */\n      dup3\n        /* \"#utility.yul\":1256:1290   */\n      mstore\n        /* \"#utility.yul\":1187:1296   */\n      pop\n      pop\n      jump\t// out\n        /* \"#utility.yul\":1302:1512   */\n    tag_20:\n        /* \"#utility.yul\":1389:1393   */\n      0x00\n        /* \"#utility.yul\":1427:1429   */\n      0x20\n        /* \"#utility.yul\":1416:1425   */\n      dup3\n        /* \"#utility.yul\":1412:1430   */\n      add\n        /* \"#utility.yul\":1404:1430   */\n      swap1\n      pop\n        /* \"#utility.yul\":1440:1505   */\n      tag_208\n        /* \"#utility.yul\":1502:1503   */\n      0x00\n        /* \"#utility.yul\":1491:1500   */\n      dup4\n        /* \"#utility.yul\":1487:1504   */\n      add\n        /* \"#utility.yul\":1478:1484   */\n      dup5\n        /* \"#utility.yul\":1440:1505   */\n      tag_158\n      jump\t// in\n    tag_208:\n        /* \"#utility.yul\":1302:1512   */\n      swap3\n      swap2\n      pop\n      pop\n      jump\t// out\n        /* \"#utility.yul\":1518:1617   */\n    tag_159:\n        /* \"#utility.yul\":1570:1576   */\n      0x00\n        /* \"#utility.yul\":1604:1609   */\n      dup2\n        /* \"#utility.yul\":1598:1610   */\n      mload\n        /* \"#utility.yul\":1588:1610   */\n      swap1\n      pop\n        /* \"#utility.yul\":1518:1617   */\n      swap2\n      swap1\n      pop\n      jump\t// out\n        /* \"#utility.yul\":1623:1792   */\n    tag_160:\n        /* \"#utility.yul\":1707:1718   */\n      0x00\n        /* \"#utility.yul\":1741:1747   */\n      dup3\n        /* \"#utility.yul\":1736:1739   */\n      dup3\n        /* \"#utility.yul\":1729:1748   */\n      mstore\n        /* \"#utility.yul\":1781:1785   */\n      0x20\n        /* \"#utility.yul\":1776:1779   */\n      dup3\n        /* \"#utility.yul\":1772:1786   */\n      add\n        /* \"#utility.yul\":1757:1786   */\n      swap1\n      pop\n        /* \"#utility.yul\":1623:1792   */\n      swap3\n      swap2\n      pop\n      pop\n      jump\t// out\n        /* \"#utility.yul\":1798:2105   */\n    tag_161:\n        /* \"#utility.yul\":1866:1867   */\n      0x00\n        /* \"#utility.yul\":1876:1989   */\n    tag_212:\n        /* \"#utility.yul\":1890:1896   */\n      dup4\n        /* \"#utility.yul\":1887:1888   */\n      dup2\n        /* \"#utility.yul\":1884:1897   */\n      lt\n        /* \"#utility.yul\":1876:1989   */\n      iszero\n      tag_214\n      jumpi\n        /* \"#utility.yul\":1975:1976   */\n      dup1\n        /* \"#utility.yul\":1970:1973   */\n      dup3\n        /* \"#utility.yul\":1966:1977   */\n      add\n        /* \"#utility.yul\":1960:1978   */\n      mload\n        /* \"#utility.yul\":1956:1957   */\n      dup2\n        /* \"#utility.yul\":1951:1954   */\n      dup5\n        /* \"#utility.yul\":1947:1958   */\n      add\n        /* \"#utility.yul\":1940:1979   */\n      mstore\n        /* \"#utility.yul\":1912:1914   */\n      0x20\n        /* \"#utility.yul\":1909:1910   */\n      dup2\n        /* \"#utility.yul\":1905:1915   */\n      add\n        /* \"#utility.yul\":1900:1915   */\n      swap1\n      pop\n        /* \"#utility.yul\":1876:1989   */\n      jump(tag_212)\n    tag_214:\n        /* \"#utility.yul\":2007:2013   */\n      dup4\n        /* \"#utility.yul\":2004:2005   */\n      dup2\n        /* \"#utility.yul\":2001:2014   */\n      gt\n        /* \"#utility.yul\":1998:2099   */\n      iszero\n      tag_215\n      jumpi\n        /* \"#utility.yul\":2087:2088   */\n      0x00\n        /* \"#utility.yul\":2078:2084   */\n      dup5\n        /* \"#utility.yul\":2073:2076   */\n      dup5\n        /* \"#utility.yul\":2069:2085   */\n      add\n        /* \"#utility.yul\":2062:2089   */\n      mstore\n        /* \"#utility.yul\":1998:2099   */\n    tag_215:\n        /* \"#utility.yul\":1847:2105   */\n      pop\n        /* \"#utility.yul\":1798:2105   */\n      pop\n      pop\n      pop\n      jump\t// out\n        /* \"#utility.yul\":2111:2213   */\n    tag_162:\n        /* \"#utility.yul\":2152:2158   */\n      0x00\n        /* \"#utility.yul\":2203:2205   */\n      0x1f\n        /* \"#utility.yul\":2199:2206   */\n      not\n        /* \"#utility.yul\":2194:2196   */\n      0x1f\n        /* \"#utility.yul\":2187:2192   */\n      dup4\n        /* \"#utility.yul\":2183:2197   */\n      add\n        /* \"#utility.yul\":2179:2207   */\n      and\n        /* \"#utility.yul\":2169:2207   */\n      swap1\n      pop\n        /* \"#utility.yul\":2111:2213   */\n      swap2\n      swap1\n      pop\n      jump\t// out\n        /* \"#utility.yul\":2219:2583   */\n    tag_163:\n        /* \"#utility.yul\":2307:2310   */\n      0x00\n        /* \"#utility.yul\":2335:2374   */\n      tag_218\n        /* \"#utility.yul\":2368:2373   */\n      dup3\n        /* \"#utility.yul\":2335:2374   */\n      tag_159\n      jump\t// in\n    tag_218:\n        /* \"#utility.yul\":2390:2461   */\n      tag_219\n        /* \"#utility.yul\":2454:2460   */\n      dup2\n        /* \"#utility.yul\":2449:2452   */\n      dup6\n        /* \"#utility.yul\":2390:2461   */\n      tag_160\n      jump\t// in\n    tag_219:\n        /* \"#utility.yul\":2383:2461   */\n      swap4\n      pop\n        /* \"#utility.yul\":2470:2522   */\n      tag_220\n        /* \"#utility.yul\":2515:2521   */\n      dup2\n        /* \"#utility.yul\":2510:2513   */\n      dup6\n        /* \"#utility.yul\":2503:2507   */\n      0x20\n        /* \"#utility.yul\":2496:2501   */\n      dup7\n        /* \"#utility.yul\":2492:2508   */\n      add\n        /* \"#utility.yul\":2470:2522   */\n      tag_161\n      jump\t// in\n    tag_220:\n        /* \"#utility.yul\":2547:2576   */\n      tag_221\n        /* \"#utility.yul\":2569:2575   */\n      dup2\n        /* \"#utility.yul\":2547:2576   */\n      tag_162\n      jump\t// in\n    tag_221:\n        /* \"#utility.yul\":2542:2545   */\n      dup5\n        /* \"#utility.yul\":2538:2577   */\n      add\n        /* \"#utility.yul\":2531:2577   */\n      swap2\n      pop\n        /* \"#utility.yul\":2311:2583   */\n      pop\n        /* \"#utility.yul\":2219:2583   */\n      swap3\n      swap2\n      pop\n      pop\n      jump\t// out\n        /* \"#utility.yul\":2589:2902   */\n    tag_24:\n        /* \"#utility.yul\":2702:2706   */\n      0x00\n        /* \"#utility.yul\":2740:2742   */\n      0x20\n        /* \"#utility.yul\":2729:2738   */\n      dup3\n        /* \"#utility.yul\":2725:2743   */\n      add\n        /* \"#utility.yul\":2717:2743   */\n      swap1\n      pop\n        /* \"#utility.yul\":2789:2798   */\n      dup2\n        /* \"#utility.yul\":2783:2787   */\n      dup2\n        /* \"#utility.yul\":2779:2799   */\n      sub\n        /* \"#utility.yul\":2775:2776   */\n      0x00\n        /* \"#utility.yul\":2764:2773   */\n      dup4\n        /* \"#utility.yul\":2760:2777   */\n      add\n        /* \"#utility.yul\":2753:2800   */\n      mstore\n        /* \"#utility.yul\":2817:2895   */\n      tag_223\n        /* \"#utility.yul\":2890:2894   */\n      dup2\n        /* \"#utility.yul\":2881:2887   */\n      dup5\n        /* \"#utility.yul\":2817:2895   */\n      tag_163\n      jump\t// in\n    tag_223:\n        /* \"#utility.yul\":2809:2895   */\n      swap1\n      pop\n        /* \"#utility.yul\":2589:2902   */\n      swap3\n      swap2\n      pop\n      pop\n      jump\t// out\n        /* \"#utility.yul\":2908:2985   */\n    tag_164:\n        /* \"#utility.yul\":2945:2952   */\n      0x00\n        /* \"#utility.yul\":2974:2979   */\n      dup2\n        /* \"#utility.yul\":2963:2979   */\n      swap1\n      pop\n        /* \"#utility.yul\":2908:2985   */\n      swap2\n      swap1\n      pop\n      jump\t// out\n        /* \"#utility.yul\":2991:3113   */\n    tag_165:\n        /* \"#utility.yul\":3064:3088   */\n      tag_226\n        /* \"#utility.yul\":3082:3087   */\n      dup2\n        /* \"#utility.yul\":3064:3088   */\n      tag_164\n      jump\t// in\n    tag_226:\n        /* \"#utility.yul\":3057:3062   */\n      dup2\n        /* \"#utility.yul\":3054:3089   */\n      eq\n        /* \"#utility.yul\":3044:3107   */\n      tag_227\n      jumpi\n        /* \"#utility.yul\":3103:3104   */\n      0x00\n        /* \"#utility.yul\":3100:3101   */\n      dup1\n        /* \"#utility.yul\":3093:3105   */\n      revert\n        /* \"#utility.yul\":3044:3107   */\n    tag_227:\n        /* \"#utility.yul\":2991:3113   */\n      pop\n      jump\t// out\n        /* \"#utility.yul\":3119:3258   */\n    tag_166:\n        /* \"#utility.yul\":3165:3170   */\n      0x00\n        /* \"#utility.yul\":3203:3209   */\n      dup2\n        /* \"#utility.yul\":3190:3210   */\n      calldataload\n        /* \"#utility.yul\":3181:3210   */\n      swap1\n      pop\n        /* \"#utility.yul\":3219:3252   */\n      tag_229\n        /* \"#utility.yul\":3246:3251   */\n      dup2\n        /* \"#utility.yul\":3219:3252   */\n      tag_165\n      jump\t// in\n    tag_229:\n        /* \"#utility.yul\":3119:3258   */\n      swap3\n      swap2\n      pop\n      pop\n      jump\t// out\n        /* \"#utility.yul\":3264:3593   */\n    tag_27:\n        /* \"#utility.yul\":3323:3329   */\n      0x00\n        /* \"#utility.yul\":3372:3374   */\n      0x20\n        /* \"#utility.yul\":3360:3369   */\n      dup3\n        /* \"#utility.yul\":3351:3358   */\n      dup5\n        /* \"#utility.yul\":3347:3370   */\n      sub\n        /* \"#utility.yul\":3343:3375   */\n      slt\n        /* \"#utility.yul\":3340:3459   */\n      iszero\n      tag_231\n      jumpi\n        /* \"#utility.yul\":3378:3457   */\n      tag_232\n      tag_152\n      jump\t// in\n    tag_232:\n        /* \"#utility.yul\":3340:3459   */\n    tag_231:\n        /* \"#utility.yul\":3498:3499   */\n      0x00\n        /* \"#utility.yul\":3523:3576   */\n      tag_233\n        /* \"#utility.yul\":3568:3575   */\n      dup5\n        /* \"#utility.yul\":3559:3565   */\n      dup3\n        /* \"#utility.yul\":3548:3557   */\n      dup6\n        /* \"#utility.yul\":3544:3566   */\n      add\n        /* \"#utility.yul\":3523:3576   */\n      tag_166\n      jump\t// in\n    tag_233:\n        /* \"#utility.yul\":3513:3576   */\n      swap2\n      pop\n        /* \"#utility.yul\":3469:3586   */\n      pop\n        /* \"#utility.yul\":3264:3593   */\n      swap3\n      swap2\n      pop\n      pop\n      jump\t// out\n        /* \"#utility.yul\":3599:3717   */\n    tag_167:\n        /* \"#utility.yul\":3686:3710   */\n      tag_235\n        /* \"#utility.yul\":3704:3709   */\n      dup2\n        /* \"#utility.yul\":3686:3710   */\n      tag_164\n      jump\t// in\n    tag_235:\n        /* \"#utility.yul\":3681:3684   */\n      dup3\n        /* \"#utility.yul\":3674:3711   */\n      mstore\n        /* \"#utility.yul\":3599:3717   */\n      pop\n      pop\n      jump\t// out\n        /* \"#utility.yul\":3723:3945   */\n    tag_30:\n        /* \"#utility.yul\":3816:3820   */\n      0x00\n        /* \"#utility.yul\":3854:3856   */\n      0x20\n        /* \"#utility.yul\":3843:3852   */\n      dup3\n        /* \"#utility.yul\":3839:3857   */\n      add\n        /* \"#utility.yul\":3831:3857   */\n      swap1\n      pop\n        /* \"#utility.yul\":3867:3938   */\n      tag_237\n        /* \"#utility.yul\":3935:3936   */\n      0x00\n        /* \"#utility.yul\":3924:3933   */\n      dup4\n        /* \"#utility.yul\":3920:3937   */\n      add\n        /* \"#utility.yul\":3911:3917   */\n      dup5\n        /* \"#utility.yul\":3867:3938   */\n      tag_167\n      jump\t// in\n    tag_237:\n        /* \"#utility.yul\":3723:3945   */\n      swap3\n      swap2\n      pop\n      pop\n      jump\t// out\n        /* \"#utility.yul\":3951:4077   */\n    tag_168:\n        /* \"#utility.yul\":3988:3995   */\n      0x00\n        /* \"#utility.yul\":4028:4070   */\n      0xffffffffffffffffffffffffffffffffffffffff\n        /* \"#utility.yul\":4021:4026   */\n      dup3\n        /* \"#utility.yul\":4017:4071   */\n      and\n        /* \"#utility.yul\":4006:4071   */\n      swap1\n      pop\n        /* \"#utility.yul\":3951:4077   */\n      swap2\n      swap1\n      pop\n      jump\t// out\n        /* \"#utility.yul\":4083:4179   */\n    tag_169:\n        /* \"#utility.yul\":4120:4127   */\n      0x00\n        /* \"#utility.yul\":4149:4173   */\n      tag_240\n        /* \"#utility.yul\":4167:4172   */\n      dup3\n        /* \"#utility.yul\":4149:4173   */\n      tag_168\n      jump\t// in\n    tag_240:\n        /* \"#utility.yul\":4138:4173   */\n      swap1\n      pop\n        /* \"#utility.yul\":4083:4179   */\n      swap2\n      swap1\n      pop\n      jump\t// out\n        /* \"#utility.yul\":4185:4307   */\n    tag_170:\n        /* \"#utility.yul\":4258:4282   */\n      tag_242\n        /* \"#utility.yul\":4276:4281   */\n      dup2\n        /* \"#utility.yul\":4258:4282   */\n      tag_169\n      jump\t// in\n    tag_242:\n        /* \"#utility.yul\":4251:4256   */\n      dup2\n        /* \"#utility.yul\":4248:4283   */\n      eq\n        /* \"#utility.yul\":4238:4301   */\n      tag_243\n      jumpi\n        /* \"#utility.yul\":4297:4298   */\n      0x00\n        /* \"#utility.yul\":4294:4295   */\n      dup1\n        /* \"#utility.yul\":4287:4299   */\n      revert\n        /* \"#utility.yul\":4238:4301   */\n    tag_243:\n        /* \"#utility.yul\":4185:4307   */\n      pop\n      jump\t// out\n        /* \"#utility.yul\":4313:4452   */\n    tag_171:\n        /* \"#utility.yul\":4359:4364   */\n      0x00\n        /* \"#utility.yul\":4397:4403   */\n      dup2\n        /* \"#utility.yul\":4384:4404   */\n      calldataload\n        /* \"#utility.yul\":4375:4404   */\n      swap1\n      pop\n        /* \"#utility.yul\":4413:4446   */\n      tag_245\n        /* \"#utility.yul\":4440:4445   */\n      dup2\n        /* \"#utility.yul\":4413:4446   */\n      tag_170\n      jump\t// in\n    tag_245:\n        /* \"#utility.yul\":4313:4452   */\n      swap3\n      swap2\n      pop\n      pop\n      jump\t// out\n        /* \"#utility.yul\":4458:4932   */\n    tag_33:\n        /* \"#utility.yul\":4526:4532   */\n      0x00\n        /* \"#utility.yul\":4534:4540   */\n      dup1\n        /* \"#utility.yul\":4583:4585   */\n      0x40\n        /* \"#utility.yul\":4571:4580   */\n      dup4\n        /* \"#utility.yul\":4562:4569   */\n      dup6\n        /* \"#utility.yul\":4558:4581   */\n      sub\n        /* \"#utility.yul\":4554:4586   */\n      slt\n        /* \"#utility.yul\":4551:4670   */\n      iszero\n      tag_247\n      jumpi\n        /* \"#utility.yul\":4589:4668   */\n      tag_248\n      tag_152\n      jump\t// in\n    tag_248:\n        /* \"#utility.yul\":4551:4670   */\n    tag_247:\n        /* \"#utility.yul\":4709:4710   */\n      0x00\n        /* \"#utility.yul\":4734:4787   */\n      tag_249\n        /* \"#utility.yul\":4779:4786   */\n      dup6\n        /* \"#utility.yul\":4770:4776   */\n      dup3\n        /* \"#utility.yul\":4759:4768   */\n      dup7\n        /* \"#utility.yul\":4755:4777   */\n      add\n        /* \"#utility.yul\":4734:4787   */\n      tag_166\n      jump\t// in\n    tag_249:\n        /* \"#utility.yul\":4724:4787   */\n      swap3\n      pop\n        /* \"#utility.yul\":4680:4797   */\n      pop\n        /* \"#utility.yul\":4836:4838   */\n      0x20\n        /* \"#utility.yul\":4862:4915   */\n      tag_250\n        /* \"#utility.yul\":4907:4914   */\n      dup6\n        /* \"#utility.yul\":4898:4904   */\n      dup3\n        /* \"#utility.yul\":4887:4896   */\n      dup7\n        /* \"#utility.yul\":4883:4905   */\n      add\n        /* \"#utility.yul\":4862:4915   */\n      tag_171\n      jump\t// in\n    tag_250:\n        /* \"#utility.yul\":4852:4915   */\n      swap2\n      pop\n        /* \"#utility.yul\":4807:4925   */\n      pop\n        /* \"#utility.yul\":4458:4932   */\n      swap3\n      pop\n      swap3\n      swap1\n      pop\n      jump\t// out\n        /* \"#utility.yul\":4938:5054   */\n    tag_172:\n        /* \"#utility.yul\":5008:5029   */\n      tag_252\n        /* \"#utility.yul\":5023:5028   */\n      dup2\n        /* \"#utility.yul\":5008:5029   */\n      tag_157\n      jump\t// in\n    tag_252:\n        /* \"#utility.yul\":5001:5006   */\n      dup2\n        /* \"#utility.yul\":4998:5030   */\n      eq\n        /* \"#utility.yul\":4988:5048   */\n      tag_253\n      jumpi\n        /* \"#utility.yul\":5044:5045   */\n      0x00\n        /* \"#utility.yul\":5041:5042   */\n      dup1\n        /* \"#utility.yul\":5034:5046   */\n      revert\n        /* \"#utility.yul\":4988:5048   */\n    tag_253:\n        /* \"#utility.yul\":4938:5054   */\n      pop\n      jump\t// out\n        /* \"#utility.yul\":5060:5193   */\n    tag_173:\n        /* \"#utility.yul\":5103:5108   */\n      0x00\n        /* \"#utility.yul\":5141:5147   */\n      dup2\n        /* \"#utility.yul\":5128:5148   */\n      calldataload\n        /* \"#utility.yul\":5119:5148   */\n      swap1\n      pop\n        /* \"#utility.yul\":5157:5187   */\n      tag_255\n        /* \"#utility.yul\":5181:5186   */\n      dup2\n        /* \"#utility.yul\":5157:5187   */\n      tag_172\n      jump\t// in\n    tag_255:\n        /* \"#utility.yul\":5060:5193   */\n      swap3\n      swap2\n      pop\n      pop\n      jump\t// out\n        /* \"#utility.yul\":5199:5667   */\n    tag_47:\n        /* \"#utility.yul\":5264:5270   */\n      0x00\n        /* \"#utility.yul\":5272:5278   */\n      dup1\n        /* \"#utility.yul\":5321:5323   */\n      0x40\n        /* \"#utility.yul\":5309:5318   */\n      dup4\n        /* \"#utility.yul\":5300:5307   */\n      dup6\n        /* \"#utility.yul\":5296:5319   */\n      sub\n        /* \"#utility.yul\":5292:5324   */\n      slt\n        /* \"#utility.yul\":5289:5408   */\n      iszero\n      tag_257\n      jumpi\n        /* \"#utility.yul\":5327:5406   */\n      tag_258\n      tag_152\n      jump\t// in\n    tag_258:\n        /* \"#utility.yul\":5289:5408   */\n    tag_257:\n        /* \"#utility.yul\":5447:5448   */\n      0x00\n        /* \"#utility.yul\":5472:5525   */\n      tag_259\n        /* \"#utility.yul\":5517:5524   */\n      dup6\n        /* \"#utility.yul\":5508:5514   */\n      dup3\n        /* \"#utility.yul\":5497:5506   */\n      dup7\n        /* \"#utility.yul\":5493:5515   */\n      add\n        /* \"#utility.yul\":5472:5525   */\n      tag_171\n      jump\t// in\n    tag_259:\n        /* \"#utility.yul\":5462:5525   */\n      swap3\n      pop\n        /* \"#utility.yul\":5418:5535   */\n      pop\n        /* \"#utility.yul\":5574:5576   */\n      0x20\n        /* \"#utility.yul\":5600:5650   */\n      tag_260\n        /* \"#utility.yul\":5642:5649   */\n      dup6\n        /* \"#utility.yul\":5633:5639   */\n      dup3\n        /* \"#utility.yul\":5622:5631   */\n      dup7\n        /* \"#utility.yul\":5618:5640   */\n      add\n        /* \"#utility.yul\":5600:5650   */\n      tag_173\n      jump\t// in\n    tag_260:\n        /* \"#utility.yul\":5590:5650   */\n      swap2\n      pop\n        /* \"#utility.yul\":5545:5660   */\n      pop\n        /* \"#utility.yul\":5199:5667   */\n      swap3\n      pop\n      swap3\n      swap1\n      pop\n      jump\t// out\n        /* \"#utility.yul\":5673:6002   */\n    tag_57:\n        /* \"#utility.yul\":5732:5738   */\n      0x00\n        /* \"#utility.yul\":5781:5783   */\n      0x20\n        /* \"#utility.yul\":5769:5778   */\n      dup3\n        /* \"#utility.yul\":5760:5767   */\n      dup5\n        /* \"#utility.yul\":5756:5779   */\n      sub\n        /* \"#utility.yul\":5752:5784   */\n      slt\n        /* \"#utility.yul\":5749:5868   */\n      iszero\n      tag_262\n      jumpi\n        /* \"#utility.yul\":5787:5866   */\n      tag_263\n      tag_152\n      jump\t// in\n    tag_263:\n        /* \"#utility.yul\":5749:5868   */\n    tag_262:\n        /* \"#utility.yul\":5907:5908   */\n      0x00\n        /* \"#utility.yul\":5932:5985   */\n      tag_264\n        /* \"#utility.yul\":5977:5984   */\n      dup5\n        /* \"#utility.yul\":5968:5974   */\n      dup3\n        /* \"#utility.yul\":5957:5966   */\n      dup6\n        /* \"#utility.yul\":5953:5975   */\n      add\n        /* \"#utility.yul\":5932:5985   */\n      tag_171\n      jump\t// in\n    tag_264:\n        /* \"#utility.yul\":5922:5985   */\n      swap2\n      pop\n        /* \"#utility.yul\":5878:5995   */\n      pop\n        /* \"#utility.yul\":5673:6002   */\n      swap3\n      swap2\n      pop\n      pop\n      jump\t// out\n        /* \"#utility.yul\":6008:6188   */\n    tag_87:\n        /* \"#utility.yul\":6056:6133   */\n      0x4e487b7100000000000000000000000000000000000000000000000000000000\n        /* \"#utility.yul\":6053:6054   */\n      0x00\n        /* \"#utility.yul\":6046:6134   */\n      mstore\n        /* \"#utility.yul\":6153:6157   */\n      0x21\n        /* \"#utility.yul\":6150:6151   */\n      0x04\n        /* \"#utility.yul\":6143:6158   */\n      mstore\n        /* \"#utility.yul\":6177:6181   */\n      0x24\n        /* \"#utility.yul\":6174:6175   */\n      0x00\n        /* \"#utility.yul\":6167:6182   */\n      revert\n        /* \"#utility.yul\":6194:6313   */\n    tag_174:\n        /* \"#utility.yul\":6281:6282   */\n      0x04\n        /* \"#utility.yul\":6274:6279   */\n      dup2\n        /* \"#utility.yul\":6271:6283   */\n      lt\n        /* \"#utility.yul\":6261:6307   */\n      tag_267\n      jumpi\n        /* \"#utility.yul\":6287:6305   */\n      tag_268\n      tag_87\n      jump\t// in\n    tag_268:\n        /* \"#utility.yul\":6261:6307   */\n    tag_267:\n        /* \"#utility.yul\":6194:6313   */\n      pop\n      jump\t// out\n        /* \"#utility.yul\":6319:6458   */\n    tag_175:\n        /* \"#utility.yul\":6370:6377   */\n      0x00\n        /* \"#utility.yul\":6399:6404   */\n      dup2\n        /* \"#utility.yul\":6388:6404   */\n      swap1\n      pop\n        /* \"#utility.yul\":6405:6452   */\n      tag_270\n        /* \"#utility.yul\":6446:6451   */\n      dup3\n        /* \"#utility.yul\":6405:6452   */\n      tag_174\n      jump\t// in\n    tag_270:\n        /* \"#utility.yul\":6319:6458   */\n      swap2\n      swap1\n      pop\n      jump\t// out\n        /* \"#utility.yul\":6464:6603   */\n    tag_176:\n        /* \"#utility.yul\":6526:6535   */\n      0x00\n        /* \"#utility.yul\":6559:6597   */\n      tag_272\n        /* \"#utility.yul\":6591:6596   */\n      dup3\n        /* \"#utility.yul\":6559:6597   */\n      tag_175\n      jump\t// in\n    tag_272:\n        /* \"#utility.yul\":6546:6597   */\n      swap1\n      pop\n        /* \"#utility.yul\":6464:6603   */\n      swap2\n      swap1\n      pop\n      jump\t// out\n        /* \"#utility.yul\":6609:6764   */\n    tag_177:\n        /* \"#utility.yul\":6708:6757   */\n      tag_274\n        /* \"#utility.yul\":6751:6756   */\n      dup2\n        /* \"#utility.yul\":6708:6757   */\n      tag_176\n      jump\t// in\n    tag_274:\n        /* \"#utility.yul\":6703:6706   */\n      dup3\n        /* \"#utility.yul\":6696:6758   */\n      mstore\n        /* \"#utility.yul\":6609:6764   */\n      pop\n      pop\n      jump\t// out\n        /* \"#utility.yul\":6770:7016   */\n    tag_60:\n        /* \"#utility.yul\":6875:6879   */\n      0x00\n        /* \"#utility.yul\":6913:6915   */\n      0x20\n        /* \"#utility.yul\":6902:6911   */\n      dup3\n        /* \"#utility.yul\":6898:6916   */\n      add\n        /* \"#utility.yul\":6890:6916   */\n      swap1\n      pop\n        /* \"#utility.yul\":6926:7009   */\n      tag_276\n        /* \"#utility.yul\":7006:7007   */\n      0x00\n        /* \"#utility.yul\":6995:7004   */\n      dup4\n        /* \"#utility.yul\":6991:7008   */\n      add\n        /* \"#utility.yul\":6982:6988   */\n      dup5\n        /* \"#utility.yul\":6926:7009   */\n      tag_177\n      jump\t// in\n    tag_276:\n        /* \"#utility.yul\":6770:7016   */\n      swap3\n      swap2\n      pop\n      pop\n      jump\t// out\n        /* \"#utility.yul\":7022:7256   */\n    tag_178:\n        /* \"#utility.yul\":7162:7196   */\n      0x416363657373436f6e74726f6c3a2063616e206f6e6c792072656e6f756e6365\n        /* \"#utility.yul\":7158:7159   */\n      0x00\n        /* \"#utility.yul\":7150:7156   */\n      dup3\n        /* \"#utility.yul\":7146:7160   */\n      add\n        /* \"#utility.yul\":7139:7197   */\n      mstore\n        /* \"#utility.yul\":7231:7248   */\n      0x20726f6c657320666f722073656c660000000000000000000000000000000000\n        /* \"#utility.yul\":7226:7228   */\n      0x20\n        /* \"#utility.yul\":7218:7224   */\n      dup3\n        /* \"#utility.yul\":7214:7229   */\n      add\n        /* \"#utility.yul\":7207:7249   */\n      mstore\n        /* \"#utility.yul\":7022:7256   */\n      pop\n      jump\t// out\n        /* \"#utility.yul\":7262:7628   */\n    tag_179:\n        /* \"#utility.yul\":7404:7407   */\n      0x00\n        /* \"#utility.yul\":7425:7492   */\n      tag_279\n        /* \"#utility.yul\":7489:7491   */\n      0x2f\n        /* \"#utility.yul\":7484:7487   */\n      dup4\n        /* \"#utility.yul\":7425:7492   */\n      tag_160\n      jump\t// in\n    tag_279:\n        /* \"#utility.yul\":7418:7492   */\n      swap2\n      pop\n        /* \"#utility.yul\":7501:7594   */\n      tag_280\n        /* \"#utility.yul\":7590:7593   */\n      dup3\n        /* \"#utility.yul\":7501:7594   */\n      tag_178\n      jump\t// in\n    tag_280:\n        /* \"#utility.yul\":7619:7621   */\n      0x40\n        /* \"#utility.yul\":7614:7617   */\n      dup3\n        /* \"#utility.yul\":7610:7622   */\n      add\n        /* \"#utility.yul\":7603:7622   */\n      swap1\n      pop\n        /* \"#utility.yul\":7262:7628   */\n      swap2\n      swap1\n      pop\n      jump\t// out\n        /* \"#utility.yul\":7634:8053   */\n    tag_80:\n        /* \"#utility.yul\":7800:7804   */\n      0x00\n        /* \"#utility.yul\":7838:7840   */\n      0x20\n        /* \"#utility.yul\":7827:7836   */\n      dup3\n        /* \"#utility.yul\":7823:7841   */\n      add\n        /* \"#utility.yul\":7815:7841   */\n      swap1\n      pop\n        /* \"#utility.yul\":7887:7896   */\n      dup2\n        /* \"#utility.yul\":7881:7885   */\n      dup2\n        /* \"#utility.yul\":7877:7897   */\n      sub\n        /* \"#utility.yul\":7873:7874   */\n      0x00\n        /* \"#utility.yul\":7862:7871   */\n      dup4\n        /* \"#utility.yul\":7858:7875   */\n      add\n        /* \"#utility.yul\":7851:7898   */\n      mstore\n        /* \"#utility.yul\":7915:8046   */\n      tag_282\n        /* \"#utility.yul\":8041:8045   */\n      dup2\n        /* \"#utility.yul\":7915:8046   */\n      tag_179\n      jump\t// in\n    tag_282:\n        /* \"#utility.yul\":7907:8046   */\n      swap1\n      pop\n        /* \"#utility.yul\":7634:8053   */\n      swap2\n      swap1\n      pop\n      jump\t// out\n        /* \"#utility.yul\":8059:8207   */\n    tag_180:\n        /* \"#utility.yul\":8161:8172   */\n      0x00\n        /* \"#utility.yul\":8198:8201   */\n      dup2\n        /* \"#utility.yul\":8183:8201   */\n      swap1\n      pop\n        /* \"#utility.yul\":8059:8207   */\n      swap3\n      swap2\n      pop\n      pop\n      jump\t// out\n        /* \"#utility.yul\":8213:8386   */\n    tag_181:\n        /* \"#utility.yul\":8353:8378   */\n      0x416363657373436f6e74726f6c3a206163636f756e7420000000000000000000\n        /* \"#utility.yul\":8349:8350   */\n      0x00\n        /* \"#utility.yul\":8341:8347   */\n      dup3\n        /* \"#utility.yul\":8337:8351   */\n      add\n        /* \"#utility.yul\":8330:8379   */\n      mstore\n        /* \"#utility.yul\":8213:8386   */\n      pop\n      jump\t// out\n        /* \"#utility.yul\":8392:8794   */\n    tag_182:\n        /* \"#utility.yul\":8552:8555   */\n      0x00\n        /* \"#utility.yul\":8573:8658   */\n      tag_286\n        /* \"#utility.yul\":8655:8657   */\n      0x17\n        /* \"#utility.yul\":8650:8653   */\n      dup4\n        /* \"#utility.yul\":8573:8658   */\n      tag_180\n      jump\t// in\n    tag_286:\n        /* \"#utility.yul\":8566:8658   */\n      swap2\n      pop\n        /* \"#utility.yul\":8667:8760   */\n      tag_287\n        /* \"#utility.yul\":8756:8759   */\n      dup3\n        /* \"#utility.yul\":8667:8760   */\n      tag_181\n      jump\t// in\n    tag_287:\n        /* \"#utility.yul\":8785:8787   */\n      0x17\n        /* \"#utility.yul\":8780:8783   */\n      dup3\n        /* \"#utility.yul\":8776:8788   */\n      add\n        /* \"#utility.yul\":8769:8788   */\n      swap1\n      pop\n        /* \"#utility.yul\":8392:8794   */\n      swap2\n      swap1\n      pop\n      jump\t// out\n        /* \"#utility.yul\":8800:9177   */\n    tag_183:\n        /* \"#utility.yul\":8906:8909   */\n      0x00\n        /* \"#utility.yul\":8934:8973   */\n      tag_289\n        /* \"#utility.yul\":8967:8972   */\n      dup3\n        /* \"#utility.yul\":8934:8973   */\n      tag_159\n      jump\t// in\n    tag_289:\n        /* \"#utility.yul\":8989:9078   */\n      tag_290\n        /* \"#utility.yul\":9071:9077   */\n      dup2\n        /* \"#utility.yul\":9066:9069   */\n      dup6\n        /* \"#utility.yul\":8989:9078   */\n      tag_180\n      jump\t// in\n    tag_290:\n        /* \"#utility.yul\":8982:9078   */\n      swap4\n      pop\n        /* \"#utility.yul\":9087:9139   */\n      tag_291\n        /* \"#utility.yul\":9132:9138   */\n      dup2\n        /* \"#utility.yul\":9127:9130   */\n      dup6\n        /* \"#utility.yul\":9120:9124   */\n      0x20\n        /* \"#utility.yul\":9113:9118   */\n      dup7\n        /* \"#utility.yul\":9109:9125   */\n      add\n        /* \"#utility.yul\":9087:9139   */\n      tag_161\n      jump\t// in\n    tag_291:\n        /* \"#utility.yul\":9164:9170   */\n      dup1\n        /* \"#utility.yul\":9159:9162   */\n      dup5\n        /* \"#utility.yul\":9155:9171   */\n      add\n        /* \"#utility.yul\":9148:9171   */\n      swap2\n      pop\n        /* \"#utility.yul\":8910:9177   */\n      pop\n        /* \"#utility.yul\":8800:9177   */\n      swap3\n      swap2\n      pop\n      pop\n      jump\t// out\n        /* \"#utility.yul\":9183:9350   */\n    tag_184:\n        /* \"#utility.yul\":9323:9342   */\n      0x206973206d697373696e6720726f6c6520000000000000000000000000000000\n        /* \"#utility.yul\":9319:9320   */\n      0x00\n        /* \"#utility.yul\":9311:9317   */\n      dup3\n        /* \"#utility.yul\":9307:9321   */\n      add\n        /* \"#utility.yul\":9300:9343   */\n      mstore\n        /* \"#utility.yul\":9183:9350   */\n      pop\n      jump\t// out\n        /* \"#utility.yul\":9356:9758   */\n    tag_185:\n        /* \"#utility.yul\":9516:9519   */\n      0x00\n        /* \"#utility.yul\":9537:9622   */\n      tag_294\n        /* \"#utility.yul\":9619:9621   */\n      0x11\n        /* \"#utility.yul\":9614:9617   */\n      dup4\n        /* \"#utility.yul\":9537:9622   */\n      tag_180\n      jump\t// in\n    tag_294:\n        /* \"#utility.yul\":9530:9622   */\n      swap2\n      pop\n        /* \"#utility.yul\":9631:9724   */\n      tag_295\n        /* \"#utility.yul\":9720:9723   */\n      dup3\n        /* \"#utility.yul\":9631:9724   */\n      tag_184\n      jump\t// in\n    tag_295:\n        /* \"#utility.yul\":9749:9751   */\n      0x11\n        /* \"#utility.yul\":9744:9747   */\n      dup3\n        /* \"#utility.yul\":9740:9752   */\n      add\n        /* \"#utility.yul\":9733:9752   */\n      swap1\n      pop\n        /* \"#utility.yul\":9356:9758   */\n      swap2\n      swap1\n      pop\n      jump\t// out\n        /* \"#utility.yul\":9764:10731   */\n    tag_113:\n        /* \"#utility.yul\":10146:10149   */\n      0x00\n        /* \"#utility.yul\":10168:10316   */\n      tag_297\n        /* \"#utility.yul\":10312:10315   */\n      dup3\n        /* \"#utility.yul\":10168:10316   */\n      tag_182\n      jump\t// in\n    tag_297:\n        /* \"#utility.yul\":10161:10316   */\n      swap2\n      pop\n        /* \"#utility.yul\":10333:10428   */\n      tag_298\n        /* \"#utility.yul\":10424:10427   */\n      dup3\n        /* \"#utility.yul\":10415:10421   */\n      dup6\n        /* \"#utility.yul\":10333:10428   */\n      tag_183\n      jump\t// in\n    tag_298:\n        /* \"#utility.yul\":10326:10428   */\n      swap2\n      pop\n        /* \"#utility.yul\":10445:10593   */\n      tag_299\n        /* \"#utility.yul\":10589:10592   */\n      dup3\n        /* \"#utility.yul\":10445:10593   */\n      tag_185\n      jump\t// in\n    tag_299:\n        /* \"#utility.yul\":10438:10593   */\n      swap2\n      pop\n        /* \"#utility.yul\":10610:10705   */\n      tag_300\n        /* \"#utility.yul\":10701:10704   */\n      dup3\n        /* \"#utility.yul\":10692:10698   */\n      dup5\n        /* \"#utility.yul\":10610:10705   */\n      tag_183\n      jump\t// in\n    tag_300:\n        /* \"#utility.yul\":10603:10705   */\n      swap2\n      pop\n        /* \"#utility.yul\":10722:10725   */\n      dup2\n        /* \"#utility.yul\":10715:10725   */\n      swap1\n      pop\n        /* \"#utility.yul\":9764:10731   */\n      swap4\n      swap3\n      pop\n      pop\n      pop\n      jump\t// out\n        /* \"#utility.yul\":10737:10814   */\n    tag_186:\n        /* \"#utility.yul\":10774:10781   */\n      0x00\n        /* \"#utility.yul\":10803:10808   */\n      dup2\n        /* \"#utility.yul\":10792:10808   */\n      swap1\n      pop\n        /* \"#utility.yul\":10737:10814   */\n      swap2\n      swap1\n      pop\n      jump\t// out\n        /* \"#utility.yul\":10820:11000   */\n    tag_187:\n        /* \"#utility.yul\":10868:10945   */\n      0x4e487b7100000000000000000000000000000000000000000000000000000000\n        /* \"#utility.yul\":10865:10866   */\n      0x00\n        /* \"#utility.yul\":10858:10946   */\n      mstore\n        /* \"#utility.yul\":10965:10969   */\n      0x11\n        /* \"#utility.yul\":10962:10963   */\n      0x04\n        /* \"#utility.yul\":10955:10970   */\n      mstore\n        /* \"#utility.yul\":10989:10993   */\n      0x24\n        /* \"#utility.yul\":10986:10987   */\n      0x00\n        /* \"#utility.yul\":10979:10994   */\n      revert\n        /* \"#utility.yul\":11006:11354   */\n    tag_125:\n        /* \"#utility.yul\":11046:11053   */\n      0x00\n        /* \"#utility.yul\":11069:11089   */\n      tag_304\n        /* \"#utility.yul\":11087:11088   */\n      dup3\n        /* \"#utility.yul\":11069:11089   */\n      tag_186\n      jump\t// in\n    tag_304:\n        /* \"#utility.yul\":11064:11089   */\n      swap2\n      pop\n        /* \"#utility.yul\":11103:11123   */\n      tag_305\n        /* \"#utility.yul\":11121:11122   */\n      dup4\n        /* \"#utility.yul\":11103:11123   */\n      tag_186\n      jump\t// in\n    tag_305:\n        /* \"#utility.yul\":11098:11123   */\n      swap3\n      pop\n        /* \"#utility.yul\":11291:11292   */\n      dup2\n        /* \"#utility.yul\":11223:11289   */\n      0xffffffffffffffffffffffffffffffffffffffffffffffffffffffffffffffff\n        /* \"#utility.yul\":11219:11293   */\n      div\n        /* \"#utility.yul\":11216:11217   */\n      dup4\n        /* \"#utility.yul\":11213:11294   */\n      gt\n        /* \"#utility.yul\":11208:11209   */\n      dup3\n        /* \"#utility.yul\":11201:11210   */\n      iszero\n        /* \"#utility.yul\":11194:11211   */\n      iszero\n        /* \"#utility.yul\":11190:11295   */\n      and\n        /* \"#utility.yul\":11187:11318   */\n      iszero\n      tag_306\n      jumpi\n        /* \"#utility.yul\":11298:11316   */\n      tag_307\n      tag_187\n      jump\t// in\n    tag_307:\n        /* \"#utility.yul\":11187:11318   */\n    tag_306:\n        /* \"#utility.yul\":11346:11347   */\n      dup3\n        /* \"#utility.yul\":11343:11344   */\n      dup3\n        /* \"#utility.yul\":11339:11348   */\n      mul\n        /* \"#utility.yul\":11328:11348   */\n      swap1\n      pop\n        /* \"#utility.yul\":11006:11354   */\n      swap3\n      swap2\n      pop\n      pop\n      jump\t// out\n        /* \"#utility.yul\":11360:11665   */\n    tag_127:\n        /* \"#utility.yul\":11400:11403   */\n      0x00\n        /* \"#utility.yul\":11419:11439   */\n      tag_309\n        /* \"#utility.yul\":11437:11438   */\n      dup3\n        /* \"#utility.yul\":11419:11439   */\n      tag_186\n      jump\t// in\n    tag_309:\n        /* \"#utility.yul\":11414:11439   */\n      swap2\n      pop\n        /* \"#utility.yul\":11453:11473   */\n      tag_310\n        /* \"#utility.yul\":11471:11472   */\n      dup4\n        /* \"#utility.yul\":11453:11473   */\n      tag_186\n      jump\t// in\n    tag_310:\n        /* \"#utility.yul\":11448:11473   */\n      swap3\n      pop\n        /* \"#utility.yul\":11607:11608   */\n      dup3\n        /* \"#utility.yul\":11539:11605   */\n      0xffffffffffffffffffffffffffffffffffffffffffffffffffffffffffffffff\n        /* \"#utility.yul\":11535:11609   */\n      sub\n        /* \"#utility.yul\":11532:11533   */\n      dup3\n        /* \"#utility.yul\":11529:11610   */\n      gt\n        /* \"#utility.yul\":11526:11633   */\n      iszero\n      tag_311\n      jumpi\n        /* \"#utility.yul\":11613:11631   */\n      tag_312\n      tag_187\n      jump\t// in\n    tag_312:\n        /* \"#utility.yul\":11526:11633   */\n    tag_311:\n        /* \"#utility.yul\":11657:11658   */\n      dup3\n        /* \"#utility.yul\":11654:11655   */\n      dup3\n        /* \"#utility.yul\":11650:11659   */\n      add\n        /* \"#utility.yul\":11643:11659   */\n      swap1\n      pop\n        /* \"#utility.yul\":11360:11665   */\n      swap3\n      swap2\n      pop\n      pop\n      jump\t// out\n        /* \"#utility.yul\":11671:11851   */\n    tag_130:\n        /* \"#utility.yul\":11719:11796   */\n      0x4e487b7100000000000000000000000000000000000000000000000000000000\n        /* \"#utility.yul\":11716:11717   */\n      0x00\n        /* \"#utility.yul\":11709:11797   */\n      mstore\n        /* \"#utility.yul\":11816:11820   */\n      0x41\n        /* \"#utility.yul\":11813:11814   */\n      0x04\n        /* \"#utility.yul\":11806:11821   */\n      mstore\n        /* \"#utility.yul\":11840:11844   */\n      0x24\n        /* \"#utility.yul\":11837:11838   */\n      0x00\n        /* \"#utility.yul\":11830:11845   */\n      revert\n        /* \"#utility.yul\":11857:12037   */\n    tag_134:\n        /* \"#utility.yul\":11905:11982   */\n      0x4e487b7100000000000000000000000000000000000000000000000000000000\n        /* \"#utility.yul\":11902:11903   */\n      0x00\n        /* \"#utility.yul\":11895:11983   */\n      mstore\n        /* \"#utility.yul\":12002:12006   */\n      0x32\n        /* \"#utility.yul\":11999:12000   */\n      0x04\n        /* \"#utility.yul\":11992:12007   */\n      mstore\n        /* \"#utility.yul\":12026:12030   */\n      0x24\n        /* \"#utility.yul\":12023:12024   */\n      0x00\n        /* \"#utility.yul\":12016:12031   */\n      revert\n        /* \"#utility.yul\":12043:12214   */\n    tag_147:\n        /* \"#utility.yul\":12082:12085   */\n      0x00\n        /* \"#utility.yul\":12105:12129   */\n      tag_316\n        /* \"#utility.yul\":12123:12128   */\n      dup3\n        /* \"#utility.yul\":12105:12129   */\n      tag_186\n      jump\t// in\n    tag_316:\n        /* \"#utility.yul\":12096:12129   */\n      swap2\n      pop\n        /* \"#utility.yul\":12151:12155   */\n      0x00\n        /* \"#utility.yul\":12144:12149   */\n      dup3\n        /* \"#utility.yul\":12141:12156   */\n      sub\n        /* \"#utility.yul\":12138:12179   */\n      tag_317\n      jumpi\n        /* \"#utility.yul\":12159:12177   */\n      tag_318\n      tag_187\n      jump\t// in\n    tag_318:\n        /* \"#utility.yul\":12138:12179   */\n    tag_317:\n        /* \"#utility.yul\":12206:12207   */\n      0x01\n        /* \"#utility.yul\":12199:12204   */\n      dup3\n        /* \"#utility.yul\":12195:12208   */\n      sub\n        /* \"#utility.yul\":12188:12208   */\n      swap1\n      pop\n        /* \"#utility.yul\":12043:12214   */\n      swap2\n      swap1\n      pop\n      jump\t// out\n        /* \"#utility.yul\":12220:12402   */\n    tag_188:\n        /* \"#utility.yul\":12360:12394   */\n      0x537472696e67733a20686578206c656e67746820696e73756666696369656e74\n        /* \"#utility.yul\":12356:12357   */\n      0x00\n        /* \"#utility.yul\":12348:12354   */\n      dup3\n        /* \"#utility.yul\":12344:12358   */\n      add\n        /* \"#utility.yul\":12337:12395   */\n      mstore\n        /* \"#utility.yul\":12220:12402   */\n      pop\n      jump\t// out\n        /* \"#utility.yul\":12408:12774   */\n    tag_189:\n        /* \"#utility.yul\":12550:12553   */\n      0x00\n        /* \"#utility.yul\":12571:12638   */\n      tag_321\n        /* \"#utility.yul\":12635:12637   */\n      0x20\n        /* \"#utility.yul\":12630:12633   */\n      dup4\n        /* \"#utility.yul\":12571:12638   */\n      tag_160\n      jump\t// in\n    tag_321:\n        /* \"#utility.yul\":12564:12638   */\n      swap2\n      pop\n        /* \"#utility.yul\":12647:12740   */\n      tag_322\n        /* \"#utility.yul\":12736:12739   */\n      dup3\n        /* \"#utility.yul\":12647:12740   */\n      tag_188\n      jump\t// in\n    tag_322:\n        /* \"#utility.yul\":12765:12767   */\n      0x20\n        /* \"#utility.yul\":12760:12763   */\n      dup3\n        /* \"#utility.yul\":12756:12768   */\n      add\n        /* \"#utility.yul\":12749:12768   */\n      swap1\n      pop\n        /* \"#utility.yul\":12408:12774   */\n      swap2\n      swap1\n      pop\n      jump\t// out\n        /* \"#utility.yul\":12780:13199   */\n    tag_150:\n        /* \"#utility.yul\":12946:12950   */\n      0x00\n        /* \"#utility.yul\":12984:12986   */\n      0x20\n        /* \"#utility.yul\":12973:12982   */\n      dup3\n        /* \"#utility.yul\":12969:12987   */\n      add\n        /* \"#utility.yul\":12961:12987   */\n      swap1\n      pop\n        /* \"#utility.yul\":13033:13042   */\n      dup2\n        /* \"#utility.yul\":13027:13031   */\n      dup2\n        /* \"#utility.yul\":13023:13043   */\n      sub\n        /* \"#utility.yul\":13019:13020   */\n      0x00\n        /* \"#utility.yul\":13008:13017   */\n      dup4\n        /* \"#utility.yul\":13004:13021   */\n      add\n        /* \"#utility.yul\":12997:13044   */\n      mstore\n        /* \"#utility.yul\":13061:13192   */\n      tag_324\n        /* \"#utility.yul\":13187:13191   */\n      dup2\n        /* \"#utility.yul\":13061:13192   */\n      tag_189\n      jump\t// in\n    tag_324:\n        /* \"#utility.yul\":13053:13192   */\n      swap1\n      pop\n        /* \"#utility.yul\":12780:13199   */\n      swap2\n      swap1\n      pop\n      jump\t// out\n\n    auxdata: 0xa26469706673582212206057743b8795abd28ca31a4849e03de0e440dc7636d4821559404e6adaf5445d64736f6c634300080d0033\n}\n",
				"bytecode": {
					"linkReferences": {},
					"object": "6080604052600060015534801561001557600080fd5b5061122c806100256000396000f3fe608060405234801561001057600080fd5b50600436106100a95760003560e01c806391d148541161007157806391d1485414610164578063a217fddf14610194578063bd041c4d146101b2578063d547741f146101ce578063e9c26518146101ea578063f4ab9adf14610208576100a9565b806301ffc9a7146100ae57806313bdfacd146100de578063248a9ca3146100fc5780632f2ff15d1461012c57806336568abe14610148575b600080fd5b6100c860048036038101906100c39190610b06565b610238565b6040516100d59190610b4e565b60405180910390f35b6100e66102b2565b6040516100f39190610c02565b60405180910390f35b61011660048036038101906101119190610c5a565b6102b7565b6040516101239190610c96565b60405180910390f35b61014660048036038101906101419190610d0f565b6102d6565b005b610162600480360381019061015d9190610d0f565b6102ff565b005b61017e60048036038101906101799190610d0f565b610382565b60405161018b9190610b4e565b60405180910390f35b61019c6103ec565b6040516101a99190610c96565b60405180910390f35b6101cc60048036038101906101c79190610d7b565b6103f3565b005b6101e860048036038101906101e39190610d0f565b6104fa565b005b6101f2610523565b6040516101ff9190610c96565b60405180910390f35b610222600480360381019061021d9190610dbb565b610547565b60405161022f9190610e5f565b60405180910390f35b60007f7965db0b000000000000000000000000000000000000000000000000000000007bffffffffffffffffffffffffffffffffffffffffffffffffffffffff1916827bffffffffffffffffffffffffffffffffffffffffffffffffffffffff191614806102ab57506102aa8261059d565b5b9050919050565b606090565b6000806000838152602001908152602001600020600101549050919050565b6102df826102b7565b6102f0816102eb610607565b61060f565b6102fa83836106ac565b505050565b610307610607565b73ffffffffffffffffffffffffffffffffffffffff168173ffffffffffffffffffffffffffffffffffffffff1614610374576040517f08c379a000000000000000000000000000000000000000000000000000000000815260040161036b90610eec565b60405180910390fd5b61037e828261078c565b5050565b600080600084815260200190815260200160002060000160008373ffffffffffffffffffffffffffffffffffffffff1673ffffffffffffffffffffffffffffffffffffffff16815260200190815260200160002060009054906101000a900460ff16905092915050565b6000801b81565b6001600381111561040757610406610de8565b5b600260008473ffffffffffffffffffffffffffffffffffffffff1673ffffffffffffffffffffffffffffffffffffffff16815260200190815260200160002060009054906101000a900460ff16600381111561046657610465610de8565b5b036104f6578061047757600361047a565b60025b60ff16600381111561048f5761048e610de8565b5b600260008473ffffffffffffffffffffffffffffffffffffffff1673ffffffffffffffffffffffffffffffffffffffff16815260200190815260200160002060006101000a81548160ff021916908360038111156104f0576104ef610de8565b5b02179055505b5050565b610503826102b7565b6105148161050f610607565b61060f565b61051e838361078c565b505050565b7f3b5d4cc60d3ec3516ee8ae083bd60934f6eb2a6c54b1229985c41bfb092b260381565b6000600260008373ffffffffffffffffffffffffffffffffffffffff1673ffffffffffffffffffffffffffffffffffffffff16815260200190815260200160002060009054906101000a900460ff169050919050565b60007f01ffc9a7000000000000000000000000000000000000000000000000000000007bffffffffffffffffffffffffffffffffffffffffffffffffffffffff1916827bffffffffffffffffffffffffffffffffffffffffffffffffffffffff1916149050919050565b600033905090565b6106198282610382565b6106a85761063e8173ffffffffffffffffffffffffffffffffffffffff16601461086d565b61064c8360001c602061086d565b60405160200161065d929190610fe0565b6040516020818303038152906040526040517f08c379a000000000000000000000000000000000000000000000000000000000815260040161069f9190610c02565b60405180910390fd5b5050565b6106b68282610382565b61078857600160008084815260200190815260200160002060000160008373ffffffffffffffffffffffffffffffffffffffff1673ffffffffffffffffffffffffffffffffffffffff16815260200190815260200160002060006101000a81548160ff02191690831515021790555061072d610607565b73ffffffffffffffffffffffffffffffffffffffff168173ffffffffffffffffffffffffffffffffffffffff16837f2f8788117e7eff1d82e926ec794901d17c78024a50270940304540a733656f0d60405160405180910390a45b5050565b6107968282610382565b1561086957600080600084815260200190815260200160002060000160008373ffffffffffffffffffffffffffffffffffffffff1673ffffffffffffffffffffffffffffffffffffffff16815260200190815260200160002060006101000a81548160ff02191690831515021790555061080e610607565b73ffffffffffffffffffffffffffffffffffffffff168173ffffffffffffffffffffffffffffffffffffffff16837ff6391f5c32d9c69d2a47ea670b442974b53935d1edc7fd64eb21e047a839171b60405160405180910390a45b5050565b6060600060028360026108809190611053565b61088a91906110ad565b67ffffffffffffffff8111156108a3576108a2611103565b5b6040519080825280601f01601f1916602001820160405280156108d55781602001600182028036833780820191505090505b5090507f30000000000000000000000000000000000000000000000000000000000000008160008151811061090d5761090c611132565b5b60200101907effffffffffffffffffffffffffffffffffffffffffffffffffffffffffffff1916908160001a9053507f78000000000000000000000000000000000000000000000000000000000000008160018151811061097157610970611132565b5b60200101907effffffffffffffffffffffffffffffffffffffffffffffffffffffffffffff1916908160001a905350600060018460026109b19190611053565b6109bb91906110ad565b90505b6001811115610a5b577f3031323334353637383961626364656600000000000000000000000000000000600f8616601081106109fd576109fc611132565b5b1a60f81b828281518110610a1457610a13611132565b5b60200101907effffffffffffffffffffffffffffffffffffffffffffffffffffffffffffff1916908160001a905350600485901c945080610a5490611161565b90506109be565b5060008414610a9f576040517f08c379a0000000000000000000000000000000000000000000000000000000008152600401610a96906111d6565b60405180910390fd5b8091505092915050565b600080fd5b60007fffffffff0000000000000000000000000000000000000000000000000000000082169050919050565b610ae381610aae565b8114610aee57600080fd5b50565b600081359050610b0081610ada565b92915050565b600060208284031215610b1c57610b1b610aa9565b5b6000610b2a84828501610af1565b91505092915050565b60008115159050919050565b610b4881610b33565b82525050565b6000602082019050610b636000830184610b3f565b92915050565b600081519050919050565b600082825260208201905092915050565b60005b83811015610ba3578082015181840152602081019050610b88565b83811115610bb2576000848401525b50505050565b6000601f19601f8301169050919050565b6000610bd482610b69565b610bde8185610b74565b9350610bee818560208601610b85565b610bf781610bb8565b840191505092915050565b60006020820190508181036000830152610c1c8184610bc9565b905092915050565b6000819050919050565b610c3781610c24565b8114610c4257600080fd5b50565b600081359050610c5481610c2e565b92915050565b600060208284031215610c7057610c6f610aa9565b5b6000610c7e84828501610c45565b91505092915050565b610c9081610c24565b82525050565b6000602082019050610cab6000830184610c87565b92915050565b600073ffffffffffffffffffffffffffffffffffffffff82169050919050565b6000610cdc82610cb1565b9050919050565b610cec81610cd1565b8114610cf757600080fd5b50565b600081359050610d0981610ce3565b92915050565b60008060408385031215610d2657610d25610aa9565b5b6000610d3485828601610c45565b9250506020610d4585828601610cfa565b9150509250929050565b610d5881610b33565b8114610d6357600080fd5b50565b600081359050610d7581610d4f565b92915050565b60008060408385031215610d9257610d91610aa9565b5b6000610da085828601610cfa565b9250506020610db185828601610d66565b9150509250929050565b600060208284031215610dd157610dd0610aa9565b5b6000610ddf84828501610cfa565b91505092915050565b7f4e487b7100000000000000000000000000000000000000000000000000000000600052602160045260246000fd5b60048110610e2857610e27610de8565b5b50565b6000819050610e3982610e17565b919050565b6000610e4982610e2b565b9050919050565b610e5981610e3e565b82525050565b6000602082019050610e746000830184610e50565b92915050565b7f416363657373436f6e74726f6c3a2063616e206f6e6c792072656e6f756e636560008201527f20726f6c657320666f722073656c660000000000000000000000000000000000602082015250565b6000610ed6602f83610b74565b9150610ee182610e7a565b604082019050919050565b60006020820190508181036000830152610f0581610ec9565b9050919050565b600081905092915050565b7f416363657373436f6e74726f6c3a206163636f756e7420000000000000000000600082015250565b6000610f4d601783610f0c565b9150610f5882610f17565b601782019050919050565b6000610f6e82610b69565b610f788185610f0c565b9350610f88818560208601610b85565b80840191505092915050565b7f206973206d697373696e6720726f6c6520000000000000000000000000000000600082015250565b6000610fca601183610f0c565b9150610fd582610f94565b601182019050919050565b6000610feb82610f40565b9150610ff78285610f63565b915061100282610fbd565b915061100e8284610f63565b91508190509392505050565b6000819050919050565b7f4e487b7100000000000000000000000000000000000000000000000000000000600052601160045260246000fd5b600061105e8261101a565b91506110698361101a565b9250817fffffffffffffffffffffffffffffffffffffffffffffffffffffffffffffffff04831182151516156110a2576110a1611024565b5b828202905092915050565b60006110b88261101a565b91506110c38361101a565b9250827fffffffffffffffffffffffffffffffffffffffffffffffffffffffffffffffff038211156110f8576110f7611024565b5b828201905092915050565b7f4e487b7100000000000000000000000000000000000000000000000000000000600052604160045260246000fd5b7f4e487b7100000000000000000000000000000000000000000000000000000000600052603260045260246000fd5b600061116c8261101a565b91506000820361117f5761117e611024565b5b600182039050919050565b7f537472696e67733a20686578206c656e67746820696e73756666696369656e74600082015250565b60006111c0602083610b74565b91506111cb8261118a565b602082019050919050565b600060208201905081810360008301526111ef816111b3565b905091905056fea26469706673582212206057743b8795abd28ca31a4849e03de0e440dc7636d4821559404e6adaf5445d64736f6c634300080d0033",
					"opcodes": "PUSH1 0x80 PUSH1 0x40 MSTORE PUSH1 0x0 PUSH1 0x1 SSTORE CALLVALUE DUP1 ISZERO PUSH2 0x15 JUMPI PUSH1 0x0 DUP1 REVERT JUMPDEST POP PUSH2 0x122C DUP1 PUSH2 0x25 PUSH1 0x0 CODECOPY PUSH1 0x0 RETURN INVALID PUSH1 0x80 PUSH1 0x40 MSTORE CALLVALUE DUP1 ISZERO PUSH2 0x10 JUMPI PUSH1 0x0 DUP1 REVERT JUMPDEST POP PUSH1 0x4 CALLDATASIZE LT PUSH2 0xA9 JUMPI PUSH1 0x0 CALLDATALOAD PUSH1 0xE0 SHR DUP1 PUSH4 0x91D14854 GT PUSH2 0x71 JUMPI DUP1 PUSH4 0x91D14854 EQ PUSH2 0x164 JUMPI DUP1 PUSH4 0xA217FDDF EQ PUSH2 0x194 JUMPI DUP1 PUSH4 0xBD041C4D EQ PUSH2 0x1B2 JUMPI DUP1 PUSH4 0xD547741F EQ PUSH2 0x1CE JUMPI DUP1 PUSH4 0xE9C26518 EQ PUSH2 0x1EA JUMPI DUP1 PUSH4 0xF4AB9ADF EQ PUSH2 0x208 JUMPI PUSH2 0xA9 JUMP JUMPDEST DUP1 PUSH4 0x1FFC9A7 EQ PUSH2 0xAE JUMPI DUP1 PUSH4 0x13BDFACD EQ PUSH2 0xDE JUMPI DUP1 PUSH4 0x248A9CA3 EQ PUSH2 0xFC JUMPI DUP1 PUSH4 0x2F2FF15D EQ PUSH2 0x12C JUMPI DUP1 PUSH4 0x36568ABE EQ PUSH2 0x148 JUMPI JUMPDEST PUSH1 0x0 DUP1 REVERT JUMPDEST PUSH2 0xC8 PUSH1 0x4 DUP1 CALLDATASIZE SUB DUP2 ADD SWAP1 PUSH2 0xC3 SWAP2 SWAP1 PUSH2 0xB06 JUMP JUMPDEST PUSH2 0x238 JUMP JUMPDEST PUSH1 0x40 MLOAD PUSH2 0xD5 SWAP2 SWAP1 PUSH2 0xB4E JUMP JUMPDEST PUSH1 0x40 MLOAD DUP1 SWAP2 SUB SWAP1 RETURN JUMPDEST PUSH2 0xE6 PUSH2 0x2B2 JUMP JUMPDEST PUSH1 0x40 MLOAD PUSH2 0xF3 SWAP2 SWAP1 PUSH2 0xC02 JUMP JUMPDEST PUSH1 0x40 MLOAD DUP1 SWAP2 SUB SWAP1 RETURN JUMPDEST PUSH2 0x116 PUSH1 0x4 DUP1 CALLDATASIZE SUB DUP2 ADD SWAP1 PUSH2 0x111 SWAP2 SWAP1 PUSH2 0xC5A JUMP JUMPDEST PUSH2 0x2B7 JUMP JUMPDEST PUSH1 0x40 MLOAD PUSH2 0x123 SWAP2 SWAP1 PUSH2 0xC96 JUMP JUMPDEST PUSH1 0x40 MLOAD DUP1 SWAP2 SUB SWAP1 RETURN JUMPDEST PUSH2 0x146 PUSH1 0x4 DUP1 CALLDATASIZE SUB DUP2 ADD SWAP1 PUSH2 0x141 SWAP2 SWAP1 PUSH2 0xD0F JUMP JUMPDEST PUSH2 0x2D6 JUMP JUMPDEST STOP JUMPDEST PUSH2 0x162 PUSH1 0x4 DUP1 CALLDATASIZE SUB DUP2 ADD SWAP1 PUSH2 0x15D SWAP2 SWAP1 PUSH2 0xD0F JUMP JUMPDEST PUSH2 0x2FF JUMP JUMPDEST STOP JUMPDEST PUSH2 0x17E PUSH1 0x4 DUP1 CALLDATASIZE SUB DUP2 ADD SWAP1 PUSH2 0x179 SWAP2 SWAP1 PUSH2 0xD0F JUMP JUMPDEST PUSH2 0x382 JUMP JUMPDEST PUSH1 0x40 MLOAD PUSH2 0x18B SWAP2 SWAP1 PUSH2 0xB4E JUMP JUMPDEST PUSH1 0x40 MLOAD DUP1 SWAP2 SUB SWAP1 RETURN JUMPDEST PUSH2 0x19C PUSH2 0x3EC JUMP JUMPDEST PUSH1 0x40 MLOAD PUSH2 0x1A9 SWAP2 SWAP1 PUSH2 0xC96 JUMP JUMPDEST PUSH1 0x40 MLOAD DUP1 SWAP2 SUB SWAP1 RETURN JUMPDEST PUSH2 0x1CC PUSH1 0x4 DUP1 CALLDATASIZE SUB DUP2 ADD SWAP1 PUSH2 0x1C7 SWAP2 SWAP1 PUSH2 0xD7B JUMP JUMPDEST PUSH2 0x3F3 JUMP JUMPDEST STOP JUMPDEST PUSH2 0x1E8 PUSH1 0x4 DUP1 CALLDATASIZE SUB DUP2 ADD SWAP1 PUSH2 0x1E3 SWAP2 SWAP1 PUSH2 0xD0F JUMP JUMPDEST PUSH2 0x4FA JUMP JUMPDEST STOP JUMPDEST PUSH2 0x1F2 PUSH2 0x523 JUMP JUMPDEST PUSH1 0x40 MLOAD PUSH2 0x1FF SWAP2 SWAP1 PUSH2 0xC96 JUMP JUMPDEST PUSH1 0x40 MLOAD DUP1 SWAP2 SUB SWAP1 RETURN JUMPDEST PUSH2 0x222 PUSH1 0x4 DUP1 CALLDATASIZE SUB DUP2 ADD SWAP1 PUSH2 0x21D SWAP2 SWAP1 PUSH2 0xDBB JUMP JUMPDEST PUSH2 0x547 JUMP JUMPDEST PUSH1 0x40 MLOAD PUSH2 0x22F SWAP2 SWAP1 PUSH2 0xE5F JUMP JUMPDEST PUSH1 0x40 MLOAD DUP1 SWAP2 SUB SWAP1 RETURN JUMPDEST PUSH1 0x0 PUSH32 0x7965DB0B00000000000000000000000000000000000000000000000000000000 PUSH28 0xFFFFFFFFFFFFFFFFFFFFFFFFFFFFFFFFFFFFFFFFFFFFFFFFFFFFFFFF NOT AND DUP3 PUSH28 0xFFFFFFFFFFFFFFFFFFFFFFFFFFFFFFFFFFFFFFFFFFFFFFFFFFFFFFFF NOT AND EQ DUP1 PUSH2 0x2AB JUMPI POP PUSH2 0x2AA DUP3 PUSH2 0x59D JUMP JUMPDEST JUMPDEST SWAP1 POP SWAP2 SWAP1 POP JUMP JUMPDEST PUSH1 0x60 SWAP1 JUMP JUMPDEST PUSH1 0x0 DUP1 PUSH1 0x0 DUP4 DUP2 MSTORE PUSH1 0x20 ADD SWAP1 DUP2 MSTORE PUSH1 0x20 ADD PUSH1 0x0 KECCAK256 PUSH1 0x1 ADD SLOAD SWAP1 POP SWAP2 SWAP1 POP JUMP JUMPDEST PUSH2 0x2DF DUP3 PUSH2 0x2B7 JUMP JUMPDEST PUSH2 0x2F0 DUP2 PUSH2 0x2EB PUSH2 0x607 JUMP JUMPDEST PUSH2 0x60F JUMP JUMPDEST PUSH2 0x2FA DUP4 DUP4 PUSH2 0x6AC JUMP JUMPDEST POP POP POP JUMP JUMPDEST PUSH2 0x307 PUSH2 0x607 JUMP JUMPDEST PUSH20 0xFFFFFFFFFFFFFFFFFFFFFFFFFFFFFFFFFFFFFFFF AND DUP2 PUSH20 0xFFFFFFFFFFFFFFFFFFFFFFFFFFFFFFFFFFFFFFFF AND EQ PUSH2 0x374 JUMPI PUSH1 0x40 MLOAD PUSH32 0x8C379A000000000000000000000000000000000000000000000000000000000 DUP2 MSTORE PUSH1 0x4 ADD PUSH2 0x36B SWAP1 PUSH2 0xEEC JUMP JUMPDEST PUSH1 0x40 MLOAD DUP1 SWAP2 SUB SWAP1 REVERT JUMPDEST PUSH2 0x37E DUP3 DUP3 PUSH2 0x78C JUMP JUMPDEST POP POP JUMP JUMPDEST PUSH1 0x0 DUP1 PUSH1 0x0 DUP5 DUP2 MSTORE PUSH1 0x20 ADD SWAP1 DUP2 MSTORE PUSH1 0x20 ADD PUSH1 0x0 KECCAK256 PUSH1 0x0 ADD PUSH1 0x0 DUP4 PUSH20 0xFFFFFFFFFFFFFFFFFFFFFFFFFFFFFFFFFFFFFFFF AND PUSH20 0xFFFFFFFFFFFFFFFFFFFFFFFFFFFFFFFFFFFFFFFF AND DUP2 MSTORE PUSH1 0x20 ADD SWAP1 DUP2 MSTORE PUSH1 0x20 ADD PUSH1 0x0 KECCAK256 PUSH1 0x0 SWAP1 SLOAD SWAP1 PUSH2 0x100 EXP SWAP1 DIV PUSH1 0xFF AND SWAP1 POP SWAP3 SWAP2 POP POP JUMP JUMPDEST PUSH1 0x0 DUP1 SHL DUP2 JUMP JUMPDEST PUSH1 0x1 PUSH1 0x3 DUP2 GT ISZERO PUSH2 0x407 JUMPI PUSH2 0x406 PUSH2 0xDE8 JUMP JUMPDEST JUMPDEST PUSH1 0x2 PUSH1 0x0 DUP5 PUSH20 0xFFFFFFFFFFFFFFFFFFFFFFFFFFFFFFFFFFFFFFFF AND PUSH20 0xFFFFFFFFFFFFFFFFFFFFFFFFFFFFFFFFFFFFFFFF AND DUP2 MSTORE PUSH1 0x20 ADD SWAP1 DUP2 MSTORE PUSH1 0x20 ADD PUSH1 0x0 KECCAK256 PUSH1 0x0 SWAP1 SLOAD SWAP1 PUSH2 0x100 EXP SWAP1 DIV PUSH1 0xFF AND PUSH1 0x3 DUP2 GT ISZERO PUSH2 0x466 JUMPI PUSH2 0x465 PUSH2 0xDE8 JUMP JUMPDEST JUMPDEST SUB PUSH2 0x4F6 JUMPI DUP1 PUSH2 0x477 JUMPI PUSH1 0x3 PUSH2 0x47A JUMP JUMPDEST PUSH1 0x2 JUMPDEST PUSH1 0xFF AND PUSH1 0x3 DUP2 GT ISZERO PUSH2 0x48F JUMPI PUSH2 0x48E PUSH2 0xDE8 JUMP JUMPDEST JUMPDEST PUSH1 0x2 PUSH1 0x0 DUP5 PUSH20 0xFFFFFFFFFFFFFFFFFFFFFFFFFFFFFFFFFFFFFFFF AND PUSH20 0xFFFFFFFFFFFFFFFFFFFFFFFFFFFFFFFFFFFFFFFF AND DUP2 MSTORE PUSH1 0x20 ADD SWAP1 DUP2 MSTORE PUSH1 0x20 ADD PUSH1 0x0 KECCAK256 PUSH1 0x0 PUSH2 0x100 EXP DUP2 SLOAD DUP2 PUSH1 0xFF MUL NOT AND SWAP1 DUP4 PUSH1 0x3 DUP2 GT ISZERO PUSH2 0x4F0 JUMPI PUSH2 0x4EF PUSH2 0xDE8 JUMP JUMPDEST JUMPDEST MUL OR SWAP1 SSTORE POP JUMPDEST POP POP JUMP JUMPDEST PUSH2 0x503 DUP3 PUSH2 0x2B7 JUMP JUMPDEST PUSH2 0x514 DUP2 PUSH2 0x50F PUSH2 0x607 JUMP JUMPDEST PUSH2 0x60F JUMP JUMPDEST PUSH2 0x51E DUP4 DUP4 PUSH2 0x78C JUMP JUMPDEST POP POP POP JUMP JUMPDEST PUSH32 0x3B5D4CC60D3EC3516EE8AE083BD60934F6EB2A6C54B1229985C41BFB092B2603 DUP2 JUMP JUMPDEST PUSH1 0x0 PUSH1 0x2 PUSH1 0x0 DUP4 PUSH20 0xFFFFFFFFFFFFFFFFFFFFFFFFFFFFFFFFFFFFFFFF AND PUSH20 0xFFFFFFFFFFFFFFFFFFFFFFFFFFFFFFFFFFFFFFFF AND DUP2 MSTORE PUSH1 0x20 ADD SWAP1 DUP2 MSTORE PUSH1 0x20 ADD PUSH1 0x0 KECCAK256 PUSH1 0x0 SWAP1 SLOAD SWAP1 PUSH2 0x100 EXP SWAP1 DIV PUSH1 0xFF AND SWAP1 POP SWAP2 SWAP1 POP JUMP JUMPDEST PUSH1 0x0 PUSH32 0x1FFC9A700000000000000000000000000000000000000000000000000000000 PUSH28 0xFFFFFFFFFFFFFFFFFFFFFFFFFFFFFFFFFFFFFFFFFFFFFFFFFFFFFFFF NOT AND DUP3 PUSH28 0xFFFFFFFFFFFFFFFFFFFFFFFFFFFFFFFFFFFFFFFFFFFFFFFFFFFFFFFF NOT AND EQ SWAP1 POP SWAP2 SWAP1 POP JUMP JUMPDEST PUSH1 0x0 CALLER SWAP1 POP SWAP1 JUMP JUMPDEST PUSH2 0x619 DUP3 DUP3 PUSH2 0x382 JUMP JUMPDEST PUSH2 0x6A8 JUMPI PUSH2 0x63E DUP2 PUSH20 0xFFFFFFFFFFFFFFFFFFFFFFFFFFFFFFFFFFFFFFFF AND PUSH1 0x14 PUSH2 0x86D JUMP JUMPDEST PUSH2 0x64C DUP4 PUSH1 0x0 SHR PUSH1 0x20 PUSH2 0x86D JUMP JUMPDEST PUSH1 0x40 MLOAD PUSH1 0x20 ADD PUSH2 0x65D SWAP3 SWAP2 SWAP1 PUSH2 0xFE0 JUMP JUMPDEST PUSH1 0x40 MLOAD PUSH1 0x20 DUP2 DUP4 SUB SUB DUP2 MSTORE SWAP1 PUSH1 0x40 MSTORE PUSH1 0x40 MLOAD PUSH32 0x8C379A000000000000000000000000000000000000000000000000000000000 DUP2 MSTORE PUSH1 0x4 ADD PUSH2 0x69F SWAP2 SWAP1 PUSH2 0xC02 JUMP JUMPDEST PUSH1 0x40 MLOAD DUP1 SWAP2 SUB SWAP1 REVERT JUMPDEST POP POP JUMP JUMPDEST PUSH2 0x6B6 DUP3 DUP3 PUSH2 0x382 JUMP JUMPDEST PUSH2 0x788 JUMPI PUSH1 0x1 PUSH1 0x0 DUP1 DUP5 DUP2 MSTORE PUSH1 0x20 ADD SWAP1 DUP2 MSTORE PUSH1 0x20 ADD PUSH1 0x0 KECCAK256 PUSH1 0x0 ADD PUSH1 0x0 DUP4 PUSH20 0xFFFFFFFFFFFFFFFFFFFFFFFFFFFFFFFFFFFFFFFF AND PUSH20 0xFFFFFFFFFFFFFFFFFFFFFFFFFFFFFFFFFFFFFFFF AND DUP2 MSTORE PUSH1 0x20 ADD SWAP1 DUP2 MSTORE PUSH1 0x20 ADD PUSH1 0x0 KECCAK256 PUSH1 0x0 PUSH2 0x100 EXP DUP2 SLOAD DUP2 PUSH1 0xFF MUL NOT AND SWAP1 DUP4 ISZERO ISZERO MUL OR SWAP1 SSTORE POP PUSH2 0x72D PUSH2 0x607 JUMP JUMPDEST PUSH20 0xFFFFFFFFFFFFFFFFFFFFFFFFFFFFFFFFFFFFFFFF AND DUP2 PUSH20 0xFFFFFFFFFFFFFFFFFFFFFFFFFFFFFFFFFFFFFFFF AND DUP4 PUSH32 0x2F8788117E7EFF1D82E926EC794901D17C78024A50270940304540A733656F0D PUSH1 0x40 MLOAD PUSH1 0x40 MLOAD DUP1 SWAP2 SUB SWAP1 LOG4 JUMPDEST POP POP JUMP JUMPDEST PUSH2 0x796 DUP3 DUP3 PUSH2 0x382 JUMP JUMPDEST ISZERO PUSH2 0x869 JUMPI PUSH1 0x0 DUP1 PUSH1 0x0 DUP5 DUP2 MSTORE PUSH1 0x20 ADD SWAP1 DUP2 MSTORE PUSH1 0x20 ADD PUSH1 0x0 KECCAK256 PUSH1 0x0 ADD PUSH1 0x0 DUP4 PUSH20 0xFFFFFFFFFFFFFFFFFFFFFFFFFFFFFFFFFFFFFFFF AND PUSH20 0xFFFFFFFFFFFFFFFFFFFFFFFFFFFFFFFFFFFFFFFF AND DUP2 MSTORE PUSH1 0x20 ADD SWAP1 DUP2 MSTORE PUSH1 0x20 ADD PUSH1 0x0 KECCAK256 PUSH1 0x0 PUSH2 0x100 EXP DUP2 SLOAD DUP2 PUSH1 0xFF MUL NOT AND SWAP1 DUP4 ISZERO ISZERO MUL OR SWAP1 SSTORE POP PUSH2 0x80E PUSH2 0x607 JUMP JUMPDEST PUSH20 0xFFFFFFFFFFFFFFFFFFFFFFFFFFFFFFFFFFFFFFFF AND DUP2 PUSH20 0xFFFFFFFFFFFFFFFFFFFFFFFFFFFFFFFFFFFFFFFF AND DUP4 PUSH32 0xF6391F5C32D9C69D2A47EA670B442974B53935D1EDC7FD64EB21E047A839171B PUSH1 0x40 MLOAD PUSH1 0x40 MLOAD DUP1 SWAP2 SUB SWAP1 LOG4 JUMPDEST POP POP JUMP JUMPDEST PUSH1 0x60 PUSH1 0x0 PUSH1 0x2 DUP4 PUSH1 0x2 PUSH2 0x880 SWAP2 SWAP1 PUSH2 0x1053 JUMP JUMPDEST PUSH2 0x88A SWAP2 SWAP1 PUSH2 0x10AD JUMP JUMPDEST PUSH8 0xFFFFFFFFFFFFFFFF DUP2 GT ISZERO PUSH2 0x8A3 JUMPI PUSH2 0x8A2 PUSH2 0x1103 JUMP JUMPDEST JUMPDEST PUSH1 0x40 MLOAD SWAP1 DUP1 DUP3 MSTORE DUP1 PUSH1 0x1F ADD PUSH1 0x1F NOT AND PUSH1 0x20 ADD DUP3 ADD PUSH1 0x40 MSTORE DUP1 ISZERO PUSH2 0x8D5 JUMPI DUP2 PUSH1 0x20 ADD PUSH1 0x1 DUP3 MUL DUP1 CALLDATASIZE DUP4 CALLDATACOPY DUP1 DUP3 ADD SWAP2 POP POP SWAP1 POP JUMPDEST POP SWAP1 POP PUSH32 0x3000000000000000000000000000000000000000000000000000000000000000 DUP2 PUSH1 0x0 DUP2 MLOAD DUP2 LT PUSH2 0x90D JUMPI PUSH2 0x90C PUSH2 0x1132 JUMP JUMPDEST JUMPDEST PUSH1 0x20 ADD ADD SWAP1 PUSH31 0xFFFFFFFFFFFFFFFFFFFFFFFFFFFFFFFFFFFFFFFFFFFFFFFFFFFFFFFFFFFFFF NOT AND SWAP1 DUP2 PUSH1 0x0 BYTE SWAP1 MSTORE8 POP PUSH32 0x7800000000000000000000000000000000000000000000000000000000000000 DUP2 PUSH1 0x1 DUP2 MLOAD DUP2 LT PUSH2 0x971 JUMPI PUSH2 0x970 PUSH2 0x1132 JUMP JUMPDEST JUMPDEST PUSH1 0x20 ADD ADD SWAP1 PUSH31 0xFFFFFFFFFFFFFFFFFFFFFFFFFFFFFFFFFFFFFFFFFFFFFFFFFFFFFFFFFFFFFF NOT AND SWAP1 DUP2 PUSH1 0x0 BYTE SWAP1 MSTORE8 POP PUSH1 0x0 PUSH1 0x1 DUP5 PUSH1 0x2 PUSH2 0x9B1 SWAP2 SWAP1 PUSH2 0x1053 JUMP JUMPDEST PUSH2 0x9BB SWAP2 SWAP1 PUSH2 0x10AD JUMP JUMPDEST SWAP1 POP JUMPDEST PUSH1 0x1 DUP2 GT ISZERO PUSH2 0xA5B JUMPI PUSH32 0x3031323334353637383961626364656600000000000000000000000000000000 PUSH1 0xF DUP7 AND PUSH1 0x10 DUP2 LT PUSH2 0x9FD JUMPI PUSH2 0x9FC PUSH2 0x1132 JUMP JUMPDEST JUMPDEST BYTE PUSH1 0xF8 SHL DUP3 DUP3 DUP2 MLOAD DUP2 LT PUSH2 0xA14 JUMPI PUSH2 0xA13 PUSH2 0x1132 JUMP JUMPDEST JUMPDEST PUSH1 0x20 ADD ADD SWAP1 PUSH31 0xFFFFFFFFFFFFFFFFFFFFFFFFFFFFFFFFFFFFFFFFFFFFFFFFFFFFFFFFFFFFFF NOT AND SWAP1 DUP2 PUSH1 0x0 BYTE SWAP1 MSTORE8 POP PUSH1 0x4 DUP6 SWAP1 SHR SWAP5 POP DUP1 PUSH2 0xA54 SWAP1 PUSH2 0x1161 JUMP JUMPDEST SWAP1 POP PUSH2 0x9BE JUMP JUMPDEST POP PUSH1 0x0 DUP5 EQ PUSH2 0xA9F JUMPI PUSH1 0x40 MLOAD PUSH32 0x8C379A000000000000000000000000000000000000000000000000000000000 DUP2 MSTORE PUSH1 0x4 ADD PUSH2 0xA96 SWAP1 PUSH2 0x11D6 JUMP JUMPDEST PUSH1 0x40 MLOAD DUP1 SWAP2 SUB SWAP1 REVERT JUMPDEST DUP1 SWAP2 POP POP SWAP3 SWAP2 POP POP JUMP JUMPDEST PUSH1 0x0 DUP1 REVERT JUMPDEST PUSH1 0x0 PUSH32 0xFFFFFFFF00000000000000000000000000000000000000000000000000000000 DUP3 AND SWAP1 POP SWAP2 SWAP1 POP JUMP JUMPDEST PUSH2 0xAE3 DUP2 PUSH2 0xAAE JUMP JUMPDEST DUP2 EQ PUSH2 0xAEE JUMPI PUSH1 0x0 DUP1 REVERT JUMPDEST POP JUMP JUMPDEST PUSH1 0x0 DUP2 CALLDATALOAD SWAP1 POP PUSH2 0xB00 DUP2 PUSH2 0xADA JUMP JUMPDEST SWAP3 SWAP2 POP POP JUMP JUMPDEST PUSH1 0x0 PUSH1 0x20 DUP3 DUP5 SUB SLT ISZERO PUSH2 0xB1C JUMPI PUSH2 0xB1B PUSH2 0xAA9 JUMP JUMPDEST JUMPDEST PUSH1 0x0 PUSH2 0xB2A DUP5 DUP3 DUP6 ADD PUSH2 0xAF1 JUMP JUMPDEST SWAP2 POP POP SWAP3 SWAP2 POP POP JUMP JUMPDEST PUSH1 0x0 DUP2 ISZERO ISZERO SWAP1 POP SWAP2 SWAP1 POP JUMP JUMPDEST PUSH2 0xB48 DUP2 PUSH2 0xB33 JUMP JUMPDEST DUP3 MSTORE POP POP JUMP JUMPDEST PUSH1 0x0 PUSH1 0x20 DUP3 ADD SWAP1 POP PUSH2 0xB63 PUSH1 0x0 DUP4 ADD DUP5 PUSH2 0xB3F JUMP JUMPDEST SWAP3 SWAP2 POP POP JUMP JUMPDEST PUSH1 0x0 DUP2 MLOAD SWAP1 POP SWAP2 SWAP1 POP JUMP JUMPDEST PUSH1 0x0 DUP3 DUP3 MSTORE PUSH1 0x20 DUP3 ADD SWAP1 POP SWAP3 SWAP2 POP POP JUMP JUMPDEST PUSH1 0x0 JUMPDEST DUP4 DUP2 LT ISZERO PUSH2 0xBA3 JUMPI DUP1 DUP3 ADD MLOAD DUP2 DUP5 ADD MSTORE PUSH1 0x20 DUP2 ADD SWAP1 POP PUSH2 0xB88 JUMP JUMPDEST DUP4 DUP2 GT ISZERO PUSH2 0xBB2 JUMPI PUSH1 0x0 DUP5 DUP5 ADD MSTORE JUMPDEST POP POP POP POP JUMP JUMPDEST PUSH1 0x0 PUSH1 0x1F NOT PUSH1 0x1F DUP4 ADD AND SWAP1 POP SWAP2 SWAP1 POP JUMP JUMPDEST PUSH1 0x0 PUSH2 0xBD4 DUP3 PUSH2 0xB69 JUMP JUMPDEST PUSH2 0xBDE DUP2 DUP6 PUSH2 0xB74 JUMP JUMPDEST SWAP4 POP PUSH2 0xBEE DUP2 DUP6 PUSH1 0x20 DUP7 ADD PUSH2 0xB85 JUMP JUMPDEST PUSH2 0xBF7 DUP2 PUSH2 0xBB8 JUMP JUMPDEST DUP5 ADD SWAP2 POP POP SWAP3 SWAP2 POP POP JUMP JUMPDEST PUSH1 0x0 PUSH1 0x20 DUP3 ADD SWAP1 POP DUP2 DUP2 SUB PUSH1 0x0 DUP4 ADD MSTORE PUSH2 0xC1C DUP2 DUP5 PUSH2 0xBC9 JUMP JUMPDEST SWAP1 POP SWAP3 SWAP2 POP POP JUMP JUMPDEST PUSH1 0x0 DUP2 SWAP1 POP SWAP2 SWAP1 POP JUMP JUMPDEST PUSH2 0xC37 DUP2 PUSH2 0xC24 JUMP JUMPDEST DUP2 EQ PUSH2 0xC42 JUMPI PUSH1 0x0 DUP1 REVERT JUMPDEST POP JUMP JUMPDEST PUSH1 0x0 DUP2 CALLDATALOAD SWAP1 POP PUSH2 0xC54 DUP2 PUSH2 0xC2E JUMP JUMPDEST SWAP3 SWAP2 POP POP JUMP JUMPDEST PUSH1 0x0 PUSH1 0x20 DUP3 DUP5 SUB SLT ISZERO PUSH2 0xC70 JUMPI PUSH2 0xC6F PUSH2 0xAA9 JUMP JUMPDEST JUMPDEST PUSH1 0x0 PUSH2 0xC7E DUP5 DUP3 DUP6 ADD PUSH2 0xC45 JUMP JUMPDEST SWAP2 POP POP SWAP3 SWAP2 POP POP JUMP JUMPDEST PUSH2 0xC90 DUP2 PUSH2 0xC24 JUMP JUMPDEST DUP3 MSTORE POP POP JUMP JUMPDEST PUSH1 0x0 PUSH1 0x20 DUP3 ADD SWAP1 POP PUSH2 0xCAB PUSH1 0x0 DUP4 ADD DUP5 PUSH2 0xC87 JUMP JUMPDEST SWAP3 SWAP2 POP POP JUMP JUMPDEST PUSH1 0x0 PUSH20 0xFFFFFFFFFFFFFFFFFFFFFFFFFFFFFFFFFFFFFFFF DUP3 AND SWAP1 POP SWAP2 SWAP1 POP JUMP JUMPDEST PUSH1 0x0 PUSH2 0xCDC DUP3 PUSH2 0xCB1 JUMP JUMPDEST SWAP1 POP SWAP2 SWAP1 POP JUMP JUMPDEST PUSH2 0xCEC DUP2 PUSH2 0xCD1 JUMP JUMPDEST DUP2 EQ PUSH2 0xCF7 JUMPI PUSH1 0x0 DUP1 REVERT JUMPDEST POP JUMP JUMPDEST PUSH1 0x0 DUP2 CALLDATALOAD SWAP1 POP PUSH2 0xD09 DUP2 PUSH2 0xCE3 JUMP JUMPDEST SWAP3 SWAP2 POP POP JUMP JUMPDEST PUSH1 0x0 DUP1 PUSH1 0x40 DUP4 DUP6 SUB SLT ISZERO PUSH2 0xD26 JUMPI PUSH2 0xD25 PUSH2 0xAA9 JUMP JUMPDEST JUMPDEST PUSH1 0x0 PUSH2 0xD34 DUP6 DUP3 DUP7 ADD PUSH2 0xC45 JUMP JUMPDEST SWAP3 POP POP PUSH1 0x20 PUSH2 0xD45 DUP6 DUP3 DUP7 ADD PUSH2 0xCFA JUMP JUMPDEST SWAP2 POP POP SWAP3 POP SWAP3 SWAP1 POP JUMP JUMPDEST PUSH2 0xD58 DUP2 PUSH2 0xB33 JUMP JUMPDEST DUP2 EQ PUSH2 0xD63 JUMPI PUSH1 0x0 DUP1 REVERT JUMPDEST POP JUMP JUMPDEST PUSH1 0x0 DUP2 CALLDATALOAD SWAP1 POP PUSH2 0xD75 DUP2 PUSH2 0xD4F JUMP JUMPDEST SWAP3 SWAP2 POP POP JUMP JUMPDEST PUSH1 0x0 DUP1 PUSH1 0x40 DUP4 DUP6 SUB SLT ISZERO PUSH2 0xD92 JUMPI PUSH2 0xD91 PUSH2 0xAA9 JUMP JUMPDEST JUMPDEST PUSH1 0x0 PUSH2 0xDA0 DUP6 DUP3 DUP7 ADD PUSH2 0xCFA JUMP JUMPDEST SWAP3 POP POP PUSH1 0x20 PUSH2 0xDB1 DUP6 DUP3 DUP7 ADD PUSH2 0xD66 JUMP JUMPDEST SWAP2 POP POP SWAP3 POP SWAP3 SWAP1 POP JUMP JUMPDEST PUSH1 0x0 PUSH1 0x20 DUP3 DUP5 SUB SLT ISZERO PUSH2 0xDD1 JUMPI PUSH2 0xDD0 PUSH2 0xAA9 JUMP JUMPDEST JUMPDEST PUSH1 0x0 PUSH2 0xDDF DUP5 DUP3 DUP6 ADD PUSH2 0xCFA JUMP JUMPDEST SWAP2 POP POP SWAP3 SWAP2 POP POP JUMP JUMPDEST PUSH32 0x4E487B7100000000000000000000000000000000000000000000000000000000 PUSH1 0x0 MSTORE PUSH1 0x21 PUSH1 0x4 MSTORE PUSH1 0x24 PUSH1 0x0 REVERT JUMPDEST PUSH1 0x4 DUP2 LT PUSH2 0xE28 JUMPI PUSH2 0xE27 PUSH2 0xDE8 JUMP JUMPDEST JUMPDEST POP JUMP JUMPDEST PUSH1 0x0 DUP2 SWAP1 POP PUSH2 0xE39 DUP3 PUSH2 0xE17 JUMP JUMPDEST SWAP2 SWAP1 POP JUMP JUMPDEST PUSH1 0x0 PUSH2 0xE49 DUP3 PUSH2 0xE2B JUMP JUMPDEST SWAP1 POP SWAP2 SWAP1 POP JUMP JUMPDEST PUSH2 0xE59 DUP2 PUSH2 0xE3E JUMP JUMPDEST DUP3 MSTORE POP POP JUMP JUMPDEST PUSH1 0x0 PUSH1 0x20 DUP3 ADD SWAP1 POP PUSH2 0xE74 PUSH1 0x0 DUP4 ADD DUP5 PUSH2 0xE50 JUMP JUMPDEST SWAP3 SWAP2 POP POP JUMP JUMPDEST PUSH32 0x416363657373436F6E74726F6C3A2063616E206F6E6C792072656E6F756E6365 PUSH1 0x0 DUP3 ADD MSTORE PUSH32 0x20726F6C657320666F722073656C660000000000000000000000000000000000 PUSH1 0x20 DUP3 ADD MSTORE POP JUMP JUMPDEST PUSH1 0x0 PUSH2 0xED6 PUSH1 0x2F DUP4 PUSH2 0xB74 JUMP JUMPDEST SWAP2 POP PUSH2 0xEE1 DUP3 PUSH2 0xE7A JUMP JUMPDEST PUSH1 0x40 DUP3 ADD SWAP1 POP SWAP2 SWAP1 POP JUMP JUMPDEST PUSH1 0x0 PUSH1 0x20 DUP3 ADD SWAP1 POP DUP2 DUP2 SUB PUSH1 0x0 DUP4 ADD MSTORE PUSH2 0xF05 DUP2 PUSH2 0xEC9 JUMP JUMPDEST SWAP1 POP SWAP2 SWAP1 POP JUMP JUMPDEST PUSH1 0x0 DUP2 SWAP1 POP SWAP3 SWAP2 POP POP JUMP JUMPDEST PUSH32 0x416363657373436F6E74726F6C3A206163636F756E7420000000000000000000 PUSH1 0x0 DUP3 ADD MSTORE POP JUMP JUMPDEST PUSH1 0x0 PUSH2 0xF4D PUSH1 0x17 DUP4 PUSH2 0xF0C JUMP JUMPDEST SWAP2 POP PUSH2 0xF58 DUP3 PUSH2 0xF17 JUMP JUMPDEST PUSH1 0x17 DUP3 ADD SWAP1 POP SWAP2 SWAP1 POP JUMP JUMPDEST PUSH1 0x0 PUSH2 0xF6E DUP3 PUSH2 0xB69 JUMP JUMPDEST PUSH2 0xF78 DUP2 DUP6 PUSH2 0xF0C JUMP JUMPDEST SWAP4 POP PUSH2 0xF88 DUP2 DUP6 PUSH1 0x20 DUP7 ADD PUSH2 0xB85 JUMP JUMPDEST DUP1 DUP5 ADD SWAP2 POP POP SWAP3 SWAP2 POP POP JUMP JUMPDEST PUSH32 0x206973206D697373696E6720726F6C6520000000000000000000000000000000 PUSH1 0x0 DUP3 ADD MSTORE POP JUMP JUMPDEST PUSH1 0x0 PUSH2 0xFCA PUSH1 0x11 DUP4 PUSH2 0xF0C JUMP JUMPDEST SWAP2 POP PUSH2 0xFD5 DUP3 PUSH2 0xF94 JUMP JUMPDEST PUSH1 0x11 DUP3 ADD SWAP1 POP SWAP2 SWAP1 POP JUMP JUMPDEST PUSH1 0x0 PUSH2 0xFEB DUP3 PUSH2 0xF40 JUMP JUMPDEST SWAP2 POP PUSH2 0xFF7 DUP3 DUP6 PUSH2 0xF63 JUMP JUMPDEST SWAP2 POP PUSH2 0x1002 DUP3 PUSH2 0xFBD JUMP JUMPDEST SWAP2 POP PUSH2 0x100E DUP3 DUP5 PUSH2 0xF63 JUMP JUMPDEST SWAP2 POP DUP2 SWAP1 POP SWAP4 SWAP3 POP POP POP JUMP JUMPDEST PUSH1 0x0 DUP2 SWAP1 POP SWAP2 SWAP1 POP JUMP JUMPDEST PUSH32 0x4E487B7100000000000000000000000000000000000000000000000000000000 PUSH1 0x0 MSTORE PUSH1 0x11 PUSH1 0x4 MSTORE PUSH1 0x24 PUSH1 0x0 REVERT JUMPDEST PUSH1 0x0 PUSH2 0x105E DUP3 PUSH2 0x101A JUMP JUMPDEST SWAP2 POP PUSH2 0x1069 DUP4 PUSH2 0x101A JUMP JUMPDEST SWAP3 POP DUP2 PUSH32 0xFFFFFFFFFFFFFFFFFFFFFFFFFFFFFFFFFFFFFFFFFFFFFFFFFFFFFFFFFFFFFFFF DIV DUP4 GT DUP3 ISZERO ISZERO AND ISZERO PUSH2 0x10A2 JUMPI PUSH2 0x10A1 PUSH2 0x1024 JUMP JUMPDEST JUMPDEST DUP3 DUP3 MUL SWAP1 POP SWAP3 SWAP2 POP POP JUMP JUMPDEST PUSH1 0x0 PUSH2 0x10B8 DUP3 PUSH2 0x101A JUMP JUMPDEST SWAP2 POP PUSH2 0x10C3 DUP4 PUSH2 0x101A JUMP JUMPDEST SWAP3 POP DUP3 PUSH32 0xFFFFFFFFFFFFFFFFFFFFFFFFFFFFFFFFFFFFFFFFFFFFFFFFFFFFFFFFFFFFFFFF SUB DUP3 GT ISZERO PUSH2 0x10F8 JUMPI PUSH2 0x10F7 PUSH2 0x1024 JUMP JUMPDEST JUMPDEST DUP3 DUP3 ADD SWAP1 POP SWAP3 SWAP2 POP POP JUMP JUMPDEST PUSH32 0x4E487B7100000000000000000000000000000000000000000000000000000000 PUSH1 0x0 MSTORE PUSH1 0x41 PUSH1 0x4 MSTORE PUSH1 0x24 PUSH1 0x0 REVERT JUMPDEST PUSH32 0x4E487B7100000000000000000000000000000000000000000000000000000000 PUSH1 0x0 MSTORE PUSH1 0x32 PUSH1 0x4 MSTORE PUSH1 0x24 PUSH1 0x0 REVERT JUMPDEST PUSH1 0x0 PUSH2 0x116C DUP3 PUSH2 0x101A JUMP JUMPDEST SWAP2 POP PUSH1 0x0 DUP3 SUB PUSH2 0x117F JUMPI PUSH2 0x117E PUSH2 0x1024 JUMP JUMPDEST JUMPDEST PUSH1 0x1 DUP3 SUB SWAP1 POP SWAP2 SWAP1 POP JUMP JUMPDEST PUSH32 0x537472696E67733A20686578206C656E67746820696E73756666696369656E74 PUSH1 0x0 DUP3 ADD MSTORE POP JUMP JUMPDEST PUSH1 0x0 PUSH2 0x11C0 PUSH1 0x20 DUP4 PUSH2 0xB74 JUMP JUMPDEST SWAP2 POP PUSH2 0x11CB DUP3 PUSH2 0x118A JUMP JUMPDEST PUSH1 0x20 DUP3 ADD SWAP1 POP SWAP2 SWAP1 POP JUMP JUMPDEST PUSH1 0x0 PUSH1 0x20 DUP3 ADD SWAP1 POP DUP2 DUP2 SUB PUSH1 0x0 DUP4 ADD MSTORE PUSH2 0x11EF DUP2 PUSH2 0x11B3 JUMP JUMPDEST SWAP1 POP SWAP2 SWAP1 POP JUMP INVALID LOG2 PUSH5 0x6970667358 0x22 SLT KECCAK256 PUSH1 0x57 PUSH21 0x3B8795ABD28CA31A4849E03DE0E440DC7636D48215 MSIZE BLOCKHASH 0x4E PUSH11 0xDAF5445D64736F6C634300 ADDMOD 0xD STOP CALLER "
				},
				"gasEstimates": {
					"creation": {
						"codeDepositCost": "930400",
						"executionCost": "5974",
						"totalCost": "936374"
					},
					"external": {
						"DAO_ROLE()": "417",
						"DEFAULT_ADMIN_ROLE()": "357",
						"addVoter(address)": "3082",
						"getRoleAdmin(bytes32)": "infinite",
						"grantRole(bytes32,address)": "infinite",
						"hasRole(bytes32,address)": "3140",
						"print()": "infinite",
						"renounceRole(bytes32,address)": "infinite",
						"revokeRole(bytes32,address)": "infinite",
						"supportsInterface(bytes4)": "728",
						"vote(address,bool)": "27416"
					}
				},
				"methodIdentifiers": {
					"DAO_ROLE()": "e9c26518",
					"DEFAULT_ADMIN_ROLE()": "a217fddf",
					"addVoter(address)": "f4ab9adf",
					"getRoleAdmin(bytes32)": "248a9ca3",
					"grantRole(bytes32,address)": "2f2ff15d",
					"hasRole(bytes32,address)": "91d14854",
					"print()": "13bdfacd",
					"renounceRole(bytes32,address)": "36568abe",
					"revokeRole(bytes32,address)": "d547741f",
					"supportsInterface(bytes4)": "01ffc9a7",
					"vote(address,bool)": "bd041c4d"
				}
			},
			"userdoc": {
				"kind": "user",
				"methods": {},
				"version": 1
			}
		}
	}
}