{
	"src/contracts/Desca.sol": {
		"DeSCA": {
			"abi": [
				{
					"anonymous": false,
					"inputs": [
						{
							"indexed": true,
							"internalType": "bytes32",
							"name": "role",
							"type": "bytes32"
						},
						{
							"indexed": true,
							"internalType": "bytes32",
							"name": "previousAdminRole",
							"type": "bytes32"
						},
						{
							"indexed": true,
							"internalType": "bytes32",
							"name": "newAdminRole",
							"type": "bytes32"
						}
					],
					"name": "RoleAdminChanged",
					"type": "event"
				},
				{
					"anonymous": false,
					"inputs": [
						{
							"indexed": true,
							"internalType": "bytes32",
							"name": "role",
							"type": "bytes32"
						},
						{
							"indexed": true,
							"internalType": "address",
							"name": "account",
							"type": "address"
						},
						{
							"indexed": true,
							"internalType": "address",
							"name": "sender",
							"type": "address"
						}
					],
					"name": "RoleGranted",
					"type": "event"
				},
				{
					"anonymous": false,
					"inputs": [
						{
							"indexed": true,
							"internalType": "bytes32",
							"name": "role",
							"type": "bytes32"
						},
						{
							"indexed": true,
							"internalType": "address",
							"name": "account",
							"type": "address"
						},
						{
							"indexed": true,
							"internalType": "address",
							"name": "sender",
							"type": "address"
						}
					],
					"name": "RoleRevoked",
					"type": "event"
				},
				{
					"inputs": [],
					"name": "DAO_ROLE",
					"outputs": [
						{
							"internalType": "bytes32",
							"name": "",
							"type": "bytes32"
						}
					],
					"stateMutability": "view",
					"type": "function"
				},
				{
					"inputs": [],
					"name": "DEFAULT_ADMIN_ROLE",
					"outputs": [
						{
							"internalType": "bytes32",
							"name": "",
							"type": "bytes32"
						}
					],
					"stateMutability": "view",
					"type": "function"
				},
				{
					"inputs": [
						{
							"internalType": "address",
							"name": "voter",
							"type": "address"
						}
					],
					"name": "addVoter",
					"outputs": [
						{
							"internalType": "enum DeSCA.VoterValue",
							"name": "",
							"type": "uint8"
						}
					],
					"stateMutability": "view",
					"type": "function"
				},
				{
					"inputs": [
						{
							"internalType": "bytes32",
							"name": "role",
							"type": "bytes32"
						}
					],
					"name": "getRoleAdmin",
					"outputs": [
						{
							"internalType": "bytes32",
							"name": "",
							"type": "bytes32"
						}
					],
					"stateMutability": "view",
					"type": "function"
				},
				{
					"inputs": [
						{
							"internalType": "bytes32",
							"name": "role",
							"type": "bytes32"
						},
						{
							"internalType": "address",
							"name": "account",
							"type": "address"
						}
					],
					"name": "grantRole",
					"outputs": [],
					"stateMutability": "nonpayable",
					"type": "function"
				},
				{
					"inputs": [
						{
							"internalType": "bytes32",
							"name": "role",
							"type": "bytes32"
						},
						{
							"internalType": "address",
							"name": "account",
							"type": "address"
						}
					],
					"name": "hasRole",
					"outputs": [
						{
							"internalType": "bool",
							"name": "",
							"type": "bool"
						}
					],
					"stateMutability": "view",
					"type": "function"
				},
				{
					"inputs": [
						{
							"internalType": "address",
							"name": "voter",
							"type": "address"
						}
					],
					"name": "print",
					"outputs": [
						{
							"internalType": "enum DeSCA.VoterValue",
							"name": "",
							"type": "uint8"
						}
					],
					"stateMutability": "view",
					"type": "function"
				},
				{
					"inputs": [
						{
							"internalType": "bytes32",
							"name": "role",
							"type": "bytes32"
						},
						{
							"internalType": "address",
							"name": "account",
							"type": "address"
						}
					],
					"name": "renounceRole",
					"outputs": [],
					"stateMutability": "nonpayable",
					"type": "function"
				},
				{
					"inputs": [
						{
							"internalType": "bytes32",
							"name": "role",
							"type": "bytes32"
						},
						{
							"internalType": "address",
							"name": "account",
							"type": "address"
						}
					],
					"name": "revokeRole",
					"outputs": [],
					"stateMutability": "nonpayable",
					"type": "function"
				},
				{
					"inputs": [
						{
							"internalType": "bytes4",
							"name": "interfaceId",
							"type": "bytes4"
						}
					],
					"name": "supportsInterface",
					"outputs": [
						{
							"internalType": "bool",
							"name": "",
							"type": "bool"
						}
					],
					"stateMutability": "view",
					"type": "function"
				},
				{
					"inputs": [
						{
							"internalType": "address",
							"name": "voter",
							"type": "address"
						},
						{
							"internalType": "bool",
							"name": "vote",
							"type": "bool"
						}
					],
					"name": "vote",
					"outputs": [],
					"stateMutability": "nonpayable",
					"type": "function"
				}
			],
			"devdoc": {
				"kind": "dev",
				"methods": {
					"getRoleAdmin(bytes32)": {
						"details": "Returns the admin role that controls `role`. See {grantRole} and {revokeRole}. To change a role's admin, use {_setRoleAdmin}."
					},
					"grantRole(bytes32,address)": {
						"details": "Grants `role` to `account`. If `account` had not been already granted `role`, emits a {RoleGranted} event. Requirements: - the caller must have ``role``'s admin role."
					},
					"hasRole(bytes32,address)": {
						"details": "Returns `true` if `account` has been granted `role`."
					},
					"renounceRole(bytes32,address)": {
						"details": "Revokes `role` from the calling account. Roles are often managed via {grantRole} and {revokeRole}: this function's purpose is to provide a mechanism for accounts to lose their privileges if they are compromised (such as when a trusted device is misplaced). If the calling account had been revoked `role`, emits a {RoleRevoked} event. Requirements: - the caller must be `account`."
					},
					"revokeRole(bytes32,address)": {
						"details": "Revokes `role` from `account`. If `account` had been granted `role`, emits a {RoleRevoked} event. Requirements: - the caller must have ``role``'s admin role."
					},
					"supportsInterface(bytes4)": {
						"details": "See {IERC165-supportsInterface}."
					}
				},
				"version": 1
			},
			"evm": {
				"assembly": "    /* \"src/contracts/Desca.sol\":147:1362  contract DeSCA is AccessControl {... */\n  mstore(0x40, 0x80)\n    /* \"src/contracts/Desca.sol\":634:635  0 */\n  0x00\n    /* \"src/contracts/Desca.sol\":616:635  uint num_voters = 0 */\n  0x01\n  sstore\n    /* \"src/contracts/Desca.sol\":147:1362  contract DeSCA is AccessControl {... */\n  callvalue\n  dup1\n  iszero\n  tag_1\n  jumpi\n  0x00\n  dup1\n  revert\ntag_1:\n  pop\n  dataSize(sub_0)\n  dup1\n  dataOffset(sub_0)\n  0x00\n  codecopy\n  0x00\n  return\nstop\n\nsub_0: assembly {\n        /* \"src/contracts/Desca.sol\":147:1362  contract DeSCA is AccessControl {... */\n      mstore(0x40, 0x80)\n      callvalue\n      dup1\n      iszero\n      tag_1\n      jumpi\n      0x00\n      dup1\n      revert\n    tag_1:\n      pop\n      jumpi(tag_2, lt(calldatasize, 0x04))\n      shr(0xe0, calldataload(0x00))\n      dup1\n      0x91d14854\n      gt\n      tag_14\n      jumpi\n      dup1\n      0x91d14854\n      eq\n      tag_8\n      jumpi\n      dup1\n      0xa217fddf\n      eq\n      tag_9\n      jumpi\n      dup1\n      0xbd041c4d\n      eq\n      tag_10\n      jumpi\n      dup1\n      0xd547741f\n      eq\n      tag_11\n      jumpi\n      dup1\n      0xe9c26518\n      eq\n      tag_12\n      jumpi\n      dup1\n      0xf4ab9adf\n      eq\n      tag_13\n      jumpi\n      jump(tag_2)\n    tag_14:\n      dup1\n      0x01ffc9a7\n      eq\n      tag_3\n      jumpi\n      dup1\n      0x248a9ca3\n      eq\n      tag_4\n      jumpi\n      dup1\n      0x24d427a9\n      eq\n      tag_5\n      jumpi\n      dup1\n      0x2f2ff15d\n      eq\n      tag_6\n      jumpi\n      dup1\n      0x36568abe\n      eq\n      tag_7\n      jumpi\n    tag_2:\n      0x00\n      dup1\n      revert\n        /* \"@openzeppelin/contracts/access/AccessControl.sol\":2620:2822  function supportsInterface(bytes4 interfaceId) public view virtual override returns (bool) {... */\n    tag_3:\n      tag_15\n      0x04\n      dup1\n      calldatasize\n      sub\n      dup2\n      add\n      swap1\n      tag_16\n      swap2\n      swap1\n      tag_17\n      jump\t// in\n    tag_16:\n      tag_18\n      jump\t// in\n    tag_15:\n      mload(0x40)\n      tag_19\n      swap2\n      swap1\n      tag_20\n      jump\t// in\n    tag_19:\n      mload(0x40)\n      dup1\n      swap2\n      sub\n      swap1\n      return\n        /* \"@openzeppelin/contracts/access/AccessControl.sol\":4008:4137  function getRoleAdmin(bytes32 role) public view virtual override returns (bytes32) {... */\n    tag_4:\n      tag_21\n      0x04\n      dup1\n      calldatasize\n      sub\n      dup2\n      add\n      swap1\n      tag_22\n      swap2\n      swap1\n      tag_23\n      jump\t// in\n    tag_22:\n      tag_24\n      jump\t// in\n    tag_21:\n      mload(0x40)\n      tag_25\n      swap2\n      swap1\n      tag_26\n      jump\t// in\n    tag_25:\n      mload(0x40)\n      dup1\n      swap2\n      sub\n      swap1\n      return\n        /* \"src/contracts/Desca.sol\":992:1097  function print(address voter) public view returns (VoterValue) {... */\n    tag_5:\n      tag_27\n      0x04\n      dup1\n      calldatasize\n      sub\n      dup2\n      add\n      swap1\n      tag_28\n      swap2\n      swap1\n      tag_29\n      jump\t// in\n    tag_28:\n      tag_30\n      jump\t// in\n    tag_27:\n      mload(0x40)\n      tag_31\n      swap2\n      swap1\n      tag_32\n      jump\t// in\n    tag_31:\n      mload(0x40)\n      dup1\n      swap2\n      sub\n      swap1\n      return\n        /* \"@openzeppelin/contracts/access/AccessControl.sol\":4387:4532  function grantRole(bytes32 role, address account) public virtual override onlyRole(getRoleAdmin(role)) {... */\n    tag_6:\n      tag_33\n      0x04\n      dup1\n      calldatasize\n      sub\n      dup2\n      add\n      swap1\n      tag_34\n      swap2\n      swap1\n      tag_35\n      jump\t// in\n    tag_34:\n      tag_36\n      jump\t// in\n    tag_33:\n      stop\n        /* \"@openzeppelin/contracts/access/AccessControl.sol\":5404:5618  function renounceRole(bytes32 role, address account) public virtual override {... */\n    tag_7:\n      tag_37\n      0x04\n      dup1\n      calldatasize\n      sub\n      dup2\n      add\n      swap1\n      tag_38\n      swap2\n      swap1\n      tag_35\n      jump\t// in\n    tag_38:\n      tag_39\n      jump\t// in\n    tag_37:\n      stop\n        /* \"@openzeppelin/contracts/access/AccessControl.sol\":2909:3054  function hasRole(bytes32 role, address account) public view virtual override returns (bool) {... */\n    tag_8:\n      tag_40\n      0x04\n      dup1\n      calldatasize\n      sub\n      dup2\n      add\n      swap1\n      tag_41\n      swap2\n      swap1\n      tag_35\n      jump\t// in\n    tag_41:\n      tag_42\n      jump\t// in\n    tag_40:\n      mload(0x40)\n      tag_43\n      swap2\n      swap1\n      tag_20\n      jump\t// in\n    tag_43:\n      mload(0x40)\n      dup1\n      swap2\n      sub\n      swap1\n      return\n        /* \"@openzeppelin/contracts/access/AccessControl.sol\":2027:2076  bytes32 public constant DEFAULT_ADMIN_ROLE = 0x00 */\n    tag_9:\n      tag_44\n      tag_45\n      jump\t// in\n    tag_44:\n      mload(0x40)\n      tag_46\n      swap2\n      swap1\n      tag_26\n      jump\t// in\n    tag_46:\n      mload(0x40)\n      dup1\n      swap2\n      sub\n      swap1\n      return\n        /* \"src/contracts/Desca.sol\":805:986  function vote(address voter, bool vote) public {... */\n    tag_10:\n      tag_47\n      0x04\n      dup1\n      calldatasize\n      sub\n      dup2\n      add\n      swap1\n      tag_48\n      swap2\n      swap1\n      tag_49\n      jump\t// in\n    tag_48:\n      tag_50\n      jump\t// in\n    tag_47:\n      stop\n        /* \"@openzeppelin/contracts/access/AccessControl.sol\":4766:4913  function revokeRole(bytes32 role, address account) public virtual override onlyRole(getRoleAdmin(role)) {... */\n    tag_11:\n      tag_51\n      0x04\n      dup1\n      calldatasize\n      sub\n      dup2\n      add\n      swap1\n      tag_52\n      swap2\n      swap1\n      tag_35\n      jump\t// in\n    tag_52:\n      tag_53\n      jump\t// in\n    tag_51:\n      stop\n        /* \"src/contracts/Desca.sol\":499:555  bytes32 public constant DAO_ROLE = keccak256(\"DAO_ROLE\") */\n    tag_12:\n      tag_54\n      tag_55\n      jump\t// in\n    tag_54:\n      mload(0x40)\n      tag_56\n      swap2\n      swap1\n      tag_26\n      jump\t// in\n    tag_56:\n      mload(0x40)\n      dup1\n      swap2\n      sub\n      swap1\n      return\n        /* \"src/contracts/Desca.sol\":691:799  function addVoter(address voter) public view returns (VoterValue) {... */\n    tag_13:\n      tag_57\n      0x04\n      dup1\n      calldatasize\n      sub\n      dup2\n      add\n      swap1\n      tag_58\n      swap2\n      swap1\n      tag_29\n      jump\t// in\n    tag_58:\n      tag_59\n      jump\t// in\n    tag_57:\n      mload(0x40)\n      tag_60\n      swap2\n      swap1\n      tag_32\n      jump\t// in\n    tag_60:\n      mload(0x40)\n      dup1\n      swap2\n      sub\n      swap1\n      return\n        /* \"@openzeppelin/contracts/access/AccessControl.sol\":2620:2822  function supportsInterface(bytes4 interfaceId) public view virtual override returns (bool) {... */\n    tag_18:\n        /* \"@openzeppelin/contracts/access/AccessControl.sol\":2705:2709  bool */\n      0x00\n        /* \"@openzeppelin/contracts/access/AccessControl.sol\":2743:2775  type(IAccessControl).interfaceId */\n      0x7965db0b00000000000000000000000000000000000000000000000000000000\n        /* \"@openzeppelin/contracts/access/AccessControl.sol\":2728:2775  interfaceId == type(IAccessControl).interfaceId */\n      not(0xffffffffffffffffffffffffffffffffffffffffffffffffffffffff)\n      and\n        /* \"@openzeppelin/contracts/access/AccessControl.sol\":2728:2739  interfaceId */\n      dup3\n        /* \"@openzeppelin/contracts/access/AccessControl.sol\":2728:2775  interfaceId == type(IAccessControl).interfaceId */\n      not(0xffffffffffffffffffffffffffffffffffffffffffffffffffffffff)\n      and\n      eq\n        /* \"@openzeppelin/contracts/access/AccessControl.sol\":2728:2815  interfaceId == type(IAccessControl).interfaceId || super.supportsInterface(interfaceId) */\n      dup1\n      tag_62\n      jumpi\n      pop\n        /* \"@openzeppelin/contracts/access/AccessControl.sol\":2779:2815  super.supportsInterface(interfaceId) */\n      tag_63\n        /* \"@openzeppelin/contracts/access/AccessControl.sol\":2803:2814  interfaceId */\n      dup3\n        /* \"@openzeppelin/contracts/access/AccessControl.sol\":2779:2802  super.supportsInterface */\n      tag_64\n        /* \"@openzeppelin/contracts/access/AccessControl.sol\":2779:2815  super.supportsInterface(interfaceId) */\n      jump\t// in\n    tag_63:\n        /* \"@openzeppelin/contracts/access/AccessControl.sol\":2728:2815  interfaceId == type(IAccessControl).interfaceId || super.supportsInterface(interfaceId) */\n    tag_62:\n        /* \"@openzeppelin/contracts/access/AccessControl.sol\":2721:2815  return interfaceId == type(IAccessControl).interfaceId || super.supportsInterface(interfaceId) */\n      swap1\n      pop\n        /* \"@openzeppelin/contracts/access/AccessControl.sol\":2620:2822  function supportsInterface(bytes4 interfaceId) public view virtual override returns (bool) {... */\n      swap2\n      swap1\n      pop\n      jump\t// out\n        /* \"@openzeppelin/contracts/access/AccessControl.sol\":4008:4137  function getRoleAdmin(bytes32 role) public view virtual override returns (bytes32) {... */\n    tag_24:\n        /* \"@openzeppelin/contracts/access/AccessControl.sol\":4082:4089  bytes32 */\n      0x00\n        /* \"@openzeppelin/contracts/access/AccessControl.sol\":4108:4114  _roles */\n      dup1\n        /* \"@openzeppelin/contracts/access/AccessControl.sol\":4108:4120  _roles[role] */\n      0x00\n        /* \"@openzeppelin/contracts/access/AccessControl.sol\":4115:4119  role */\n      dup4\n        /* \"@openzeppelin/contracts/access/AccessControl.sol\":4108:4120  _roles[role] */\n      dup2\n      mstore\n      0x20\n      add\n      swap1\n      dup2\n      mstore\n      0x20\n      add\n      0x00\n      keccak256\n        /* \"@openzeppelin/contracts/access/AccessControl.sol\":4108:4130  _roles[role].adminRole */\n      0x01\n      add\n      sload\n        /* \"@openzeppelin/contracts/access/AccessControl.sol\":4101:4130  return _roles[role].adminRole */\n      swap1\n      pop\n        /* \"@openzeppelin/contracts/access/AccessControl.sol\":4008:4137  function getRoleAdmin(bytes32 role) public view virtual override returns (bytes32) {... */\n      swap2\n      swap1\n      pop\n      jump\t// out\n        /* \"src/contracts/Desca.sol\":992:1097  function print(address voter) public view returns (VoterValue) {... */\n    tag_30:\n        /* \"src/contracts/Desca.sol\":1043:1053  VoterValue */\n      0x00\n        /* \"src/contracts/Desca.sol\":1072:1083  voter_votes */\n      0x02\n        /* \"src/contracts/Desca.sol\":1072:1090  voter_votes[voter] */\n      0x00\n        /* \"src/contracts/Desca.sol\":1084:1089  voter */\n      dup4\n        /* \"src/contracts/Desca.sol\":1072:1090  voter_votes[voter] */\n      0xffffffffffffffffffffffffffffffffffffffff\n      and\n      0xffffffffffffffffffffffffffffffffffffffff\n      and\n      dup2\n      mstore\n      0x20\n      add\n      swap1\n      dup2\n      mstore\n      0x20\n      add\n      0x00\n      keccak256\n      0x00\n      swap1\n      sload\n      swap1\n      0x0100\n      exp\n      swap1\n      div\n      0xff\n      and\n        /* \"src/contracts/Desca.sol\":1065:1090  return voter_votes[voter] */\n      swap1\n      pop\n        /* \"src/contracts/Desca.sol\":992:1097  function print(address voter) public view returns (VoterValue) {... */\n      swap2\n      swap1\n      pop\n      jump\t// out\n        /* \"@openzeppelin/contracts/access/AccessControl.sol\":4387:4532  function grantRole(bytes32 role, address account) public virtual override onlyRole(getRoleAdmin(role)) {... */\n    tag_36:\n        /* \"@openzeppelin/contracts/access/AccessControl.sol\":4470:4488  getRoleAdmin(role) */\n      tag_67\n        /* \"@openzeppelin/contracts/access/AccessControl.sol\":4483:4487  role */\n      dup3\n        /* \"@openzeppelin/contracts/access/AccessControl.sol\":4470:4482  getRoleAdmin */\n      tag_24\n        /* \"@openzeppelin/contracts/access/AccessControl.sol\":4470:4488  getRoleAdmin(role) */\n      jump\t// in\n    tag_67:\n        /* \"@openzeppelin/contracts/access/AccessControl.sol\":2505:2535  _checkRole(role, _msgSender()) */\n      tag_69\n        /* \"@openzeppelin/contracts/access/AccessControl.sol\":2516:2520  role */\n      dup2\n        /* \"@openzeppelin/contracts/access/AccessControl.sol\":2522:2534  _msgSender() */\n      tag_70\n        /* \"@openzeppelin/contracts/access/AccessControl.sol\":2522:2532  _msgSender */\n      tag_71\n        /* \"@openzeppelin/contracts/access/AccessControl.sol\":2522:2534  _msgSender() */\n      jump\t// in\n    tag_70:\n        /* \"@openzeppelin/contracts/access/AccessControl.sol\":2505:2515  _checkRole */\n      tag_72\n        /* \"@openzeppelin/contracts/access/AccessControl.sol\":2505:2535  _checkRole(role, _msgSender()) */\n      jump\t// in\n    tag_69:\n        /* \"@openzeppelin/contracts/access/AccessControl.sol\":4500:4525  _grantRole(role, account) */\n      tag_74\n        /* \"@openzeppelin/contracts/access/AccessControl.sol\":4511:4515  role */\n      dup4\n        /* \"@openzeppelin/contracts/access/AccessControl.sol\":4517:4524  account */\n      dup4\n        /* \"@openzeppelin/contracts/access/AccessControl.sol\":4500:4510  _grantRole */\n      tag_75\n        /* \"@openzeppelin/contracts/access/AccessControl.sol\":4500:4525  _grantRole(role, account) */\n      jump\t// in\n    tag_74:\n        /* \"@openzeppelin/contracts/access/AccessControl.sol\":4387:4532  function grantRole(bytes32 role, address account) public virtual override onlyRole(getRoleAdmin(role)) {... */\n      pop\n      pop\n      pop\n      jump\t// out\n        /* \"@openzeppelin/contracts/access/AccessControl.sol\":5404:5618  function renounceRole(bytes32 role, address account) public virtual override {... */\n    tag_39:\n        /* \"@openzeppelin/contracts/access/AccessControl.sol\":5510:5522  _msgSender() */\n      tag_77\n        /* \"@openzeppelin/contracts/access/AccessControl.sol\":5510:5520  _msgSender */\n      tag_71\n        /* \"@openzeppelin/contracts/access/AccessControl.sol\":5510:5522  _msgSender() */\n      jump\t// in\n    tag_77:\n        /* \"@openzeppelin/contracts/access/AccessControl.sol\":5499:5522  account == _msgSender() */\n      0xffffffffffffffffffffffffffffffffffffffff\n      and\n        /* \"@openzeppelin/contracts/access/AccessControl.sol\":5499:5506  account */\n      dup2\n        /* \"@openzeppelin/contracts/access/AccessControl.sol\":5499:5522  account == _msgSender() */\n      0xffffffffffffffffffffffffffffffffffffffff\n      and\n      eq\n        /* \"@openzeppelin/contracts/access/AccessControl.sol\":5491:5574  require(account == _msgSender(), \"AccessControl: can only renounce roles for self\") */\n      tag_78\n      jumpi\n      mload(0x40)\n      0x08c379a000000000000000000000000000000000000000000000000000000000\n      dup2\n      mstore\n      0x04\n      add\n      tag_79\n      swap1\n      tag_80\n      jump\t// in\n    tag_79:\n      mload(0x40)\n      dup1\n      swap2\n      sub\n      swap1\n      revert\n    tag_78:\n        /* \"@openzeppelin/contracts/access/AccessControl.sol\":5585:5611  _revokeRole(role, account) */\n      tag_81\n        /* \"@openzeppelin/contracts/access/AccessControl.sol\":5597:5601  role */\n      dup3\n        /* \"@openzeppelin/contracts/access/AccessControl.sol\":5603:5610  account */\n      dup3\n        /* \"@openzeppelin/contracts/access/AccessControl.sol\":5585:5596  _revokeRole */\n      tag_82\n        /* \"@openzeppelin/contracts/access/AccessControl.sol\":5585:5611  _revokeRole(role, account) */\n      jump\t// in\n    tag_81:\n        /* \"@openzeppelin/contracts/access/AccessControl.sol\":5404:5618  function renounceRole(bytes32 role, address account) public virtual override {... */\n      pop\n      pop\n      jump\t// out\n        /* \"@openzeppelin/contracts/access/AccessControl.sol\":2909:3054  function hasRole(bytes32 role, address account) public view virtual override returns (bool) {... */\n    tag_42:\n        /* \"@openzeppelin/contracts/access/AccessControl.sol\":2995:2999  bool */\n      0x00\n        /* \"@openzeppelin/contracts/access/AccessControl.sol\":3018:3024  _roles */\n      dup1\n        /* \"@openzeppelin/contracts/access/AccessControl.sol\":3018:3030  _roles[role] */\n      0x00\n        /* \"@openzeppelin/contracts/access/AccessControl.sol\":3025:3029  role */\n      dup5\n        /* \"@openzeppelin/contracts/access/AccessControl.sol\":3018:3030  _roles[role] */\n      dup2\n      mstore\n      0x20\n      add\n      swap1\n      dup2\n      mstore\n      0x20\n      add\n      0x00\n      keccak256\n        /* \"@openzeppelin/contracts/access/AccessControl.sol\":3018:3038  _roles[role].members */\n      0x00\n      add\n        /* \"@openzeppelin/contracts/access/AccessControl.sol\":3018:3047  _roles[role].members[account] */\n      0x00\n        /* \"@openzeppelin/contracts/access/AccessControl.sol\":3039:3046  account */\n      dup4\n        /* \"@openzeppelin/contracts/access/AccessControl.sol\":3018:3047  _roles[role].members[account] */\n      0xffffffffffffffffffffffffffffffffffffffff\n      and\n      0xffffffffffffffffffffffffffffffffffffffff\n      and\n      dup2\n      mstore\n      0x20\n      add\n      swap1\n      dup2\n      mstore\n      0x20\n      add\n      0x00\n      keccak256\n      0x00\n      swap1\n      sload\n      swap1\n      0x0100\n      exp\n      swap1\n      div\n      0xff\n      and\n        /* \"@openzeppelin/contracts/access/AccessControl.sol\":3011:3047  return _roles[role].members[account] */\n      swap1\n      pop\n        /* \"@openzeppelin/contracts/access/AccessControl.sol\":2909:3054  function hasRole(bytes32 role, address account) public view virtual override returns (bool) {... */\n      swap3\n      swap2\n      pop\n      pop\n      jump\t// out\n        /* \"@openzeppelin/contracts/access/AccessControl.sol\":2027:2076  bytes32 public constant DEFAULT_ADMIN_ROLE = 0x00 */\n    tag_45:\n        /* \"@openzeppelin/contracts/access/AccessControl.sol\":2072:2076  0x00 */\n      0x00\n        /* \"@openzeppelin/contracts/access/AccessControl.sol\":2027:2076  bytes32 public constant DEFAULT_ADMIN_ROLE = 0x00 */\n      dup1\n      shl\n      dup2\n      jump\t// out\n        /* \"src/contracts/Desca.sol\":805:986  function vote(address voter, bool vote) public {... */\n    tag_50:\n        /* \"src/contracts/Desca.sol\":888:908  VoterValue.NOT_VOTED */\n      0x01\n        /* \"src/contracts/Desca.sol\":866:908  voter_votes[voter] == VoterValue.NOT_VOTED */\n      0x03\n      dup2\n      gt\n      iszero\n      tag_85\n      jumpi\n      tag_86\n      tag_87\n      jump\t// in\n    tag_86:\n    tag_85:\n        /* \"src/contracts/Desca.sol\":866:877  voter_votes */\n      0x02\n        /* \"src/contracts/Desca.sol\":866:884  voter_votes[voter] */\n      0x00\n        /* \"src/contracts/Desca.sol\":878:883  voter */\n      dup5\n        /* \"src/contracts/Desca.sol\":866:884  voter_votes[voter] */\n      0xffffffffffffffffffffffffffffffffffffffff\n      and\n      0xffffffffffffffffffffffffffffffffffffffff\n      and\n      dup2\n      mstore\n      0x20\n      add\n      swap1\n      dup2\n      mstore\n      0x20\n      add\n      0x00\n      keccak256\n      0x00\n      swap1\n      sload\n      swap1\n      0x0100\n      exp\n      swap1\n      div\n      0xff\n      and\n        /* \"src/contracts/Desca.sol\":866:908  voter_votes[voter] == VoterValue.NOT_VOTED */\n      0x03\n      dup2\n      gt\n      iszero\n      tag_88\n      jumpi\n      tag_89\n      tag_87\n      jump\t// in\n    tag_89:\n    tag_88:\n      sub\n        /* \"src/contracts/Desca.sol\":862:980  if (voter_votes[voter] == VoterValue.NOT_VOTED) {... */\n      tag_90\n      jumpi\n        /* \"src/contracts/Desca.sol\":956:960  vote */\n      dup1\n        /* \"src/contracts/Desca.sol\":956:968  vote ? 2 : 3 */\n      tag_91\n      jumpi\n        /* \"src/contracts/Desca.sol\":967:968  3 */\n      0x03\n        /* \"src/contracts/Desca.sol\":956:968  vote ? 2 : 3 */\n      jump(tag_92)\n    tag_91:\n        /* \"src/contracts/Desca.sol\":963:964  2 */\n      0x02\n        /* \"src/contracts/Desca.sol\":956:968  vote ? 2 : 3 */\n    tag_92:\n        /* \"src/contracts/Desca.sol\":945:969  VoterValue(vote ? 2 : 3) */\n      0xff\n      and\n      0x03\n      dup2\n      gt\n      iszero\n      tag_93\n      jumpi\n      tag_94\n      tag_87\n      jump\t// in\n    tag_94:\n    tag_93:\n        /* \"src/contracts/Desca.sol\":924:935  voter_votes */\n      0x02\n        /* \"src/contracts/Desca.sol\":924:942  voter_votes[voter] */\n      0x00\n        /* \"src/contracts/Desca.sol\":936:941  voter */\n      dup5\n        /* \"src/contracts/Desca.sol\":924:942  voter_votes[voter] */\n      0xffffffffffffffffffffffffffffffffffffffff\n      and\n      0xffffffffffffffffffffffffffffffffffffffff\n      and\n      dup2\n      mstore\n      0x20\n      add\n      swap1\n      dup2\n      mstore\n      0x20\n      add\n      0x00\n      keccak256\n      0x00\n        /* \"src/contracts/Desca.sol\":924:969  voter_votes[voter] = VoterValue(vote ? 2 : 3) */\n      0x0100\n      exp\n      dup2\n      sload\n      dup2\n      0xff\n      mul\n      not\n      and\n      swap1\n      dup4\n      0x03\n      dup2\n      gt\n      iszero\n      tag_95\n      jumpi\n      tag_96\n      tag_87\n      jump\t// in\n    tag_96:\n    tag_95:\n      mul\n      or\n      swap1\n      sstore\n      pop\n        /* \"src/contracts/Desca.sol\":862:980  if (voter_votes[voter] == VoterValue.NOT_VOTED) {... */\n    tag_90:\n        /* \"src/contracts/Desca.sol\":805:986  function vote(address voter, bool vote) public {... */\n      pop\n      pop\n      jump\t// out\n        /* \"@openzeppelin/contracts/access/AccessControl.sol\":4766:4913  function revokeRole(bytes32 role, address account) public virtual override onlyRole(getRoleAdmin(role)) {... */\n    tag_53:\n        /* \"@openzeppelin/contracts/access/AccessControl.sol\":4850:4868  getRoleAdmin(role) */\n      tag_97\n        /* \"@openzeppelin/contracts/access/AccessControl.sol\":4863:4867  role */\n      dup3\n        /* \"@openzeppelin/contracts/access/AccessControl.sol\":4850:4862  getRoleAdmin */\n      tag_24\n        /* \"@openzeppelin/contracts/access/AccessControl.sol\":4850:4868  getRoleAdmin(role) */\n      jump\t// in\n    tag_97:\n        /* \"@openzeppelin/contracts/access/AccessControl.sol\":2505:2535  _checkRole(role, _msgSender()) */\n      tag_99\n        /* \"@openzeppelin/contracts/access/AccessControl.sol\":2516:2520  role */\n      dup2\n        /* \"@openzeppelin/contracts/access/AccessControl.sol\":2522:2534  _msgSender() */\n      tag_100\n        /* \"@openzeppelin/contracts/access/AccessControl.sol\":2522:2532  _msgSender */\n      tag_71\n        /* \"@openzeppelin/contracts/access/AccessControl.sol\":2522:2534  _msgSender() */\n      jump\t// in\n    tag_100:\n        /* \"@openzeppelin/contracts/access/AccessControl.sol\":2505:2515  _checkRole */\n      tag_72\n        /* \"@openzeppelin/contracts/access/AccessControl.sol\":2505:2535  _checkRole(role, _msgSender()) */\n      jump\t// in\n    tag_99:\n        /* \"@openzeppelin/contracts/access/AccessControl.sol\":4880:4906  _revokeRole(role, account) */\n      tag_102\n        /* \"@openzeppelin/contracts/access/AccessControl.sol\":4892:4896  role */\n      dup4\n        /* \"@openzeppelin/contracts/access/AccessControl.sol\":4898:4905  account */\n      dup4\n        /* \"@openzeppelin/contracts/access/AccessControl.sol\":4880:4891  _revokeRole */\n      tag_82\n        /* \"@openzeppelin/contracts/access/AccessControl.sol\":4880:4906  _revokeRole(role, account) */\n      jump\t// in\n    tag_102:\n        /* \"@openzeppelin/contracts/access/AccessControl.sol\":4766:4913  function revokeRole(bytes32 role, address account) public virtual override onlyRole(getRoleAdmin(role)) {... */\n      pop\n      pop\n      pop\n      jump\t// out\n        /* \"src/contracts/Desca.sol\":499:555  bytes32 public constant DAO_ROLE = keccak256(\"DAO_ROLE\") */\n    tag_55:\n        /* \"src/contracts/Desca.sol\":534:555  keccak256(\"DAO_ROLE\") */\n      0x3b5d4cc60d3ec3516ee8ae083bd60934f6eb2a6c54b1229985c41bfb092b2603\n        /* \"src/contracts/Desca.sol\":499:555  bytes32 public constant DAO_ROLE = keccak256(\"DAO_ROLE\") */\n      dup2\n      jump\t// out\n        /* \"src/contracts/Desca.sol\":691:799  function addVoter(address voter) public view returns (VoterValue) {... */\n    tag_59:\n        /* \"src/contracts/Desca.sol\":745:755  VoterValue */\n      0x00\n        /* \"src/contracts/Desca.sol\":774:785  voter_votes */\n      0x02\n        /* \"src/contracts/Desca.sol\":774:792  voter_votes[voter] */\n      0x00\n        /* \"src/contracts/Desca.sol\":786:791  voter */\n      dup4\n        /* \"src/contracts/Desca.sol\":774:792  voter_votes[voter] */\n      0xffffffffffffffffffffffffffffffffffffffff\n      and\n      0xffffffffffffffffffffffffffffffffffffffff\n      and\n      dup2\n      mstore\n      0x20\n      add\n      swap1\n      dup2\n      mstore\n      0x20\n      add\n      0x00\n      keccak256\n      0x00\n      swap1\n      sload\n      swap1\n      0x0100\n      exp\n      swap1\n      div\n      0xff\n      and\n        /* \"src/contracts/Desca.sol\":767:792  return voter_votes[voter] */\n      swap1\n      pop\n        /* \"src/contracts/Desca.sol\":691:799  function addVoter(address voter) public view returns (VoterValue) {... */\n      swap2\n      swap1\n      pop\n      jump\t// out\n        /* \"@openzeppelin/contracts/utils/introspection/ERC165.sol\":829:984  function supportsInterface(bytes4 interfaceId) public view virtual override returns (bool) {... */\n    tag_64:\n        /* \"@openzeppelin/contracts/utils/introspection/ERC165.sol\":914:918  bool */\n      0x00\n        /* \"@openzeppelin/contracts/utils/introspection/ERC165.sol\":952:977  type(IERC165).interfaceId */\n      0x01ffc9a700000000000000000000000000000000000000000000000000000000\n        /* \"@openzeppelin/contracts/utils/introspection/ERC165.sol\":937:977  interfaceId == type(IERC165).interfaceId */\n      not(0xffffffffffffffffffffffffffffffffffffffffffffffffffffffff)\n      and\n        /* \"@openzeppelin/contracts/utils/introspection/ERC165.sol\":937:948  interfaceId */\n      dup3\n        /* \"@openzeppelin/contracts/utils/introspection/ERC165.sol\":937:977  interfaceId == type(IERC165).interfaceId */\n      not(0xffffffffffffffffffffffffffffffffffffffffffffffffffffffff)\n      and\n      eq\n        /* \"@openzeppelin/contracts/utils/introspection/ERC165.sol\":930:977  return interfaceId == type(IERC165).interfaceId */\n      swap1\n      pop\n        /* \"@openzeppelin/contracts/utils/introspection/ERC165.sol\":829:984  function supportsInterface(bytes4 interfaceId) public view virtual override returns (bool) {... */\n      swap2\n      swap1\n      pop\n      jump\t// out\n        /* \"@openzeppelin/contracts/utils/Context.sol\":640:736  function _msgSender() internal view virtual returns (address) {... */\n    tag_71:\n        /* \"@openzeppelin/contracts/utils/Context.sol\":693:700  address */\n      0x00\n        /* \"@openzeppelin/contracts/utils/Context.sol\":719:729  msg.sender */\n      caller\n        /* \"@openzeppelin/contracts/utils/Context.sol\":712:729  return msg.sender */\n      swap1\n      pop\n        /* \"@openzeppelin/contracts/utils/Context.sol\":640:736  function _msgSender() internal view virtual returns (address) {... */\n      swap1\n      jump\t// out\n        /* \"@openzeppelin/contracts/access/AccessControl.sol\":3335:3827  function _checkRole(bytes32 role, address account) internal view virtual {... */\n    tag_72:\n        /* \"@openzeppelin/contracts/access/AccessControl.sol\":3423:3445  hasRole(role, account) */\n      tag_107\n        /* \"@openzeppelin/contracts/access/AccessControl.sol\":3431:3435  role */\n      dup3\n        /* \"@openzeppelin/contracts/access/AccessControl.sol\":3437:3444  account */\n      dup3\n        /* \"@openzeppelin/contracts/access/AccessControl.sol\":3423:3430  hasRole */\n      tag_42\n        /* \"@openzeppelin/contracts/access/AccessControl.sol\":3423:3445  hasRole(role, account) */\n      jump\t// in\n    tag_107:\n        /* \"@openzeppelin/contracts/access/AccessControl.sol\":3418:3821  if (!hasRole(role, account)) {... */\n      tag_108\n      jumpi\n        /* \"@openzeppelin/contracts/access/AccessControl.sol\":3606:3647  Strings.toHexString(uint160(account), 20) */\n      tag_109\n        /* \"@openzeppelin/contracts/access/AccessControl.sol\":3634:3641  account */\n      dup2\n        /* \"@openzeppelin/contracts/access/AccessControl.sol\":3606:3647  Strings.toHexString(uint160(account), 20) */\n      0xffffffffffffffffffffffffffffffffffffffff\n      and\n        /* \"@openzeppelin/contracts/access/AccessControl.sol\":3644:3646  20 */\n      0x14\n        /* \"@openzeppelin/contracts/access/AccessControl.sol\":3606:3625  Strings.toHexString */\n      tag_110\n        /* \"@openzeppelin/contracts/access/AccessControl.sol\":3606:3647  Strings.toHexString(uint160(account), 20) */\n      jump\t// in\n    tag_109:\n        /* \"@openzeppelin/contracts/access/AccessControl.sol\":3718:3756  Strings.toHexString(uint256(role), 32) */\n      tag_111\n        /* \"@openzeppelin/contracts/access/AccessControl.sol\":3746:3750  role */\n      dup4\n        /* \"@openzeppelin/contracts/access/AccessControl.sol\":3738:3751  uint256(role) */\n      0x00\n      shr\n        /* \"@openzeppelin/contracts/access/AccessControl.sol\":3753:3755  32 */\n      0x20\n        /* \"@openzeppelin/contracts/access/AccessControl.sol\":3718:3737  Strings.toHexString */\n      tag_110\n        /* \"@openzeppelin/contracts/access/AccessControl.sol\":3718:3756  Strings.toHexString(uint256(role), 32) */\n      jump\t// in\n    tag_111:\n        /* \"@openzeppelin/contracts/access/AccessControl.sol\":3513:3778  abi.encodePacked(... */\n      add(0x20, mload(0x40))\n      tag_112\n      swap3\n      swap2\n      swap1\n      tag_113\n      jump\t// in\n    tag_112:\n      mload(0x40)\n      0x20\n      dup2\n      dup4\n      sub\n      sub\n      dup2\n      mstore\n      swap1\n      0x40\n      mstore\n        /* \"@openzeppelin/contracts/access/AccessControl.sol\":3461:3810  revert(... */\n      mload(0x40)\n      0x08c379a000000000000000000000000000000000000000000000000000000000\n      dup2\n      mstore\n      0x04\n      add\n      tag_114\n      swap2\n      swap1\n      tag_115\n      jump\t// in\n    tag_114:\n      mload(0x40)\n      dup1\n      swap2\n      sub\n      swap1\n      revert\n        /* \"@openzeppelin/contracts/access/AccessControl.sol\":3418:3821  if (!hasRole(role, account)) {... */\n    tag_108:\n        /* \"@openzeppelin/contracts/access/AccessControl.sol\":3335:3827  function _checkRole(bytes32 role, address account) internal view virtual {... */\n      pop\n      pop\n      jump\t// out\n        /* \"@openzeppelin/contracts/access/AccessControl.sol\":6861:7094  function _grantRole(bytes32 role, address account) internal virtual {... */\n    tag_75:\n        /* \"@openzeppelin/contracts/access/AccessControl.sol\":6944:6966  hasRole(role, account) */\n      tag_117\n        /* \"@openzeppelin/contracts/access/AccessControl.sol\":6952:6956  role */\n      dup3\n        /* \"@openzeppelin/contracts/access/AccessControl.sol\":6958:6965  account */\n      dup3\n        /* \"@openzeppelin/contracts/access/AccessControl.sol\":6944:6951  hasRole */\n      tag_42\n        /* \"@openzeppelin/contracts/access/AccessControl.sol\":6944:6966  hasRole(role, account) */\n      jump\t// in\n    tag_117:\n        /* \"@openzeppelin/contracts/access/AccessControl.sol\":6939:7088  if (!hasRole(role, account)) {... */\n      tag_118\n      jumpi\n        /* \"@openzeppelin/contracts/access/AccessControl.sol\":7014:7018  true */\n      0x01\n        /* \"@openzeppelin/contracts/access/AccessControl.sol\":6982:6988  _roles */\n      0x00\n        /* \"@openzeppelin/contracts/access/AccessControl.sol\":6982:6994  _roles[role] */\n      dup1\n        /* \"@openzeppelin/contracts/access/AccessControl.sol\":6989:6993  role */\n      dup5\n        /* \"@openzeppelin/contracts/access/AccessControl.sol\":6982:6994  _roles[role] */\n      dup2\n      mstore\n      0x20\n      add\n      swap1\n      dup2\n      mstore\n      0x20\n      add\n      0x00\n      keccak256\n        /* \"@openzeppelin/contracts/access/AccessControl.sol\":6982:7002  _roles[role].members */\n      0x00\n      add\n        /* \"@openzeppelin/contracts/access/AccessControl.sol\":6982:7011  _roles[role].members[account] */\n      0x00\n        /* \"@openzeppelin/contracts/access/AccessControl.sol\":7003:7010  account */\n      dup4\n        /* \"@openzeppelin/contracts/access/AccessControl.sol\":6982:7011  _roles[role].members[account] */\n      0xffffffffffffffffffffffffffffffffffffffff\n      and\n      0xffffffffffffffffffffffffffffffffffffffff\n      and\n      dup2\n      mstore\n      0x20\n      add\n      swap1\n      dup2\n      mstore\n      0x20\n      add\n      0x00\n      keccak256\n      0x00\n        /* \"@openzeppelin/contracts/access/AccessControl.sol\":6982:7018  _roles[role].members[account] = true */\n      0x0100\n      exp\n      dup2\n      sload\n      dup2\n      0xff\n      mul\n      not\n      and\n      swap1\n      dup4\n      iszero\n      iszero\n      mul\n      or\n      swap1\n      sstore\n      pop\n        /* \"@openzeppelin/contracts/access/AccessControl.sol\":7064:7076  _msgSender() */\n      tag_119\n        /* \"@openzeppelin/contracts/access/AccessControl.sol\":7064:7074  _msgSender */\n      tag_71\n        /* \"@openzeppelin/contracts/access/AccessControl.sol\":7064:7076  _msgSender() */\n      jump\t// in\n    tag_119:\n        /* \"@openzeppelin/contracts/access/AccessControl.sol\":7037:7077  RoleGranted(role, account, _msgSender()) */\n      0xffffffffffffffffffffffffffffffffffffffff\n      and\n        /* \"@openzeppelin/contracts/access/AccessControl.sol\":7055:7062  account */\n      dup2\n        /* \"@openzeppelin/contracts/access/AccessControl.sol\":7037:7077  RoleGranted(role, account, _msgSender()) */\n      0xffffffffffffffffffffffffffffffffffffffff\n      and\n        /* \"@openzeppelin/contracts/access/AccessControl.sol\":7049:7053  role */\n      dup4\n        /* \"@openzeppelin/contracts/access/AccessControl.sol\":7037:7077  RoleGranted(role, account, _msgSender()) */\n      0x2f8788117e7eff1d82e926ec794901d17c78024a50270940304540a733656f0d\n      mload(0x40)\n      mload(0x40)\n      dup1\n      swap2\n      sub\n      swap1\n      log4\n        /* \"@openzeppelin/contracts/access/AccessControl.sol\":6939:7088  if (!hasRole(role, account)) {... */\n    tag_118:\n        /* \"@openzeppelin/contracts/access/AccessControl.sol\":6861:7094  function _grantRole(bytes32 role, address account) internal virtual {... */\n      pop\n      pop\n      jump\t// out\n        /* \"@openzeppelin/contracts/access/AccessControl.sol\":7219:7453  function _revokeRole(bytes32 role, address account) internal virtual {... */\n    tag_82:\n        /* \"@openzeppelin/contracts/access/AccessControl.sol\":7302:7324  hasRole(role, account) */\n      tag_121\n        /* \"@openzeppelin/contracts/access/AccessControl.sol\":7310:7314  role */\n      dup3\n        /* \"@openzeppelin/contracts/access/AccessControl.sol\":7316:7323  account */\n      dup3\n        /* \"@openzeppelin/contracts/access/AccessControl.sol\":7302:7309  hasRole */\n      tag_42\n        /* \"@openzeppelin/contracts/access/AccessControl.sol\":7302:7324  hasRole(role, account) */\n      jump\t// in\n    tag_121:\n        /* \"@openzeppelin/contracts/access/AccessControl.sol\":7298:7447  if (hasRole(role, account)) {... */\n      iszero\n      tag_122\n      jumpi\n        /* \"@openzeppelin/contracts/access/AccessControl.sol\":7372:7377  false */\n      0x00\n        /* \"@openzeppelin/contracts/access/AccessControl.sol\":7340:7346  _roles */\n      dup1\n        /* \"@openzeppelin/contracts/access/AccessControl.sol\":7340:7352  _roles[role] */\n      0x00\n        /* \"@openzeppelin/contracts/access/AccessControl.sol\":7347:7351  role */\n      dup5\n        /* \"@openzeppelin/contracts/access/AccessControl.sol\":7340:7352  _roles[role] */\n      dup2\n      mstore\n      0x20\n      add\n      swap1\n      dup2\n      mstore\n      0x20\n      add\n      0x00\n      keccak256\n        /* \"@openzeppelin/contracts/access/AccessControl.sol\":7340:7360  _roles[role].members */\n      0x00\n      add\n        /* \"@openzeppelin/contracts/access/AccessControl.sol\":7340:7369  _roles[role].members[account] */\n      0x00\n        /* \"@openzeppelin/contracts/access/AccessControl.sol\":7361:7368  account */\n      dup4\n        /* \"@openzeppelin/contracts/access/AccessControl.sol\":7340:7369  _roles[role].members[account] */\n      0xffffffffffffffffffffffffffffffffffffffff\n      and\n      0xffffffffffffffffffffffffffffffffffffffff\n      and\n      dup2\n      mstore\n      0x20\n      add\n      swap1\n      dup2\n      mstore\n      0x20\n      add\n      0x00\n      keccak256\n      0x00\n        /* \"@openzeppelin/contracts/access/AccessControl.sol\":7340:7377  _roles[role].members[account] = false */\n      0x0100\n      exp\n      dup2\n      sload\n      dup2\n      0xff\n      mul\n      not\n      and\n      swap1\n      dup4\n      iszero\n      iszero\n      mul\n      or\n      swap1\n      sstore\n      pop\n        /* \"@openzeppelin/contracts/access/AccessControl.sol\":7423:7435  _msgSender() */\n      tag_123\n        /* \"@openzeppelin/contracts/access/AccessControl.sol\":7423:7433  _msgSender */\n      tag_71\n        /* \"@openzeppelin/contracts/access/AccessControl.sol\":7423:7435  _msgSender() */\n      jump\t// in\n    tag_123:\n        /* \"@openzeppelin/contracts/access/AccessControl.sol\":7396:7436  RoleRevoked(role, account, _msgSender()) */\n      0xffffffffffffffffffffffffffffffffffffffff\n      and\n        /* \"@openzeppelin/contracts/access/AccessControl.sol\":7414:7421  account */\n      dup2\n        /* \"@openzeppelin/contracts/access/AccessControl.sol\":7396:7436  RoleRevoked(role, account, _msgSender()) */\n      0xffffffffffffffffffffffffffffffffffffffff\n      and\n        /* \"@openzeppelin/contracts/access/AccessControl.sol\":7408:7412  role */\n      dup4\n        /* \"@openzeppelin/contracts/access/AccessControl.sol\":7396:7436  RoleRevoked(role, account, _msgSender()) */\n      0xf6391f5c32d9c69d2a47ea670b442974b53935d1edc7fd64eb21e047a839171b\n      mload(0x40)\n      mload(0x40)\n      dup1\n      swap2\n      sub\n      swap1\n      log4\n        /* \"@openzeppelin/contracts/access/AccessControl.sol\":7298:7447  if (hasRole(role, account)) {... */\n    tag_122:\n        /* \"@openzeppelin/contracts/access/AccessControl.sol\":7219:7453  function _revokeRole(bytes32 role, address account) internal virtual {... */\n      pop\n      pop\n      jump\t// out\n        /* \"@openzeppelin/contracts/utils/Strings.sol\":1588:2029  function toHexString(uint256 value, uint256 length) internal pure returns (string memory) {... */\n    tag_110:\n        /* \"@openzeppelin/contracts/utils/Strings.sol\":1663:1676  string memory */\n      0x60\n        /* \"@openzeppelin/contracts/utils/Strings.sol\":1688:1707  bytes memory buffer */\n      0x00\n        /* \"@openzeppelin/contracts/utils/Strings.sol\":1733:1734  2 */\n      0x02\n        /* \"@openzeppelin/contracts/utils/Strings.sol\":1724:1730  length */\n      dup4\n        /* \"@openzeppelin/contracts/utils/Strings.sol\":1720:1721  2 */\n      0x02\n        /* \"@openzeppelin/contracts/utils/Strings.sol\":1720:1730  2 * length */\n      tag_125\n      swap2\n      swap1\n      tag_126\n      jump\t// in\n    tag_125:\n        /* \"@openzeppelin/contracts/utils/Strings.sol\":1720:1734  2 * length + 2 */\n      tag_127\n      swap2\n      swap1\n      tag_128\n      jump\t// in\n    tag_127:\n        /* \"@openzeppelin/contracts/utils/Strings.sol\":1710:1735  new bytes(2 * length + 2) */\n      0xffffffffffffffff\n      dup2\n      gt\n      iszero\n      tag_129\n      jumpi\n      tag_130\n      tag_131\n      jump\t// in\n    tag_130:\n    tag_129:\n      mload(0x40)\n      swap1\n      dup1\n      dup3\n      mstore\n      dup1\n      0x1f\n      add\n      not(0x1f)\n      and\n      0x20\n      add\n      dup3\n      add\n      0x40\n      mstore\n      dup1\n      iszero\n      tag_132\n      jumpi\n      dup2\n      0x20\n      add\n      0x01\n      dup3\n      mul\n      dup1\n      calldatasize\n      dup4\n      calldatacopy\n      dup1\n      dup3\n      add\n      swap2\n      pop\n      pop\n      swap1\n      pop\n    tag_132:\n      pop\n        /* \"@openzeppelin/contracts/utils/Strings.sol\":1688:1735  bytes memory buffer = new bytes(2 * length + 2) */\n      swap1\n      pop\n        /* \"@openzeppelin/contracts/utils/Strings.sol\":1745:1760  buffer[0] = \"0\" */\n      0x3000000000000000000000000000000000000000000000000000000000000000\n        /* \"@openzeppelin/contracts/utils/Strings.sol\":1745:1751  buffer */\n      dup2\n        /* \"@openzeppelin/contracts/utils/Strings.sol\":1752:1753  0 */\n      0x00\n        /* \"@openzeppelin/contracts/utils/Strings.sol\":1745:1754  buffer[0] */\n      dup2\n      mload\n      dup2\n      lt\n      tag_133\n      jumpi\n      tag_134\n      tag_135\n      jump\t// in\n    tag_134:\n    tag_133:\n      0x20\n      add\n      add\n        /* \"@openzeppelin/contracts/utils/Strings.sol\":1745:1760  buffer[0] = \"0\" */\n      swap1\n      not(0xffffffffffffffffffffffffffffffffffffffffffffffffffffffffffffff)\n      and\n      swap1\n      dup2\n      0x00\n      byte\n      swap1\n      mstore8\n      pop\n        /* \"@openzeppelin/contracts/utils/Strings.sol\":1770:1785  buffer[1] = \"x\" */\n      0x7800000000000000000000000000000000000000000000000000000000000000\n        /* \"@openzeppelin/contracts/utils/Strings.sol\":1770:1776  buffer */\n      dup2\n        /* \"@openzeppelin/contracts/utils/Strings.sol\":1777:1778  1 */\n      0x01\n        /* \"@openzeppelin/contracts/utils/Strings.sol\":1770:1779  buffer[1] */\n      dup2\n      mload\n      dup2\n      lt\n      tag_136\n      jumpi\n      tag_137\n      tag_135\n      jump\t// in\n    tag_137:\n    tag_136:\n      0x20\n      add\n      add\n        /* \"@openzeppelin/contracts/utils/Strings.sol\":1770:1785  buffer[1] = \"x\" */\n      swap1\n      not(0xffffffffffffffffffffffffffffffffffffffffffffffffffffffffffffff)\n      and\n      swap1\n      dup2\n      0x00\n      byte\n      swap1\n      mstore8\n      pop\n        /* \"@openzeppelin/contracts/utils/Strings.sol\":1800:1809  uint256 i */\n      0x00\n        /* \"@openzeppelin/contracts/utils/Strings.sol\":1825:1826  1 */\n      0x01\n        /* \"@openzeppelin/contracts/utils/Strings.sol\":1816:1822  length */\n      dup5\n        /* \"@openzeppelin/contracts/utils/Strings.sol\":1812:1813  2 */\n      0x02\n        /* \"@openzeppelin/contracts/utils/Strings.sol\":1812:1822  2 * length */\n      tag_141\n      swap2\n      swap1\n      tag_126\n      jump\t// in\n    tag_141:\n        /* \"@openzeppelin/contracts/utils/Strings.sol\":1812:1826  2 * length + 1 */\n      tag_142\n      swap2\n      swap1\n      tag_128\n      jump\t// in\n    tag_142:\n        /* \"@openzeppelin/contracts/utils/Strings.sol\":1800:1826  uint256 i = 2 * length + 1 */\n      swap1\n      pop\n        /* \"@openzeppelin/contracts/utils/Strings.sol\":1795:1927  for (uint256 i = 2 * length + 1; i > 1; --i) {... */\n    tag_138:\n        /* \"@openzeppelin/contracts/utils/Strings.sol\":1832:1833  1 */\n      0x01\n        /* \"@openzeppelin/contracts/utils/Strings.sol\":1828:1829  i */\n      dup2\n        /* \"@openzeppelin/contracts/utils/Strings.sol\":1828:1833  i > 1 */\n      gt\n        /* \"@openzeppelin/contracts/utils/Strings.sol\":1795:1927  for (uint256 i = 2 * length + 1; i > 1; --i) {... */\n      iszero\n      tag_139\n      jumpi\n        /* \"@openzeppelin/contracts/utils/Strings.sol\":1866:1878  _HEX_SYMBOLS */\n      0x3031323334353637383961626364656600000000000000000000000000000000\n        /* \"@openzeppelin/contracts/utils/Strings.sol\":1887:1890  0xf */\n      0x0f\n        /* \"@openzeppelin/contracts/utils/Strings.sol\":1879:1884  value */\n      dup7\n        /* \"@openzeppelin/contracts/utils/Strings.sol\":1879:1890  value & 0xf */\n      and\n        /* \"@openzeppelin/contracts/utils/Strings.sol\":1866:1891  _HEX_SYMBOLS[value & 0xf] */\n      0x10\n      dup2\n      lt\n      tag_143\n      jumpi\n      tag_144\n      tag_135\n      jump\t// in\n    tag_144:\n    tag_143:\n      byte\n      0xf8\n      shl\n        /* \"@openzeppelin/contracts/utils/Strings.sol\":1854:1860  buffer */\n      dup3\n        /* \"@openzeppelin/contracts/utils/Strings.sol\":1861:1862  i */\n      dup3\n        /* \"@openzeppelin/contracts/utils/Strings.sol\":1854:1863  buffer[i] */\n      dup2\n      mload\n      dup2\n      lt\n      tag_145\n      jumpi\n      tag_146\n      tag_135\n      jump\t// in\n    tag_146:\n    tag_145:\n      0x20\n      add\n      add\n        /* \"@openzeppelin/contracts/utils/Strings.sol\":1854:1891  buffer[i] = _HEX_SYMBOLS[value & 0xf] */\n      swap1\n      not(0xffffffffffffffffffffffffffffffffffffffffffffffffffffffffffffff)\n      and\n      swap1\n      dup2\n      0x00\n      byte\n      swap1\n      mstore8\n      pop\n        /* \"@openzeppelin/contracts/utils/Strings.sol\":1915:1916  4 */\n      0x04\n        /* \"@openzeppelin/contracts/utils/Strings.sol\":1905:1916  value >>= 4 */\n      dup6\n      swap1\n      shr\n      swap5\n      pop\n        /* \"@openzeppelin/contracts/utils/Strings.sol\":1835:1838  --i */\n      dup1\n      tag_147\n      swap1\n      tag_148\n      jump\t// in\n    tag_147:\n      swap1\n      pop\n        /* \"@openzeppelin/contracts/utils/Strings.sol\":1795:1927  for (uint256 i = 2 * length + 1; i > 1; --i) {... */\n      jump(tag_138)\n    tag_139:\n      pop\n        /* \"@openzeppelin/contracts/utils/Strings.sol\":1953:1954  0 */\n      0x00\n        /* \"@openzeppelin/contracts/utils/Strings.sol\":1944:1949  value */\n      dup5\n        /* \"@openzeppelin/contracts/utils/Strings.sol\":1944:1954  value == 0 */\n      eq\n        /* \"@openzeppelin/contracts/utils/Strings.sol\":1936:1991  require(value == 0, \"Strings: hex length insufficient\") */\n      tag_149\n      jumpi\n      mload(0x40)\n      0x08c379a000000000000000000000000000000000000000000000000000000000\n      dup2\n      mstore\n      0x04\n      add\n      tag_150\n      swap1\n      tag_151\n      jump\t// in\n    tag_150:\n      mload(0x40)\n      dup1\n      swap2\n      sub\n      swap1\n      revert\n    tag_149:\n        /* \"@openzeppelin/contracts/utils/Strings.sol\":2015:2021  buffer */\n      dup1\n        /* \"@openzeppelin/contracts/utils/Strings.sol\":2001:2022  return string(buffer) */\n      swap2\n      pop\n      pop\n        /* \"@openzeppelin/contracts/utils/Strings.sol\":1588:2029  function toHexString(uint256 value, uint256 length) internal pure returns (string memory) {... */\n      swap3\n      swap2\n      pop\n      pop\n      jump\t// out\n        /* \"#utility.yul\":88:205   */\n    tag_153:\n        /* \"#utility.yul\":197:198   */\n      0x00\n        /* \"#utility.yul\":194:195   */\n      dup1\n        /* \"#utility.yul\":187:199   */\n      revert\n        /* \"#utility.yul\":334:483   */\n    tag_155:\n        /* \"#utility.yul\":370:377   */\n      0x00\n        /* \"#utility.yul\":410:476   */\n      0xffffffff00000000000000000000000000000000000000000000000000000000\n        /* \"#utility.yul\":403:408   */\n      dup3\n        /* \"#utility.yul\":399:477   */\n      and\n        /* \"#utility.yul\":388:477   */\n      swap1\n      pop\n        /* \"#utility.yul\":334:483   */\n      swap2\n      swap1\n      pop\n      jump\t// out\n        /* \"#utility.yul\":489:609   */\n    tag_156:\n        /* \"#utility.yul\":561:584   */\n      tag_197\n        /* \"#utility.yul\":578:583   */\n      dup2\n        /* \"#utility.yul\":561:584   */\n      tag_155\n      jump\t// in\n    tag_197:\n        /* \"#utility.yul\":554:559   */\n      dup2\n        /* \"#utility.yul\":551:585   */\n      eq\n        /* \"#utility.yul\":541:603   */\n      tag_198\n      jumpi\n        /* \"#utility.yul\":599:600   */\n      0x00\n        /* \"#utility.yul\":596:597   */\n      dup1\n        /* \"#utility.yul\":589:601   */\n      revert\n        /* \"#utility.yul\":541:603   */\n    tag_198:\n        /* \"#utility.yul\":489:609   */\n      pop\n      jump\t// out\n        /* \"#utility.yul\":615:752   */\n    tag_157:\n        /* \"#utility.yul\":660:665   */\n      0x00\n        /* \"#utility.yul\":698:704   */\n      dup2\n        /* \"#utility.yul\":685:705   */\n      calldataload\n        /* \"#utility.yul\":676:705   */\n      swap1\n      pop\n        /* \"#utility.yul\":714:746   */\n      tag_200\n        /* \"#utility.yul\":740:745   */\n      dup2\n        /* \"#utility.yul\":714:746   */\n      tag_156\n      jump\t// in\n    tag_200:\n        /* \"#utility.yul\":615:752   */\n      swap3\n      swap2\n      pop\n      pop\n      jump\t// out\n        /* \"#utility.yul\":758:1085   */\n    tag_17:\n        /* \"#utility.yul\":816:822   */\n      0x00\n        /* \"#utility.yul\":865:867   */\n      0x20\n        /* \"#utility.yul\":853:862   */\n      dup3\n        /* \"#utility.yul\":844:851   */\n      dup5\n        /* \"#utility.yul\":840:863   */\n      sub\n        /* \"#utility.yul\":836:868   */\n      slt\n        /* \"#utility.yul\":833:952   */\n      iszero\n      tag_202\n      jumpi\n        /* \"#utility.yul\":871:950   */\n      tag_203\n      tag_153\n      jump\t// in\n    tag_203:\n        /* \"#utility.yul\":833:952   */\n    tag_202:\n        /* \"#utility.yul\":991:992   */\n      0x00\n        /* \"#utility.yul\":1016:1068   */\n      tag_204\n        /* \"#utility.yul\":1060:1067   */\n      dup5\n        /* \"#utility.yul\":1051:1057   */\n      dup3\n        /* \"#utility.yul\":1040:1049   */\n      dup6\n        /* \"#utility.yul\":1036:1058   */\n      add\n        /* \"#utility.yul\":1016:1068   */\n      tag_157\n      jump\t// in\n    tag_204:\n        /* \"#utility.yul\":1006:1068   */\n      swap2\n      pop\n        /* \"#utility.yul\":962:1078   */\n      pop\n        /* \"#utility.yul\":758:1085   */\n      swap3\n      swap2\n      pop\n      pop\n      jump\t// out\n        /* \"#utility.yul\":1091:1181   */\n    tag_158:\n        /* \"#utility.yul\":1125:1132   */\n      0x00\n        /* \"#utility.yul\":1168:1173   */\n      dup2\n        /* \"#utility.yul\":1161:1174   */\n      iszero\n        /* \"#utility.yul\":1154:1175   */\n      iszero\n        /* \"#utility.yul\":1143:1175   */\n      swap1\n      pop\n        /* \"#utility.yul\":1091:1181   */\n      swap2\n      swap1\n      pop\n      jump\t// out\n        /* \"#utility.yul\":1187:1296   */\n    tag_159:\n        /* \"#utility.yul\":1268:1289   */\n      tag_207\n        /* \"#utility.yul\":1283:1288   */\n      dup2\n        /* \"#utility.yul\":1268:1289   */\n      tag_158\n      jump\t// in\n    tag_207:\n        /* \"#utility.yul\":1263:1266   */\n      dup3\n        /* \"#utility.yul\":1256:1290   */\n      mstore\n        /* \"#utility.yul\":1187:1296   */\n      pop\n      pop\n      jump\t// out\n        /* \"#utility.yul\":1302:1512   */\n    tag_20:\n        /* \"#utility.yul\":1389:1393   */\n      0x00\n        /* \"#utility.yul\":1427:1429   */\n      0x20\n        /* \"#utility.yul\":1416:1425   */\n      dup3\n        /* \"#utility.yul\":1412:1430   */\n      add\n        /* \"#utility.yul\":1404:1430   */\n      swap1\n      pop\n        /* \"#utility.yul\":1440:1505   */\n      tag_209\n        /* \"#utility.yul\":1502:1503   */\n      0x00\n        /* \"#utility.yul\":1491:1500   */\n      dup4\n        /* \"#utility.yul\":1487:1504   */\n      add\n        /* \"#utility.yul\":1478:1484   */\n      dup5\n        /* \"#utility.yul\":1440:1505   */\n      tag_159\n      jump\t// in\n    tag_209:\n        /* \"#utility.yul\":1302:1512   */\n      swap3\n      swap2\n      pop\n      pop\n      jump\t// out\n        /* \"#utility.yul\":1518:1595   */\n    tag_160:\n        /* \"#utility.yul\":1555:1562   */\n      0x00\n        /* \"#utility.yul\":1584:1589   */\n      dup2\n        /* \"#utility.yul\":1573:1589   */\n      swap1\n      pop\n        /* \"#utility.yul\":1518:1595   */\n      swap2\n      swap1\n      pop\n      jump\t// out\n        /* \"#utility.yul\":1601:1723   */\n    tag_161:\n        /* \"#utility.yul\":1674:1698   */\n      tag_212\n        /* \"#utility.yul\":1692:1697   */\n      dup2\n        /* \"#utility.yul\":1674:1698   */\n      tag_160\n      jump\t// in\n    tag_212:\n        /* \"#utility.yul\":1667:1672   */\n      dup2\n        /* \"#utility.yul\":1664:1699   */\n      eq\n        /* \"#utility.yul\":1654:1717   */\n      tag_213\n      jumpi\n        /* \"#utility.yul\":1713:1714   */\n      0x00\n        /* \"#utility.yul\":1710:1711   */\n      dup1\n        /* \"#utility.yul\":1703:1715   */\n      revert\n        /* \"#utility.yul\":1654:1717   */\n    tag_213:\n        /* \"#utility.yul\":1601:1723   */\n      pop\n      jump\t// out\n        /* \"#utility.yul\":1729:1868   */\n    tag_162:\n        /* \"#utility.yul\":1775:1780   */\n      0x00\n        /* \"#utility.yul\":1813:1819   */\n      dup2\n        /* \"#utility.yul\":1800:1820   */\n      calldataload\n        /* \"#utility.yul\":1791:1820   */\n      swap1\n      pop\n        /* \"#utility.yul\":1829:1862   */\n      tag_215\n        /* \"#utility.yul\":1856:1861   */\n      dup2\n        /* \"#utility.yul\":1829:1862   */\n      tag_161\n      jump\t// in\n    tag_215:\n        /* \"#utility.yul\":1729:1868   */\n      swap3\n      swap2\n      pop\n      pop\n      jump\t// out\n        /* \"#utility.yul\":1874:2203   */\n    tag_23:\n        /* \"#utility.yul\":1933:1939   */\n      0x00\n        /* \"#utility.yul\":1982:1984   */\n      0x20\n        /* \"#utility.yul\":1970:1979   */\n      dup3\n        /* \"#utility.yul\":1961:1968   */\n      dup5\n        /* \"#utility.yul\":1957:1980   */\n      sub\n        /* \"#utility.yul\":1953:1985   */\n      slt\n        /* \"#utility.yul\":1950:2069   */\n      iszero\n      tag_217\n      jumpi\n        /* \"#utility.yul\":1988:2067   */\n      tag_218\n      tag_153\n      jump\t// in\n    tag_218:\n        /* \"#utility.yul\":1950:2069   */\n    tag_217:\n        /* \"#utility.yul\":2108:2109   */\n      0x00\n        /* \"#utility.yul\":2133:2186   */\n      tag_219\n        /* \"#utility.yul\":2178:2185   */\n      dup5\n        /* \"#utility.yul\":2169:2175   */\n      dup3\n        /* \"#utility.yul\":2158:2167   */\n      dup6\n        /* \"#utility.yul\":2154:2176   */\n      add\n        /* \"#utility.yul\":2133:2186   */\n      tag_162\n      jump\t// in\n    tag_219:\n        /* \"#utility.yul\":2123:2186   */\n      swap2\n      pop\n        /* \"#utility.yul\":2079:2196   */\n      pop\n        /* \"#utility.yul\":1874:2203   */\n      swap3\n      swap2\n      pop\n      pop\n      jump\t// out\n        /* \"#utility.yul\":2209:2327   */\n    tag_163:\n        /* \"#utility.yul\":2296:2320   */\n      tag_221\n        /* \"#utility.yul\":2314:2319   */\n      dup2\n        /* \"#utility.yul\":2296:2320   */\n      tag_160\n      jump\t// in\n    tag_221:\n        /* \"#utility.yul\":2291:2294   */\n      dup3\n        /* \"#utility.yul\":2284:2321   */\n      mstore\n        /* \"#utility.yul\":2209:2327   */\n      pop\n      pop\n      jump\t// out\n        /* \"#utility.yul\":2333:2555   */\n    tag_26:\n        /* \"#utility.yul\":2426:2430   */\n      0x00\n        /* \"#utility.yul\":2464:2466   */\n      0x20\n        /* \"#utility.yul\":2453:2462   */\n      dup3\n        /* \"#utility.yul\":2449:2467   */\n      add\n        /* \"#utility.yul\":2441:2467   */\n      swap1\n      pop\n        /* \"#utility.yul\":2477:2548   */\n      tag_223\n        /* \"#utility.yul\":2545:2546   */\n      0x00\n        /* \"#utility.yul\":2534:2543   */\n      dup4\n        /* \"#utility.yul\":2530:2547   */\n      add\n        /* \"#utility.yul\":2521:2527   */\n      dup5\n        /* \"#utility.yul\":2477:2548   */\n      tag_163\n      jump\t// in\n    tag_223:\n        /* \"#utility.yul\":2333:2555   */\n      swap3\n      swap2\n      pop\n      pop\n      jump\t// out\n        /* \"#utility.yul\":2561:2687   */\n    tag_164:\n        /* \"#utility.yul\":2598:2605   */\n      0x00\n        /* \"#utility.yul\":2638:2680   */\n      0xffffffffffffffffffffffffffffffffffffffff\n        /* \"#utility.yul\":2631:2636   */\n      dup3\n        /* \"#utility.yul\":2627:2681   */\n      and\n        /* \"#utility.yul\":2616:2681   */\n      swap1\n      pop\n        /* \"#utility.yul\":2561:2687   */\n      swap2\n      swap1\n      pop\n      jump\t// out\n        /* \"#utility.yul\":2693:2789   */\n    tag_165:\n        /* \"#utility.yul\":2730:2737   */\n      0x00\n        /* \"#utility.yul\":2759:2783   */\n      tag_226\n        /* \"#utility.yul\":2777:2782   */\n      dup3\n        /* \"#utility.yul\":2759:2783   */\n      tag_164\n      jump\t// in\n    tag_226:\n        /* \"#utility.yul\":2748:2783   */\n      swap1\n      pop\n        /* \"#utility.yul\":2693:2789   */\n      swap2\n      swap1\n      pop\n      jump\t// out\n        /* \"#utility.yul\":2795:2917   */\n    tag_166:\n        /* \"#utility.yul\":2868:2892   */\n      tag_228\n        /* \"#utility.yul\":2886:2891   */\n      dup2\n        /* \"#utility.yul\":2868:2892   */\n      tag_165\n      jump\t// in\n    tag_228:\n        /* \"#utility.yul\":2861:2866   */\n      dup2\n        /* \"#utility.yul\":2858:2893   */\n      eq\n        /* \"#utility.yul\":2848:2911   */\n      tag_229\n      jumpi\n        /* \"#utility.yul\":2907:2908   */\n      0x00\n        /* \"#utility.yul\":2904:2905   */\n      dup1\n        /* \"#utility.yul\":2897:2909   */\n      revert\n        /* \"#utility.yul\":2848:2911   */\n    tag_229:\n        /* \"#utility.yul\":2795:2917   */\n      pop\n      jump\t// out\n        /* \"#utility.yul\":2923:3062   */\n    tag_167:\n        /* \"#utility.yul\":2969:2974   */\n      0x00\n        /* \"#utility.yul\":3007:3013   */\n      dup2\n        /* \"#utility.yul\":2994:3014   */\n      calldataload\n        /* \"#utility.yul\":2985:3014   */\n      swap1\n      pop\n        /* \"#utility.yul\":3023:3056   */\n      tag_231\n        /* \"#utility.yul\":3050:3055   */\n      dup2\n        /* \"#utility.yul\":3023:3056   */\n      tag_166\n      jump\t// in\n    tag_231:\n        /* \"#utility.yul\":2923:3062   */\n      swap3\n      swap2\n      pop\n      pop\n      jump\t// out\n        /* \"#utility.yul\":3068:3397   */\n    tag_29:\n        /* \"#utility.yul\":3127:3133   */\n      0x00\n        /* \"#utility.yul\":3176:3178   */\n      0x20\n        /* \"#utility.yul\":3164:3173   */\n      dup3\n        /* \"#utility.yul\":3155:3162   */\n      dup5\n        /* \"#utility.yul\":3151:3174   */\n      sub\n        /* \"#utility.yul\":3147:3179   */\n      slt\n        /* \"#utility.yul\":3144:3263   */\n      iszero\n      tag_233\n      jumpi\n        /* \"#utility.yul\":3182:3261   */\n      tag_234\n      tag_153\n      jump\t// in\n    tag_234:\n        /* \"#utility.yul\":3144:3263   */\n    tag_233:\n        /* \"#utility.yul\":3302:3303   */\n      0x00\n        /* \"#utility.yul\":3327:3380   */\n      tag_235\n        /* \"#utility.yul\":3372:3379   */\n      dup5\n        /* \"#utility.yul\":3363:3369   */\n      dup3\n        /* \"#utility.yul\":3352:3361   */\n      dup6\n        /* \"#utility.yul\":3348:3370   */\n      add\n        /* \"#utility.yul\":3327:3380   */\n      tag_167\n      jump\t// in\n    tag_235:\n        /* \"#utility.yul\":3317:3380   */\n      swap2\n      pop\n        /* \"#utility.yul\":3273:3390   */\n      pop\n        /* \"#utility.yul\":3068:3397   */\n      swap3\n      swap2\n      pop\n      pop\n      jump\t// out\n        /* \"#utility.yul\":3403:3583   */\n    tag_87:\n        /* \"#utility.yul\":3451:3528   */\n      0x4e487b7100000000000000000000000000000000000000000000000000000000\n        /* \"#utility.yul\":3448:3449   */\n      0x00\n        /* \"#utility.yul\":3441:3529   */\n      mstore\n        /* \"#utility.yul\":3548:3552   */\n      0x21\n        /* \"#utility.yul\":3545:3546   */\n      0x04\n        /* \"#utility.yul\":3538:3553   */\n      mstore\n        /* \"#utility.yul\":3572:3576   */\n      0x24\n        /* \"#utility.yul\":3569:3570   */\n      0x00\n        /* \"#utility.yul\":3562:3577   */\n      revert\n        /* \"#utility.yul\":3589:3708   */\n    tag_168:\n        /* \"#utility.yul\":3676:3677   */\n      0x04\n        /* \"#utility.yul\":3669:3674   */\n      dup2\n        /* \"#utility.yul\":3666:3678   */\n      lt\n        /* \"#utility.yul\":3656:3702   */\n      tag_238\n      jumpi\n        /* \"#utility.yul\":3682:3700   */\n      tag_239\n      tag_87\n      jump\t// in\n    tag_239:\n        /* \"#utility.yul\":3656:3702   */\n    tag_238:\n        /* \"#utility.yul\":3589:3708   */\n      pop\n      jump\t// out\n        /* \"#utility.yul\":3714:3853   */\n    tag_169:\n        /* \"#utility.yul\":3765:3772   */\n      0x00\n        /* \"#utility.yul\":3794:3799   */\n      dup2\n        /* \"#utility.yul\":3783:3799   */\n      swap1\n      pop\n        /* \"#utility.yul\":3800:3847   */\n      tag_241\n        /* \"#utility.yul\":3841:3846   */\n      dup3\n        /* \"#utility.yul\":3800:3847   */\n      tag_168\n      jump\t// in\n    tag_241:\n        /* \"#utility.yul\":3714:3853   */\n      swap2\n      swap1\n      pop\n      jump\t// out\n        /* \"#utility.yul\":3859:3998   */\n    tag_170:\n        /* \"#utility.yul\":3921:3930   */\n      0x00\n        /* \"#utility.yul\":3954:3992   */\n      tag_243\n        /* \"#utility.yul\":3986:3991   */\n      dup3\n        /* \"#utility.yul\":3954:3992   */\n      tag_169\n      jump\t// in\n    tag_243:\n        /* \"#utility.yul\":3941:3992   */\n      swap1\n      pop\n        /* \"#utility.yul\":3859:3998   */\n      swap2\n      swap1\n      pop\n      jump\t// out\n        /* \"#utility.yul\":4004:4159   */\n    tag_171:\n        /* \"#utility.yul\":4103:4152   */\n      tag_245\n        /* \"#utility.yul\":4146:4151   */\n      dup2\n        /* \"#utility.yul\":4103:4152   */\n      tag_170\n      jump\t// in\n    tag_245:\n        /* \"#utility.yul\":4098:4101   */\n      dup3\n        /* \"#utility.yul\":4091:4153   */\n      mstore\n        /* \"#utility.yul\":4004:4159   */\n      pop\n      pop\n      jump\t// out\n        /* \"#utility.yul\":4165:4411   */\n    tag_32:\n        /* \"#utility.yul\":4270:4274   */\n      0x00\n        /* \"#utility.yul\":4308:4310   */\n      0x20\n        /* \"#utility.yul\":4297:4306   */\n      dup3\n        /* \"#utility.yul\":4293:4311   */\n      add\n        /* \"#utility.yul\":4285:4311   */\n      swap1\n      pop\n        /* \"#utility.yul\":4321:4404   */\n      tag_247\n        /* \"#utility.yul\":4401:4402   */\n      0x00\n        /* \"#utility.yul\":4390:4399   */\n      dup4\n        /* \"#utility.yul\":4386:4403   */\n      add\n        /* \"#utility.yul\":4377:4383   */\n      dup5\n        /* \"#utility.yul\":4321:4404   */\n      tag_171\n      jump\t// in\n    tag_247:\n        /* \"#utility.yul\":4165:4411   */\n      swap3\n      swap2\n      pop\n      pop\n      jump\t// out\n        /* \"#utility.yul\":4417:4891   */\n    tag_35:\n        /* \"#utility.yul\":4485:4491   */\n      0x00\n        /* \"#utility.yul\":4493:4499   */\n      dup1\n        /* \"#utility.yul\":4542:4544   */\n      0x40\n        /* \"#utility.yul\":4530:4539   */\n      dup4\n        /* \"#utility.yul\":4521:4528   */\n      dup6\n        /* \"#utility.yul\":4517:4540   */\n      sub\n        /* \"#utility.yul\":4513:4545   */\n      slt\n        /* \"#utility.yul\":4510:4629   */\n      iszero\n      tag_249\n      jumpi\n        /* \"#utility.yul\":4548:4627   */\n      tag_250\n      tag_153\n      jump\t// in\n    tag_250:\n        /* \"#utility.yul\":4510:4629   */\n    tag_249:\n        /* \"#utility.yul\":4668:4669   */\n      0x00\n        /* \"#utility.yul\":4693:4746   */\n      tag_251\n        /* \"#utility.yul\":4738:4745   */\n      dup6\n        /* \"#utility.yul\":4729:4735   */\n      dup3\n        /* \"#utility.yul\":4718:4727   */\n      dup7\n        /* \"#utility.yul\":4714:4736   */\n      add\n        /* \"#utility.yul\":4693:4746   */\n      tag_162\n      jump\t// in\n    tag_251:\n        /* \"#utility.yul\":4683:4746   */\n      swap3\n      pop\n        /* \"#utility.yul\":4639:4756   */\n      pop\n        /* \"#utility.yul\":4795:4797   */\n      0x20\n        /* \"#utility.yul\":4821:4874   */\n      tag_252\n        /* \"#utility.yul\":4866:4873   */\n      dup6\n        /* \"#utility.yul\":4857:4863   */\n      dup3\n        /* \"#utility.yul\":4846:4855   */\n      dup7\n        /* \"#utility.yul\":4842:4864   */\n      add\n        /* \"#utility.yul\":4821:4874   */\n      tag_167\n      jump\t// in\n    tag_252:\n        /* \"#utility.yul\":4811:4874   */\n      swap2\n      pop\n        /* \"#utility.yul\":4766:4884   */\n      pop\n        /* \"#utility.yul\":4417:4891   */\n      swap3\n      pop\n      swap3\n      swap1\n      pop\n      jump\t// out\n        /* \"#utility.yul\":4897:5013   */\n    tag_172:\n        /* \"#utility.yul\":4967:4988   */\n      tag_254\n        /* \"#utility.yul\":4982:4987   */\n      dup2\n        /* \"#utility.yul\":4967:4988   */\n      tag_158\n      jump\t// in\n    tag_254:\n        /* \"#utility.yul\":4960:4965   */\n      dup2\n        /* \"#utility.yul\":4957:4989   */\n      eq\n        /* \"#utility.yul\":4947:5007   */\n      tag_255\n      jumpi\n        /* \"#utility.yul\":5003:5004   */\n      0x00\n        /* \"#utility.yul\":5000:5001   */\n      dup1\n        /* \"#utility.yul\":4993:5005   */\n      revert\n        /* \"#utility.yul\":4947:5007   */\n    tag_255:\n        /* \"#utility.yul\":4897:5013   */\n      pop\n      jump\t// out\n        /* \"#utility.yul\":5019:5152   */\n    tag_173:\n        /* \"#utility.yul\":5062:5067   */\n      0x00\n        /* \"#utility.yul\":5100:5106   */\n      dup2\n        /* \"#utility.yul\":5087:5107   */\n      calldataload\n        /* \"#utility.yul\":5078:5107   */\n      swap1\n      pop\n        /* \"#utility.yul\":5116:5146   */\n      tag_257\n        /* \"#utility.yul\":5140:5145   */\n      dup2\n        /* \"#utility.yul\":5116:5146   */\n      tag_172\n      jump\t// in\n    tag_257:\n        /* \"#utility.yul\":5019:5152   */\n      swap3\n      swap2\n      pop\n      pop\n      jump\t// out\n        /* \"#utility.yul\":5158:5626   */\n    tag_49:\n        /* \"#utility.yul\":5223:5229   */\n      0x00\n        /* \"#utility.yul\":5231:5237   */\n      dup1\n        /* \"#utility.yul\":5280:5282   */\n      0x40\n        /* \"#utility.yul\":5268:5277   */\n      dup4\n        /* \"#utility.yul\":5259:5266   */\n      dup6\n        /* \"#utility.yul\":5255:5278   */\n      sub\n        /* \"#utility.yul\":5251:5283   */\n      slt\n        /* \"#utility.yul\":5248:5367   */\n      iszero\n      tag_259\n      jumpi\n        /* \"#utility.yul\":5286:5365   */\n      tag_260\n      tag_153\n      jump\t// in\n    tag_260:\n        /* \"#utility.yul\":5248:5367   */\n    tag_259:\n        /* \"#utility.yul\":5406:5407   */\n      0x00\n        /* \"#utility.yul\":5431:5484   */\n      tag_261\n        /* \"#utility.yul\":5476:5483   */\n      dup6\n        /* \"#utility.yul\":5467:5473   */\n      dup3\n        /* \"#utility.yul\":5456:5465   */\n      dup7\n        /* \"#utility.yul\":5452:5474   */\n      add\n        /* \"#utility.yul\":5431:5484   */\n      tag_167\n      jump\t// in\n    tag_261:\n        /* \"#utility.yul\":5421:5484   */\n      swap3\n      pop\n        /* \"#utility.yul\":5377:5494   */\n      pop\n        /* \"#utility.yul\":5533:5535   */\n      0x20\n        /* \"#utility.yul\":5559:5609   */\n      tag_262\n        /* \"#utility.yul\":5601:5608   */\n      dup6\n        /* \"#utility.yul\":5592:5598   */\n      dup3\n        /* \"#utility.yul\":5581:5590   */\n      dup7\n        /* \"#utility.yul\":5577:5599   */\n      add\n        /* \"#utility.yul\":5559:5609   */\n      tag_173\n      jump\t// in\n    tag_262:\n        /* \"#utility.yul\":5549:5609   */\n      swap2\n      pop\n        /* \"#utility.yul\":5504:5619   */\n      pop\n        /* \"#utility.yul\":5158:5626   */\n      swap3\n      pop\n      swap3\n      swap1\n      pop\n      jump\t// out\n        /* \"#utility.yul\":5632:5801   */\n    tag_174:\n        /* \"#utility.yul\":5716:5727   */\n      0x00\n        /* \"#utility.yul\":5750:5756   */\n      dup3\n        /* \"#utility.yul\":5745:5748   */\n      dup3\n        /* \"#utility.yul\":5738:5757   */\n      mstore\n        /* \"#utility.yul\":5790:5794   */\n      0x20\n        /* \"#utility.yul\":5785:5788   */\n      dup3\n        /* \"#utility.yul\":5781:5795   */\n      add\n        /* \"#utility.yul\":5766:5795   */\n      swap1\n      pop\n        /* \"#utility.yul\":5632:5801   */\n      swap3\n      swap2\n      pop\n      pop\n      jump\t// out\n        /* \"#utility.yul\":5807:6041   */\n    tag_175:\n        /* \"#utility.yul\":5947:5981   */\n      0x416363657373436f6e74726f6c3a2063616e206f6e6c792072656e6f756e6365\n        /* \"#utility.yul\":5943:5944   */\n      0x00\n        /* \"#utility.yul\":5935:5941   */\n      dup3\n        /* \"#utility.yul\":5931:5945   */\n      add\n        /* \"#utility.yul\":5924:5982   */\n      mstore\n        /* \"#utility.yul\":6016:6033   */\n      0x20726f6c657320666f722073656c660000000000000000000000000000000000\n        /* \"#utility.yul\":6011:6013   */\n      0x20\n        /* \"#utility.yul\":6003:6009   */\n      dup3\n        /* \"#utility.yul\":5999:6014   */\n      add\n        /* \"#utility.yul\":5992:6034   */\n      mstore\n        /* \"#utility.yul\":5807:6041   */\n      pop\n      jump\t// out\n        /* \"#utility.yul\":6047:6413   */\n    tag_176:\n        /* \"#utility.yul\":6189:6192   */\n      0x00\n        /* \"#utility.yul\":6210:6277   */\n      tag_266\n        /* \"#utility.yul\":6274:6276   */\n      0x2f\n        /* \"#utility.yul\":6269:6272   */\n      dup4\n        /* \"#utility.yul\":6210:6277   */\n      tag_174\n      jump\t// in\n    tag_266:\n        /* \"#utility.yul\":6203:6277   */\n      swap2\n      pop\n        /* \"#utility.yul\":6286:6379   */\n      tag_267\n        /* \"#utility.yul\":6375:6378   */\n      dup3\n        /* \"#utility.yul\":6286:6379   */\n      tag_175\n      jump\t// in\n    tag_267:\n        /* \"#utility.yul\":6404:6406   */\n      0x40\n        /* \"#utility.yul\":6399:6402   */\n      dup3\n        /* \"#utility.yul\":6395:6407   */\n      add\n        /* \"#utility.yul\":6388:6407   */\n      swap1\n      pop\n        /* \"#utility.yul\":6047:6413   */\n      swap2\n      swap1\n      pop\n      jump\t// out\n        /* \"#utility.yul\":6419:6838   */\n    tag_80:\n        /* \"#utility.yul\":6585:6589   */\n      0x00\n        /* \"#utility.yul\":6623:6625   */\n      0x20\n        /* \"#utility.yul\":6612:6621   */\n      dup3\n        /* \"#utility.yul\":6608:6626   */\n      add\n        /* \"#utility.yul\":6600:6626   */\n      swap1\n      pop\n        /* \"#utility.yul\":6672:6681   */\n      dup2\n        /* \"#utility.yul\":6666:6670   */\n      dup2\n        /* \"#utility.yul\":6662:6682   */\n      sub\n        /* \"#utility.yul\":6658:6659   */\n      0x00\n        /* \"#utility.yul\":6647:6656   */\n      dup4\n        /* \"#utility.yul\":6643:6660   */\n      add\n        /* \"#utility.yul\":6636:6683   */\n      mstore\n        /* \"#utility.yul\":6700:6831   */\n      tag_269\n        /* \"#utility.yul\":6826:6830   */\n      dup2\n        /* \"#utility.yul\":6700:6831   */\n      tag_176\n      jump\t// in\n    tag_269:\n        /* \"#utility.yul\":6692:6831   */\n      swap1\n      pop\n        /* \"#utility.yul\":6419:6838   */\n      swap2\n      swap1\n      pop\n      jump\t// out\n        /* \"#utility.yul\":6844:6992   */\n    tag_177:\n        /* \"#utility.yul\":6946:6957   */\n      0x00\n        /* \"#utility.yul\":6983:6986   */\n      dup2\n        /* \"#utility.yul\":6968:6986   */\n      swap1\n      pop\n        /* \"#utility.yul\":6844:6992   */\n      swap3\n      swap2\n      pop\n      pop\n      jump\t// out\n        /* \"#utility.yul\":6998:7171   */\n    tag_178:\n        /* \"#utility.yul\":7138:7163   */\n      0x416363657373436f6e74726f6c3a206163636f756e7420000000000000000000\n        /* \"#utility.yul\":7134:7135   */\n      0x00\n        /* \"#utility.yul\":7126:7132   */\n      dup3\n        /* \"#utility.yul\":7122:7136   */\n      add\n        /* \"#utility.yul\":7115:7164   */\n      mstore\n        /* \"#utility.yul\":6998:7171   */\n      pop\n      jump\t// out\n        /* \"#utility.yul\":7177:7579   */\n    tag_179:\n        /* \"#utility.yul\":7337:7340   */\n      0x00\n        /* \"#utility.yul\":7358:7443   */\n      tag_273\n        /* \"#utility.yul\":7440:7442   */\n      0x17\n        /* \"#utility.yul\":7435:7438   */\n      dup4\n        /* \"#utility.yul\":7358:7443   */\n      tag_177\n      jump\t// in\n    tag_273:\n        /* \"#utility.yul\":7351:7443   */\n      swap2\n      pop\n        /* \"#utility.yul\":7452:7545   */\n      tag_274\n        /* \"#utility.yul\":7541:7544   */\n      dup3\n        /* \"#utility.yul\":7452:7545   */\n      tag_178\n      jump\t// in\n    tag_274:\n        /* \"#utility.yul\":7570:7572   */\n      0x17\n        /* \"#utility.yul\":7565:7568   */\n      dup3\n        /* \"#utility.yul\":7561:7573   */\n      add\n        /* \"#utility.yul\":7554:7573   */\n      swap1\n      pop\n        /* \"#utility.yul\":7177:7579   */\n      swap2\n      swap1\n      pop\n      jump\t// out\n        /* \"#utility.yul\":7585:7684   */\n    tag_180:\n        /* \"#utility.yul\":7637:7643   */\n      0x00\n        /* \"#utility.yul\":7671:7676   */\n      dup2\n        /* \"#utility.yul\":7665:7677   */\n      mload\n        /* \"#utility.yul\":7655:7677   */\n      swap1\n      pop\n        /* \"#utility.yul\":7585:7684   */\n      swap2\n      swap1\n      pop\n      jump\t// out\n        /* \"#utility.yul\":7690:7997   */\n    tag_181:\n        /* \"#utility.yul\":7758:7759   */\n      0x00\n        /* \"#utility.yul\":7768:7881   */\n    tag_277:\n        /* \"#utility.yul\":7782:7788   */\n      dup4\n        /* \"#utility.yul\":7779:7780   */\n      dup2\n        /* \"#utility.yul\":7776:7789   */\n      lt\n        /* \"#utility.yul\":7768:7881   */\n      iszero\n      tag_279\n      jumpi\n        /* \"#utility.yul\":7867:7868   */\n      dup1\n        /* \"#utility.yul\":7862:7865   */\n      dup3\n        /* \"#utility.yul\":7858:7869   */\n      add\n        /* \"#utility.yul\":7852:7870   */\n      mload\n        /* \"#utility.yul\":7848:7849   */\n      dup2\n        /* \"#utility.yul\":7843:7846   */\n      dup5\n        /* \"#utility.yul\":7839:7850   */\n      add\n        /* \"#utility.yul\":7832:7871   */\n      mstore\n        /* \"#utility.yul\":7804:7806   */\n      0x20\n        /* \"#utility.yul\":7801:7802   */\n      dup2\n        /* \"#utility.yul\":7797:7807   */\n      add\n        /* \"#utility.yul\":7792:7807   */\n      swap1\n      pop\n        /* \"#utility.yul\":7768:7881   */\n      jump(tag_277)\n    tag_279:\n        /* \"#utility.yul\":7899:7905   */\n      dup4\n        /* \"#utility.yul\":7896:7897   */\n      dup2\n        /* \"#utility.yul\":7893:7906   */\n      gt\n        /* \"#utility.yul\":7890:7991   */\n      iszero\n      tag_280\n      jumpi\n        /* \"#utility.yul\":7979:7980   */\n      0x00\n        /* \"#utility.yul\":7970:7976   */\n      dup5\n        /* \"#utility.yul\":7965:7968   */\n      dup5\n        /* \"#utility.yul\":7961:7977   */\n      add\n        /* \"#utility.yul\":7954:7981   */\n      mstore\n        /* \"#utility.yul\":7890:7991   */\n    tag_280:\n        /* \"#utility.yul\":7739:7997   */\n      pop\n        /* \"#utility.yul\":7690:7997   */\n      pop\n      pop\n      pop\n      jump\t// out\n        /* \"#utility.yul\":8003:8380   */\n    tag_182:\n        /* \"#utility.yul\":8109:8112   */\n      0x00\n        /* \"#utility.yul\":8137:8176   */\n      tag_282\n        /* \"#utility.yul\":8170:8175   */\n      dup3\n        /* \"#utility.yul\":8137:8176   */\n      tag_180\n      jump\t// in\n    tag_282:\n        /* \"#utility.yul\":8192:8281   */\n      tag_283\n        /* \"#utility.yul\":8274:8280   */\n      dup2\n        /* \"#utility.yul\":8269:8272   */\n      dup6\n        /* \"#utility.yul\":8192:8281   */\n      tag_177\n      jump\t// in\n    tag_283:\n        /* \"#utility.yul\":8185:8281   */\n      swap4\n      pop\n        /* \"#utility.yul\":8290:8342   */\n      tag_284\n        /* \"#utility.yul\":8335:8341   */\n      dup2\n        /* \"#utility.yul\":8330:8333   */\n      dup6\n        /* \"#utility.yul\":8323:8327   */\n      0x20\n        /* \"#utility.yul\":8316:8321   */\n      dup7\n        /* \"#utility.yul\":8312:8328   */\n      add\n        /* \"#utility.yul\":8290:8342   */\n      tag_181\n      jump\t// in\n    tag_284:\n        /* \"#utility.yul\":8367:8373   */\n      dup1\n        /* \"#utility.yul\":8362:8365   */\n      dup5\n        /* \"#utility.yul\":8358:8374   */\n      add\n        /* \"#utility.yul\":8351:8374   */\n      swap2\n      pop\n        /* \"#utility.yul\":8113:8380   */\n      pop\n        /* \"#utility.yul\":8003:8380   */\n      swap3\n      swap2\n      pop\n      pop\n      jump\t// out\n        /* \"#utility.yul\":8386:8553   */\n    tag_183:\n        /* \"#utility.yul\":8526:8545   */\n      0x206973206d697373696e6720726f6c6520000000000000000000000000000000\n        /* \"#utility.yul\":8522:8523   */\n      0x00\n        /* \"#utility.yul\":8514:8520   */\n      dup3\n        /* \"#utility.yul\":8510:8524   */\n      add\n        /* \"#utility.yul\":8503:8546   */\n      mstore\n        /* \"#utility.yul\":8386:8553   */\n      pop\n      jump\t// out\n        /* \"#utility.yul\":8559:8961   */\n    tag_184:\n        /* \"#utility.yul\":8719:8722   */\n      0x00\n        /* \"#utility.yul\":8740:8825   */\n      tag_287\n        /* \"#utility.yul\":8822:8824   */\n      0x11\n        /* \"#utility.yul\":8817:8820   */\n      dup4\n        /* \"#utility.yul\":8740:8825   */\n      tag_177\n      jump\t// in\n    tag_287:\n        /* \"#utility.yul\":8733:8825   */\n      swap2\n      pop\n        /* \"#utility.yul\":8834:8927   */\n      tag_288\n        /* \"#utility.yul\":8923:8926   */\n      dup3\n        /* \"#utility.yul\":8834:8927   */\n      tag_183\n      jump\t// in\n    tag_288:\n        /* \"#utility.yul\":8952:8954   */\n      0x11\n        /* \"#utility.yul\":8947:8950   */\n      dup3\n        /* \"#utility.yul\":8943:8955   */\n      add\n        /* \"#utility.yul\":8936:8955   */\n      swap1\n      pop\n        /* \"#utility.yul\":8559:8961   */\n      swap2\n      swap1\n      pop\n      jump\t// out\n        /* \"#utility.yul\":8967:9934   */\n    tag_113:\n        /* \"#utility.yul\":9349:9352   */\n      0x00\n        /* \"#utility.yul\":9371:9519   */\n      tag_290\n        /* \"#utility.yul\":9515:9518   */\n      dup3\n        /* \"#utility.yul\":9371:9519   */\n      tag_179\n      jump\t// in\n    tag_290:\n        /* \"#utility.yul\":9364:9519   */\n      swap2\n      pop\n        /* \"#utility.yul\":9536:9631   */\n      tag_291\n        /* \"#utility.yul\":9627:9630   */\n      dup3\n        /* \"#utility.yul\":9618:9624   */\n      dup6\n        /* \"#utility.yul\":9536:9631   */\n      tag_182\n      jump\t// in\n    tag_291:\n        /* \"#utility.yul\":9529:9631   */\n      swap2\n      pop\n        /* \"#utility.yul\":9648:9796   */\n      tag_292\n        /* \"#utility.yul\":9792:9795   */\n      dup3\n        /* \"#utility.yul\":9648:9796   */\n      tag_184\n      jump\t// in\n    tag_292:\n        /* \"#utility.yul\":9641:9796   */\n      swap2\n      pop\n        /* \"#utility.yul\":9813:9908   */\n      tag_293\n        /* \"#utility.yul\":9904:9907   */\n      dup3\n        /* \"#utility.yul\":9895:9901   */\n      dup5\n        /* \"#utility.yul\":9813:9908   */\n      tag_182\n      jump\t// in\n    tag_293:\n        /* \"#utility.yul\":9806:9908   */\n      swap2\n      pop\n        /* \"#utility.yul\":9925:9928   */\n      dup2\n        /* \"#utility.yul\":9918:9928   */\n      swap1\n      pop\n        /* \"#utility.yul\":8967:9934   */\n      swap4\n      swap3\n      pop\n      pop\n      pop\n      jump\t// out\n        /* \"#utility.yul\":9940:10042   */\n    tag_185:\n        /* \"#utility.yul\":9981:9987   */\n      0x00\n        /* \"#utility.yul\":10032:10034   */\n      0x1f\n        /* \"#utility.yul\":10028:10035   */\n      not\n        /* \"#utility.yul\":10023:10025   */\n      0x1f\n        /* \"#utility.yul\":10016:10021   */\n      dup4\n        /* \"#utility.yul\":10012:10026   */\n      add\n        /* \"#utility.yul\":10008:10036   */\n      and\n        /* \"#utility.yul\":9998:10036   */\n      swap1\n      pop\n        /* \"#utility.yul\":9940:10042   */\n      swap2\n      swap1\n      pop\n      jump\t// out\n        /* \"#utility.yul\":10048:10412   */\n    tag_186:\n        /* \"#utility.yul\":10136:10139   */\n      0x00\n        /* \"#utility.yul\":10164:10203   */\n      tag_296\n        /* \"#utility.yul\":10197:10202   */\n      dup3\n        /* \"#utility.yul\":10164:10203   */\n      tag_180\n      jump\t// in\n    tag_296:\n        /* \"#utility.yul\":10219:10290   */\n      tag_297\n        /* \"#utility.yul\":10283:10289   */\n      dup2\n        /* \"#utility.yul\":10278:10281   */\n      dup6\n        /* \"#utility.yul\":10219:10290   */\n      tag_174\n      jump\t// in\n    tag_297:\n        /* \"#utility.yul\":10212:10290   */\n      swap4\n      pop\n        /* \"#utility.yul\":10299:10351   */\n      tag_298\n        /* \"#utility.yul\":10344:10350   */\n      dup2\n        /* \"#utility.yul\":10339:10342   */\n      dup6\n        /* \"#utility.yul\":10332:10336   */\n      0x20\n        /* \"#utility.yul\":10325:10330   */\n      dup7\n        /* \"#utility.yul\":10321:10337   */\n      add\n        /* \"#utility.yul\":10299:10351   */\n      tag_181\n      jump\t// in\n    tag_298:\n        /* \"#utility.yul\":10376:10405   */\n      tag_299\n        /* \"#utility.yul\":10398:10404   */\n      dup2\n        /* \"#utility.yul\":10376:10405   */\n      tag_185\n      jump\t// in\n    tag_299:\n        /* \"#utility.yul\":10371:10374   */\n      dup5\n        /* \"#utility.yul\":10367:10406   */\n      add\n        /* \"#utility.yul\":10360:10406   */\n      swap2\n      pop\n        /* \"#utility.yul\":10140:10412   */\n      pop\n        /* \"#utility.yul\":10048:10412   */\n      swap3\n      swap2\n      pop\n      pop\n      jump\t// out\n        /* \"#utility.yul\":10418:10731   */\n    tag_115:\n        /* \"#utility.yul\":10531:10535   */\n      0x00\n        /* \"#utility.yul\":10569:10571   */\n      0x20\n        /* \"#utility.yul\":10558:10567   */\n      dup3\n        /* \"#utility.yul\":10554:10572   */\n      add\n        /* \"#utility.yul\":10546:10572   */\n      swap1\n      pop\n        /* \"#utility.yul\":10618:10627   */\n      dup2\n        /* \"#utility.yul\":10612:10616   */\n      dup2\n        /* \"#utility.yul\":10608:10628   */\n      sub\n        /* \"#utility.yul\":10604:10605   */\n      0x00\n        /* \"#utility.yul\":10593:10602   */\n      dup4\n        /* \"#utility.yul\":10589:10606   */\n      add\n        /* \"#utility.yul\":10582:10629   */\n      mstore\n        /* \"#utility.yul\":10646:10724   */\n      tag_301\n        /* \"#utility.yul\":10719:10723   */\n      dup2\n        /* \"#utility.yul\":10710:10716   */\n      dup5\n        /* \"#utility.yul\":10646:10724   */\n      tag_186\n      jump\t// in\n    tag_301:\n        /* \"#utility.yul\":10638:10724   */\n      swap1\n      pop\n        /* \"#utility.yul\":10418:10731   */\n      swap3\n      swap2\n      pop\n      pop\n      jump\t// out\n        /* \"#utility.yul\":10737:10814   */\n    tag_187:\n        /* \"#utility.yul\":10774:10781   */\n      0x00\n        /* \"#utility.yul\":10803:10808   */\n      dup2\n        /* \"#utility.yul\":10792:10808   */\n      swap1\n      pop\n        /* \"#utility.yul\":10737:10814   */\n      swap2\n      swap1\n      pop\n      jump\t// out\n        /* \"#utility.yul\":10820:11000   */\n    tag_188:\n        /* \"#utility.yul\":10868:10945   */\n      0x4e487b7100000000000000000000000000000000000000000000000000000000\n        /* \"#utility.yul\":10865:10866   */\n      0x00\n        /* \"#utility.yul\":10858:10946   */\n      mstore\n        /* \"#utility.yul\":10965:10969   */\n      0x11\n        /* \"#utility.yul\":10962:10963   */\n      0x04\n        /* \"#utility.yul\":10955:10970   */\n      mstore\n        /* \"#utility.yul\":10989:10993   */\n      0x24\n        /* \"#utility.yul\":10986:10987   */\n      0x00\n        /* \"#utility.yul\":10979:10994   */\n      revert\n        /* \"#utility.yul\":11006:11354   */\n    tag_126:\n        /* \"#utility.yul\":11046:11053   */\n      0x00\n        /* \"#utility.yul\":11069:11089   */\n      tag_305\n        /* \"#utility.yul\":11087:11088   */\n      dup3\n        /* \"#utility.yul\":11069:11089   */\n      tag_187\n      jump\t// in\n    tag_305:\n        /* \"#utility.yul\":11064:11089   */\n      swap2\n      pop\n        /* \"#utility.yul\":11103:11123   */\n      tag_306\n        /* \"#utility.yul\":11121:11122   */\n      dup4\n        /* \"#utility.yul\":11103:11123   */\n      tag_187\n      jump\t// in\n    tag_306:\n        /* \"#utility.yul\":11098:11123   */\n      swap3\n      pop\n        /* \"#utility.yul\":11291:11292   */\n      dup2\n        /* \"#utility.yul\":11223:11289   */\n      0xffffffffffffffffffffffffffffffffffffffffffffffffffffffffffffffff\n        /* \"#utility.yul\":11219:11293   */\n      div\n        /* \"#utility.yul\":11216:11217   */\n      dup4\n        /* \"#utility.yul\":11213:11294   */\n      gt\n        /* \"#utility.yul\":11208:11209   */\n      dup3\n        /* \"#utility.yul\":11201:11210   */\n      iszero\n        /* \"#utility.yul\":11194:11211   */\n      iszero\n        /* \"#utility.yul\":11190:11295   */\n      and\n        /* \"#utility.yul\":11187:11318   */\n      iszero\n      tag_307\n      jumpi\n        /* \"#utility.yul\":11298:11316   */\n      tag_308\n      tag_188\n      jump\t// in\n    tag_308:\n        /* \"#utility.yul\":11187:11318   */\n    tag_307:\n        /* \"#utility.yul\":11346:11347   */\n      dup3\n        /* \"#utility.yul\":11343:11344   */\n      dup3\n        /* \"#utility.yul\":11339:11348   */\n      mul\n        /* \"#utility.yul\":11328:11348   */\n      swap1\n      pop\n        /* \"#utility.yul\":11006:11354   */\n      swap3\n      swap2\n      pop\n      pop\n      jump\t// out\n        /* \"#utility.yul\":11360:11665   */\n    tag_128:\n        /* \"#utility.yul\":11400:11403   */\n      0x00\n        /* \"#utility.yul\":11419:11439   */\n      tag_310\n        /* \"#utility.yul\":11437:11438   */\n      dup3\n        /* \"#utility.yul\":11419:11439   */\n      tag_187\n      jump\t// in\n    tag_310:\n        /* \"#utility.yul\":11414:11439   */\n      swap2\n      pop\n        /* \"#utility.yul\":11453:11473   */\n      tag_311\n        /* \"#utility.yul\":11471:11472   */\n      dup4\n        /* \"#utility.yul\":11453:11473   */\n      tag_187\n      jump\t// in\n    tag_311:\n        /* \"#utility.yul\":11448:11473   */\n      swap3\n      pop\n        /* \"#utility.yul\":11607:11608   */\n      dup3\n        /* \"#utility.yul\":11539:11605   */\n      0xffffffffffffffffffffffffffffffffffffffffffffffffffffffffffffffff\n        /* \"#utility.yul\":11535:11609   */\n      sub\n        /* \"#utility.yul\":11532:11533   */\n      dup3\n        /* \"#utility.yul\":11529:11610   */\n      gt\n        /* \"#utility.yul\":11526:11633   */\n      iszero\n      tag_312\n      jumpi\n        /* \"#utility.yul\":11613:11631   */\n      tag_313\n      tag_188\n      jump\t// in\n    tag_313:\n        /* \"#utility.yul\":11526:11633   */\n    tag_312:\n        /* \"#utility.yul\":11657:11658   */\n      dup3\n        /* \"#utility.yul\":11654:11655   */\n      dup3\n        /* \"#utility.yul\":11650:11659   */\n      add\n        /* \"#utility.yul\":11643:11659   */\n      swap1\n      pop\n        /* \"#utility.yul\":11360:11665   */\n      swap3\n      swap2\n      pop\n      pop\n      jump\t// out\n        /* \"#utility.yul\":11671:11851   */\n    tag_131:\n        /* \"#utility.yul\":11719:11796   */\n      0x4e487b7100000000000000000000000000000000000000000000000000000000\n        /* \"#utility.yul\":11716:11717   */\n      0x00\n        /* \"#utility.yul\":11709:11797   */\n      mstore\n        /* \"#utility.yul\":11816:11820   */\n      0x41\n        /* \"#utility.yul\":11813:11814   */\n      0x04\n        /* \"#utility.yul\":11806:11821   */\n      mstore\n        /* \"#utility.yul\":11840:11844   */\n      0x24\n        /* \"#utility.yul\":11837:11838   */\n      0x00\n        /* \"#utility.yul\":11830:11845   */\n      revert\n        /* \"#utility.yul\":11857:12037   */\n    tag_135:\n        /* \"#utility.yul\":11905:11982   */\n      0x4e487b7100000000000000000000000000000000000000000000000000000000\n        /* \"#utility.yul\":11902:11903   */\n      0x00\n        /* \"#utility.yul\":11895:11983   */\n      mstore\n        /* \"#utility.yul\":12002:12006   */\n      0x32\n        /* \"#utility.yul\":11999:12000   */\n      0x04\n        /* \"#utility.yul\":11992:12007   */\n      mstore\n        /* \"#utility.yul\":12026:12030   */\n      0x24\n        /* \"#utility.yul\":12023:12024   */\n      0x00\n        /* \"#utility.yul\":12016:12031   */\n      revert\n        /* \"#utility.yul\":12043:12214   */\n    tag_148:\n        /* \"#utility.yul\":12082:12085   */\n      0x00\n        /* \"#utility.yul\":12105:12129   */\n      tag_317\n        /* \"#utility.yul\":12123:12128   */\n      dup3\n        /* \"#utility.yul\":12105:12129   */\n      tag_187\n      jump\t// in\n    tag_317:\n        /* \"#utility.yul\":12096:12129   */\n      swap2\n      pop\n        /* \"#utility.yul\":12151:12155   */\n      0x00\n        /* \"#utility.yul\":12144:12149   */\n      dup3\n        /* \"#utility.yul\":12141:12156   */\n      sub\n        /* \"#utility.yul\":12138:12179   */\n      tag_318\n      jumpi\n        /* \"#utility.yul\":12159:12177   */\n      tag_319\n      tag_188\n      jump\t// in\n    tag_319:\n        /* \"#utility.yul\":12138:12179   */\n    tag_318:\n        /* \"#utility.yul\":12206:12207   */\n      0x01\n        /* \"#utility.yul\":12199:12204   */\n      dup3\n        /* \"#utility.yul\":12195:12208   */\n      sub\n        /* \"#utility.yul\":12188:12208   */\n      swap1\n      pop\n        /* \"#utility.yul\":12043:12214   */\n      swap2\n      swap1\n      pop\n      jump\t// out\n        /* \"#utility.yul\":12220:12402   */\n    tag_189:\n        /* \"#utility.yul\":12360:12394   */\n      0x537472696e67733a20686578206c656e67746820696e73756666696369656e74\n        /* \"#utility.yul\":12356:12357   */\n      0x00\n        /* \"#utility.yul\":12348:12354   */\n      dup3\n        /* \"#utility.yul\":12344:12358   */\n      add\n        /* \"#utility.yul\":12337:12395   */\n      mstore\n        /* \"#utility.yul\":12220:12402   */\n      pop\n      jump\t// out\n        /* \"#utility.yul\":12408:12774   */\n    tag_190:\n        /* \"#utility.yul\":12550:12553   */\n      0x00\n        /* \"#utility.yul\":12571:12638   */\n      tag_322\n        /* \"#utility.yul\":12635:12637   */\n      0x20\n        /* \"#utility.yul\":12630:12633   */\n      dup4\n        /* \"#utility.yul\":12571:12638   */\n      tag_174\n      jump\t// in\n    tag_322:\n        /* \"#utility.yul\":12564:12638   */\n      swap2\n      pop\n        /* \"#utility.yul\":12647:12740   */\n      tag_323\n        /* \"#utility.yul\":12736:12739   */\n      dup3\n        /* \"#utility.yul\":12647:12740   */\n      tag_189\n      jump\t// in\n    tag_323:\n        /* \"#utility.yul\":12765:12767   */\n      0x20\n        /* \"#utility.yul\":12760:12763   */\n      dup3\n        /* \"#utility.yul\":12756:12768   */\n      add\n        /* \"#utility.yul\":12749:12768   */\n      swap1\n      pop\n        /* \"#utility.yul\":12408:12774   */\n      swap2\n      swap1\n      pop\n      jump\t// out\n        /* \"#utility.yul\":12780:13199   */\n    tag_151:\n        /* \"#utility.yul\":12946:12950   */\n      0x00\n        /* \"#utility.yul\":12984:12986   */\n      0x20\n        /* \"#utility.yul\":12973:12982   */\n      dup3\n        /* \"#utility.yul\":12969:12987   */\n      add\n        /* \"#utility.yul\":12961:12987   */\n      swap1\n      pop\n        /* \"#utility.yul\":13033:13042   */\n      dup2\n        /* \"#utility.yul\":13027:13031   */\n      dup2\n        /* \"#utility.yul\":13023:13043   */\n      sub\n        /* \"#utility.yul\":13019:13020   */\n      0x00\n        /* \"#utility.yul\":13008:13017   */\n      dup4\n        /* \"#utility.yul\":13004:13021   */\n      add\n        /* \"#utility.yul\":12997:13044   */\n      mstore\n        /* \"#utility.yul\":13061:13192   */\n      tag_325\n        /* \"#utility.yul\":13187:13191   */\n      dup2\n        /* \"#utility.yul\":13061:13192   */\n      tag_190\n      jump\t// in\n    tag_325:\n        /* \"#utility.yul\":13053:13192   */\n      swap1\n      pop\n        /* \"#utility.yul\":12780:13199   */\n      swap2\n      swap1\n      pop\n      jump\t// out\n\n    auxdata: 0xa26469706673582212206a111cae40a3a777bd3035bb05a16f19ac25e0503b75dec718c771e45d21dbad64736f6c634300080d0033\n}\n",
				"bytecode": {
					"linkReferences": {},
					"object": "6080604052600060015534801561001557600080fd5b5061128f806100256000396000f3fe608060405234801561001057600080fd5b50600436106100a95760003560e01c806391d148541161007157806391d1485414610176578063a217fddf146101a6578063bd041c4d146101c4578063d547741f146101e0578063e9c26518146101fc578063f4ab9adf1461021a576100a9565b806301ffc9a7146100ae578063248a9ca3146100de57806324d427a91461010e5780632f2ff15d1461013e57806336568abe1461015a575b600080fd5b6100c860048036038101906100c39190610b69565b61024a565b6040516100d59190610bb1565b60405180910390f35b6100f860048036038101906100f39190610c02565b6102c4565b6040516101059190610c3e565b60405180910390f35b61012860048036038101906101239190610cb7565b6102e3565b6040516101359190610d5b565b60405180910390f35b61015860048036038101906101539190610d76565b610339565b005b610174600480360381019061016f9190610d76565b610362565b005b610190600480360381019061018b9190610d76565b6103e5565b60405161019d9190610bb1565b60405180910390f35b6101ae61044f565b6040516101bb9190610c3e565b60405180910390f35b6101de60048036038101906101d99190610de2565b610456565b005b6101fa60048036038101906101f59190610d76565b61055d565b005b610204610586565b6040516102119190610c3e565b60405180910390f35b610234600480360381019061022f9190610cb7565b6105aa565b6040516102419190610d5b565b60405180910390f35b60007f7965db0b000000000000000000000000000000000000000000000000000000007bffffffffffffffffffffffffffffffffffffffffffffffffffffffff1916827bffffffffffffffffffffffffffffffffffffffffffffffffffffffff191614806102bd57506102bc82610600565b5b9050919050565b6000806000838152602001908152602001600020600101549050919050565b6000600260008373ffffffffffffffffffffffffffffffffffffffff1673ffffffffffffffffffffffffffffffffffffffff16815260200190815260200160002060009054906101000a900460ff169050919050565b610342826102c4565b6103538161034e61066a565b610672565b61035d838361070f565b505050565b61036a61066a565b73ffffffffffffffffffffffffffffffffffffffff168173ffffffffffffffffffffffffffffffffffffffff16146103d7576040517f08c379a00000000000000000000000000000000000000000000000000000000081526004016103ce90610ea5565b60405180910390fd5b6103e182826107ef565b5050565b600080600084815260200190815260200160002060000160008373ffffffffffffffffffffffffffffffffffffffff1673ffffffffffffffffffffffffffffffffffffffff16815260200190815260200160002060009054906101000a900460ff16905092915050565b6000801b81565b6001600381111561046a57610469610ce4565b5b600260008473ffffffffffffffffffffffffffffffffffffffff1673ffffffffffffffffffffffffffffffffffffffff16815260200190815260200160002060009054906101000a900460ff1660038111156104c9576104c8610ce4565b5b0361055957806104da5760036104dd565b60025b60ff1660038111156104f2576104f1610ce4565b5b600260008473ffffffffffffffffffffffffffffffffffffffff1673ffffffffffffffffffffffffffffffffffffffff16815260200190815260200160002060006101000a81548160ff0219169083600381111561055357610552610ce4565b5b02179055505b5050565b610566826102c4565b6105778161057261066a565b610672565b61058183836107ef565b505050565b7f3b5d4cc60d3ec3516ee8ae083bd60934f6eb2a6c54b1229985c41bfb092b260381565b6000600260008373ffffffffffffffffffffffffffffffffffffffff1673ffffffffffffffffffffffffffffffffffffffff16815260200190815260200160002060009054906101000a900460ff169050919050565b60007f01ffc9a7000000000000000000000000000000000000000000000000000000007bffffffffffffffffffffffffffffffffffffffffffffffffffffffff1916827bffffffffffffffffffffffffffffffffffffffffffffffffffffffff1916149050919050565b600033905090565b61067c82826103e5565b61070b576106a18173ffffffffffffffffffffffffffffffffffffffff1660146108d0565b6106af8360001c60206108d0565b6040516020016106c0929190610fd7565b6040516020818303038152906040526040517f08c379a0000000000000000000000000000000000000000000000000000000008152600401610702919061105b565b60405180910390fd5b5050565b61071982826103e5565b6107eb57600160008084815260200190815260200160002060000160008373ffffffffffffffffffffffffffffffffffffffff1673ffffffffffffffffffffffffffffffffffffffff16815260200190815260200160002060006101000a81548160ff02191690831515021790555061079061066a565b73ffffffffffffffffffffffffffffffffffffffff168173ffffffffffffffffffffffffffffffffffffffff16837f2f8788117e7eff1d82e926ec794901d17c78024a50270940304540a733656f0d60405160405180910390a45b5050565b6107f982826103e5565b156108cc57600080600084815260200190815260200160002060000160008373ffffffffffffffffffffffffffffffffffffffff1673ffffffffffffffffffffffffffffffffffffffff16815260200190815260200160002060006101000a81548160ff02191690831515021790555061087161066a565b73ffffffffffffffffffffffffffffffffffffffff168173ffffffffffffffffffffffffffffffffffffffff16837ff6391f5c32d9c69d2a47ea670b442974b53935d1edc7fd64eb21e047a839171b60405160405180910390a45b5050565b6060600060028360026108e391906110b6565b6108ed9190611110565b67ffffffffffffffff81111561090657610905611166565b5b6040519080825280601f01601f1916602001820160405280156109385781602001600182028036833780820191505090505b5090507f3000000000000000000000000000000000000000000000000000000000000000816000815181106109705761096f611195565b5b60200101907effffffffffffffffffffffffffffffffffffffffffffffffffffffffffffff1916908160001a9053507f7800000000000000000000000000000000000000000000000000000000000000816001815181106109d4576109d3611195565b5b60200101907effffffffffffffffffffffffffffffffffffffffffffffffffffffffffffff1916908160001a90535060006001846002610a1491906110b6565b610a1e9190611110565b90505b6001811115610abe577f3031323334353637383961626364656600000000000000000000000000000000600f861660108110610a6057610a5f611195565b5b1a60f81b828281518110610a7757610a76611195565b5b60200101907effffffffffffffffffffffffffffffffffffffffffffffffffffffffffffff1916908160001a905350600485901c945080610ab7906111c4565b9050610a21565b5060008414610b02576040517f08c379a0000000000000000000000000000000000000000000000000000000008152600401610af990611239565b60405180910390fd5b8091505092915050565b600080fd5b60007fffffffff0000000000000000000000000000000000000000000000000000000082169050919050565b610b4681610b11565b8114610b5157600080fd5b50565b600081359050610b6381610b3d565b92915050565b600060208284031215610b7f57610b7e610b0c565b5b6000610b8d84828501610b54565b91505092915050565b60008115159050919050565b610bab81610b96565b82525050565b6000602082019050610bc66000830184610ba2565b92915050565b6000819050919050565b610bdf81610bcc565b8114610bea57600080fd5b50565b600081359050610bfc81610bd6565b92915050565b600060208284031215610c1857610c17610b0c565b5b6000610c2684828501610bed565b91505092915050565b610c3881610bcc565b82525050565b6000602082019050610c536000830184610c2f565b92915050565b600073ffffffffffffffffffffffffffffffffffffffff82169050919050565b6000610c8482610c59565b9050919050565b610c9481610c79565b8114610c9f57600080fd5b50565b600081359050610cb181610c8b565b92915050565b600060208284031215610ccd57610ccc610b0c565b5b6000610cdb84828501610ca2565b91505092915050565b7f4e487b7100000000000000000000000000000000000000000000000000000000600052602160045260246000fd5b60048110610d2457610d23610ce4565b5b50565b6000819050610d3582610d13565b919050565b6000610d4582610d27565b9050919050565b610d5581610d3a565b82525050565b6000602082019050610d706000830184610d4c565b92915050565b60008060408385031215610d8d57610d8c610b0c565b5b6000610d9b85828601610bed565b9250506020610dac85828601610ca2565b9150509250929050565b610dbf81610b96565b8114610dca57600080fd5b50565b600081359050610ddc81610db6565b92915050565b60008060408385031215610df957610df8610b0c565b5b6000610e0785828601610ca2565b9250506020610e1885828601610dcd565b9150509250929050565b600082825260208201905092915050565b7f416363657373436f6e74726f6c3a2063616e206f6e6c792072656e6f756e636560008201527f20726f6c657320666f722073656c660000000000000000000000000000000000602082015250565b6000610e8f602f83610e22565b9150610e9a82610e33565b604082019050919050565b60006020820190508181036000830152610ebe81610e82565b9050919050565b600081905092915050565b7f416363657373436f6e74726f6c3a206163636f756e7420000000000000000000600082015250565b6000610f06601783610ec5565b9150610f1182610ed0565b601782019050919050565b600081519050919050565b60005b83811015610f45578082015181840152602081019050610f2a565b83811115610f54576000848401525b50505050565b6000610f6582610f1c565b610f6f8185610ec5565b9350610f7f818560208601610f27565b80840191505092915050565b7f206973206d697373696e6720726f6c6520000000000000000000000000000000600082015250565b6000610fc1601183610ec5565b9150610fcc82610f8b565b601182019050919050565b6000610fe282610ef9565b9150610fee8285610f5a565b9150610ff982610fb4565b91506110058284610f5a565b91508190509392505050565b6000601f19601f8301169050919050565b600061102d82610f1c565b6110378185610e22565b9350611047818560208601610f27565b61105081611011565b840191505092915050565b600060208201905081810360008301526110758184611022565b905092915050565b6000819050919050565b7f4e487b7100000000000000000000000000000000000000000000000000000000600052601160045260246000fd5b60006110c18261107d565b91506110cc8361107d565b9250817fffffffffffffffffffffffffffffffffffffffffffffffffffffffffffffffff048311821515161561110557611104611087565b5b828202905092915050565b600061111b8261107d565b91506111268361107d565b9250827fffffffffffffffffffffffffffffffffffffffffffffffffffffffffffffffff0382111561115b5761115a611087565b5b828201905092915050565b7f4e487b7100000000000000000000000000000000000000000000000000000000600052604160045260246000fd5b7f4e487b7100000000000000000000000000000000000000000000000000000000600052603260045260246000fd5b60006111cf8261107d565b9150600082036111e2576111e1611087565b5b600182039050919050565b7f537472696e67733a20686578206c656e67746820696e73756666696369656e74600082015250565b6000611223602083610e22565b915061122e826111ed565b602082019050919050565b6000602082019050818103600083015261125281611216565b905091905056fea26469706673582212206a111cae40a3a777bd3035bb05a16f19ac25e0503b75dec718c771e45d21dbad64736f6c634300080d0033",
					"opcodes": "PUSH1 0x80 PUSH1 0x40 MSTORE PUSH1 0x0 PUSH1 0x1 SSTORE CALLVALUE DUP1 ISZERO PUSH2 0x15 JUMPI PUSH1 0x0 DUP1 REVERT JUMPDEST POP PUSH2 0x128F DUP1 PUSH2 0x25 PUSH1 0x0 CODECOPY PUSH1 0x0 RETURN INVALID PUSH1 0x80 PUSH1 0x40 MSTORE CALLVALUE DUP1 ISZERO PUSH2 0x10 JUMPI PUSH1 0x0 DUP1 REVERT JUMPDEST POP PUSH1 0x4 CALLDATASIZE LT PUSH2 0xA9 JUMPI PUSH1 0x0 CALLDATALOAD PUSH1 0xE0 SHR DUP1 PUSH4 0x91D14854 GT PUSH2 0x71 JUMPI DUP1 PUSH4 0x91D14854 EQ PUSH2 0x176 JUMPI DUP1 PUSH4 0xA217FDDF EQ PUSH2 0x1A6 JUMPI DUP1 PUSH4 0xBD041C4D EQ PUSH2 0x1C4 JUMPI DUP1 PUSH4 0xD547741F EQ PUSH2 0x1E0 JUMPI DUP1 PUSH4 0xE9C26518 EQ PUSH2 0x1FC JUMPI DUP1 PUSH4 0xF4AB9ADF EQ PUSH2 0x21A JUMPI PUSH2 0xA9 JUMP JUMPDEST DUP1 PUSH4 0x1FFC9A7 EQ PUSH2 0xAE JUMPI DUP1 PUSH4 0x248A9CA3 EQ PUSH2 0xDE JUMPI DUP1 PUSH4 0x24D427A9 EQ PUSH2 0x10E JUMPI DUP1 PUSH4 0x2F2FF15D EQ PUSH2 0x13E JUMPI DUP1 PUSH4 0x36568ABE EQ PUSH2 0x15A JUMPI JUMPDEST PUSH1 0x0 DUP1 REVERT JUMPDEST PUSH2 0xC8 PUSH1 0x4 DUP1 CALLDATASIZE SUB DUP2 ADD SWAP1 PUSH2 0xC3 SWAP2 SWAP1 PUSH2 0xB69 JUMP JUMPDEST PUSH2 0x24A JUMP JUMPDEST PUSH1 0x40 MLOAD PUSH2 0xD5 SWAP2 SWAP1 PUSH2 0xBB1 JUMP JUMPDEST PUSH1 0x40 MLOAD DUP1 SWAP2 SUB SWAP1 RETURN JUMPDEST PUSH2 0xF8 PUSH1 0x4 DUP1 CALLDATASIZE SUB DUP2 ADD SWAP1 PUSH2 0xF3 SWAP2 SWAP1 PUSH2 0xC02 JUMP JUMPDEST PUSH2 0x2C4 JUMP JUMPDEST PUSH1 0x40 MLOAD PUSH2 0x105 SWAP2 SWAP1 PUSH2 0xC3E JUMP JUMPDEST PUSH1 0x40 MLOAD DUP1 SWAP2 SUB SWAP1 RETURN JUMPDEST PUSH2 0x128 PUSH1 0x4 DUP1 CALLDATASIZE SUB DUP2 ADD SWAP1 PUSH2 0x123 SWAP2 SWAP1 PUSH2 0xCB7 JUMP JUMPDEST PUSH2 0x2E3 JUMP JUMPDEST PUSH1 0x40 MLOAD PUSH2 0x135 SWAP2 SWAP1 PUSH2 0xD5B JUMP JUMPDEST PUSH1 0x40 MLOAD DUP1 SWAP2 SUB SWAP1 RETURN JUMPDEST PUSH2 0x158 PUSH1 0x4 DUP1 CALLDATASIZE SUB DUP2 ADD SWAP1 PUSH2 0x153 SWAP2 SWAP1 PUSH2 0xD76 JUMP JUMPDEST PUSH2 0x339 JUMP JUMPDEST STOP JUMPDEST PUSH2 0x174 PUSH1 0x4 DUP1 CALLDATASIZE SUB DUP2 ADD SWAP1 PUSH2 0x16F SWAP2 SWAP1 PUSH2 0xD76 JUMP JUMPDEST PUSH2 0x362 JUMP JUMPDEST STOP JUMPDEST PUSH2 0x190 PUSH1 0x4 DUP1 CALLDATASIZE SUB DUP2 ADD SWAP1 PUSH2 0x18B SWAP2 SWAP1 PUSH2 0xD76 JUMP JUMPDEST PUSH2 0x3E5 JUMP JUMPDEST PUSH1 0x40 MLOAD PUSH2 0x19D SWAP2 SWAP1 PUSH2 0xBB1 JUMP JUMPDEST PUSH1 0x40 MLOAD DUP1 SWAP2 SUB SWAP1 RETURN JUMPDEST PUSH2 0x1AE PUSH2 0x44F JUMP JUMPDEST PUSH1 0x40 MLOAD PUSH2 0x1BB SWAP2 SWAP1 PUSH2 0xC3E JUMP JUMPDEST PUSH1 0x40 MLOAD DUP1 SWAP2 SUB SWAP1 RETURN JUMPDEST PUSH2 0x1DE PUSH1 0x4 DUP1 CALLDATASIZE SUB DUP2 ADD SWAP1 PUSH2 0x1D9 SWAP2 SWAP1 PUSH2 0xDE2 JUMP JUMPDEST PUSH2 0x456 JUMP JUMPDEST STOP JUMPDEST PUSH2 0x1FA PUSH1 0x4 DUP1 CALLDATASIZE SUB DUP2 ADD SWAP1 PUSH2 0x1F5 SWAP2 SWAP1 PUSH2 0xD76 JUMP JUMPDEST PUSH2 0x55D JUMP JUMPDEST STOP JUMPDEST PUSH2 0x204 PUSH2 0x586 JUMP JUMPDEST PUSH1 0x40 MLOAD PUSH2 0x211 SWAP2 SWAP1 PUSH2 0xC3E JUMP JUMPDEST PUSH1 0x40 MLOAD DUP1 SWAP2 SUB SWAP1 RETURN JUMPDEST PUSH2 0x234 PUSH1 0x4 DUP1 CALLDATASIZE SUB DUP2 ADD SWAP1 PUSH2 0x22F SWAP2 SWAP1 PUSH2 0xCB7 JUMP JUMPDEST PUSH2 0x5AA JUMP JUMPDEST PUSH1 0x40 MLOAD PUSH2 0x241 SWAP2 SWAP1 PUSH2 0xD5B JUMP JUMPDEST PUSH1 0x40 MLOAD DUP1 SWAP2 SUB SWAP1 RETURN JUMPDEST PUSH1 0x0 PUSH32 0x7965DB0B00000000000000000000000000000000000000000000000000000000 PUSH28 0xFFFFFFFFFFFFFFFFFFFFFFFFFFFFFFFFFFFFFFFFFFFFFFFFFFFFFFFF NOT AND DUP3 PUSH28 0xFFFFFFFFFFFFFFFFFFFFFFFFFFFFFFFFFFFFFFFFFFFFFFFFFFFFFFFF NOT AND EQ DUP1 PUSH2 0x2BD JUMPI POP PUSH2 0x2BC DUP3 PUSH2 0x600 JUMP JUMPDEST JUMPDEST SWAP1 POP SWAP2 SWAP1 POP JUMP JUMPDEST PUSH1 0x0 DUP1 PUSH1 0x0 DUP4 DUP2 MSTORE PUSH1 0x20 ADD SWAP1 DUP2 MSTORE PUSH1 0x20 ADD PUSH1 0x0 KECCAK256 PUSH1 0x1 ADD SLOAD SWAP1 POP SWAP2 SWAP1 POP JUMP JUMPDEST PUSH1 0x0 PUSH1 0x2 PUSH1 0x0 DUP4 PUSH20 0xFFFFFFFFFFFFFFFFFFFFFFFFFFFFFFFFFFFFFFFF AND PUSH20 0xFFFFFFFFFFFFFFFFFFFFFFFFFFFFFFFFFFFFFFFF AND DUP2 MSTORE PUSH1 0x20 ADD SWAP1 DUP2 MSTORE PUSH1 0x20 ADD PUSH1 0x0 KECCAK256 PUSH1 0x0 SWAP1 SLOAD SWAP1 PUSH2 0x100 EXP SWAP1 DIV PUSH1 0xFF AND SWAP1 POP SWAP2 SWAP1 POP JUMP JUMPDEST PUSH2 0x342 DUP3 PUSH2 0x2C4 JUMP JUMPDEST PUSH2 0x353 DUP2 PUSH2 0x34E PUSH2 0x66A JUMP JUMPDEST PUSH2 0x672 JUMP JUMPDEST PUSH2 0x35D DUP4 DUP4 PUSH2 0x70F JUMP JUMPDEST POP POP POP JUMP JUMPDEST PUSH2 0x36A PUSH2 0x66A JUMP JUMPDEST PUSH20 0xFFFFFFFFFFFFFFFFFFFFFFFFFFFFFFFFFFFFFFFF AND DUP2 PUSH20 0xFFFFFFFFFFFFFFFFFFFFFFFFFFFFFFFFFFFFFFFF AND EQ PUSH2 0x3D7 JUMPI PUSH1 0x40 MLOAD PUSH32 0x8C379A000000000000000000000000000000000000000000000000000000000 DUP2 MSTORE PUSH1 0x4 ADD PUSH2 0x3CE SWAP1 PUSH2 0xEA5 JUMP JUMPDEST PUSH1 0x40 MLOAD DUP1 SWAP2 SUB SWAP1 REVERT JUMPDEST PUSH2 0x3E1 DUP3 DUP3 PUSH2 0x7EF JUMP JUMPDEST POP POP JUMP JUMPDEST PUSH1 0x0 DUP1 PUSH1 0x0 DUP5 DUP2 MSTORE PUSH1 0x20 ADD SWAP1 DUP2 MSTORE PUSH1 0x20 ADD PUSH1 0x0 KECCAK256 PUSH1 0x0 ADD PUSH1 0x0 DUP4 PUSH20 0xFFFFFFFFFFFFFFFFFFFFFFFFFFFFFFFFFFFFFFFF AND PUSH20 0xFFFFFFFFFFFFFFFFFFFFFFFFFFFFFFFFFFFFFFFF AND DUP2 MSTORE PUSH1 0x20 ADD SWAP1 DUP2 MSTORE PUSH1 0x20 ADD PUSH1 0x0 KECCAK256 PUSH1 0x0 SWAP1 SLOAD SWAP1 PUSH2 0x100 EXP SWAP1 DIV PUSH1 0xFF AND SWAP1 POP SWAP3 SWAP2 POP POP JUMP JUMPDEST PUSH1 0x0 DUP1 SHL DUP2 JUMP JUMPDEST PUSH1 0x1 PUSH1 0x3 DUP2 GT ISZERO PUSH2 0x46A JUMPI PUSH2 0x469 PUSH2 0xCE4 JUMP JUMPDEST JUMPDEST PUSH1 0x2 PUSH1 0x0 DUP5 PUSH20 0xFFFFFFFFFFFFFFFFFFFFFFFFFFFFFFFFFFFFFFFF AND PUSH20 0xFFFFFFFFFFFFFFFFFFFFFFFFFFFFFFFFFFFFFFFF AND DUP2 MSTORE PUSH1 0x20 ADD SWAP1 DUP2 MSTORE PUSH1 0x20 ADD PUSH1 0x0 KECCAK256 PUSH1 0x0 SWAP1 SLOAD SWAP1 PUSH2 0x100 EXP SWAP1 DIV PUSH1 0xFF AND PUSH1 0x3 DUP2 GT ISZERO PUSH2 0x4C9 JUMPI PUSH2 0x4C8 PUSH2 0xCE4 JUMP JUMPDEST JUMPDEST SUB PUSH2 0x559 JUMPI DUP1 PUSH2 0x4DA JUMPI PUSH1 0x3 PUSH2 0x4DD JUMP JUMPDEST PUSH1 0x2 JUMPDEST PUSH1 0xFF AND PUSH1 0x3 DUP2 GT ISZERO PUSH2 0x4F2 JUMPI PUSH2 0x4F1 PUSH2 0xCE4 JUMP JUMPDEST JUMPDEST PUSH1 0x2 PUSH1 0x0 DUP5 PUSH20 0xFFFFFFFFFFFFFFFFFFFFFFFFFFFFFFFFFFFFFFFF AND PUSH20 0xFFFFFFFFFFFFFFFFFFFFFFFFFFFFFFFFFFFFFFFF AND DUP2 MSTORE PUSH1 0x20 ADD SWAP1 DUP2 MSTORE PUSH1 0x20 ADD PUSH1 0x0 KECCAK256 PUSH1 0x0 PUSH2 0x100 EXP DUP2 SLOAD DUP2 PUSH1 0xFF MUL NOT AND SWAP1 DUP4 PUSH1 0x3 DUP2 GT ISZERO PUSH2 0x553 JUMPI PUSH2 0x552 PUSH2 0xCE4 JUMP JUMPDEST JUMPDEST MUL OR SWAP1 SSTORE POP JUMPDEST POP POP JUMP JUMPDEST PUSH2 0x566 DUP3 PUSH2 0x2C4 JUMP JUMPDEST PUSH2 0x577 DUP2 PUSH2 0x572 PUSH2 0x66A JUMP JUMPDEST PUSH2 0x672 JUMP JUMPDEST PUSH2 0x581 DUP4 DUP4 PUSH2 0x7EF JUMP JUMPDEST POP POP POP JUMP JUMPDEST PUSH32 0x3B5D4CC60D3EC3516EE8AE083BD60934F6EB2A6C54B1229985C41BFB092B2603 DUP2 JUMP JUMPDEST PUSH1 0x0 PUSH1 0x2 PUSH1 0x0 DUP4 PUSH20 0xFFFFFFFFFFFFFFFFFFFFFFFFFFFFFFFFFFFFFFFF AND PUSH20 0xFFFFFFFFFFFFFFFFFFFFFFFFFFFFFFFFFFFFFFFF AND DUP2 MSTORE PUSH1 0x20 ADD SWAP1 DUP2 MSTORE PUSH1 0x20 ADD PUSH1 0x0 KECCAK256 PUSH1 0x0 SWAP1 SLOAD SWAP1 PUSH2 0x100 EXP SWAP1 DIV PUSH1 0xFF AND SWAP1 POP SWAP2 SWAP1 POP JUMP JUMPDEST PUSH1 0x0 PUSH32 0x1FFC9A700000000000000000000000000000000000000000000000000000000 PUSH28 0xFFFFFFFFFFFFFFFFFFFFFFFFFFFFFFFFFFFFFFFFFFFFFFFFFFFFFFFF NOT AND DUP3 PUSH28 0xFFFFFFFFFFFFFFFFFFFFFFFFFFFFFFFFFFFFFFFFFFFFFFFFFFFFFFFF NOT AND EQ SWAP1 POP SWAP2 SWAP1 POP JUMP JUMPDEST PUSH1 0x0 CALLER SWAP1 POP SWAP1 JUMP JUMPDEST PUSH2 0x67C DUP3 DUP3 PUSH2 0x3E5 JUMP JUMPDEST PUSH2 0x70B JUMPI PUSH2 0x6A1 DUP2 PUSH20 0xFFFFFFFFFFFFFFFFFFFFFFFFFFFFFFFFFFFFFFFF AND PUSH1 0x14 PUSH2 0x8D0 JUMP JUMPDEST PUSH2 0x6AF DUP4 PUSH1 0x0 SHR PUSH1 0x20 PUSH2 0x8D0 JUMP JUMPDEST PUSH1 0x40 MLOAD PUSH1 0x20 ADD PUSH2 0x6C0 SWAP3 SWAP2 SWAP1 PUSH2 0xFD7 JUMP JUMPDEST PUSH1 0x40 MLOAD PUSH1 0x20 DUP2 DUP4 SUB SUB DUP2 MSTORE SWAP1 PUSH1 0x40 MSTORE PUSH1 0x40 MLOAD PUSH32 0x8C379A000000000000000000000000000000000000000000000000000000000 DUP2 MSTORE PUSH1 0x4 ADD PUSH2 0x702 SWAP2 SWAP1 PUSH2 0x105B JUMP JUMPDEST PUSH1 0x40 MLOAD DUP1 SWAP2 SUB SWAP1 REVERT JUMPDEST POP POP JUMP JUMPDEST PUSH2 0x719 DUP3 DUP3 PUSH2 0x3E5 JUMP JUMPDEST PUSH2 0x7EB JUMPI PUSH1 0x1 PUSH1 0x0 DUP1 DUP5 DUP2 MSTORE PUSH1 0x20 ADD SWAP1 DUP2 MSTORE PUSH1 0x20 ADD PUSH1 0x0 KECCAK256 PUSH1 0x0 ADD PUSH1 0x0 DUP4 PUSH20 0xFFFFFFFFFFFFFFFFFFFFFFFFFFFFFFFFFFFFFFFF AND PUSH20 0xFFFFFFFFFFFFFFFFFFFFFFFFFFFFFFFFFFFFFFFF AND DUP2 MSTORE PUSH1 0x20 ADD SWAP1 DUP2 MSTORE PUSH1 0x20 ADD PUSH1 0x0 KECCAK256 PUSH1 0x0 PUSH2 0x100 EXP DUP2 SLOAD DUP2 PUSH1 0xFF MUL NOT AND SWAP1 DUP4 ISZERO ISZERO MUL OR SWAP1 SSTORE POP PUSH2 0x790 PUSH2 0x66A JUMP JUMPDEST PUSH20 0xFFFFFFFFFFFFFFFFFFFFFFFFFFFFFFFFFFFFFFFF AND DUP2 PUSH20 0xFFFFFFFFFFFFFFFFFFFFFFFFFFFFFFFFFFFFFFFF AND DUP4 PUSH32 0x2F8788117E7EFF1D82E926EC794901D17C78024A50270940304540A733656F0D PUSH1 0x40 MLOAD PUSH1 0x40 MLOAD DUP1 SWAP2 SUB SWAP1 LOG4 JUMPDEST POP POP JUMP JUMPDEST PUSH2 0x7F9 DUP3 DUP3 PUSH2 0x3E5 JUMP JUMPDEST ISZERO PUSH2 0x8CC JUMPI PUSH1 0x0 DUP1 PUSH1 0x0 DUP5 DUP2 MSTORE PUSH1 0x20 ADD SWAP1 DUP2 MSTORE PUSH1 0x20 ADD PUSH1 0x0 KECCAK256 PUSH1 0x0 ADD PUSH1 0x0 DUP4 PUSH20 0xFFFFFFFFFFFFFFFFFFFFFFFFFFFFFFFFFFFFFFFF AND PUSH20 0xFFFFFFFFFFFFFFFFFFFFFFFFFFFFFFFFFFFFFFFF AND DUP2 MSTORE PUSH1 0x20 ADD SWAP1 DUP2 MSTORE PUSH1 0x20 ADD PUSH1 0x0 KECCAK256 PUSH1 0x0 PUSH2 0x100 EXP DUP2 SLOAD DUP2 PUSH1 0xFF MUL NOT AND SWAP1 DUP4 ISZERO ISZERO MUL OR SWAP1 SSTORE POP PUSH2 0x871 PUSH2 0x66A JUMP JUMPDEST PUSH20 0xFFFFFFFFFFFFFFFFFFFFFFFFFFFFFFFFFFFFFFFF AND DUP2 PUSH20 0xFFFFFFFFFFFFFFFFFFFFFFFFFFFFFFFFFFFFFFFF AND DUP4 PUSH32 0xF6391F5C32D9C69D2A47EA670B442974B53935D1EDC7FD64EB21E047A839171B PUSH1 0x40 MLOAD PUSH1 0x40 MLOAD DUP1 SWAP2 SUB SWAP1 LOG4 JUMPDEST POP POP JUMP JUMPDEST PUSH1 0x60 PUSH1 0x0 PUSH1 0x2 DUP4 PUSH1 0x2 PUSH2 0x8E3 SWAP2 SWAP1 PUSH2 0x10B6 JUMP JUMPDEST PUSH2 0x8ED SWAP2 SWAP1 PUSH2 0x1110 JUMP JUMPDEST PUSH8 0xFFFFFFFFFFFFFFFF DUP2 GT ISZERO PUSH2 0x906 JUMPI PUSH2 0x905 PUSH2 0x1166 JUMP JUMPDEST JUMPDEST PUSH1 0x40 MLOAD SWAP1 DUP1 DUP3 MSTORE DUP1 PUSH1 0x1F ADD PUSH1 0x1F NOT AND PUSH1 0x20 ADD DUP3 ADD PUSH1 0x40 MSTORE DUP1 ISZERO PUSH2 0x938 JUMPI DUP2 PUSH1 0x20 ADD PUSH1 0x1 DUP3 MUL DUP1 CALLDATASIZE DUP4 CALLDATACOPY DUP1 DUP3 ADD SWAP2 POP POP SWAP1 POP JUMPDEST POP SWAP1 POP PUSH32 0x3000000000000000000000000000000000000000000000000000000000000000 DUP2 PUSH1 0x0 DUP2 MLOAD DUP2 LT PUSH2 0x970 JUMPI PUSH2 0x96F PUSH2 0x1195 JUMP JUMPDEST JUMPDEST PUSH1 0x20 ADD ADD SWAP1 PUSH31 0xFFFFFFFFFFFFFFFFFFFFFFFFFFFFFFFFFFFFFFFFFFFFFFFFFFFFFFFFFFFFFF NOT AND SWAP1 DUP2 PUSH1 0x0 BYTE SWAP1 MSTORE8 POP PUSH32 0x7800000000000000000000000000000000000000000000000000000000000000 DUP2 PUSH1 0x1 DUP2 MLOAD DUP2 LT PUSH2 0x9D4 JUMPI PUSH2 0x9D3 PUSH2 0x1195 JUMP JUMPDEST JUMPDEST PUSH1 0x20 ADD ADD SWAP1 PUSH31 0xFFFFFFFFFFFFFFFFFFFFFFFFFFFFFFFFFFFFFFFFFFFFFFFFFFFFFFFFFFFFFF NOT AND SWAP1 DUP2 PUSH1 0x0 BYTE SWAP1 MSTORE8 POP PUSH1 0x0 PUSH1 0x1 DUP5 PUSH1 0x2 PUSH2 0xA14 SWAP2 SWAP1 PUSH2 0x10B6 JUMP JUMPDEST PUSH2 0xA1E SWAP2 SWAP1 PUSH2 0x1110 JUMP JUMPDEST SWAP1 POP JUMPDEST PUSH1 0x1 DUP2 GT ISZERO PUSH2 0xABE JUMPI PUSH32 0x3031323334353637383961626364656600000000000000000000000000000000 PUSH1 0xF DUP7 AND PUSH1 0x10 DUP2 LT PUSH2 0xA60 JUMPI PUSH2 0xA5F PUSH2 0x1195 JUMP JUMPDEST JUMPDEST BYTE PUSH1 0xF8 SHL DUP3 DUP3 DUP2 MLOAD DUP2 LT PUSH2 0xA77 JUMPI PUSH2 0xA76 PUSH2 0x1195 JUMP JUMPDEST JUMPDEST PUSH1 0x20 ADD ADD SWAP1 PUSH31 0xFFFFFFFFFFFFFFFFFFFFFFFFFFFFFFFFFFFFFFFFFFFFFFFFFFFFFFFFFFFFFF NOT AND SWAP1 DUP2 PUSH1 0x0 BYTE SWAP1 MSTORE8 POP PUSH1 0x4 DUP6 SWAP1 SHR SWAP5 POP DUP1 PUSH2 0xAB7 SWAP1 PUSH2 0x11C4 JUMP JUMPDEST SWAP1 POP PUSH2 0xA21 JUMP JUMPDEST POP PUSH1 0x0 DUP5 EQ PUSH2 0xB02 JUMPI PUSH1 0x40 MLOAD PUSH32 0x8C379A000000000000000000000000000000000000000000000000000000000 DUP2 MSTORE PUSH1 0x4 ADD PUSH2 0xAF9 SWAP1 PUSH2 0x1239 JUMP JUMPDEST PUSH1 0x40 MLOAD DUP1 SWAP2 SUB SWAP1 REVERT JUMPDEST DUP1 SWAP2 POP POP SWAP3 SWAP2 POP POP JUMP JUMPDEST PUSH1 0x0 DUP1 REVERT JUMPDEST PUSH1 0x0 PUSH32 0xFFFFFFFF00000000000000000000000000000000000000000000000000000000 DUP3 AND SWAP1 POP SWAP2 SWAP1 POP JUMP JUMPDEST PUSH2 0xB46 DUP2 PUSH2 0xB11 JUMP JUMPDEST DUP2 EQ PUSH2 0xB51 JUMPI PUSH1 0x0 DUP1 REVERT JUMPDEST POP JUMP JUMPDEST PUSH1 0x0 DUP2 CALLDATALOAD SWAP1 POP PUSH2 0xB63 DUP2 PUSH2 0xB3D JUMP JUMPDEST SWAP3 SWAP2 POP POP JUMP JUMPDEST PUSH1 0x0 PUSH1 0x20 DUP3 DUP5 SUB SLT ISZERO PUSH2 0xB7F JUMPI PUSH2 0xB7E PUSH2 0xB0C JUMP JUMPDEST JUMPDEST PUSH1 0x0 PUSH2 0xB8D DUP5 DUP3 DUP6 ADD PUSH2 0xB54 JUMP JUMPDEST SWAP2 POP POP SWAP3 SWAP2 POP POP JUMP JUMPDEST PUSH1 0x0 DUP2 ISZERO ISZERO SWAP1 POP SWAP2 SWAP1 POP JUMP JUMPDEST PUSH2 0xBAB DUP2 PUSH2 0xB96 JUMP JUMPDEST DUP3 MSTORE POP POP JUMP JUMPDEST PUSH1 0x0 PUSH1 0x20 DUP3 ADD SWAP1 POP PUSH2 0xBC6 PUSH1 0x0 DUP4 ADD DUP5 PUSH2 0xBA2 JUMP JUMPDEST SWAP3 SWAP2 POP POP JUMP JUMPDEST PUSH1 0x0 DUP2 SWAP1 POP SWAP2 SWAP1 POP JUMP JUMPDEST PUSH2 0xBDF DUP2 PUSH2 0xBCC JUMP JUMPDEST DUP2 EQ PUSH2 0xBEA JUMPI PUSH1 0x0 DUP1 REVERT JUMPDEST POP JUMP JUMPDEST PUSH1 0x0 DUP2 CALLDATALOAD SWAP1 POP PUSH2 0xBFC DUP2 PUSH2 0xBD6 JUMP JUMPDEST SWAP3 SWAP2 POP POP JUMP JUMPDEST PUSH1 0x0 PUSH1 0x20 DUP3 DUP5 SUB SLT ISZERO PUSH2 0xC18 JUMPI PUSH2 0xC17 PUSH2 0xB0C JUMP JUMPDEST JUMPDEST PUSH1 0x0 PUSH2 0xC26 DUP5 DUP3 DUP6 ADD PUSH2 0xBED JUMP JUMPDEST SWAP2 POP POP SWAP3 SWAP2 POP POP JUMP JUMPDEST PUSH2 0xC38 DUP2 PUSH2 0xBCC JUMP JUMPDEST DUP3 MSTORE POP POP JUMP JUMPDEST PUSH1 0x0 PUSH1 0x20 DUP3 ADD SWAP1 POP PUSH2 0xC53 PUSH1 0x0 DUP4 ADD DUP5 PUSH2 0xC2F JUMP JUMPDEST SWAP3 SWAP2 POP POP JUMP JUMPDEST PUSH1 0x0 PUSH20 0xFFFFFFFFFFFFFFFFFFFFFFFFFFFFFFFFFFFFFFFF DUP3 AND SWAP1 POP SWAP2 SWAP1 POP JUMP JUMPDEST PUSH1 0x0 PUSH2 0xC84 DUP3 PUSH2 0xC59 JUMP JUMPDEST SWAP1 POP SWAP2 SWAP1 POP JUMP JUMPDEST PUSH2 0xC94 DUP2 PUSH2 0xC79 JUMP JUMPDEST DUP2 EQ PUSH2 0xC9F JUMPI PUSH1 0x0 DUP1 REVERT JUMPDEST POP JUMP JUMPDEST PUSH1 0x0 DUP2 CALLDATALOAD SWAP1 POP PUSH2 0xCB1 DUP2 PUSH2 0xC8B JUMP JUMPDEST SWAP3 SWAP2 POP POP JUMP JUMPDEST PUSH1 0x0 PUSH1 0x20 DUP3 DUP5 SUB SLT ISZERO PUSH2 0xCCD JUMPI PUSH2 0xCCC PUSH2 0xB0C JUMP JUMPDEST JUMPDEST PUSH1 0x0 PUSH2 0xCDB DUP5 DUP3 DUP6 ADD PUSH2 0xCA2 JUMP JUMPDEST SWAP2 POP POP SWAP3 SWAP2 POP POP JUMP JUMPDEST PUSH32 0x4E487B7100000000000000000000000000000000000000000000000000000000 PUSH1 0x0 MSTORE PUSH1 0x21 PUSH1 0x4 MSTORE PUSH1 0x24 PUSH1 0x0 REVERT JUMPDEST PUSH1 0x4 DUP2 LT PUSH2 0xD24 JUMPI PUSH2 0xD23 PUSH2 0xCE4 JUMP JUMPDEST JUMPDEST POP JUMP JUMPDEST PUSH1 0x0 DUP2 SWAP1 POP PUSH2 0xD35 DUP3 PUSH2 0xD13 JUMP JUMPDEST SWAP2 SWAP1 POP JUMP JUMPDEST PUSH1 0x0 PUSH2 0xD45 DUP3 PUSH2 0xD27 JUMP JUMPDEST SWAP1 POP SWAP2 SWAP1 POP JUMP JUMPDEST PUSH2 0xD55 DUP2 PUSH2 0xD3A JUMP JUMPDEST DUP3 MSTORE POP POP JUMP JUMPDEST PUSH1 0x0 PUSH1 0x20 DUP3 ADD SWAP1 POP PUSH2 0xD70 PUSH1 0x0 DUP4 ADD DUP5 PUSH2 0xD4C JUMP JUMPDEST SWAP3 SWAP2 POP POP JUMP JUMPDEST PUSH1 0x0 DUP1 PUSH1 0x40 DUP4 DUP6 SUB SLT ISZERO PUSH2 0xD8D JUMPI PUSH2 0xD8C PUSH2 0xB0C JUMP JUMPDEST JUMPDEST PUSH1 0x0 PUSH2 0xD9B DUP6 DUP3 DUP7 ADD PUSH2 0xBED JUMP JUMPDEST SWAP3 POP POP PUSH1 0x20 PUSH2 0xDAC DUP6 DUP3 DUP7 ADD PUSH2 0xCA2 JUMP JUMPDEST SWAP2 POP POP SWAP3 POP SWAP3 SWAP1 POP JUMP JUMPDEST PUSH2 0xDBF DUP2 PUSH2 0xB96 JUMP JUMPDEST DUP2 EQ PUSH2 0xDCA JUMPI PUSH1 0x0 DUP1 REVERT JUMPDEST POP JUMP JUMPDEST PUSH1 0x0 DUP2 CALLDATALOAD SWAP1 POP PUSH2 0xDDC DUP2 PUSH2 0xDB6 JUMP JUMPDEST SWAP3 SWAP2 POP POP JUMP JUMPDEST PUSH1 0x0 DUP1 PUSH1 0x40 DUP4 DUP6 SUB SLT ISZERO PUSH2 0xDF9 JUMPI PUSH2 0xDF8 PUSH2 0xB0C JUMP JUMPDEST JUMPDEST PUSH1 0x0 PUSH2 0xE07 DUP6 DUP3 DUP7 ADD PUSH2 0xCA2 JUMP JUMPDEST SWAP3 POP POP PUSH1 0x20 PUSH2 0xE18 DUP6 DUP3 DUP7 ADD PUSH2 0xDCD JUMP JUMPDEST SWAP2 POP POP SWAP3 POP SWAP3 SWAP1 POP JUMP JUMPDEST PUSH1 0x0 DUP3 DUP3 MSTORE PUSH1 0x20 DUP3 ADD SWAP1 POP SWAP3 SWAP2 POP POP JUMP JUMPDEST PUSH32 0x416363657373436F6E74726F6C3A2063616E206F6E6C792072656E6F756E6365 PUSH1 0x0 DUP3 ADD MSTORE PUSH32 0x20726F6C657320666F722073656C660000000000000000000000000000000000 PUSH1 0x20 DUP3 ADD MSTORE POP JUMP JUMPDEST PUSH1 0x0 PUSH2 0xE8F PUSH1 0x2F DUP4 PUSH2 0xE22 JUMP JUMPDEST SWAP2 POP PUSH2 0xE9A DUP3 PUSH2 0xE33 JUMP JUMPDEST PUSH1 0x40 DUP3 ADD SWAP1 POP SWAP2 SWAP1 POP JUMP JUMPDEST PUSH1 0x0 PUSH1 0x20 DUP3 ADD SWAP1 POP DUP2 DUP2 SUB PUSH1 0x0 DUP4 ADD MSTORE PUSH2 0xEBE DUP2 PUSH2 0xE82 JUMP JUMPDEST SWAP1 POP SWAP2 SWAP1 POP JUMP JUMPDEST PUSH1 0x0 DUP2 SWAP1 POP SWAP3 SWAP2 POP POP JUMP JUMPDEST PUSH32 0x416363657373436F6E74726F6C3A206163636F756E7420000000000000000000 PUSH1 0x0 DUP3 ADD MSTORE POP JUMP JUMPDEST PUSH1 0x0 PUSH2 0xF06 PUSH1 0x17 DUP4 PUSH2 0xEC5 JUMP JUMPDEST SWAP2 POP PUSH2 0xF11 DUP3 PUSH2 0xED0 JUMP JUMPDEST PUSH1 0x17 DUP3 ADD SWAP1 POP SWAP2 SWAP1 POP JUMP JUMPDEST PUSH1 0x0 DUP2 MLOAD SWAP1 POP SWAP2 SWAP1 POP JUMP JUMPDEST PUSH1 0x0 JUMPDEST DUP4 DUP2 LT ISZERO PUSH2 0xF45 JUMPI DUP1 DUP3 ADD MLOAD DUP2 DUP5 ADD MSTORE PUSH1 0x20 DUP2 ADD SWAP1 POP PUSH2 0xF2A JUMP JUMPDEST DUP4 DUP2 GT ISZERO PUSH2 0xF54 JUMPI PUSH1 0x0 DUP5 DUP5 ADD MSTORE JUMPDEST POP POP POP POP JUMP JUMPDEST PUSH1 0x0 PUSH2 0xF65 DUP3 PUSH2 0xF1C JUMP JUMPDEST PUSH2 0xF6F DUP2 DUP6 PUSH2 0xEC5 JUMP JUMPDEST SWAP4 POP PUSH2 0xF7F DUP2 DUP6 PUSH1 0x20 DUP7 ADD PUSH2 0xF27 JUMP JUMPDEST DUP1 DUP5 ADD SWAP2 POP POP SWAP3 SWAP2 POP POP JUMP JUMPDEST PUSH32 0x206973206D697373696E6720726F6C6520000000000000000000000000000000 PUSH1 0x0 DUP3 ADD MSTORE POP JUMP JUMPDEST PUSH1 0x0 PUSH2 0xFC1 PUSH1 0x11 DUP4 PUSH2 0xEC5 JUMP JUMPDEST SWAP2 POP PUSH2 0xFCC DUP3 PUSH2 0xF8B JUMP JUMPDEST PUSH1 0x11 DUP3 ADD SWAP1 POP SWAP2 SWAP1 POP JUMP JUMPDEST PUSH1 0x0 PUSH2 0xFE2 DUP3 PUSH2 0xEF9 JUMP JUMPDEST SWAP2 POP PUSH2 0xFEE DUP3 DUP6 PUSH2 0xF5A JUMP JUMPDEST SWAP2 POP PUSH2 0xFF9 DUP3 PUSH2 0xFB4 JUMP JUMPDEST SWAP2 POP PUSH2 0x1005 DUP3 DUP5 PUSH2 0xF5A JUMP JUMPDEST SWAP2 POP DUP2 SWAP1 POP SWAP4 SWAP3 POP POP POP JUMP JUMPDEST PUSH1 0x0 PUSH1 0x1F NOT PUSH1 0x1F DUP4 ADD AND SWAP1 POP SWAP2 SWAP1 POP JUMP JUMPDEST PUSH1 0x0 PUSH2 0x102D DUP3 PUSH2 0xF1C JUMP JUMPDEST PUSH2 0x1037 DUP2 DUP6 PUSH2 0xE22 JUMP JUMPDEST SWAP4 POP PUSH2 0x1047 DUP2 DUP6 PUSH1 0x20 DUP7 ADD PUSH2 0xF27 JUMP JUMPDEST PUSH2 0x1050 DUP2 PUSH2 0x1011 JUMP JUMPDEST DUP5 ADD SWAP2 POP POP SWAP3 SWAP2 POP POP JUMP JUMPDEST PUSH1 0x0 PUSH1 0x20 DUP3 ADD SWAP1 POP DUP2 DUP2 SUB PUSH1 0x0 DUP4 ADD MSTORE PUSH2 0x1075 DUP2 DUP5 PUSH2 0x1022 JUMP JUMPDEST SWAP1 POP SWAP3 SWAP2 POP POP JUMP JUMPDEST PUSH1 0x0 DUP2 SWAP1 POP SWAP2 SWAP1 POP JUMP JUMPDEST PUSH32 0x4E487B7100000000000000000000000000000000000000000000000000000000 PUSH1 0x0 MSTORE PUSH1 0x11 PUSH1 0x4 MSTORE PUSH1 0x24 PUSH1 0x0 REVERT JUMPDEST PUSH1 0x0 PUSH2 0x10C1 DUP3 PUSH2 0x107D JUMP JUMPDEST SWAP2 POP PUSH2 0x10CC DUP4 PUSH2 0x107D JUMP JUMPDEST SWAP3 POP DUP2 PUSH32 0xFFFFFFFFFFFFFFFFFFFFFFFFFFFFFFFFFFFFFFFFFFFFFFFFFFFFFFFFFFFFFFFF DIV DUP4 GT DUP3 ISZERO ISZERO AND ISZERO PUSH2 0x1105 JUMPI PUSH2 0x1104 PUSH2 0x1087 JUMP JUMPDEST JUMPDEST DUP3 DUP3 MUL SWAP1 POP SWAP3 SWAP2 POP POP JUMP JUMPDEST PUSH1 0x0 PUSH2 0x111B DUP3 PUSH2 0x107D JUMP JUMPDEST SWAP2 POP PUSH2 0x1126 DUP4 PUSH2 0x107D JUMP JUMPDEST SWAP3 POP DUP3 PUSH32 0xFFFFFFFFFFFFFFFFFFFFFFFFFFFFFFFFFFFFFFFFFFFFFFFFFFFFFFFFFFFFFFFF SUB DUP3 GT ISZERO PUSH2 0x115B JUMPI PUSH2 0x115A PUSH2 0x1087 JUMP JUMPDEST JUMPDEST DUP3 DUP3 ADD SWAP1 POP SWAP3 SWAP2 POP POP JUMP JUMPDEST PUSH32 0x4E487B7100000000000000000000000000000000000000000000000000000000 PUSH1 0x0 MSTORE PUSH1 0x41 PUSH1 0x4 MSTORE PUSH1 0x24 PUSH1 0x0 REVERT JUMPDEST PUSH32 0x4E487B7100000000000000000000000000000000000000000000000000000000 PUSH1 0x0 MSTORE PUSH1 0x32 PUSH1 0x4 MSTORE PUSH1 0x24 PUSH1 0x0 REVERT JUMPDEST PUSH1 0x0 PUSH2 0x11CF DUP3 PUSH2 0x107D JUMP JUMPDEST SWAP2 POP PUSH1 0x0 DUP3 SUB PUSH2 0x11E2 JUMPI PUSH2 0x11E1 PUSH2 0x1087 JUMP JUMPDEST JUMPDEST PUSH1 0x1 DUP3 SUB SWAP1 POP SWAP2 SWAP1 POP JUMP JUMPDEST PUSH32 0x537472696E67733A20686578206C656E67746820696E73756666696369656E74 PUSH1 0x0 DUP3 ADD MSTORE POP JUMP JUMPDEST PUSH1 0x0 PUSH2 0x1223 PUSH1 0x20 DUP4 PUSH2 0xE22 JUMP JUMPDEST SWAP2 POP PUSH2 0x122E DUP3 PUSH2 0x11ED JUMP JUMPDEST PUSH1 0x20 DUP3 ADD SWAP1 POP SWAP2 SWAP1 POP JUMP JUMPDEST PUSH1 0x0 PUSH1 0x20 DUP3 ADD SWAP1 POP DUP2 DUP2 SUB PUSH1 0x0 DUP4 ADD MSTORE PUSH2 0x1252 DUP2 PUSH2 0x1216 JUMP JUMPDEST SWAP1 POP SWAP2 SWAP1 POP JUMP INVALID LOG2 PUSH5 0x6970667358 0x22 SLT KECCAK256 PUSH11 0x111CAE40A3A777BD3035BB SDIV LOG1 PUSH16 0x19AC25E0503B75DEC718C771E45D21DB 0xAD PUSH5 0x736F6C6343 STOP ADDMOD 0xD STOP CALLER "
				},
				"gasEstimates": {
					"creation": {
						"codeDepositCost": "950200",
						"executionCost": "5994",
						"totalCost": "956194"
					},
					"external": {
						"DAO_ROLE()": "417",
						"DEFAULT_ADMIN_ROLE()": "357",
						"addVoter(address)": "3082",
						"getRoleAdmin(bytes32)": "infinite",
						"grantRole(bytes32,address)": "infinite",
						"hasRole(bytes32,address)": "3140",
						"print(address)": "3017",
						"renounceRole(bytes32,address)": "infinite",
						"revokeRole(bytes32,address)": "infinite",
						"supportsInterface(bytes4)": "728",
						"vote(address,bool)": "27416"
					}
				},
				"methodIdentifiers": {
					"DAO_ROLE()": "e9c26518",
					"DEFAULT_ADMIN_ROLE()": "a217fddf",
					"addVoter(address)": "f4ab9adf",
					"getRoleAdmin(bytes32)": "248a9ca3",
					"grantRole(bytes32,address)": "2f2ff15d",
					"hasRole(bytes32,address)": "91d14854",
					"print(address)": "24d427a9",
					"renounceRole(bytes32,address)": "36568abe",
					"revokeRole(bytes32,address)": "d547741f",
					"supportsInterface(bytes4)": "01ffc9a7",
					"vote(address,bool)": "bd041c4d"
				}
			},
			"userdoc": {
				"kind": "user",
				"methods": {},
				"version": 1
			}
		}
	}
}