{
	"src/contracts/Desca.sol": {
		"DeSCA": {
			"abi": [
				{
					"anonymous": false,
					"inputs": [
						{
							"indexed": true,
							"internalType": "bytes32",
							"name": "role",
							"type": "bytes32"
						},
						{
							"indexed": true,
							"internalType": "bytes32",
							"name": "previousAdminRole",
							"type": "bytes32"
						},
						{
							"indexed": true,
							"internalType": "bytes32",
							"name": "newAdminRole",
							"type": "bytes32"
						}
					],
					"name": "RoleAdminChanged",
					"type": "event"
				},
				{
					"anonymous": false,
					"inputs": [
						{
							"indexed": true,
							"internalType": "bytes32",
							"name": "role",
							"type": "bytes32"
						},
						{
							"indexed": true,
							"internalType": "address",
							"name": "account",
							"type": "address"
						},
						{
							"indexed": true,
							"internalType": "address",
							"name": "sender",
							"type": "address"
						}
					],
					"name": "RoleGranted",
					"type": "event"
				},
				{
					"anonymous": false,
					"inputs": [
						{
							"indexed": true,
							"internalType": "bytes32",
							"name": "role",
							"type": "bytes32"
						},
						{
							"indexed": true,
							"internalType": "address",
							"name": "account",
							"type": "address"
						},
						{
							"indexed": true,
							"internalType": "address",
							"name": "sender",
							"type": "address"
						}
					],
					"name": "RoleRevoked",
					"type": "event"
				},
				{
					"inputs": [],
					"name": "DAO_ROLE",
					"outputs": [
						{
							"internalType": "bytes32",
							"name": "",
							"type": "bytes32"
						}
					],
					"stateMutability": "view",
					"type": "function"
				},
				{
					"inputs": [],
					"name": "DEFAULT_ADMIN_ROLE",
					"outputs": [
						{
							"internalType": "bytes32",
							"name": "",
							"type": "bytes32"
						}
					],
					"stateMutability": "view",
					"type": "function"
				},
				{
					"inputs": [
						{
							"internalType": "address",
							"name": "voter",
							"type": "address"
						}
					],
					"name": "add",
					"outputs": [
						{
							"internalType": "string",
							"name": "",
							"type": "string"
						}
					],
					"stateMutability": "nonpayable",
					"type": "function"
				},
				{
					"inputs": [],
					"name": "clear",
					"outputs": [],
					"stateMutability": "nonpayable",
					"type": "function"
				},
				{
					"inputs": [
						{
							"internalType": "bytes32",
							"name": "role",
							"type": "bytes32"
						}
					],
					"name": "getRoleAdmin",
					"outputs": [
						{
							"internalType": "bytes32",
							"name": "",
							"type": "bytes32"
						}
					],
					"stateMutability": "view",
					"type": "function"
				},
				{
					"inputs": [
						{
							"internalType": "bytes32",
							"name": "role",
							"type": "bytes32"
						},
						{
							"internalType": "address",
							"name": "account",
							"type": "address"
						}
					],
					"name": "grantRole",
					"outputs": [],
					"stateMutability": "nonpayable",
					"type": "function"
				},
				{
					"inputs": [
						{
							"internalType": "bytes32",
							"name": "role",
							"type": "bytes32"
						},
						{
							"internalType": "address",
							"name": "account",
							"type": "address"
						}
					],
					"name": "hasRole",
					"outputs": [
						{
							"internalType": "bool",
							"name": "",
							"type": "bool"
						}
					],
					"stateMutability": "view",
					"type": "function"
				},
				{
					"inputs": [],
					"name": "print",
					"outputs": [
						{
							"internalType": "string",
							"name": "",
							"type": "string"
						}
					],
					"stateMutability": "view",
					"type": "function"
				},
				{
					"inputs": [
						{
							"internalType": "bytes32",
							"name": "role",
							"type": "bytes32"
						},
						{
							"internalType": "address",
							"name": "account",
							"type": "address"
						}
					],
					"name": "renounceRole",
					"outputs": [],
					"stateMutability": "nonpayable",
					"type": "function"
				},
				{
					"inputs": [
						{
							"internalType": "bytes32",
							"name": "role",
							"type": "bytes32"
						},
						{
							"internalType": "address",
							"name": "account",
							"type": "address"
						}
					],
					"name": "revokeRole",
					"outputs": [],
					"stateMutability": "nonpayable",
					"type": "function"
				},
				{
					"inputs": [
						{
							"internalType": "bytes4",
							"name": "interfaceId",
							"type": "bytes4"
						}
					],
					"name": "supportsInterface",
					"outputs": [
						{
							"internalType": "bool",
							"name": "",
							"type": "bool"
						}
					],
					"stateMutability": "view",
					"type": "function"
				},
				{
					"inputs": [],
					"name": "testt",
					"outputs": [
						{
							"internalType": "string",
							"name": "",
							"type": "string"
						}
					],
					"stateMutability": "view",
					"type": "function"
				}
			],
			"devdoc": {
				"kind": "dev",
				"methods": {
					"getRoleAdmin(bytes32)": {
						"details": "Returns the admin role that controls `role`. See {grantRole} and {revokeRole}. To change a role's admin, use {_setRoleAdmin}."
					},
					"grantRole(bytes32,address)": {
						"details": "Grants `role` to `account`. If `account` had not been already granted `role`, emits a {RoleGranted} event. Requirements: - the caller must have ``role``'s admin role."
					},
					"hasRole(bytes32,address)": {
						"details": "Returns `true` if `account` has been granted `role`."
					},
					"renounceRole(bytes32,address)": {
						"details": "Revokes `role` from the calling account. Roles are often managed via {grantRole} and {revokeRole}: this function's purpose is to provide a mechanism for accounts to lose their privileges if they are compromised (such as when a trusted device is misplaced). If the calling account had been revoked `role`, emits a {RoleRevoked} event. Requirements: - the caller must be `account`."
					},
					"revokeRole(bytes32,address)": {
						"details": "Revokes `role` from `account`. If `account` had been granted `role`, emits a {RoleRevoked} event. Requirements: - the caller must have ``role``'s admin role."
					},
					"supportsInterface(bytes4)": {
						"details": "See {IERC165-supportsInterface}."
					}
				},
				"version": 1
			},
			"evm": {
				"assembly": "    /* \"src/contracts/Desca.sol\":147:1037  contract DeSCA is AccessControl {... */\n  mstore(0x40, 0x80)\n    /* \"src/contracts/Desca.sol\":580:581  0 */\n  0x00\n    /* \"src/contracts/Desca.sol\":562:581  uint testLength = 0 */\n  0x01\n  sstore\n    /* \"src/contracts/Desca.sol\":623:647  string public testt = \"\" */\n  mload(0x40)\n  dup1\n  0x20\n  add\n  0x40\n  mstore\n  dup1\n  0x00\n  dup2\n  mstore\n  pop\n  0x03\n  swap1\n  dup1\n  mload\n  swap1\n  0x20\n  add\n  swap1\n  tag_1\n  swap3\n  swap2\n  swap1\n  tag_2\n  jump\t// in\ntag_1:\n  pop\n    /* \"src/contracts/Desca.sol\":147:1037  contract DeSCA is AccessControl {... */\n  callvalue\n  dup1\n  iszero\n  tag_3\n  jumpi\n  0x00\n  dup1\n  revert\ntag_3:\n  pop\n  jump(tag_4)\ntag_2:\n  dup3\n  dup1\n  sload\n  tag_5\n  swap1\n  tag_6\n  jump\t// in\ntag_5:\n  swap1\n  0x00\n  mstore\n  keccak256(0x00, 0x20)\n  swap1\n  0x1f\n  add\n  0x20\n  swap1\n  div\n  dup2\n  add\n  swap3\n  dup3\n  tag_8\n  jumpi\n  0x00\n  dup6\n  sstore\n  jump(tag_7)\ntag_8:\n  dup3\n  0x1f\n  lt\n  tag_9\n  jumpi\n  dup1\n  mload\n  not(0xff)\n  and\n  dup4\n  dup1\n  add\n  or\n  dup6\n  sstore\n  jump(tag_7)\ntag_9:\n  dup3\n  dup1\n  add\n  0x01\n  add\n  dup6\n  sstore\n  dup3\n  iszero\n  tag_7\n  jumpi\n  swap2\n  dup3\n  add\ntag_10:\n  dup3\n  dup2\n  gt\n  iszero\n  tag_11\n  jumpi\n  dup3\n  mload\n  dup3\n  sstore\n  swap2\n  0x20\n  add\n  swap2\n  swap1\n  0x01\n  add\n  swap1\n  jump(tag_10)\ntag_11:\ntag_7:\n  pop\n  swap1\n  pop\n  tag_12\n  swap2\n  swap1\n  tag_13\n  jump\t// in\ntag_12:\n  pop\n  swap1\n  jump\t// out\ntag_13:\ntag_14:\n  dup1\n  dup3\n  gt\n  iszero\n  tag_15\n  jumpi\n  0x00\n  dup2\n  0x00\n  swap1\n  sstore\n  pop\n  0x01\n  add\n  jump(tag_14)\ntag_15:\n  pop\n  swap1\n  jump\t// out\n    /* \"#utility.yul\":7:187   */\ntag_16:\n    /* \"#utility.yul\":55:132   */\n  0x4e487b7100000000000000000000000000000000000000000000000000000000\n    /* \"#utility.yul\":52:53   */\n  0x00\n    /* \"#utility.yul\":45:133   */\n  mstore\n    /* \"#utility.yul\":152:156   */\n  0x22\n    /* \"#utility.yul\":149:150   */\n  0x04\n    /* \"#utility.yul\":142:157   */\n  mstore\n    /* \"#utility.yul\":176:180   */\n  0x24\n    /* \"#utility.yul\":173:174   */\n  0x00\n    /* \"#utility.yul\":166:181   */\n  revert\n    /* \"#utility.yul\":193:513   */\ntag_6:\n    /* \"#utility.yul\":237:243   */\n  0x00\n    /* \"#utility.yul\":274:275   */\n  0x02\n    /* \"#utility.yul\":268:272   */\n  dup3\n    /* \"#utility.yul\":264:276   */\n  div\n    /* \"#utility.yul\":254:276   */\n  swap1\n  pop\n    /* \"#utility.yul\":321:322   */\n  0x01\n    /* \"#utility.yul\":315:319   */\n  dup3\n    /* \"#utility.yul\":311:323   */\n  and\n    /* \"#utility.yul\":342:360   */\n  dup1\n    /* \"#utility.yul\":332:413   */\n  tag_20\n  jumpi\n    /* \"#utility.yul\":398:402   */\n  0x7f\n    /* \"#utility.yul\":390:396   */\n  dup3\n    /* \"#utility.yul\":386:403   */\n  and\n    /* \"#utility.yul\":376:403   */\n  swap2\n  pop\n    /* \"#utility.yul\":332:413   */\ntag_20:\n    /* \"#utility.yul\":460:462   */\n  0x20\n    /* \"#utility.yul\":452:458   */\n  dup3\n    /* \"#utility.yul\":449:463   */\n  lt\n    /* \"#utility.yul\":429:447   */\n  dup2\n    /* \"#utility.yul\":426:464   */\n  sub\n    /* \"#utility.yul\":423:507   */\n  tag_21\n  jumpi\n    /* \"#utility.yul\":479:497   */\n  tag_22\n  tag_16\n  jump\t// in\ntag_22:\n    /* \"#utility.yul\":423:507   */\ntag_21:\n    /* \"#utility.yul\":244:513   */\n  pop\n    /* \"#utility.yul\":193:513   */\n  swap2\n  swap1\n  pop\n  jump\t// out\n    /* \"src/contracts/Desca.sol\":147:1037  contract DeSCA is AccessControl {... */\ntag_4:\n  dataSize(sub_0)\n  dup1\n  dataOffset(sub_0)\n  0x00\n  codecopy\n  0x00\n  return\nstop\n\nsub_0: assembly {\n        /* \"src/contracts/Desca.sol\":147:1037  contract DeSCA is AccessControl {... */\n      mstore(0x40, 0x80)\n      callvalue\n      dup1\n      iszero\n      tag_1\n      jumpi\n      0x00\n      dup1\n      revert\n    tag_1:\n      pop\n      jumpi(tag_2, lt(calldatasize, 0x04))\n      shr(0xe0, calldataload(0x00))\n      dup1\n      0x52efea6e\n      gt\n      tag_15\n      jumpi\n      dup1\n      0x52efea6e\n      eq\n      tag_9\n      jumpi\n      dup1\n      0x578a34ce\n      eq\n      tag_10\n      jumpi\n      dup1\n      0x91d14854\n      eq\n      tag_11\n      jumpi\n      dup1\n      0xa217fddf\n      eq\n      tag_12\n      jumpi\n      dup1\n      0xd547741f\n      eq\n      tag_13\n      jumpi\n      dup1\n      0xe9c26518\n      eq\n      tag_14\n      jumpi\n      jump(tag_2)\n    tag_15:\n      dup1\n      0x01ffc9a7\n      eq\n      tag_3\n      jumpi\n      dup1\n      0x0a3b0a4f\n      eq\n      tag_4\n      jumpi\n      dup1\n      0x13bdfacd\n      eq\n      tag_5\n      jumpi\n      dup1\n      0x248a9ca3\n      eq\n      tag_6\n      jumpi\n      dup1\n      0x2f2ff15d\n      eq\n      tag_7\n      jumpi\n      dup1\n      0x36568abe\n      eq\n      tag_8\n      jumpi\n    tag_2:\n      0x00\n      dup1\n      revert\n        /* \"@openzeppelin/contracts/access/AccessControl.sol\":2620:2822  function supportsInterface(bytes4 interfaceId) public view virtual override returns (bool) {... */\n    tag_3:\n      tag_16\n      0x04\n      dup1\n      calldatasize\n      sub\n      dup2\n      add\n      swap1\n      tag_17\n      swap2\n      swap1\n      tag_18\n      jump\t// in\n    tag_17:\n      tag_19\n      jump\t// in\n    tag_16:\n      mload(0x40)\n      tag_20\n      swap2\n      swap1\n      tag_21\n      jump\t// in\n    tag_20:\n      mload(0x40)\n      dup1\n      swap2\n      sub\n      swap1\n      return\n        /* \"src/contracts/Desca.sol\":654:890  function add(address voter) public returns (string memory) {... */\n    tag_4:\n      tag_22\n      0x04\n      dup1\n      calldatasize\n      sub\n      dup2\n      add\n      swap1\n      tag_23\n      swap2\n      swap1\n      tag_24\n      jump\t// in\n    tag_23:\n      tag_25\n      jump\t// in\n    tag_22:\n      mload(0x40)\n      tag_26\n      swap2\n      swap1\n      tag_27\n      jump\t// in\n    tag_26:\n      mload(0x40)\n      dup1\n      swap2\n      sub\n      swap1\n      return\n        /* \"src/contracts/Desca.sol\":953:1035  function print() public view returns (string memory) {... */\n    tag_5:\n      tag_28\n      tag_29\n      jump\t// in\n    tag_28:\n      mload(0x40)\n      tag_30\n      swap2\n      swap1\n      tag_27\n      jump\t// in\n    tag_30:\n      mload(0x40)\n      dup1\n      swap2\n      sub\n      swap1\n      return\n        /* \"@openzeppelin/contracts/access/AccessControl.sol\":4008:4137  function getRoleAdmin(bytes32 role) public view virtual override returns (bytes32) {... */\n    tag_6:\n      tag_31\n      0x04\n      dup1\n      calldatasize\n      sub\n      dup2\n      add\n      swap1\n      tag_32\n      swap2\n      swap1\n      tag_33\n      jump\t// in\n    tag_32:\n      tag_34\n      jump\t// in\n    tag_31:\n      mload(0x40)\n      tag_35\n      swap2\n      swap1\n      tag_36\n      jump\t// in\n    tag_35:\n      mload(0x40)\n      dup1\n      swap2\n      sub\n      swap1\n      return\n        /* \"@openzeppelin/contracts/access/AccessControl.sol\":4387:4532  function grantRole(bytes32 role, address account) public virtual override onlyRole(getRoleAdmin(role)) {... */\n    tag_7:\n      tag_37\n      0x04\n      dup1\n      calldatasize\n      sub\n      dup2\n      add\n      swap1\n      tag_38\n      swap2\n      swap1\n      tag_39\n      jump\t// in\n    tag_38:\n      tag_40\n      jump\t// in\n    tag_37:\n      stop\n        /* \"@openzeppelin/contracts/access/AccessControl.sol\":5404:5618  function renounceRole(bytes32 role, address account) public virtual override {... */\n    tag_8:\n      tag_41\n      0x04\n      dup1\n      calldatasize\n      sub\n      dup2\n      add\n      swap1\n      tag_42\n      swap2\n      swap1\n      tag_39\n      jump\t// in\n    tag_42:\n      tag_43\n      jump\t// in\n    tag_41:\n      stop\n        /* \"src/contracts/Desca.sol\":896:947  function clear() public {... */\n    tag_9:\n      tag_44\n      tag_45\n      jump\t// in\n    tag_44:\n      stop\n        /* \"src/contracts/Desca.sol\":623:647  string public testt = \"\" */\n    tag_10:\n      tag_46\n      tag_47\n      jump\t// in\n    tag_46:\n      mload(0x40)\n      tag_48\n      swap2\n      swap1\n      tag_27\n      jump\t// in\n    tag_48:\n      mload(0x40)\n      dup1\n      swap2\n      sub\n      swap1\n      return\n        /* \"@openzeppelin/contracts/access/AccessControl.sol\":2909:3054  function hasRole(bytes32 role, address account) public view virtual override returns (bool) {... */\n    tag_11:\n      tag_49\n      0x04\n      dup1\n      calldatasize\n      sub\n      dup2\n      add\n      swap1\n      tag_50\n      swap2\n      swap1\n      tag_39\n      jump\t// in\n    tag_50:\n      tag_51\n      jump\t// in\n    tag_49:\n      mload(0x40)\n      tag_52\n      swap2\n      swap1\n      tag_21\n      jump\t// in\n    tag_52:\n      mload(0x40)\n      dup1\n      swap2\n      sub\n      swap1\n      return\n        /* \"@openzeppelin/contracts/access/AccessControl.sol\":2027:2076  bytes32 public constant DEFAULT_ADMIN_ROLE = 0x00 */\n    tag_12:\n      tag_53\n      tag_54\n      jump\t// in\n    tag_53:\n      mload(0x40)\n      tag_55\n      swap2\n      swap1\n      tag_36\n      jump\t// in\n    tag_55:\n      mload(0x40)\n      dup1\n      swap2\n      sub\n      swap1\n      return\n        /* \"@openzeppelin/contracts/access/AccessControl.sol\":4766:4913  function revokeRole(bytes32 role, address account) public virtual override onlyRole(getRoleAdmin(role)) {... */\n    tag_13:\n      tag_56\n      0x04\n      dup1\n      calldatasize\n      sub\n      dup2\n      add\n      swap1\n      tag_57\n      swap2\n      swap1\n      tag_39\n      jump\t// in\n    tag_57:\n      tag_58\n      jump\t// in\n    tag_56:\n      stop\n        /* \"src/contracts/Desca.sol\":499:555  bytes32 public constant DAO_ROLE = keccak256(\"DAO_ROLE\") */\n    tag_14:\n      tag_59\n      tag_60\n      jump\t// in\n    tag_59:\n      mload(0x40)\n      tag_61\n      swap2\n      swap1\n      tag_36\n      jump\t// in\n    tag_61:\n      mload(0x40)\n      dup1\n      swap2\n      sub\n      swap1\n      return\n        /* \"@openzeppelin/contracts/access/AccessControl.sol\":2620:2822  function supportsInterface(bytes4 interfaceId) public view virtual override returns (bool) {... */\n    tag_19:\n        /* \"@openzeppelin/contracts/access/AccessControl.sol\":2705:2709  bool */\n      0x00\n        /* \"@openzeppelin/contracts/access/AccessControl.sol\":2743:2775  type(IAccessControl).interfaceId */\n      0x7965db0b00000000000000000000000000000000000000000000000000000000\n        /* \"@openzeppelin/contracts/access/AccessControl.sol\":2728:2775  interfaceId == type(IAccessControl).interfaceId */\n      not(0xffffffffffffffffffffffffffffffffffffffffffffffffffffffff)\n      and\n        /* \"@openzeppelin/contracts/access/AccessControl.sol\":2728:2739  interfaceId */\n      dup3\n        /* \"@openzeppelin/contracts/access/AccessControl.sol\":2728:2775  interfaceId == type(IAccessControl).interfaceId */\n      not(0xffffffffffffffffffffffffffffffffffffffffffffffffffffffff)\n      and\n      eq\n        /* \"@openzeppelin/contracts/access/AccessControl.sol\":2728:2815  interfaceId == type(IAccessControl).interfaceId || super.supportsInterface(interfaceId) */\n      dup1\n      tag_63\n      jumpi\n      pop\n        /* \"@openzeppelin/contracts/access/AccessControl.sol\":2779:2815  super.supportsInterface(interfaceId) */\n      tag_64\n        /* \"@openzeppelin/contracts/access/AccessControl.sol\":2803:2814  interfaceId */\n      dup3\n        /* \"@openzeppelin/contracts/access/AccessControl.sol\":2779:2802  super.supportsInterface */\n      tag_65\n        /* \"@openzeppelin/contracts/access/AccessControl.sol\":2779:2815  super.supportsInterface(interfaceId) */\n      jump\t// in\n    tag_64:\n        /* \"@openzeppelin/contracts/access/AccessControl.sol\":2728:2815  interfaceId == type(IAccessControl).interfaceId || super.supportsInterface(interfaceId) */\n    tag_63:\n        /* \"@openzeppelin/contracts/access/AccessControl.sol\":2721:2815  return interfaceId == type(IAccessControl).interfaceId || super.supportsInterface(interfaceId) */\n      swap1\n      pop\n        /* \"@openzeppelin/contracts/access/AccessControl.sol\":2620:2822  function supportsInterface(bytes4 interfaceId) public view virtual override returns (bool) {... */\n      swap2\n      swap1\n      pop\n      jump\t// out\n        /* \"src/contracts/Desca.sol\":654:890  function add(address voter) public returns (string memory) {... */\n    tag_25:\n        /* \"src/contracts/Desca.sol\":698:711  string memory */\n      0x60\n        /* \"src/contracts/Desca.sol\":737:742  false */\n      0x00\n        /* \"src/contracts/Desca.sol\":723:727  test */\n      0x02\n        /* \"src/contracts/Desca.sol\":723:734  test[voter] */\n      0x00\n        /* \"src/contracts/Desca.sol\":728:733  voter */\n      dup5\n        /* \"src/contracts/Desca.sol\":723:734  test[voter] */\n      0xffffffffffffffffffffffffffffffffffffffff\n      and\n      0xffffffffffffffffffffffffffffffffffffffff\n      and\n      dup2\n      mstore\n      0x20\n      add\n      swap1\n      dup2\n      mstore\n      0x20\n      add\n      0x00\n      keccak256\n      0x00\n        /* \"src/contracts/Desca.sol\":723:742  test[voter] = false */\n      0x0100\n      exp\n      dup2\n      sload\n      dup2\n      0xff\n      mul\n      not\n      and\n      swap1\n      dup4\n      iszero\n      iszero\n      mul\n      or\n      swap1\n      sstore\n      pop\n        /* \"src/contracts/Desca.sol\":752:762  testLength */\n      0x01\n      0x00\n        /* \"src/contracts/Desca.sol\":752:764  testLength++ */\n      dup2\n      sload\n      dup1\n      swap3\n      swap2\n      swap1\n      tag_67\n      swap1\n      tag_68\n      jump\t// in\n    tag_67:\n      swap2\n      swap1\n      pop\n      sstore\n      pop\n        /* \"src/contracts/Desca.sol\":780:786  uint i */\n      0x00\n        /* \"src/contracts/Desca.sol\":775:884  for (uint i = 0; i < testLength; i++) {... */\n    tag_69:\n        /* \"src/contracts/Desca.sol\":796:806  testLength */\n      sload(0x01)\n        /* \"src/contracts/Desca.sol\":792:793  i */\n      dup2\n        /* \"src/contracts/Desca.sol\":792:806  i < testLength */\n      lt\n        /* \"src/contracts/Desca.sol\":775:884  for (uint i = 0; i < testLength; i++) {... */\n      iszero\n      tag_70\n      jumpi\n        /* \"src/contracts/Desca.sol\":861:866  testt */\n      0x03\n        /* \"src/contracts/Desca.sol\":842:872  bytes.concat(bytes(testt),\"t\") */\n      add(0x20, mload(0x40))\n      tag_72\n      swap2\n      swap1\n      tag_73\n      jump\t// in\n    tag_72:\n      mload(0x40)\n      0x20\n      dup2\n      dup4\n      sub\n      sub\n      dup2\n      mstore\n      swap1\n      0x40\n      mstore\n        /* \"src/contracts/Desca.sol\":827:832  testt */\n      0x03\n        /* \"src/contracts/Desca.sol\":827:873  testt = string(bytes.concat(bytes(testt),\"t\")) */\n      swap1\n      dup1\n      mload\n      swap1\n      0x20\n      add\n      swap1\n      tag_74\n      swap3\n      swap2\n      swap1\n      tag_75\n      jump\t// in\n    tag_74:\n      pop\n        /* \"src/contracts/Desca.sol\":808:811  i++ */\n      dup1\n      dup1\n      tag_76\n      swap1\n      tag_68\n      jump\t// in\n    tag_76:\n      swap2\n      pop\n      pop\n        /* \"src/contracts/Desca.sol\":775:884  for (uint i = 0; i < testLength; i++) {... */\n      jump(tag_69)\n    tag_70:\n      pop\n        /* \"src/contracts/Desca.sol\":654:890  function add(address voter) public returns (string memory) {... */\n      swap2\n      swap1\n      pop\n      jump\t// out\n        /* \"src/contracts/Desca.sol\":953:1035  function print() public view returns (string memory) {... */\n    tag_29:\n        /* \"src/contracts/Desca.sol\":991:1004  string memory */\n      0x60\n        /* \"src/contracts/Desca.sol\":1023:1028  testt */\n      0x03\n        /* \"src/contracts/Desca.sol\":1016:1028  return testt */\n      dup1\n      sload\n      tag_78\n      swap1\n      tag_79\n      jump\t// in\n    tag_78:\n      dup1\n      0x1f\n      add\n      0x20\n      dup1\n      swap2\n      div\n      mul\n      0x20\n      add\n      mload(0x40)\n      swap1\n      dup2\n      add\n      0x40\n      mstore\n      dup1\n      swap3\n      swap2\n      swap1\n      dup2\n      dup2\n      mstore\n      0x20\n      add\n      dup3\n      dup1\n      sload\n      tag_80\n      swap1\n      tag_79\n      jump\t// in\n    tag_80:\n      dup1\n      iszero\n      tag_81\n      jumpi\n      dup1\n      0x1f\n      lt\n      tag_82\n      jumpi\n      0x0100\n      dup1\n      dup4\n      sload\n      div\n      mul\n      dup4\n      mstore\n      swap2\n      0x20\n      add\n      swap2\n      jump(tag_81)\n    tag_82:\n      dup3\n      add\n      swap2\n      swap1\n      0x00\n      mstore\n      keccak256(0x00, 0x20)\n      swap1\n    tag_83:\n      dup2\n      sload\n      dup2\n      mstore\n      swap1\n      0x01\n      add\n      swap1\n      0x20\n      add\n      dup1\n      dup4\n      gt\n      tag_83\n      jumpi\n      dup3\n      swap1\n      sub\n      0x1f\n      and\n      dup3\n      add\n      swap2\n    tag_81:\n      pop\n      pop\n      pop\n      pop\n      pop\n      swap1\n      pop\n        /* \"src/contracts/Desca.sol\":953:1035  function print() public view returns (string memory) {... */\n      swap1\n      jump\t// out\n        /* \"@openzeppelin/contracts/access/AccessControl.sol\":4008:4137  function getRoleAdmin(bytes32 role) public view virtual override returns (bytes32) {... */\n    tag_34:\n        /* \"@openzeppelin/contracts/access/AccessControl.sol\":4082:4089  bytes32 */\n      0x00\n        /* \"@openzeppelin/contracts/access/AccessControl.sol\":4108:4114  _roles */\n      dup1\n        /* \"@openzeppelin/contracts/access/AccessControl.sol\":4108:4120  _roles[role] */\n      0x00\n        /* \"@openzeppelin/contracts/access/AccessControl.sol\":4115:4119  role */\n      dup4\n        /* \"@openzeppelin/contracts/access/AccessControl.sol\":4108:4120  _roles[role] */\n      dup2\n      mstore\n      0x20\n      add\n      swap1\n      dup2\n      mstore\n      0x20\n      add\n      0x00\n      keccak256\n        /* \"@openzeppelin/contracts/access/AccessControl.sol\":4108:4130  _roles[role].adminRole */\n      0x01\n      add\n      sload\n        /* \"@openzeppelin/contracts/access/AccessControl.sol\":4101:4130  return _roles[role].adminRole */\n      swap1\n      pop\n        /* \"@openzeppelin/contracts/access/AccessControl.sol\":4008:4137  function getRoleAdmin(bytes32 role) public view virtual override returns (bytes32) {... */\n      swap2\n      swap1\n      pop\n      jump\t// out\n        /* \"@openzeppelin/contracts/access/AccessControl.sol\":4387:4532  function grantRole(bytes32 role, address account) public virtual override onlyRole(getRoleAdmin(role)) {... */\n    tag_40:\n        /* \"@openzeppelin/contracts/access/AccessControl.sol\":4470:4488  getRoleAdmin(role) */\n      tag_85\n        /* \"@openzeppelin/contracts/access/AccessControl.sol\":4483:4487  role */\n      dup3\n        /* \"@openzeppelin/contracts/access/AccessControl.sol\":4470:4482  getRoleAdmin */\n      tag_34\n        /* \"@openzeppelin/contracts/access/AccessControl.sol\":4470:4488  getRoleAdmin(role) */\n      jump\t// in\n    tag_85:\n        /* \"@openzeppelin/contracts/access/AccessControl.sol\":2505:2535  _checkRole(role, _msgSender()) */\n      tag_87\n        /* \"@openzeppelin/contracts/access/AccessControl.sol\":2516:2520  role */\n      dup2\n        /* \"@openzeppelin/contracts/access/AccessControl.sol\":2522:2534  _msgSender() */\n      tag_88\n        /* \"@openzeppelin/contracts/access/AccessControl.sol\":2522:2532  _msgSender */\n      tag_89\n        /* \"@openzeppelin/contracts/access/AccessControl.sol\":2522:2534  _msgSender() */\n      jump\t// in\n    tag_88:\n        /* \"@openzeppelin/contracts/access/AccessControl.sol\":2505:2515  _checkRole */\n      tag_90\n        /* \"@openzeppelin/contracts/access/AccessControl.sol\":2505:2535  _checkRole(role, _msgSender()) */\n      jump\t// in\n    tag_87:\n        /* \"@openzeppelin/contracts/access/AccessControl.sol\":4500:4525  _grantRole(role, account) */\n      tag_92\n        /* \"@openzeppelin/contracts/access/AccessControl.sol\":4511:4515  role */\n      dup4\n        /* \"@openzeppelin/contracts/access/AccessControl.sol\":4517:4524  account */\n      dup4\n        /* \"@openzeppelin/contracts/access/AccessControl.sol\":4500:4510  _grantRole */\n      tag_93\n        /* \"@openzeppelin/contracts/access/AccessControl.sol\":4500:4525  _grantRole(role, account) */\n      jump\t// in\n    tag_92:\n        /* \"@openzeppelin/contracts/access/AccessControl.sol\":4387:4532  function grantRole(bytes32 role, address account) public virtual override onlyRole(getRoleAdmin(role)) {... */\n      pop\n      pop\n      pop\n      jump\t// out\n        /* \"@openzeppelin/contracts/access/AccessControl.sol\":5404:5618  function renounceRole(bytes32 role, address account) public virtual override {... */\n    tag_43:\n        /* \"@openzeppelin/contracts/access/AccessControl.sol\":5510:5522  _msgSender() */\n      tag_95\n        /* \"@openzeppelin/contracts/access/AccessControl.sol\":5510:5520  _msgSender */\n      tag_89\n        /* \"@openzeppelin/contracts/access/AccessControl.sol\":5510:5522  _msgSender() */\n      jump\t// in\n    tag_95:\n        /* \"@openzeppelin/contracts/access/AccessControl.sol\":5499:5522  account == _msgSender() */\n      0xffffffffffffffffffffffffffffffffffffffff\n      and\n        /* \"@openzeppelin/contracts/access/AccessControl.sol\":5499:5506  account */\n      dup2\n        /* \"@openzeppelin/contracts/access/AccessControl.sol\":5499:5522  account == _msgSender() */\n      0xffffffffffffffffffffffffffffffffffffffff\n      and\n      eq\n        /* \"@openzeppelin/contracts/access/AccessControl.sol\":5491:5574  require(account == _msgSender(), \"AccessControl: can only renounce roles for self\") */\n      tag_96\n      jumpi\n      mload(0x40)\n      0x08c379a000000000000000000000000000000000000000000000000000000000\n      dup2\n      mstore\n      0x04\n      add\n      tag_97\n      swap1\n      tag_98\n      jump\t// in\n    tag_97:\n      mload(0x40)\n      dup1\n      swap2\n      sub\n      swap1\n      revert\n    tag_96:\n        /* \"@openzeppelin/contracts/access/AccessControl.sol\":5585:5611  _revokeRole(role, account) */\n      tag_99\n        /* \"@openzeppelin/contracts/access/AccessControl.sol\":5597:5601  role */\n      dup3\n        /* \"@openzeppelin/contracts/access/AccessControl.sol\":5603:5610  account */\n      dup3\n        /* \"@openzeppelin/contracts/access/AccessControl.sol\":5585:5596  _revokeRole */\n      tag_100\n        /* \"@openzeppelin/contracts/access/AccessControl.sol\":5585:5611  _revokeRole(role, account) */\n      jump\t// in\n    tag_99:\n        /* \"@openzeppelin/contracts/access/AccessControl.sol\":5404:5618  function renounceRole(bytes32 role, address account) public virtual override {... */\n      pop\n      pop\n      jump\t// out\n        /* \"src/contracts/Desca.sol\":896:947  function clear() public {... */\n    tag_45:\n        /* \"src/contracts/Desca.sol\":930:940  testt = \"\" */\n      mload(0x40)\n      dup1\n      0x20\n      add\n      0x40\n      mstore\n      dup1\n      0x00\n      dup2\n      mstore\n      pop\n        /* \"src/contracts/Desca.sol\":930:935  testt */\n      0x03\n        /* \"src/contracts/Desca.sol\":930:940  testt = \"\" */\n      swap1\n      dup1\n      mload\n      swap1\n      0x20\n      add\n      swap1\n      tag_102\n      swap3\n      swap2\n      swap1\n      tag_75\n      jump\t// in\n    tag_102:\n      pop\n        /* \"src/contracts/Desca.sol\":896:947  function clear() public {... */\n      jump\t// out\n        /* \"src/contracts/Desca.sol\":623:647  string public testt = \"\" */\n    tag_47:\n      0x03\n      dup1\n      sload\n      tag_103\n      swap1\n      tag_79\n      jump\t// in\n    tag_103:\n      dup1\n      0x1f\n      add\n      0x20\n      dup1\n      swap2\n      div\n      mul\n      0x20\n      add\n      mload(0x40)\n      swap1\n      dup2\n      add\n      0x40\n      mstore\n      dup1\n      swap3\n      swap2\n      swap1\n      dup2\n      dup2\n      mstore\n      0x20\n      add\n      dup3\n      dup1\n      sload\n      tag_104\n      swap1\n      tag_79\n      jump\t// in\n    tag_104:\n      dup1\n      iszero\n      tag_105\n      jumpi\n      dup1\n      0x1f\n      lt\n      tag_106\n      jumpi\n      0x0100\n      dup1\n      dup4\n      sload\n      div\n      mul\n      dup4\n      mstore\n      swap2\n      0x20\n      add\n      swap2\n      jump(tag_105)\n    tag_106:\n      dup3\n      add\n      swap2\n      swap1\n      0x00\n      mstore\n      keccak256(0x00, 0x20)\n      swap1\n    tag_107:\n      dup2\n      sload\n      dup2\n      mstore\n      swap1\n      0x01\n      add\n      swap1\n      0x20\n      add\n      dup1\n      dup4\n      gt\n      tag_107\n      jumpi\n      dup3\n      swap1\n      sub\n      0x1f\n      and\n      dup3\n      add\n      swap2\n    tag_105:\n      pop\n      pop\n      pop\n      pop\n      pop\n      dup2\n      jump\t// out\n        /* \"@openzeppelin/contracts/access/AccessControl.sol\":2909:3054  function hasRole(bytes32 role, address account) public view virtual override returns (bool) {... */\n    tag_51:\n        /* \"@openzeppelin/contracts/access/AccessControl.sol\":2995:2999  bool */\n      0x00\n        /* \"@openzeppelin/contracts/access/AccessControl.sol\":3018:3024  _roles */\n      dup1\n        /* \"@openzeppelin/contracts/access/AccessControl.sol\":3018:3030  _roles[role] */\n      0x00\n        /* \"@openzeppelin/contracts/access/AccessControl.sol\":3025:3029  role */\n      dup5\n        /* \"@openzeppelin/contracts/access/AccessControl.sol\":3018:3030  _roles[role] */\n      dup2\n      mstore\n      0x20\n      add\n      swap1\n      dup2\n      mstore\n      0x20\n      add\n      0x00\n      keccak256\n        /* \"@openzeppelin/contracts/access/AccessControl.sol\":3018:3038  _roles[role].members */\n      0x00\n      add\n        /* \"@openzeppelin/contracts/access/AccessControl.sol\":3018:3047  _roles[role].members[account] */\n      0x00\n        /* \"@openzeppelin/contracts/access/AccessControl.sol\":3039:3046  account */\n      dup4\n        /* \"@openzeppelin/contracts/access/AccessControl.sol\":3018:3047  _roles[role].members[account] */\n      0xffffffffffffffffffffffffffffffffffffffff\n      and\n      0xffffffffffffffffffffffffffffffffffffffff\n      and\n      dup2\n      mstore\n      0x20\n      add\n      swap1\n      dup2\n      mstore\n      0x20\n      add\n      0x00\n      keccak256\n      0x00\n      swap1\n      sload\n      swap1\n      0x0100\n      exp\n      swap1\n      div\n      0xff\n      and\n        /* \"@openzeppelin/contracts/access/AccessControl.sol\":3011:3047  return _roles[role].members[account] */\n      swap1\n      pop\n        /* \"@openzeppelin/contracts/access/AccessControl.sol\":2909:3054  function hasRole(bytes32 role, address account) public view virtual override returns (bool) {... */\n      swap3\n      swap2\n      pop\n      pop\n      jump\t// out\n        /* \"@openzeppelin/contracts/access/AccessControl.sol\":2027:2076  bytes32 public constant DEFAULT_ADMIN_ROLE = 0x00 */\n    tag_54:\n        /* \"@openzeppelin/contracts/access/AccessControl.sol\":2072:2076  0x00 */\n      0x00\n        /* \"@openzeppelin/contracts/access/AccessControl.sol\":2027:2076  bytes32 public constant DEFAULT_ADMIN_ROLE = 0x00 */\n      dup1\n      shl\n      dup2\n      jump\t// out\n        /* \"@openzeppelin/contracts/access/AccessControl.sol\":4766:4913  function revokeRole(bytes32 role, address account) public virtual override onlyRole(getRoleAdmin(role)) {... */\n    tag_58:\n        /* \"@openzeppelin/contracts/access/AccessControl.sol\":4850:4868  getRoleAdmin(role) */\n      tag_109\n        /* \"@openzeppelin/contracts/access/AccessControl.sol\":4863:4867  role */\n      dup3\n        /* \"@openzeppelin/contracts/access/AccessControl.sol\":4850:4862  getRoleAdmin */\n      tag_34\n        /* \"@openzeppelin/contracts/access/AccessControl.sol\":4850:4868  getRoleAdmin(role) */\n      jump\t// in\n    tag_109:\n        /* \"@openzeppelin/contracts/access/AccessControl.sol\":2505:2535  _checkRole(role, _msgSender()) */\n      tag_111\n        /* \"@openzeppelin/contracts/access/AccessControl.sol\":2516:2520  role */\n      dup2\n        /* \"@openzeppelin/contracts/access/AccessControl.sol\":2522:2534  _msgSender() */\n      tag_112\n        /* \"@openzeppelin/contracts/access/AccessControl.sol\":2522:2532  _msgSender */\n      tag_89\n        /* \"@openzeppelin/contracts/access/AccessControl.sol\":2522:2534  _msgSender() */\n      jump\t// in\n    tag_112:\n        /* \"@openzeppelin/contracts/access/AccessControl.sol\":2505:2515  _checkRole */\n      tag_90\n        /* \"@openzeppelin/contracts/access/AccessControl.sol\":2505:2535  _checkRole(role, _msgSender()) */\n      jump\t// in\n    tag_111:\n        /* \"@openzeppelin/contracts/access/AccessControl.sol\":4880:4906  _revokeRole(role, account) */\n      tag_114\n        /* \"@openzeppelin/contracts/access/AccessControl.sol\":4892:4896  role */\n      dup4\n        /* \"@openzeppelin/contracts/access/AccessControl.sol\":4898:4905  account */\n      dup4\n        /* \"@openzeppelin/contracts/access/AccessControl.sol\":4880:4891  _revokeRole */\n      tag_100\n        /* \"@openzeppelin/contracts/access/AccessControl.sol\":4880:4906  _revokeRole(role, account) */\n      jump\t// in\n    tag_114:\n        /* \"@openzeppelin/contracts/access/AccessControl.sol\":4766:4913  function revokeRole(bytes32 role, address account) public virtual override onlyRole(getRoleAdmin(role)) {... */\n      pop\n      pop\n      pop\n      jump\t// out\n        /* \"src/contracts/Desca.sol\":499:555  bytes32 public constant DAO_ROLE = keccak256(\"DAO_ROLE\") */\n    tag_60:\n        /* \"src/contracts/Desca.sol\":534:555  keccak256(\"DAO_ROLE\") */\n      0x3b5d4cc60d3ec3516ee8ae083bd60934f6eb2a6c54b1229985c41bfb092b2603\n        /* \"src/contracts/Desca.sol\":499:555  bytes32 public constant DAO_ROLE = keccak256(\"DAO_ROLE\") */\n      dup2\n      jump\t// out\n        /* \"@openzeppelin/contracts/utils/introspection/ERC165.sol\":829:984  function supportsInterface(bytes4 interfaceId) public view virtual override returns (bool) {... */\n    tag_65:\n        /* \"@openzeppelin/contracts/utils/introspection/ERC165.sol\":914:918  bool */\n      0x00\n        /* \"@openzeppelin/contracts/utils/introspection/ERC165.sol\":952:977  type(IERC165).interfaceId */\n      0x01ffc9a700000000000000000000000000000000000000000000000000000000\n        /* \"@openzeppelin/contracts/utils/introspection/ERC165.sol\":937:977  interfaceId == type(IERC165).interfaceId */\n      not(0xffffffffffffffffffffffffffffffffffffffffffffffffffffffff)\n      and\n        /* \"@openzeppelin/contracts/utils/introspection/ERC165.sol\":937:948  interfaceId */\n      dup3\n        /* \"@openzeppelin/contracts/utils/introspection/ERC165.sol\":937:977  interfaceId == type(IERC165).interfaceId */\n      not(0xffffffffffffffffffffffffffffffffffffffffffffffffffffffff)\n      and\n      eq\n        /* \"@openzeppelin/contracts/utils/introspection/ERC165.sol\":930:977  return interfaceId == type(IERC165).interfaceId */\n      swap1\n      pop\n        /* \"@openzeppelin/contracts/utils/introspection/ERC165.sol\":829:984  function supportsInterface(bytes4 interfaceId) public view virtual override returns (bool) {... */\n      swap2\n      swap1\n      pop\n      jump\t// out\n        /* \"@openzeppelin/contracts/utils/Context.sol\":640:736  function _msgSender() internal view virtual returns (address) {... */\n    tag_89:\n        /* \"@openzeppelin/contracts/utils/Context.sol\":693:700  address */\n      0x00\n        /* \"@openzeppelin/contracts/utils/Context.sol\":719:729  msg.sender */\n      caller\n        /* \"@openzeppelin/contracts/utils/Context.sol\":712:729  return msg.sender */\n      swap1\n      pop\n        /* \"@openzeppelin/contracts/utils/Context.sol\":640:736  function _msgSender() internal view virtual returns (address) {... */\n      swap1\n      jump\t// out\n        /* \"@openzeppelin/contracts/access/AccessControl.sol\":3335:3827  function _checkRole(bytes32 role, address account) internal view virtual {... */\n    tag_90:\n        /* \"@openzeppelin/contracts/access/AccessControl.sol\":3423:3445  hasRole(role, account) */\n      tag_118\n        /* \"@openzeppelin/contracts/access/AccessControl.sol\":3431:3435  role */\n      dup3\n        /* \"@openzeppelin/contracts/access/AccessControl.sol\":3437:3444  account */\n      dup3\n        /* \"@openzeppelin/contracts/access/AccessControl.sol\":3423:3430  hasRole */\n      tag_51\n        /* \"@openzeppelin/contracts/access/AccessControl.sol\":3423:3445  hasRole(role, account) */\n      jump\t// in\n    tag_118:\n        /* \"@openzeppelin/contracts/access/AccessControl.sol\":3418:3821  if (!hasRole(role, account)) {... */\n      tag_119\n      jumpi\n        /* \"@openzeppelin/contracts/access/AccessControl.sol\":3606:3647  Strings.toHexString(uint160(account), 20) */\n      tag_120\n        /* \"@openzeppelin/contracts/access/AccessControl.sol\":3634:3641  account */\n      dup2\n        /* \"@openzeppelin/contracts/access/AccessControl.sol\":3606:3647  Strings.toHexString(uint160(account), 20) */\n      0xffffffffffffffffffffffffffffffffffffffff\n      and\n        /* \"@openzeppelin/contracts/access/AccessControl.sol\":3644:3646  20 */\n      0x14\n        /* \"@openzeppelin/contracts/access/AccessControl.sol\":3606:3625  Strings.toHexString */\n      tag_121\n        /* \"@openzeppelin/contracts/access/AccessControl.sol\":3606:3647  Strings.toHexString(uint160(account), 20) */\n      jump\t// in\n    tag_120:\n        /* \"@openzeppelin/contracts/access/AccessControl.sol\":3718:3756  Strings.toHexString(uint256(role), 32) */\n      tag_122\n        /* \"@openzeppelin/contracts/access/AccessControl.sol\":3746:3750  role */\n      dup4\n        /* \"@openzeppelin/contracts/access/AccessControl.sol\":3738:3751  uint256(role) */\n      0x00\n      shr\n        /* \"@openzeppelin/contracts/access/AccessControl.sol\":3753:3755  32 */\n      0x20\n        /* \"@openzeppelin/contracts/access/AccessControl.sol\":3718:3737  Strings.toHexString */\n      tag_121\n        /* \"@openzeppelin/contracts/access/AccessControl.sol\":3718:3756  Strings.toHexString(uint256(role), 32) */\n      jump\t// in\n    tag_122:\n        /* \"@openzeppelin/contracts/access/AccessControl.sol\":3513:3778  abi.encodePacked(... */\n      add(0x20, mload(0x40))\n      tag_123\n      swap3\n      swap2\n      swap1\n      tag_124\n      jump\t// in\n    tag_123:\n      mload(0x40)\n      0x20\n      dup2\n      dup4\n      sub\n      sub\n      dup2\n      mstore\n      swap1\n      0x40\n      mstore\n        /* \"@openzeppelin/contracts/access/AccessControl.sol\":3461:3810  revert(... */\n      mload(0x40)\n      0x08c379a000000000000000000000000000000000000000000000000000000000\n      dup2\n      mstore\n      0x04\n      add\n      tag_125\n      swap2\n      swap1\n      tag_27\n      jump\t// in\n    tag_125:\n      mload(0x40)\n      dup1\n      swap2\n      sub\n      swap1\n      revert\n        /* \"@openzeppelin/contracts/access/AccessControl.sol\":3418:3821  if (!hasRole(role, account)) {... */\n    tag_119:\n        /* \"@openzeppelin/contracts/access/AccessControl.sol\":3335:3827  function _checkRole(bytes32 role, address account) internal view virtual {... */\n      pop\n      pop\n      jump\t// out\n        /* \"@openzeppelin/contracts/access/AccessControl.sol\":6861:7094  function _grantRole(bytes32 role, address account) internal virtual {... */\n    tag_93:\n        /* \"@openzeppelin/contracts/access/AccessControl.sol\":6944:6966  hasRole(role, account) */\n      tag_127\n        /* \"@openzeppelin/contracts/access/AccessControl.sol\":6952:6956  role */\n      dup3\n        /* \"@openzeppelin/contracts/access/AccessControl.sol\":6958:6965  account */\n      dup3\n        /* \"@openzeppelin/contracts/access/AccessControl.sol\":6944:6951  hasRole */\n      tag_51\n        /* \"@openzeppelin/contracts/access/AccessControl.sol\":6944:6966  hasRole(role, account) */\n      jump\t// in\n    tag_127:\n        /* \"@openzeppelin/contracts/access/AccessControl.sol\":6939:7088  if (!hasRole(role, account)) {... */\n      tag_128\n      jumpi\n        /* \"@openzeppelin/contracts/access/AccessControl.sol\":7014:7018  true */\n      0x01\n        /* \"@openzeppelin/contracts/access/AccessControl.sol\":6982:6988  _roles */\n      0x00\n        /* \"@openzeppelin/contracts/access/AccessControl.sol\":6982:6994  _roles[role] */\n      dup1\n        /* \"@openzeppelin/contracts/access/AccessControl.sol\":6989:6993  role */\n      dup5\n        /* \"@openzeppelin/contracts/access/AccessControl.sol\":6982:6994  _roles[role] */\n      dup2\n      mstore\n      0x20\n      add\n      swap1\n      dup2\n      mstore\n      0x20\n      add\n      0x00\n      keccak256\n        /* \"@openzeppelin/contracts/access/AccessControl.sol\":6982:7002  _roles[role].members */\n      0x00\n      add\n        /* \"@openzeppelin/contracts/access/AccessControl.sol\":6982:7011  _roles[role].members[account] */\n      0x00\n        /* \"@openzeppelin/contracts/access/AccessControl.sol\":7003:7010  account */\n      dup4\n        /* \"@openzeppelin/contracts/access/AccessControl.sol\":6982:7011  _roles[role].members[account] */\n      0xffffffffffffffffffffffffffffffffffffffff\n      and\n      0xffffffffffffffffffffffffffffffffffffffff\n      and\n      dup2\n      mstore\n      0x20\n      add\n      swap1\n      dup2\n      mstore\n      0x20\n      add\n      0x00\n      keccak256\n      0x00\n        /* \"@openzeppelin/contracts/access/AccessControl.sol\":6982:7018  _roles[role].members[account] = true */\n      0x0100\n      exp\n      dup2\n      sload\n      dup2\n      0xff\n      mul\n      not\n      and\n      swap1\n      dup4\n      iszero\n      iszero\n      mul\n      or\n      swap1\n      sstore\n      pop\n        /* \"@openzeppelin/contracts/access/AccessControl.sol\":7064:7076  _msgSender() */\n      tag_129\n        /* \"@openzeppelin/contracts/access/AccessControl.sol\":7064:7074  _msgSender */\n      tag_89\n        /* \"@openzeppelin/contracts/access/AccessControl.sol\":7064:7076  _msgSender() */\n      jump\t// in\n    tag_129:\n        /* \"@openzeppelin/contracts/access/AccessControl.sol\":7037:7077  RoleGranted(role, account, _msgSender()) */\n      0xffffffffffffffffffffffffffffffffffffffff\n      and\n        /* \"@openzeppelin/contracts/access/AccessControl.sol\":7055:7062  account */\n      dup2\n        /* \"@openzeppelin/contracts/access/AccessControl.sol\":7037:7077  RoleGranted(role, account, _msgSender()) */\n      0xffffffffffffffffffffffffffffffffffffffff\n      and\n        /* \"@openzeppelin/contracts/access/AccessControl.sol\":7049:7053  role */\n      dup4\n        /* \"@openzeppelin/contracts/access/AccessControl.sol\":7037:7077  RoleGranted(role, account, _msgSender()) */\n      0x2f8788117e7eff1d82e926ec794901d17c78024a50270940304540a733656f0d\n      mload(0x40)\n      mload(0x40)\n      dup1\n      swap2\n      sub\n      swap1\n      log4\n        /* \"@openzeppelin/contracts/access/AccessControl.sol\":6939:7088  if (!hasRole(role, account)) {... */\n    tag_128:\n        /* \"@openzeppelin/contracts/access/AccessControl.sol\":6861:7094  function _grantRole(bytes32 role, address account) internal virtual {... */\n      pop\n      pop\n      jump\t// out\n        /* \"@openzeppelin/contracts/access/AccessControl.sol\":7219:7453  function _revokeRole(bytes32 role, address account) internal virtual {... */\n    tag_100:\n        /* \"@openzeppelin/contracts/access/AccessControl.sol\":7302:7324  hasRole(role, account) */\n      tag_131\n        /* \"@openzeppelin/contracts/access/AccessControl.sol\":7310:7314  role */\n      dup3\n        /* \"@openzeppelin/contracts/access/AccessControl.sol\":7316:7323  account */\n      dup3\n        /* \"@openzeppelin/contracts/access/AccessControl.sol\":7302:7309  hasRole */\n      tag_51\n        /* \"@openzeppelin/contracts/access/AccessControl.sol\":7302:7324  hasRole(role, account) */\n      jump\t// in\n    tag_131:\n        /* \"@openzeppelin/contracts/access/AccessControl.sol\":7298:7447  if (hasRole(role, account)) {... */\n      iszero\n      tag_132\n      jumpi\n        /* \"@openzeppelin/contracts/access/AccessControl.sol\":7372:7377  false */\n      0x00\n        /* \"@openzeppelin/contracts/access/AccessControl.sol\":7340:7346  _roles */\n      dup1\n        /* \"@openzeppelin/contracts/access/AccessControl.sol\":7340:7352  _roles[role] */\n      0x00\n        /* \"@openzeppelin/contracts/access/AccessControl.sol\":7347:7351  role */\n      dup5\n        /* \"@openzeppelin/contracts/access/AccessControl.sol\":7340:7352  _roles[role] */\n      dup2\n      mstore\n      0x20\n      add\n      swap1\n      dup2\n      mstore\n      0x20\n      add\n      0x00\n      keccak256\n        /* \"@openzeppelin/contracts/access/AccessControl.sol\":7340:7360  _roles[role].members */\n      0x00\n      add\n        /* \"@openzeppelin/contracts/access/AccessControl.sol\":7340:7369  _roles[role].members[account] */\n      0x00\n        /* \"@openzeppelin/contracts/access/AccessControl.sol\":7361:7368  account */\n      dup4\n        /* \"@openzeppelin/contracts/access/AccessControl.sol\":7340:7369  _roles[role].members[account] */\n      0xffffffffffffffffffffffffffffffffffffffff\n      and\n      0xffffffffffffffffffffffffffffffffffffffff\n      and\n      dup2\n      mstore\n      0x20\n      add\n      swap1\n      dup2\n      mstore\n      0x20\n      add\n      0x00\n      keccak256\n      0x00\n        /* \"@openzeppelin/contracts/access/AccessControl.sol\":7340:7377  _roles[role].members[account] = false */\n      0x0100\n      exp\n      dup2\n      sload\n      dup2\n      0xff\n      mul\n      not\n      and\n      swap1\n      dup4\n      iszero\n      iszero\n      mul\n      or\n      swap1\n      sstore\n      pop\n        /* \"@openzeppelin/contracts/access/AccessControl.sol\":7423:7435  _msgSender() */\n      tag_133\n        /* \"@openzeppelin/contracts/access/AccessControl.sol\":7423:7433  _msgSender */\n      tag_89\n        /* \"@openzeppelin/contracts/access/AccessControl.sol\":7423:7435  _msgSender() */\n      jump\t// in\n    tag_133:\n        /* \"@openzeppelin/contracts/access/AccessControl.sol\":7396:7436  RoleRevoked(role, account, _msgSender()) */\n      0xffffffffffffffffffffffffffffffffffffffff\n      and\n        /* \"@openzeppelin/contracts/access/AccessControl.sol\":7414:7421  account */\n      dup2\n        /* \"@openzeppelin/contracts/access/AccessControl.sol\":7396:7436  RoleRevoked(role, account, _msgSender()) */\n      0xffffffffffffffffffffffffffffffffffffffff\n      and\n        /* \"@openzeppelin/contracts/access/AccessControl.sol\":7408:7412  role */\n      dup4\n        /* \"@openzeppelin/contracts/access/AccessControl.sol\":7396:7436  RoleRevoked(role, account, _msgSender()) */\n      0xf6391f5c32d9c69d2a47ea670b442974b53935d1edc7fd64eb21e047a839171b\n      mload(0x40)\n      mload(0x40)\n      dup1\n      swap2\n      sub\n      swap1\n      log4\n        /* \"@openzeppelin/contracts/access/AccessControl.sol\":7298:7447  if (hasRole(role, account)) {... */\n    tag_132:\n        /* \"@openzeppelin/contracts/access/AccessControl.sol\":7219:7453  function _revokeRole(bytes32 role, address account) internal virtual {... */\n      pop\n      pop\n      jump\t// out\n        /* \"@openzeppelin/contracts/utils/Strings.sol\":1588:2029  function toHexString(uint256 value, uint256 length) internal pure returns (string memory) {... */\n    tag_121:\n        /* \"@openzeppelin/contracts/utils/Strings.sol\":1663:1676  string memory */\n      0x60\n        /* \"@openzeppelin/contracts/utils/Strings.sol\":1688:1707  bytes memory buffer */\n      0x00\n        /* \"@openzeppelin/contracts/utils/Strings.sol\":1733:1734  2 */\n      0x02\n        /* \"@openzeppelin/contracts/utils/Strings.sol\":1724:1730  length */\n      dup4\n        /* \"@openzeppelin/contracts/utils/Strings.sol\":1720:1721  2 */\n      0x02\n        /* \"@openzeppelin/contracts/utils/Strings.sol\":1720:1730  2 * length */\n      tag_135\n      swap2\n      swap1\n      tag_136\n      jump\t// in\n    tag_135:\n        /* \"@openzeppelin/contracts/utils/Strings.sol\":1720:1734  2 * length + 2 */\n      tag_137\n      swap2\n      swap1\n      tag_138\n      jump\t// in\n    tag_137:\n        /* \"@openzeppelin/contracts/utils/Strings.sol\":1710:1735  new bytes(2 * length + 2) */\n      0xffffffffffffffff\n      dup2\n      gt\n      iszero\n      tag_139\n      jumpi\n      tag_140\n      tag_141\n      jump\t// in\n    tag_140:\n    tag_139:\n      mload(0x40)\n      swap1\n      dup1\n      dup3\n      mstore\n      dup1\n      0x1f\n      add\n      not(0x1f)\n      and\n      0x20\n      add\n      dup3\n      add\n      0x40\n      mstore\n      dup1\n      iszero\n      tag_142\n      jumpi\n      dup2\n      0x20\n      add\n      0x01\n      dup3\n      mul\n      dup1\n      calldatasize\n      dup4\n      calldatacopy\n      dup1\n      dup3\n      add\n      swap2\n      pop\n      pop\n      swap1\n      pop\n    tag_142:\n      pop\n        /* \"@openzeppelin/contracts/utils/Strings.sol\":1688:1735  bytes memory buffer = new bytes(2 * length + 2) */\n      swap1\n      pop\n        /* \"@openzeppelin/contracts/utils/Strings.sol\":1745:1760  buffer[0] = \"0\" */\n      0x3000000000000000000000000000000000000000000000000000000000000000\n        /* \"@openzeppelin/contracts/utils/Strings.sol\":1745:1751  buffer */\n      dup2\n        /* \"@openzeppelin/contracts/utils/Strings.sol\":1752:1753  0 */\n      0x00\n        /* \"@openzeppelin/contracts/utils/Strings.sol\":1745:1754  buffer[0] */\n      dup2\n      mload\n      dup2\n      lt\n      tag_143\n      jumpi\n      tag_144\n      tag_145\n      jump\t// in\n    tag_144:\n    tag_143:\n      0x20\n      add\n      add\n        /* \"@openzeppelin/contracts/utils/Strings.sol\":1745:1760  buffer[0] = \"0\" */\n      swap1\n      not(0xffffffffffffffffffffffffffffffffffffffffffffffffffffffffffffff)\n      and\n      swap1\n      dup2\n      0x00\n      byte\n      swap1\n      mstore8\n      pop\n        /* \"@openzeppelin/contracts/utils/Strings.sol\":1770:1785  buffer[1] = \"x\" */\n      0x7800000000000000000000000000000000000000000000000000000000000000\n        /* \"@openzeppelin/contracts/utils/Strings.sol\":1770:1776  buffer */\n      dup2\n        /* \"@openzeppelin/contracts/utils/Strings.sol\":1777:1778  1 */\n      0x01\n        /* \"@openzeppelin/contracts/utils/Strings.sol\":1770:1779  buffer[1] */\n      dup2\n      mload\n      dup2\n      lt\n      tag_146\n      jumpi\n      tag_147\n      tag_145\n      jump\t// in\n    tag_147:\n    tag_146:\n      0x20\n      add\n      add\n        /* \"@openzeppelin/contracts/utils/Strings.sol\":1770:1785  buffer[1] = \"x\" */\n      swap1\n      not(0xffffffffffffffffffffffffffffffffffffffffffffffffffffffffffffff)\n      and\n      swap1\n      dup2\n      0x00\n      byte\n      swap1\n      mstore8\n      pop\n        /* \"@openzeppelin/contracts/utils/Strings.sol\":1800:1809  uint256 i */\n      0x00\n        /* \"@openzeppelin/contracts/utils/Strings.sol\":1825:1826  1 */\n      0x01\n        /* \"@openzeppelin/contracts/utils/Strings.sol\":1816:1822  length */\n      dup5\n        /* \"@openzeppelin/contracts/utils/Strings.sol\":1812:1813  2 */\n      0x02\n        /* \"@openzeppelin/contracts/utils/Strings.sol\":1812:1822  2 * length */\n      tag_151\n      swap2\n      swap1\n      tag_136\n      jump\t// in\n    tag_151:\n        /* \"@openzeppelin/contracts/utils/Strings.sol\":1812:1826  2 * length + 1 */\n      tag_152\n      swap2\n      swap1\n      tag_138\n      jump\t// in\n    tag_152:\n        /* \"@openzeppelin/contracts/utils/Strings.sol\":1800:1826  uint256 i = 2 * length + 1 */\n      swap1\n      pop\n        /* \"@openzeppelin/contracts/utils/Strings.sol\":1795:1927  for (uint256 i = 2 * length + 1; i > 1; --i) {... */\n    tag_148:\n        /* \"@openzeppelin/contracts/utils/Strings.sol\":1832:1833  1 */\n      0x01\n        /* \"@openzeppelin/contracts/utils/Strings.sol\":1828:1829  i */\n      dup2\n        /* \"@openzeppelin/contracts/utils/Strings.sol\":1828:1833  i > 1 */\n      gt\n        /* \"@openzeppelin/contracts/utils/Strings.sol\":1795:1927  for (uint256 i = 2 * length + 1; i > 1; --i) {... */\n      iszero\n      tag_149\n      jumpi\n        /* \"@openzeppelin/contracts/utils/Strings.sol\":1866:1878  _HEX_SYMBOLS */\n      0x3031323334353637383961626364656600000000000000000000000000000000\n        /* \"@openzeppelin/contracts/utils/Strings.sol\":1887:1890  0xf */\n      0x0f\n        /* \"@openzeppelin/contracts/utils/Strings.sol\":1879:1884  value */\n      dup7\n        /* \"@openzeppelin/contracts/utils/Strings.sol\":1879:1890  value & 0xf */\n      and\n        /* \"@openzeppelin/contracts/utils/Strings.sol\":1866:1891  _HEX_SYMBOLS[value & 0xf] */\n      0x10\n      dup2\n      lt\n      tag_153\n      jumpi\n      tag_154\n      tag_145\n      jump\t// in\n    tag_154:\n    tag_153:\n      byte\n      0xf8\n      shl\n        /* \"@openzeppelin/contracts/utils/Strings.sol\":1854:1860  buffer */\n      dup3\n        /* \"@openzeppelin/contracts/utils/Strings.sol\":1861:1862  i */\n      dup3\n        /* \"@openzeppelin/contracts/utils/Strings.sol\":1854:1863  buffer[i] */\n      dup2\n      mload\n      dup2\n      lt\n      tag_155\n      jumpi\n      tag_156\n      tag_145\n      jump\t// in\n    tag_156:\n    tag_155:\n      0x20\n      add\n      add\n        /* \"@openzeppelin/contracts/utils/Strings.sol\":1854:1891  buffer[i] = _HEX_SYMBOLS[value & 0xf] */\n      swap1\n      not(0xffffffffffffffffffffffffffffffffffffffffffffffffffffffffffffff)\n      and\n      swap1\n      dup2\n      0x00\n      byte\n      swap1\n      mstore8\n      pop\n        /* \"@openzeppelin/contracts/utils/Strings.sol\":1915:1916  4 */\n      0x04\n        /* \"@openzeppelin/contracts/utils/Strings.sol\":1905:1916  value >>= 4 */\n      dup6\n      swap1\n      shr\n      swap5\n      pop\n        /* \"@openzeppelin/contracts/utils/Strings.sol\":1835:1838  --i */\n      dup1\n      tag_157\n      swap1\n      tag_158\n      jump\t// in\n    tag_157:\n      swap1\n      pop\n        /* \"@openzeppelin/contracts/utils/Strings.sol\":1795:1927  for (uint256 i = 2 * length + 1; i > 1; --i) {... */\n      jump(tag_148)\n    tag_149:\n      pop\n        /* \"@openzeppelin/contracts/utils/Strings.sol\":1953:1954  0 */\n      0x00\n        /* \"@openzeppelin/contracts/utils/Strings.sol\":1944:1949  value */\n      dup5\n        /* \"@openzeppelin/contracts/utils/Strings.sol\":1944:1954  value == 0 */\n      eq\n        /* \"@openzeppelin/contracts/utils/Strings.sol\":1936:1991  require(value == 0, \"Strings: hex length insufficient\") */\n      tag_159\n      jumpi\n      mload(0x40)\n      0x08c379a000000000000000000000000000000000000000000000000000000000\n      dup2\n      mstore\n      0x04\n      add\n      tag_160\n      swap1\n      tag_161\n      jump\t// in\n    tag_160:\n      mload(0x40)\n      dup1\n      swap2\n      sub\n      swap1\n      revert\n    tag_159:\n        /* \"@openzeppelin/contracts/utils/Strings.sol\":2015:2021  buffer */\n      dup1\n        /* \"@openzeppelin/contracts/utils/Strings.sol\":2001:2022  return string(buffer) */\n      swap2\n      pop\n      pop\n        /* \"@openzeppelin/contracts/utils/Strings.sol\":1588:2029  function toHexString(uint256 value, uint256 length) internal pure returns (string memory) {... */\n      swap3\n      swap2\n      pop\n      pop\n      jump\t// out\n    tag_75:\n      dup3\n      dup1\n      sload\n      tag_162\n      swap1\n      tag_79\n      jump\t// in\n    tag_162:\n      swap1\n      0x00\n      mstore\n      keccak256(0x00, 0x20)\n      swap1\n      0x1f\n      add\n      0x20\n      swap1\n      div\n      dup2\n      add\n      swap3\n      dup3\n      tag_164\n      jumpi\n      0x00\n      dup6\n      sstore\n      jump(tag_163)\n    tag_164:\n      dup3\n      0x1f\n      lt\n      tag_165\n      jumpi\n      dup1\n      mload\n      not(0xff)\n      and\n      dup4\n      dup1\n      add\n      or\n      dup6\n      sstore\n      jump(tag_163)\n    tag_165:\n      dup3\n      dup1\n      add\n      0x01\n      add\n      dup6\n      sstore\n      dup3\n      iszero\n      tag_163\n      jumpi\n      swap2\n      dup3\n      add\n    tag_166:\n      dup3\n      dup2\n      gt\n      iszero\n      tag_167\n      jumpi\n      dup3\n      mload\n      dup3\n      sstore\n      swap2\n      0x20\n      add\n      swap2\n      swap1\n      0x01\n      add\n      swap1\n      jump(tag_166)\n    tag_167:\n    tag_163:\n      pop\n      swap1\n      pop\n      tag_168\n      swap2\n      swap1\n      tag_169\n      jump\t// in\n    tag_168:\n      pop\n      swap1\n      jump\t// out\n    tag_169:\n    tag_170:\n      dup1\n      dup3\n      gt\n      iszero\n      tag_171\n      jumpi\n      0x00\n      dup2\n      0x00\n      swap1\n      sstore\n      pop\n      0x01\n      add\n      jump(tag_170)\n    tag_171:\n      pop\n      swap1\n      jump\t// out\n        /* \"#utility.yul\":88:205   */\n    tag_173:\n        /* \"#utility.yul\":197:198   */\n      0x00\n        /* \"#utility.yul\":194:195   */\n      dup1\n        /* \"#utility.yul\":187:199   */\n      revert\n        /* \"#utility.yul\":334:483   */\n    tag_175:\n        /* \"#utility.yul\":370:377   */\n      0x00\n        /* \"#utility.yul\":410:476   */\n      0xffffffff00000000000000000000000000000000000000000000000000000000\n        /* \"#utility.yul\":403:408   */\n      dup3\n        /* \"#utility.yul\":399:477   */\n      and\n        /* \"#utility.yul\":388:477   */\n      swap1\n      pop\n        /* \"#utility.yul\":334:483   */\n      swap2\n      swap1\n      pop\n      jump\t// out\n        /* \"#utility.yul\":489:609   */\n    tag_176:\n        /* \"#utility.yul\":561:584   */\n      tag_216\n        /* \"#utility.yul\":578:583   */\n      dup2\n        /* \"#utility.yul\":561:584   */\n      tag_175\n      jump\t// in\n    tag_216:\n        /* \"#utility.yul\":554:559   */\n      dup2\n        /* \"#utility.yul\":551:585   */\n      eq\n        /* \"#utility.yul\":541:603   */\n      tag_217\n      jumpi\n        /* \"#utility.yul\":599:600   */\n      0x00\n        /* \"#utility.yul\":596:597   */\n      dup1\n        /* \"#utility.yul\":589:601   */\n      revert\n        /* \"#utility.yul\":541:603   */\n    tag_217:\n        /* \"#utility.yul\":489:609   */\n      pop\n      jump\t// out\n        /* \"#utility.yul\":615:752   */\n    tag_177:\n        /* \"#utility.yul\":660:665   */\n      0x00\n        /* \"#utility.yul\":698:704   */\n      dup2\n        /* \"#utility.yul\":685:705   */\n      calldataload\n        /* \"#utility.yul\":676:705   */\n      swap1\n      pop\n        /* \"#utility.yul\":714:746   */\n      tag_219\n        /* \"#utility.yul\":740:745   */\n      dup2\n        /* \"#utility.yul\":714:746   */\n      tag_176\n      jump\t// in\n    tag_219:\n        /* \"#utility.yul\":615:752   */\n      swap3\n      swap2\n      pop\n      pop\n      jump\t// out\n        /* \"#utility.yul\":758:1085   */\n    tag_18:\n        /* \"#utility.yul\":816:822   */\n      0x00\n        /* \"#utility.yul\":865:867   */\n      0x20\n        /* \"#utility.yul\":853:862   */\n      dup3\n        /* \"#utility.yul\":844:851   */\n      dup5\n        /* \"#utility.yul\":840:863   */\n      sub\n        /* \"#utility.yul\":836:868   */\n      slt\n        /* \"#utility.yul\":833:952   */\n      iszero\n      tag_221\n      jumpi\n        /* \"#utility.yul\":871:950   */\n      tag_222\n      tag_173\n      jump\t// in\n    tag_222:\n        /* \"#utility.yul\":833:952   */\n    tag_221:\n        /* \"#utility.yul\":991:992   */\n      0x00\n        /* \"#utility.yul\":1016:1068   */\n      tag_223\n        /* \"#utility.yul\":1060:1067   */\n      dup5\n        /* \"#utility.yul\":1051:1057   */\n      dup3\n        /* \"#utility.yul\":1040:1049   */\n      dup6\n        /* \"#utility.yul\":1036:1058   */\n      add\n        /* \"#utility.yul\":1016:1068   */\n      tag_177\n      jump\t// in\n    tag_223:\n        /* \"#utility.yul\":1006:1068   */\n      swap2\n      pop\n        /* \"#utility.yul\":962:1078   */\n      pop\n        /* \"#utility.yul\":758:1085   */\n      swap3\n      swap2\n      pop\n      pop\n      jump\t// out\n        /* \"#utility.yul\":1091:1181   */\n    tag_178:\n        /* \"#utility.yul\":1125:1132   */\n      0x00\n        /* \"#utility.yul\":1168:1173   */\n      dup2\n        /* \"#utility.yul\":1161:1174   */\n      iszero\n        /* \"#utility.yul\":1154:1175   */\n      iszero\n        /* \"#utility.yul\":1143:1175   */\n      swap1\n      pop\n        /* \"#utility.yul\":1091:1181   */\n      swap2\n      swap1\n      pop\n      jump\t// out\n        /* \"#utility.yul\":1187:1296   */\n    tag_179:\n        /* \"#utility.yul\":1268:1289   */\n      tag_226\n        /* \"#utility.yul\":1283:1288   */\n      dup2\n        /* \"#utility.yul\":1268:1289   */\n      tag_178\n      jump\t// in\n    tag_226:\n        /* \"#utility.yul\":1263:1266   */\n      dup3\n        /* \"#utility.yul\":1256:1290   */\n      mstore\n        /* \"#utility.yul\":1187:1296   */\n      pop\n      pop\n      jump\t// out\n        /* \"#utility.yul\":1302:1512   */\n    tag_21:\n        /* \"#utility.yul\":1389:1393   */\n      0x00\n        /* \"#utility.yul\":1427:1429   */\n      0x20\n        /* \"#utility.yul\":1416:1425   */\n      dup3\n        /* \"#utility.yul\":1412:1430   */\n      add\n        /* \"#utility.yul\":1404:1430   */\n      swap1\n      pop\n        /* \"#utility.yul\":1440:1505   */\n      tag_228\n        /* \"#utility.yul\":1502:1503   */\n      0x00\n        /* \"#utility.yul\":1491:1500   */\n      dup4\n        /* \"#utility.yul\":1487:1504   */\n      add\n        /* \"#utility.yul\":1478:1484   */\n      dup5\n        /* \"#utility.yul\":1440:1505   */\n      tag_179\n      jump\t// in\n    tag_228:\n        /* \"#utility.yul\":1302:1512   */\n      swap3\n      swap2\n      pop\n      pop\n      jump\t// out\n        /* \"#utility.yul\":1518:1644   */\n    tag_180:\n        /* \"#utility.yul\":1555:1562   */\n      0x00\n        /* \"#utility.yul\":1595:1637   */\n      0xffffffffffffffffffffffffffffffffffffffff\n        /* \"#utility.yul\":1588:1593   */\n      dup3\n        /* \"#utility.yul\":1584:1638   */\n      and\n        /* \"#utility.yul\":1573:1638   */\n      swap1\n      pop\n        /* \"#utility.yul\":1518:1644   */\n      swap2\n      swap1\n      pop\n      jump\t// out\n        /* \"#utility.yul\":1650:1746   */\n    tag_181:\n        /* \"#utility.yul\":1687:1694   */\n      0x00\n        /* \"#utility.yul\":1716:1740   */\n      tag_231\n        /* \"#utility.yul\":1734:1739   */\n      dup3\n        /* \"#utility.yul\":1716:1740   */\n      tag_180\n      jump\t// in\n    tag_231:\n        /* \"#utility.yul\":1705:1740   */\n      swap1\n      pop\n        /* \"#utility.yul\":1650:1746   */\n      swap2\n      swap1\n      pop\n      jump\t// out\n        /* \"#utility.yul\":1752:1874   */\n    tag_182:\n        /* \"#utility.yul\":1825:1849   */\n      tag_233\n        /* \"#utility.yul\":1843:1848   */\n      dup2\n        /* \"#utility.yul\":1825:1849   */\n      tag_181\n      jump\t// in\n    tag_233:\n        /* \"#utility.yul\":1818:1823   */\n      dup2\n        /* \"#utility.yul\":1815:1850   */\n      eq\n        /* \"#utility.yul\":1805:1868   */\n      tag_234\n      jumpi\n        /* \"#utility.yul\":1864:1865   */\n      0x00\n        /* \"#utility.yul\":1861:1862   */\n      dup1\n        /* \"#utility.yul\":1854:1866   */\n      revert\n        /* \"#utility.yul\":1805:1868   */\n    tag_234:\n        /* \"#utility.yul\":1752:1874   */\n      pop\n      jump\t// out\n        /* \"#utility.yul\":1880:2019   */\n    tag_183:\n        /* \"#utility.yul\":1926:1931   */\n      0x00\n        /* \"#utility.yul\":1964:1970   */\n      dup2\n        /* \"#utility.yul\":1951:1971   */\n      calldataload\n        /* \"#utility.yul\":1942:1971   */\n      swap1\n      pop\n        /* \"#utility.yul\":1980:2013   */\n      tag_236\n        /* \"#utility.yul\":2007:2012   */\n      dup2\n        /* \"#utility.yul\":1980:2013   */\n      tag_182\n      jump\t// in\n    tag_236:\n        /* \"#utility.yul\":1880:2019   */\n      swap3\n      swap2\n      pop\n      pop\n      jump\t// out\n        /* \"#utility.yul\":2025:2354   */\n    tag_24:\n        /* \"#utility.yul\":2084:2090   */\n      0x00\n        /* \"#utility.yul\":2133:2135   */\n      0x20\n        /* \"#utility.yul\":2121:2130   */\n      dup3\n        /* \"#utility.yul\":2112:2119   */\n      dup5\n        /* \"#utility.yul\":2108:2131   */\n      sub\n        /* \"#utility.yul\":2104:2136   */\n      slt\n        /* \"#utility.yul\":2101:2220   */\n      iszero\n      tag_238\n      jumpi\n        /* \"#utility.yul\":2139:2218   */\n      tag_239\n      tag_173\n      jump\t// in\n    tag_239:\n        /* \"#utility.yul\":2101:2220   */\n    tag_238:\n        /* \"#utility.yul\":2259:2260   */\n      0x00\n        /* \"#utility.yul\":2284:2337   */\n      tag_240\n        /* \"#utility.yul\":2329:2336   */\n      dup5\n        /* \"#utility.yul\":2320:2326   */\n      dup3\n        /* \"#utility.yul\":2309:2318   */\n      dup6\n        /* \"#utility.yul\":2305:2327   */\n      add\n        /* \"#utility.yul\":2284:2337   */\n      tag_183\n      jump\t// in\n    tag_240:\n        /* \"#utility.yul\":2274:2337   */\n      swap2\n      pop\n        /* \"#utility.yul\":2230:2347   */\n      pop\n        /* \"#utility.yul\":2025:2354   */\n      swap3\n      swap2\n      pop\n      pop\n      jump\t// out\n        /* \"#utility.yul\":2360:2459   */\n    tag_184:\n        /* \"#utility.yul\":2412:2418   */\n      0x00\n        /* \"#utility.yul\":2446:2451   */\n      dup2\n        /* \"#utility.yul\":2440:2452   */\n      mload\n        /* \"#utility.yul\":2430:2452   */\n      swap1\n      pop\n        /* \"#utility.yul\":2360:2459   */\n      swap2\n      swap1\n      pop\n      jump\t// out\n        /* \"#utility.yul\":2465:2634   */\n    tag_185:\n        /* \"#utility.yul\":2549:2560   */\n      0x00\n        /* \"#utility.yul\":2583:2589   */\n      dup3\n        /* \"#utility.yul\":2578:2581   */\n      dup3\n        /* \"#utility.yul\":2571:2590   */\n      mstore\n        /* \"#utility.yul\":2623:2627   */\n      0x20\n        /* \"#utility.yul\":2618:2621   */\n      dup3\n        /* \"#utility.yul\":2614:2628   */\n      add\n        /* \"#utility.yul\":2599:2628   */\n      swap1\n      pop\n        /* \"#utility.yul\":2465:2634   */\n      swap3\n      swap2\n      pop\n      pop\n      jump\t// out\n        /* \"#utility.yul\":2640:2947   */\n    tag_186:\n        /* \"#utility.yul\":2708:2709   */\n      0x00\n        /* \"#utility.yul\":2718:2831   */\n    tag_244:\n        /* \"#utility.yul\":2732:2738   */\n      dup4\n        /* \"#utility.yul\":2729:2730   */\n      dup2\n        /* \"#utility.yul\":2726:2739   */\n      lt\n        /* \"#utility.yul\":2718:2831   */\n      iszero\n      tag_246\n      jumpi\n        /* \"#utility.yul\":2817:2818   */\n      dup1\n        /* \"#utility.yul\":2812:2815   */\n      dup3\n        /* \"#utility.yul\":2808:2819   */\n      add\n        /* \"#utility.yul\":2802:2820   */\n      mload\n        /* \"#utility.yul\":2798:2799   */\n      dup2\n        /* \"#utility.yul\":2793:2796   */\n      dup5\n        /* \"#utility.yul\":2789:2800   */\n      add\n        /* \"#utility.yul\":2782:2821   */\n      mstore\n        /* \"#utility.yul\":2754:2756   */\n      0x20\n        /* \"#utility.yul\":2751:2752   */\n      dup2\n        /* \"#utility.yul\":2747:2757   */\n      add\n        /* \"#utility.yul\":2742:2757   */\n      swap1\n      pop\n        /* \"#utility.yul\":2718:2831   */\n      jump(tag_244)\n    tag_246:\n        /* \"#utility.yul\":2849:2855   */\n      dup4\n        /* \"#utility.yul\":2846:2847   */\n      dup2\n        /* \"#utility.yul\":2843:2856   */\n      gt\n        /* \"#utility.yul\":2840:2941   */\n      iszero\n      tag_247\n      jumpi\n        /* \"#utility.yul\":2929:2930   */\n      0x00\n        /* \"#utility.yul\":2920:2926   */\n      dup5\n        /* \"#utility.yul\":2915:2918   */\n      dup5\n        /* \"#utility.yul\":2911:2927   */\n      add\n        /* \"#utility.yul\":2904:2931   */\n      mstore\n        /* \"#utility.yul\":2840:2941   */\n    tag_247:\n        /* \"#utility.yul\":2689:2947   */\n      pop\n        /* \"#utility.yul\":2640:2947   */\n      pop\n      pop\n      pop\n      jump\t// out\n        /* \"#utility.yul\":2953:3055   */\n    tag_187:\n        /* \"#utility.yul\":2994:3000   */\n      0x00\n        /* \"#utility.yul\":3045:3047   */\n      0x1f\n        /* \"#utility.yul\":3041:3048   */\n      not\n        /* \"#utility.yul\":3036:3038   */\n      0x1f\n        /* \"#utility.yul\":3029:3034   */\n      dup4\n        /* \"#utility.yul\":3025:3039   */\n      add\n        /* \"#utility.yul\":3021:3049   */\n      and\n        /* \"#utility.yul\":3011:3049   */\n      swap1\n      pop\n        /* \"#utility.yul\":2953:3055   */\n      swap2\n      swap1\n      pop\n      jump\t// out\n        /* \"#utility.yul\":3061:3425   */\n    tag_188:\n        /* \"#utility.yul\":3149:3152   */\n      0x00\n        /* \"#utility.yul\":3177:3216   */\n      tag_250\n        /* \"#utility.yul\":3210:3215   */\n      dup3\n        /* \"#utility.yul\":3177:3216   */\n      tag_184\n      jump\t// in\n    tag_250:\n        /* \"#utility.yul\":3232:3303   */\n      tag_251\n        /* \"#utility.yul\":3296:3302   */\n      dup2\n        /* \"#utility.yul\":3291:3294   */\n      dup6\n        /* \"#utility.yul\":3232:3303   */\n      tag_185\n      jump\t// in\n    tag_251:\n        /* \"#utility.yul\":3225:3303   */\n      swap4\n      pop\n        /* \"#utility.yul\":3312:3364   */\n      tag_252\n        /* \"#utility.yul\":3357:3363   */\n      dup2\n        /* \"#utility.yul\":3352:3355   */\n      dup6\n        /* \"#utility.yul\":3345:3349   */\n      0x20\n        /* \"#utility.yul\":3338:3343   */\n      dup7\n        /* \"#utility.yul\":3334:3350   */\n      add\n        /* \"#utility.yul\":3312:3364   */\n      tag_186\n      jump\t// in\n    tag_252:\n        /* \"#utility.yul\":3389:3418   */\n      tag_253\n        /* \"#utility.yul\":3411:3417   */\n      dup2\n        /* \"#utility.yul\":3389:3418   */\n      tag_187\n      jump\t// in\n    tag_253:\n        /* \"#utility.yul\":3384:3387   */\n      dup5\n        /* \"#utility.yul\":3380:3419   */\n      add\n        /* \"#utility.yul\":3373:3419   */\n      swap2\n      pop\n        /* \"#utility.yul\":3153:3425   */\n      pop\n        /* \"#utility.yul\":3061:3425   */\n      swap3\n      swap2\n      pop\n      pop\n      jump\t// out\n        /* \"#utility.yul\":3431:3744   */\n    tag_27:\n        /* \"#utility.yul\":3544:3548   */\n      0x00\n        /* \"#utility.yul\":3582:3584   */\n      0x20\n        /* \"#utility.yul\":3571:3580   */\n      dup3\n        /* \"#utility.yul\":3567:3585   */\n      add\n        /* \"#utility.yul\":3559:3585   */\n      swap1\n      pop\n        /* \"#utility.yul\":3631:3640   */\n      dup2\n        /* \"#utility.yul\":3625:3629   */\n      dup2\n        /* \"#utility.yul\":3621:3641   */\n      sub\n        /* \"#utility.yul\":3617:3618   */\n      0x00\n        /* \"#utility.yul\":3606:3615   */\n      dup4\n        /* \"#utility.yul\":3602:3619   */\n      add\n        /* \"#utility.yul\":3595:3642   */\n      mstore\n        /* \"#utility.yul\":3659:3737   */\n      tag_255\n        /* \"#utility.yul\":3732:3736   */\n      dup2\n        /* \"#utility.yul\":3723:3729   */\n      dup5\n        /* \"#utility.yul\":3659:3737   */\n      tag_188\n      jump\t// in\n    tag_255:\n        /* \"#utility.yul\":3651:3737   */\n      swap1\n      pop\n        /* \"#utility.yul\":3431:3744   */\n      swap3\n      swap2\n      pop\n      pop\n      jump\t// out\n        /* \"#utility.yul\":3750:3827   */\n    tag_189:\n        /* \"#utility.yul\":3787:3794   */\n      0x00\n        /* \"#utility.yul\":3816:3821   */\n      dup2\n        /* \"#utility.yul\":3805:3821   */\n      swap1\n      pop\n        /* \"#utility.yul\":3750:3827   */\n      swap2\n      swap1\n      pop\n      jump\t// out\n        /* \"#utility.yul\":3833:3955   */\n    tag_190:\n        /* \"#utility.yul\":3906:3930   */\n      tag_258\n        /* \"#utility.yul\":3924:3929   */\n      dup2\n        /* \"#utility.yul\":3906:3930   */\n      tag_189\n      jump\t// in\n    tag_258:\n        /* \"#utility.yul\":3899:3904   */\n      dup2\n        /* \"#utility.yul\":3896:3931   */\n      eq\n        /* \"#utility.yul\":3886:3949   */\n      tag_259\n      jumpi\n        /* \"#utility.yul\":3945:3946   */\n      0x00\n        /* \"#utility.yul\":3942:3943   */\n      dup1\n        /* \"#utility.yul\":3935:3947   */\n      revert\n        /* \"#utility.yul\":3886:3949   */\n    tag_259:\n        /* \"#utility.yul\":3833:3955   */\n      pop\n      jump\t// out\n        /* \"#utility.yul\":3961:4100   */\n    tag_191:\n        /* \"#utility.yul\":4007:4012   */\n      0x00\n        /* \"#utility.yul\":4045:4051   */\n      dup2\n        /* \"#utility.yul\":4032:4052   */\n      calldataload\n        /* \"#utility.yul\":4023:4052   */\n      swap1\n      pop\n        /* \"#utility.yul\":4061:4094   */\n      tag_261\n        /* \"#utility.yul\":4088:4093   */\n      dup2\n        /* \"#utility.yul\":4061:4094   */\n      tag_190\n      jump\t// in\n    tag_261:\n        /* \"#utility.yul\":3961:4100   */\n      swap3\n      swap2\n      pop\n      pop\n      jump\t// out\n        /* \"#utility.yul\":4106:4435   */\n    tag_33:\n        /* \"#utility.yul\":4165:4171   */\n      0x00\n        /* \"#utility.yul\":4214:4216   */\n      0x20\n        /* \"#utility.yul\":4202:4211   */\n      dup3\n        /* \"#utility.yul\":4193:4200   */\n      dup5\n        /* \"#utility.yul\":4189:4212   */\n      sub\n        /* \"#utility.yul\":4185:4217   */\n      slt\n        /* \"#utility.yul\":4182:4301   */\n      iszero\n      tag_263\n      jumpi\n        /* \"#utility.yul\":4220:4299   */\n      tag_264\n      tag_173\n      jump\t// in\n    tag_264:\n        /* \"#utility.yul\":4182:4301   */\n    tag_263:\n        /* \"#utility.yul\":4340:4341   */\n      0x00\n        /* \"#utility.yul\":4365:4418   */\n      tag_265\n        /* \"#utility.yul\":4410:4417   */\n      dup5\n        /* \"#utility.yul\":4401:4407   */\n      dup3\n        /* \"#utility.yul\":4390:4399   */\n      dup6\n        /* \"#utility.yul\":4386:4408   */\n      add\n        /* \"#utility.yul\":4365:4418   */\n      tag_191\n      jump\t// in\n    tag_265:\n        /* \"#utility.yul\":4355:4418   */\n      swap2\n      pop\n        /* \"#utility.yul\":4311:4428   */\n      pop\n        /* \"#utility.yul\":4106:4435   */\n      swap3\n      swap2\n      pop\n      pop\n      jump\t// out\n        /* \"#utility.yul\":4441:4559   */\n    tag_192:\n        /* \"#utility.yul\":4528:4552   */\n      tag_267\n        /* \"#utility.yul\":4546:4551   */\n      dup2\n        /* \"#utility.yul\":4528:4552   */\n      tag_189\n      jump\t// in\n    tag_267:\n        /* \"#utility.yul\":4523:4526   */\n      dup3\n        /* \"#utility.yul\":4516:4553   */\n      mstore\n        /* \"#utility.yul\":4441:4559   */\n      pop\n      pop\n      jump\t// out\n        /* \"#utility.yul\":4565:4787   */\n    tag_36:\n        /* \"#utility.yul\":4658:4662   */\n      0x00\n        /* \"#utility.yul\":4696:4698   */\n      0x20\n        /* \"#utility.yul\":4685:4694   */\n      dup3\n        /* \"#utility.yul\":4681:4699   */\n      add\n        /* \"#utility.yul\":4673:4699   */\n      swap1\n      pop\n        /* \"#utility.yul\":4709:4780   */\n      tag_269\n        /* \"#utility.yul\":4777:4778   */\n      0x00\n        /* \"#utility.yul\":4766:4775   */\n      dup4\n        /* \"#utility.yul\":4762:4779   */\n      add\n        /* \"#utility.yul\":4753:4759   */\n      dup5\n        /* \"#utility.yul\":4709:4780   */\n      tag_192\n      jump\t// in\n    tag_269:\n        /* \"#utility.yul\":4565:4787   */\n      swap3\n      swap2\n      pop\n      pop\n      jump\t// out\n        /* \"#utility.yul\":4793:5267   */\n    tag_39:\n        /* \"#utility.yul\":4861:4867   */\n      0x00\n        /* \"#utility.yul\":4869:4875   */\n      dup1\n        /* \"#utility.yul\":4918:4920   */\n      0x40\n        /* \"#utility.yul\":4906:4915   */\n      dup4\n        /* \"#utility.yul\":4897:4904   */\n      dup6\n        /* \"#utility.yul\":4893:4916   */\n      sub\n        /* \"#utility.yul\":4889:4921   */\n      slt\n        /* \"#utility.yul\":4886:5005   */\n      iszero\n      tag_271\n      jumpi\n        /* \"#utility.yul\":4924:5003   */\n      tag_272\n      tag_173\n      jump\t// in\n    tag_272:\n        /* \"#utility.yul\":4886:5005   */\n    tag_271:\n        /* \"#utility.yul\":5044:5045   */\n      0x00\n        /* \"#utility.yul\":5069:5122   */\n      tag_273\n        /* \"#utility.yul\":5114:5121   */\n      dup6\n        /* \"#utility.yul\":5105:5111   */\n      dup3\n        /* \"#utility.yul\":5094:5103   */\n      dup7\n        /* \"#utility.yul\":5090:5112   */\n      add\n        /* \"#utility.yul\":5069:5122   */\n      tag_191\n      jump\t// in\n    tag_273:\n        /* \"#utility.yul\":5059:5122   */\n      swap3\n      pop\n        /* \"#utility.yul\":5015:5132   */\n      pop\n        /* \"#utility.yul\":5171:5173   */\n      0x20\n        /* \"#utility.yul\":5197:5250   */\n      tag_274\n        /* \"#utility.yul\":5242:5249   */\n      dup6\n        /* \"#utility.yul\":5233:5239   */\n      dup3\n        /* \"#utility.yul\":5222:5231   */\n      dup7\n        /* \"#utility.yul\":5218:5240   */\n      add\n        /* \"#utility.yul\":5197:5250   */\n      tag_183\n      jump\t// in\n    tag_274:\n        /* \"#utility.yul\":5187:5250   */\n      swap2\n      pop\n        /* \"#utility.yul\":5142:5260   */\n      pop\n        /* \"#utility.yul\":4793:5267   */\n      swap3\n      pop\n      swap3\n      swap1\n      pop\n      jump\t// out\n        /* \"#utility.yul\":5273:5453   */\n    tag_193:\n        /* \"#utility.yul\":5321:5398   */\n      0x4e487b7100000000000000000000000000000000000000000000000000000000\n        /* \"#utility.yul\":5318:5319   */\n      0x00\n        /* \"#utility.yul\":5311:5399   */\n      mstore\n        /* \"#utility.yul\":5418:5422   */\n      0x11\n        /* \"#utility.yul\":5415:5416   */\n      0x04\n        /* \"#utility.yul\":5408:5423   */\n      mstore\n        /* \"#utility.yul\":5442:5446   */\n      0x24\n        /* \"#utility.yul\":5439:5440   */\n      0x00\n        /* \"#utility.yul\":5432:5447   */\n      revert\n        /* \"#utility.yul\":5459:5536   */\n    tag_194:\n        /* \"#utility.yul\":5496:5503   */\n      0x00\n        /* \"#utility.yul\":5525:5530   */\n      dup2\n        /* \"#utility.yul\":5514:5530   */\n      swap1\n      pop\n        /* \"#utility.yul\":5459:5536   */\n      swap2\n      swap1\n      pop\n      jump\t// out\n        /* \"#utility.yul\":5542:5775   */\n    tag_68:\n        /* \"#utility.yul\":5581:5584   */\n      0x00\n        /* \"#utility.yul\":5604:5628   */\n      tag_278\n        /* \"#utility.yul\":5622:5627   */\n      dup3\n        /* \"#utility.yul\":5604:5628   */\n      tag_194\n      jump\t// in\n    tag_278:\n        /* \"#utility.yul\":5595:5628   */\n      swap2\n      pop\n        /* \"#utility.yul\":5650:5716   */\n      0xffffffffffffffffffffffffffffffffffffffffffffffffffffffffffffffff\n        /* \"#utility.yul\":5643:5648   */\n      dup3\n        /* \"#utility.yul\":5640:5717   */\n      sub\n        /* \"#utility.yul\":5637:5740   */\n      tag_279\n      jumpi\n        /* \"#utility.yul\":5720:5738   */\n      tag_280\n      tag_193\n      jump\t// in\n    tag_280:\n        /* \"#utility.yul\":5637:5740   */\n    tag_279:\n        /* \"#utility.yul\":5767:5768   */\n      0x01\n        /* \"#utility.yul\":5760:5765   */\n      dup3\n        /* \"#utility.yul\":5756:5769   */\n      add\n        /* \"#utility.yul\":5749:5769   */\n      swap1\n      pop\n        /* \"#utility.yul\":5542:5775   */\n      swap2\n      swap1\n      pop\n      jump\t// out\n        /* \"#utility.yul\":5781:5961   */\n    tag_195:\n        /* \"#utility.yul\":5829:5906   */\n      0x4e487b7100000000000000000000000000000000000000000000000000000000\n        /* \"#utility.yul\":5826:5827   */\n      0x00\n        /* \"#utility.yul\":5819:5907   */\n      mstore\n        /* \"#utility.yul\":5926:5930   */\n      0x22\n        /* \"#utility.yul\":5923:5924   */\n      0x04\n        /* \"#utility.yul\":5916:5931   */\n      mstore\n        /* \"#utility.yul\":5950:5954   */\n      0x24\n        /* \"#utility.yul\":5947:5948   */\n      0x00\n        /* \"#utility.yul\":5940:5955   */\n      revert\n        /* \"#utility.yul\":5967:6287   */\n    tag_79:\n        /* \"#utility.yul\":6011:6017   */\n      0x00\n        /* \"#utility.yul\":6048:6049   */\n      0x02\n        /* \"#utility.yul\":6042:6046   */\n      dup3\n        /* \"#utility.yul\":6038:6050   */\n      div\n        /* \"#utility.yul\":6028:6050   */\n      swap1\n      pop\n        /* \"#utility.yul\":6095:6096   */\n      0x01\n        /* \"#utility.yul\":6089:6093   */\n      dup3\n        /* \"#utility.yul\":6085:6097   */\n      and\n        /* \"#utility.yul\":6116:6134   */\n      dup1\n        /* \"#utility.yul\":6106:6187   */\n      tag_283\n      jumpi\n        /* \"#utility.yul\":6172:6176   */\n      0x7f\n        /* \"#utility.yul\":6164:6170   */\n      dup3\n        /* \"#utility.yul\":6160:6177   */\n      and\n        /* \"#utility.yul\":6150:6177   */\n      swap2\n      pop\n        /* \"#utility.yul\":6106:6187   */\n    tag_283:\n        /* \"#utility.yul\":6234:6236   */\n      0x20\n        /* \"#utility.yul\":6226:6232   */\n      dup3\n        /* \"#utility.yul\":6223:6237   */\n      lt\n        /* \"#utility.yul\":6203:6221   */\n      dup2\n        /* \"#utility.yul\":6200:6238   */\n      sub\n        /* \"#utility.yul\":6197:6281   */\n      tag_284\n      jumpi\n        /* \"#utility.yul\":6253:6271   */\n      tag_285\n      tag_195\n      jump\t// in\n    tag_285:\n        /* \"#utility.yul\":6197:6281   */\n    tag_284:\n        /* \"#utility.yul\":6018:6287   */\n      pop\n        /* \"#utility.yul\":5967:6287   */\n      swap2\n      swap1\n      pop\n      jump\t// out\n        /* \"#utility.yul\":6293:6440   */\n    tag_196:\n        /* \"#utility.yul\":6394:6405   */\n      0x00\n        /* \"#utility.yul\":6431:6434   */\n      dup2\n        /* \"#utility.yul\":6416:6434   */\n      swap1\n      pop\n        /* \"#utility.yul\":6293:6440   */\n      swap3\n      swap2\n      pop\n      pop\n      jump\t// out\n        /* \"#utility.yul\":6446:6590   */\n    tag_197:\n        /* \"#utility.yul\":6498:6502   */\n      0x00\n        /* \"#utility.yul\":6521:6524   */\n      dup2\n        /* \"#utility.yul\":6513:6524   */\n      swap1\n      pop\n        /* \"#utility.yul\":6544:6547   */\n      dup2\n        /* \"#utility.yul\":6541:6542   */\n      0x00\n        /* \"#utility.yul\":6534:6548   */\n      mstore\n        /* \"#utility.yul\":6578:6582   */\n      0x20\n        /* \"#utility.yul\":6575:6576   */\n      0x00\n        /* \"#utility.yul\":6565:6583   */\n      keccak256\n        /* \"#utility.yul\":6557:6583   */\n      swap1\n      pop\n        /* \"#utility.yul\":6446:6590   */\n      swap2\n      swap1\n      pop\n      jump\t// out\n        /* \"#utility.yul\":6618:7467   */\n    tag_198:\n        /* \"#utility.yul\":6723:6726   */\n      0x00\n        /* \"#utility.yul\":6760:6765   */\n      dup2\n        /* \"#utility.yul\":6754:6766   */\n      sload\n        /* \"#utility.yul\":6789:6825   */\n      tag_289\n        /* \"#utility.yul\":6815:6824   */\n      dup2\n        /* \"#utility.yul\":6789:6825   */\n      tag_79\n      jump\t// in\n    tag_289:\n        /* \"#utility.yul\":6841:6929   */\n      tag_290\n        /* \"#utility.yul\":6922:6928   */\n      dup2\n        /* \"#utility.yul\":6917:6920   */\n      dup7\n        /* \"#utility.yul\":6841:6929   */\n      tag_196\n      jump\t// in\n    tag_290:\n        /* \"#utility.yul\":6834:6929   */\n      swap5\n      pop\n        /* \"#utility.yul\":6960:6961   */\n      0x01\n        /* \"#utility.yul\":6949:6958   */\n      dup3\n        /* \"#utility.yul\":6945:6962   */\n      and\n        /* \"#utility.yul\":6976:6977   */\n      0x00\n        /* \"#utility.yul\":6971:7108   */\n      dup2\n      eq\n      tag_292\n      jumpi\n        /* \"#utility.yul\":7122:7123   */\n      0x01\n        /* \"#utility.yul\":7117:7461   */\n      dup2\n      eq\n      tag_293\n      jumpi\n        /* \"#utility.yul\":6938:7461   */\n      jump(tag_291)\n        /* \"#utility.yul\":6971:7108   */\n    tag_292:\n        /* \"#utility.yul\":7055:7059   */\n      0xff\n        /* \"#utility.yul\":7051:7060   */\n      not\n        /* \"#utility.yul\":7040:7049   */\n      dup4\n        /* \"#utility.yul\":7036:7061   */\n      and\n        /* \"#utility.yul\":7031:7034   */\n      dup7\n        /* \"#utility.yul\":7024:7062   */\n      mstore\n        /* \"#utility.yul\":7091:7097   */\n      dup2\n        /* \"#utility.yul\":7086:7089   */\n      dup7\n        /* \"#utility.yul\":7082:7098   */\n      add\n        /* \"#utility.yul\":7075:7098   */\n      swap4\n      pop\n        /* \"#utility.yul\":6971:7108   */\n      jump(tag_291)\n        /* \"#utility.yul\":7117:7461   */\n    tag_293:\n        /* \"#utility.yul\":7184:7225   */\n      tag_294\n        /* \"#utility.yul\":7219:7224   */\n      dup6\n        /* \"#utility.yul\":7184:7225   */\n      tag_197\n      jump\t// in\n    tag_294:\n        /* \"#utility.yul\":7247:7248   */\n      0x00\n        /* \"#utility.yul\":7261:7415   */\n    tag_295:\n        /* \"#utility.yul\":7275:7281   */\n      dup4\n        /* \"#utility.yul\":7272:7273   */\n      dup2\n        /* \"#utility.yul\":7269:7282   */\n      lt\n        /* \"#utility.yul\":7261:7415   */\n      iszero\n      tag_297\n      jumpi\n        /* \"#utility.yul\":7349:7356   */\n      dup2\n        /* \"#utility.yul\":7343:7357   */\n      sload\n        /* \"#utility.yul\":7339:7340   */\n      dup2\n        /* \"#utility.yul\":7334:7337   */\n      dup10\n        /* \"#utility.yul\":7330:7341   */\n      add\n        /* \"#utility.yul\":7323:7358   */\n      mstore\n        /* \"#utility.yul\":7399:7400   */\n      0x01\n        /* \"#utility.yul\":7390:7397   */\n      dup3\n        /* \"#utility.yul\":7386:7401   */\n      add\n        /* \"#utility.yul\":7375:7401   */\n      swap2\n      pop\n        /* \"#utility.yul\":7297:7301   */\n      0x20\n        /* \"#utility.yul\":7294:7295   */\n      dup2\n        /* \"#utility.yul\":7290:7302   */\n      add\n        /* \"#utility.yul\":7285:7302   */\n      swap1\n      pop\n        /* \"#utility.yul\":7261:7415   */\n      jump(tag_295)\n    tag_297:\n        /* \"#utility.yul\":7444:7450   */\n      dup4\n        /* \"#utility.yul\":7439:7442   */\n      dup9\n        /* \"#utility.yul\":7435:7451   */\n      add\n        /* \"#utility.yul\":7428:7451   */\n      swap6\n      pop\n        /* \"#utility.yul\":7124:7461   */\n      pop\n      pop\n        /* \"#utility.yul\":6938:7461   */\n    tag_291:\n      pop\n        /* \"#utility.yul\":6727:7467   */\n      pop\n      pop\n        /* \"#utility.yul\":6618:7467   */\n      swap3\n      swap2\n      pop\n      pop\n      jump\t// out\n        /* \"#utility.yul\":7473:7651   */\n    tag_199:\n        /* \"#utility.yul\":7641:7644   */\n      0x7400000000000000000000000000000000000000000000000000000000000000\n        /* \"#utility.yul\":7636:7639   */\n      dup2\n        /* \"#utility.yul\":7629:7645   */\n      mstore\n        /* \"#utility.yul\":7473:7651   */\n      pop\n      jump\t// out\n        /* \"#utility.yul\":7657:8194   */\n    tag_73:\n        /* \"#utility.yul\":7878:7881   */\n      0x00\n        /* \"#utility.yul\":7900:7994   */\n      tag_300\n        /* \"#utility.yul\":7990:7993   */\n      dup3\n        /* \"#utility.yul\":7981:7987   */\n      dup5\n        /* \"#utility.yul\":7900:7994   */\n      tag_198\n      jump\t// in\n    tag_300:\n        /* \"#utility.yul\":7893:7994   */\n      swap2\n      pop\n        /* \"#utility.yul\":8004:8141   */\n      tag_301\n        /* \"#utility.yul\":8137:8140   */\n      dup3\n        /* \"#utility.yul\":8004:8141   */\n      tag_199\n      jump\t// in\n    tag_301:\n        /* \"#utility.yul\":8166:8167   */\n      0x01\n        /* \"#utility.yul\":8161:8164   */\n      dup3\n        /* \"#utility.yul\":8157:8168   */\n      add\n        /* \"#utility.yul\":8150:8168   */\n      swap2\n      pop\n        /* \"#utility.yul\":8185:8188   */\n      dup2\n        /* \"#utility.yul\":8178:8188   */\n      swap1\n      pop\n        /* \"#utility.yul\":7657:8194   */\n      swap3\n      swap2\n      pop\n      pop\n      jump\t// out\n        /* \"#utility.yul\":8200:8434   */\n    tag_200:\n        /* \"#utility.yul\":8340:8374   */\n      0x416363657373436f6e74726f6c3a2063616e206f6e6c792072656e6f756e6365\n        /* \"#utility.yul\":8336:8337   */\n      0x00\n        /* \"#utility.yul\":8328:8334   */\n      dup3\n        /* \"#utility.yul\":8324:8338   */\n      add\n        /* \"#utility.yul\":8317:8375   */\n      mstore\n        /* \"#utility.yul\":8409:8426   */\n      0x20726f6c657320666f722073656c660000000000000000000000000000000000\n        /* \"#utility.yul\":8404:8406   */\n      0x20\n        /* \"#utility.yul\":8396:8402   */\n      dup3\n        /* \"#utility.yul\":8392:8407   */\n      add\n        /* \"#utility.yul\":8385:8427   */\n      mstore\n        /* \"#utility.yul\":8200:8434   */\n      pop\n      jump\t// out\n        /* \"#utility.yul\":8440:8806   */\n    tag_201:\n        /* \"#utility.yul\":8582:8585   */\n      0x00\n        /* \"#utility.yul\":8603:8670   */\n      tag_304\n        /* \"#utility.yul\":8667:8669   */\n      0x2f\n        /* \"#utility.yul\":8662:8665   */\n      dup4\n        /* \"#utility.yul\":8603:8670   */\n      tag_185\n      jump\t// in\n    tag_304:\n        /* \"#utility.yul\":8596:8670   */\n      swap2\n      pop\n        /* \"#utility.yul\":8679:8772   */\n      tag_305\n        /* \"#utility.yul\":8768:8771   */\n      dup3\n        /* \"#utility.yul\":8679:8772   */\n      tag_200\n      jump\t// in\n    tag_305:\n        /* \"#utility.yul\":8797:8799   */\n      0x40\n        /* \"#utility.yul\":8792:8795   */\n      dup3\n        /* \"#utility.yul\":8788:8800   */\n      add\n        /* \"#utility.yul\":8781:8800   */\n      swap1\n      pop\n        /* \"#utility.yul\":8440:8806   */\n      swap2\n      swap1\n      pop\n      jump\t// out\n        /* \"#utility.yul\":8812:9231   */\n    tag_98:\n        /* \"#utility.yul\":8978:8982   */\n      0x00\n        /* \"#utility.yul\":9016:9018   */\n      0x20\n        /* \"#utility.yul\":9005:9014   */\n      dup3\n        /* \"#utility.yul\":9001:9019   */\n      add\n        /* \"#utility.yul\":8993:9019   */\n      swap1\n      pop\n        /* \"#utility.yul\":9065:9074   */\n      dup2\n        /* \"#utility.yul\":9059:9063   */\n      dup2\n        /* \"#utility.yul\":9055:9075   */\n      sub\n        /* \"#utility.yul\":9051:9052   */\n      0x00\n        /* \"#utility.yul\":9040:9049   */\n      dup4\n        /* \"#utility.yul\":9036:9053   */\n      add\n        /* \"#utility.yul\":9029:9076   */\n      mstore\n        /* \"#utility.yul\":9093:9224   */\n      tag_307\n        /* \"#utility.yul\":9219:9223   */\n      dup2\n        /* \"#utility.yul\":9093:9224   */\n      tag_201\n      jump\t// in\n    tag_307:\n        /* \"#utility.yul\":9085:9224   */\n      swap1\n      pop\n        /* \"#utility.yul\":8812:9231   */\n      swap2\n      swap1\n      pop\n      jump\t// out\n        /* \"#utility.yul\":9237:9385   */\n    tag_202:\n        /* \"#utility.yul\":9339:9350   */\n      0x00\n        /* \"#utility.yul\":9376:9379   */\n      dup2\n        /* \"#utility.yul\":9361:9379   */\n      swap1\n      pop\n        /* \"#utility.yul\":9237:9385   */\n      swap3\n      swap2\n      pop\n      pop\n      jump\t// out\n        /* \"#utility.yul\":9391:9564   */\n    tag_203:\n        /* \"#utility.yul\":9531:9556   */\n      0x416363657373436f6e74726f6c3a206163636f756e7420000000000000000000\n        /* \"#utility.yul\":9527:9528   */\n      0x00\n        /* \"#utility.yul\":9519:9525   */\n      dup3\n        /* \"#utility.yul\":9515:9529   */\n      add\n        /* \"#utility.yul\":9508:9557   */\n      mstore\n        /* \"#utility.yul\":9391:9564   */\n      pop\n      jump\t// out\n        /* \"#utility.yul\":9570:9972   */\n    tag_204:\n        /* \"#utility.yul\":9730:9733   */\n      0x00\n        /* \"#utility.yul\":9751:9836   */\n      tag_311\n        /* \"#utility.yul\":9833:9835   */\n      0x17\n        /* \"#utility.yul\":9828:9831   */\n      dup4\n        /* \"#utility.yul\":9751:9836   */\n      tag_202\n      jump\t// in\n    tag_311:\n        /* \"#utility.yul\":9744:9836   */\n      swap2\n      pop\n        /* \"#utility.yul\":9845:9938   */\n      tag_312\n        /* \"#utility.yul\":9934:9937   */\n      dup3\n        /* \"#utility.yul\":9845:9938   */\n      tag_203\n      jump\t// in\n    tag_312:\n        /* \"#utility.yul\":9963:9965   */\n      0x17\n        /* \"#utility.yul\":9958:9961   */\n      dup3\n        /* \"#utility.yul\":9954:9966   */\n      add\n        /* \"#utility.yul\":9947:9966   */\n      swap1\n      pop\n        /* \"#utility.yul\":9570:9972   */\n      swap2\n      swap1\n      pop\n      jump\t// out\n        /* \"#utility.yul\":9978:10355   */\n    tag_205:\n        /* \"#utility.yul\":10084:10087   */\n      0x00\n        /* \"#utility.yul\":10112:10151   */\n      tag_314\n        /* \"#utility.yul\":10145:10150   */\n      dup3\n        /* \"#utility.yul\":10112:10151   */\n      tag_184\n      jump\t// in\n    tag_314:\n        /* \"#utility.yul\":10167:10256   */\n      tag_315\n        /* \"#utility.yul\":10249:10255   */\n      dup2\n        /* \"#utility.yul\":10244:10247   */\n      dup6\n        /* \"#utility.yul\":10167:10256   */\n      tag_202\n      jump\t// in\n    tag_315:\n        /* \"#utility.yul\":10160:10256   */\n      swap4\n      pop\n        /* \"#utility.yul\":10265:10317   */\n      tag_316\n        /* \"#utility.yul\":10310:10316   */\n      dup2\n        /* \"#utility.yul\":10305:10308   */\n      dup6\n        /* \"#utility.yul\":10298:10302   */\n      0x20\n        /* \"#utility.yul\":10291:10296   */\n      dup7\n        /* \"#utility.yul\":10287:10303   */\n      add\n        /* \"#utility.yul\":10265:10317   */\n      tag_186\n      jump\t// in\n    tag_316:\n        /* \"#utility.yul\":10342:10348   */\n      dup1\n        /* \"#utility.yul\":10337:10340   */\n      dup5\n        /* \"#utility.yul\":10333:10349   */\n      add\n        /* \"#utility.yul\":10326:10349   */\n      swap2\n      pop\n        /* \"#utility.yul\":10088:10355   */\n      pop\n        /* \"#utility.yul\":9978:10355   */\n      swap3\n      swap2\n      pop\n      pop\n      jump\t// out\n        /* \"#utility.yul\":10361:10528   */\n    tag_206:\n        /* \"#utility.yul\":10501:10520   */\n      0x206973206d697373696e6720726f6c6520000000000000000000000000000000\n        /* \"#utility.yul\":10497:10498   */\n      0x00\n        /* \"#utility.yul\":10489:10495   */\n      dup3\n        /* \"#utility.yul\":10485:10499   */\n      add\n        /* \"#utility.yul\":10478:10521   */\n      mstore\n        /* \"#utility.yul\":10361:10528   */\n      pop\n      jump\t// out\n        /* \"#utility.yul\":10534:10936   */\n    tag_207:\n        /* \"#utility.yul\":10694:10697   */\n      0x00\n        /* \"#utility.yul\":10715:10800   */\n      tag_319\n        /* \"#utility.yul\":10797:10799   */\n      0x11\n        /* \"#utility.yul\":10792:10795   */\n      dup4\n        /* \"#utility.yul\":10715:10800   */\n      tag_202\n      jump\t// in\n    tag_319:\n        /* \"#utility.yul\":10708:10800   */\n      swap2\n      pop\n        /* \"#utility.yul\":10809:10902   */\n      tag_320\n        /* \"#utility.yul\":10898:10901   */\n      dup3\n        /* \"#utility.yul\":10809:10902   */\n      tag_206\n      jump\t// in\n    tag_320:\n        /* \"#utility.yul\":10927:10929   */\n      0x11\n        /* \"#utility.yul\":10922:10925   */\n      dup3\n        /* \"#utility.yul\":10918:10930   */\n      add\n        /* \"#utility.yul\":10911:10930   */\n      swap1\n      pop\n        /* \"#utility.yul\":10534:10936   */\n      swap2\n      swap1\n      pop\n      jump\t// out\n        /* \"#utility.yul\":10942:11909   */\n    tag_124:\n        /* \"#utility.yul\":11324:11327   */\n      0x00\n        /* \"#utility.yul\":11346:11494   */\n      tag_322\n        /* \"#utility.yul\":11490:11493   */\n      dup3\n        /* \"#utility.yul\":11346:11494   */\n      tag_204\n      jump\t// in\n    tag_322:\n        /* \"#utility.yul\":11339:11494   */\n      swap2\n      pop\n        /* \"#utility.yul\":11511:11606   */\n      tag_323\n        /* \"#utility.yul\":11602:11605   */\n      dup3\n        /* \"#utility.yul\":11593:11599   */\n      dup6\n        /* \"#utility.yul\":11511:11606   */\n      tag_205\n      jump\t// in\n    tag_323:\n        /* \"#utility.yul\":11504:11606   */\n      swap2\n      pop\n        /* \"#utility.yul\":11623:11771   */\n      tag_324\n        /* \"#utility.yul\":11767:11770   */\n      dup3\n        /* \"#utility.yul\":11623:11771   */\n      tag_207\n      jump\t// in\n    tag_324:\n        /* \"#utility.yul\":11616:11771   */\n      swap2\n      pop\n        /* \"#utility.yul\":11788:11883   */\n      tag_325\n        /* \"#utility.yul\":11879:11882   */\n      dup3\n        /* \"#utility.yul\":11870:11876   */\n      dup5\n        /* \"#utility.yul\":11788:11883   */\n      tag_205\n      jump\t// in\n    tag_325:\n        /* \"#utility.yul\":11781:11883   */\n      swap2\n      pop\n        /* \"#utility.yul\":11900:11903   */\n      dup2\n        /* \"#utility.yul\":11893:11903   */\n      swap1\n      pop\n        /* \"#utility.yul\":10942:11909   */\n      swap4\n      swap3\n      pop\n      pop\n      pop\n      jump\t// out\n        /* \"#utility.yul\":11915:12263   */\n    tag_136:\n        /* \"#utility.yul\":11955:11962   */\n      0x00\n        /* \"#utility.yul\":11978:11998   */\n      tag_327\n        /* \"#utility.yul\":11996:11997   */\n      dup3\n        /* \"#utility.yul\":11978:11998   */\n      tag_194\n      jump\t// in\n    tag_327:\n        /* \"#utility.yul\":11973:11998   */\n      swap2\n      pop\n        /* \"#utility.yul\":12012:12032   */\n      tag_328\n        /* \"#utility.yul\":12030:12031   */\n      dup4\n        /* \"#utility.yul\":12012:12032   */\n      tag_194\n      jump\t// in\n    tag_328:\n        /* \"#utility.yul\":12007:12032   */\n      swap3\n      pop\n        /* \"#utility.yul\":12200:12201   */\n      dup2\n        /* \"#utility.yul\":12132:12198   */\n      0xffffffffffffffffffffffffffffffffffffffffffffffffffffffffffffffff\n        /* \"#utility.yul\":12128:12202   */\n      div\n        /* \"#utility.yul\":12125:12126   */\n      dup4\n        /* \"#utility.yul\":12122:12203   */\n      gt\n        /* \"#utility.yul\":12117:12118   */\n      dup3\n        /* \"#utility.yul\":12110:12119   */\n      iszero\n        /* \"#utility.yul\":12103:12120   */\n      iszero\n        /* \"#utility.yul\":12099:12204   */\n      and\n        /* \"#utility.yul\":12096:12227   */\n      iszero\n      tag_329\n      jumpi\n        /* \"#utility.yul\":12207:12225   */\n      tag_330\n      tag_193\n      jump\t// in\n    tag_330:\n        /* \"#utility.yul\":12096:12227   */\n    tag_329:\n        /* \"#utility.yul\":12255:12256   */\n      dup3\n        /* \"#utility.yul\":12252:12253   */\n      dup3\n        /* \"#utility.yul\":12248:12257   */\n      mul\n        /* \"#utility.yul\":12237:12257   */\n      swap1\n      pop\n        /* \"#utility.yul\":11915:12263   */\n      swap3\n      swap2\n      pop\n      pop\n      jump\t// out\n        /* \"#utility.yul\":12269:12574   */\n    tag_138:\n        /* \"#utility.yul\":12309:12312   */\n      0x00\n        /* \"#utility.yul\":12328:12348   */\n      tag_332\n        /* \"#utility.yul\":12346:12347   */\n      dup3\n        /* \"#utility.yul\":12328:12348   */\n      tag_194\n      jump\t// in\n    tag_332:\n        /* \"#utility.yul\":12323:12348   */\n      swap2\n      pop\n        /* \"#utility.yul\":12362:12382   */\n      tag_333\n        /* \"#utility.yul\":12380:12381   */\n      dup4\n        /* \"#utility.yul\":12362:12382   */\n      tag_194\n      jump\t// in\n    tag_333:\n        /* \"#utility.yul\":12357:12382   */\n      swap3\n      pop\n        /* \"#utility.yul\":12516:12517   */\n      dup3\n        /* \"#utility.yul\":12448:12514   */\n      0xffffffffffffffffffffffffffffffffffffffffffffffffffffffffffffffff\n        /* \"#utility.yul\":12444:12518   */\n      sub\n        /* \"#utility.yul\":12441:12442   */\n      dup3\n        /* \"#utility.yul\":12438:12519   */\n      gt\n        /* \"#utility.yul\":12435:12542   */\n      iszero\n      tag_334\n      jumpi\n        /* \"#utility.yul\":12522:12540   */\n      tag_335\n      tag_193\n      jump\t// in\n    tag_335:\n        /* \"#utility.yul\":12435:12542   */\n    tag_334:\n        /* \"#utility.yul\":12566:12567   */\n      dup3\n        /* \"#utility.yul\":12563:12564   */\n      dup3\n        /* \"#utility.yul\":12559:12568   */\n      add\n        /* \"#utility.yul\":12552:12568   */\n      swap1\n      pop\n        /* \"#utility.yul\":12269:12574   */\n      swap3\n      swap2\n      pop\n      pop\n      jump\t// out\n        /* \"#utility.yul\":12580:12760   */\n    tag_141:\n        /* \"#utility.yul\":12628:12705   */\n      0x4e487b7100000000000000000000000000000000000000000000000000000000\n        /* \"#utility.yul\":12625:12626   */\n      0x00\n        /* \"#utility.yul\":12618:12706   */\n      mstore\n        /* \"#utility.yul\":12725:12729   */\n      0x41\n        /* \"#utility.yul\":12722:12723   */\n      0x04\n        /* \"#utility.yul\":12715:12730   */\n      mstore\n        /* \"#utility.yul\":12749:12753   */\n      0x24\n        /* \"#utility.yul\":12746:12747   */\n      0x00\n        /* \"#utility.yul\":12739:12754   */\n      revert\n        /* \"#utility.yul\":12766:12946   */\n    tag_145:\n        /* \"#utility.yul\":12814:12891   */\n      0x4e487b7100000000000000000000000000000000000000000000000000000000\n        /* \"#utility.yul\":12811:12812   */\n      0x00\n        /* \"#utility.yul\":12804:12892   */\n      mstore\n        /* \"#utility.yul\":12911:12915   */\n      0x32\n        /* \"#utility.yul\":12908:12909   */\n      0x04\n        /* \"#utility.yul\":12901:12916   */\n      mstore\n        /* \"#utility.yul\":12935:12939   */\n      0x24\n        /* \"#utility.yul\":12932:12933   */\n      0x00\n        /* \"#utility.yul\":12925:12940   */\n      revert\n        /* \"#utility.yul\":12952:13123   */\n    tag_158:\n        /* \"#utility.yul\":12991:12994   */\n      0x00\n        /* \"#utility.yul\":13014:13038   */\n      tag_339\n        /* \"#utility.yul\":13032:13037   */\n      dup3\n        /* \"#utility.yul\":13014:13038   */\n      tag_194\n      jump\t// in\n    tag_339:\n        /* \"#utility.yul\":13005:13038   */\n      swap2\n      pop\n        /* \"#utility.yul\":13060:13064   */\n      0x00\n        /* \"#utility.yul\":13053:13058   */\n      dup3\n        /* \"#utility.yul\":13050:13065   */\n      sub\n        /* \"#utility.yul\":13047:13088   */\n      tag_340\n      jumpi\n        /* \"#utility.yul\":13068:13086   */\n      tag_341\n      tag_193\n      jump\t// in\n    tag_341:\n        /* \"#utility.yul\":13047:13088   */\n    tag_340:\n        /* \"#utility.yul\":13115:13116   */\n      0x01\n        /* \"#utility.yul\":13108:13113   */\n      dup3\n        /* \"#utility.yul\":13104:13117   */\n      sub\n        /* \"#utility.yul\":13097:13117   */\n      swap1\n      pop\n        /* \"#utility.yul\":12952:13123   */\n      swap2\n      swap1\n      pop\n      jump\t// out\n        /* \"#utility.yul\":13129:13311   */\n    tag_208:\n        /* \"#utility.yul\":13269:13303   */\n      0x537472696e67733a20686578206c656e67746820696e73756666696369656e74\n        /* \"#utility.yul\":13265:13266   */\n      0x00\n        /* \"#utility.yul\":13257:13263   */\n      dup3\n        /* \"#utility.yul\":13253:13267   */\n      add\n        /* \"#utility.yul\":13246:13304   */\n      mstore\n        /* \"#utility.yul\":13129:13311   */\n      pop\n      jump\t// out\n        /* \"#utility.yul\":13317:13683   */\n    tag_209:\n        /* \"#utility.yul\":13459:13462   */\n      0x00\n        /* \"#utility.yul\":13480:13547   */\n      tag_344\n        /* \"#utility.yul\":13544:13546   */\n      0x20\n        /* \"#utility.yul\":13539:13542   */\n      dup4\n        /* \"#utility.yul\":13480:13547   */\n      tag_185\n      jump\t// in\n    tag_344:\n        /* \"#utility.yul\":13473:13547   */\n      swap2\n      pop\n        /* \"#utility.yul\":13556:13649   */\n      tag_345\n        /* \"#utility.yul\":13645:13648   */\n      dup3\n        /* \"#utility.yul\":13556:13649   */\n      tag_208\n      jump\t// in\n    tag_345:\n        /* \"#utility.yul\":13674:13676   */\n      0x20\n        /* \"#utility.yul\":13669:13672   */\n      dup3\n        /* \"#utility.yul\":13665:13677   */\n      add\n        /* \"#utility.yul\":13658:13677   */\n      swap1\n      pop\n        /* \"#utility.yul\":13317:13683   */\n      swap2\n      swap1\n      pop\n      jump\t// out\n        /* \"#utility.yul\":13689:14108   */\n    tag_161:\n        /* \"#utility.yul\":13855:13859   */\n      0x00\n        /* \"#utility.yul\":13893:13895   */\n      0x20\n        /* \"#utility.yul\":13882:13891   */\n      dup3\n        /* \"#utility.yul\":13878:13896   */\n      add\n        /* \"#utility.yul\":13870:13896   */\n      swap1\n      pop\n        /* \"#utility.yul\":13942:13951   */\n      dup2\n        /* \"#utility.yul\":13936:13940   */\n      dup2\n        /* \"#utility.yul\":13932:13952   */\n      sub\n        /* \"#utility.yul\":13928:13929   */\n      0x00\n        /* \"#utility.yul\":13917:13926   */\n      dup4\n        /* \"#utility.yul\":13913:13930   */\n      add\n        /* \"#utility.yul\":13906:13953   */\n      mstore\n        /* \"#utility.yul\":13970:14101   */\n      tag_347\n        /* \"#utility.yul\":14096:14100   */\n      dup2\n        /* \"#utility.yul\":13970:14101   */\n      tag_209\n      jump\t// in\n    tag_347:\n        /* \"#utility.yul\":13962:14101   */\n      swap1\n      pop\n        /* \"#utility.yul\":13689:14108   */\n      swap2\n      swap1\n      pop\n      jump\t// out\n\n    auxdata: 0xa26469706673582212208f98952e89a3542a693fa83203bbe2f65ff22c4401f1399d5d860aca877c401c64736f6c634300080d0033\n}\n",
				"bytecode": {
					"linkReferences": {},
					"object": "6080604052600060015560405180602001604052806000815250600390805190602001906200003092919062000045565b503480156200003e57600080fd5b5062000159565b828054620000539062000124565b90600052602060002090601f016020900481019282620000775760008555620000c3565b82601f106200009257805160ff1916838001178555620000c3565b82800160010185558215620000c3579182015b82811115620000c2578251825591602001919060010190620000a5565b5b509050620000d29190620000d6565b5090565b5b80821115620000f1576000816000905550600101620000d7565b5090565b7f4e487b7100000000000000000000000000000000000000000000000000000000600052602260045260246000fd5b600060028204905060018216806200013d57607f821691505b602082108103620001535762000152620000f5565b5b50919050565b61143080620001696000396000f3fe608060405234801561001057600080fd5b50600436106100b45760003560e01c806352efea6e1161007157806352efea6e1461019f578063578a34ce146101a957806391d14854146101c7578063a217fddf146101f7578063d547741f14610215578063e9c2651814610231576100b4565b806301ffc9a7146100b95780630a3b0a4f146100e957806313bdfacd14610119578063248a9ca3146101375780632f2ff15d1461016757806336568abe14610183575b600080fd5b6100d360048036038101906100ce9190610c75565b61024f565b6040516100e09190610cbd565b60405180910390f35b61010360048036038101906100fe9190610d36565b6102c9565b6040516101109190610dfc565b60405180910390f35b610121610398565b60405161012e9190610dfc565b60405180910390f35b610151600480360381019061014c9190610e54565b61042a565b60405161015e9190610e90565b60405180910390f35b610181600480360381019061017c9190610eab565b610449565b005b61019d60048036038101906101989190610eab565b610472565b005b6101a76104f5565b005b6101b161051d565b6040516101be9190610dfc565b60405180910390f35b6101e160048036038101906101dc9190610eab565b6105ab565b6040516101ee9190610cbd565b60405180910390f35b6101ff610615565b60405161020c9190610e90565b60405180910390f35b61022f600480360381019061022a9190610eab565b61061c565b005b610239610645565b6040516102469190610e90565b60405180910390f35b60007f7965db0b000000000000000000000000000000000000000000000000000000007bffffffffffffffffffffffffffffffffffffffffffffffffffffffff1916827bffffffffffffffffffffffffffffffffffffffffffffffffffffffff191614806102c257506102c182610669565b5b9050919050565b60606000600260008473ffffffffffffffffffffffffffffffffffffffff1673ffffffffffffffffffffffffffffffffffffffff16815260200190815260200160002060006101000a81548160ff0219169083151502179055506001600081548092919061033690610f24565b919050555060005b60015481101561039257600360405160200161035a9190611091565b6040516020818303038152906040526003908051906020019061037e929190610b75565b50808061038a90610f24565b91505061033e565b50919050565b6060600380546103a790610f9b565b80601f01602080910402602001604051908101604052809291908181526020018280546103d390610f9b565b80156104205780601f106103f557610100808354040283529160200191610420565b820191906000526020600020905b81548152906001019060200180831161040357829003601f168201915b5050505050905090565b6000806000838152602001908152602001600020600101549050919050565b6104528261042a565b6104638161045e6106d3565b6106db565b61046d8383610778565b505050565b61047a6106d3565b73ffffffffffffffffffffffffffffffffffffffff168173ffffffffffffffffffffffffffffffffffffffff16146104e7576040517f08c379a00000000000000000000000000000000000000000000000000000000081526004016104de90611129565b60405180910390fd5b6104f18282610858565b5050565b604051806020016040528060008152506003908051906020019061051a929190610b75565b50565b6003805461052a90610f9b565b80601f016020809104026020016040519081016040528092919081815260200182805461055690610f9b565b80156105a35780601f10610578576101008083540402835291602001916105a3565b820191906000526020600020905b81548152906001019060200180831161058657829003601f168201915b505050505081565b600080600084815260200190815260200160002060000160008373ffffffffffffffffffffffffffffffffffffffff1673ffffffffffffffffffffffffffffffffffffffff16815260200190815260200160002060009054906101000a900460ff16905092915050565b6000801b81565b6106258261042a565b610636816106316106d3565b6106db565b6106408383610858565b505050565b7f3b5d4cc60d3ec3516ee8ae083bd60934f6eb2a6c54b1229985c41bfb092b260381565b60007f01ffc9a7000000000000000000000000000000000000000000000000000000007bffffffffffffffffffffffffffffffffffffffffffffffffffffffff1916827bffffffffffffffffffffffffffffffffffffffffffffffffffffffff1916149050919050565b600033905090565b6106e582826105ab565b6107745761070a8173ffffffffffffffffffffffffffffffffffffffff166014610939565b6107188360001c6020610939565b60405160200161072992919061121d565b6040516020818303038152906040526040517f08c379a000000000000000000000000000000000000000000000000000000000815260040161076b9190610dfc565b60405180910390fd5b5050565b61078282826105ab565b61085457600160008084815260200190815260200160002060000160008373ffffffffffffffffffffffffffffffffffffffff1673ffffffffffffffffffffffffffffffffffffffff16815260200190815260200160002060006101000a81548160ff0219169083151502179055506107f96106d3565b73ffffffffffffffffffffffffffffffffffffffff168173ffffffffffffffffffffffffffffffffffffffff16837f2f8788117e7eff1d82e926ec794901d17c78024a50270940304540a733656f0d60405160405180910390a45b5050565b61086282826105ab565b1561093557600080600084815260200190815260200160002060000160008373ffffffffffffffffffffffffffffffffffffffff1673ffffffffffffffffffffffffffffffffffffffff16815260200190815260200160002060006101000a81548160ff0219169083151502179055506108da6106d3565b73ffffffffffffffffffffffffffffffffffffffff168173ffffffffffffffffffffffffffffffffffffffff16837ff6391f5c32d9c69d2a47ea670b442974b53935d1edc7fd64eb21e047a839171b60405160405180910390a45b5050565b60606000600283600261094c9190611257565b61095691906112b1565b67ffffffffffffffff81111561096f5761096e611307565b5b6040519080825280601f01601f1916602001820160405280156109a15781602001600182028036833780820191505090505b5090507f3000000000000000000000000000000000000000000000000000000000000000816000815181106109d9576109d8611336565b5b60200101907effffffffffffffffffffffffffffffffffffffffffffffffffffffffffffff1916908160001a9053507f780000000000000000000000000000000000000000000000000000000000000081600181518110610a3d57610a3c611336565b5b60200101907effffffffffffffffffffffffffffffffffffffffffffffffffffffffffffff1916908160001a90535060006001846002610a7d9190611257565b610a8791906112b1565b90505b6001811115610b27577f3031323334353637383961626364656600000000000000000000000000000000600f861660108110610ac957610ac8611336565b5b1a60f81b828281518110610ae057610adf611336565b5b60200101907effffffffffffffffffffffffffffffffffffffffffffffffffffffffffffff1916908160001a905350600485901c945080610b2090611365565b9050610a8a565b5060008414610b6b576040517f08c379a0000000000000000000000000000000000000000000000000000000008152600401610b62906113da565b60405180910390fd5b8091505092915050565b828054610b8190610f9b565b90600052602060002090601f016020900481019282610ba35760008555610bea565b82601f10610bbc57805160ff1916838001178555610bea565b82800160010185558215610bea579182015b82811115610be9578251825591602001919060010190610bce565b5b509050610bf79190610bfb565b5090565b5b80821115610c14576000816000905550600101610bfc565b5090565b600080fd5b60007fffffffff0000000000000000000000000000000000000000000000000000000082169050919050565b610c5281610c1d565b8114610c5d57600080fd5b50565b600081359050610c6f81610c49565b92915050565b600060208284031215610c8b57610c8a610c18565b5b6000610c9984828501610c60565b91505092915050565b60008115159050919050565b610cb781610ca2565b82525050565b6000602082019050610cd26000830184610cae565b92915050565b600073ffffffffffffffffffffffffffffffffffffffff82169050919050565b6000610d0382610cd8565b9050919050565b610d1381610cf8565b8114610d1e57600080fd5b50565b600081359050610d3081610d0a565b92915050565b600060208284031215610d4c57610d4b610c18565b5b6000610d5a84828501610d21565b91505092915050565b600081519050919050565b600082825260208201905092915050565b60005b83811015610d9d578082015181840152602081019050610d82565b83811115610dac576000848401525b50505050565b6000601f19601f8301169050919050565b6000610dce82610d63565b610dd88185610d6e565b9350610de8818560208601610d7f565b610df181610db2565b840191505092915050565b60006020820190508181036000830152610e168184610dc3565b905092915050565b6000819050919050565b610e3181610e1e565b8114610e3c57600080fd5b50565b600081359050610e4e81610e28565b92915050565b600060208284031215610e6a57610e69610c18565b5b6000610e7884828501610e3f565b91505092915050565b610e8a81610e1e565b82525050565b6000602082019050610ea56000830184610e81565b92915050565b60008060408385031215610ec257610ec1610c18565b5b6000610ed085828601610e3f565b9250506020610ee185828601610d21565b9150509250929050565b7f4e487b7100000000000000000000000000000000000000000000000000000000600052601160045260246000fd5b6000819050919050565b6000610f2f82610f1a565b91507fffffffffffffffffffffffffffffffffffffffffffffffffffffffffffffffff8203610f6157610f60610eeb565b5b600182019050919050565b7f4e487b7100000000000000000000000000000000000000000000000000000000600052602260045260246000fd5b60006002820490506001821680610fb357607f821691505b602082108103610fc657610fc5610f6c565b5b50919050565b600081905092915050565b60008190508160005260206000209050919050565b60008154610ff981610f9b565b6110038186610fcc565b9450600182166000811461101e576001811461102f57611062565b60ff19831686528186019350611062565b61103885610fd7565b60005b8381101561105a5781548189015260018201915060208101905061103b565b838801955050505b50505092915050565b7f7400000000000000000000000000000000000000000000000000000000000000815250565b600061109d8284610fec565b91506110a88261106b565b60018201915081905092915050565b7f416363657373436f6e74726f6c3a2063616e206f6e6c792072656e6f756e636560008201527f20726f6c657320666f722073656c660000000000000000000000000000000000602082015250565b6000611113602f83610d6e565b915061111e826110b7565b604082019050919050565b6000602082019050818103600083015261114281611106565b9050919050565b600081905092915050565b7f416363657373436f6e74726f6c3a206163636f756e7420000000000000000000600082015250565b600061118a601783611149565b915061119582611154565b601782019050919050565b60006111ab82610d63565b6111b58185611149565b93506111c5818560208601610d7f565b80840191505092915050565b7f206973206d697373696e6720726f6c6520000000000000000000000000000000600082015250565b6000611207601183611149565b9150611212826111d1565b601182019050919050565b60006112288261117d565b915061123482856111a0565b915061123f826111fa565b915061124b82846111a0565b91508190509392505050565b600061126282610f1a565b915061126d83610f1a565b9250817fffffffffffffffffffffffffffffffffffffffffffffffffffffffffffffffff04831182151516156112a6576112a5610eeb565b5b828202905092915050565b60006112bc82610f1a565b91506112c783610f1a565b9250827fffffffffffffffffffffffffffffffffffffffffffffffffffffffffffffffff038211156112fc576112fb610eeb565b5b828201905092915050565b7f4e487b7100000000000000000000000000000000000000000000000000000000600052604160045260246000fd5b7f4e487b7100000000000000000000000000000000000000000000000000000000600052603260045260246000fd5b600061137082610f1a565b91506000820361138357611382610eeb565b5b600182039050919050565b7f537472696e67733a20686578206c656e67746820696e73756666696369656e74600082015250565b60006113c4602083610d6e565b91506113cf8261138e565b602082019050919050565b600060208201905081810360008301526113f3816113b7565b905091905056fea26469706673582212208f98952e89a3542a693fa83203bbe2f65ff22c4401f1399d5d860aca877c401c64736f6c634300080d0033",
					"opcodes": "PUSH1 0x80 PUSH1 0x40 MSTORE PUSH1 0x0 PUSH1 0x1 SSTORE PUSH1 0x40 MLOAD DUP1 PUSH1 0x20 ADD PUSH1 0x40 MSTORE DUP1 PUSH1 0x0 DUP2 MSTORE POP PUSH1 0x3 SWAP1 DUP1 MLOAD SWAP1 PUSH1 0x20 ADD SWAP1 PUSH3 0x30 SWAP3 SWAP2 SWAP1 PUSH3 0x45 JUMP JUMPDEST POP CALLVALUE DUP1 ISZERO PUSH3 0x3E JUMPI PUSH1 0x0 DUP1 REVERT JUMPDEST POP PUSH3 0x159 JUMP JUMPDEST DUP3 DUP1 SLOAD PUSH3 0x53 SWAP1 PUSH3 0x124 JUMP JUMPDEST SWAP1 PUSH1 0x0 MSTORE PUSH1 0x20 PUSH1 0x0 KECCAK256 SWAP1 PUSH1 0x1F ADD PUSH1 0x20 SWAP1 DIV DUP2 ADD SWAP3 DUP3 PUSH3 0x77 JUMPI PUSH1 0x0 DUP6 SSTORE PUSH3 0xC3 JUMP JUMPDEST DUP3 PUSH1 0x1F LT PUSH3 0x92 JUMPI DUP1 MLOAD PUSH1 0xFF NOT AND DUP4 DUP1 ADD OR DUP6 SSTORE PUSH3 0xC3 JUMP JUMPDEST DUP3 DUP1 ADD PUSH1 0x1 ADD DUP6 SSTORE DUP3 ISZERO PUSH3 0xC3 JUMPI SWAP2 DUP3 ADD JUMPDEST DUP3 DUP2 GT ISZERO PUSH3 0xC2 JUMPI DUP3 MLOAD DUP3 SSTORE SWAP2 PUSH1 0x20 ADD SWAP2 SWAP1 PUSH1 0x1 ADD SWAP1 PUSH3 0xA5 JUMP JUMPDEST JUMPDEST POP SWAP1 POP PUSH3 0xD2 SWAP2 SWAP1 PUSH3 0xD6 JUMP JUMPDEST POP SWAP1 JUMP JUMPDEST JUMPDEST DUP1 DUP3 GT ISZERO PUSH3 0xF1 JUMPI PUSH1 0x0 DUP2 PUSH1 0x0 SWAP1 SSTORE POP PUSH1 0x1 ADD PUSH3 0xD7 JUMP JUMPDEST POP SWAP1 JUMP JUMPDEST PUSH32 0x4E487B7100000000000000000000000000000000000000000000000000000000 PUSH1 0x0 MSTORE PUSH1 0x22 PUSH1 0x4 MSTORE PUSH1 0x24 PUSH1 0x0 REVERT JUMPDEST PUSH1 0x0 PUSH1 0x2 DUP3 DIV SWAP1 POP PUSH1 0x1 DUP3 AND DUP1 PUSH3 0x13D JUMPI PUSH1 0x7F DUP3 AND SWAP2 POP JUMPDEST PUSH1 0x20 DUP3 LT DUP2 SUB PUSH3 0x153 JUMPI PUSH3 0x152 PUSH3 0xF5 JUMP JUMPDEST JUMPDEST POP SWAP2 SWAP1 POP JUMP JUMPDEST PUSH2 0x1430 DUP1 PUSH3 0x169 PUSH1 0x0 CODECOPY PUSH1 0x0 RETURN INVALID PUSH1 0x80 PUSH1 0x40 MSTORE CALLVALUE DUP1 ISZERO PUSH2 0x10 JUMPI PUSH1 0x0 DUP1 REVERT JUMPDEST POP PUSH1 0x4 CALLDATASIZE LT PUSH2 0xB4 JUMPI PUSH1 0x0 CALLDATALOAD PUSH1 0xE0 SHR DUP1 PUSH4 0x52EFEA6E GT PUSH2 0x71 JUMPI DUP1 PUSH4 0x52EFEA6E EQ PUSH2 0x19F JUMPI DUP1 PUSH4 0x578A34CE EQ PUSH2 0x1A9 JUMPI DUP1 PUSH4 0x91D14854 EQ PUSH2 0x1C7 JUMPI DUP1 PUSH4 0xA217FDDF EQ PUSH2 0x1F7 JUMPI DUP1 PUSH4 0xD547741F EQ PUSH2 0x215 JUMPI DUP1 PUSH4 0xE9C26518 EQ PUSH2 0x231 JUMPI PUSH2 0xB4 JUMP JUMPDEST DUP1 PUSH4 0x1FFC9A7 EQ PUSH2 0xB9 JUMPI DUP1 PUSH4 0xA3B0A4F EQ PUSH2 0xE9 JUMPI DUP1 PUSH4 0x13BDFACD EQ PUSH2 0x119 JUMPI DUP1 PUSH4 0x248A9CA3 EQ PUSH2 0x137 JUMPI DUP1 PUSH4 0x2F2FF15D EQ PUSH2 0x167 JUMPI DUP1 PUSH4 0x36568ABE EQ PUSH2 0x183 JUMPI JUMPDEST PUSH1 0x0 DUP1 REVERT JUMPDEST PUSH2 0xD3 PUSH1 0x4 DUP1 CALLDATASIZE SUB DUP2 ADD SWAP1 PUSH2 0xCE SWAP2 SWAP1 PUSH2 0xC75 JUMP JUMPDEST PUSH2 0x24F JUMP JUMPDEST PUSH1 0x40 MLOAD PUSH2 0xE0 SWAP2 SWAP1 PUSH2 0xCBD JUMP JUMPDEST PUSH1 0x40 MLOAD DUP1 SWAP2 SUB SWAP1 RETURN JUMPDEST PUSH2 0x103 PUSH1 0x4 DUP1 CALLDATASIZE SUB DUP2 ADD SWAP1 PUSH2 0xFE SWAP2 SWAP1 PUSH2 0xD36 JUMP JUMPDEST PUSH2 0x2C9 JUMP JUMPDEST PUSH1 0x40 MLOAD PUSH2 0x110 SWAP2 SWAP1 PUSH2 0xDFC JUMP JUMPDEST PUSH1 0x40 MLOAD DUP1 SWAP2 SUB SWAP1 RETURN JUMPDEST PUSH2 0x121 PUSH2 0x398 JUMP JUMPDEST PUSH1 0x40 MLOAD PUSH2 0x12E SWAP2 SWAP1 PUSH2 0xDFC JUMP JUMPDEST PUSH1 0x40 MLOAD DUP1 SWAP2 SUB SWAP1 RETURN JUMPDEST PUSH2 0x151 PUSH1 0x4 DUP1 CALLDATASIZE SUB DUP2 ADD SWAP1 PUSH2 0x14C SWAP2 SWAP1 PUSH2 0xE54 JUMP JUMPDEST PUSH2 0x42A JUMP JUMPDEST PUSH1 0x40 MLOAD PUSH2 0x15E SWAP2 SWAP1 PUSH2 0xE90 JUMP JUMPDEST PUSH1 0x40 MLOAD DUP1 SWAP2 SUB SWAP1 RETURN JUMPDEST PUSH2 0x181 PUSH1 0x4 DUP1 CALLDATASIZE SUB DUP2 ADD SWAP1 PUSH2 0x17C SWAP2 SWAP1 PUSH2 0xEAB JUMP JUMPDEST PUSH2 0x449 JUMP JUMPDEST STOP JUMPDEST PUSH2 0x19D PUSH1 0x4 DUP1 CALLDATASIZE SUB DUP2 ADD SWAP1 PUSH2 0x198 SWAP2 SWAP1 PUSH2 0xEAB JUMP JUMPDEST PUSH2 0x472 JUMP JUMPDEST STOP JUMPDEST PUSH2 0x1A7 PUSH2 0x4F5 JUMP JUMPDEST STOP JUMPDEST PUSH2 0x1B1 PUSH2 0x51D JUMP JUMPDEST PUSH1 0x40 MLOAD PUSH2 0x1BE SWAP2 SWAP1 PUSH2 0xDFC JUMP JUMPDEST PUSH1 0x40 MLOAD DUP1 SWAP2 SUB SWAP1 RETURN JUMPDEST PUSH2 0x1E1 PUSH1 0x4 DUP1 CALLDATASIZE SUB DUP2 ADD SWAP1 PUSH2 0x1DC SWAP2 SWAP1 PUSH2 0xEAB JUMP JUMPDEST PUSH2 0x5AB JUMP JUMPDEST PUSH1 0x40 MLOAD PUSH2 0x1EE SWAP2 SWAP1 PUSH2 0xCBD JUMP JUMPDEST PUSH1 0x40 MLOAD DUP1 SWAP2 SUB SWAP1 RETURN JUMPDEST PUSH2 0x1FF PUSH2 0x615 JUMP JUMPDEST PUSH1 0x40 MLOAD PUSH2 0x20C SWAP2 SWAP1 PUSH2 0xE90 JUMP JUMPDEST PUSH1 0x40 MLOAD DUP1 SWAP2 SUB SWAP1 RETURN JUMPDEST PUSH2 0x22F PUSH1 0x4 DUP1 CALLDATASIZE SUB DUP2 ADD SWAP1 PUSH2 0x22A SWAP2 SWAP1 PUSH2 0xEAB JUMP JUMPDEST PUSH2 0x61C JUMP JUMPDEST STOP JUMPDEST PUSH2 0x239 PUSH2 0x645 JUMP JUMPDEST PUSH1 0x40 MLOAD PUSH2 0x246 SWAP2 SWAP1 PUSH2 0xE90 JUMP JUMPDEST PUSH1 0x40 MLOAD DUP1 SWAP2 SUB SWAP1 RETURN JUMPDEST PUSH1 0x0 PUSH32 0x7965DB0B00000000000000000000000000000000000000000000000000000000 PUSH28 0xFFFFFFFFFFFFFFFFFFFFFFFFFFFFFFFFFFFFFFFFFFFFFFFFFFFFFFFF NOT AND DUP3 PUSH28 0xFFFFFFFFFFFFFFFFFFFFFFFFFFFFFFFFFFFFFFFFFFFFFFFFFFFFFFFF NOT AND EQ DUP1 PUSH2 0x2C2 JUMPI POP PUSH2 0x2C1 DUP3 PUSH2 0x669 JUMP JUMPDEST JUMPDEST SWAP1 POP SWAP2 SWAP1 POP JUMP JUMPDEST PUSH1 0x60 PUSH1 0x0 PUSH1 0x2 PUSH1 0x0 DUP5 PUSH20 0xFFFFFFFFFFFFFFFFFFFFFFFFFFFFFFFFFFFFFFFF AND PUSH20 0xFFFFFFFFFFFFFFFFFFFFFFFFFFFFFFFFFFFFFFFF AND DUP2 MSTORE PUSH1 0x20 ADD SWAP1 DUP2 MSTORE PUSH1 0x20 ADD PUSH1 0x0 KECCAK256 PUSH1 0x0 PUSH2 0x100 EXP DUP2 SLOAD DUP2 PUSH1 0xFF MUL NOT AND SWAP1 DUP4 ISZERO ISZERO MUL OR SWAP1 SSTORE POP PUSH1 0x1 PUSH1 0x0 DUP2 SLOAD DUP1 SWAP3 SWAP2 SWAP1 PUSH2 0x336 SWAP1 PUSH2 0xF24 JUMP JUMPDEST SWAP2 SWAP1 POP SSTORE POP PUSH1 0x0 JUMPDEST PUSH1 0x1 SLOAD DUP2 LT ISZERO PUSH2 0x392 JUMPI PUSH1 0x3 PUSH1 0x40 MLOAD PUSH1 0x20 ADD PUSH2 0x35A SWAP2 SWAP1 PUSH2 0x1091 JUMP JUMPDEST PUSH1 0x40 MLOAD PUSH1 0x20 DUP2 DUP4 SUB SUB DUP2 MSTORE SWAP1 PUSH1 0x40 MSTORE PUSH1 0x3 SWAP1 DUP1 MLOAD SWAP1 PUSH1 0x20 ADD SWAP1 PUSH2 0x37E SWAP3 SWAP2 SWAP1 PUSH2 0xB75 JUMP JUMPDEST POP DUP1 DUP1 PUSH2 0x38A SWAP1 PUSH2 0xF24 JUMP JUMPDEST SWAP2 POP POP PUSH2 0x33E JUMP JUMPDEST POP SWAP2 SWAP1 POP JUMP JUMPDEST PUSH1 0x60 PUSH1 0x3 DUP1 SLOAD PUSH2 0x3A7 SWAP1 PUSH2 0xF9B JUMP JUMPDEST DUP1 PUSH1 0x1F ADD PUSH1 0x20 DUP1 SWAP2 DIV MUL PUSH1 0x20 ADD PUSH1 0x40 MLOAD SWAP1 DUP2 ADD PUSH1 0x40 MSTORE DUP1 SWAP3 SWAP2 SWAP1 DUP2 DUP2 MSTORE PUSH1 0x20 ADD DUP3 DUP1 SLOAD PUSH2 0x3D3 SWAP1 PUSH2 0xF9B JUMP JUMPDEST DUP1 ISZERO PUSH2 0x420 JUMPI DUP1 PUSH1 0x1F LT PUSH2 0x3F5 JUMPI PUSH2 0x100 DUP1 DUP4 SLOAD DIV MUL DUP4 MSTORE SWAP2 PUSH1 0x20 ADD SWAP2 PUSH2 0x420 JUMP JUMPDEST DUP3 ADD SWAP2 SWAP1 PUSH1 0x0 MSTORE PUSH1 0x20 PUSH1 0x0 KECCAK256 SWAP1 JUMPDEST DUP2 SLOAD DUP2 MSTORE SWAP1 PUSH1 0x1 ADD SWAP1 PUSH1 0x20 ADD DUP1 DUP4 GT PUSH2 0x403 JUMPI DUP3 SWAP1 SUB PUSH1 0x1F AND DUP3 ADD SWAP2 JUMPDEST POP POP POP POP POP SWAP1 POP SWAP1 JUMP JUMPDEST PUSH1 0x0 DUP1 PUSH1 0x0 DUP4 DUP2 MSTORE PUSH1 0x20 ADD SWAP1 DUP2 MSTORE PUSH1 0x20 ADD PUSH1 0x0 KECCAK256 PUSH1 0x1 ADD SLOAD SWAP1 POP SWAP2 SWAP1 POP JUMP JUMPDEST PUSH2 0x452 DUP3 PUSH2 0x42A JUMP JUMPDEST PUSH2 0x463 DUP2 PUSH2 0x45E PUSH2 0x6D3 JUMP JUMPDEST PUSH2 0x6DB JUMP JUMPDEST PUSH2 0x46D DUP4 DUP4 PUSH2 0x778 JUMP JUMPDEST POP POP POP JUMP JUMPDEST PUSH2 0x47A PUSH2 0x6D3 JUMP JUMPDEST PUSH20 0xFFFFFFFFFFFFFFFFFFFFFFFFFFFFFFFFFFFFFFFF AND DUP2 PUSH20 0xFFFFFFFFFFFFFFFFFFFFFFFFFFFFFFFFFFFFFFFF AND EQ PUSH2 0x4E7 JUMPI PUSH1 0x40 MLOAD PUSH32 0x8C379A000000000000000000000000000000000000000000000000000000000 DUP2 MSTORE PUSH1 0x4 ADD PUSH2 0x4DE SWAP1 PUSH2 0x1129 JUMP JUMPDEST PUSH1 0x40 MLOAD DUP1 SWAP2 SUB SWAP1 REVERT JUMPDEST PUSH2 0x4F1 DUP3 DUP3 PUSH2 0x858 JUMP JUMPDEST POP POP JUMP JUMPDEST PUSH1 0x40 MLOAD DUP1 PUSH1 0x20 ADD PUSH1 0x40 MSTORE DUP1 PUSH1 0x0 DUP2 MSTORE POP PUSH1 0x3 SWAP1 DUP1 MLOAD SWAP1 PUSH1 0x20 ADD SWAP1 PUSH2 0x51A SWAP3 SWAP2 SWAP1 PUSH2 0xB75 JUMP JUMPDEST POP JUMP JUMPDEST PUSH1 0x3 DUP1 SLOAD PUSH2 0x52A SWAP1 PUSH2 0xF9B JUMP JUMPDEST DUP1 PUSH1 0x1F ADD PUSH1 0x20 DUP1 SWAP2 DIV MUL PUSH1 0x20 ADD PUSH1 0x40 MLOAD SWAP1 DUP2 ADD PUSH1 0x40 MSTORE DUP1 SWAP3 SWAP2 SWAP1 DUP2 DUP2 MSTORE PUSH1 0x20 ADD DUP3 DUP1 SLOAD PUSH2 0x556 SWAP1 PUSH2 0xF9B JUMP JUMPDEST DUP1 ISZERO PUSH2 0x5A3 JUMPI DUP1 PUSH1 0x1F LT PUSH2 0x578 JUMPI PUSH2 0x100 DUP1 DUP4 SLOAD DIV MUL DUP4 MSTORE SWAP2 PUSH1 0x20 ADD SWAP2 PUSH2 0x5A3 JUMP JUMPDEST DUP3 ADD SWAP2 SWAP1 PUSH1 0x0 MSTORE PUSH1 0x20 PUSH1 0x0 KECCAK256 SWAP1 JUMPDEST DUP2 SLOAD DUP2 MSTORE SWAP1 PUSH1 0x1 ADD SWAP1 PUSH1 0x20 ADD DUP1 DUP4 GT PUSH2 0x586 JUMPI DUP3 SWAP1 SUB PUSH1 0x1F AND DUP3 ADD SWAP2 JUMPDEST POP POP POP POP POP DUP2 JUMP JUMPDEST PUSH1 0x0 DUP1 PUSH1 0x0 DUP5 DUP2 MSTORE PUSH1 0x20 ADD SWAP1 DUP2 MSTORE PUSH1 0x20 ADD PUSH1 0x0 KECCAK256 PUSH1 0x0 ADD PUSH1 0x0 DUP4 PUSH20 0xFFFFFFFFFFFFFFFFFFFFFFFFFFFFFFFFFFFFFFFF AND PUSH20 0xFFFFFFFFFFFFFFFFFFFFFFFFFFFFFFFFFFFFFFFF AND DUP2 MSTORE PUSH1 0x20 ADD SWAP1 DUP2 MSTORE PUSH1 0x20 ADD PUSH1 0x0 KECCAK256 PUSH1 0x0 SWAP1 SLOAD SWAP1 PUSH2 0x100 EXP SWAP1 DIV PUSH1 0xFF AND SWAP1 POP SWAP3 SWAP2 POP POP JUMP JUMPDEST PUSH1 0x0 DUP1 SHL DUP2 JUMP JUMPDEST PUSH2 0x625 DUP3 PUSH2 0x42A JUMP JUMPDEST PUSH2 0x636 DUP2 PUSH2 0x631 PUSH2 0x6D3 JUMP JUMPDEST PUSH2 0x6DB JUMP JUMPDEST PUSH2 0x640 DUP4 DUP4 PUSH2 0x858 JUMP JUMPDEST POP POP POP JUMP JUMPDEST PUSH32 0x3B5D4CC60D3EC3516EE8AE083BD60934F6EB2A6C54B1229985C41BFB092B2603 DUP2 JUMP JUMPDEST PUSH1 0x0 PUSH32 0x1FFC9A700000000000000000000000000000000000000000000000000000000 PUSH28 0xFFFFFFFFFFFFFFFFFFFFFFFFFFFFFFFFFFFFFFFFFFFFFFFFFFFFFFFF NOT AND DUP3 PUSH28 0xFFFFFFFFFFFFFFFFFFFFFFFFFFFFFFFFFFFFFFFFFFFFFFFFFFFFFFFF NOT AND EQ SWAP1 POP SWAP2 SWAP1 POP JUMP JUMPDEST PUSH1 0x0 CALLER SWAP1 POP SWAP1 JUMP JUMPDEST PUSH2 0x6E5 DUP3 DUP3 PUSH2 0x5AB JUMP JUMPDEST PUSH2 0x774 JUMPI PUSH2 0x70A DUP2 PUSH20 0xFFFFFFFFFFFFFFFFFFFFFFFFFFFFFFFFFFFFFFFF AND PUSH1 0x14 PUSH2 0x939 JUMP JUMPDEST PUSH2 0x718 DUP4 PUSH1 0x0 SHR PUSH1 0x20 PUSH2 0x939 JUMP JUMPDEST PUSH1 0x40 MLOAD PUSH1 0x20 ADD PUSH2 0x729 SWAP3 SWAP2 SWAP1 PUSH2 0x121D JUMP JUMPDEST PUSH1 0x40 MLOAD PUSH1 0x20 DUP2 DUP4 SUB SUB DUP2 MSTORE SWAP1 PUSH1 0x40 MSTORE PUSH1 0x40 MLOAD PUSH32 0x8C379A000000000000000000000000000000000000000000000000000000000 DUP2 MSTORE PUSH1 0x4 ADD PUSH2 0x76B SWAP2 SWAP1 PUSH2 0xDFC JUMP JUMPDEST PUSH1 0x40 MLOAD DUP1 SWAP2 SUB SWAP1 REVERT JUMPDEST POP POP JUMP JUMPDEST PUSH2 0x782 DUP3 DUP3 PUSH2 0x5AB JUMP JUMPDEST PUSH2 0x854 JUMPI PUSH1 0x1 PUSH1 0x0 DUP1 DUP5 DUP2 MSTORE PUSH1 0x20 ADD SWAP1 DUP2 MSTORE PUSH1 0x20 ADD PUSH1 0x0 KECCAK256 PUSH1 0x0 ADD PUSH1 0x0 DUP4 PUSH20 0xFFFFFFFFFFFFFFFFFFFFFFFFFFFFFFFFFFFFFFFF AND PUSH20 0xFFFFFFFFFFFFFFFFFFFFFFFFFFFFFFFFFFFFFFFF AND DUP2 MSTORE PUSH1 0x20 ADD SWAP1 DUP2 MSTORE PUSH1 0x20 ADD PUSH1 0x0 KECCAK256 PUSH1 0x0 PUSH2 0x100 EXP DUP2 SLOAD DUP2 PUSH1 0xFF MUL NOT AND SWAP1 DUP4 ISZERO ISZERO MUL OR SWAP1 SSTORE POP PUSH2 0x7F9 PUSH2 0x6D3 JUMP JUMPDEST PUSH20 0xFFFFFFFFFFFFFFFFFFFFFFFFFFFFFFFFFFFFFFFF AND DUP2 PUSH20 0xFFFFFFFFFFFFFFFFFFFFFFFFFFFFFFFFFFFFFFFF AND DUP4 PUSH32 0x2F8788117E7EFF1D82E926EC794901D17C78024A50270940304540A733656F0D PUSH1 0x40 MLOAD PUSH1 0x40 MLOAD DUP1 SWAP2 SUB SWAP1 LOG4 JUMPDEST POP POP JUMP JUMPDEST PUSH2 0x862 DUP3 DUP3 PUSH2 0x5AB JUMP JUMPDEST ISZERO PUSH2 0x935 JUMPI PUSH1 0x0 DUP1 PUSH1 0x0 DUP5 DUP2 MSTORE PUSH1 0x20 ADD SWAP1 DUP2 MSTORE PUSH1 0x20 ADD PUSH1 0x0 KECCAK256 PUSH1 0x0 ADD PUSH1 0x0 DUP4 PUSH20 0xFFFFFFFFFFFFFFFFFFFFFFFFFFFFFFFFFFFFFFFF AND PUSH20 0xFFFFFFFFFFFFFFFFFFFFFFFFFFFFFFFFFFFFFFFF AND DUP2 MSTORE PUSH1 0x20 ADD SWAP1 DUP2 MSTORE PUSH1 0x20 ADD PUSH1 0x0 KECCAK256 PUSH1 0x0 PUSH2 0x100 EXP DUP2 SLOAD DUP2 PUSH1 0xFF MUL NOT AND SWAP1 DUP4 ISZERO ISZERO MUL OR SWAP1 SSTORE POP PUSH2 0x8DA PUSH2 0x6D3 JUMP JUMPDEST PUSH20 0xFFFFFFFFFFFFFFFFFFFFFFFFFFFFFFFFFFFFFFFF AND DUP2 PUSH20 0xFFFFFFFFFFFFFFFFFFFFFFFFFFFFFFFFFFFFFFFF AND DUP4 PUSH32 0xF6391F5C32D9C69D2A47EA670B442974B53935D1EDC7FD64EB21E047A839171B PUSH1 0x40 MLOAD PUSH1 0x40 MLOAD DUP1 SWAP2 SUB SWAP1 LOG4 JUMPDEST POP POP JUMP JUMPDEST PUSH1 0x60 PUSH1 0x0 PUSH1 0x2 DUP4 PUSH1 0x2 PUSH2 0x94C SWAP2 SWAP1 PUSH2 0x1257 JUMP JUMPDEST PUSH2 0x956 SWAP2 SWAP1 PUSH2 0x12B1 JUMP JUMPDEST PUSH8 0xFFFFFFFFFFFFFFFF DUP2 GT ISZERO PUSH2 0x96F JUMPI PUSH2 0x96E PUSH2 0x1307 JUMP JUMPDEST JUMPDEST PUSH1 0x40 MLOAD SWAP1 DUP1 DUP3 MSTORE DUP1 PUSH1 0x1F ADD PUSH1 0x1F NOT AND PUSH1 0x20 ADD DUP3 ADD PUSH1 0x40 MSTORE DUP1 ISZERO PUSH2 0x9A1 JUMPI DUP2 PUSH1 0x20 ADD PUSH1 0x1 DUP3 MUL DUP1 CALLDATASIZE DUP4 CALLDATACOPY DUP1 DUP3 ADD SWAP2 POP POP SWAP1 POP JUMPDEST POP SWAP1 POP PUSH32 0x3000000000000000000000000000000000000000000000000000000000000000 DUP2 PUSH1 0x0 DUP2 MLOAD DUP2 LT PUSH2 0x9D9 JUMPI PUSH2 0x9D8 PUSH2 0x1336 JUMP JUMPDEST JUMPDEST PUSH1 0x20 ADD ADD SWAP1 PUSH31 0xFFFFFFFFFFFFFFFFFFFFFFFFFFFFFFFFFFFFFFFFFFFFFFFFFFFFFFFFFFFFFF NOT AND SWAP1 DUP2 PUSH1 0x0 BYTE SWAP1 MSTORE8 POP PUSH32 0x7800000000000000000000000000000000000000000000000000000000000000 DUP2 PUSH1 0x1 DUP2 MLOAD DUP2 LT PUSH2 0xA3D JUMPI PUSH2 0xA3C PUSH2 0x1336 JUMP JUMPDEST JUMPDEST PUSH1 0x20 ADD ADD SWAP1 PUSH31 0xFFFFFFFFFFFFFFFFFFFFFFFFFFFFFFFFFFFFFFFFFFFFFFFFFFFFFFFFFFFFFF NOT AND SWAP1 DUP2 PUSH1 0x0 BYTE SWAP1 MSTORE8 POP PUSH1 0x0 PUSH1 0x1 DUP5 PUSH1 0x2 PUSH2 0xA7D SWAP2 SWAP1 PUSH2 0x1257 JUMP JUMPDEST PUSH2 0xA87 SWAP2 SWAP1 PUSH2 0x12B1 JUMP JUMPDEST SWAP1 POP JUMPDEST PUSH1 0x1 DUP2 GT ISZERO PUSH2 0xB27 JUMPI PUSH32 0x3031323334353637383961626364656600000000000000000000000000000000 PUSH1 0xF DUP7 AND PUSH1 0x10 DUP2 LT PUSH2 0xAC9 JUMPI PUSH2 0xAC8 PUSH2 0x1336 JUMP JUMPDEST JUMPDEST BYTE PUSH1 0xF8 SHL DUP3 DUP3 DUP2 MLOAD DUP2 LT PUSH2 0xAE0 JUMPI PUSH2 0xADF PUSH2 0x1336 JUMP JUMPDEST JUMPDEST PUSH1 0x20 ADD ADD SWAP1 PUSH31 0xFFFFFFFFFFFFFFFFFFFFFFFFFFFFFFFFFFFFFFFFFFFFFFFFFFFFFFFFFFFFFF NOT AND SWAP1 DUP2 PUSH1 0x0 BYTE SWAP1 MSTORE8 POP PUSH1 0x4 DUP6 SWAP1 SHR SWAP5 POP DUP1 PUSH2 0xB20 SWAP1 PUSH2 0x1365 JUMP JUMPDEST SWAP1 POP PUSH2 0xA8A JUMP JUMPDEST POP PUSH1 0x0 DUP5 EQ PUSH2 0xB6B JUMPI PUSH1 0x40 MLOAD PUSH32 0x8C379A000000000000000000000000000000000000000000000000000000000 DUP2 MSTORE PUSH1 0x4 ADD PUSH2 0xB62 SWAP1 PUSH2 0x13DA JUMP JUMPDEST PUSH1 0x40 MLOAD DUP1 SWAP2 SUB SWAP1 REVERT JUMPDEST DUP1 SWAP2 POP POP SWAP3 SWAP2 POP POP JUMP JUMPDEST DUP3 DUP1 SLOAD PUSH2 0xB81 SWAP1 PUSH2 0xF9B JUMP JUMPDEST SWAP1 PUSH1 0x0 MSTORE PUSH1 0x20 PUSH1 0x0 KECCAK256 SWAP1 PUSH1 0x1F ADD PUSH1 0x20 SWAP1 DIV DUP2 ADD SWAP3 DUP3 PUSH2 0xBA3 JUMPI PUSH1 0x0 DUP6 SSTORE PUSH2 0xBEA JUMP JUMPDEST DUP3 PUSH1 0x1F LT PUSH2 0xBBC JUMPI DUP1 MLOAD PUSH1 0xFF NOT AND DUP4 DUP1 ADD OR DUP6 SSTORE PUSH2 0xBEA JUMP JUMPDEST DUP3 DUP1 ADD PUSH1 0x1 ADD DUP6 SSTORE DUP3 ISZERO PUSH2 0xBEA JUMPI SWAP2 DUP3 ADD JUMPDEST DUP3 DUP2 GT ISZERO PUSH2 0xBE9 JUMPI DUP3 MLOAD DUP3 SSTORE SWAP2 PUSH1 0x20 ADD SWAP2 SWAP1 PUSH1 0x1 ADD SWAP1 PUSH2 0xBCE JUMP JUMPDEST JUMPDEST POP SWAP1 POP PUSH2 0xBF7 SWAP2 SWAP1 PUSH2 0xBFB JUMP JUMPDEST POP SWAP1 JUMP JUMPDEST JUMPDEST DUP1 DUP3 GT ISZERO PUSH2 0xC14 JUMPI PUSH1 0x0 DUP2 PUSH1 0x0 SWAP1 SSTORE POP PUSH1 0x1 ADD PUSH2 0xBFC JUMP JUMPDEST POP SWAP1 JUMP JUMPDEST PUSH1 0x0 DUP1 REVERT JUMPDEST PUSH1 0x0 PUSH32 0xFFFFFFFF00000000000000000000000000000000000000000000000000000000 DUP3 AND SWAP1 POP SWAP2 SWAP1 POP JUMP JUMPDEST PUSH2 0xC52 DUP2 PUSH2 0xC1D JUMP JUMPDEST DUP2 EQ PUSH2 0xC5D JUMPI PUSH1 0x0 DUP1 REVERT JUMPDEST POP JUMP JUMPDEST PUSH1 0x0 DUP2 CALLDATALOAD SWAP1 POP PUSH2 0xC6F DUP2 PUSH2 0xC49 JUMP JUMPDEST SWAP3 SWAP2 POP POP JUMP JUMPDEST PUSH1 0x0 PUSH1 0x20 DUP3 DUP5 SUB SLT ISZERO PUSH2 0xC8B JUMPI PUSH2 0xC8A PUSH2 0xC18 JUMP JUMPDEST JUMPDEST PUSH1 0x0 PUSH2 0xC99 DUP5 DUP3 DUP6 ADD PUSH2 0xC60 JUMP JUMPDEST SWAP2 POP POP SWAP3 SWAP2 POP POP JUMP JUMPDEST PUSH1 0x0 DUP2 ISZERO ISZERO SWAP1 POP SWAP2 SWAP1 POP JUMP JUMPDEST PUSH2 0xCB7 DUP2 PUSH2 0xCA2 JUMP JUMPDEST DUP3 MSTORE POP POP JUMP JUMPDEST PUSH1 0x0 PUSH1 0x20 DUP3 ADD SWAP1 POP PUSH2 0xCD2 PUSH1 0x0 DUP4 ADD DUP5 PUSH2 0xCAE JUMP JUMPDEST SWAP3 SWAP2 POP POP JUMP JUMPDEST PUSH1 0x0 PUSH20 0xFFFFFFFFFFFFFFFFFFFFFFFFFFFFFFFFFFFFFFFF DUP3 AND SWAP1 POP SWAP2 SWAP1 POP JUMP JUMPDEST PUSH1 0x0 PUSH2 0xD03 DUP3 PUSH2 0xCD8 JUMP JUMPDEST SWAP1 POP SWAP2 SWAP1 POP JUMP JUMPDEST PUSH2 0xD13 DUP2 PUSH2 0xCF8 JUMP JUMPDEST DUP2 EQ PUSH2 0xD1E JUMPI PUSH1 0x0 DUP1 REVERT JUMPDEST POP JUMP JUMPDEST PUSH1 0x0 DUP2 CALLDATALOAD SWAP1 POP PUSH2 0xD30 DUP2 PUSH2 0xD0A JUMP JUMPDEST SWAP3 SWAP2 POP POP JUMP JUMPDEST PUSH1 0x0 PUSH1 0x20 DUP3 DUP5 SUB SLT ISZERO PUSH2 0xD4C JUMPI PUSH2 0xD4B PUSH2 0xC18 JUMP JUMPDEST JUMPDEST PUSH1 0x0 PUSH2 0xD5A DUP5 DUP3 DUP6 ADD PUSH2 0xD21 JUMP JUMPDEST SWAP2 POP POP SWAP3 SWAP2 POP POP JUMP JUMPDEST PUSH1 0x0 DUP2 MLOAD SWAP1 POP SWAP2 SWAP1 POP JUMP JUMPDEST PUSH1 0x0 DUP3 DUP3 MSTORE PUSH1 0x20 DUP3 ADD SWAP1 POP SWAP3 SWAP2 POP POP JUMP JUMPDEST PUSH1 0x0 JUMPDEST DUP4 DUP2 LT ISZERO PUSH2 0xD9D JUMPI DUP1 DUP3 ADD MLOAD DUP2 DUP5 ADD MSTORE PUSH1 0x20 DUP2 ADD SWAP1 POP PUSH2 0xD82 JUMP JUMPDEST DUP4 DUP2 GT ISZERO PUSH2 0xDAC JUMPI PUSH1 0x0 DUP5 DUP5 ADD MSTORE JUMPDEST POP POP POP POP JUMP JUMPDEST PUSH1 0x0 PUSH1 0x1F NOT PUSH1 0x1F DUP4 ADD AND SWAP1 POP SWAP2 SWAP1 POP JUMP JUMPDEST PUSH1 0x0 PUSH2 0xDCE DUP3 PUSH2 0xD63 JUMP JUMPDEST PUSH2 0xDD8 DUP2 DUP6 PUSH2 0xD6E JUMP JUMPDEST SWAP4 POP PUSH2 0xDE8 DUP2 DUP6 PUSH1 0x20 DUP7 ADD PUSH2 0xD7F JUMP JUMPDEST PUSH2 0xDF1 DUP2 PUSH2 0xDB2 JUMP JUMPDEST DUP5 ADD SWAP2 POP POP SWAP3 SWAP2 POP POP JUMP JUMPDEST PUSH1 0x0 PUSH1 0x20 DUP3 ADD SWAP1 POP DUP2 DUP2 SUB PUSH1 0x0 DUP4 ADD MSTORE PUSH2 0xE16 DUP2 DUP5 PUSH2 0xDC3 JUMP JUMPDEST SWAP1 POP SWAP3 SWAP2 POP POP JUMP JUMPDEST PUSH1 0x0 DUP2 SWAP1 POP SWAP2 SWAP1 POP JUMP JUMPDEST PUSH2 0xE31 DUP2 PUSH2 0xE1E JUMP JUMPDEST DUP2 EQ PUSH2 0xE3C JUMPI PUSH1 0x0 DUP1 REVERT JUMPDEST POP JUMP JUMPDEST PUSH1 0x0 DUP2 CALLDATALOAD SWAP1 POP PUSH2 0xE4E DUP2 PUSH2 0xE28 JUMP JUMPDEST SWAP3 SWAP2 POP POP JUMP JUMPDEST PUSH1 0x0 PUSH1 0x20 DUP3 DUP5 SUB SLT ISZERO PUSH2 0xE6A JUMPI PUSH2 0xE69 PUSH2 0xC18 JUMP JUMPDEST JUMPDEST PUSH1 0x0 PUSH2 0xE78 DUP5 DUP3 DUP6 ADD PUSH2 0xE3F JUMP JUMPDEST SWAP2 POP POP SWAP3 SWAP2 POP POP JUMP JUMPDEST PUSH2 0xE8A DUP2 PUSH2 0xE1E JUMP JUMPDEST DUP3 MSTORE POP POP JUMP JUMPDEST PUSH1 0x0 PUSH1 0x20 DUP3 ADD SWAP1 POP PUSH2 0xEA5 PUSH1 0x0 DUP4 ADD DUP5 PUSH2 0xE81 JUMP JUMPDEST SWAP3 SWAP2 POP POP JUMP JUMPDEST PUSH1 0x0 DUP1 PUSH1 0x40 DUP4 DUP6 SUB SLT ISZERO PUSH2 0xEC2 JUMPI PUSH2 0xEC1 PUSH2 0xC18 JUMP JUMPDEST JUMPDEST PUSH1 0x0 PUSH2 0xED0 DUP6 DUP3 DUP7 ADD PUSH2 0xE3F JUMP JUMPDEST SWAP3 POP POP PUSH1 0x20 PUSH2 0xEE1 DUP6 DUP3 DUP7 ADD PUSH2 0xD21 JUMP JUMPDEST SWAP2 POP POP SWAP3 POP SWAP3 SWAP1 POP JUMP JUMPDEST PUSH32 0x4E487B7100000000000000000000000000000000000000000000000000000000 PUSH1 0x0 MSTORE PUSH1 0x11 PUSH1 0x4 MSTORE PUSH1 0x24 PUSH1 0x0 REVERT JUMPDEST PUSH1 0x0 DUP2 SWAP1 POP SWAP2 SWAP1 POP JUMP JUMPDEST PUSH1 0x0 PUSH2 0xF2F DUP3 PUSH2 0xF1A JUMP JUMPDEST SWAP2 POP PUSH32 0xFFFFFFFFFFFFFFFFFFFFFFFFFFFFFFFFFFFFFFFFFFFFFFFFFFFFFFFFFFFFFFFF DUP3 SUB PUSH2 0xF61 JUMPI PUSH2 0xF60 PUSH2 0xEEB JUMP JUMPDEST JUMPDEST PUSH1 0x1 DUP3 ADD SWAP1 POP SWAP2 SWAP1 POP JUMP JUMPDEST PUSH32 0x4E487B7100000000000000000000000000000000000000000000000000000000 PUSH1 0x0 MSTORE PUSH1 0x22 PUSH1 0x4 MSTORE PUSH1 0x24 PUSH1 0x0 REVERT JUMPDEST PUSH1 0x0 PUSH1 0x2 DUP3 DIV SWAP1 POP PUSH1 0x1 DUP3 AND DUP1 PUSH2 0xFB3 JUMPI PUSH1 0x7F DUP3 AND SWAP2 POP JUMPDEST PUSH1 0x20 DUP3 LT DUP2 SUB PUSH2 0xFC6 JUMPI PUSH2 0xFC5 PUSH2 0xF6C JUMP JUMPDEST JUMPDEST POP SWAP2 SWAP1 POP JUMP JUMPDEST PUSH1 0x0 DUP2 SWAP1 POP SWAP3 SWAP2 POP POP JUMP JUMPDEST PUSH1 0x0 DUP2 SWAP1 POP DUP2 PUSH1 0x0 MSTORE PUSH1 0x20 PUSH1 0x0 KECCAK256 SWAP1 POP SWAP2 SWAP1 POP JUMP JUMPDEST PUSH1 0x0 DUP2 SLOAD PUSH2 0xFF9 DUP2 PUSH2 0xF9B JUMP JUMPDEST PUSH2 0x1003 DUP2 DUP7 PUSH2 0xFCC JUMP JUMPDEST SWAP5 POP PUSH1 0x1 DUP3 AND PUSH1 0x0 DUP2 EQ PUSH2 0x101E JUMPI PUSH1 0x1 DUP2 EQ PUSH2 0x102F JUMPI PUSH2 0x1062 JUMP JUMPDEST PUSH1 0xFF NOT DUP4 AND DUP7 MSTORE DUP2 DUP7 ADD SWAP4 POP PUSH2 0x1062 JUMP JUMPDEST PUSH2 0x1038 DUP6 PUSH2 0xFD7 JUMP JUMPDEST PUSH1 0x0 JUMPDEST DUP4 DUP2 LT ISZERO PUSH2 0x105A JUMPI DUP2 SLOAD DUP2 DUP10 ADD MSTORE PUSH1 0x1 DUP3 ADD SWAP2 POP PUSH1 0x20 DUP2 ADD SWAP1 POP PUSH2 0x103B JUMP JUMPDEST DUP4 DUP9 ADD SWAP6 POP POP POP JUMPDEST POP POP POP SWAP3 SWAP2 POP POP JUMP JUMPDEST PUSH32 0x7400000000000000000000000000000000000000000000000000000000000000 DUP2 MSTORE POP JUMP JUMPDEST PUSH1 0x0 PUSH2 0x109D DUP3 DUP5 PUSH2 0xFEC JUMP JUMPDEST SWAP2 POP PUSH2 0x10A8 DUP3 PUSH2 0x106B JUMP JUMPDEST PUSH1 0x1 DUP3 ADD SWAP2 POP DUP2 SWAP1 POP SWAP3 SWAP2 POP POP JUMP JUMPDEST PUSH32 0x416363657373436F6E74726F6C3A2063616E206F6E6C792072656E6F756E6365 PUSH1 0x0 DUP3 ADD MSTORE PUSH32 0x20726F6C657320666F722073656C660000000000000000000000000000000000 PUSH1 0x20 DUP3 ADD MSTORE POP JUMP JUMPDEST PUSH1 0x0 PUSH2 0x1113 PUSH1 0x2F DUP4 PUSH2 0xD6E JUMP JUMPDEST SWAP2 POP PUSH2 0x111E DUP3 PUSH2 0x10B7 JUMP JUMPDEST PUSH1 0x40 DUP3 ADD SWAP1 POP SWAP2 SWAP1 POP JUMP JUMPDEST PUSH1 0x0 PUSH1 0x20 DUP3 ADD SWAP1 POP DUP2 DUP2 SUB PUSH1 0x0 DUP4 ADD MSTORE PUSH2 0x1142 DUP2 PUSH2 0x1106 JUMP JUMPDEST SWAP1 POP SWAP2 SWAP1 POP JUMP JUMPDEST PUSH1 0x0 DUP2 SWAP1 POP SWAP3 SWAP2 POP POP JUMP JUMPDEST PUSH32 0x416363657373436F6E74726F6C3A206163636F756E7420000000000000000000 PUSH1 0x0 DUP3 ADD MSTORE POP JUMP JUMPDEST PUSH1 0x0 PUSH2 0x118A PUSH1 0x17 DUP4 PUSH2 0x1149 JUMP JUMPDEST SWAP2 POP PUSH2 0x1195 DUP3 PUSH2 0x1154 JUMP JUMPDEST PUSH1 0x17 DUP3 ADD SWAP1 POP SWAP2 SWAP1 POP JUMP JUMPDEST PUSH1 0x0 PUSH2 0x11AB DUP3 PUSH2 0xD63 JUMP JUMPDEST PUSH2 0x11B5 DUP2 DUP6 PUSH2 0x1149 JUMP JUMPDEST SWAP4 POP PUSH2 0x11C5 DUP2 DUP6 PUSH1 0x20 DUP7 ADD PUSH2 0xD7F JUMP JUMPDEST DUP1 DUP5 ADD SWAP2 POP POP SWAP3 SWAP2 POP POP JUMP JUMPDEST PUSH32 0x206973206D697373696E6720726F6C6520000000000000000000000000000000 PUSH1 0x0 DUP3 ADD MSTORE POP JUMP JUMPDEST PUSH1 0x0 PUSH2 0x1207 PUSH1 0x11 DUP4 PUSH2 0x1149 JUMP JUMPDEST SWAP2 POP PUSH2 0x1212 DUP3 PUSH2 0x11D1 JUMP JUMPDEST PUSH1 0x11 DUP3 ADD SWAP1 POP SWAP2 SWAP1 POP JUMP JUMPDEST PUSH1 0x0 PUSH2 0x1228 DUP3 PUSH2 0x117D JUMP JUMPDEST SWAP2 POP PUSH2 0x1234 DUP3 DUP6 PUSH2 0x11A0 JUMP JUMPDEST SWAP2 POP PUSH2 0x123F DUP3 PUSH2 0x11FA JUMP JUMPDEST SWAP2 POP PUSH2 0x124B DUP3 DUP5 PUSH2 0x11A0 JUMP JUMPDEST SWAP2 POP DUP2 SWAP1 POP SWAP4 SWAP3 POP POP POP JUMP JUMPDEST PUSH1 0x0 PUSH2 0x1262 DUP3 PUSH2 0xF1A JUMP JUMPDEST SWAP2 POP PUSH2 0x126D DUP4 PUSH2 0xF1A JUMP JUMPDEST SWAP3 POP DUP2 PUSH32 0xFFFFFFFFFFFFFFFFFFFFFFFFFFFFFFFFFFFFFFFFFFFFFFFFFFFFFFFFFFFFFFFF DIV DUP4 GT DUP3 ISZERO ISZERO AND ISZERO PUSH2 0x12A6 JUMPI PUSH2 0x12A5 PUSH2 0xEEB JUMP JUMPDEST JUMPDEST DUP3 DUP3 MUL SWAP1 POP SWAP3 SWAP2 POP POP JUMP JUMPDEST PUSH1 0x0 PUSH2 0x12BC DUP3 PUSH2 0xF1A JUMP JUMPDEST SWAP2 POP PUSH2 0x12C7 DUP4 PUSH2 0xF1A JUMP JUMPDEST SWAP3 POP DUP3 PUSH32 0xFFFFFFFFFFFFFFFFFFFFFFFFFFFFFFFFFFFFFFFFFFFFFFFFFFFFFFFFFFFFFFFF SUB DUP3 GT ISZERO PUSH2 0x12FC JUMPI PUSH2 0x12FB PUSH2 0xEEB JUMP JUMPDEST JUMPDEST DUP3 DUP3 ADD SWAP1 POP SWAP3 SWAP2 POP POP JUMP JUMPDEST PUSH32 0x4E487B7100000000000000000000000000000000000000000000000000000000 PUSH1 0x0 MSTORE PUSH1 0x41 PUSH1 0x4 MSTORE PUSH1 0x24 PUSH1 0x0 REVERT JUMPDEST PUSH32 0x4E487B7100000000000000000000000000000000000000000000000000000000 PUSH1 0x0 MSTORE PUSH1 0x32 PUSH1 0x4 MSTORE PUSH1 0x24 PUSH1 0x0 REVERT JUMPDEST PUSH1 0x0 PUSH2 0x1370 DUP3 PUSH2 0xF1A JUMP JUMPDEST SWAP2 POP PUSH1 0x0 DUP3 SUB PUSH2 0x1383 JUMPI PUSH2 0x1382 PUSH2 0xEEB JUMP JUMPDEST JUMPDEST PUSH1 0x1 DUP3 SUB SWAP1 POP SWAP2 SWAP1 POP JUMP JUMPDEST PUSH32 0x537472696E67733A20686578206C656E67746820696E73756666696369656E74 PUSH1 0x0 DUP3 ADD MSTORE POP JUMP JUMPDEST PUSH1 0x0 PUSH2 0x13C4 PUSH1 0x20 DUP4 PUSH2 0xD6E JUMP JUMPDEST SWAP2 POP PUSH2 0x13CF DUP3 PUSH2 0x138E JUMP JUMPDEST PUSH1 0x20 DUP3 ADD SWAP1 POP SWAP2 SWAP1 POP JUMP JUMPDEST PUSH1 0x0 PUSH1 0x20 DUP3 ADD SWAP1 POP DUP2 DUP2 SUB PUSH1 0x0 DUP4 ADD MSTORE PUSH2 0x13F3 DUP2 PUSH2 0x13B7 JUMP JUMPDEST SWAP1 POP SWAP2 SWAP1 POP JUMP INVALID LOG2 PUSH5 0x6970667358 0x22 SLT KECCAK256 DUP16 SWAP9 SWAP6 0x2E DUP10 LOG3 SLOAD 0x2A PUSH10 0x3FA83203BBE2F65FF22C DIFFICULTY ADD CALL CODECOPY SWAP14 0x5D DUP7 EXP 0xCA DUP8 PUSH29 0x401C64736F6C634300080D003300000000000000000000000000000000 "
				},
				"gasEstimates": {
					"creation": {
						"codeDepositCost": "1033600",
						"executionCost": "infinite",
						"totalCost": "infinite"
					},
					"external": {
						"DAO_ROLE()": "439",
						"DEFAULT_ADMIN_ROLE()": "401",
						"add(address)": "infinite",
						"clear()": "infinite",
						"getRoleAdmin(bytes32)": "infinite",
						"grantRole(bytes32,address)": "infinite",
						"hasRole(bytes32,address)": "3184",
						"print()": "infinite",
						"renounceRole(bytes32,address)": "infinite",
						"revokeRole(bytes32,address)": "infinite",
						"supportsInterface(bytes4)": "728",
						"testt()": "infinite"
					}
				},
				"methodIdentifiers": {
					"DAO_ROLE()": "e9c26518",
					"DEFAULT_ADMIN_ROLE()": "a217fddf",
					"add(address)": "0a3b0a4f",
					"clear()": "52efea6e",
					"getRoleAdmin(bytes32)": "248a9ca3",
					"grantRole(bytes32,address)": "2f2ff15d",
					"hasRole(bytes32,address)": "91d14854",
					"print()": "13bdfacd",
					"renounceRole(bytes32,address)": "36568abe",
					"revokeRole(bytes32,address)": "d547741f",
					"supportsInterface(bytes4)": "01ffc9a7",
					"testt()": "578a34ce"
				}
			},
			"userdoc": {
				"kind": "user",
				"methods": {},
				"version": 1
			}
		}
	}
}