{
	"src/contracts/Desca.sol": {
		"DeSCA": {
			"abi": [
				{
					"inputs": [
						{
							"internalType": "uint256",
							"name": "_targetpercent",
							"type": "uint256"
						},
						{
							"internalType": "uint256",
							"name": "_timeout",
							"type": "uint256"
						}
					],
					"stateMutability": "nonpayable",
					"type": "constructor"
				},
				{
					"anonymous": false,
					"inputs": [
						{
							"indexed": true,
							"internalType": "bytes32",
							"name": "role",
							"type": "bytes32"
						},
						{
							"indexed": true,
							"internalType": "bytes32",
							"name": "previousAdminRole",
							"type": "bytes32"
						},
						{
							"indexed": true,
							"internalType": "bytes32",
							"name": "newAdminRole",
							"type": "bytes32"
						}
					],
					"name": "RoleAdminChanged",
					"type": "event"
				},
				{
					"anonymous": false,
					"inputs": [
						{
							"indexed": true,
							"internalType": "bytes32",
							"name": "role",
							"type": "bytes32"
						},
						{
							"indexed": true,
							"internalType": "address",
							"name": "account",
							"type": "address"
						},
						{
							"indexed": true,
							"internalType": "address",
							"name": "sender",
							"type": "address"
						}
					],
					"name": "RoleGranted",
					"type": "event"
				},
				{
					"anonymous": false,
					"inputs": [
						{
							"indexed": true,
							"internalType": "bytes32",
							"name": "role",
							"type": "bytes32"
						},
						{
							"indexed": true,
							"internalType": "address",
							"name": "account",
							"type": "address"
						},
						{
							"indexed": true,
							"internalType": "address",
							"name": "sender",
							"type": "address"
						}
					],
					"name": "RoleRevoked",
					"type": "event"
				},
				{
					"inputs": [],
					"name": "DAO_ROLE",
					"outputs": [
						{
							"internalType": "bytes32",
							"name": "",
							"type": "bytes32"
						}
					],
					"stateMutability": "view",
					"type": "function"
				},
				{
					"inputs": [],
					"name": "DATA_SENDER_ROLE",
					"outputs": [
						{
							"internalType": "bytes32",
							"name": "",
							"type": "bytes32"
						}
					],
					"stateMutability": "view",
					"type": "function"
				},
				{
					"inputs": [],
					"name": "DEFAULT_ADMIN_ROLE",
					"outputs": [
						{
							"internalType": "bytes32",
							"name": "",
							"type": "bytes32"
						}
					],
					"stateMutability": "view",
					"type": "function"
				},
				{
					"inputs": [],
					"name": "NET_ADMIN_ROLE",
					"outputs": [
						{
							"internalType": "bytes32",
							"name": "",
							"type": "bytes32"
						}
					],
					"stateMutability": "view",
					"type": "function"
				},
				{
					"inputs": [
						{
							"internalType": "address",
							"name": "_adminAccount",
							"type": "address"
						}
					],
					"name": "addAdmin",
					"outputs": [],
					"stateMutability": "nonpayable",
					"type": "function"
				},
				{
					"inputs": [
						{
							"internalType": "address",
							"name": "_nodeaddress",
							"type": "address"
						}
					],
					"name": "addNode",
					"outputs": [],
					"stateMutability": "nonpayable",
					"type": "function"
				},
				{
					"inputs": [],
					"name": "flightflag",
					"outputs": [
						{
							"internalType": "bool",
							"name": "",
							"type": "bool"
						}
					],
					"stateMutability": "view",
					"type": "function"
				},
				{
					"inputs": [
						{
							"internalType": "bytes32",
							"name": "role",
							"type": "bytes32"
						}
					],
					"name": "getRoleAdmin",
					"outputs": [
						{
							"internalType": "bytes32",
							"name": "",
							"type": "bytes32"
						}
					],
					"stateMutability": "view",
					"type": "function"
				},
				{
					"inputs": [
						{
							"internalType": "bytes32",
							"name": "role",
							"type": "bytes32"
						},
						{
							"internalType": "address",
							"name": "account",
							"type": "address"
						}
					],
					"name": "grantRole",
					"outputs": [],
					"stateMutability": "nonpayable",
					"type": "function"
				},
				{
					"inputs": [
						{
							"internalType": "bytes32",
							"name": "role",
							"type": "bytes32"
						},
						{
							"internalType": "address",
							"name": "account",
							"type": "address"
						}
					],
					"name": "hasRole",
					"outputs": [
						{
							"internalType": "bool",
							"name": "",
							"type": "bool"
						}
					],
					"stateMutability": "view",
					"type": "function"
				},
				{
					"inputs": [
						{
							"internalType": "uint256",
							"name": "",
							"type": "uint256"
						}
					],
					"name": "nodeList",
					"outputs": [
						{
							"internalType": "address",
							"name": "nodeAddress",
							"type": "address"
						},
						{
							"internalType": "uint256",
							"name": "numSensors",
							"type": "uint256"
						}
					],
					"stateMutability": "view",
					"type": "function"
				},
				{
					"inputs": [
						{
							"internalType": "address",
							"name": "_adminAccount",
							"type": "address"
						}
					],
					"name": "removeAdmin",
					"outputs": [],
					"stateMutability": "nonpayable",
					"type": "function"
				},
				{
					"inputs": [
						{
							"internalType": "address",
							"name": "_nodeaddress",
							"type": "address"
						}
					],
					"name": "removeNode",
					"outputs": [],
					"stateMutability": "nonpayable",
					"type": "function"
				},
				{
					"inputs": [
						{
							"internalType": "bytes32",
							"name": "role",
							"type": "bytes32"
						},
						{
							"internalType": "address",
							"name": "account",
							"type": "address"
						}
					],
					"name": "renounceRole",
					"outputs": [],
					"stateMutability": "nonpayable",
					"type": "function"
				},
				{
					"inputs": [
						{
							"internalType": "int256[]",
							"name": "_sensordata",
							"type": "int256[]"
						}
					],
					"name": "reportData",
					"outputs": [],
					"stateMutability": "nonpayable",
					"type": "function"
				},
				{
					"inputs": [
						{
							"internalType": "bytes32",
							"name": "role",
							"type": "bytes32"
						},
						{
							"internalType": "address",
							"name": "account",
							"type": "address"
						}
					],
					"name": "revokeRole",
					"outputs": [],
					"stateMutability": "nonpayable",
					"type": "function"
				},
				{
					"inputs": [],
					"name": "sensorTimeout",
					"outputs": [
						{
							"internalType": "uint256",
							"name": "",
							"type": "uint256"
						}
					],
					"stateMutability": "view",
					"type": "function"
				},
				{
					"inputs": [
						{
							"internalType": "bytes4",
							"name": "interfaceId",
							"type": "bytes4"
						}
					],
					"name": "supportsInterface",
					"outputs": [
						{
							"internalType": "bool",
							"name": "",
							"type": "bool"
						}
					],
					"stateMutability": "view",
					"type": "function"
				},
				{
					"inputs": [],
					"name": "targetPercentage",
					"outputs": [
						{
							"internalType": "uint256",
							"name": "",
							"type": "uint256"
						}
					],
					"stateMutability": "view",
					"type": "function"
				},
				{
					"inputs": [],
					"name": "totalNodes",
					"outputs": [
						{
							"internalType": "uint256",
							"name": "",
							"type": "uint256"
						}
					],
					"stateMutability": "view",
					"type": "function"
				},
				{
					"inputs": [],
					"name": "totalSensors",
					"outputs": [
						{
							"internalType": "uint256",
							"name": "",
							"type": "uint256"
						}
					],
					"stateMutability": "view",
					"type": "function"
				}
			],
			"devdoc": {
				"kind": "dev",
				"methods": {
					"getRoleAdmin(bytes32)": {
						"details": "Returns the admin role that controls `role`. See {grantRole} and {revokeRole}. To change a role's admin, use {_setRoleAdmin}."
					},
					"grantRole(bytes32,address)": {
						"details": "Grants `role` to `account`. If `account` had not been already granted `role`, emits a {RoleGranted} event. Requirements: - the caller must have ``role``'s admin role."
					},
					"hasRole(bytes32,address)": {
						"details": "Returns `true` if `account` has been granted `role`."
					},
					"renounceRole(bytes32,address)": {
						"details": "Revokes `role` from the calling account. Roles are often managed via {grantRole} and {revokeRole}: this function's purpose is to provide a mechanism for accounts to lose their privileges if they are compromised (such as when a trusted device is misplaced). If the calling account had been revoked `role`, emits a {RoleRevoked} event. Requirements: - the caller must be `account`."
					},
					"revokeRole(bytes32,address)": {
						"details": "Revokes `role` from `account`. If `account` had been granted `role`, emits a {RoleRevoked} event. Requirements: - the caller must have ``role``'s admin role."
					},
					"supportsInterface(bytes4)": {
						"details": "See {IERC165-supportsInterface}."
					}
				},
				"version": 1
			},
			"evm": {
				"assembly": "    /* \"src/contracts/Desca.sol\":147:4870  contract DeSCA is AccessControl {... */\n  mstore(0x40, 0x80)\n    /* \"src/contracts/Desca.sol\":1627:1926  constructor(uint256 _targetpercent, uint256 _timeout) {... */\n  callvalue\n  dup1\n  iszero\n  tag_1\n  jumpi\n  0x00\n  dup1\n  revert\ntag_1:\n  pop\n  mload(0x40)\n  sub(codesize, bytecodeSize)\n  dup1\n  bytecodeSize\n  dup4\n  codecopy\n  dup2\n  dup2\n  add\n  0x40\n  mstore\n  dup2\n  add\n  swap1\n  tag_2\n  swap2\n  swap1\n  tag_3\n  jump\t// in\ntag_2:\n    /* \"src/contracts/Desca.sol\":1691:1733  _setupRole(DEFAULT_ADMIN_ROLE, msg.sender) */\n  tag_6\n    /* \"@openzeppelin/contracts/access/AccessControl.sol\":2072:2076  0x00 */\n  0x00\n    /* \"src/contracts/Desca.sol\":1702:1720  DEFAULT_ADMIN_ROLE */\n  dup1\n  shl\n    /* \"src/contracts/Desca.sol\":1722:1732  msg.sender */\n  caller\n    /* \"src/contracts/Desca.sol\":1691:1701  _setupRole */\n  shl(0x20, tag_7)\n    /* \"src/contracts/Desca.sol\":1691:1733  _setupRole(DEFAULT_ADMIN_ROLE, msg.sender) */\n  0x20\n  shr\n  jump\t// in\ntag_6:\n    /* \"src/contracts/Desca.sol\":1756:1757  0 */\n  0x00\n    /* \"src/contracts/Desca.sol\":1743:1753  totalNodes */\n  0x01\n    /* \"src/contracts/Desca.sol\":1743:1757  totalNodes = 0 */\n  dup2\n  swap1\n  sstore\n  pop\n    /* \"src/contracts/Desca.sol\":1786:1800  _targetpercent */\n  dup2\n    /* \"src/contracts/Desca.sol\":1767:1783  targetPercentage */\n  0x03\n    /* \"src/contracts/Desca.sol\":1767:1800  targetPercentage = _targetpercent */\n  dup2\n  swap1\n  sstore\n  pop\n    /* \"src/contracts/Desca.sol\":1826:1834  _timeout */\n  dup1\n    /* \"src/contracts/Desca.sol\":1810:1823  sensorTimeout */\n  0x04\n    /* \"src/contracts/Desca.sol\":1810:1834  sensorTimeout = _timeout */\n  dup2\n  swap1\n  sstore\n  pop\n    /* \"src/contracts/Desca.sol\":1857:1862  false */\n  0x00\n    /* \"src/contracts/Desca.sol\":1844:1854  flightflag */\n  0x05\n  0x00\n    /* \"src/contracts/Desca.sol\":1844:1862  flightflag = false */\n  0x0100\n  exp\n  dup2\n  sload\n  dup2\n  0xff\n  mul\n  not\n  and\n  swap1\n  dup4\n  iszero\n  iszero\n  mul\n  or\n  swap1\n  sstore\n  pop\n    /* \"src/contracts/Desca.sol\":1872:1919  _setRoleAdmin(DATA_SENDER_ROLE, NET_ADMIN_ROLE) */\n  tag_8\n    /* \"src/contracts/Desca.sol\":504:533  keccak256(\"DATA_SENDER_ROLE\") */\n  0x086a7396bbeb0581a4f317ffb5b19566e9ecad105ee98e26d73cec5f34249022\n    /* \"src/contracts/Desca.sol\":642:669  keccak256(\"NET_ADMIN_ROLE\") */\n  0xa9cdaf89344a3579f43cc1eccbbe69ee73528d7c39b7f8ad0a660286f0c544ad\n    /* \"src/contracts/Desca.sol\":1872:1885  _setRoleAdmin */\n  shl(0x20, tag_9)\n    /* \"src/contracts/Desca.sol\":1872:1919  _setRoleAdmin(DATA_SENDER_ROLE, NET_ADMIN_ROLE) */\n  0x20\n  shr\n  jump\t// in\ntag_8:\n    /* \"src/contracts/Desca.sol\":1627:1926  constructor(uint256 _targetpercent, uint256 _timeout) {... */\n  pop\n  pop\n    /* \"src/contracts/Desca.sol\":147:4870  contract DeSCA is AccessControl {... */\n  jump(tag_10)\n    /* \"@openzeppelin/contracts/access/AccessControl.sol\":6257:6367  function _setupRole(bytes32 role, address account) internal virtual {... */\ntag_7:\n    /* \"@openzeppelin/contracts/access/AccessControl.sol\":6335:6360  _grantRole(role, account) */\n  tag_12\n    /* \"@openzeppelin/contracts/access/AccessControl.sol\":6346:6350  role */\n  dup3\n    /* \"@openzeppelin/contracts/access/AccessControl.sol\":6352:6359  account */\n  dup3\n    /* \"@openzeppelin/contracts/access/AccessControl.sol\":6335:6345  _grantRole */\n  shl(0x20, tag_13)\n    /* \"@openzeppelin/contracts/access/AccessControl.sol\":6335:6360  _grantRole(role, account) */\n  0x20\n  shr\n  jump\t// in\ntag_12:\n    /* \"@openzeppelin/contracts/access/AccessControl.sol\":6257:6367  function _setupRole(bytes32 role, address account) internal virtual {... */\n  pop\n  pop\n  jump\t// out\n    /* \"@openzeppelin/contracts/access/AccessControl.sol\":6492:6739  function _setRoleAdmin(bytes32 role, bytes32 adminRole) internal virtual {... */\ntag_9:\n    /* \"@openzeppelin/contracts/access/AccessControl.sol\":6575:6600  bytes32 previousAdminRole */\n  0x00\n    /* \"@openzeppelin/contracts/access/AccessControl.sol\":6603:6621  getRoleAdmin(role) */\n  tag_15\n    /* \"@openzeppelin/contracts/access/AccessControl.sol\":6616:6620  role */\n  dup4\n    /* \"@openzeppelin/contracts/access/AccessControl.sol\":6603:6615  getRoleAdmin */\n  shl(0x20, tag_16)\n    /* \"@openzeppelin/contracts/access/AccessControl.sol\":6603:6621  getRoleAdmin(role) */\n  0x20\n  shr\n  jump\t// in\ntag_15:\n    /* \"@openzeppelin/contracts/access/AccessControl.sol\":6575:6621  bytes32 previousAdminRole = getRoleAdmin(role) */\n  swap1\n  pop\n    /* \"@openzeppelin/contracts/access/AccessControl.sol\":6656:6665  adminRole */\n  dup2\n    /* \"@openzeppelin/contracts/access/AccessControl.sol\":6631:6637  _roles */\n  0x00\n    /* \"@openzeppelin/contracts/access/AccessControl.sol\":6631:6643  _roles[role] */\n  dup1\n    /* \"@openzeppelin/contracts/access/AccessControl.sol\":6638:6642  role */\n  dup6\n    /* \"@openzeppelin/contracts/access/AccessControl.sol\":6631:6643  _roles[role] */\n  dup2\n  mstore\n  0x20\n  add\n  swap1\n  dup2\n  mstore\n  0x20\n  add\n  0x00\n  keccak256\n    /* \"@openzeppelin/contracts/access/AccessControl.sol\":6631:6653  _roles[role].adminRole */\n  0x01\n  add\n    /* \"@openzeppelin/contracts/access/AccessControl.sol\":6631:6665  _roles[role].adminRole = adminRole */\n  dup2\n  swap1\n  sstore\n  pop\n    /* \"@openzeppelin/contracts/access/AccessControl.sol\":6722:6731  adminRole */\n  dup2\n    /* \"@openzeppelin/contracts/access/AccessControl.sol\":6703:6720  previousAdminRole */\n  dup2\n    /* \"@openzeppelin/contracts/access/AccessControl.sol\":6697:6701  role */\n  dup5\n    /* \"@openzeppelin/contracts/access/AccessControl.sol\":6680:6732  RoleAdminChanged(role, previousAdminRole, adminRole) */\n  0xbd79b86ffe0ab8e8776151514217cd7cacd52c909f66475c3af44e129f0b00ff\n  mload(0x40)\n  mload(0x40)\n  dup1\n  swap2\n  sub\n  swap1\n  log4\n    /* \"@openzeppelin/contracts/access/AccessControl.sol\":6565:6739  {... */\n  pop\n    /* \"@openzeppelin/contracts/access/AccessControl.sol\":6492:6739  function _setRoleAdmin(bytes32 role, bytes32 adminRole) internal virtual {... */\n  pop\n  pop\n  jump\t// out\n    /* \"@openzeppelin/contracts/access/AccessControl.sol\":6861:7094  function _grantRole(bytes32 role, address account) internal virtual {... */\ntag_13:\n    /* \"@openzeppelin/contracts/access/AccessControl.sol\":6944:6966  hasRole(role, account) */\n  tag_18\n    /* \"@openzeppelin/contracts/access/AccessControl.sol\":6952:6956  role */\n  dup3\n    /* \"@openzeppelin/contracts/access/AccessControl.sol\":6958:6965  account */\n  dup3\n    /* \"@openzeppelin/contracts/access/AccessControl.sol\":6944:6951  hasRole */\n  shl(0x20, tag_19)\n    /* \"@openzeppelin/contracts/access/AccessControl.sol\":6944:6966  hasRole(role, account) */\n  0x20\n  shr\n  jump\t// in\ntag_18:\n    /* \"@openzeppelin/contracts/access/AccessControl.sol\":6939:7088  if (!hasRole(role, account)) {... */\n  tag_20\n  jumpi\n    /* \"@openzeppelin/contracts/access/AccessControl.sol\":7014:7018  true */\n  0x01\n    /* \"@openzeppelin/contracts/access/AccessControl.sol\":6982:6988  _roles */\n  0x00\n    /* \"@openzeppelin/contracts/access/AccessControl.sol\":6982:6994  _roles[role] */\n  dup1\n    /* \"@openzeppelin/contracts/access/AccessControl.sol\":6989:6993  role */\n  dup5\n    /* \"@openzeppelin/contracts/access/AccessControl.sol\":6982:6994  _roles[role] */\n  dup2\n  mstore\n  0x20\n  add\n  swap1\n  dup2\n  mstore\n  0x20\n  add\n  0x00\n  keccak256\n    /* \"@openzeppelin/contracts/access/AccessControl.sol\":6982:7002  _roles[role].members */\n  0x00\n  add\n    /* \"@openzeppelin/contracts/access/AccessControl.sol\":6982:7011  _roles[role].members[account] */\n  0x00\n    /* \"@openzeppelin/contracts/access/AccessControl.sol\":7003:7010  account */\n  dup4\n    /* \"@openzeppelin/contracts/access/AccessControl.sol\":6982:7011  _roles[role].members[account] */\n  0xffffffffffffffffffffffffffffffffffffffff\n  and\n  0xffffffffffffffffffffffffffffffffffffffff\n  and\n  dup2\n  mstore\n  0x20\n  add\n  swap1\n  dup2\n  mstore\n  0x20\n  add\n  0x00\n  keccak256\n  0x00\n    /* \"@openzeppelin/contracts/access/AccessControl.sol\":6982:7018  _roles[role].members[account] = true */\n  0x0100\n  exp\n  dup2\n  sload\n  dup2\n  0xff\n  mul\n  not\n  and\n  swap1\n  dup4\n  iszero\n  iszero\n  mul\n  or\n  swap1\n  sstore\n  pop\n    /* \"@openzeppelin/contracts/access/AccessControl.sol\":7064:7076  _msgSender() */\n  tag_21\n    /* \"@openzeppelin/contracts/access/AccessControl.sol\":7064:7074  _msgSender */\n  shl(0x20, tag_22)\n    /* \"@openzeppelin/contracts/access/AccessControl.sol\":7064:7076  _msgSender() */\n  0x20\n  shr\n  jump\t// in\ntag_21:\n    /* \"@openzeppelin/contracts/access/AccessControl.sol\":7037:7077  RoleGranted(role, account, _msgSender()) */\n  0xffffffffffffffffffffffffffffffffffffffff\n  and\n    /* \"@openzeppelin/contracts/access/AccessControl.sol\":7055:7062  account */\n  dup2\n    /* \"@openzeppelin/contracts/access/AccessControl.sol\":7037:7077  RoleGranted(role, account, _msgSender()) */\n  0xffffffffffffffffffffffffffffffffffffffff\n  and\n    /* \"@openzeppelin/contracts/access/AccessControl.sol\":7049:7053  role */\n  dup4\n    /* \"@openzeppelin/contracts/access/AccessControl.sol\":7037:7077  RoleGranted(role, account, _msgSender()) */\n  0x2f8788117e7eff1d82e926ec794901d17c78024a50270940304540a733656f0d\n  mload(0x40)\n  mload(0x40)\n  dup1\n  swap2\n  sub\n  swap1\n  log4\n    /* \"@openzeppelin/contracts/access/AccessControl.sol\":6939:7088  if (!hasRole(role, account)) {... */\ntag_20:\n    /* \"@openzeppelin/contracts/access/AccessControl.sol\":6861:7094  function _grantRole(bytes32 role, address account) internal virtual {... */\n  pop\n  pop\n  jump\t// out\n    /* \"@openzeppelin/contracts/access/AccessControl.sol\":4008:4137  function getRoleAdmin(bytes32 role) public view virtual override returns (bytes32) {... */\ntag_16:\n    /* \"@openzeppelin/contracts/access/AccessControl.sol\":4082:4089  bytes32 */\n  0x00\n    /* \"@openzeppelin/contracts/access/AccessControl.sol\":4108:4114  _roles */\n  dup1\n    /* \"@openzeppelin/contracts/access/AccessControl.sol\":4108:4120  _roles[role] */\n  0x00\n    /* \"@openzeppelin/contracts/access/AccessControl.sol\":4115:4119  role */\n  dup4\n    /* \"@openzeppelin/contracts/access/AccessControl.sol\":4108:4120  _roles[role] */\n  dup2\n  mstore\n  0x20\n  add\n  swap1\n  dup2\n  mstore\n  0x20\n  add\n  0x00\n  keccak256\n    /* \"@openzeppelin/contracts/access/AccessControl.sol\":4108:4130  _roles[role].adminRole */\n  0x01\n  add\n  sload\n    /* \"@openzeppelin/contracts/access/AccessControl.sol\":4101:4130  return _roles[role].adminRole */\n  swap1\n  pop\n    /* \"@openzeppelin/contracts/access/AccessControl.sol\":4008:4137  function getRoleAdmin(bytes32 role) public view virtual override returns (bytes32) {... */\n  swap2\n  swap1\n  pop\n  jump\t// out\n    /* \"@openzeppelin/contracts/access/AccessControl.sol\":2909:3054  function hasRole(bytes32 role, address account) public view virtual override returns (bool) {... */\ntag_19:\n    /* \"@openzeppelin/contracts/access/AccessControl.sol\":2995:2999  bool */\n  0x00\n    /* \"@openzeppelin/contracts/access/AccessControl.sol\":3018:3024  _roles */\n  dup1\n    /* \"@openzeppelin/contracts/access/AccessControl.sol\":3018:3030  _roles[role] */\n  0x00\n    /* \"@openzeppelin/contracts/access/AccessControl.sol\":3025:3029  role */\n  dup5\n    /* \"@openzeppelin/contracts/access/AccessControl.sol\":3018:3030  _roles[role] */\n  dup2\n  mstore\n  0x20\n  add\n  swap1\n  dup2\n  mstore\n  0x20\n  add\n  0x00\n  keccak256\n    /* \"@openzeppelin/contracts/access/AccessControl.sol\":3018:3038  _roles[role].members */\n  0x00\n  add\n    /* \"@openzeppelin/contracts/access/AccessControl.sol\":3018:3047  _roles[role].members[account] */\n  0x00\n    /* \"@openzeppelin/contracts/access/AccessControl.sol\":3039:3046  account */\n  dup4\n    /* \"@openzeppelin/contracts/access/AccessControl.sol\":3018:3047  _roles[role].members[account] */\n  0xffffffffffffffffffffffffffffffffffffffff\n  and\n  0xffffffffffffffffffffffffffffffffffffffff\n  and\n  dup2\n  mstore\n  0x20\n  add\n  swap1\n  dup2\n  mstore\n  0x20\n  add\n  0x00\n  keccak256\n  0x00\n  swap1\n  sload\n  swap1\n  0x0100\n  exp\n  swap1\n  div\n  0xff\n  and\n    /* \"@openzeppelin/contracts/access/AccessControl.sol\":3011:3047  return _roles[role].members[account] */\n  swap1\n  pop\n    /* \"@openzeppelin/contracts/access/AccessControl.sol\":2909:3054  function hasRole(bytes32 role, address account) public view virtual override returns (bool) {... */\n  swap3\n  swap2\n  pop\n  pop\n  jump\t// out\n    /* \"@openzeppelin/contracts/utils/Context.sol\":640:736  function _msgSender() internal view virtual returns (address) {... */\ntag_22:\n    /* \"@openzeppelin/contracts/utils/Context.sol\":693:700  address */\n  0x00\n    /* \"@openzeppelin/contracts/utils/Context.sol\":719:729  msg.sender */\n  caller\n    /* \"@openzeppelin/contracts/utils/Context.sol\":712:729  return msg.sender */\n  swap1\n  pop\n    /* \"@openzeppelin/contracts/utils/Context.sol\":640:736  function _msgSender() internal view virtual returns (address) {... */\n  swap1\n  jump\t// out\n    /* \"#utility.yul\":88:205   */\ntag_27:\n    /* \"#utility.yul\":197:198   */\n  0x00\n    /* \"#utility.yul\":194:195   */\n  dup1\n    /* \"#utility.yul\":187:199   */\n  revert\n    /* \"#utility.yul\":334:411   */\ntag_29:\n    /* \"#utility.yul\":371:378   */\n  0x00\n    /* \"#utility.yul\":400:405   */\n  dup2\n    /* \"#utility.yul\":389:405   */\n  swap1\n  pop\n    /* \"#utility.yul\":334:411   */\n  swap2\n  swap1\n  pop\n  jump\t// out\n    /* \"#utility.yul\":417:539   */\ntag_30:\n    /* \"#utility.yul\":490:514   */\n  tag_38\n    /* \"#utility.yul\":508:513   */\n  dup2\n    /* \"#utility.yul\":490:514   */\n  tag_29\n  jump\t// in\ntag_38:\n    /* \"#utility.yul\":483:488   */\n  dup2\n    /* \"#utility.yul\":480:515   */\n  eq\n    /* \"#utility.yul\":470:533   */\n  tag_39\n  jumpi\n    /* \"#utility.yul\":529:530   */\n  0x00\n    /* \"#utility.yul\":526:527   */\n  dup1\n    /* \"#utility.yul\":519:531   */\n  revert\n    /* \"#utility.yul\":470:533   */\ntag_39:\n    /* \"#utility.yul\":417:539   */\n  pop\n  jump\t// out\n    /* \"#utility.yul\":545:688   */\ntag_31:\n    /* \"#utility.yul\":602:607   */\n  0x00\n    /* \"#utility.yul\":633:639   */\n  dup2\n    /* \"#utility.yul\":627:640   */\n  mload\n    /* \"#utility.yul\":618:640   */\n  swap1\n  pop\n    /* \"#utility.yul\":649:682   */\n  tag_41\n    /* \"#utility.yul\":676:681   */\n  dup2\n    /* \"#utility.yul\":649:682   */\n  tag_30\n  jump\t// in\ntag_41:\n    /* \"#utility.yul\":545:688   */\n  swap3\n  swap2\n  pop\n  pop\n  jump\t// out\n    /* \"#utility.yul\":694:1201   */\ntag_3:\n    /* \"#utility.yul\":773:779   */\n  0x00\n    /* \"#utility.yul\":781:787   */\n  dup1\n    /* \"#utility.yul\":830:832   */\n  0x40\n    /* \"#utility.yul\":818:827   */\n  dup4\n    /* \"#utility.yul\":809:816   */\n  dup6\n    /* \"#utility.yul\":805:828   */\n  sub\n    /* \"#utility.yul\":801:833   */\n  slt\n    /* \"#utility.yul\":798:917   */\n  iszero\n  tag_43\n  jumpi\n    /* \"#utility.yul\":836:915   */\n  tag_44\n  tag_27\n  jump\t// in\ntag_44:\n    /* \"#utility.yul\":798:917   */\ntag_43:\n    /* \"#utility.yul\":956:957   */\n  0x00\n    /* \"#utility.yul\":981:1045   */\n  tag_45\n    /* \"#utility.yul\":1037:1044   */\n  dup6\n    /* \"#utility.yul\":1028:1034   */\n  dup3\n    /* \"#utility.yul\":1017:1026   */\n  dup7\n    /* \"#utility.yul\":1013:1035   */\n  add\n    /* \"#utility.yul\":981:1045   */\n  tag_31\n  jump\t// in\ntag_45:\n    /* \"#utility.yul\":971:1045   */\n  swap3\n  pop\n    /* \"#utility.yul\":927:1055   */\n  pop\n    /* \"#utility.yul\":1094:1096   */\n  0x20\n    /* \"#utility.yul\":1120:1184   */\n  tag_46\n    /* \"#utility.yul\":1176:1183   */\n  dup6\n    /* \"#utility.yul\":1167:1173   */\n  dup3\n    /* \"#utility.yul\":1156:1165   */\n  dup7\n    /* \"#utility.yul\":1152:1174   */\n  add\n    /* \"#utility.yul\":1120:1184   */\n  tag_31\n  jump\t// in\ntag_46:\n    /* \"#utility.yul\":1110:1184   */\n  swap2\n  pop\n    /* \"#utility.yul\":1065:1194   */\n  pop\n    /* \"#utility.yul\":694:1201   */\n  swap3\n  pop\n  swap3\n  swap1\n  pop\n  jump\t// out\n    /* \"src/contracts/Desca.sol\":147:4870  contract DeSCA is AccessControl {... */\ntag_10:\n  dataSize(sub_0)\n  dup1\n  dataOffset(sub_0)\n  0x00\n  codecopy\n  0x00\n  return\nstop\n\nsub_0: assembly {\n        /* \"src/contracts/Desca.sol\":147:4870  contract DeSCA is AccessControl {... */\n      mstore(0x40, 0x80)\n      callvalue\n      dup1\n      iszero\n      tag_1\n      jumpi\n      0x00\n      dup1\n      revert\n    tag_1:\n      pop\n      jumpi(tag_2, lt(calldatasize, 0x04))\n      shr(0xe0, calldataload(0x00))\n      dup1\n      0x9d95f1cc\n      gt\n      tag_24\n      jumpi\n      dup1\n      0xd048d58c\n      gt\n      tag_25\n      jumpi\n      dup1\n      0xd048d58c\n      eq\n      tag_18\n      jumpi\n      dup1\n      0xd1f43a4f\n      eq\n      tag_19\n      jumpi\n      dup1\n      0xd547741f\n      eq\n      tag_20\n      jumpi\n      dup1\n      0xd87855aa\n      eq\n      tag_21\n      jumpi\n      dup1\n      0xe690f6e1\n      eq\n      tag_22\n      jumpi\n      dup1\n      0xe9c26518\n      eq\n      tag_23\n      jumpi\n      jump(tag_2)\n    tag_25:\n      dup1\n      0x9d95f1cc\n      eq\n      tag_13\n      jumpi\n      dup1\n      0xa217fddf\n      eq\n      tag_14\n      jumpi\n      dup1\n      0xb2b99ec9\n      eq\n      tag_15\n      jumpi\n      dup1\n      0xb9be532b\n      eq\n      tag_16\n      jumpi\n      dup1\n      0xc1bb0a5a\n      eq\n      tag_17\n      jumpi\n      jump(tag_2)\n    tag_24:\n      dup1\n      0x36568abe\n      gt\n      tag_26\n      jumpi\n      dup1\n      0x36568abe\n      eq\n      tag_8\n      jumpi\n      dup1\n      0x676e7a99\n      eq\n      tag_9\n      jumpi\n      dup1\n      0x70480275\n      eq\n      tag_10\n      jumpi\n      dup1\n      0x91d14854\n      eq\n      tag_11\n      jumpi\n      dup1\n      0x9592d424\n      eq\n      tag_12\n      jumpi\n      jump(tag_2)\n    tag_26:\n      dup1\n      0x01ffc9a7\n      eq\n      tag_3\n      jumpi\n      dup1\n      0x1785f53c\n      eq\n      tag_4\n      jumpi\n      dup1\n      0x208f2a31\n      eq\n      tag_5\n      jumpi\n      dup1\n      0x248a9ca3\n      eq\n      tag_6\n      jumpi\n      dup1\n      0x2f2ff15d\n      eq\n      tag_7\n      jumpi\n    tag_2:\n      0x00\n      dup1\n      revert\n        /* \"@openzeppelin/contracts/access/AccessControl.sol\":2620:2822  function supportsInterface(bytes4 interfaceId) public view virtual override returns (bool) {... */\n    tag_3:\n      tag_27\n      0x04\n      dup1\n      calldatasize\n      sub\n      dup2\n      add\n      swap1\n      tag_28\n      swap2\n      swap1\n      tag_29\n      jump\t// in\n    tag_28:\n      tag_30\n      jump\t// in\n    tag_27:\n      mload(0x40)\n      tag_31\n      swap2\n      swap1\n      tag_32\n      jump\t// in\n    tag_31:\n      mload(0x40)\n      dup1\n      swap2\n      sub\n      swap1\n      return\n        /* \"src/contracts/Desca.sol\":2101:2268  function removeAdmin(address _adminAccount) public {... */\n    tag_4:\n      tag_33\n      0x04\n      dup1\n      calldatasize\n      sub\n      dup2\n      add\n      swap1\n      tag_34\n      swap2\n      swap1\n      tag_35\n      jump\t// in\n    tag_34:\n      tag_36\n      jump\t// in\n    tag_33:\n      stop\n        /* \"src/contracts/Desca.sol\":1534:1556  node[] public nodeList */\n    tag_5:\n      tag_37\n      0x04\n      dup1\n      calldatasize\n      sub\n      dup2\n      add\n      swap1\n      tag_38\n      swap2\n      swap1\n      tag_39\n      jump\t// in\n    tag_38:\n      tag_40\n      jump\t// in\n    tag_37:\n      mload(0x40)\n      tag_41\n      swap3\n      swap2\n      swap1\n      tag_42\n      jump\t// in\n    tag_41:\n      mload(0x40)\n      dup1\n      swap2\n      sub\n      swap1\n      return\n        /* \"@openzeppelin/contracts/access/AccessControl.sol\":4008:4137  function getRoleAdmin(bytes32 role) public view virtual override returns (bytes32) {... */\n    tag_6:\n      tag_43\n      0x04\n      dup1\n      calldatasize\n      sub\n      dup2\n      add\n      swap1\n      tag_44\n      swap2\n      swap1\n      tag_45\n      jump\t// in\n    tag_44:\n      tag_46\n      jump\t// in\n    tag_43:\n      mload(0x40)\n      tag_47\n      swap2\n      swap1\n      tag_48\n      jump\t// in\n    tag_47:\n      mload(0x40)\n      dup1\n      swap2\n      sub\n      swap1\n      return\n        /* \"@openzeppelin/contracts/access/AccessControl.sol\":4387:4532  function grantRole(bytes32 role, address account) public virtual override onlyRole(getRoleAdmin(role)) {... */\n    tag_7:\n      tag_49\n      0x04\n      dup1\n      calldatasize\n      sub\n      dup2\n      add\n      swap1\n      tag_50\n      swap2\n      swap1\n      tag_51\n      jump\t// in\n    tag_50:\n      tag_52\n      jump\t// in\n    tag_49:\n      stop\n        /* \"@openzeppelin/contracts/access/AccessControl.sol\":5404:5618  function renounceRole(bytes32 role, address account) public virtual override {... */\n    tag_8:\n      tag_53\n      0x04\n      dup1\n      calldatasize\n      sub\n      dup2\n      add\n      swap1\n      tag_54\n      swap2\n      swap1\n      tag_51\n      jump\t// in\n    tag_54:\n      tag_55\n      jump\t// in\n    tag_53:\n      stop\n        /* \"src/contracts/Desca.sol\":2907:4868  function reportData(int256[] calldata _sensordata) external {... */\n    tag_9:\n      tag_56\n      0x04\n      dup1\n      calldatasize\n      sub\n      dup2\n      add\n      swap1\n      tag_57\n      swap2\n      swap1\n      tag_58\n      jump\t// in\n    tag_57:\n      tag_59\n      jump\t// in\n    tag_56:\n      stop\n        /* \"src/contracts/Desca.sol\":1932:2095  function addAdmin(address _adminAccount) public {... */\n    tag_10:\n      tag_60\n      0x04\n      dup1\n      calldatasize\n      sub\n      dup2\n      add\n      swap1\n      tag_61\n      swap2\n      swap1\n      tag_35\n      jump\t// in\n    tag_61:\n      tag_62\n      jump\t// in\n    tag_60:\n      stop\n        /* \"@openzeppelin/contracts/access/AccessControl.sol\":2909:3054  function hasRole(bytes32 role, address account) public view virtual override returns (bool) {... */\n    tag_11:\n      tag_63\n      0x04\n      dup1\n      calldatasize\n      sub\n      dup2\n      add\n      swap1\n      tag_64\n      swap2\n      swap1\n      tag_51\n      jump\t// in\n    tag_64:\n      tag_65\n      jump\t// in\n    tag_63:\n      mload(0x40)\n      tag_66\n      swap2\n      swap1\n      tag_32\n      jump\t// in\n    tag_66:\n      mload(0x40)\n      dup1\n      swap2\n      sub\n      swap1\n      return\n        /* \"src/contracts/Desca.sol\":1137:1162  uint256 public totalNodes */\n    tag_12:\n      tag_67\n      tag_68\n      jump\t// in\n    tag_67:\n      mload(0x40)\n      tag_69\n      swap2\n      swap1\n      tag_70\n      jump\t// in\n    tag_69:\n      mload(0x40)\n      dup1\n      swap2\n      sub\n      swap1\n      return\n        /* \"src/contracts/Desca.sol\":2274:2596  function addNode(address _nodeaddress) public {... */\n    tag_13:\n      tag_71\n      0x04\n      dup1\n      calldatasize\n      sub\n      dup2\n      add\n      swap1\n      tag_72\n      swap2\n      swap1\n      tag_35\n      jump\t// in\n    tag_72:\n      tag_73\n      jump\t// in\n    tag_71:\n      stop\n        /* \"@openzeppelin/contracts/access/AccessControl.sol\":2027:2076  bytes32 public constant DEFAULT_ADMIN_ROLE = 0x00 */\n    tag_14:\n      tag_74\n      tag_75\n      jump\t// in\n    tag_74:\n      mload(0x40)\n      tag_76\n      swap2\n      swap1\n      tag_48\n      jump\t// in\n    tag_76:\n      mload(0x40)\n      dup1\n      swap2\n      sub\n      swap1\n      return\n        /* \"src/contracts/Desca.sol\":2602:2764  function removeNode(address _nodeaddress) public {... */\n    tag_15:\n      tag_77\n      0x04\n      dup1\n      calldatasize\n      sub\n      dup2\n      add\n      swap1\n      tag_78\n      swap2\n      swap1\n      tag_35\n      jump\t// in\n    tag_78:\n      tag_79\n      jump\t// in\n    tag_77:\n      stop\n        /* \"src/contracts/Desca.sol\":461:533  bytes32 public constant DATA_SENDER_ROLE = keccak256(\"DATA_SENDER_ROLE\") */\n    tag_16:\n      tag_80\n      tag_81\n      jump\t// in\n    tag_80:\n      mload(0x40)\n      tag_82\n      swap2\n      swap1\n      tag_48\n      jump\t// in\n    tag_82:\n      mload(0x40)\n      dup1\n      swap2\n      sub\n      swap1\n      return\n        /* \"src/contracts/Desca.sol\":1347:1375  uint256 public sensorTimeout */\n    tag_17:\n      tag_83\n      tag_84\n      jump\t// in\n    tag_83:\n      mload(0x40)\n      tag_85\n      swap2\n      swap1\n      tag_70\n      jump\t// in\n    tag_85:\n      mload(0x40)\n      dup1\n      swap2\n      sub\n      swap1\n      return\n        /* \"src/contracts/Desca.sol\":601:669  bytes32 public constant NET_ADMIN_ROLE = keccak256(\"NET_ADMIN_ROLE\") */\n    tag_18:\n      tag_86\n      tag_87\n      jump\t// in\n    tag_86:\n      mload(0x40)\n      tag_88\n      swap2\n      swap1\n      tag_48\n      jump\t// in\n    tag_88:\n      mload(0x40)\n      dup1\n      swap2\n      sub\n      swap1\n      return\n        /* \"src/contracts/Desca.sol\":1463:1485  bool public flightflag */\n    tag_19:\n      tag_89\n      tag_90\n      jump\t// in\n    tag_89:\n      mload(0x40)\n      tag_91\n      swap2\n      swap1\n      tag_32\n      jump\t// in\n    tag_91:\n      mload(0x40)\n      dup1\n      swap2\n      sub\n      swap1\n      return\n        /* \"@openzeppelin/contracts/access/AccessControl.sol\":4766:4913  function revokeRole(bytes32 role, address account) public virtual override onlyRole(getRoleAdmin(role)) {... */\n    tag_20:\n      tag_92\n      0x04\n      dup1\n      calldatasize\n      sub\n      dup2\n      add\n      swap1\n      tag_93\n      swap2\n      swap1\n      tag_51\n      jump\t// in\n    tag_93:\n      tag_94\n      jump\t// in\n    tag_92:\n      stop\n        /* \"src/contracts/Desca.sol\":1269:1300  uint256 public targetPercentage */\n    tag_21:\n      tag_95\n      tag_96\n      jump\t// in\n    tag_95:\n      mload(0x40)\n      tag_97\n      swap2\n      swap1\n      tag_70\n      jump\t// in\n    tag_97:\n      mload(0x40)\n      dup1\n      swap2\n      sub\n      swap1\n      return\n        /* \"src/contracts/Desca.sol\":1198:1225  uint256 public totalSensors */\n    tag_22:\n      tag_98\n      tag_99\n      jump\t// in\n    tag_98:\n      mload(0x40)\n      tag_100\n      swap2\n      swap1\n      tag_70\n      jump\t// in\n    tag_100:\n      mload(0x40)\n      dup1\n      swap2\n      sub\n      swap1\n      return\n        /* \"src/contracts/Desca.sol\":539:595  bytes32 public constant DAO_ROLE = keccak256(\"DAO_ROLE\") */\n    tag_23:\n      tag_101\n      tag_102\n      jump\t// in\n    tag_101:\n      mload(0x40)\n      tag_103\n      swap2\n      swap1\n      tag_48\n      jump\t// in\n    tag_103:\n      mload(0x40)\n      dup1\n      swap2\n      sub\n      swap1\n      return\n        /* \"@openzeppelin/contracts/access/AccessControl.sol\":2620:2822  function supportsInterface(bytes4 interfaceId) public view virtual override returns (bool) {... */\n    tag_30:\n        /* \"@openzeppelin/contracts/access/AccessControl.sol\":2705:2709  bool */\n      0x00\n        /* \"@openzeppelin/contracts/access/AccessControl.sol\":2743:2775  type(IAccessControl).interfaceId */\n      0x7965db0b00000000000000000000000000000000000000000000000000000000\n        /* \"@openzeppelin/contracts/access/AccessControl.sol\":2728:2775  interfaceId == type(IAccessControl).interfaceId */\n      not(0xffffffffffffffffffffffffffffffffffffffffffffffffffffffff)\n      and\n        /* \"@openzeppelin/contracts/access/AccessControl.sol\":2728:2739  interfaceId */\n      dup3\n        /* \"@openzeppelin/contracts/access/AccessControl.sol\":2728:2775  interfaceId == type(IAccessControl).interfaceId */\n      not(0xffffffffffffffffffffffffffffffffffffffffffffffffffffffff)\n      and\n      eq\n        /* \"@openzeppelin/contracts/access/AccessControl.sol\":2728:2815  interfaceId == type(IAccessControl).interfaceId || super.supportsInterface(interfaceId) */\n      dup1\n      tag_105\n      jumpi\n      pop\n        /* \"@openzeppelin/contracts/access/AccessControl.sol\":2779:2815  super.supportsInterface(interfaceId) */\n      tag_106\n        /* \"@openzeppelin/contracts/access/AccessControl.sol\":2803:2814  interfaceId */\n      dup3\n        /* \"@openzeppelin/contracts/access/AccessControl.sol\":2779:2802  super.supportsInterface */\n      tag_107\n        /* \"@openzeppelin/contracts/access/AccessControl.sol\":2779:2815  super.supportsInterface(interfaceId) */\n      jump\t// in\n    tag_106:\n        /* \"@openzeppelin/contracts/access/AccessControl.sol\":2728:2815  interfaceId == type(IAccessControl).interfaceId || super.supportsInterface(interfaceId) */\n    tag_105:\n        /* \"@openzeppelin/contracts/access/AccessControl.sol\":2721:2815  return interfaceId == type(IAccessControl).interfaceId || super.supportsInterface(interfaceId) */\n      swap1\n      pop\n        /* \"@openzeppelin/contracts/access/AccessControl.sol\":2620:2822  function supportsInterface(bytes4 interfaceId) public view virtual override returns (bool) {... */\n      swap2\n      swap1\n      pop\n      jump\t// out\n        /* \"src/contracts/Desca.sol\":2101:2268  function removeAdmin(address _adminAccount) public {... */\n    tag_36:\n        /* \"src/contracts/Desca.sol\":2170:2209  hasRole(DEFAULT_ADMIN_ROLE, msg.sender) */\n      tag_109\n        /* \"@openzeppelin/contracts/access/AccessControl.sol\":2072:2076  0x00 */\n      0x00\n        /* \"src/contracts/Desca.sol\":2178:2196  DEFAULT_ADMIN_ROLE */\n      dup1\n      shl\n        /* \"src/contracts/Desca.sol\":2198:2208  msg.sender */\n      caller\n        /* \"src/contracts/Desca.sol\":2170:2177  hasRole */\n      tag_65\n        /* \"src/contracts/Desca.sol\":2170:2209  hasRole(DEFAULT_ADMIN_ROLE, msg.sender) */\n      jump\t// in\n    tag_109:\n        /* \"src/contracts/Desca.sol\":2162:2210  require(hasRole(DEFAULT_ADMIN_ROLE, msg.sender)) */\n      tag_110\n      jumpi\n      0x00\n      dup1\n      revert\n    tag_110:\n        /* \"src/contracts/Desca.sol\":2220:2261  revokeRole(NET_ADMIN_ROLE, _adminAccount) */\n      tag_111\n        /* \"src/contracts/Desca.sol\":642:669  keccak256(\"NET_ADMIN_ROLE\") */\n      0xa9cdaf89344a3579f43cc1eccbbe69ee73528d7c39b7f8ad0a660286f0c544ad\n        /* \"src/contracts/Desca.sol\":2247:2260  _adminAccount */\n      dup3\n        /* \"src/contracts/Desca.sol\":2220:2230  revokeRole */\n      tag_94\n        /* \"src/contracts/Desca.sol\":2220:2261  revokeRole(NET_ADMIN_ROLE, _adminAccount) */\n      jump\t// in\n    tag_111:\n        /* \"src/contracts/Desca.sol\":2101:2268  function removeAdmin(address _adminAccount) public {... */\n      pop\n      jump\t// out\n        /* \"src/contracts/Desca.sol\":1534:1556  node[] public nodeList */\n    tag_40:\n      0x06\n      dup2\n      dup2\n      sload\n      dup2\n      lt\n      tag_112\n      jumpi\n      0x00\n      dup1\n      revert\n    tag_112:\n      swap1\n      0x00\n      mstore\n      keccak256(0x00, 0x20)\n      swap1\n      0x06\n      mul\n      add\n      0x00\n      swap2\n      pop\n      swap1\n      pop\n      dup1\n      0x00\n      add\n      0x00\n      swap1\n      sload\n      swap1\n      0x0100\n      exp\n      swap1\n      div\n      0xffffffffffffffffffffffffffffffffffffffff\n      and\n      swap1\n      dup1\n      0x01\n      add\n      sload\n      swap1\n      pop\n      dup3\n      jump\t// out\n        /* \"@openzeppelin/contracts/access/AccessControl.sol\":4008:4137  function getRoleAdmin(bytes32 role) public view virtual override returns (bytes32) {... */\n    tag_46:\n        /* \"@openzeppelin/contracts/access/AccessControl.sol\":4082:4089  bytes32 */\n      0x00\n        /* \"@openzeppelin/contracts/access/AccessControl.sol\":4108:4114  _roles */\n      dup1\n        /* \"@openzeppelin/contracts/access/AccessControl.sol\":4108:4120  _roles[role] */\n      0x00\n        /* \"@openzeppelin/contracts/access/AccessControl.sol\":4115:4119  role */\n      dup4\n        /* \"@openzeppelin/contracts/access/AccessControl.sol\":4108:4120  _roles[role] */\n      dup2\n      mstore\n      0x20\n      add\n      swap1\n      dup2\n      mstore\n      0x20\n      add\n      0x00\n      keccak256\n        /* \"@openzeppelin/contracts/access/AccessControl.sol\":4108:4130  _roles[role].adminRole */\n      0x01\n      add\n      sload\n        /* \"@openzeppelin/contracts/access/AccessControl.sol\":4101:4130  return _roles[role].adminRole */\n      swap1\n      pop\n        /* \"@openzeppelin/contracts/access/AccessControl.sol\":4008:4137  function getRoleAdmin(bytes32 role) public view virtual override returns (bytes32) {... */\n      swap2\n      swap1\n      pop\n      jump\t// out\n        /* \"@openzeppelin/contracts/access/AccessControl.sol\":4387:4532  function grantRole(bytes32 role, address account) public virtual override onlyRole(getRoleAdmin(role)) {... */\n    tag_52:\n        /* \"@openzeppelin/contracts/access/AccessControl.sol\":4470:4488  getRoleAdmin(role) */\n      tag_115\n        /* \"@openzeppelin/contracts/access/AccessControl.sol\":4483:4487  role */\n      dup3\n        /* \"@openzeppelin/contracts/access/AccessControl.sol\":4470:4482  getRoleAdmin */\n      tag_46\n        /* \"@openzeppelin/contracts/access/AccessControl.sol\":4470:4488  getRoleAdmin(role) */\n      jump\t// in\n    tag_115:\n        /* \"@openzeppelin/contracts/access/AccessControl.sol\":2505:2535  _checkRole(role, _msgSender()) */\n      tag_117\n        /* \"@openzeppelin/contracts/access/AccessControl.sol\":2516:2520  role */\n      dup2\n        /* \"@openzeppelin/contracts/access/AccessControl.sol\":2522:2534  _msgSender() */\n      tag_118\n        /* \"@openzeppelin/contracts/access/AccessControl.sol\":2522:2532  _msgSender */\n      tag_119\n        /* \"@openzeppelin/contracts/access/AccessControl.sol\":2522:2534  _msgSender() */\n      jump\t// in\n    tag_118:\n        /* \"@openzeppelin/contracts/access/AccessControl.sol\":2505:2515  _checkRole */\n      tag_120\n        /* \"@openzeppelin/contracts/access/AccessControl.sol\":2505:2535  _checkRole(role, _msgSender()) */\n      jump\t// in\n    tag_117:\n        /* \"@openzeppelin/contracts/access/AccessControl.sol\":4500:4525  _grantRole(role, account) */\n      tag_122\n        /* \"@openzeppelin/contracts/access/AccessControl.sol\":4511:4515  role */\n      dup4\n        /* \"@openzeppelin/contracts/access/AccessControl.sol\":4517:4524  account */\n      dup4\n        /* \"@openzeppelin/contracts/access/AccessControl.sol\":4500:4510  _grantRole */\n      tag_123\n        /* \"@openzeppelin/contracts/access/AccessControl.sol\":4500:4525  _grantRole(role, account) */\n      jump\t// in\n    tag_122:\n        /* \"@openzeppelin/contracts/access/AccessControl.sol\":4387:4532  function grantRole(bytes32 role, address account) public virtual override onlyRole(getRoleAdmin(role)) {... */\n      pop\n      pop\n      pop\n      jump\t// out\n        /* \"@openzeppelin/contracts/access/AccessControl.sol\":5404:5618  function renounceRole(bytes32 role, address account) public virtual override {... */\n    tag_55:\n        /* \"@openzeppelin/contracts/access/AccessControl.sol\":5510:5522  _msgSender() */\n      tag_125\n        /* \"@openzeppelin/contracts/access/AccessControl.sol\":5510:5520  _msgSender */\n      tag_119\n        /* \"@openzeppelin/contracts/access/AccessControl.sol\":5510:5522  _msgSender() */\n      jump\t// in\n    tag_125:\n        /* \"@openzeppelin/contracts/access/AccessControl.sol\":5499:5522  account == _msgSender() */\n      0xffffffffffffffffffffffffffffffffffffffff\n      and\n        /* \"@openzeppelin/contracts/access/AccessControl.sol\":5499:5506  account */\n      dup2\n        /* \"@openzeppelin/contracts/access/AccessControl.sol\":5499:5522  account == _msgSender() */\n      0xffffffffffffffffffffffffffffffffffffffff\n      and\n      eq\n        /* \"@openzeppelin/contracts/access/AccessControl.sol\":5491:5574  require(account == _msgSender(), \"AccessControl: can only renounce roles for self\") */\n      tag_126\n      jumpi\n      mload(0x40)\n      0x08c379a000000000000000000000000000000000000000000000000000000000\n      dup2\n      mstore\n      0x04\n      add\n      tag_127\n      swap1\n      tag_128\n      jump\t// in\n    tag_127:\n      mload(0x40)\n      dup1\n      swap2\n      sub\n      swap1\n      revert\n    tag_126:\n        /* \"@openzeppelin/contracts/access/AccessControl.sol\":5585:5611  _revokeRole(role, account) */\n      tag_129\n        /* \"@openzeppelin/contracts/access/AccessControl.sol\":5597:5601  role */\n      dup3\n        /* \"@openzeppelin/contracts/access/AccessControl.sol\":5603:5610  account */\n      dup3\n        /* \"@openzeppelin/contracts/access/AccessControl.sol\":5585:5596  _revokeRole */\n      tag_130\n        /* \"@openzeppelin/contracts/access/AccessControl.sol\":5585:5611  _revokeRole(role, account) */\n      jump\t// in\n    tag_129:\n        /* \"@openzeppelin/contracts/access/AccessControl.sol\":5404:5618  function renounceRole(bytes32 role, address account) public virtual override {... */\n      pop\n      pop\n      jump\t// out\n        /* \"src/contracts/Desca.sol\":2907:4868  function reportData(int256[] calldata _sensordata) external {... */\n    tag_59:\n        /* \"src/contracts/Desca.sol\":2985:3022  hasRole(DATA_SENDER_ROLE, msg.sender) */\n      tag_132\n        /* \"src/contracts/Desca.sol\":504:533  keccak256(\"DATA_SENDER_ROLE\") */\n      0x086a7396bbeb0581a4f317ffb5b19566e9ecad105ee98e26d73cec5f34249022\n        /* \"src/contracts/Desca.sol\":3011:3021  msg.sender */\n      caller\n        /* \"src/contracts/Desca.sol\":2985:2992  hasRole */\n      tag_65\n        /* \"src/contracts/Desca.sol\":2985:3022  hasRole(DATA_SENDER_ROLE, msg.sender) */\n      jump\t// in\n    tag_132:\n        /* \"src/contracts/Desca.sol\":2977:3023  require(hasRole(DATA_SENDER_ROLE, msg.sender)) */\n      tag_133\n      jumpi\n      0x00\n      dup1\n      revert\n    tag_133:\n        /* \"src/contracts/Desca.sol\":3034:3055  node memory cnodeorig */\n      0x00\n        /* \"src/contracts/Desca.sol\":3058:3066  nodeList */\n      0x06\n        /* \"src/contracts/Desca.sol\":3067:3076  nodeIndex */\n      0x07\n        /* \"src/contracts/Desca.sol\":3067:3088  nodeIndex[msg.sender] */\n      0x00\n        /* \"src/contracts/Desca.sol\":3077:3087  msg.sender */\n      caller\n        /* \"src/contracts/Desca.sol\":3067:3088  nodeIndex[msg.sender] */\n      0xffffffffffffffffffffffffffffffffffffffff\n      and\n      0xffffffffffffffffffffffffffffffffffffffff\n      and\n      dup2\n      mstore\n      0x20\n      add\n      swap1\n      dup2\n      mstore\n      0x20\n      add\n      0x00\n      keccak256\n      sload\n        /* \"src/contracts/Desca.sol\":3058:3089  nodeList[nodeIndex[msg.sender]] */\n      dup2\n      sload\n      dup2\n      lt\n      tag_134\n      jumpi\n      tag_135\n      tag_136\n      jump\t// in\n    tag_135:\n    tag_134:\n      swap1\n      0x00\n      mstore\n      keccak256(0x00, 0x20)\n      swap1\n      0x06\n      mul\n      add\n        /* \"src/contracts/Desca.sol\":3034:3089  node memory cnodeorig = nodeList[nodeIndex[msg.sender]] */\n      mload(0x40)\n      dup1\n      0xc0\n      add\n      0x40\n      mstore\n      swap1\n      dup2\n      0x00\n      dup3\n      add\n      0x00\n      swap1\n      sload\n      swap1\n      0x0100\n      exp\n      swap1\n      div\n      0xffffffffffffffffffffffffffffffffffffffff\n      and\n      0xffffffffffffffffffffffffffffffffffffffff\n      and\n      0xffffffffffffffffffffffffffffffffffffffff\n      and\n      dup2\n      mstore\n      0x20\n      add\n      0x01\n      dup3\n      add\n      sload\n      dup2\n      mstore\n      0x20\n      add\n      0x02\n      dup3\n      add\n      dup1\n      sload\n      dup1\n      0x20\n      mul\n      0x20\n      add\n      mload(0x40)\n      swap1\n      dup2\n      add\n      0x40\n      mstore\n      dup1\n      swap3\n      swap2\n      swap1\n      dup2\n      dup2\n      mstore\n      0x20\n      add\n      dup3\n      dup1\n      sload\n      dup1\n      iszero\n      tag_138\n      jumpi\n      0x20\n      mul\n      dup3\n      add\n      swap2\n      swap1\n      0x00\n      mstore\n      keccak256(0x00, 0x20)\n      swap1\n    tag_139:\n      dup2\n      sload\n      dup2\n      mstore\n      0x20\n      add\n      swap1\n      0x01\n      add\n      swap1\n      dup1\n      dup4\n      gt\n      tag_139\n      jumpi\n    tag_138:\n      pop\n      pop\n      pop\n      pop\n      pop\n      dup2\n      mstore\n      0x20\n      add\n      0x03\n      dup3\n      add\n      dup1\n      sload\n      dup1\n      0x20\n      mul\n      0x20\n      add\n      mload(0x40)\n      swap1\n      dup2\n      add\n      0x40\n      mstore\n      dup1\n      swap3\n      swap2\n      swap1\n      dup2\n      dup2\n      mstore\n      0x20\n      add\n      dup3\n      dup1\n      sload\n      dup1\n      iszero\n      tag_140\n      jumpi\n      0x20\n      mul\n      dup3\n      add\n      swap2\n      swap1\n      0x00\n      mstore\n      keccak256(0x00, 0x20)\n      swap1\n    tag_141:\n      dup2\n      sload\n      dup2\n      mstore\n      0x20\n      add\n      swap1\n      0x01\n      add\n      swap1\n      dup1\n      dup4\n      gt\n      tag_141\n      jumpi\n    tag_140:\n      pop\n      pop\n      pop\n      pop\n      pop\n      dup2\n      mstore\n      0x20\n      add\n      0x04\n      dup3\n      add\n      dup1\n      sload\n      dup1\n      0x20\n      mul\n      0x20\n      add\n      mload(0x40)\n      swap1\n      dup2\n      add\n      0x40\n      mstore\n      dup1\n      swap3\n      swap2\n      swap1\n      dup2\n      dup2\n      mstore\n      0x20\n      add\n      dup3\n      dup1\n      sload\n      dup1\n      iszero\n      tag_142\n      jumpi\n      0x20\n      mul\n      dup3\n      add\n      swap2\n      swap1\n      0x00\n      mstore\n      keccak256(0x00, 0x20)\n      swap1\n      0x00\n      swap1\n    tag_143:\n      dup3\n      dup3\n      swap1\n      sload\n      swap1\n      0x0100\n      exp\n      swap1\n      div\n      0xff\n      and\n      iszero\n      iszero\n      dup2\n      mstore\n      0x20\n      add\n      swap1\n      0x01\n      add\n      swap1\n      0x20\n      dup3\n      0x00\n      add\n      div\n      swap3\n      dup4\n      add\n      swap3\n      0x01\n      sub\n      dup3\n      mul\n      swap2\n      pop\n      dup1\n      dup5\n      gt\n      tag_143\n      jumpi\n      swap1\n      pop\n    tag_142:\n      pop\n      pop\n      pop\n      pop\n      pop\n      dup2\n      mstore\n      0x20\n      add\n      0x05\n      dup3\n      add\n      dup1\n      sload\n      dup1\n      0x20\n      mul\n      0x20\n      add\n      mload(0x40)\n      swap1\n      dup2\n      add\n      0x40\n      mstore\n      dup1\n      swap3\n      swap2\n      swap1\n      dup2\n      dup2\n      mstore\n      0x20\n      add\n      dup3\n      dup1\n      sload\n      dup1\n      iszero\n      tag_144\n      jumpi\n      0x20\n      mul\n      dup3\n      add\n      swap2\n      swap1\n      0x00\n      mstore\n      keccak256(0x00, 0x20)\n      swap1\n      0x00\n      swap1\n    tag_145:\n      dup3\n      dup3\n      swap1\n      sload\n      swap1\n      0x0100\n      exp\n      swap1\n      div\n      0xff\n      and\n      iszero\n      iszero\n      dup2\n      mstore\n      0x20\n      add\n      swap1\n      0x01\n      add\n      swap1\n      0x20\n      dup3\n      0x00\n      add\n      div\n      swap3\n      dup4\n      add\n      swap3\n      0x01\n      sub\n      dup3\n      mul\n      swap2\n      pop\n      dup1\n      dup5\n      gt\n      tag_145\n      jumpi\n      swap1\n      pop\n    tag_144:\n      pop\n      pop\n      pop\n      pop\n      pop\n      dup2\n      mstore\n      pop\n      pop\n      swap1\n      pop\n        /* \"src/contracts/Desca.sol\":3099:3119  node memory currnode */\n      0x00\n        /* \"src/contracts/Desca.sol\":3122:3284  node(cnodeorig.nodeAddress, _sensordata.length, _sensordata, new uint256[](_sensordata.length),  new bool[](_sensordata.length),  new bool[](_sensordata.length) ) */\n      mload(0x40)\n      dup1\n      0xc0\n      add\n      0x40\n      mstore\n      dup1\n        /* \"src/contracts/Desca.sol\":3127:3136  cnodeorig */\n      dup4\n        /* \"src/contracts/Desca.sol\":3127:3148  cnodeorig.nodeAddress */\n      0x00\n      add\n      mload\n        /* \"src/contracts/Desca.sol\":3122:3284  node(cnodeorig.nodeAddress, _sensordata.length, _sensordata, new uint256[](_sensordata.length),  new bool[](_sensordata.length),  new bool[](_sensordata.length) ) */\n      0xffffffffffffffffffffffffffffffffffffffff\n      and\n      dup2\n      mstore\n      0x20\n      add\n        /* \"src/contracts/Desca.sol\":3150:3161  _sensordata */\n      dup6\n      dup6\n        /* \"src/contracts/Desca.sol\":3150:3168  _sensordata.length */\n      swap1\n      pop\n        /* \"src/contracts/Desca.sol\":3122:3284  node(cnodeorig.nodeAddress, _sensordata.length, _sensordata, new uint256[](_sensordata.length),  new bool[](_sensordata.length),  new bool[](_sensordata.length) ) */\n      dup2\n      mstore\n      0x20\n      add\n        /* \"src/contracts/Desca.sol\":3170:3181  _sensordata */\n      dup6\n      dup6\n        /* \"src/contracts/Desca.sol\":3122:3284  node(cnodeorig.nodeAddress, _sensordata.length, _sensordata, new uint256[](_sensordata.length),  new bool[](_sensordata.length),  new bool[](_sensordata.length) ) */\n      dup1\n      dup1\n      0x20\n      mul\n      0x20\n      add\n      mload(0x40)\n      swap1\n      dup2\n      add\n      0x40\n      mstore\n      dup1\n      swap4\n      swap3\n      swap2\n      swap1\n      dup2\n      dup2\n      mstore\n      0x20\n      add\n      dup4\n      dup4\n      0x20\n      mul\n      dup1\n      dup3\n      dup5\n      calldatacopy\n      0x00\n      dup2\n      dup5\n      add\n      mstore\n      not(0x1f)\n      0x1f\n      dup3\n      add\n      and\n      swap1\n      pop\n      dup1\n      dup4\n      add\n      swap3\n      pop\n      pop\n      pop\n      pop\n      pop\n      pop\n      pop\n      dup2\n      mstore\n      0x20\n      add\n        /* \"src/contracts/Desca.sol\":3197:3208  _sensordata */\n      dup6\n      dup6\n        /* \"src/contracts/Desca.sol\":3197:3215  _sensordata.length */\n      swap1\n      pop\n        /* \"src/contracts/Desca.sol\":3183:3216  new uint256[](_sensordata.length) */\n      0xffffffffffffffff\n      dup2\n      gt\n      iszero\n      tag_146\n      jumpi\n      tag_147\n      tag_148\n      jump\t// in\n    tag_147:\n    tag_146:\n      mload(0x40)\n      swap1\n      dup1\n      dup3\n      mstore\n      dup1\n      0x20\n      mul\n      0x20\n      add\n      dup3\n      add\n      0x40\n      mstore\n      dup1\n      iszero\n      tag_149\n      jumpi\n      dup2\n      0x20\n      add\n      0x20\n      dup3\n      mul\n      dup1\n      calldatasize\n      dup4\n      calldatacopy\n      dup1\n      dup3\n      add\n      swap2\n      pop\n      pop\n      swap1\n      pop\n    tag_149:\n      pop\n        /* \"src/contracts/Desca.sol\":3122:3284  node(cnodeorig.nodeAddress, _sensordata.length, _sensordata, new uint256[](_sensordata.length),  new bool[](_sensordata.length),  new bool[](_sensordata.length) ) */\n      dup2\n      mstore\n      0x20\n      add\n        /* \"src/contracts/Desca.sol\":3230:3241  _sensordata */\n      dup6\n      dup6\n        /* \"src/contracts/Desca.sol\":3230:3248  _sensordata.length */\n      swap1\n      pop\n        /* \"src/contracts/Desca.sol\":3219:3249  new bool[](_sensordata.length) */\n      0xffffffffffffffff\n      dup2\n      gt\n      iszero\n      tag_150\n      jumpi\n      tag_151\n      tag_148\n      jump\t// in\n    tag_151:\n    tag_150:\n      mload(0x40)\n      swap1\n      dup1\n      dup3\n      mstore\n      dup1\n      0x20\n      mul\n      0x20\n      add\n      dup3\n      add\n      0x40\n      mstore\n      dup1\n      iszero\n      tag_152\n      jumpi\n      dup2\n      0x20\n      add\n      0x20\n      dup3\n      mul\n      dup1\n      calldatasize\n      dup4\n      calldatacopy\n      dup1\n      dup3\n      add\n      swap2\n      pop\n      pop\n      swap1\n      pop\n    tag_152:\n      pop\n        /* \"src/contracts/Desca.sol\":3122:3284  node(cnodeorig.nodeAddress, _sensordata.length, _sensordata, new uint256[](_sensordata.length),  new bool[](_sensordata.length),  new bool[](_sensordata.length) ) */\n      dup2\n      mstore\n      0x20\n      add\n        /* \"src/contracts/Desca.sol\":3263:3274  _sensordata */\n      dup6\n      dup6\n        /* \"src/contracts/Desca.sol\":3263:3281  _sensordata.length */\n      swap1\n      pop\n        /* \"src/contracts/Desca.sol\":3252:3282  new bool[](_sensordata.length) */\n      0xffffffffffffffff\n      dup2\n      gt\n      iszero\n      tag_153\n      jumpi\n      tag_154\n      tag_148\n      jump\t// in\n    tag_154:\n    tag_153:\n      mload(0x40)\n      swap1\n      dup1\n      dup3\n      mstore\n      dup1\n      0x20\n      mul\n      0x20\n      add\n      dup3\n      add\n      0x40\n      mstore\n      dup1\n      iszero\n      tag_155\n      jumpi\n      dup2\n      0x20\n      add\n      0x20\n      dup3\n      mul\n      dup1\n      calldatasize\n      dup4\n      calldatacopy\n      dup1\n      dup3\n      add\n      swap2\n      pop\n      pop\n      swap1\n      pop\n    tag_155:\n      pop\n        /* \"src/contracts/Desca.sol\":3122:3284  node(cnodeorig.nodeAddress, _sensordata.length, _sensordata, new uint256[](_sensordata.length),  new bool[](_sensordata.length),  new bool[](_sensordata.length) ) */\n      dup2\n      mstore\n      pop\n        /* \"src/contracts/Desca.sol\":3099:3284  node memory currnode = node(cnodeorig.nodeAddress, _sensordata.length, _sensordata, new uint256[](_sensordata.length),  new bool[](_sensordata.length),  new bool[](_sensordata.length) ) */\n      swap1\n      pop\n        /* \"src/contracts/Desca.sol\":3299:3305  uint i */\n      0x00\n        /* \"src/contracts/Desca.sol\":3295:3438  for(uint i = 0; i < cnodeorig.noDataTimer.length; i++) {... */\n    tag_156:\n        /* \"src/contracts/Desca.sol\":3315:3324  cnodeorig */\n      dup3\n        /* \"src/contracts/Desca.sol\":3315:3336  cnodeorig.noDataTimer */\n      0x60\n      add\n      mload\n        /* \"src/contracts/Desca.sol\":3315:3343  cnodeorig.noDataTimer.length */\n      mload\n        /* \"src/contracts/Desca.sol\":3311:3312  i */\n      dup2\n        /* \"src/contracts/Desca.sol\":3311:3343  i < cnodeorig.noDataTimer.length */\n      lt\n        /* \"src/contracts/Desca.sol\":3295:3438  for(uint i = 0; i < cnodeorig.noDataTimer.length; i++) {... */\n      iszero\n      tag_157\n      jumpi\n        /* \"src/contracts/Desca.sol\":3403:3412  cnodeorig */\n      dup3\n        /* \"src/contracts/Desca.sol\":3403:3424  cnodeorig.noDataTimer */\n      0x60\n      add\n      mload\n        /* \"src/contracts/Desca.sol\":3425:3426  i */\n      dup2\n        /* \"src/contracts/Desca.sol\":3403:3427  cnodeorig.noDataTimer[i] */\n      dup2\n      mload\n      dup2\n      lt\n      tag_159\n      jumpi\n      tag_160\n      tag_136\n      jump\t// in\n    tag_160:\n    tag_159:\n      0x20\n      mul\n      0x20\n      add\n      add\n      mload\n        /* \"src/contracts/Desca.sol\":3377:3385  currnode */\n      dup3\n        /* \"src/contracts/Desca.sol\":3377:3397  currnode.noDataTimer */\n      0x60\n      add\n      mload\n        /* \"src/contracts/Desca.sol\":3398:3399  i */\n      dup3\n        /* \"src/contracts/Desca.sol\":3377:3400  currnode.noDataTimer[i] */\n      dup2\n      mload\n      dup2\n      lt\n      tag_161\n      jumpi\n      tag_162\n      tag_136\n      jump\t// in\n    tag_162:\n    tag_161:\n      0x20\n      mul\n      0x20\n      add\n      add\n        /* \"src/contracts/Desca.sol\":3377:3427  currnode.noDataTimer[i] = cnodeorig.noDataTimer[i] */\n      dup2\n      dup2\n      mstore\n      pop\n      pop\n        /* \"src/contracts/Desca.sol\":3345:3348  i++ */\n      dup1\n      dup1\n      tag_163\n      swap1\n      tag_164\n      jump\t// in\n    tag_163:\n      swap2\n      pop\n      pop\n        /* \"src/contracts/Desca.sol\":3295:3438  for(uint i = 0; i < cnodeorig.noDataTimer.length; i++) {... */\n      jump(tag_156)\n    tag_157:\n      pop\n        /* \"src/contracts/Desca.sol\":3453:3459  uint i */\n      0x00\n        /* \"src/contracts/Desca.sol\":3448:4021  for (uint i = 0; i < _sensordata.length; i++) {... */\n    tag_165:\n        /* \"src/contracts/Desca.sol\":3469:3480  _sensordata */\n      dup5\n      dup5\n        /* \"src/contracts/Desca.sol\":3469:3487  _sensordata.length */\n      swap1\n      pop\n        /* \"src/contracts/Desca.sol\":3465:3466  i */\n      dup2\n        /* \"src/contracts/Desca.sol\":3465:3487  i < _sensordata.length */\n      lt\n        /* \"src/contracts/Desca.sol\":3448:4021  for (uint i = 0; i < _sensordata.length; i++) {... */\n      iszero\n      tag_166\n      jumpi\n        /* \"src/contracts/Desca.sol\":3530:3537  -100000 */\n      0xfffffffffffffffffffffffffffffffffffffffffffffffffffffffffffe7960\n        /* \"src/contracts/Desca.sol\":3512:3523  _sensordata */\n      dup6\n      dup6\n        /* \"src/contracts/Desca.sol\":3524:3525  i */\n      dup4\n        /* \"src/contracts/Desca.sol\":3512:3526  _sensordata[i] */\n      dup2\n      dup2\n      lt\n      tag_168\n      jumpi\n      tag_169\n      tag_136\n      jump\t// in\n    tag_169:\n    tag_168:\n      swap1\n      pop\n      0x20\n      mul\n      add\n      calldataload\n        /* \"src/contracts/Desca.sol\":3512:3537  _sensordata[i] == -100000 */\n      sub\n        /* \"src/contracts/Desca.sol\":3509:3805  if(_sensordata[i] == -100000) {... */\n      tag_170\n      jumpi\n        /* \"src/contracts/Desca.sol\":3584:3585  1 */\n      0x01\n        /* \"src/contracts/Desca.sol\":3557:3565  currnode */\n      dup3\n        /* \"src/contracts/Desca.sol\":3557:3577  currnode.noDataTimer */\n      0x60\n      add\n      mload\n        /* \"src/contracts/Desca.sol\":3578:3579  i */\n      dup3\n        /* \"src/contracts/Desca.sol\":3557:3580  currnode.noDataTimer[i] */\n      dup2\n      mload\n      dup2\n      lt\n      tag_171\n      jumpi\n      tag_172\n      tag_136\n      jump\t// in\n    tag_172:\n    tag_171:\n      0x20\n      mul\n      0x20\n      add\n      add\n        /* \"src/contracts/Desca.sol\":3557:3585  currnode.noDataTimer[i] += 1 */\n      dup2\n      dup2\n      mload\n      tag_173\n      swap2\n      swap1\n      tag_174\n      jump\t// in\n    tag_173:\n      swap2\n      pop\n      dup2\n      dup2\n      mstore\n      pop\n      pop\n        /* \"src/contracts/Desca.sol\":3622:3627  false */\n      0x00\n        /* \"src/contracts/Desca.sol\":3603:3611  currnode */\n      dup3\n        /* \"src/contracts/Desca.sol\":3603:3616  currnode.recd */\n      0xa0\n      add\n      mload\n        /* \"src/contracts/Desca.sol\":3617:3618  i */\n      dup3\n        /* \"src/contracts/Desca.sol\":3603:3619  currnode.recd[i] */\n      dup2\n      mload\n      dup2\n      lt\n      tag_175\n      jumpi\n      tag_176\n      tag_136\n      jump\t// in\n    tag_176:\n    tag_175:\n      0x20\n      mul\n      0x20\n      add\n      add\n        /* \"src/contracts/Desca.sol\":3603:3627  currnode.recd[i] = false */\n      swap1\n      iszero\n      iszero\n      swap1\n      dup2\n      iszero\n      iszero\n      dup2\n      mstore\n      pop\n      pop\n        /* \"src/contracts/Desca.sol\":3509:3805  if(_sensordata[i] == -100000) {... */\n      jump(tag_177)\n    tag_170:\n        /* \"src/contracts/Desca.sol\":3704:3705  0 */\n      0x00\n        /* \"src/contracts/Desca.sol\":3678:3686  currnode */\n      dup3\n        /* \"src/contracts/Desca.sol\":3678:3698  currnode.noDataTimer */\n      0x60\n      add\n      mload\n        /* \"src/contracts/Desca.sol\":3699:3700  i */\n      dup3\n        /* \"src/contracts/Desca.sol\":3678:3701  currnode.noDataTimer[i] */\n      dup2\n      mload\n      dup2\n      lt\n      tag_178\n      jumpi\n      tag_179\n      tag_136\n      jump\t// in\n    tag_179:\n    tag_178:\n      0x20\n      mul\n      0x20\n      add\n      add\n        /* \"src/contracts/Desca.sol\":3678:3705  currnode.noDataTimer[i] = 0 */\n      dup2\n      dup2\n      mstore\n      pop\n      pop\n        /* \"src/contracts/Desca.sol\":3742:3746  true */\n      0x01\n        /* \"src/contracts/Desca.sol\":3723:3731  currnode */\n      dup3\n        /* \"src/contracts/Desca.sol\":3723:3736  currnode.recd */\n      0xa0\n      add\n      mload\n        /* \"src/contracts/Desca.sol\":3737:3738  i */\n      dup3\n        /* \"src/contracts/Desca.sol\":3723:3739  currnode.recd[i] */\n      dup2\n      mload\n      dup2\n      lt\n      tag_180\n      jumpi\n      tag_181\n      tag_136\n      jump\t// in\n    tag_181:\n    tag_180:\n      0x20\n      mul\n      0x20\n      add\n      add\n        /* \"src/contracts/Desca.sol\":3723:3746  currnode.recd[i] = true */\n      swap1\n      iszero\n      iszero\n      swap1\n      dup2\n      iszero\n      iszero\n      dup2\n      mstore\n      pop\n      pop\n        /* \"src/contracts/Desca.sol\":3785:3790  false */\n      0x00\n        /* \"src/contracts/Desca.sol\":3764:3772  currnode */\n      dup3\n        /* \"src/contracts/Desca.sol\":3764:3779  currnode.ignore */\n      0x80\n      add\n      mload\n        /* \"src/contracts/Desca.sol\":3780:3781  i */\n      dup3\n        /* \"src/contracts/Desca.sol\":3764:3782  currnode.ignore[i] */\n      dup2\n      mload\n      dup2\n      lt\n      tag_182\n      jumpi\n      tag_183\n      tag_136\n      jump\t// in\n    tag_183:\n    tag_182:\n      0x20\n      mul\n      0x20\n      add\n      add\n        /* \"src/contracts/Desca.sol\":3764:3790  currnode.ignore[i] = false */\n      swap1\n      iszero\n      iszero\n      swap1\n      dup2\n      iszero\n      iszero\n      dup2\n      mstore\n      pop\n      pop\n        /* \"src/contracts/Desca.sol\":3509:3805  if(_sensordata[i] == -100000) {... */\n    tag_177:\n        /* \"src/contracts/Desca.sol\":3849:3862  sensorTimeout */\n      sload(0x04)\n        /* \"src/contracts/Desca.sol\":3822:3830  currnode */\n      dup3\n        /* \"src/contracts/Desca.sol\":3822:3842  currnode.noDataTimer */\n      0x60\n      add\n      mload\n        /* \"src/contracts/Desca.sol\":3843:3844  i */\n      dup3\n        /* \"src/contracts/Desca.sol\":3822:3845  currnode.noDataTimer[i] */\n      dup2\n      mload\n      dup2\n      lt\n      tag_184\n      jumpi\n      tag_185\n      tag_136\n      jump\t// in\n    tag_185:\n    tag_184:\n      0x20\n      mul\n      0x20\n      add\n      add\n      mload\n        /* \"src/contracts/Desca.sol\":3822:3862  currnode.noDataTimer[i] >= sensorTimeout */\n      lt\n        /* \"src/contracts/Desca.sol\":3819:3922  if(currnode.noDataTimer[i] >= sensorTimeout) {... */\n      tag_186\n      jumpi\n        /* \"src/contracts/Desca.sol\":3903:3907  true */\n      0x01\n        /* \"src/contracts/Desca.sol\":3882:3890  currnode */\n      dup3\n        /* \"src/contracts/Desca.sol\":3882:3897  currnode.ignore */\n      0x80\n      add\n      mload\n        /* \"src/contracts/Desca.sol\":3898:3899  i */\n      dup3\n        /* \"src/contracts/Desca.sol\":3882:3900  currnode.ignore[i] */\n      dup2\n      mload\n      dup2\n      lt\n      tag_187\n      jumpi\n      tag_188\n      tag_136\n      jump\t// in\n    tag_188:\n    tag_187:\n      0x20\n      mul\n      0x20\n      add\n      add\n        /* \"src/contracts/Desca.sol\":3882:3907  currnode.ignore[i] = true */\n      swap1\n      iszero\n      iszero\n      swap1\n      dup2\n      iszero\n      iszero\n      dup2\n      mstore\n      pop\n      pop\n        /* \"src/contracts/Desca.sol\":3819:3922  if(currnode.noDataTimer[i] >= sensorTimeout) {... */\n    tag_186:\n        /* \"src/contracts/Desca.sol\":3936:3946  uint index */\n      0x00\n        /* \"src/contracts/Desca.sol\":3949:3958  nodeIndex */\n      0x07\n        /* \"src/contracts/Desca.sol\":3949:3970  nodeIndex[msg.sender] */\n      0x00\n        /* \"src/contracts/Desca.sol\":3959:3969  msg.sender */\n      caller\n        /* \"src/contracts/Desca.sol\":3949:3970  nodeIndex[msg.sender] */\n      0xffffffffffffffffffffffffffffffffffffffff\n      and\n      0xffffffffffffffffffffffffffffffffffffffff\n      and\n      dup2\n      mstore\n      0x20\n      add\n      swap1\n      dup2\n      mstore\n      0x20\n      add\n      0x00\n      keccak256\n      sload\n        /* \"src/contracts/Desca.sol\":3936:3970  uint index = nodeIndex[msg.sender] */\n      swap1\n      pop\n        /* \"src/contracts/Desca.sol\":4002:4010  currnode */\n      dup3\n        /* \"src/contracts/Desca.sol\":3984:3992  nodeList */\n      0x06\n        /* \"src/contracts/Desca.sol\":3993:3998  index */\n      dup3\n        /* \"src/contracts/Desca.sol\":3984:3999  nodeList[index] */\n      dup2\n      sload\n      dup2\n      lt\n      tag_189\n      jumpi\n      tag_190\n      tag_136\n      jump\t// in\n    tag_190:\n    tag_189:\n      swap1\n      0x00\n      mstore\n      keccak256(0x00, 0x20)\n      swap1\n      0x06\n      mul\n      add\n        /* \"src/contracts/Desca.sol\":3984:4010  nodeList[index] = currnode */\n      0x00\n      dup3\n      add\n      mload\n      dup2\n      0x00\n      add\n      exp(0x0100, 0x00)\n      dup2\n      sload\n      dup2\n      0xffffffffffffffffffffffffffffffffffffffff\n      mul\n      not\n      and\n      swap1\n      dup4\n      0xffffffffffffffffffffffffffffffffffffffff\n      and\n      mul\n      or\n      swap1\n      sstore\n      pop\n      0x20\n      dup3\n      add\n      mload\n      dup2\n      0x01\n      add\n      sstore\n      0x40\n      dup3\n      add\n      mload\n      dup2\n      0x02\n      add\n      swap1\n      dup1\n      mload\n      swap1\n      0x20\n      add\n      swap1\n      tag_192\n      swap3\n      swap2\n      swap1\n      tag_193\n      jump\t// in\n    tag_192:\n      pop\n      0x60\n      dup3\n      add\n      mload\n      dup2\n      0x03\n      add\n      swap1\n      dup1\n      mload\n      swap1\n      0x20\n      add\n      swap1\n      tag_194\n      swap3\n      swap2\n      swap1\n      tag_195\n      jump\t// in\n    tag_194:\n      pop\n      0x80\n      dup3\n      add\n      mload\n      dup2\n      0x04\n      add\n      swap1\n      dup1\n      mload\n      swap1\n      0x20\n      add\n      swap1\n      tag_196\n      swap3\n      swap2\n      swap1\n      tag_197\n      jump\t// in\n    tag_196:\n      pop\n      0xa0\n      dup3\n      add\n      mload\n      dup2\n      0x05\n      add\n      swap1\n      dup1\n      mload\n      swap1\n      0x20\n      add\n      swap1\n      tag_198\n      swap3\n      swap2\n      swap1\n      tag_197\n      jump\t// in\n    tag_198:\n      pop\n      swap1\n      pop\n      pop\n        /* \"src/contracts/Desca.sol\":3494:4021  {... */\n      pop\n        /* \"src/contracts/Desca.sol\":3489:3492  i++ */\n      dup1\n      dup1\n      tag_199\n      swap1\n      tag_164\n      jump\t// in\n    tag_199:\n      swap2\n      pop\n      pop\n        /* \"src/contracts/Desca.sol\":3448:4021  for (uint i = 0; i < _sensordata.length; i++) {... */\n      jump(tag_165)\n    tag_166:\n      pop\n        /* \"src/contracts/Desca.sol\":4030:4039  bool good */\n      0x00\n        /* \"src/contracts/Desca.sol\":4042:4046  true */\n      0x01\n        /* \"src/contracts/Desca.sol\":4030:4046  bool good = true */\n      swap1\n      pop\n        /* \"src/contracts/Desca.sol\":4056:4069  uint gooddata */\n      0x00\n        /* \"src/contracts/Desca.sol\":4098:4099  0 */\n      dup1\n        /* \"src/contracts/Desca.sol\":4083:4095  totalSensors */\n      0x02\n        /* \"src/contracts/Desca.sol\":4083:4099  totalSensors = 0 */\n      dup2\n      swap1\n      sstore\n      pop\n        /* \"src/contracts/Desca.sol\":4113:4119  uint j */\n      0x00\n        /* \"src/contracts/Desca.sol\":4109:4646  for(uint j = 0; j < nodeList.length; j++) {... */\n    tag_200:\n        /* \"src/contracts/Desca.sol\":4129:4137  nodeList */\n      0x06\n        /* \"src/contracts/Desca.sol\":4129:4144  nodeList.length */\n      dup1\n      sload\n      swap1\n      pop\n        /* \"src/contracts/Desca.sol\":4125:4126  j */\n      dup2\n        /* \"src/contracts/Desca.sol\":4125:4144  j < nodeList.length */\n      lt\n        /* \"src/contracts/Desca.sol\":4109:4646  for(uint j = 0; j < nodeList.length; j++) {... */\n      iszero\n      tag_201\n      jumpi\n        /* \"src/contracts/Desca.sol\":4181:4189  nodeList */\n      0x06\n        /* \"src/contracts/Desca.sol\":4190:4191  j */\n      dup2\n        /* \"src/contracts/Desca.sol\":4181:4192  nodeList[j] */\n      dup2\n      sload\n      dup2\n      lt\n      tag_203\n      jumpi\n      tag_204\n      tag_136\n      jump\t// in\n    tag_204:\n    tag_203:\n      swap1\n      0x00\n      mstore\n      keccak256(0x00, 0x20)\n      swap1\n      0x06\n      mul\n      add\n        /* \"src/contracts/Desca.sol\":4181:4203  nodeList[j].numSensors */\n      0x01\n      add\n      sload\n        /* \"src/contracts/Desca.sol\":4165:4177  totalSensors */\n      0x02\n      0x00\n        /* \"src/contracts/Desca.sol\":4165:4203  totalSensors += nodeList[j].numSensors */\n      dup3\n      dup3\n      sload\n      tag_206\n      swap2\n      swap1\n      tag_174\n      jump\t// in\n    tag_206:\n      swap3\n      pop\n      pop\n      dup2\n      swap1\n      sstore\n      pop\n        /* \"src/contracts/Desca.sol\":4221:4227  uint k */\n      0x00\n        /* \"src/contracts/Desca.sol\":4217:4567  for(uint k = 0; k < nodeList[j].numSensors; k++) {... */\n    tag_207:\n        /* \"src/contracts/Desca.sol\":4237:4245  nodeList */\n      0x06\n        /* \"src/contracts/Desca.sol\":4246:4247  j */\n      dup3\n        /* \"src/contracts/Desca.sol\":4237:4248  nodeList[j] */\n      dup2\n      sload\n      dup2\n      lt\n      tag_210\n      jumpi\n      tag_211\n      tag_136\n      jump\t// in\n    tag_211:\n    tag_210:\n      swap1\n      0x00\n      mstore\n      keccak256(0x00, 0x20)\n      swap1\n      0x06\n      mul\n      add\n        /* \"src/contracts/Desca.sol\":4237:4259  nodeList[j].numSensors */\n      0x01\n      add\n      sload\n        /* \"src/contracts/Desca.sol\":4233:4234  k */\n      dup2\n        /* \"src/contracts/Desca.sol\":4233:4259  k < nodeList[j].numSensors */\n      lt\n        /* \"src/contracts/Desca.sol\":4217:4567  for(uint k = 0; k < nodeList[j].numSensors; k++) {... */\n      iszero\n      tag_208\n      jumpi\n        /* \"src/contracts/Desca.sol\":4310:4315  false */\n      0x00\n        /* \"src/contracts/Desca.sol\":4287:4315  nodeList[j].recd[k] == false */\n      iszero\n      iszero\n        /* \"src/contracts/Desca.sol\":4287:4295  nodeList */\n      0x06\n        /* \"src/contracts/Desca.sol\":4296:4297  j */\n      dup4\n        /* \"src/contracts/Desca.sol\":4287:4298  nodeList[j] */\n      dup2\n      sload\n      dup2\n      lt\n      tag_213\n      jumpi\n      tag_214\n      tag_136\n      jump\t// in\n    tag_214:\n    tag_213:\n      swap1\n      0x00\n      mstore\n      keccak256(0x00, 0x20)\n      swap1\n      0x06\n      mul\n      add\n        /* \"src/contracts/Desca.sol\":4287:4303  nodeList[j].recd */\n      0x05\n      add\n        /* \"src/contracts/Desca.sol\":4304:4305  k */\n      dup3\n        /* \"src/contracts/Desca.sol\":4287:4306  nodeList[j].recd[k] */\n      dup2\n      sload\n      dup2\n      lt\n      tag_216\n      jumpi\n      tag_217\n      tag_136\n      jump\t// in\n    tag_217:\n    tag_216:\n      swap1\n      0x00\n      mstore\n      keccak256(0x00, 0x20)\n      swap1\n      0x20\n      swap2\n      dup3\n      dup3\n      div\n      add\n      swap2\n      swap1\n      mod\n      swap1\n      sload\n      swap1\n      0x0100\n      exp\n      swap1\n      div\n      0xff\n      and\n        /* \"src/contracts/Desca.sol\":4287:4315  nodeList[j].recd[k] == false */\n      iszero\n      iszero\n      eq\n        /* \"src/contracts/Desca.sol\":4287:4349  nodeList[j].recd[k] == false && nodeList[j].ignore[k] == false */\n      dup1\n      iszero\n      tag_219\n      jumpi\n      pop\n        /* \"src/contracts/Desca.sol\":4344:4349  false */\n      0x00\n        /* \"src/contracts/Desca.sol\":4319:4349  nodeList[j].ignore[k] == false */\n      iszero\n      iszero\n        /* \"src/contracts/Desca.sol\":4319:4327  nodeList */\n      0x06\n        /* \"src/contracts/Desca.sol\":4328:4329  j */\n      dup4\n        /* \"src/contracts/Desca.sol\":4319:4330  nodeList[j] */\n      dup2\n      sload\n      dup2\n      lt\n      tag_220\n      jumpi\n      tag_221\n      tag_136\n      jump\t// in\n    tag_221:\n    tag_220:\n      swap1\n      0x00\n      mstore\n      keccak256(0x00, 0x20)\n      swap1\n      0x06\n      mul\n      add\n        /* \"src/contracts/Desca.sol\":4319:4337  nodeList[j].ignore */\n      0x04\n      add\n        /* \"src/contracts/Desca.sol\":4338:4339  k */\n      dup3\n        /* \"src/contracts/Desca.sol\":4319:4340  nodeList[j].ignore[k] */\n      dup2\n      sload\n      dup2\n      lt\n      tag_223\n      jumpi\n      tag_224\n      tag_136\n      jump\t// in\n    tag_224:\n    tag_223:\n      swap1\n      0x00\n      mstore\n      keccak256(0x00, 0x20)\n      swap1\n      0x20\n      swap2\n      dup3\n      dup3\n      div\n      add\n      swap2\n      swap1\n      mod\n      swap1\n      sload\n      swap1\n      0x0100\n      exp\n      swap1\n      div\n      0xff\n      and\n        /* \"src/contracts/Desca.sol\":4319:4349  nodeList[j].ignore[k] == false */\n      iszero\n      iszero\n      eq\n        /* \"src/contracts/Desca.sol\":4287:4349  nodeList[j].recd[k] == false && nodeList[j].ignore[k] == false */\n    tag_219:\n        /* \"src/contracts/Desca.sol\":4284:4553  if(nodeList[j].recd[k] == false && nodeList[j].ignore[k] == false) {... */\n      iszero\n      tag_226\n      jumpi\n        /* \"src/contracts/Desca.sol\":4380:4385  false */\n      0x00\n        /* \"src/contracts/Desca.sol\":4373:4385  good = false */\n      swap4\n      pop\n        /* \"src/contracts/Desca.sol\":4284:4553  if(nodeList[j].recd[k] == false && nodeList[j].ignore[k] == false) {... */\n      jump(tag_227)\n    tag_226:\n        /* \"src/contracts/Desca.sol\":4457:4461  8000 */\n      0x1f40\n        /* \"src/contracts/Desca.sol\":4429:4437  nodeList */\n      0x06\n        /* \"src/contracts/Desca.sol\":4438:4439  j */\n      dup4\n        /* \"src/contracts/Desca.sol\":4429:4440  nodeList[j] */\n      dup2\n      sload\n      dup2\n      lt\n      tag_228\n      jumpi\n      tag_229\n      tag_136\n      jump\t// in\n    tag_229:\n    tag_228:\n      swap1\n      0x00\n      mstore\n      keccak256(0x00, 0x20)\n      swap1\n      0x06\n      mul\n      add\n        /* \"src/contracts/Desca.sol\":4429:4451  nodeList[j].sensordata */\n      0x02\n      add\n        /* \"src/contracts/Desca.sol\":4452:4453  k */\n      dup3\n        /* \"src/contracts/Desca.sol\":4429:4454  nodeList[j].sensordata[k] */\n      dup2\n      sload\n      dup2\n      lt\n      tag_231\n      jumpi\n      tag_232\n      tag_136\n      jump\t// in\n    tag_232:\n    tag_231:\n      swap1\n      0x00\n      mstore\n      keccak256(0x00, 0x20)\n      add\n      sload\n        /* \"src/contracts/Desca.sol\":4429:4461  nodeList[j].sensordata[k] < 8000 */\n      slt\n        /* \"src/contracts/Desca.sol\":4429:4497  nodeList[j].sensordata[k] < 8000 && nodeList[j].sensordata[k] > 4000 */\n      dup1\n      iszero\n      tag_234\n      jumpi\n      pop\n        /* \"src/contracts/Desca.sol\":4493:4497  4000 */\n      0x0fa0\n        /* \"src/contracts/Desca.sol\":4465:4473  nodeList */\n      0x06\n        /* \"src/contracts/Desca.sol\":4474:4475  j */\n      dup4\n        /* \"src/contracts/Desca.sol\":4465:4476  nodeList[j] */\n      dup2\n      sload\n      dup2\n      lt\n      tag_235\n      jumpi\n      tag_236\n      tag_136\n      jump\t// in\n    tag_236:\n    tag_235:\n      swap1\n      0x00\n      mstore\n      keccak256(0x00, 0x20)\n      swap1\n      0x06\n      mul\n      add\n        /* \"src/contracts/Desca.sol\":4465:4487  nodeList[j].sensordata */\n      0x02\n      add\n        /* \"src/contracts/Desca.sol\":4488:4489  k */\n      dup3\n        /* \"src/contracts/Desca.sol\":4465:4490  nodeList[j].sensordata[k] */\n      dup2\n      sload\n      dup2\n      lt\n      tag_238\n      jumpi\n      tag_239\n      tag_136\n      jump\t// in\n    tag_239:\n    tag_238:\n      swap1\n      0x00\n      mstore\n      keccak256(0x00, 0x20)\n      add\n      sload\n        /* \"src/contracts/Desca.sol\":4465:4497  nodeList[j].sensordata[k] > 4000 */\n      sgt\n        /* \"src/contracts/Desca.sol\":4429:4497  nodeList[j].sensordata[k] < 8000 && nodeList[j].sensordata[k] > 4000 */\n    tag_234:\n        /* \"src/contracts/Desca.sol\":4426:4553  if(nodeList[j].sensordata[k] < 8000 && nodeList[j].sensordata[k] > 4000) {... */\n      iszero\n      tag_241\n      jumpi\n        /* \"src/contracts/Desca.sol\":4533:4534  1 */\n      0x01\n        /* \"src/contracts/Desca.sol\":4521:4534  gooddata += 1 */\n      dup4\n      tag_242\n      swap2\n      swap1\n      tag_174\n      jump\t// in\n    tag_242:\n      swap3\n      pop\n        /* \"src/contracts/Desca.sol\":4426:4553  if(nodeList[j].sensordata[k] < 8000 && nodeList[j].sensordata[k] > 4000) {... */\n    tag_241:\n        /* \"src/contracts/Desca.sol\":4284:4553  if(nodeList[j].recd[k] == false && nodeList[j].ignore[k] == false) {... */\n    tag_227:\n        /* \"src/contracts/Desca.sol\":4261:4264  k++ */\n      dup1\n      dup1\n      tag_243\n      swap1\n      tag_164\n      jump\t// in\n    tag_243:\n      swap2\n      pop\n      pop\n        /* \"src/contracts/Desca.sol\":4217:4567  for(uint k = 0; k < nodeList[j].numSensors; k++) {... */\n      jump(tag_207)\n    tag_208:\n      pop\n        /* \"src/contracts/Desca.sol\":4591:4596  false */\n      0x00\n        /* \"src/contracts/Desca.sol\":4583:4596  good == false */\n      iszero\n      iszero\n        /* \"src/contracts/Desca.sol\":4583:4587  good */\n      dup4\n        /* \"src/contracts/Desca.sol\":4583:4596  good == false */\n      iszero\n      iszero\n      sub\n        /* \"src/contracts/Desca.sol\":4580:4636  if(good == false) {... */\n      iszero\n        /* \"src/contracts/Desca.sol\":4616:4621  break */\n      tag_201\n        /* \"src/contracts/Desca.sol\":4580:4636  if(good == false) {... */\n      jumpi\n        /* \"src/contracts/Desca.sol\":4146:4149  j++ */\n      dup1\n      dup1\n      tag_245\n      swap1\n      tag_164\n      jump\t// in\n    tag_245:\n      swap2\n      pop\n      pop\n        /* \"src/contracts/Desca.sol\":4109:4646  for(uint j = 0; j < nodeList.length; j++) {... */\n      jump(tag_200)\n    tag_201:\n      pop\n        /* \"src/contracts/Desca.sol\":4689:4705  targetPercentage */\n      sload(0x03)\n        /* \"src/contracts/Desca.sol\":4674:4686  totalSensors */\n      sload(0x02)\n        /* \"src/contracts/Desca.sol\":4669:4672  100 */\n      0x64\n        /* \"src/contracts/Desca.sol\":4660:4668  gooddata */\n      dup4\n        /* \"src/contracts/Desca.sol\":4660:4672  gooddata*100 */\n      tag_246\n      swap2\n      swap1\n      tag_247\n      jump\t// in\n    tag_246:\n        /* \"src/contracts/Desca.sol\":4659:4686  (gooddata*100)/totalSensors */\n      tag_248\n      swap2\n      swap1\n      tag_249\n      jump\t// in\n    tag_248:\n        /* \"src/contracts/Desca.sol\":4659:4705  (gooddata*100)/totalSensors < targetPercentage */\n      lt\n        /* \"src/contracts/Desca.sol\":4656:4744  if((gooddata*100)/totalSensors < targetPercentage) {... */\n      iszero\n      tag_250\n      jumpi\n        /* \"src/contracts/Desca.sol\":4728:4733  false */\n      0x00\n        /* \"src/contracts/Desca.sol\":4721:4733  good = false */\n      swap2\n      pop\n        /* \"src/contracts/Desca.sol\":4656:4744  if((gooddata*100)/totalSensors < targetPercentage) {... */\n    tag_250:\n        /* \"src/contracts/Desca.sol\":4757:4761  good */\n      dup2\n        /* \"src/contracts/Desca.sol\":4754:4862  if(good) {... */\n      iszero\n      tag_251\n      jumpi\n        /* \"src/contracts/Desca.sol\":4790:4794  true */\n      0x01\n        /* \"src/contracts/Desca.sol\":4777:4787  flightflag */\n      0x05\n      0x00\n        /* \"src/contracts/Desca.sol\":4777:4794  flightflag = true */\n      0x0100\n      exp\n      dup2\n      sload\n      dup2\n      0xff\n      mul\n      not\n      and\n      swap1\n      dup4\n      iszero\n      iszero\n      mul\n      or\n      swap1\n      sstore\n      pop\n        /* \"src/contracts/Desca.sol\":4754:4862  if(good) {... */\n      jump(tag_252)\n    tag_251:\n        /* \"src/contracts/Desca.sol\":4846:4851  false */\n      0x00\n        /* \"src/contracts/Desca.sol\":4833:4843  flightflag */\n      0x05\n      0x00\n        /* \"src/contracts/Desca.sol\":4833:4851  flightflag = false */\n      0x0100\n      exp\n      dup2\n      sload\n      dup2\n      0xff\n      mul\n      not\n      and\n      swap1\n      dup4\n      iszero\n      iszero\n      mul\n      or\n      swap1\n      sstore\n      pop\n        /* \"src/contracts/Desca.sol\":4754:4862  if(good) {... */\n    tag_252:\n        /* \"src/contracts/Desca.sol\":2967:4868  {... */\n      pop\n      pop\n      pop\n      pop\n        /* \"src/contracts/Desca.sol\":2907:4868  function reportData(int256[] calldata _sensordata) external {... */\n      pop\n      pop\n      jump\t// out\n        /* \"src/contracts/Desca.sol\":1932:2095  function addAdmin(address _adminAccount) public {... */\n    tag_62:\n        /* \"src/contracts/Desca.sol\":1998:2037  hasRole(DEFAULT_ADMIN_ROLE, msg.sender) */\n      tag_254\n        /* \"@openzeppelin/contracts/access/AccessControl.sol\":2072:2076  0x00 */\n      0x00\n        /* \"src/contracts/Desca.sol\":2006:2024  DEFAULT_ADMIN_ROLE */\n      dup1\n      shl\n        /* \"src/contracts/Desca.sol\":2026:2036  msg.sender */\n      caller\n        /* \"src/contracts/Desca.sol\":1998:2005  hasRole */\n      tag_65\n        /* \"src/contracts/Desca.sol\":1998:2037  hasRole(DEFAULT_ADMIN_ROLE, msg.sender) */\n      jump\t// in\n    tag_254:\n        /* \"src/contracts/Desca.sol\":1990:2038  require(hasRole(DEFAULT_ADMIN_ROLE, msg.sender)) */\n      tag_255\n      jumpi\n      0x00\n      dup1\n      revert\n    tag_255:\n        /* \"src/contracts/Desca.sol\":2048:2088  grantRole(NET_ADMIN_ROLE, _adminAccount) */\n      tag_256\n        /* \"src/contracts/Desca.sol\":642:669  keccak256(\"NET_ADMIN_ROLE\") */\n      0xa9cdaf89344a3579f43cc1eccbbe69ee73528d7c39b7f8ad0a660286f0c544ad\n        /* \"src/contracts/Desca.sol\":2074:2087  _adminAccount */\n      dup3\n        /* \"src/contracts/Desca.sol\":2048:2057  grantRole */\n      tag_52\n        /* \"src/contracts/Desca.sol\":2048:2088  grantRole(NET_ADMIN_ROLE, _adminAccount) */\n      jump\t// in\n    tag_256:\n        /* \"src/contracts/Desca.sol\":1932:2095  function addAdmin(address _adminAccount) public {... */\n      pop\n      jump\t// out\n        /* \"@openzeppelin/contracts/access/AccessControl.sol\":2909:3054  function hasRole(bytes32 role, address account) public view virtual override returns (bool) {... */\n    tag_65:\n        /* \"@openzeppelin/contracts/access/AccessControl.sol\":2995:2999  bool */\n      0x00\n        /* \"@openzeppelin/contracts/access/AccessControl.sol\":3018:3024  _roles */\n      dup1\n        /* \"@openzeppelin/contracts/access/AccessControl.sol\":3018:3030  _roles[role] */\n      0x00\n        /* \"@openzeppelin/contracts/access/AccessControl.sol\":3025:3029  role */\n      dup5\n        /* \"@openzeppelin/contracts/access/AccessControl.sol\":3018:3030  _roles[role] */\n      dup2\n      mstore\n      0x20\n      add\n      swap1\n      dup2\n      mstore\n      0x20\n      add\n      0x00\n      keccak256\n        /* \"@openzeppelin/contracts/access/AccessControl.sol\":3018:3038  _roles[role].members */\n      0x00\n      add\n        /* \"@openzeppelin/contracts/access/AccessControl.sol\":3018:3047  _roles[role].members[account] */\n      0x00\n        /* \"@openzeppelin/contracts/access/AccessControl.sol\":3039:3046  account */\n      dup4\n        /* \"@openzeppelin/contracts/access/AccessControl.sol\":3018:3047  _roles[role].members[account] */\n      0xffffffffffffffffffffffffffffffffffffffff\n      and\n      0xffffffffffffffffffffffffffffffffffffffff\n      and\n      dup2\n      mstore\n      0x20\n      add\n      swap1\n      dup2\n      mstore\n      0x20\n      add\n      0x00\n      keccak256\n      0x00\n      swap1\n      sload\n      swap1\n      0x0100\n      exp\n      swap1\n      div\n      0xff\n      and\n        /* \"@openzeppelin/contracts/access/AccessControl.sol\":3011:3047  return _roles[role].members[account] */\n      swap1\n      pop\n        /* \"@openzeppelin/contracts/access/AccessControl.sol\":2909:3054  function hasRole(bytes32 role, address account) public view virtual override returns (bool) {... */\n      swap3\n      swap2\n      pop\n      pop\n      jump\t// out\n        /* \"src/contracts/Desca.sol\":1137:1162  uint256 public totalNodes */\n    tag_68:\n      sload(0x01)\n      dup2\n      jump\t// out\n        /* \"src/contracts/Desca.sol\":2274:2596  function addNode(address _nodeaddress) public {... */\n    tag_73:\n        /* \"src/contracts/Desca.sol\":2338:2373  hasRole(NET_ADMIN_ROLE, msg.sender) */\n      tag_259\n        /* \"src/contracts/Desca.sol\":642:669  keccak256(\"NET_ADMIN_ROLE\") */\n      0xa9cdaf89344a3579f43cc1eccbbe69ee73528d7c39b7f8ad0a660286f0c544ad\n        /* \"src/contracts/Desca.sol\":2362:2372  msg.sender */\n      caller\n        /* \"src/contracts/Desca.sol\":2338:2345  hasRole */\n      tag_65\n        /* \"src/contracts/Desca.sol\":2338:2373  hasRole(NET_ADMIN_ROLE, msg.sender) */\n      jump\t// in\n    tag_259:\n        /* \"src/contracts/Desca.sol\":2330:2374  require(hasRole(NET_ADMIN_ROLE, msg.sender)) */\n      tag_260\n      jumpi\n      0x00\n      dup1\n      revert\n    tag_260:\n        /* \"src/contracts/Desca.sol\":2384:2423  grantRole(DATA_SENDER_ROLE, msg.sender) */\n      tag_261\n        /* \"src/contracts/Desca.sol\":504:533  keccak256(\"DATA_SENDER_ROLE\") */\n      0x086a7396bbeb0581a4f317ffb5b19566e9ecad105ee98e26d73cec5f34249022\n        /* \"src/contracts/Desca.sol\":2412:2422  msg.sender */\n      caller\n        /* \"src/contracts/Desca.sol\":2384:2393  grantRole */\n      tag_52\n        /* \"src/contracts/Desca.sol\":2384:2423  grantRole(DATA_SENDER_ROLE, msg.sender) */\n      jump\t// in\n    tag_261:\n        /* \"src/contracts/Desca.sol\":2447:2448  1 */\n      0x01\n        /* \"src/contracts/Desca.sol\":2433:2443  totalNodes */\n      dup1\n      0x00\n        /* \"src/contracts/Desca.sol\":2433:2448  totalNodes += 1 */\n      dup3\n      dup3\n      sload\n      tag_262\n      swap2\n      swap1\n      tag_174\n      jump\t// in\n    tag_262:\n      swap3\n      pop\n      pop\n      dup2\n      swap1\n      sstore\n      pop\n        /* \"src/contracts/Desca.sol\":2458:2471  node memory s */\n      0x00\n        /* \"src/contracts/Desca.sol\":2474:2563  node(_nodeaddress, 0, new int256[](0), new uint256[](0),  new bool[](0),  new bool[](0) ) */\n      mload(0x40)\n      dup1\n      0xc0\n      add\n      0x40\n      mstore\n      dup1\n        /* \"src/contracts/Desca.sol\":2479:2491  _nodeaddress */\n      dup4\n        /* \"src/contracts/Desca.sol\":2474:2563  node(_nodeaddress, 0, new int256[](0), new uint256[](0),  new bool[](0),  new bool[](0) ) */\n      0xffffffffffffffffffffffffffffffffffffffff\n      and\n      dup2\n      mstore\n      0x20\n      add\n        /* \"src/contracts/Desca.sol\":2493:2494  0 */\n      0x00\n        /* \"src/contracts/Desca.sol\":2474:2563  node(_nodeaddress, 0, new int256[](0), new uint256[](0),  new bool[](0),  new bool[](0) ) */\n      dup2\n      mstore\n      0x20\n      add\n        /* \"src/contracts/Desca.sol\":2509:2510  0 */\n      0x00\n        /* \"src/contracts/Desca.sol\":2496:2511  new int256[](0) */\n      0xffffffffffffffff\n      dup2\n      gt\n      iszero\n      tag_263\n      jumpi\n      tag_264\n      tag_148\n      jump\t// in\n    tag_264:\n    tag_263:\n      mload(0x40)\n      swap1\n      dup1\n      dup3\n      mstore\n      dup1\n      0x20\n      mul\n      0x20\n      add\n      dup3\n      add\n      0x40\n      mstore\n      dup1\n      iszero\n      tag_265\n      jumpi\n      dup2\n      0x20\n      add\n      0x20\n      dup3\n      mul\n      dup1\n      calldatasize\n      dup4\n      calldatacopy\n      dup1\n      dup3\n      add\n      swap2\n      pop\n      pop\n      swap1\n      pop\n    tag_265:\n      pop\n        /* \"src/contracts/Desca.sol\":2474:2563  node(_nodeaddress, 0, new int256[](0), new uint256[](0),  new bool[](0),  new bool[](0) ) */\n      dup2\n      mstore\n      0x20\n      add\n        /* \"src/contracts/Desca.sol\":2527:2528  0 */\n      0x00\n        /* \"src/contracts/Desca.sol\":2513:2529  new uint256[](0) */\n      0xffffffffffffffff\n      dup2\n      gt\n      iszero\n      tag_266\n      jumpi\n      tag_267\n      tag_148\n      jump\t// in\n    tag_267:\n    tag_266:\n      mload(0x40)\n      swap1\n      dup1\n      dup3\n      mstore\n      dup1\n      0x20\n      mul\n      0x20\n      add\n      dup3\n      add\n      0x40\n      mstore\n      dup1\n      iszero\n      tag_268\n      jumpi\n      dup2\n      0x20\n      add\n      0x20\n      dup3\n      mul\n      dup1\n      calldatasize\n      dup4\n      calldatacopy\n      dup1\n      dup3\n      add\n      swap2\n      pop\n      pop\n      swap1\n      pop\n    tag_268:\n      pop\n        /* \"src/contracts/Desca.sol\":2474:2563  node(_nodeaddress, 0, new int256[](0), new uint256[](0),  new bool[](0),  new bool[](0) ) */\n      dup2\n      mstore\n      0x20\n      add\n        /* \"src/contracts/Desca.sol\":2543:2544  0 */\n      0x00\n        /* \"src/contracts/Desca.sol\":2532:2545  new bool[](0) */\n      0xffffffffffffffff\n      dup2\n      gt\n      iszero\n      tag_269\n      jumpi\n      tag_270\n      tag_148\n      jump\t// in\n    tag_270:\n    tag_269:\n      mload(0x40)\n      swap1\n      dup1\n      dup3\n      mstore\n      dup1\n      0x20\n      mul\n      0x20\n      add\n      dup3\n      add\n      0x40\n      mstore\n      dup1\n      iszero\n      tag_271\n      jumpi\n      dup2\n      0x20\n      add\n      0x20\n      dup3\n      mul\n      dup1\n      calldatasize\n      dup4\n      calldatacopy\n      dup1\n      dup3\n      add\n      swap2\n      pop\n      pop\n      swap1\n      pop\n    tag_271:\n      pop\n        /* \"src/contracts/Desca.sol\":2474:2563  node(_nodeaddress, 0, new int256[](0), new uint256[](0),  new bool[](0),  new bool[](0) ) */\n      dup2\n      mstore\n      0x20\n      add\n        /* \"src/contracts/Desca.sol\":2559:2560  0 */\n      0x00\n        /* \"src/contracts/Desca.sol\":2548:2561  new bool[](0) */\n      0xffffffffffffffff\n      dup2\n      gt\n      iszero\n      tag_272\n      jumpi\n      tag_273\n      tag_148\n      jump\t// in\n    tag_273:\n    tag_272:\n      mload(0x40)\n      swap1\n      dup1\n      dup3\n      mstore\n      dup1\n      0x20\n      mul\n      0x20\n      add\n      dup3\n      add\n      0x40\n      mstore\n      dup1\n      iszero\n      tag_274\n      jumpi\n      dup2\n      0x20\n      add\n      0x20\n      dup3\n      mul\n      dup1\n      calldatasize\n      dup4\n      calldatacopy\n      dup1\n      dup3\n      add\n      swap2\n      pop\n      pop\n      swap1\n      pop\n    tag_274:\n      pop\n        /* \"src/contracts/Desca.sol\":2474:2563  node(_nodeaddress, 0, new int256[](0), new uint256[](0),  new bool[](0),  new bool[](0) ) */\n      dup2\n      mstore\n      pop\n        /* \"src/contracts/Desca.sol\":2458:2563  node memory s = node(_nodeaddress, 0, new int256[](0), new uint256[](0),  new bool[](0),  new bool[](0) ) */\n      swap1\n      pop\n        /* \"src/contracts/Desca.sol\":2573:2581  nodeList */\n      0x06\n        /* \"src/contracts/Desca.sol\":2587:2588  s */\n      dup2\n        /* \"src/contracts/Desca.sol\":2573:2589  nodeList.push(s) */\n      swap1\n      dup1\n      0x01\n      dup2\n      sload\n      add\n      dup1\n      dup3\n      sstore\n      dup1\n      swap2\n      pop\n      pop\n      0x01\n      swap1\n      sub\n      swap1\n      0x00\n      mstore\n      keccak256(0x00, 0x20)\n      swap1\n      0x06\n      mul\n      add\n      0x00\n      swap1\n      swap2\n      swap1\n      swap2\n      swap1\n      swap2\n      pop\n      0x00\n      dup3\n      add\n      mload\n      dup2\n      0x00\n      add\n      exp(0x0100, 0x00)\n      dup2\n      sload\n      dup2\n      0xffffffffffffffffffffffffffffffffffffffff\n      mul\n      not\n      and\n      swap1\n      dup4\n      0xffffffffffffffffffffffffffffffffffffffff\n      and\n      mul\n      or\n      swap1\n      sstore\n      pop\n      0x20\n      dup3\n      add\n      mload\n      dup2\n      0x01\n      add\n      sstore\n      0x40\n      dup3\n      add\n      mload\n      dup2\n      0x02\n      add\n      swap1\n      dup1\n      mload\n      swap1\n      0x20\n      add\n      swap1\n      tag_276\n      swap3\n      swap2\n      swap1\n      tag_193\n      jump\t// in\n    tag_276:\n      pop\n      0x60\n      dup3\n      add\n      mload\n      dup2\n      0x03\n      add\n      swap1\n      dup1\n      mload\n      swap1\n      0x20\n      add\n      swap1\n      tag_277\n      swap3\n      swap2\n      swap1\n      tag_195\n      jump\t// in\n    tag_277:\n      pop\n      0x80\n      dup3\n      add\n      mload\n      dup2\n      0x04\n      add\n      swap1\n      dup1\n      mload\n      swap1\n      0x20\n      add\n      swap1\n      tag_278\n      swap3\n      swap2\n      swap1\n      tag_197\n      jump\t// in\n    tag_278:\n      pop\n      0xa0\n      dup3\n      add\n      mload\n      dup2\n      0x05\n      add\n      swap1\n      dup1\n      mload\n      swap1\n      0x20\n      add\n      swap1\n      tag_279\n      swap3\n      swap2\n      swap1\n      tag_197\n      jump\t// in\n    tag_279:\n      pop\n      pop\n      pop\n        /* \"src/contracts/Desca.sol\":2320:2596  {... */\n      pop\n        /* \"src/contracts/Desca.sol\":2274:2596  function addNode(address _nodeaddress) public {... */\n      pop\n      jump\t// out\n        /* \"@openzeppelin/contracts/access/AccessControl.sol\":2027:2076  bytes32 public constant DEFAULT_ADMIN_ROLE = 0x00 */\n    tag_75:\n        /* \"@openzeppelin/contracts/access/AccessControl.sol\":2072:2076  0x00 */\n      0x00\n        /* \"@openzeppelin/contracts/access/AccessControl.sol\":2027:2076  bytes32 public constant DEFAULT_ADMIN_ROLE = 0x00 */\n      dup1\n      shl\n      dup2\n      jump\t// out\n        /* \"src/contracts/Desca.sol\":2602:2764  function removeNode(address _nodeaddress) public {... */\n    tag_79:\n        /* \"src/contracts/Desca.sol\":2669:2704  hasRole(NET_ADMIN_ROLE, msg.sender) */\n      tag_281\n        /* \"src/contracts/Desca.sol\":642:669  keccak256(\"NET_ADMIN_ROLE\") */\n      0xa9cdaf89344a3579f43cc1eccbbe69ee73528d7c39b7f8ad0a660286f0c544ad\n        /* \"src/contracts/Desca.sol\":2693:2703  msg.sender */\n      caller\n        /* \"src/contracts/Desca.sol\":2669:2676  hasRole */\n      tag_65\n        /* \"src/contracts/Desca.sol\":2669:2704  hasRole(NET_ADMIN_ROLE, msg.sender) */\n      jump\t// in\n    tag_281:\n        /* \"src/contracts/Desca.sol\":2661:2705  require(hasRole(NET_ADMIN_ROLE, msg.sender)) */\n      tag_282\n      jumpi\n      0x00\n      dup1\n      revert\n    tag_282:\n        /* \"src/contracts/Desca.sol\":2715:2757  revokeRole(DATA_SENDER_ROLE, _nodeaddress) */\n      tag_283\n        /* \"src/contracts/Desca.sol\":504:533  keccak256(\"DATA_SENDER_ROLE\") */\n      0x086a7396bbeb0581a4f317ffb5b19566e9ecad105ee98e26d73cec5f34249022\n        /* \"src/contracts/Desca.sol\":2744:2756  _nodeaddress */\n      dup3\n        /* \"src/contracts/Desca.sol\":2715:2725  revokeRole */\n      tag_94\n        /* \"src/contracts/Desca.sol\":2715:2757  revokeRole(DATA_SENDER_ROLE, _nodeaddress) */\n      jump\t// in\n    tag_283:\n        /* \"src/contracts/Desca.sol\":2602:2764  function removeNode(address _nodeaddress) public {... */\n      pop\n      jump\t// out\n        /* \"src/contracts/Desca.sol\":461:533  bytes32 public constant DATA_SENDER_ROLE = keccak256(\"DATA_SENDER_ROLE\") */\n    tag_81:\n        /* \"src/contracts/Desca.sol\":504:533  keccak256(\"DATA_SENDER_ROLE\") */\n      0x086a7396bbeb0581a4f317ffb5b19566e9ecad105ee98e26d73cec5f34249022\n        /* \"src/contracts/Desca.sol\":461:533  bytes32 public constant DATA_SENDER_ROLE = keccak256(\"DATA_SENDER_ROLE\") */\n      dup2\n      jump\t// out\n        /* \"src/contracts/Desca.sol\":1347:1375  uint256 public sensorTimeout */\n    tag_84:\n      sload(0x04)\n      dup2\n      jump\t// out\n        /* \"src/contracts/Desca.sol\":601:669  bytes32 public constant NET_ADMIN_ROLE = keccak256(\"NET_ADMIN_ROLE\") */\n    tag_87:\n        /* \"src/contracts/Desca.sol\":642:669  keccak256(\"NET_ADMIN_ROLE\") */\n      0xa9cdaf89344a3579f43cc1eccbbe69ee73528d7c39b7f8ad0a660286f0c544ad\n        /* \"src/contracts/Desca.sol\":601:669  bytes32 public constant NET_ADMIN_ROLE = keccak256(\"NET_ADMIN_ROLE\") */\n      dup2\n      jump\t// out\n        /* \"src/contracts/Desca.sol\":1463:1485  bool public flightflag */\n    tag_90:\n      0x05\n      0x00\n      swap1\n      sload\n      swap1\n      0x0100\n      exp\n      swap1\n      div\n      0xff\n      and\n      dup2\n      jump\t// out\n        /* \"@openzeppelin/contracts/access/AccessControl.sol\":4766:4913  function revokeRole(bytes32 role, address account) public virtual override onlyRole(getRoleAdmin(role)) {... */\n    tag_94:\n        /* \"@openzeppelin/contracts/access/AccessControl.sol\":4850:4868  getRoleAdmin(role) */\n      tag_284\n        /* \"@openzeppelin/contracts/access/AccessControl.sol\":4863:4867  role */\n      dup3\n        /* \"@openzeppelin/contracts/access/AccessControl.sol\":4850:4862  getRoleAdmin */\n      tag_46\n        /* \"@openzeppelin/contracts/access/AccessControl.sol\":4850:4868  getRoleAdmin(role) */\n      jump\t// in\n    tag_284:\n        /* \"@openzeppelin/contracts/access/AccessControl.sol\":2505:2535  _checkRole(role, _msgSender()) */\n      tag_286\n        /* \"@openzeppelin/contracts/access/AccessControl.sol\":2516:2520  role */\n      dup2\n        /* \"@openzeppelin/contracts/access/AccessControl.sol\":2522:2534  _msgSender() */\n      tag_287\n        /* \"@openzeppelin/contracts/access/AccessControl.sol\":2522:2532  _msgSender */\n      tag_119\n        /* \"@openzeppelin/contracts/access/AccessControl.sol\":2522:2534  _msgSender() */\n      jump\t// in\n    tag_287:\n        /* \"@openzeppelin/contracts/access/AccessControl.sol\":2505:2515  _checkRole */\n      tag_120\n        /* \"@openzeppelin/contracts/access/AccessControl.sol\":2505:2535  _checkRole(role, _msgSender()) */\n      jump\t// in\n    tag_286:\n        /* \"@openzeppelin/contracts/access/AccessControl.sol\":4880:4906  _revokeRole(role, account) */\n      tag_289\n        /* \"@openzeppelin/contracts/access/AccessControl.sol\":4892:4896  role */\n      dup4\n        /* \"@openzeppelin/contracts/access/AccessControl.sol\":4898:4905  account */\n      dup4\n        /* \"@openzeppelin/contracts/access/AccessControl.sol\":4880:4891  _revokeRole */\n      tag_130\n        /* \"@openzeppelin/contracts/access/AccessControl.sol\":4880:4906  _revokeRole(role, account) */\n      jump\t// in\n    tag_289:\n        /* \"@openzeppelin/contracts/access/AccessControl.sol\":4766:4913  function revokeRole(bytes32 role, address account) public virtual override onlyRole(getRoleAdmin(role)) {... */\n      pop\n      pop\n      pop\n      jump\t// out\n        /* \"src/contracts/Desca.sol\":1269:1300  uint256 public targetPercentage */\n    tag_96:\n      sload(0x03)\n      dup2\n      jump\t// out\n        /* \"src/contracts/Desca.sol\":1198:1225  uint256 public totalSensors */\n    tag_99:\n      sload(0x02)\n      dup2\n      jump\t// out\n        /* \"src/contracts/Desca.sol\":539:595  bytes32 public constant DAO_ROLE = keccak256(\"DAO_ROLE\") */\n    tag_102:\n        /* \"src/contracts/Desca.sol\":574:595  keccak256(\"DAO_ROLE\") */\n      0x3b5d4cc60d3ec3516ee8ae083bd60934f6eb2a6c54b1229985c41bfb092b2603\n        /* \"src/contracts/Desca.sol\":539:595  bytes32 public constant DAO_ROLE = keccak256(\"DAO_ROLE\") */\n      dup2\n      jump\t// out\n        /* \"@openzeppelin/contracts/utils/introspection/ERC165.sol\":829:984  function supportsInterface(bytes4 interfaceId) public view virtual override returns (bool) {... */\n    tag_107:\n        /* \"@openzeppelin/contracts/utils/introspection/ERC165.sol\":914:918  bool */\n      0x00\n        /* \"@openzeppelin/contracts/utils/introspection/ERC165.sol\":952:977  type(IERC165).interfaceId */\n      0x01ffc9a700000000000000000000000000000000000000000000000000000000\n        /* \"@openzeppelin/contracts/utils/introspection/ERC165.sol\":937:977  interfaceId == type(IERC165).interfaceId */\n      not(0xffffffffffffffffffffffffffffffffffffffffffffffffffffffff)\n      and\n        /* \"@openzeppelin/contracts/utils/introspection/ERC165.sol\":937:948  interfaceId */\n      dup3\n        /* \"@openzeppelin/contracts/utils/introspection/ERC165.sol\":937:977  interfaceId == type(IERC165).interfaceId */\n      not(0xffffffffffffffffffffffffffffffffffffffffffffffffffffffff)\n      and\n      eq\n        /* \"@openzeppelin/contracts/utils/introspection/ERC165.sol\":930:977  return interfaceId == type(IERC165).interfaceId */\n      swap1\n      pop\n        /* \"@openzeppelin/contracts/utils/introspection/ERC165.sol\":829:984  function supportsInterface(bytes4 interfaceId) public view virtual override returns (bool) {... */\n      swap2\n      swap1\n      pop\n      jump\t// out\n        /* \"@openzeppelin/contracts/utils/Context.sol\":640:736  function _msgSender() internal view virtual returns (address) {... */\n    tag_119:\n        /* \"@openzeppelin/contracts/utils/Context.sol\":693:700  address */\n      0x00\n        /* \"@openzeppelin/contracts/utils/Context.sol\":719:729  msg.sender */\n      caller\n        /* \"@openzeppelin/contracts/utils/Context.sol\":712:729  return msg.sender */\n      swap1\n      pop\n        /* \"@openzeppelin/contracts/utils/Context.sol\":640:736  function _msgSender() internal view virtual returns (address) {... */\n      swap1\n      jump\t// out\n        /* \"@openzeppelin/contracts/access/AccessControl.sol\":3335:3827  function _checkRole(bytes32 role, address account) internal view virtual {... */\n    tag_120:\n        /* \"@openzeppelin/contracts/access/AccessControl.sol\":3423:3445  hasRole(role, account) */\n      tag_293\n        /* \"@openzeppelin/contracts/access/AccessControl.sol\":3431:3435  role */\n      dup3\n        /* \"@openzeppelin/contracts/access/AccessControl.sol\":3437:3444  account */\n      dup3\n        /* \"@openzeppelin/contracts/access/AccessControl.sol\":3423:3430  hasRole */\n      tag_65\n        /* \"@openzeppelin/contracts/access/AccessControl.sol\":3423:3445  hasRole(role, account) */\n      jump\t// in\n    tag_293:\n        /* \"@openzeppelin/contracts/access/AccessControl.sol\":3418:3821  if (!hasRole(role, account)) {... */\n      tag_294\n      jumpi\n        /* \"@openzeppelin/contracts/access/AccessControl.sol\":3606:3647  Strings.toHexString(uint160(account), 20) */\n      tag_295\n        /* \"@openzeppelin/contracts/access/AccessControl.sol\":3634:3641  account */\n      dup2\n        /* \"@openzeppelin/contracts/access/AccessControl.sol\":3606:3647  Strings.toHexString(uint160(account), 20) */\n      0xffffffffffffffffffffffffffffffffffffffff\n      and\n        /* \"@openzeppelin/contracts/access/AccessControl.sol\":3644:3646  20 */\n      0x14\n        /* \"@openzeppelin/contracts/access/AccessControl.sol\":3606:3625  Strings.toHexString */\n      tag_296\n        /* \"@openzeppelin/contracts/access/AccessControl.sol\":3606:3647  Strings.toHexString(uint160(account), 20) */\n      jump\t// in\n    tag_295:\n        /* \"@openzeppelin/contracts/access/AccessControl.sol\":3718:3756  Strings.toHexString(uint256(role), 32) */\n      tag_297\n        /* \"@openzeppelin/contracts/access/AccessControl.sol\":3746:3750  role */\n      dup4\n        /* \"@openzeppelin/contracts/access/AccessControl.sol\":3738:3751  uint256(role) */\n      0x00\n      shr\n        /* \"@openzeppelin/contracts/access/AccessControl.sol\":3753:3755  32 */\n      0x20\n        /* \"@openzeppelin/contracts/access/AccessControl.sol\":3718:3737  Strings.toHexString */\n      tag_296\n        /* \"@openzeppelin/contracts/access/AccessControl.sol\":3718:3756  Strings.toHexString(uint256(role), 32) */\n      jump\t// in\n    tag_297:\n        /* \"@openzeppelin/contracts/access/AccessControl.sol\":3513:3778  abi.encodePacked(... */\n      add(0x20, mload(0x40))\n      tag_298\n      swap3\n      swap2\n      swap1\n      tag_299\n      jump\t// in\n    tag_298:\n      mload(0x40)\n      0x20\n      dup2\n      dup4\n      sub\n      sub\n      dup2\n      mstore\n      swap1\n      0x40\n      mstore\n        /* \"@openzeppelin/contracts/access/AccessControl.sol\":3461:3810  revert(... */\n      mload(0x40)\n      0x08c379a000000000000000000000000000000000000000000000000000000000\n      dup2\n      mstore\n      0x04\n      add\n      tag_300\n      swap2\n      swap1\n      tag_301\n      jump\t// in\n    tag_300:\n      mload(0x40)\n      dup1\n      swap2\n      sub\n      swap1\n      revert\n        /* \"@openzeppelin/contracts/access/AccessControl.sol\":3418:3821  if (!hasRole(role, account)) {... */\n    tag_294:\n        /* \"@openzeppelin/contracts/access/AccessControl.sol\":3335:3827  function _checkRole(bytes32 role, address account) internal view virtual {... */\n      pop\n      pop\n      jump\t// out\n        /* \"@openzeppelin/contracts/access/AccessControl.sol\":6861:7094  function _grantRole(bytes32 role, address account) internal virtual {... */\n    tag_123:\n        /* \"@openzeppelin/contracts/access/AccessControl.sol\":6944:6966  hasRole(role, account) */\n      tag_303\n        /* \"@openzeppelin/contracts/access/AccessControl.sol\":6952:6956  role */\n      dup3\n        /* \"@openzeppelin/contracts/access/AccessControl.sol\":6958:6965  account */\n      dup3\n        /* \"@openzeppelin/contracts/access/AccessControl.sol\":6944:6951  hasRole */\n      tag_65\n        /* \"@openzeppelin/contracts/access/AccessControl.sol\":6944:6966  hasRole(role, account) */\n      jump\t// in\n    tag_303:\n        /* \"@openzeppelin/contracts/access/AccessControl.sol\":6939:7088  if (!hasRole(role, account)) {... */\n      tag_304\n      jumpi\n        /* \"@openzeppelin/contracts/access/AccessControl.sol\":7014:7018  true */\n      0x01\n        /* \"@openzeppelin/contracts/access/AccessControl.sol\":6982:6988  _roles */\n      0x00\n        /* \"@openzeppelin/contracts/access/AccessControl.sol\":6982:6994  _roles[role] */\n      dup1\n        /* \"@openzeppelin/contracts/access/AccessControl.sol\":6989:6993  role */\n      dup5\n        /* \"@openzeppelin/contracts/access/AccessControl.sol\":6982:6994  _roles[role] */\n      dup2\n      mstore\n      0x20\n      add\n      swap1\n      dup2\n      mstore\n      0x20\n      add\n      0x00\n      keccak256\n        /* \"@openzeppelin/contracts/access/AccessControl.sol\":6982:7002  _roles[role].members */\n      0x00\n      add\n        /* \"@openzeppelin/contracts/access/AccessControl.sol\":6982:7011  _roles[role].members[account] */\n      0x00\n        /* \"@openzeppelin/contracts/access/AccessControl.sol\":7003:7010  account */\n      dup4\n        /* \"@openzeppelin/contracts/access/AccessControl.sol\":6982:7011  _roles[role].members[account] */\n      0xffffffffffffffffffffffffffffffffffffffff\n      and\n      0xffffffffffffffffffffffffffffffffffffffff\n      and\n      dup2\n      mstore\n      0x20\n      add\n      swap1\n      dup2\n      mstore\n      0x20\n      add\n      0x00\n      keccak256\n      0x00\n        /* \"@openzeppelin/contracts/access/AccessControl.sol\":6982:7018  _roles[role].members[account] = true */\n      0x0100\n      exp\n      dup2\n      sload\n      dup2\n      0xff\n      mul\n      not\n      and\n      swap1\n      dup4\n      iszero\n      iszero\n      mul\n      or\n      swap1\n      sstore\n      pop\n        /* \"@openzeppelin/contracts/access/AccessControl.sol\":7064:7076  _msgSender() */\n      tag_305\n        /* \"@openzeppelin/contracts/access/AccessControl.sol\":7064:7074  _msgSender */\n      tag_119\n        /* \"@openzeppelin/contracts/access/AccessControl.sol\":7064:7076  _msgSender() */\n      jump\t// in\n    tag_305:\n        /* \"@openzeppelin/contracts/access/AccessControl.sol\":7037:7077  RoleGranted(role, account, _msgSender()) */\n      0xffffffffffffffffffffffffffffffffffffffff\n      and\n        /* \"@openzeppelin/contracts/access/AccessControl.sol\":7055:7062  account */\n      dup2\n        /* \"@openzeppelin/contracts/access/AccessControl.sol\":7037:7077  RoleGranted(role, account, _msgSender()) */\n      0xffffffffffffffffffffffffffffffffffffffff\n      and\n        /* \"@openzeppelin/contracts/access/AccessControl.sol\":7049:7053  role */\n      dup4\n        /* \"@openzeppelin/contracts/access/AccessControl.sol\":7037:7077  RoleGranted(role, account, _msgSender()) */\n      0x2f8788117e7eff1d82e926ec794901d17c78024a50270940304540a733656f0d\n      mload(0x40)\n      mload(0x40)\n      dup1\n      swap2\n      sub\n      swap1\n      log4\n        /* \"@openzeppelin/contracts/access/AccessControl.sol\":6939:7088  if (!hasRole(role, account)) {... */\n    tag_304:\n        /* \"@openzeppelin/contracts/access/AccessControl.sol\":6861:7094  function _grantRole(bytes32 role, address account) internal virtual {... */\n      pop\n      pop\n      jump\t// out\n        /* \"@openzeppelin/contracts/access/AccessControl.sol\":7219:7453  function _revokeRole(bytes32 role, address account) internal virtual {... */\n    tag_130:\n        /* \"@openzeppelin/contracts/access/AccessControl.sol\":7302:7324  hasRole(role, account) */\n      tag_307\n        /* \"@openzeppelin/contracts/access/AccessControl.sol\":7310:7314  role */\n      dup3\n        /* \"@openzeppelin/contracts/access/AccessControl.sol\":7316:7323  account */\n      dup3\n        /* \"@openzeppelin/contracts/access/AccessControl.sol\":7302:7309  hasRole */\n      tag_65\n        /* \"@openzeppelin/contracts/access/AccessControl.sol\":7302:7324  hasRole(role, account) */\n      jump\t// in\n    tag_307:\n        /* \"@openzeppelin/contracts/access/AccessControl.sol\":7298:7447  if (hasRole(role, account)) {... */\n      iszero\n      tag_308\n      jumpi\n        /* \"@openzeppelin/contracts/access/AccessControl.sol\":7372:7377  false */\n      0x00\n        /* \"@openzeppelin/contracts/access/AccessControl.sol\":7340:7346  _roles */\n      dup1\n        /* \"@openzeppelin/contracts/access/AccessControl.sol\":7340:7352  _roles[role] */\n      0x00\n        /* \"@openzeppelin/contracts/access/AccessControl.sol\":7347:7351  role */\n      dup5\n        /* \"@openzeppelin/contracts/access/AccessControl.sol\":7340:7352  _roles[role] */\n      dup2\n      mstore\n      0x20\n      add\n      swap1\n      dup2\n      mstore\n      0x20\n      add\n      0x00\n      keccak256\n        /* \"@openzeppelin/contracts/access/AccessControl.sol\":7340:7360  _roles[role].members */\n      0x00\n      add\n        /* \"@openzeppelin/contracts/access/AccessControl.sol\":7340:7369  _roles[role].members[account] */\n      0x00\n        /* \"@openzeppelin/contracts/access/AccessControl.sol\":7361:7368  account */\n      dup4\n        /* \"@openzeppelin/contracts/access/AccessControl.sol\":7340:7369  _roles[role].members[account] */\n      0xffffffffffffffffffffffffffffffffffffffff\n      and\n      0xffffffffffffffffffffffffffffffffffffffff\n      and\n      dup2\n      mstore\n      0x20\n      add\n      swap1\n      dup2\n      mstore\n      0x20\n      add\n      0x00\n      keccak256\n      0x00\n        /* \"@openzeppelin/contracts/access/AccessControl.sol\":7340:7377  _roles[role].members[account] = false */\n      0x0100\n      exp\n      dup2\n      sload\n      dup2\n      0xff\n      mul\n      not\n      and\n      swap1\n      dup4\n      iszero\n      iszero\n      mul\n      or\n      swap1\n      sstore\n      pop\n        /* \"@openzeppelin/contracts/access/AccessControl.sol\":7423:7435  _msgSender() */\n      tag_309\n        /* \"@openzeppelin/contracts/access/AccessControl.sol\":7423:7433  _msgSender */\n      tag_119\n        /* \"@openzeppelin/contracts/access/AccessControl.sol\":7423:7435  _msgSender() */\n      jump\t// in\n    tag_309:\n        /* \"@openzeppelin/contracts/access/AccessControl.sol\":7396:7436  RoleRevoked(role, account, _msgSender()) */\n      0xffffffffffffffffffffffffffffffffffffffff\n      and\n        /* \"@openzeppelin/contracts/access/AccessControl.sol\":7414:7421  account */\n      dup2\n        /* \"@openzeppelin/contracts/access/AccessControl.sol\":7396:7436  RoleRevoked(role, account, _msgSender()) */\n      0xffffffffffffffffffffffffffffffffffffffff\n      and\n        /* \"@openzeppelin/contracts/access/AccessControl.sol\":7408:7412  role */\n      dup4\n        /* \"@openzeppelin/contracts/access/AccessControl.sol\":7396:7436  RoleRevoked(role, account, _msgSender()) */\n      0xf6391f5c32d9c69d2a47ea670b442974b53935d1edc7fd64eb21e047a839171b\n      mload(0x40)\n      mload(0x40)\n      dup1\n      swap2\n      sub\n      swap1\n      log4\n        /* \"@openzeppelin/contracts/access/AccessControl.sol\":7298:7447  if (hasRole(role, account)) {... */\n    tag_308:\n        /* \"@openzeppelin/contracts/access/AccessControl.sol\":7219:7453  function _revokeRole(bytes32 role, address account) internal virtual {... */\n      pop\n      pop\n      jump\t// out\n        /* \"@openzeppelin/contracts/utils/Strings.sol\":1588:2029  function toHexString(uint256 value, uint256 length) internal pure returns (string memory) {... */\n    tag_296:\n        /* \"@openzeppelin/contracts/utils/Strings.sol\":1663:1676  string memory */\n      0x60\n        /* \"@openzeppelin/contracts/utils/Strings.sol\":1688:1707  bytes memory buffer */\n      0x00\n        /* \"@openzeppelin/contracts/utils/Strings.sol\":1733:1734  2 */\n      0x02\n        /* \"@openzeppelin/contracts/utils/Strings.sol\":1724:1730  length */\n      dup4\n        /* \"@openzeppelin/contracts/utils/Strings.sol\":1720:1721  2 */\n      0x02\n        /* \"@openzeppelin/contracts/utils/Strings.sol\":1720:1730  2 * length */\n      tag_311\n      swap2\n      swap1\n      tag_247\n      jump\t// in\n    tag_311:\n        /* \"@openzeppelin/contracts/utils/Strings.sol\":1720:1734  2 * length + 2 */\n      tag_312\n      swap2\n      swap1\n      tag_174\n      jump\t// in\n    tag_312:\n        /* \"@openzeppelin/contracts/utils/Strings.sol\":1710:1735  new bytes(2 * length + 2) */\n      0xffffffffffffffff\n      dup2\n      gt\n      iszero\n      tag_313\n      jumpi\n      tag_314\n      tag_148\n      jump\t// in\n    tag_314:\n    tag_313:\n      mload(0x40)\n      swap1\n      dup1\n      dup3\n      mstore\n      dup1\n      0x1f\n      add\n      not(0x1f)\n      and\n      0x20\n      add\n      dup3\n      add\n      0x40\n      mstore\n      dup1\n      iszero\n      tag_315\n      jumpi\n      dup2\n      0x20\n      add\n      0x01\n      dup3\n      mul\n      dup1\n      calldatasize\n      dup4\n      calldatacopy\n      dup1\n      dup3\n      add\n      swap2\n      pop\n      pop\n      swap1\n      pop\n    tag_315:\n      pop\n        /* \"@openzeppelin/contracts/utils/Strings.sol\":1688:1735  bytes memory buffer = new bytes(2 * length + 2) */\n      swap1\n      pop\n        /* \"@openzeppelin/contracts/utils/Strings.sol\":1745:1760  buffer[0] = \"0\" */\n      0x3000000000000000000000000000000000000000000000000000000000000000\n        /* \"@openzeppelin/contracts/utils/Strings.sol\":1745:1751  buffer */\n      dup2\n        /* \"@openzeppelin/contracts/utils/Strings.sol\":1752:1753  0 */\n      0x00\n        /* \"@openzeppelin/contracts/utils/Strings.sol\":1745:1754  buffer[0] */\n      dup2\n      mload\n      dup2\n      lt\n      tag_316\n      jumpi\n      tag_317\n      tag_136\n      jump\t// in\n    tag_317:\n    tag_316:\n      0x20\n      add\n      add\n        /* \"@openzeppelin/contracts/utils/Strings.sol\":1745:1760  buffer[0] = \"0\" */\n      swap1\n      not(0xffffffffffffffffffffffffffffffffffffffffffffffffffffffffffffff)\n      and\n      swap1\n      dup2\n      0x00\n      byte\n      swap1\n      mstore8\n      pop\n        /* \"@openzeppelin/contracts/utils/Strings.sol\":1770:1785  buffer[1] = \"x\" */\n      0x7800000000000000000000000000000000000000000000000000000000000000\n        /* \"@openzeppelin/contracts/utils/Strings.sol\":1770:1776  buffer */\n      dup2\n        /* \"@openzeppelin/contracts/utils/Strings.sol\":1777:1778  1 */\n      0x01\n        /* \"@openzeppelin/contracts/utils/Strings.sol\":1770:1779  buffer[1] */\n      dup2\n      mload\n      dup2\n      lt\n      tag_318\n      jumpi\n      tag_319\n      tag_136\n      jump\t// in\n    tag_319:\n    tag_318:\n      0x20\n      add\n      add\n        /* \"@openzeppelin/contracts/utils/Strings.sol\":1770:1785  buffer[1] = \"x\" */\n      swap1\n      not(0xffffffffffffffffffffffffffffffffffffffffffffffffffffffffffffff)\n      and\n      swap1\n      dup2\n      0x00\n      byte\n      swap1\n      mstore8\n      pop\n        /* \"@openzeppelin/contracts/utils/Strings.sol\":1800:1809  uint256 i */\n      0x00\n        /* \"@openzeppelin/contracts/utils/Strings.sol\":1825:1826  1 */\n      0x01\n        /* \"@openzeppelin/contracts/utils/Strings.sol\":1816:1822  length */\n      dup5\n        /* \"@openzeppelin/contracts/utils/Strings.sol\":1812:1813  2 */\n      0x02\n        /* \"@openzeppelin/contracts/utils/Strings.sol\":1812:1822  2 * length */\n      tag_323\n      swap2\n      swap1\n      tag_247\n      jump\t// in\n    tag_323:\n        /* \"@openzeppelin/contracts/utils/Strings.sol\":1812:1826  2 * length + 1 */\n      tag_324\n      swap2\n      swap1\n      tag_174\n      jump\t// in\n    tag_324:\n        /* \"@openzeppelin/contracts/utils/Strings.sol\":1800:1826  uint256 i = 2 * length + 1 */\n      swap1\n      pop\n        /* \"@openzeppelin/contracts/utils/Strings.sol\":1795:1927  for (uint256 i = 2 * length + 1; i > 1; --i) {... */\n    tag_320:\n        /* \"@openzeppelin/contracts/utils/Strings.sol\":1832:1833  1 */\n      0x01\n        /* \"@openzeppelin/contracts/utils/Strings.sol\":1828:1829  i */\n      dup2\n        /* \"@openzeppelin/contracts/utils/Strings.sol\":1828:1833  i > 1 */\n      gt\n        /* \"@openzeppelin/contracts/utils/Strings.sol\":1795:1927  for (uint256 i = 2 * length + 1; i > 1; --i) {... */\n      iszero\n      tag_321\n      jumpi\n        /* \"@openzeppelin/contracts/utils/Strings.sol\":1866:1878  _HEX_SYMBOLS */\n      0x3031323334353637383961626364656600000000000000000000000000000000\n        /* \"@openzeppelin/contracts/utils/Strings.sol\":1887:1890  0xf */\n      0x0f\n        /* \"@openzeppelin/contracts/utils/Strings.sol\":1879:1884  value */\n      dup7\n        /* \"@openzeppelin/contracts/utils/Strings.sol\":1879:1890  value & 0xf */\n      and\n        /* \"@openzeppelin/contracts/utils/Strings.sol\":1866:1891  _HEX_SYMBOLS[value & 0xf] */\n      0x10\n      dup2\n      lt\n      tag_325\n      jumpi\n      tag_326\n      tag_136\n      jump\t// in\n    tag_326:\n    tag_325:\n      byte\n      0xf8\n      shl\n        /* \"@openzeppelin/contracts/utils/Strings.sol\":1854:1860  buffer */\n      dup3\n        /* \"@openzeppelin/contracts/utils/Strings.sol\":1861:1862  i */\n      dup3\n        /* \"@openzeppelin/contracts/utils/Strings.sol\":1854:1863  buffer[i] */\n      dup2\n      mload\n      dup2\n      lt\n      tag_327\n      jumpi\n      tag_328\n      tag_136\n      jump\t// in\n    tag_328:\n    tag_327:\n      0x20\n      add\n      add\n        /* \"@openzeppelin/contracts/utils/Strings.sol\":1854:1891  buffer[i] = _HEX_SYMBOLS[value & 0xf] */\n      swap1\n      not(0xffffffffffffffffffffffffffffffffffffffffffffffffffffffffffffff)\n      and\n      swap1\n      dup2\n      0x00\n      byte\n      swap1\n      mstore8\n      pop\n        /* \"@openzeppelin/contracts/utils/Strings.sol\":1915:1916  4 */\n      0x04\n        /* \"@openzeppelin/contracts/utils/Strings.sol\":1905:1916  value >>= 4 */\n      dup6\n      swap1\n      shr\n      swap5\n      pop\n        /* \"@openzeppelin/contracts/utils/Strings.sol\":1835:1838  --i */\n      dup1\n      tag_329\n      swap1\n      tag_330\n      jump\t// in\n    tag_329:\n      swap1\n      pop\n        /* \"@openzeppelin/contracts/utils/Strings.sol\":1795:1927  for (uint256 i = 2 * length + 1; i > 1; --i) {... */\n      jump(tag_320)\n    tag_321:\n      pop\n        /* \"@openzeppelin/contracts/utils/Strings.sol\":1953:1954  0 */\n      0x00\n        /* \"@openzeppelin/contracts/utils/Strings.sol\":1944:1949  value */\n      dup5\n        /* \"@openzeppelin/contracts/utils/Strings.sol\":1944:1954  value == 0 */\n      eq\n        /* \"@openzeppelin/contracts/utils/Strings.sol\":1936:1991  require(value == 0, \"Strings: hex length insufficient\") */\n      tag_331\n      jumpi\n      mload(0x40)\n      0x08c379a000000000000000000000000000000000000000000000000000000000\n      dup2\n      mstore\n      0x04\n      add\n      tag_332\n      swap1\n      tag_333\n      jump\t// in\n    tag_332:\n      mload(0x40)\n      dup1\n      swap2\n      sub\n      swap1\n      revert\n    tag_331:\n        /* \"@openzeppelin/contracts/utils/Strings.sol\":2015:2021  buffer */\n      dup1\n        /* \"@openzeppelin/contracts/utils/Strings.sol\":2001:2022  return string(buffer) */\n      swap2\n      pop\n      pop\n        /* \"@openzeppelin/contracts/utils/Strings.sol\":1588:2029  function toHexString(uint256 value, uint256 length) internal pure returns (string memory) {... */\n      swap3\n      swap2\n      pop\n      pop\n      jump\t// out\n    tag_193:\n      dup3\n      dup1\n      sload\n      dup3\n      dup3\n      sstore\n      swap1\n      0x00\n      mstore\n      keccak256(0x00, 0x20)\n      swap1\n      dup2\n      add\n      swap3\n      dup3\n      iszero\n      tag_334\n      jumpi\n      swap2\n      0x20\n      mul\n      dup3\n      add\n    tag_335:\n      dup3\n      dup2\n      gt\n      iszero\n      tag_336\n      jumpi\n      dup3\n      mload\n      dup3\n      sstore\n      swap2\n      0x20\n      add\n      swap2\n      swap1\n      0x01\n      add\n      swap1\n      jump(tag_335)\n    tag_336:\n    tag_334:\n      pop\n      swap1\n      pop\n      tag_337\n      swap2\n      swap1\n      tag_338\n      jump\t// in\n    tag_337:\n      pop\n      swap1\n      jump\t// out\n    tag_195:\n      dup3\n      dup1\n      sload\n      dup3\n      dup3\n      sstore\n      swap1\n      0x00\n      mstore\n      keccak256(0x00, 0x20)\n      swap1\n      dup2\n      add\n      swap3\n      dup3\n      iszero\n      tag_339\n      jumpi\n      swap2\n      0x20\n      mul\n      dup3\n      add\n    tag_340:\n      dup3\n      dup2\n      gt\n      iszero\n      tag_341\n      jumpi\n      dup3\n      mload\n      dup3\n      sstore\n      swap2\n      0x20\n      add\n      swap2\n      swap1\n      0x01\n      add\n      swap1\n      jump(tag_340)\n    tag_341:\n    tag_339:\n      pop\n      swap1\n      pop\n      tag_342\n      swap2\n      swap1\n      tag_343\n      jump\t// in\n    tag_342:\n      pop\n      swap1\n      jump\t// out\n    tag_197:\n      dup3\n      dup1\n      sload\n      dup3\n      dup3\n      sstore\n      swap1\n      0x00\n      mstore\n      keccak256(0x00, 0x20)\n      swap1\n      0x1f\n      add\n      0x20\n      swap1\n      div\n      dup2\n      add\n      swap3\n      dup3\n      iszero\n      tag_344\n      jumpi\n      swap2\n      0x20\n      mul\n      dup3\n      add\n      0x00\n    tag_345:\n      dup4\n      dup3\n      gt\n      iszero\n      tag_346\n      jumpi\n      dup4\n      mload\n      dup4\n      dup3\n      0x0100\n      exp\n      dup2\n      sload\n      dup2\n      0xff\n      mul\n      not\n      and\n      swap1\n      dup4\n      iszero\n      iszero\n      mul\n      or\n      swap1\n      sstore\n      pop\n      swap3\n      0x20\n      add\n      swap3\n      0x01\n      add\n      0x20\n      dup2\n      0x00\n      add\n      div\n      swap3\n      dup4\n      add\n      swap3\n      0x01\n      sub\n      mul\n      jump(tag_345)\n    tag_346:\n      dup1\n      iszero\n      tag_347\n      jumpi\n      dup3\n      dup2\n      0x0100\n      exp\n      dup2\n      sload\n      swap1\n      0xff\n      mul\n      not\n      and\n      swap1\n      sstore\n      0x01\n      add\n      0x20\n      dup2\n      0x00\n      add\n      div\n      swap3\n      dup4\n      add\n      swap3\n      0x01\n      sub\n      mul\n      jump(tag_346)\n    tag_347:\n      pop\n    tag_344:\n      pop\n      swap1\n      pop\n      tag_348\n      swap2\n      swap1\n      tag_343\n      jump\t// in\n    tag_348:\n      pop\n      swap1\n      jump\t// out\n    tag_338:\n    tag_349:\n      dup1\n      dup3\n      gt\n      iszero\n      tag_350\n      jumpi\n      0x00\n      dup2\n      0x00\n      swap1\n      sstore\n      pop\n      0x01\n      add\n      jump(tag_349)\n    tag_350:\n      pop\n      swap1\n      jump\t// out\n    tag_343:\n    tag_351:\n      dup1\n      dup3\n      gt\n      iszero\n      tag_352\n      jumpi\n      0x00\n      dup2\n      0x00\n      swap1\n      sstore\n      pop\n      0x01\n      add\n      jump(tag_351)\n    tag_352:\n      pop\n      swap1\n      jump\t// out\n        /* \"#utility.yul\":88:205   */\n    tag_354:\n        /* \"#utility.yul\":197:198   */\n      0x00\n        /* \"#utility.yul\":194:195   */\n      dup1\n        /* \"#utility.yul\":187:199   */\n      revert\n        /* \"#utility.yul\":211:328   */\n    tag_355:\n        /* \"#utility.yul\":320:321   */\n      0x00\n        /* \"#utility.yul\":317:318   */\n      dup1\n        /* \"#utility.yul\":310:322   */\n      revert\n        /* \"#utility.yul\":334:483   */\n    tag_356:\n        /* \"#utility.yul\":370:377   */\n      0x00\n        /* \"#utility.yul\":410:476   */\n      0xffffffff00000000000000000000000000000000000000000000000000000000\n        /* \"#utility.yul\":403:408   */\n      dup3\n        /* \"#utility.yul\":399:477   */\n      and\n        /* \"#utility.yul\":388:477   */\n      swap1\n      pop\n        /* \"#utility.yul\":334:483   */\n      swap2\n      swap1\n      pop\n      jump\t// out\n        /* \"#utility.yul\":489:609   */\n    tag_357:\n        /* \"#utility.yul\":561:584   */\n      tag_401\n        /* \"#utility.yul\":578:583   */\n      dup2\n        /* \"#utility.yul\":561:584   */\n      tag_356\n      jump\t// in\n    tag_401:\n        /* \"#utility.yul\":554:559   */\n      dup2\n        /* \"#utility.yul\":551:585   */\n      eq\n        /* \"#utility.yul\":541:603   */\n      tag_402\n      jumpi\n        /* \"#utility.yul\":599:600   */\n      0x00\n        /* \"#utility.yul\":596:597   */\n      dup1\n        /* \"#utility.yul\":589:601   */\n      revert\n        /* \"#utility.yul\":541:603   */\n    tag_402:\n        /* \"#utility.yul\":489:609   */\n      pop\n      jump\t// out\n        /* \"#utility.yul\":615:752   */\n    tag_358:\n        /* \"#utility.yul\":660:665   */\n      0x00\n        /* \"#utility.yul\":698:704   */\n      dup2\n        /* \"#utility.yul\":685:705   */\n      calldataload\n        /* \"#utility.yul\":676:705   */\n      swap1\n      pop\n        /* \"#utility.yul\":714:746   */\n      tag_404\n        /* \"#utility.yul\":740:745   */\n      dup2\n        /* \"#utility.yul\":714:746   */\n      tag_357\n      jump\t// in\n    tag_404:\n        /* \"#utility.yul\":615:752   */\n      swap3\n      swap2\n      pop\n      pop\n      jump\t// out\n        /* \"#utility.yul\":758:1085   */\n    tag_29:\n        /* \"#utility.yul\":816:822   */\n      0x00\n        /* \"#utility.yul\":865:867   */\n      0x20\n        /* \"#utility.yul\":853:862   */\n      dup3\n        /* \"#utility.yul\":844:851   */\n      dup5\n        /* \"#utility.yul\":840:863   */\n      sub\n        /* \"#utility.yul\":836:868   */\n      slt\n        /* \"#utility.yul\":833:952   */\n      iszero\n      tag_406\n      jumpi\n        /* \"#utility.yul\":871:950   */\n      tag_407\n      tag_354\n      jump\t// in\n    tag_407:\n        /* \"#utility.yul\":833:952   */\n    tag_406:\n        /* \"#utility.yul\":991:992   */\n      0x00\n        /* \"#utility.yul\":1016:1068   */\n      tag_408\n        /* \"#utility.yul\":1060:1067   */\n      dup5\n        /* \"#utility.yul\":1051:1057   */\n      dup3\n        /* \"#utility.yul\":1040:1049   */\n      dup6\n        /* \"#utility.yul\":1036:1058   */\n      add\n        /* \"#utility.yul\":1016:1068   */\n      tag_358\n      jump\t// in\n    tag_408:\n        /* \"#utility.yul\":1006:1068   */\n      swap2\n      pop\n        /* \"#utility.yul\":962:1078   */\n      pop\n        /* \"#utility.yul\":758:1085   */\n      swap3\n      swap2\n      pop\n      pop\n      jump\t// out\n        /* \"#utility.yul\":1091:1181   */\n    tag_359:\n        /* \"#utility.yul\":1125:1132   */\n      0x00\n        /* \"#utility.yul\":1168:1173   */\n      dup2\n        /* \"#utility.yul\":1161:1174   */\n      iszero\n        /* \"#utility.yul\":1154:1175   */\n      iszero\n        /* \"#utility.yul\":1143:1175   */\n      swap1\n      pop\n        /* \"#utility.yul\":1091:1181   */\n      swap2\n      swap1\n      pop\n      jump\t// out\n        /* \"#utility.yul\":1187:1296   */\n    tag_360:\n        /* \"#utility.yul\":1268:1289   */\n      tag_411\n        /* \"#utility.yul\":1283:1288   */\n      dup2\n        /* \"#utility.yul\":1268:1289   */\n      tag_359\n      jump\t// in\n    tag_411:\n        /* \"#utility.yul\":1263:1266   */\n      dup3\n        /* \"#utility.yul\":1256:1290   */\n      mstore\n        /* \"#utility.yul\":1187:1296   */\n      pop\n      pop\n      jump\t// out\n        /* \"#utility.yul\":1302:1512   */\n    tag_32:\n        /* \"#utility.yul\":1389:1393   */\n      0x00\n        /* \"#utility.yul\":1427:1429   */\n      0x20\n        /* \"#utility.yul\":1416:1425   */\n      dup3\n        /* \"#utility.yul\":1412:1430   */\n      add\n        /* \"#utility.yul\":1404:1430   */\n      swap1\n      pop\n        /* \"#utility.yul\":1440:1505   */\n      tag_413\n        /* \"#utility.yul\":1502:1503   */\n      0x00\n        /* \"#utility.yul\":1491:1500   */\n      dup4\n        /* \"#utility.yul\":1487:1504   */\n      add\n        /* \"#utility.yul\":1478:1484   */\n      dup5\n        /* \"#utility.yul\":1440:1505   */\n      tag_360\n      jump\t// in\n    tag_413:\n        /* \"#utility.yul\":1302:1512   */\n      swap3\n      swap2\n      pop\n      pop\n      jump\t// out\n        /* \"#utility.yul\":1518:1644   */\n    tag_361:\n        /* \"#utility.yul\":1555:1562   */\n      0x00\n        /* \"#utility.yul\":1595:1637   */\n      0xffffffffffffffffffffffffffffffffffffffff\n        /* \"#utility.yul\":1588:1593   */\n      dup3\n        /* \"#utility.yul\":1584:1638   */\n      and\n        /* \"#utility.yul\":1573:1638   */\n      swap1\n      pop\n        /* \"#utility.yul\":1518:1644   */\n      swap2\n      swap1\n      pop\n      jump\t// out\n        /* \"#utility.yul\":1650:1746   */\n    tag_362:\n        /* \"#utility.yul\":1687:1694   */\n      0x00\n        /* \"#utility.yul\":1716:1740   */\n      tag_416\n        /* \"#utility.yul\":1734:1739   */\n      dup3\n        /* \"#utility.yul\":1716:1740   */\n      tag_361\n      jump\t// in\n    tag_416:\n        /* \"#utility.yul\":1705:1740   */\n      swap1\n      pop\n        /* \"#utility.yul\":1650:1746   */\n      swap2\n      swap1\n      pop\n      jump\t// out\n        /* \"#utility.yul\":1752:1874   */\n    tag_363:\n        /* \"#utility.yul\":1825:1849   */\n      tag_418\n        /* \"#utility.yul\":1843:1848   */\n      dup2\n        /* \"#utility.yul\":1825:1849   */\n      tag_362\n      jump\t// in\n    tag_418:\n        /* \"#utility.yul\":1818:1823   */\n      dup2\n        /* \"#utility.yul\":1815:1850   */\n      eq\n        /* \"#utility.yul\":1805:1868   */\n      tag_419\n      jumpi\n        /* \"#utility.yul\":1864:1865   */\n      0x00\n        /* \"#utility.yul\":1861:1862   */\n      dup1\n        /* \"#utility.yul\":1854:1866   */\n      revert\n        /* \"#utility.yul\":1805:1868   */\n    tag_419:\n        /* \"#utility.yul\":1752:1874   */\n      pop\n      jump\t// out\n        /* \"#utility.yul\":1880:2019   */\n    tag_364:\n        /* \"#utility.yul\":1926:1931   */\n      0x00\n        /* \"#utility.yul\":1964:1970   */\n      dup2\n        /* \"#utility.yul\":1951:1971   */\n      calldataload\n        /* \"#utility.yul\":1942:1971   */\n      swap1\n      pop\n        /* \"#utility.yul\":1980:2013   */\n      tag_421\n        /* \"#utility.yul\":2007:2012   */\n      dup2\n        /* \"#utility.yul\":1980:2013   */\n      tag_363\n      jump\t// in\n    tag_421:\n        /* \"#utility.yul\":1880:2019   */\n      swap3\n      swap2\n      pop\n      pop\n      jump\t// out\n        /* \"#utility.yul\":2025:2354   */\n    tag_35:\n        /* \"#utility.yul\":2084:2090   */\n      0x00\n        /* \"#utility.yul\":2133:2135   */\n      0x20\n        /* \"#utility.yul\":2121:2130   */\n      dup3\n        /* \"#utility.yul\":2112:2119   */\n      dup5\n        /* \"#utility.yul\":2108:2131   */\n      sub\n        /* \"#utility.yul\":2104:2136   */\n      slt\n        /* \"#utility.yul\":2101:2220   */\n      iszero\n      tag_423\n      jumpi\n        /* \"#utility.yul\":2139:2218   */\n      tag_424\n      tag_354\n      jump\t// in\n    tag_424:\n        /* \"#utility.yul\":2101:2220   */\n    tag_423:\n        /* \"#utility.yul\":2259:2260   */\n      0x00\n        /* \"#utility.yul\":2284:2337   */\n      tag_425\n        /* \"#utility.yul\":2329:2336   */\n      dup5\n        /* \"#utility.yul\":2320:2326   */\n      dup3\n        /* \"#utility.yul\":2309:2318   */\n      dup6\n        /* \"#utility.yul\":2305:2327   */\n      add\n        /* \"#utility.yul\":2284:2337   */\n      tag_364\n      jump\t// in\n    tag_425:\n        /* \"#utility.yul\":2274:2337   */\n      swap2\n      pop\n        /* \"#utility.yul\":2230:2347   */\n      pop\n        /* \"#utility.yul\":2025:2354   */\n      swap3\n      swap2\n      pop\n      pop\n      jump\t// out\n        /* \"#utility.yul\":2360:2437   */\n    tag_365:\n        /* \"#utility.yul\":2397:2404   */\n      0x00\n        /* \"#utility.yul\":2426:2431   */\n      dup2\n        /* \"#utility.yul\":2415:2431   */\n      swap1\n      pop\n        /* \"#utility.yul\":2360:2437   */\n      swap2\n      swap1\n      pop\n      jump\t// out\n        /* \"#utility.yul\":2443:2565   */\n    tag_366:\n        /* \"#utility.yul\":2516:2540   */\n      tag_428\n        /* \"#utility.yul\":2534:2539   */\n      dup2\n        /* \"#utility.yul\":2516:2540   */\n      tag_365\n      jump\t// in\n    tag_428:\n        /* \"#utility.yul\":2509:2514   */\n      dup2\n        /* \"#utility.yul\":2506:2541   */\n      eq\n        /* \"#utility.yul\":2496:2559   */\n      tag_429\n      jumpi\n        /* \"#utility.yul\":2555:2556   */\n      0x00\n        /* \"#utility.yul\":2552:2553   */\n      dup1\n        /* \"#utility.yul\":2545:2557   */\n      revert\n        /* \"#utility.yul\":2496:2559   */\n    tag_429:\n        /* \"#utility.yul\":2443:2565   */\n      pop\n      jump\t// out\n        /* \"#utility.yul\":2571:2710   */\n    tag_367:\n        /* \"#utility.yul\":2617:2622   */\n      0x00\n        /* \"#utility.yul\":2655:2661   */\n      dup2\n        /* \"#utility.yul\":2642:2662   */\n      calldataload\n        /* \"#utility.yul\":2633:2662   */\n      swap1\n      pop\n        /* \"#utility.yul\":2671:2704   */\n      tag_431\n        /* \"#utility.yul\":2698:2703   */\n      dup2\n        /* \"#utility.yul\":2671:2704   */\n      tag_366\n      jump\t// in\n    tag_431:\n        /* \"#utility.yul\":2571:2710   */\n      swap3\n      swap2\n      pop\n      pop\n      jump\t// out\n        /* \"#utility.yul\":2716:3045   */\n    tag_39:\n        /* \"#utility.yul\":2775:2781   */\n      0x00\n        /* \"#utility.yul\":2824:2826   */\n      0x20\n        /* \"#utility.yul\":2812:2821   */\n      dup3\n        /* \"#utility.yul\":2803:2810   */\n      dup5\n        /* \"#utility.yul\":2799:2822   */\n      sub\n        /* \"#utility.yul\":2795:2827   */\n      slt\n        /* \"#utility.yul\":2792:2911   */\n      iszero\n      tag_433\n      jumpi\n        /* \"#utility.yul\":2830:2909   */\n      tag_434\n      tag_354\n      jump\t// in\n    tag_434:\n        /* \"#utility.yul\":2792:2911   */\n    tag_433:\n        /* \"#utility.yul\":2950:2951   */\n      0x00\n        /* \"#utility.yul\":2975:3028   */\n      tag_435\n        /* \"#utility.yul\":3020:3027   */\n      dup5\n        /* \"#utility.yul\":3011:3017   */\n      dup3\n        /* \"#utility.yul\":3000:3009   */\n      dup6\n        /* \"#utility.yul\":2996:3018   */\n      add\n        /* \"#utility.yul\":2975:3028   */\n      tag_367\n      jump\t// in\n    tag_435:\n        /* \"#utility.yul\":2965:3028   */\n      swap2\n      pop\n        /* \"#utility.yul\":2921:3038   */\n      pop\n        /* \"#utility.yul\":2716:3045   */\n      swap3\n      swap2\n      pop\n      pop\n      jump\t// out\n        /* \"#utility.yul\":3051:3169   */\n    tag_368:\n        /* \"#utility.yul\":3138:3162   */\n      tag_437\n        /* \"#utility.yul\":3156:3161   */\n      dup2\n        /* \"#utility.yul\":3138:3162   */\n      tag_362\n      jump\t// in\n    tag_437:\n        /* \"#utility.yul\":3133:3136   */\n      dup3\n        /* \"#utility.yul\":3126:3163   */\n      mstore\n        /* \"#utility.yul\":3051:3169   */\n      pop\n      pop\n      jump\t// out\n        /* \"#utility.yul\":3175:3293   */\n    tag_369:\n        /* \"#utility.yul\":3262:3286   */\n      tag_439\n        /* \"#utility.yul\":3280:3285   */\n      dup2\n        /* \"#utility.yul\":3262:3286   */\n      tag_365\n      jump\t// in\n    tag_439:\n        /* \"#utility.yul\":3257:3260   */\n      dup3\n        /* \"#utility.yul\":3250:3287   */\n      mstore\n        /* \"#utility.yul\":3175:3293   */\n      pop\n      pop\n      jump\t// out\n        /* \"#utility.yul\":3299:3631   */\n    tag_42:\n        /* \"#utility.yul\":3420:3424   */\n      0x00\n        /* \"#utility.yul\":3458:3460   */\n      0x40\n        /* \"#utility.yul\":3447:3456   */\n      dup3\n        /* \"#utility.yul\":3443:3461   */\n      add\n        /* \"#utility.yul\":3435:3461   */\n      swap1\n      pop\n        /* \"#utility.yul\":3471:3542   */\n      tag_441\n        /* \"#utility.yul\":3539:3540   */\n      0x00\n        /* \"#utility.yul\":3528:3537   */\n      dup4\n        /* \"#utility.yul\":3524:3541   */\n      add\n        /* \"#utility.yul\":3515:3521   */\n      dup6\n        /* \"#utility.yul\":3471:3542   */\n      tag_368\n      jump\t// in\n    tag_441:\n        /* \"#utility.yul\":3552:3624   */\n      tag_442\n        /* \"#utility.yul\":3620:3622   */\n      0x20\n        /* \"#utility.yul\":3609:3618   */\n      dup4\n        /* \"#utility.yul\":3605:3623   */\n      add\n        /* \"#utility.yul\":3596:3602   */\n      dup5\n        /* \"#utility.yul\":3552:3624   */\n      tag_369\n      jump\t// in\n    tag_442:\n        /* \"#utility.yul\":3299:3631   */\n      swap4\n      swap3\n      pop\n      pop\n      pop\n      jump\t// out\n        /* \"#utility.yul\":3637:3714   */\n    tag_370:\n        /* \"#utility.yul\":3674:3681   */\n      0x00\n        /* \"#utility.yul\":3703:3708   */\n      dup2\n        /* \"#utility.yul\":3692:3708   */\n      swap1\n      pop\n        /* \"#utility.yul\":3637:3714   */\n      swap2\n      swap1\n      pop\n      jump\t// out\n        /* \"#utility.yul\":3720:3842   */\n    tag_371:\n        /* \"#utility.yul\":3793:3817   */\n      tag_445\n        /* \"#utility.yul\":3811:3816   */\n      dup2\n        /* \"#utility.yul\":3793:3817   */\n      tag_370\n      jump\t// in\n    tag_445:\n        /* \"#utility.yul\":3786:3791   */\n      dup2\n        /* \"#utility.yul\":3783:3818   */\n      eq\n        /* \"#utility.yul\":3773:3836   */\n      tag_446\n      jumpi\n        /* \"#utility.yul\":3832:3833   */\n      0x00\n        /* \"#utility.yul\":3829:3830   */\n      dup1\n        /* \"#utility.yul\":3822:3834   */\n      revert\n        /* \"#utility.yul\":3773:3836   */\n    tag_446:\n        /* \"#utility.yul\":3720:3842   */\n      pop\n      jump\t// out\n        /* \"#utility.yul\":3848:3987   */\n    tag_372:\n        /* \"#utility.yul\":3894:3899   */\n      0x00\n        /* \"#utility.yul\":3932:3938   */\n      dup2\n        /* \"#utility.yul\":3919:3939   */\n      calldataload\n        /* \"#utility.yul\":3910:3939   */\n      swap1\n      pop\n        /* \"#utility.yul\":3948:3981   */\n      tag_448\n        /* \"#utility.yul\":3975:3980   */\n      dup2\n        /* \"#utility.yul\":3948:3981   */\n      tag_371\n      jump\t// in\n    tag_448:\n        /* \"#utility.yul\":3848:3987   */\n      swap3\n      swap2\n      pop\n      pop\n      jump\t// out\n        /* \"#utility.yul\":3993:4322   */\n    tag_45:\n        /* \"#utility.yul\":4052:4058   */\n      0x00\n        /* \"#utility.yul\":4101:4103   */\n      0x20\n        /* \"#utility.yul\":4089:4098   */\n      dup3\n        /* \"#utility.yul\":4080:4087   */\n      dup5\n        /* \"#utility.yul\":4076:4099   */\n      sub\n        /* \"#utility.yul\":4072:4104   */\n      slt\n        /* \"#utility.yul\":4069:4188   */\n      iszero\n      tag_450\n      jumpi\n        /* \"#utility.yul\":4107:4186   */\n      tag_451\n      tag_354\n      jump\t// in\n    tag_451:\n        /* \"#utility.yul\":4069:4188   */\n    tag_450:\n        /* \"#utility.yul\":4227:4228   */\n      0x00\n        /* \"#utility.yul\":4252:4305   */\n      tag_452\n        /* \"#utility.yul\":4297:4304   */\n      dup5\n        /* \"#utility.yul\":4288:4294   */\n      dup3\n        /* \"#utility.yul\":4277:4286   */\n      dup6\n        /* \"#utility.yul\":4273:4295   */\n      add\n        /* \"#utility.yul\":4252:4305   */\n      tag_372\n      jump\t// in\n    tag_452:\n        /* \"#utility.yul\":4242:4305   */\n      swap2\n      pop\n        /* \"#utility.yul\":4198:4315   */\n      pop\n        /* \"#utility.yul\":3993:4322   */\n      swap3\n      swap2\n      pop\n      pop\n      jump\t// out\n        /* \"#utility.yul\":4328:4446   */\n    tag_373:\n        /* \"#utility.yul\":4415:4439   */\n      tag_454\n        /* \"#utility.yul\":4433:4438   */\n      dup2\n        /* \"#utility.yul\":4415:4439   */\n      tag_370\n      jump\t// in\n    tag_454:\n        /* \"#utility.yul\":4410:4413   */\n      dup3\n        /* \"#utility.yul\":4403:4440   */\n      mstore\n        /* \"#utility.yul\":4328:4446   */\n      pop\n      pop\n      jump\t// out\n        /* \"#utility.yul\":4452:4674   */\n    tag_48:\n        /* \"#utility.yul\":4545:4549   */\n      0x00\n        /* \"#utility.yul\":4583:4585   */\n      0x20\n        /* \"#utility.yul\":4572:4581   */\n      dup3\n        /* \"#utility.yul\":4568:4586   */\n      add\n        /* \"#utility.yul\":4560:4586   */\n      swap1\n      pop\n        /* \"#utility.yul\":4596:4667   */\n      tag_456\n        /* \"#utility.yul\":4664:4665   */\n      0x00\n        /* \"#utility.yul\":4653:4662   */\n      dup4\n        /* \"#utility.yul\":4649:4666   */\n      add\n        /* \"#utility.yul\":4640:4646   */\n      dup5\n        /* \"#utility.yul\":4596:4667   */\n      tag_373\n      jump\t// in\n    tag_456:\n        /* \"#utility.yul\":4452:4674   */\n      swap3\n      swap2\n      pop\n      pop\n      jump\t// out\n        /* \"#utility.yul\":4680:5154   */\n    tag_51:\n        /* \"#utility.yul\":4748:4754   */\n      0x00\n        /* \"#utility.yul\":4756:4762   */\n      dup1\n        /* \"#utility.yul\":4805:4807   */\n      0x40\n        /* \"#utility.yul\":4793:4802   */\n      dup4\n        /* \"#utility.yul\":4784:4791   */\n      dup6\n        /* \"#utility.yul\":4780:4803   */\n      sub\n        /* \"#utility.yul\":4776:4808   */\n      slt\n        /* \"#utility.yul\":4773:4892   */\n      iszero\n      tag_458\n      jumpi\n        /* \"#utility.yul\":4811:4890   */\n      tag_459\n      tag_354\n      jump\t// in\n    tag_459:\n        /* \"#utility.yul\":4773:4892   */\n    tag_458:\n        /* \"#utility.yul\":4931:4932   */\n      0x00\n        /* \"#utility.yul\":4956:5009   */\n      tag_460\n        /* \"#utility.yul\":5001:5008   */\n      dup6\n        /* \"#utility.yul\":4992:4998   */\n      dup3\n        /* \"#utility.yul\":4981:4990   */\n      dup7\n        /* \"#utility.yul\":4977:4999   */\n      add\n        /* \"#utility.yul\":4956:5009   */\n      tag_372\n      jump\t// in\n    tag_460:\n        /* \"#utility.yul\":4946:5009   */\n      swap3\n      pop\n        /* \"#utility.yul\":4902:5019   */\n      pop\n        /* \"#utility.yul\":5058:5060   */\n      0x20\n        /* \"#utility.yul\":5084:5137   */\n      tag_461\n        /* \"#utility.yul\":5129:5136   */\n      dup6\n        /* \"#utility.yul\":5120:5126   */\n      dup3\n        /* \"#utility.yul\":5109:5118   */\n      dup7\n        /* \"#utility.yul\":5105:5127   */\n      add\n        /* \"#utility.yul\":5084:5137   */\n      tag_364\n      jump\t// in\n    tag_461:\n        /* \"#utility.yul\":5074:5137   */\n      swap2\n      pop\n        /* \"#utility.yul\":5029:5147   */\n      pop\n        /* \"#utility.yul\":4680:5154   */\n      swap3\n      pop\n      swap3\n      swap1\n      pop\n      jump\t// out\n        /* \"#utility.yul\":5160:5277   */\n    tag_374:\n        /* \"#utility.yul\":5269:5270   */\n      0x00\n        /* \"#utility.yul\":5266:5267   */\n      dup1\n        /* \"#utility.yul\":5259:5271   */\n      revert\n        /* \"#utility.yul\":5283:5400   */\n    tag_375:\n        /* \"#utility.yul\":5392:5393   */\n      0x00\n        /* \"#utility.yul\":5389:5390   */\n      dup1\n        /* \"#utility.yul\":5382:5394   */\n      revert\n        /* \"#utility.yul\":5406:5523   */\n    tag_376:\n        /* \"#utility.yul\":5515:5516   */\n      0x00\n        /* \"#utility.yul\":5512:5513   */\n      dup1\n        /* \"#utility.yul\":5505:5517   */\n      revert\n        /* \"#utility.yul\":5545:6112   */\n    tag_377:\n        /* \"#utility.yul\":5617:5625   */\n      0x00\n        /* \"#utility.yul\":5627:5633   */\n      dup1\n        /* \"#utility.yul\":5677:5680   */\n      dup4\n        /* \"#utility.yul\":5670:5674   */\n      0x1f\n        /* \"#utility.yul\":5662:5668   */\n      dup5\n        /* \"#utility.yul\":5658:5675   */\n      add\n        /* \"#utility.yul\":5654:5681   */\n      slt\n        /* \"#utility.yul\":5644:5766   */\n      tag_466\n      jumpi\n        /* \"#utility.yul\":5685:5764   */\n      tag_467\n      tag_374\n      jump\t// in\n    tag_467:\n        /* \"#utility.yul\":5644:5766   */\n    tag_466:\n        /* \"#utility.yul\":5798:5804   */\n      dup3\n        /* \"#utility.yul\":5785:5805   */\n      calldataload\n        /* \"#utility.yul\":5775:5805   */\n      swap1\n      pop\n        /* \"#utility.yul\":5828:5846   */\n      0xffffffffffffffff\n        /* \"#utility.yul\":5820:5826   */\n      dup2\n        /* \"#utility.yul\":5817:5847   */\n      gt\n        /* \"#utility.yul\":5814:5931   */\n      iszero\n      tag_468\n      jumpi\n        /* \"#utility.yul\":5850:5929   */\n      tag_469\n      tag_375\n      jump\t// in\n    tag_469:\n        /* \"#utility.yul\":5814:5931   */\n    tag_468:\n        /* \"#utility.yul\":5964:5968   */\n      0x20\n        /* \"#utility.yul\":5956:5962   */\n      dup4\n        /* \"#utility.yul\":5952:5969   */\n      add\n        /* \"#utility.yul\":5940:5969   */\n      swap2\n      pop\n        /* \"#utility.yul\":6018:6021   */\n      dup4\n        /* \"#utility.yul\":6010:6014   */\n      0x20\n        /* \"#utility.yul\":6002:6008   */\n      dup3\n        /* \"#utility.yul\":5998:6015   */\n      mul\n        /* \"#utility.yul\":5988:5996   */\n      dup4\n        /* \"#utility.yul\":5984:6016   */\n      add\n        /* \"#utility.yul\":5981:6022   */\n      gt\n        /* \"#utility.yul\":5978:6106   */\n      iszero\n      tag_470\n      jumpi\n        /* \"#utility.yul\":6025:6104   */\n      tag_471\n      tag_376\n      jump\t// in\n    tag_471:\n        /* \"#utility.yul\":5978:6106   */\n    tag_470:\n        /* \"#utility.yul\":5545:6112   */\n      swap3\n      pop\n      swap3\n      swap1\n      pop\n      jump\t// out\n        /* \"#utility.yul\":6118:6675   */\n    tag_58:\n        /* \"#utility.yul\":6203:6209   */\n      0x00\n        /* \"#utility.yul\":6211:6217   */\n      dup1\n        /* \"#utility.yul\":6260:6262   */\n      0x20\n        /* \"#utility.yul\":6248:6257   */\n      dup4\n        /* \"#utility.yul\":6239:6246   */\n      dup6\n        /* \"#utility.yul\":6235:6258   */\n      sub\n        /* \"#utility.yul\":6231:6263   */\n      slt\n        /* \"#utility.yul\":6228:6347   */\n      iszero\n      tag_473\n      jumpi\n        /* \"#utility.yul\":6266:6345   */\n      tag_474\n      tag_354\n      jump\t// in\n    tag_474:\n        /* \"#utility.yul\":6228:6347   */\n    tag_473:\n        /* \"#utility.yul\":6414:6415   */\n      0x00\n        /* \"#utility.yul\":6403:6412   */\n      dup4\n        /* \"#utility.yul\":6399:6416   */\n      add\n        /* \"#utility.yul\":6386:6417   */\n      calldataload\n        /* \"#utility.yul\":6444:6462   */\n      0xffffffffffffffff\n        /* \"#utility.yul\":6436:6442   */\n      dup2\n        /* \"#utility.yul\":6433:6463   */\n      gt\n        /* \"#utility.yul\":6430:6547   */\n      iszero\n      tag_475\n      jumpi\n        /* \"#utility.yul\":6466:6545   */\n      tag_476\n      tag_355\n      jump\t// in\n    tag_476:\n        /* \"#utility.yul\":6430:6547   */\n    tag_475:\n        /* \"#utility.yul\":6579:6658   */\n      tag_477\n        /* \"#utility.yul\":6650:6657   */\n      dup6\n        /* \"#utility.yul\":6641:6647   */\n      dup3\n        /* \"#utility.yul\":6630:6639   */\n      dup7\n        /* \"#utility.yul\":6626:6648   */\n      add\n        /* \"#utility.yul\":6579:6658   */\n      tag_377\n      jump\t// in\n    tag_477:\n        /* \"#utility.yul\":6561:6658   */\n      swap3\n      pop\n      swap3\n      pop\n        /* \"#utility.yul\":6357:6668   */\n      pop\n        /* \"#utility.yul\":6118:6675   */\n      swap3\n      pop\n      swap3\n      swap1\n      pop\n      jump\t// out\n        /* \"#utility.yul\":6681:6903   */\n    tag_70:\n        /* \"#utility.yul\":6774:6778   */\n      0x00\n        /* \"#utility.yul\":6812:6814   */\n      0x20\n        /* \"#utility.yul\":6801:6810   */\n      dup3\n        /* \"#utility.yul\":6797:6815   */\n      add\n        /* \"#utility.yul\":6789:6815   */\n      swap1\n      pop\n        /* \"#utility.yul\":6825:6896   */\n      tag_479\n        /* \"#utility.yul\":6893:6894   */\n      0x00\n        /* \"#utility.yul\":6882:6891   */\n      dup4\n        /* \"#utility.yul\":6878:6895   */\n      add\n        /* \"#utility.yul\":6869:6875   */\n      dup5\n        /* \"#utility.yul\":6825:6896   */\n      tag_369\n      jump\t// in\n    tag_479:\n        /* \"#utility.yul\":6681:6903   */\n      swap3\n      swap2\n      pop\n      pop\n      jump\t// out\n        /* \"#utility.yul\":6909:7078   */\n    tag_378:\n        /* \"#utility.yul\":6993:7004   */\n      0x00\n        /* \"#utility.yul\":7027:7033   */\n      dup3\n        /* \"#utility.yul\":7022:7025   */\n      dup3\n        /* \"#utility.yul\":7015:7034   */\n      mstore\n        /* \"#utility.yul\":7067:7071   */\n      0x20\n        /* \"#utility.yul\":7062:7065   */\n      dup3\n        /* \"#utility.yul\":7058:7072   */\n      add\n        /* \"#utility.yul\":7043:7072   */\n      swap1\n      pop\n        /* \"#utility.yul\":6909:7078   */\n      swap3\n      swap2\n      pop\n      pop\n      jump\t// out\n        /* \"#utility.yul\":7084:7318   */\n    tag_379:\n        /* \"#utility.yul\":7224:7258   */\n      0x416363657373436f6e74726f6c3a2063616e206f6e6c792072656e6f756e6365\n        /* \"#utility.yul\":7220:7221   */\n      0x00\n        /* \"#utility.yul\":7212:7218   */\n      dup3\n        /* \"#utility.yul\":7208:7222   */\n      add\n        /* \"#utility.yul\":7201:7259   */\n      mstore\n        /* \"#utility.yul\":7293:7310   */\n      0x20726f6c657320666f722073656c660000000000000000000000000000000000\n        /* \"#utility.yul\":7288:7290   */\n      0x20\n        /* \"#utility.yul\":7280:7286   */\n      dup3\n        /* \"#utility.yul\":7276:7291   */\n      add\n        /* \"#utility.yul\":7269:7311   */\n      mstore\n        /* \"#utility.yul\":7084:7318   */\n      pop\n      jump\t// out\n        /* \"#utility.yul\":7324:7690   */\n    tag_380:\n        /* \"#utility.yul\":7466:7469   */\n      0x00\n        /* \"#utility.yul\":7487:7554   */\n      tag_483\n        /* \"#utility.yul\":7551:7553   */\n      0x2f\n        /* \"#utility.yul\":7546:7549   */\n      dup4\n        /* \"#utility.yul\":7487:7554   */\n      tag_378\n      jump\t// in\n    tag_483:\n        /* \"#utility.yul\":7480:7554   */\n      swap2\n      pop\n        /* \"#utility.yul\":7563:7656   */\n      tag_484\n        /* \"#utility.yul\":7652:7655   */\n      dup3\n        /* \"#utility.yul\":7563:7656   */\n      tag_379\n      jump\t// in\n    tag_484:\n        /* \"#utility.yul\":7681:7683   */\n      0x40\n        /* \"#utility.yul\":7676:7679   */\n      dup3\n        /* \"#utility.yul\":7672:7684   */\n      add\n        /* \"#utility.yul\":7665:7684   */\n      swap1\n      pop\n        /* \"#utility.yul\":7324:7690   */\n      swap2\n      swap1\n      pop\n      jump\t// out\n        /* \"#utility.yul\":7696:8115   */\n    tag_128:\n        /* \"#utility.yul\":7862:7866   */\n      0x00\n        /* \"#utility.yul\":7900:7902   */\n      0x20\n        /* \"#utility.yul\":7889:7898   */\n      dup3\n        /* \"#utility.yul\":7885:7903   */\n      add\n        /* \"#utility.yul\":7877:7903   */\n      swap1\n      pop\n        /* \"#utility.yul\":7949:7958   */\n      dup2\n        /* \"#utility.yul\":7943:7947   */\n      dup2\n        /* \"#utility.yul\":7939:7959   */\n      sub\n        /* \"#utility.yul\":7935:7936   */\n      0x00\n        /* \"#utility.yul\":7924:7933   */\n      dup4\n        /* \"#utility.yul\":7920:7937   */\n      add\n        /* \"#utility.yul\":7913:7960   */\n      mstore\n        /* \"#utility.yul\":7977:8108   */\n      tag_486\n        /* \"#utility.yul\":8103:8107   */\n      dup2\n        /* \"#utility.yul\":7977:8108   */\n      tag_380\n      jump\t// in\n    tag_486:\n        /* \"#utility.yul\":7969:8108   */\n      swap1\n      pop\n        /* \"#utility.yul\":7696:8115   */\n      swap2\n      swap1\n      pop\n      jump\t// out\n        /* \"#utility.yul\":8121:8301   */\n    tag_136:\n        /* \"#utility.yul\":8169:8246   */\n      0x4e487b7100000000000000000000000000000000000000000000000000000000\n        /* \"#utility.yul\":8166:8167   */\n      0x00\n        /* \"#utility.yul\":8159:8247   */\n      mstore\n        /* \"#utility.yul\":8266:8270   */\n      0x32\n        /* \"#utility.yul\":8263:8264   */\n      0x04\n        /* \"#utility.yul\":8256:8271   */\n      mstore\n        /* \"#utility.yul\":8290:8294   */\n      0x24\n        /* \"#utility.yul\":8287:8288   */\n      0x00\n        /* \"#utility.yul\":8280:8295   */\n      revert\n        /* \"#utility.yul\":8307:8487   */\n    tag_148:\n        /* \"#utility.yul\":8355:8432   */\n      0x4e487b7100000000000000000000000000000000000000000000000000000000\n        /* \"#utility.yul\":8352:8353   */\n      0x00\n        /* \"#utility.yul\":8345:8433   */\n      mstore\n        /* \"#utility.yul\":8452:8456   */\n      0x41\n        /* \"#utility.yul\":8449:8450   */\n      0x04\n        /* \"#utility.yul\":8442:8457   */\n      mstore\n        /* \"#utility.yul\":8476:8480   */\n      0x24\n        /* \"#utility.yul\":8473:8474   */\n      0x00\n        /* \"#utility.yul\":8466:8481   */\n      revert\n        /* \"#utility.yul\":8493:8673   */\n    tag_381:\n        /* \"#utility.yul\":8541:8618   */\n      0x4e487b7100000000000000000000000000000000000000000000000000000000\n        /* \"#utility.yul\":8538:8539   */\n      0x00\n        /* \"#utility.yul\":8531:8619   */\n      mstore\n        /* \"#utility.yul\":8638:8642   */\n      0x11\n        /* \"#utility.yul\":8635:8636   */\n      0x04\n        /* \"#utility.yul\":8628:8643   */\n      mstore\n        /* \"#utility.yul\":8662:8666   */\n      0x24\n        /* \"#utility.yul\":8659:8660   */\n      0x00\n        /* \"#utility.yul\":8652:8667   */\n      revert\n        /* \"#utility.yul\":8679:8912   */\n    tag_164:\n        /* \"#utility.yul\":8718:8721   */\n      0x00\n        /* \"#utility.yul\":8741:8765   */\n      tag_491\n        /* \"#utility.yul\":8759:8764   */\n      dup3\n        /* \"#utility.yul\":8741:8765   */\n      tag_365\n      jump\t// in\n    tag_491:\n        /* \"#utility.yul\":8732:8765   */\n      swap2\n      pop\n        /* \"#utility.yul\":8787:8853   */\n      0xffffffffffffffffffffffffffffffffffffffffffffffffffffffffffffffff\n        /* \"#utility.yul\":8780:8785   */\n      dup3\n        /* \"#utility.yul\":8777:8854   */\n      sub\n        /* \"#utility.yul\":8774:8877   */\n      tag_492\n      jumpi\n        /* \"#utility.yul\":8857:8875   */\n      tag_493\n      tag_381\n      jump\t// in\n    tag_493:\n        /* \"#utility.yul\":8774:8877   */\n    tag_492:\n        /* \"#utility.yul\":8904:8905   */\n      0x01\n        /* \"#utility.yul\":8897:8902   */\n      dup3\n        /* \"#utility.yul\":8893:8906   */\n      add\n        /* \"#utility.yul\":8886:8906   */\n      swap1\n      pop\n        /* \"#utility.yul\":8679:8912   */\n      swap2\n      swap1\n      pop\n      jump\t// out\n        /* \"#utility.yul\":8918:9223   */\n    tag_174:\n        /* \"#utility.yul\":8958:8961   */\n      0x00\n        /* \"#utility.yul\":8977:8997   */\n      tag_495\n        /* \"#utility.yul\":8995:8996   */\n      dup3\n        /* \"#utility.yul\":8977:8997   */\n      tag_365\n      jump\t// in\n    tag_495:\n        /* \"#utility.yul\":8972:8997   */\n      swap2\n      pop\n        /* \"#utility.yul\":9011:9031   */\n      tag_496\n        /* \"#utility.yul\":9029:9030   */\n      dup4\n        /* \"#utility.yul\":9011:9031   */\n      tag_365\n      jump\t// in\n    tag_496:\n        /* \"#utility.yul\":9006:9031   */\n      swap3\n      pop\n        /* \"#utility.yul\":9165:9166   */\n      dup3\n        /* \"#utility.yul\":9097:9163   */\n      0xffffffffffffffffffffffffffffffffffffffffffffffffffffffffffffffff\n        /* \"#utility.yul\":9093:9167   */\n      sub\n        /* \"#utility.yul\":9090:9091   */\n      dup3\n        /* \"#utility.yul\":9087:9168   */\n      gt\n        /* \"#utility.yul\":9084:9191   */\n      iszero\n      tag_497\n      jumpi\n        /* \"#utility.yul\":9171:9189   */\n      tag_498\n      tag_381\n      jump\t// in\n    tag_498:\n        /* \"#utility.yul\":9084:9191   */\n    tag_497:\n        /* \"#utility.yul\":9215:9216   */\n      dup3\n        /* \"#utility.yul\":9212:9213   */\n      dup3\n        /* \"#utility.yul\":9208:9217   */\n      add\n        /* \"#utility.yul\":9201:9217   */\n      swap1\n      pop\n        /* \"#utility.yul\":8918:9223   */\n      swap3\n      swap2\n      pop\n      pop\n      jump\t// out\n        /* \"#utility.yul\":9229:9577   */\n    tag_247:\n        /* \"#utility.yul\":9269:9276   */\n      0x00\n        /* \"#utility.yul\":9292:9312   */\n      tag_500\n        /* \"#utility.yul\":9310:9311   */\n      dup3\n        /* \"#utility.yul\":9292:9312   */\n      tag_365\n      jump\t// in\n    tag_500:\n        /* \"#utility.yul\":9287:9312   */\n      swap2\n      pop\n        /* \"#utility.yul\":9326:9346   */\n      tag_501\n        /* \"#utility.yul\":9344:9345   */\n      dup4\n        /* \"#utility.yul\":9326:9346   */\n      tag_365\n      jump\t// in\n    tag_501:\n        /* \"#utility.yul\":9321:9346   */\n      swap3\n      pop\n        /* \"#utility.yul\":9514:9515   */\n      dup2\n        /* \"#utility.yul\":9446:9512   */\n      0xffffffffffffffffffffffffffffffffffffffffffffffffffffffffffffffff\n        /* \"#utility.yul\":9442:9516   */\n      div\n        /* \"#utility.yul\":9439:9440   */\n      dup4\n        /* \"#utility.yul\":9436:9517   */\n      gt\n        /* \"#utility.yul\":9431:9432   */\n      dup3\n        /* \"#utility.yul\":9424:9433   */\n      iszero\n        /* \"#utility.yul\":9417:9434   */\n      iszero\n        /* \"#utility.yul\":9413:9518   */\n      and\n        /* \"#utility.yul\":9410:9541   */\n      iszero\n      tag_502\n      jumpi\n        /* \"#utility.yul\":9521:9539   */\n      tag_503\n      tag_381\n      jump\t// in\n    tag_503:\n        /* \"#utility.yul\":9410:9541   */\n    tag_502:\n        /* \"#utility.yul\":9569:9570   */\n      dup3\n        /* \"#utility.yul\":9566:9567   */\n      dup3\n        /* \"#utility.yul\":9562:9571   */\n      mul\n        /* \"#utility.yul\":9551:9571   */\n      swap1\n      pop\n        /* \"#utility.yul\":9229:9577   */\n      swap3\n      swap2\n      pop\n      pop\n      jump\t// out\n        /* \"#utility.yul\":9583:9763   */\n    tag_382:\n        /* \"#utility.yul\":9631:9708   */\n      0x4e487b7100000000000000000000000000000000000000000000000000000000\n        /* \"#utility.yul\":9628:9629   */\n      0x00\n        /* \"#utility.yul\":9621:9709   */\n      mstore\n        /* \"#utility.yul\":9728:9732   */\n      0x12\n        /* \"#utility.yul\":9725:9726   */\n      0x04\n        /* \"#utility.yul\":9718:9733   */\n      mstore\n        /* \"#utility.yul\":9752:9756   */\n      0x24\n        /* \"#utility.yul\":9749:9750   */\n      0x00\n        /* \"#utility.yul\":9742:9757   */\n      revert\n        /* \"#utility.yul\":9769:9954   */\n    tag_249:\n        /* \"#utility.yul\":9809:9810   */\n      0x00\n        /* \"#utility.yul\":9826:9846   */\n      tag_506\n        /* \"#utility.yul\":9844:9845   */\n      dup3\n        /* \"#utility.yul\":9826:9846   */\n      tag_365\n      jump\t// in\n    tag_506:\n        /* \"#utility.yul\":9821:9846   */\n      swap2\n      pop\n        /* \"#utility.yul\":9860:9880   */\n      tag_507\n        /* \"#utility.yul\":9878:9879   */\n      dup4\n        /* \"#utility.yul\":9860:9880   */\n      tag_365\n      jump\t// in\n    tag_507:\n        /* \"#utility.yul\":9855:9880   */\n      swap3\n      pop\n        /* \"#utility.yul\":9899:9900   */\n      dup3\n        /* \"#utility.yul\":9889:9924   */\n      tag_508\n      jumpi\n        /* \"#utility.yul\":9904:9922   */\n      tag_509\n      tag_382\n      jump\t// in\n    tag_509:\n        /* \"#utility.yul\":9889:9924   */\n    tag_508:\n        /* \"#utility.yul\":9946:9947   */\n      dup3\n        /* \"#utility.yul\":9943:9944   */\n      dup3\n        /* \"#utility.yul\":9939:9948   */\n      div\n        /* \"#utility.yul\":9934:9948   */\n      swap1\n      pop\n        /* \"#utility.yul\":9769:9954   */\n      swap3\n      swap2\n      pop\n      pop\n      jump\t// out\n        /* \"#utility.yul\":9960:10108   */\n    tag_383:\n        /* \"#utility.yul\":10062:10073   */\n      0x00\n        /* \"#utility.yul\":10099:10102   */\n      dup2\n        /* \"#utility.yul\":10084:10102   */\n      swap1\n      pop\n        /* \"#utility.yul\":9960:10108   */\n      swap3\n      swap2\n      pop\n      pop\n      jump\t// out\n        /* \"#utility.yul\":10114:10287   */\n    tag_384:\n        /* \"#utility.yul\":10254:10279   */\n      0x416363657373436f6e74726f6c3a206163636f756e7420000000000000000000\n        /* \"#utility.yul\":10250:10251   */\n      0x00\n        /* \"#utility.yul\":10242:10248   */\n      dup3\n        /* \"#utility.yul\":10238:10252   */\n      add\n        /* \"#utility.yul\":10231:10280   */\n      mstore\n        /* \"#utility.yul\":10114:10287   */\n      pop\n      jump\t// out\n        /* \"#utility.yul\":10293:10695   */\n    tag_385:\n        /* \"#utility.yul\":10453:10456   */\n      0x00\n        /* \"#utility.yul\":10474:10559   */\n      tag_513\n        /* \"#utility.yul\":10556:10558   */\n      0x17\n        /* \"#utility.yul\":10551:10554   */\n      dup4\n        /* \"#utility.yul\":10474:10559   */\n      tag_383\n      jump\t// in\n    tag_513:\n        /* \"#utility.yul\":10467:10559   */\n      swap2\n      pop\n        /* \"#utility.yul\":10568:10661   */\n      tag_514\n        /* \"#utility.yul\":10657:10660   */\n      dup3\n        /* \"#utility.yul\":10568:10661   */\n      tag_384\n      jump\t// in\n    tag_514:\n        /* \"#utility.yul\":10686:10688   */\n      0x17\n        /* \"#utility.yul\":10681:10684   */\n      dup3\n        /* \"#utility.yul\":10677:10689   */\n      add\n        /* \"#utility.yul\":10670:10689   */\n      swap1\n      pop\n        /* \"#utility.yul\":10293:10695   */\n      swap2\n      swap1\n      pop\n      jump\t// out\n        /* \"#utility.yul\":10701:10800   */\n    tag_386:\n        /* \"#utility.yul\":10753:10759   */\n      0x00\n        /* \"#utility.yul\":10787:10792   */\n      dup2\n        /* \"#utility.yul\":10781:10793   */\n      mload\n        /* \"#utility.yul\":10771:10793   */\n      swap1\n      pop\n        /* \"#utility.yul\":10701:10800   */\n      swap2\n      swap1\n      pop\n      jump\t// out\n        /* \"#utility.yul\":10806:11113   */\n    tag_387:\n        /* \"#utility.yul\":10874:10875   */\n      0x00\n        /* \"#utility.yul\":10884:10997   */\n    tag_517:\n        /* \"#utility.yul\":10898:10904   */\n      dup4\n        /* \"#utility.yul\":10895:10896   */\n      dup2\n        /* \"#utility.yul\":10892:10905   */\n      lt\n        /* \"#utility.yul\":10884:10997   */\n      iszero\n      tag_519\n      jumpi\n        /* \"#utility.yul\":10983:10984   */\n      dup1\n        /* \"#utility.yul\":10978:10981   */\n      dup3\n        /* \"#utility.yul\":10974:10985   */\n      add\n        /* \"#utility.yul\":10968:10986   */\n      mload\n        /* \"#utility.yul\":10964:10965   */\n      dup2\n        /* \"#utility.yul\":10959:10962   */\n      dup5\n        /* \"#utility.yul\":10955:10966   */\n      add\n        /* \"#utility.yul\":10948:10987   */\n      mstore\n        /* \"#utility.yul\":10920:10922   */\n      0x20\n        /* \"#utility.yul\":10917:10918   */\n      dup2\n        /* \"#utility.yul\":10913:10923   */\n      add\n        /* \"#utility.yul\":10908:10923   */\n      swap1\n      pop\n        /* \"#utility.yul\":10884:10997   */\n      jump(tag_517)\n    tag_519:\n        /* \"#utility.yul\":11015:11021   */\n      dup4\n        /* \"#utility.yul\":11012:11013   */\n      dup2\n        /* \"#utility.yul\":11009:11022   */\n      gt\n        /* \"#utility.yul\":11006:11107   */\n      iszero\n      tag_520\n      jumpi\n        /* \"#utility.yul\":11095:11096   */\n      0x00\n        /* \"#utility.yul\":11086:11092   */\n      dup5\n        /* \"#utility.yul\":11081:11084   */\n      dup5\n        /* \"#utility.yul\":11077:11093   */\n      add\n        /* \"#utility.yul\":11070:11097   */\n      mstore\n        /* \"#utility.yul\":11006:11107   */\n    tag_520:\n        /* \"#utility.yul\":10855:11113   */\n      pop\n        /* \"#utility.yul\":10806:11113   */\n      pop\n      pop\n      pop\n      jump\t// out\n        /* \"#utility.yul\":11119:11496   */\n    tag_388:\n        /* \"#utility.yul\":11225:11228   */\n      0x00\n        /* \"#utility.yul\":11253:11292   */\n      tag_522\n        /* \"#utility.yul\":11286:11291   */\n      dup3\n        /* \"#utility.yul\":11253:11292   */\n      tag_386\n      jump\t// in\n    tag_522:\n        /* \"#utility.yul\":11308:11397   */\n      tag_523\n        /* \"#utility.yul\":11390:11396   */\n      dup2\n        /* \"#utility.yul\":11385:11388   */\n      dup6\n        /* \"#utility.yul\":11308:11397   */\n      tag_383\n      jump\t// in\n    tag_523:\n        /* \"#utility.yul\":11301:11397   */\n      swap4\n      pop\n        /* \"#utility.yul\":11406:11458   */\n      tag_524\n        /* \"#utility.yul\":11451:11457   */\n      dup2\n        /* \"#utility.yul\":11446:11449   */\n      dup6\n        /* \"#utility.yul\":11439:11443   */\n      0x20\n        /* \"#utility.yul\":11432:11437   */\n      dup7\n        /* \"#utility.yul\":11428:11444   */\n      add\n        /* \"#utility.yul\":11406:11458   */\n      tag_387\n      jump\t// in\n    tag_524:\n        /* \"#utility.yul\":11483:11489   */\n      dup1\n        /* \"#utility.yul\":11478:11481   */\n      dup5\n        /* \"#utility.yul\":11474:11490   */\n      add\n        /* \"#utility.yul\":11467:11490   */\n      swap2\n      pop\n        /* \"#utility.yul\":11229:11496   */\n      pop\n        /* \"#utility.yul\":11119:11496   */\n      swap3\n      swap2\n      pop\n      pop\n      jump\t// out\n        /* \"#utility.yul\":11502:11669   */\n    tag_389:\n        /* \"#utility.yul\":11642:11661   */\n      0x206973206d697373696e6720726f6c6520000000000000000000000000000000\n        /* \"#utility.yul\":11638:11639   */\n      0x00\n        /* \"#utility.yul\":11630:11636   */\n      dup3\n        /* \"#utility.yul\":11626:11640   */\n      add\n        /* \"#utility.yul\":11619:11662   */\n      mstore\n        /* \"#utility.yul\":11502:11669   */\n      pop\n      jump\t// out\n        /* \"#utility.yul\":11675:12077   */\n    tag_390:\n        /* \"#utility.yul\":11835:11838   */\n      0x00\n        /* \"#utility.yul\":11856:11941   */\n      tag_527\n        /* \"#utility.yul\":11938:11940   */\n      0x11\n        /* \"#utility.yul\":11933:11936   */\n      dup4\n        /* \"#utility.yul\":11856:11941   */\n      tag_383\n      jump\t// in\n    tag_527:\n        /* \"#utility.yul\":11849:11941   */\n      swap2\n      pop\n        /* \"#utility.yul\":11950:12043   */\n      tag_528\n        /* \"#utility.yul\":12039:12042   */\n      dup3\n        /* \"#utility.yul\":11950:12043   */\n      tag_389\n      jump\t// in\n    tag_528:\n        /* \"#utility.yul\":12068:12070   */\n      0x11\n        /* \"#utility.yul\":12063:12066   */\n      dup3\n        /* \"#utility.yul\":12059:12071   */\n      add\n        /* \"#utility.yul\":12052:12071   */\n      swap1\n      pop\n        /* \"#utility.yul\":11675:12077   */\n      swap2\n      swap1\n      pop\n      jump\t// out\n        /* \"#utility.yul\":12083:13050   */\n    tag_299:\n        /* \"#utility.yul\":12465:12468   */\n      0x00\n        /* \"#utility.yul\":12487:12635   */\n      tag_530\n        /* \"#utility.yul\":12631:12634   */\n      dup3\n        /* \"#utility.yul\":12487:12635   */\n      tag_385\n      jump\t// in\n    tag_530:\n        /* \"#utility.yul\":12480:12635   */\n      swap2\n      pop\n        /* \"#utility.yul\":12652:12747   */\n      tag_531\n        /* \"#utility.yul\":12743:12746   */\n      dup3\n        /* \"#utility.yul\":12734:12740   */\n      dup6\n        /* \"#utility.yul\":12652:12747   */\n      tag_388\n      jump\t// in\n    tag_531:\n        /* \"#utility.yul\":12645:12747   */\n      swap2\n      pop\n        /* \"#utility.yul\":12764:12912   */\n      tag_532\n        /* \"#utility.yul\":12908:12911   */\n      dup3\n        /* \"#utility.yul\":12764:12912   */\n      tag_390\n      jump\t// in\n    tag_532:\n        /* \"#utility.yul\":12757:12912   */\n      swap2\n      pop\n        /* \"#utility.yul\":12929:13024   */\n      tag_533\n        /* \"#utility.yul\":13020:13023   */\n      dup3\n        /* \"#utility.yul\":13011:13017   */\n      dup5\n        /* \"#utility.yul\":12929:13024   */\n      tag_388\n      jump\t// in\n    tag_533:\n        /* \"#utility.yul\":12922:13024   */\n      swap2\n      pop\n        /* \"#utility.yul\":13041:13044   */\n      dup2\n        /* \"#utility.yul\":13034:13044   */\n      swap1\n      pop\n        /* \"#utility.yul\":12083:13050   */\n      swap4\n      swap3\n      pop\n      pop\n      pop\n      jump\t// out\n        /* \"#utility.yul\":13056:13158   */\n    tag_391:\n        /* \"#utility.yul\":13097:13103   */\n      0x00\n        /* \"#utility.yul\":13148:13150   */\n      0x1f\n        /* \"#utility.yul\":13144:13151   */\n      not\n        /* \"#utility.yul\":13139:13141   */\n      0x1f\n        /* \"#utility.yul\":13132:13137   */\n      dup4\n        /* \"#utility.yul\":13128:13142   */\n      add\n        /* \"#utility.yul\":13124:13152   */\n      and\n        /* \"#utility.yul\":13114:13152   */\n      swap1\n      pop\n        /* \"#utility.yul\":13056:13158   */\n      swap2\n      swap1\n      pop\n      jump\t// out\n        /* \"#utility.yul\":13164:13528   */\n    tag_392:\n        /* \"#utility.yul\":13252:13255   */\n      0x00\n        /* \"#utility.yul\":13280:13319   */\n      tag_536\n        /* \"#utility.yul\":13313:13318   */\n      dup3\n        /* \"#utility.yul\":13280:13319   */\n      tag_386\n      jump\t// in\n    tag_536:\n        /* \"#utility.yul\":13335:13406   */\n      tag_537\n        /* \"#utility.yul\":13399:13405   */\n      dup2\n        /* \"#utility.yul\":13394:13397   */\n      dup6\n        /* \"#utility.yul\":13335:13406   */\n      tag_378\n      jump\t// in\n    tag_537:\n        /* \"#utility.yul\":13328:13406   */\n      swap4\n      pop\n        /* \"#utility.yul\":13415:13467   */\n      tag_538\n        /* \"#utility.yul\":13460:13466   */\n      dup2\n        /* \"#utility.yul\":13455:13458   */\n      dup6\n        /* \"#utility.yul\":13448:13452   */\n      0x20\n        /* \"#utility.yul\":13441:13446   */\n      dup7\n        /* \"#utility.yul\":13437:13453   */\n      add\n        /* \"#utility.yul\":13415:13467   */\n      tag_387\n      jump\t// in\n    tag_538:\n        /* \"#utility.yul\":13492:13521   */\n      tag_539\n        /* \"#utility.yul\":13514:13520   */\n      dup2\n        /* \"#utility.yul\":13492:13521   */\n      tag_391\n      jump\t// in\n    tag_539:\n        /* \"#utility.yul\":13487:13490   */\n      dup5\n        /* \"#utility.yul\":13483:13522   */\n      add\n        /* \"#utility.yul\":13476:13522   */\n      swap2\n      pop\n        /* \"#utility.yul\":13256:13528   */\n      pop\n        /* \"#utility.yul\":13164:13528   */\n      swap3\n      swap2\n      pop\n      pop\n      jump\t// out\n        /* \"#utility.yul\":13534:13847   */\n    tag_301:\n        /* \"#utility.yul\":13647:13651   */\n      0x00\n        /* \"#utility.yul\":13685:13687   */\n      0x20\n        /* \"#utility.yul\":13674:13683   */\n      dup3\n        /* \"#utility.yul\":13670:13688   */\n      add\n        /* \"#utility.yul\":13662:13688   */\n      swap1\n      pop\n        /* \"#utility.yul\":13734:13743   */\n      dup2\n        /* \"#utility.yul\":13728:13732   */\n      dup2\n        /* \"#utility.yul\":13724:13744   */\n      sub\n        /* \"#utility.yul\":13720:13721   */\n      0x00\n        /* \"#utility.yul\":13709:13718   */\n      dup4\n        /* \"#utility.yul\":13705:13722   */\n      add\n        /* \"#utility.yul\":13698:13745   */\n      mstore\n        /* \"#utility.yul\":13762:13840   */\n      tag_541\n        /* \"#utility.yul\":13835:13839   */\n      dup2\n        /* \"#utility.yul\":13826:13832   */\n      dup5\n        /* \"#utility.yul\":13762:13840   */\n      tag_392\n      jump\t// in\n    tag_541:\n        /* \"#utility.yul\":13754:13840   */\n      swap1\n      pop\n        /* \"#utility.yul\":13534:13847   */\n      swap3\n      swap2\n      pop\n      pop\n      jump\t// out\n        /* \"#utility.yul\":13853:14024   */\n    tag_330:\n        /* \"#utility.yul\":13892:13895   */\n      0x00\n        /* \"#utility.yul\":13915:13939   */\n      tag_543\n        /* \"#utility.yul\":13933:13938   */\n      dup3\n        /* \"#utility.yul\":13915:13939   */\n      tag_365\n      jump\t// in\n    tag_543:\n        /* \"#utility.yul\":13906:13939   */\n      swap2\n      pop\n        /* \"#utility.yul\":13961:13965   */\n      0x00\n        /* \"#utility.yul\":13954:13959   */\n      dup3\n        /* \"#utility.yul\":13951:13966   */\n      sub\n        /* \"#utility.yul\":13948:13989   */\n      tag_544\n      jumpi\n        /* \"#utility.yul\":13969:13987   */\n      tag_545\n      tag_381\n      jump\t// in\n    tag_545:\n        /* \"#utility.yul\":13948:13989   */\n    tag_544:\n        /* \"#utility.yul\":14016:14017   */\n      0x01\n        /* \"#utility.yul\":14009:14014   */\n      dup3\n        /* \"#utility.yul\":14005:14018   */\n      sub\n        /* \"#utility.yul\":13998:14018   */\n      swap1\n      pop\n        /* \"#utility.yul\":13853:14024   */\n      swap2\n      swap1\n      pop\n      jump\t// out\n        /* \"#utility.yul\":14030:14212   */\n    tag_393:\n        /* \"#utility.yul\":14170:14204   */\n      0x537472696e67733a20686578206c656e67746820696e73756666696369656e74\n        /* \"#utility.yul\":14166:14167   */\n      0x00\n        /* \"#utility.yul\":14158:14164   */\n      dup3\n        /* \"#utility.yul\":14154:14168   */\n      add\n        /* \"#utility.yul\":14147:14205   */\n      mstore\n        /* \"#utility.yul\":14030:14212   */\n      pop\n      jump\t// out\n        /* \"#utility.yul\":14218:14584   */\n    tag_394:\n        /* \"#utility.yul\":14360:14363   */\n      0x00\n        /* \"#utility.yul\":14381:14448   */\n      tag_548\n        /* \"#utility.yul\":14445:14447   */\n      0x20\n        /* \"#utility.yul\":14440:14443   */\n      dup4\n        /* \"#utility.yul\":14381:14448   */\n      tag_378\n      jump\t// in\n    tag_548:\n        /* \"#utility.yul\":14374:14448   */\n      swap2\n      pop\n        /* \"#utility.yul\":14457:14550   */\n      tag_549\n        /* \"#utility.yul\":14546:14549   */\n      dup3\n        /* \"#utility.yul\":14457:14550   */\n      tag_393\n      jump\t// in\n    tag_549:\n        /* \"#utility.yul\":14575:14577   */\n      0x20\n        /* \"#utility.yul\":14570:14573   */\n      dup3\n        /* \"#utility.yul\":14566:14578   */\n      add\n        /* \"#utility.yul\":14559:14578   */\n      swap1\n      pop\n        /* \"#utility.yul\":14218:14584   */\n      swap2\n      swap1\n      pop\n      jump\t// out\n        /* \"#utility.yul\":14590:15009   */\n    tag_333:\n        /* \"#utility.yul\":14756:14760   */\n      0x00\n        /* \"#utility.yul\":14794:14796   */\n      0x20\n        /* \"#utility.yul\":14783:14792   */\n      dup3\n        /* \"#utility.yul\":14779:14797   */\n      add\n        /* \"#utility.yul\":14771:14797   */\n      swap1\n      pop\n        /* \"#utility.yul\":14843:14852   */\n      dup2\n        /* \"#utility.yul\":14837:14841   */\n      dup2\n        /* \"#utility.yul\":14833:14853   */\n      sub\n        /* \"#utility.yul\":14829:14830   */\n      0x00\n        /* \"#utility.yul\":14818:14827   */\n      dup4\n        /* \"#utility.yul\":14814:14831   */\n      add\n        /* \"#utility.yul\":14807:14854   */\n      mstore\n        /* \"#utility.yul\":14871:15002   */\n      tag_551\n        /* \"#utility.yul\":14997:15001   */\n      dup2\n        /* \"#utility.yul\":14871:15002   */\n      tag_394\n      jump\t// in\n    tag_551:\n        /* \"#utility.yul\":14863:15002   */\n      swap1\n      pop\n        /* \"#utility.yul\":14590:15009   */\n      swap2\n      swap1\n      pop\n      jump\t// out\n\n    auxdata: 0xa2646970667358221220c481b7e1e7182ec32cf8597d614b0fbd6e9aa19cc0a4fc3ec576bfe98cc9608a64736f6c634300080d0033\n}\n",
				"bytecode": {
					"linkReferences": {},
					"object": "60806040523480156200001157600080fd5b50604051620026fa380380620026fa833981810160405281019062000037919062000312565b6200004c6000801b33620000d760201b60201c565b600060018190555081600381905550806004819055506000600560006101000a81548160ff021916908315150217905550620000cf7f086a7396bbeb0581a4f317ffb5b19566e9ecad105ee98e26d73cec5f342490227fa9cdaf89344a3579f43cc1eccbbe69ee73528d7c39b7f8ad0a660286f0c544ad620000ed60201b60201c565b505062000359565b620000e982826200015060201b60201c565b5050565b600062000100836200024160201b60201c565b905081600080858152602001908152602001600020600101819055508181847fbd79b86ffe0ab8e8776151514217cd7cacd52c909f66475c3af44e129f0b00ff60405160405180910390a4505050565b6200016282826200026060201b60201c565b6200023d57600160008084815260200190815260200160002060000160008373ffffffffffffffffffffffffffffffffffffffff1673ffffffffffffffffffffffffffffffffffffffff16815260200190815260200160002060006101000a81548160ff021916908315150217905550620001e2620002ca60201b60201c565b73ffffffffffffffffffffffffffffffffffffffff168173ffffffffffffffffffffffffffffffffffffffff16837f2f8788117e7eff1d82e926ec794901d17c78024a50270940304540a733656f0d60405160405180910390a45b5050565b6000806000838152602001908152602001600020600101549050919050565b600080600084815260200190815260200160002060000160008373ffffffffffffffffffffffffffffffffffffffff1673ffffffffffffffffffffffffffffffffffffffff16815260200190815260200160002060009054906101000a900460ff16905092915050565b600033905090565b600080fd5b6000819050919050565b620002ec81620002d7565b8114620002f857600080fd5b50565b6000815190506200030c81620002e1565b92915050565b600080604083850312156200032c576200032b620002d2565b5b60006200033c85828601620002fb565b92505060206200034f85828601620002fb565b9150509250929050565b61239180620003696000396000f3fe608060405234801561001057600080fd5b50600436106101375760003560e01c80639d95f1cc116100b8578063d048d58c1161007c578063d048d58c14610339578063d1f43a4f14610357578063d547741f14610375578063d87855aa14610391578063e690f6e1146103af578063e9c26518146103cd57610137565b80639d95f1cc146102a7578063a217fddf146102c3578063b2b99ec9146102e1578063b9be532b146102fd578063c1bb0a5a1461031b57610137565b806336568abe116100ff57806336568abe14610205578063676e7a9914610221578063704802751461023d57806391d14854146102595780639592d4241461028957610137565b806301ffc9a71461013c5780631785f53c1461016c578063208f2a3114610188578063248a9ca3146101b95780632f2ff15d146101e9575b600080fd5b61015660048036038101906101519190611b54565b6103eb565b6040516101639190611b9c565b60405180910390f35b61018660048036038101906101819190611c15565b610465565b005b6101a2600480360381019061019d9190611c78565b6104a8565b6040516101b0929190611cc3565b60405180910390f35b6101d360048036038101906101ce9190611d22565b6104fc565b6040516101e09190611d5e565b60405180910390f35b61020360048036038101906101fe9190611d79565b61051b565b005b61021f600480360381019061021a9190611d79565b610544565b005b61023b60048036038101906102369190611e1e565b6105c7565b005b61025760048036038101906102529190611c15565b610fbf565b005b610273600480360381019061026e9190611d79565b611002565b6040516102809190611b9c565b60405180910390f35b61029161106c565b60405161029e9190611e6b565b60405180910390f35b6102c160048036038101906102bc9190611c15565b611072565b005b6102cb61134b565b6040516102d89190611d5e565b60405180910390f35b6102fb60048036038101906102f69190611c15565b611352565b005b6103056113b2565b6040516103129190611d5e565b60405180910390f35b6103236113d6565b6040516103309190611e6b565b60405180910390f35b6103416113dc565b60405161034e9190611d5e565b60405180910390f35b61035f611400565b60405161036c9190611b9c565b60405180910390f35b61038f600480360381019061038a9190611d79565b611413565b005b61039961143c565b6040516103a69190611e6b565b60405180910390f35b6103b7611442565b6040516103c49190611e6b565b60405180910390f35b6103d5611448565b6040516103e29190611d5e565b60405180910390f35b60007f7965db0b000000000000000000000000000000000000000000000000000000007bffffffffffffffffffffffffffffffffffffffffffffffffffffffff1916827bffffffffffffffffffffffffffffffffffffffffffffffffffffffff1916148061045e575061045d8261146c565b5b9050919050565b6104726000801b33611002565b61047b57600080fd5b6104a57fa9cdaf89344a3579f43cc1eccbbe69ee73528d7c39b7f8ad0a660286f0c544ad82611413565b50565b600681815481106104b857600080fd5b90600052602060002090600602016000915090508060000160009054906101000a900473ffffffffffffffffffffffffffffffffffffffff16908060010154905082565b6000806000838152602001908152602001600020600101549050919050565b610524826104fc565b610535816105306114d6565b6114de565b61053f838361157b565b505050565b61054c6114d6565b73ffffffffffffffffffffffffffffffffffffffff168173ffffffffffffffffffffffffffffffffffffffff16146105b9576040517f08c379a00000000000000000000000000000000000000000000000000000000081526004016105b090611f09565b60405180910390fd5b6105c3828261165b565b5050565b6105f17f086a7396bbeb0581a4f317ffb5b19566e9ecad105ee98e26d73cec5f3424902233611002565b6105fa57600080fd5b60006006600760003373ffffffffffffffffffffffffffffffffffffffff1673ffffffffffffffffffffffffffffffffffffffff168152602001908152602001600020548154811061064f5761064e611f29565b5b90600052602060002090600602016040518060c00160405290816000820160009054906101000a900473ffffffffffffffffffffffffffffffffffffffff1673ffffffffffffffffffffffffffffffffffffffff1673ffffffffffffffffffffffffffffffffffffffff168152602001600182015481526020016002820180548060200260200160405190810160405280929190818152602001828054801561071757602002820191906000526020600020905b815481526020019060010190808311610703575b505050505081526020016003820180548060200260200160405190810160405280929190818152602001828054801561076f57602002820191906000526020600020905b81548152602001906001019080831161075b575b50505050508152602001600482018054806020026020016040519081016040528092919081815260200182805480156107ec57602002820191906000526020600020906000905b82829054906101000a900460ff161515815260200190600101906020826000010492830192600103820291508084116107b65790505b505050505081526020016005820180548060200260200160405190810160405280929190818152602001828054801561086957602002820191906000526020600020906000905b82829054906101000a900460ff161515815260200190600101906020826000010492830192600103820291508084116108335790505b505050505081525050905060006040518060c00160405280836000015173ffffffffffffffffffffffffffffffffffffffff168152602001858590508152602001858580806020026020016040519081016040528093929190818152602001838360200280828437600081840152601f19601f8201169050808301925050505050505081526020018585905067ffffffffffffffff81111561090e5761090d611f58565b5b60405190808252806020026020018201604052801561093c5781602001602082028036833780820191505090505b5081526020018585905067ffffffffffffffff81111561095f5761095e611f58565b5b60405190808252806020026020018201604052801561098d5781602001602082028036833780820191505090505b5081526020018585905067ffffffffffffffff8111156109b0576109af611f58565b5b6040519080825280602002602001820160405280156109de5781602001602082028036833780820191505090505b50815250905060005b826060015151811015610a495782606001518181518110610a0b57610a0a611f29565b5b602002602001015182606001518281518110610a2a57610a29611f29565b5b6020026020010181815250508080610a4190611fb6565b9150506109e7565b5060005b84849050811015610d0e577ffffffffffffffffffffffffffffffffffffffffffffffffffffffffffffe7960858583818110610a8c57610a8b611f29565b5b9050602002013503610afc57600182606001518281518110610ab157610ab0611f29565b5b60200260200101818151610ac59190611ffe565b9150818152505060008260a001518281518110610ae557610ae4611f29565b5b602002602001019015159081151581525050610b78565b600082606001518281518110610b1557610b14611f29565b5b60200260200101818152505060018260a001518281518110610b3a57610b39611f29565b5b602002602001019015159081151581525050600082608001518281518110610b6557610b64611f29565b5b6020026020010190151590811515815250505b60045482606001518281518110610b9257610b91611f29565b5b602002602001015110610bcb57600182608001518281518110610bb857610bb7611f29565b5b6020026020010190151590811515815250505b6000600760003373ffffffffffffffffffffffffffffffffffffffff1673ffffffffffffffffffffffffffffffffffffffff1681526020019081526020016000205490508260068281548110610c2457610c23611f29565b5b906000526020600020906006020160008201518160000160006101000a81548173ffffffffffffffffffffffffffffffffffffffff021916908373ffffffffffffffffffffffffffffffffffffffff160217905550602082015181600101556040820151816002019080519060200190610c9f929190611978565b506060820151816003019080519060200190610cbc9291906119c5565b506080820151816004019080519060200190610cd9929190611a12565b5060a0820151816005019080519060200190610cf6929190611a12565b50905050508080610d0690611fb6565b915050610a4d565b5060006001905060008060028190555060005b600680549050811015610f4c5760068181548110610d4257610d41611f29565b5b90600052602060002090600602016001015460026000828254610d659190611ffe565b9250508190555060005b60068281548110610d8357610d82611f29565b5b906000526020600020906006020160010154811015610f2b576000151560068381548110610db457610db3611f29565b5b90600052602060002090600602016005018281548110610dd757610dd6611f29565b5b90600052602060002090602091828204019190069054906101000a900460ff161515148015610e6057506000151560068381548110610e1957610e18611f29565b5b90600052602060002090600602016004018281548110610e3c57610e3b611f29565b5b90600052602060002090602091828204019190069054906101000a900460ff161515145b15610e6e5760009350610f18565b611f4060068381548110610e8557610e84611f29565b5b90600052602060002090600602016002018281548110610ea857610ea7611f29565b5b9060005260206000200154128015610f025750610fa060068381548110610ed257610ed1611f29565b5b90600052602060002090600602016002018281548110610ef557610ef4611f29565b5b9060005260206000200154135b15610f1757600183610f149190611ffe565b92505b5b8080610f2390611fb6565b915050610d6f565b50600015158315150315610f4c578080610f4490611fb6565b915050610d21565b50600354600254606483610f609190612054565b610f6a91906120dd565b1015610f7557600091505b8115610f9b576001600560006101000a81548160ff021916908315150217905550610fb7565b6000600560006101000a81548160ff0219169083151502179055505b505050505050565b610fcc6000801b33611002565b610fd557600080fd5b610fff7fa9cdaf89344a3579f43cc1eccbbe69ee73528d7c39b7f8ad0a660286f0c544ad8261051b565b50565b600080600084815260200190815260200160002060000160008373ffffffffffffffffffffffffffffffffffffffff1673ffffffffffffffffffffffffffffffffffffffff16815260200190815260200160002060009054906101000a900460ff16905092915050565b60015481565b61109c7fa9cdaf89344a3579f43cc1eccbbe69ee73528d7c39b7f8ad0a660286f0c544ad33611002565b6110a557600080fd5b6110cf7f086a7396bbeb0581a4f317ffb5b19566e9ecad105ee98e26d73cec5f342490223361051b565b60018060008282546110e19190611ffe565b9250508190555060006040518060c001604052808373ffffffffffffffffffffffffffffffffffffffff16815260200160008152602001600067ffffffffffffffff81111561113357611132611f58565b5b6040519080825280602002602001820160405280156111615781602001602082028036833780820191505090505b508152602001600067ffffffffffffffff81111561118257611181611f58565b5b6040519080825280602002602001820160405280156111b05781602001602082028036833780820191505090505b508152602001600067ffffffffffffffff8111156111d1576111d0611f58565b5b6040519080825280602002602001820160405280156111ff5781602001602082028036833780820191505090505b508152602001600067ffffffffffffffff8111156112205761121f611f58565b5b60405190808252806020026020018201604052801561124e5781602001602082028036833780820191505090505b508152509050600681908060018154018082558091505060019003906000526020600020906006020160009091909190915060008201518160000160006101000a81548173ffffffffffffffffffffffffffffffffffffffff021916908373ffffffffffffffffffffffffffffffffffffffff1602179055506020820151816001015560408201518160020190805190602001906112ed929190611978565b50606082015181600301908051906020019061130a9291906119c5565b506080820151816004019080519060200190611327929190611a12565b5060a0820151816005019080519060200190611344929190611a12565b5050505050565b6000801b81565b61137c7fa9cdaf89344a3579f43cc1eccbbe69ee73528d7c39b7f8ad0a660286f0c544ad33611002565b61138557600080fd5b6113af7f086a7396bbeb0581a4f317ffb5b19566e9ecad105ee98e26d73cec5f3424902282611413565b50565b7f086a7396bbeb0581a4f317ffb5b19566e9ecad105ee98e26d73cec5f3424902281565b60045481565b7fa9cdaf89344a3579f43cc1eccbbe69ee73528d7c39b7f8ad0a660286f0c544ad81565b600560009054906101000a900460ff1681565b61141c826104fc565b61142d816114286114d6565b6114de565b611437838361165b565b505050565b60035481565b60025481565b7f3b5d4cc60d3ec3516ee8ae083bd60934f6eb2a6c54b1229985c41bfb092b260381565b60007f01ffc9a7000000000000000000000000000000000000000000000000000000007bffffffffffffffffffffffffffffffffffffffffffffffffffffffff1916827bffffffffffffffffffffffffffffffffffffffffffffffffffffffff1916149050919050565b600033905090565b6114e88282611002565b6115775761150d8173ffffffffffffffffffffffffffffffffffffffff16601461173c565b61151b8360001c602061173c565b60405160200161152c929190612220565b6040516020818303038152906040526040517f08c379a000000000000000000000000000000000000000000000000000000000815260040161156e91906122a4565b60405180910390fd5b5050565b6115858282611002565b61165757600160008084815260200190815260200160002060000160008373ffffffffffffffffffffffffffffffffffffffff1673ffffffffffffffffffffffffffffffffffffffff16815260200190815260200160002060006101000a81548160ff0219169083151502179055506115fc6114d6565b73ffffffffffffffffffffffffffffffffffffffff168173ffffffffffffffffffffffffffffffffffffffff16837f2f8788117e7eff1d82e926ec794901d17c78024a50270940304540a733656f0d60405160405180910390a45b5050565b6116658282611002565b1561173857600080600084815260200190815260200160002060000160008373ffffffffffffffffffffffffffffffffffffffff1673ffffffffffffffffffffffffffffffffffffffff16815260200190815260200160002060006101000a81548160ff0219169083151502179055506116dd6114d6565b73ffffffffffffffffffffffffffffffffffffffff168173ffffffffffffffffffffffffffffffffffffffff16837ff6391f5c32d9c69d2a47ea670b442974b53935d1edc7fd64eb21e047a839171b60405160405180910390a45b5050565b60606000600283600261174f9190612054565b6117599190611ffe565b67ffffffffffffffff81111561177257611771611f58565b5b6040519080825280601f01601f1916602001820160405280156117a45781602001600182028036833780820191505090505b5090507f3000000000000000000000000000000000000000000000000000000000000000816000815181106117dc576117db611f29565b5b60200101907effffffffffffffffffffffffffffffffffffffffffffffffffffffffffffff1916908160001a9053507f7800000000000000000000000000000000000000000000000000000000000000816001815181106118405761183f611f29565b5b60200101907effffffffffffffffffffffffffffffffffffffffffffffffffffffffffffff1916908160001a905350600060018460026118809190612054565b61188a9190611ffe565b90505b600181111561192a577f3031323334353637383961626364656600000000000000000000000000000000600f8616601081106118cc576118cb611f29565b5b1a60f81b8282815181106118e3576118e2611f29565b5b60200101907effffffffffffffffffffffffffffffffffffffffffffffffffffffffffffff1916908160001a905350600485901c945080611923906122c6565b905061188d565b506000841461196e576040517f08c379a00000000000000000000000000000000000000000000000000000000081526004016119659061233b565b60405180910390fd5b8091505092915050565b8280548282559060005260206000209081019282156119b4579160200282015b828111156119b3578251825591602001919060010190611998565b5b5090506119c19190611ab8565b5090565b828054828255906000526020600020908101928215611a01579160200282015b82811115611a005782518255916020019190600101906119e5565b5b509050611a0e9190611ad5565b5090565b82805482825590600052602060002090601f01602090048101928215611aa75791602002820160005b83821115611a7857835183826101000a81548160ff0219169083151502179055509260200192600101602081600001049283019260010302611a3b565b8015611aa55782816101000a81549060ff0219169055600101602081600001049283019260010302611a78565b505b509050611ab49190611ad5565b5090565b5b80821115611ad1576000816000905550600101611ab9565b5090565b5b80821115611aee576000816000905550600101611ad6565b5090565b600080fd5b600080fd5b60007fffffffff0000000000000000000000000000000000000000000000000000000082169050919050565b611b3181611afc565b8114611b3c57600080fd5b50565b600081359050611b4e81611b28565b92915050565b600060208284031215611b6a57611b69611af2565b5b6000611b7884828501611b3f565b91505092915050565b60008115159050919050565b611b9681611b81565b82525050565b6000602082019050611bb16000830184611b8d565b92915050565b600073ffffffffffffffffffffffffffffffffffffffff82169050919050565b6000611be282611bb7565b9050919050565b611bf281611bd7565b8114611bfd57600080fd5b50565b600081359050611c0f81611be9565b92915050565b600060208284031215611c2b57611c2a611af2565b5b6000611c3984828501611c00565b91505092915050565b6000819050919050565b611c5581611c42565b8114611c6057600080fd5b50565b600081359050611c7281611c4c565b92915050565b600060208284031215611c8e57611c8d611af2565b5b6000611c9c84828501611c63565b91505092915050565b611cae81611bd7565b82525050565b611cbd81611c42565b82525050565b6000604082019050611cd86000830185611ca5565b611ce56020830184611cb4565b9392505050565b6000819050919050565b611cff81611cec565b8114611d0a57600080fd5b50565b600081359050611d1c81611cf6565b92915050565b600060208284031215611d3857611d37611af2565b5b6000611d4684828501611d0d565b91505092915050565b611d5881611cec565b82525050565b6000602082019050611d736000830184611d4f565b92915050565b60008060408385031215611d9057611d8f611af2565b5b6000611d9e85828601611d0d565b9250506020611daf85828601611c00565b9150509250929050565b600080fd5b600080fd5b600080fd5b60008083601f840112611dde57611ddd611db9565b5b8235905067ffffffffffffffff811115611dfb57611dfa611dbe565b5b602083019150836020820283011115611e1757611e16611dc3565b5b9250929050565b60008060208385031215611e3557611e34611af2565b5b600083013567ffffffffffffffff811115611e5357611e52611af7565b5b611e5f85828601611dc8565b92509250509250929050565b6000602082019050611e806000830184611cb4565b92915050565b600082825260208201905092915050565b7f416363657373436f6e74726f6c3a2063616e206f6e6c792072656e6f756e636560008201527f20726f6c657320666f722073656c660000000000000000000000000000000000602082015250565b6000611ef3602f83611e86565b9150611efe82611e97565b604082019050919050565b60006020820190508181036000830152611f2281611ee6565b9050919050565b7f4e487b7100000000000000000000000000000000000000000000000000000000600052603260045260246000fd5b7f4e487b7100000000000000000000000000000000000000000000000000000000600052604160045260246000fd5b7f4e487b7100000000000000000000000000000000000000000000000000000000600052601160045260246000fd5b6000611fc182611c42565b91507fffffffffffffffffffffffffffffffffffffffffffffffffffffffffffffffff8203611ff357611ff2611f87565b5b600182019050919050565b600061200982611c42565b915061201483611c42565b9250827fffffffffffffffffffffffffffffffffffffffffffffffffffffffffffffffff0382111561204957612048611f87565b5b828201905092915050565b600061205f82611c42565b915061206a83611c42565b9250817fffffffffffffffffffffffffffffffffffffffffffffffffffffffffffffffff04831182151516156120a3576120a2611f87565b5b828202905092915050565b7f4e487b7100000000000000000000000000000000000000000000000000000000600052601260045260246000fd5b60006120e882611c42565b91506120f383611c42565b925082612103576121026120ae565b5b828204905092915050565b600081905092915050565b7f416363657373436f6e74726f6c3a206163636f756e7420000000000000000000600082015250565b600061214f60178361210e565b915061215a82612119565b601782019050919050565b600081519050919050565b60005b8381101561218e578082015181840152602081019050612173565b8381111561219d576000848401525b50505050565b60006121ae82612165565b6121b8818561210e565b93506121c8818560208601612170565b80840191505092915050565b7f206973206d697373696e6720726f6c6520000000000000000000000000000000600082015250565b600061220a60118361210e565b9150612215826121d4565b601182019050919050565b600061222b82612142565b915061223782856121a3565b9150612242826121fd565b915061224e82846121a3565b91508190509392505050565b6000601f19601f8301169050919050565b600061227682612165565b6122808185611e86565b9350612290818560208601612170565b6122998161225a565b840191505092915050565b600060208201905081810360008301526122be818461226b565b905092915050565b60006122d182611c42565b9150600082036122e4576122e3611f87565b5b600182039050919050565b7f537472696e67733a20686578206c656e67746820696e73756666696369656e74600082015250565b6000612325602083611e86565b9150612330826122ef565b602082019050919050565b6000602082019050818103600083015261235481612318565b905091905056fea2646970667358221220c481b7e1e7182ec32cf8597d614b0fbd6e9aa19cc0a4fc3ec576bfe98cc9608a64736f6c634300080d0033",
					"opcodes": "PUSH1 0x80 PUSH1 0x40 MSTORE CALLVALUE DUP1 ISZERO PUSH3 0x11 JUMPI PUSH1 0x0 DUP1 REVERT JUMPDEST POP PUSH1 0x40 MLOAD PUSH3 0x26FA CODESIZE SUB DUP1 PUSH3 0x26FA DUP4 CODECOPY DUP2 DUP2 ADD PUSH1 0x40 MSTORE DUP2 ADD SWAP1 PUSH3 0x37 SWAP2 SWAP1 PUSH3 0x312 JUMP JUMPDEST PUSH3 0x4C PUSH1 0x0 DUP1 SHL CALLER PUSH3 0xD7 PUSH1 0x20 SHL PUSH1 0x20 SHR JUMP JUMPDEST PUSH1 0x0 PUSH1 0x1 DUP2 SWAP1 SSTORE POP DUP2 PUSH1 0x3 DUP2 SWAP1 SSTORE POP DUP1 PUSH1 0x4 DUP2 SWAP1 SSTORE POP PUSH1 0x0 PUSH1 0x5 PUSH1 0x0 PUSH2 0x100 EXP DUP2 SLOAD DUP2 PUSH1 0xFF MUL NOT AND SWAP1 DUP4 ISZERO ISZERO MUL OR SWAP1 SSTORE POP PUSH3 0xCF PUSH32 0x86A7396BBEB0581A4F317FFB5B19566E9ECAD105EE98E26D73CEC5F34249022 PUSH32 0xA9CDAF89344A3579F43CC1ECCBBE69EE73528D7C39B7F8AD0A660286F0C544AD PUSH3 0xED PUSH1 0x20 SHL PUSH1 0x20 SHR JUMP JUMPDEST POP POP PUSH3 0x359 JUMP JUMPDEST PUSH3 0xE9 DUP3 DUP3 PUSH3 0x150 PUSH1 0x20 SHL PUSH1 0x20 SHR JUMP JUMPDEST POP POP JUMP JUMPDEST PUSH1 0x0 PUSH3 0x100 DUP4 PUSH3 0x241 PUSH1 0x20 SHL PUSH1 0x20 SHR JUMP JUMPDEST SWAP1 POP DUP2 PUSH1 0x0 DUP1 DUP6 DUP2 MSTORE PUSH1 0x20 ADD SWAP1 DUP2 MSTORE PUSH1 0x20 ADD PUSH1 0x0 KECCAK256 PUSH1 0x1 ADD DUP2 SWAP1 SSTORE POP DUP2 DUP2 DUP5 PUSH32 0xBD79B86FFE0AB8E8776151514217CD7CACD52C909F66475C3AF44E129F0B00FF PUSH1 0x40 MLOAD PUSH1 0x40 MLOAD DUP1 SWAP2 SUB SWAP1 LOG4 POP POP POP JUMP JUMPDEST PUSH3 0x162 DUP3 DUP3 PUSH3 0x260 PUSH1 0x20 SHL PUSH1 0x20 SHR JUMP JUMPDEST PUSH3 0x23D JUMPI PUSH1 0x1 PUSH1 0x0 DUP1 DUP5 DUP2 MSTORE PUSH1 0x20 ADD SWAP1 DUP2 MSTORE PUSH1 0x20 ADD PUSH1 0x0 KECCAK256 PUSH1 0x0 ADD PUSH1 0x0 DUP4 PUSH20 0xFFFFFFFFFFFFFFFFFFFFFFFFFFFFFFFFFFFFFFFF AND PUSH20 0xFFFFFFFFFFFFFFFFFFFFFFFFFFFFFFFFFFFFFFFF AND DUP2 MSTORE PUSH1 0x20 ADD SWAP1 DUP2 MSTORE PUSH1 0x20 ADD PUSH1 0x0 KECCAK256 PUSH1 0x0 PUSH2 0x100 EXP DUP2 SLOAD DUP2 PUSH1 0xFF MUL NOT AND SWAP1 DUP4 ISZERO ISZERO MUL OR SWAP1 SSTORE POP PUSH3 0x1E2 PUSH3 0x2CA PUSH1 0x20 SHL PUSH1 0x20 SHR JUMP JUMPDEST PUSH20 0xFFFFFFFFFFFFFFFFFFFFFFFFFFFFFFFFFFFFFFFF AND DUP2 PUSH20 0xFFFFFFFFFFFFFFFFFFFFFFFFFFFFFFFFFFFFFFFF AND DUP4 PUSH32 0x2F8788117E7EFF1D82E926EC794901D17C78024A50270940304540A733656F0D PUSH1 0x40 MLOAD PUSH1 0x40 MLOAD DUP1 SWAP2 SUB SWAP1 LOG4 JUMPDEST POP POP JUMP JUMPDEST PUSH1 0x0 DUP1 PUSH1 0x0 DUP4 DUP2 MSTORE PUSH1 0x20 ADD SWAP1 DUP2 MSTORE PUSH1 0x20 ADD PUSH1 0x0 KECCAK256 PUSH1 0x1 ADD SLOAD SWAP1 POP SWAP2 SWAP1 POP JUMP JUMPDEST PUSH1 0x0 DUP1 PUSH1 0x0 DUP5 DUP2 MSTORE PUSH1 0x20 ADD SWAP1 DUP2 MSTORE PUSH1 0x20 ADD PUSH1 0x0 KECCAK256 PUSH1 0x0 ADD PUSH1 0x0 DUP4 PUSH20 0xFFFFFFFFFFFFFFFFFFFFFFFFFFFFFFFFFFFFFFFF AND PUSH20 0xFFFFFFFFFFFFFFFFFFFFFFFFFFFFFFFFFFFFFFFF AND DUP2 MSTORE PUSH1 0x20 ADD SWAP1 DUP2 MSTORE PUSH1 0x20 ADD PUSH1 0x0 KECCAK256 PUSH1 0x0 SWAP1 SLOAD SWAP1 PUSH2 0x100 EXP SWAP1 DIV PUSH1 0xFF AND SWAP1 POP SWAP3 SWAP2 POP POP JUMP JUMPDEST PUSH1 0x0 CALLER SWAP1 POP SWAP1 JUMP JUMPDEST PUSH1 0x0 DUP1 REVERT JUMPDEST PUSH1 0x0 DUP2 SWAP1 POP SWAP2 SWAP1 POP JUMP JUMPDEST PUSH3 0x2EC DUP2 PUSH3 0x2D7 JUMP JUMPDEST DUP2 EQ PUSH3 0x2F8 JUMPI PUSH1 0x0 DUP1 REVERT JUMPDEST POP JUMP JUMPDEST PUSH1 0x0 DUP2 MLOAD SWAP1 POP PUSH3 0x30C DUP2 PUSH3 0x2E1 JUMP JUMPDEST SWAP3 SWAP2 POP POP JUMP JUMPDEST PUSH1 0x0 DUP1 PUSH1 0x40 DUP4 DUP6 SUB SLT ISZERO PUSH3 0x32C JUMPI PUSH3 0x32B PUSH3 0x2D2 JUMP JUMPDEST JUMPDEST PUSH1 0x0 PUSH3 0x33C DUP6 DUP3 DUP7 ADD PUSH3 0x2FB JUMP JUMPDEST SWAP3 POP POP PUSH1 0x20 PUSH3 0x34F DUP6 DUP3 DUP7 ADD PUSH3 0x2FB JUMP JUMPDEST SWAP2 POP POP SWAP3 POP SWAP3 SWAP1 POP JUMP JUMPDEST PUSH2 0x2391 DUP1 PUSH3 0x369 PUSH1 0x0 CODECOPY PUSH1 0x0 RETURN INVALID PUSH1 0x80 PUSH1 0x40 MSTORE CALLVALUE DUP1 ISZERO PUSH2 0x10 JUMPI PUSH1 0x0 DUP1 REVERT JUMPDEST POP PUSH1 0x4 CALLDATASIZE LT PUSH2 0x137 JUMPI PUSH1 0x0 CALLDATALOAD PUSH1 0xE0 SHR DUP1 PUSH4 0x9D95F1CC GT PUSH2 0xB8 JUMPI DUP1 PUSH4 0xD048D58C GT PUSH2 0x7C JUMPI DUP1 PUSH4 0xD048D58C EQ PUSH2 0x339 JUMPI DUP1 PUSH4 0xD1F43A4F EQ PUSH2 0x357 JUMPI DUP1 PUSH4 0xD547741F EQ PUSH2 0x375 JUMPI DUP1 PUSH4 0xD87855AA EQ PUSH2 0x391 JUMPI DUP1 PUSH4 0xE690F6E1 EQ PUSH2 0x3AF JUMPI DUP1 PUSH4 0xE9C26518 EQ PUSH2 0x3CD JUMPI PUSH2 0x137 JUMP JUMPDEST DUP1 PUSH4 0x9D95F1CC EQ PUSH2 0x2A7 JUMPI DUP1 PUSH4 0xA217FDDF EQ PUSH2 0x2C3 JUMPI DUP1 PUSH4 0xB2B99EC9 EQ PUSH2 0x2E1 JUMPI DUP1 PUSH4 0xB9BE532B EQ PUSH2 0x2FD JUMPI DUP1 PUSH4 0xC1BB0A5A EQ PUSH2 0x31B JUMPI PUSH2 0x137 JUMP JUMPDEST DUP1 PUSH4 0x36568ABE GT PUSH2 0xFF JUMPI DUP1 PUSH4 0x36568ABE EQ PUSH2 0x205 JUMPI DUP1 PUSH4 0x676E7A99 EQ PUSH2 0x221 JUMPI DUP1 PUSH4 0x70480275 EQ PUSH2 0x23D JUMPI DUP1 PUSH4 0x91D14854 EQ PUSH2 0x259 JUMPI DUP1 PUSH4 0x9592D424 EQ PUSH2 0x289 JUMPI PUSH2 0x137 JUMP JUMPDEST DUP1 PUSH4 0x1FFC9A7 EQ PUSH2 0x13C JUMPI DUP1 PUSH4 0x1785F53C EQ PUSH2 0x16C JUMPI DUP1 PUSH4 0x208F2A31 EQ PUSH2 0x188 JUMPI DUP1 PUSH4 0x248A9CA3 EQ PUSH2 0x1B9 JUMPI DUP1 PUSH4 0x2F2FF15D EQ PUSH2 0x1E9 JUMPI JUMPDEST PUSH1 0x0 DUP1 REVERT JUMPDEST PUSH2 0x156 PUSH1 0x4 DUP1 CALLDATASIZE SUB DUP2 ADD SWAP1 PUSH2 0x151 SWAP2 SWAP1 PUSH2 0x1B54 JUMP JUMPDEST PUSH2 0x3EB JUMP JUMPDEST PUSH1 0x40 MLOAD PUSH2 0x163 SWAP2 SWAP1 PUSH2 0x1B9C JUMP JUMPDEST PUSH1 0x40 MLOAD DUP1 SWAP2 SUB SWAP1 RETURN JUMPDEST PUSH2 0x186 PUSH1 0x4 DUP1 CALLDATASIZE SUB DUP2 ADD SWAP1 PUSH2 0x181 SWAP2 SWAP1 PUSH2 0x1C15 JUMP JUMPDEST PUSH2 0x465 JUMP JUMPDEST STOP JUMPDEST PUSH2 0x1A2 PUSH1 0x4 DUP1 CALLDATASIZE SUB DUP2 ADD SWAP1 PUSH2 0x19D SWAP2 SWAP1 PUSH2 0x1C78 JUMP JUMPDEST PUSH2 0x4A8 JUMP JUMPDEST PUSH1 0x40 MLOAD PUSH2 0x1B0 SWAP3 SWAP2 SWAP1 PUSH2 0x1CC3 JUMP JUMPDEST PUSH1 0x40 MLOAD DUP1 SWAP2 SUB SWAP1 RETURN JUMPDEST PUSH2 0x1D3 PUSH1 0x4 DUP1 CALLDATASIZE SUB DUP2 ADD SWAP1 PUSH2 0x1CE SWAP2 SWAP1 PUSH2 0x1D22 JUMP JUMPDEST PUSH2 0x4FC JUMP JUMPDEST PUSH1 0x40 MLOAD PUSH2 0x1E0 SWAP2 SWAP1 PUSH2 0x1D5E JUMP JUMPDEST PUSH1 0x40 MLOAD DUP1 SWAP2 SUB SWAP1 RETURN JUMPDEST PUSH2 0x203 PUSH1 0x4 DUP1 CALLDATASIZE SUB DUP2 ADD SWAP1 PUSH2 0x1FE SWAP2 SWAP1 PUSH2 0x1D79 JUMP JUMPDEST PUSH2 0x51B JUMP JUMPDEST STOP JUMPDEST PUSH2 0x21F PUSH1 0x4 DUP1 CALLDATASIZE SUB DUP2 ADD SWAP1 PUSH2 0x21A SWAP2 SWAP1 PUSH2 0x1D79 JUMP JUMPDEST PUSH2 0x544 JUMP JUMPDEST STOP JUMPDEST PUSH2 0x23B PUSH1 0x4 DUP1 CALLDATASIZE SUB DUP2 ADD SWAP1 PUSH2 0x236 SWAP2 SWAP1 PUSH2 0x1E1E JUMP JUMPDEST PUSH2 0x5C7 JUMP JUMPDEST STOP JUMPDEST PUSH2 0x257 PUSH1 0x4 DUP1 CALLDATASIZE SUB DUP2 ADD SWAP1 PUSH2 0x252 SWAP2 SWAP1 PUSH2 0x1C15 JUMP JUMPDEST PUSH2 0xFBF JUMP JUMPDEST STOP JUMPDEST PUSH2 0x273 PUSH1 0x4 DUP1 CALLDATASIZE SUB DUP2 ADD SWAP1 PUSH2 0x26E SWAP2 SWAP1 PUSH2 0x1D79 JUMP JUMPDEST PUSH2 0x1002 JUMP JUMPDEST PUSH1 0x40 MLOAD PUSH2 0x280 SWAP2 SWAP1 PUSH2 0x1B9C JUMP JUMPDEST PUSH1 0x40 MLOAD DUP1 SWAP2 SUB SWAP1 RETURN JUMPDEST PUSH2 0x291 PUSH2 0x106C JUMP JUMPDEST PUSH1 0x40 MLOAD PUSH2 0x29E SWAP2 SWAP1 PUSH2 0x1E6B JUMP JUMPDEST PUSH1 0x40 MLOAD DUP1 SWAP2 SUB SWAP1 RETURN JUMPDEST PUSH2 0x2C1 PUSH1 0x4 DUP1 CALLDATASIZE SUB DUP2 ADD SWAP1 PUSH2 0x2BC SWAP2 SWAP1 PUSH2 0x1C15 JUMP JUMPDEST PUSH2 0x1072 JUMP JUMPDEST STOP JUMPDEST PUSH2 0x2CB PUSH2 0x134B JUMP JUMPDEST PUSH1 0x40 MLOAD PUSH2 0x2D8 SWAP2 SWAP1 PUSH2 0x1D5E JUMP JUMPDEST PUSH1 0x40 MLOAD DUP1 SWAP2 SUB SWAP1 RETURN JUMPDEST PUSH2 0x2FB PUSH1 0x4 DUP1 CALLDATASIZE SUB DUP2 ADD SWAP1 PUSH2 0x2F6 SWAP2 SWAP1 PUSH2 0x1C15 JUMP JUMPDEST PUSH2 0x1352 JUMP JUMPDEST STOP JUMPDEST PUSH2 0x305 PUSH2 0x13B2 JUMP JUMPDEST PUSH1 0x40 MLOAD PUSH2 0x312 SWAP2 SWAP1 PUSH2 0x1D5E JUMP JUMPDEST PUSH1 0x40 MLOAD DUP1 SWAP2 SUB SWAP1 RETURN JUMPDEST PUSH2 0x323 PUSH2 0x13D6 JUMP JUMPDEST PUSH1 0x40 MLOAD PUSH2 0x330 SWAP2 SWAP1 PUSH2 0x1E6B JUMP JUMPDEST PUSH1 0x40 MLOAD DUP1 SWAP2 SUB SWAP1 RETURN JUMPDEST PUSH2 0x341 PUSH2 0x13DC JUMP JUMPDEST PUSH1 0x40 MLOAD PUSH2 0x34E SWAP2 SWAP1 PUSH2 0x1D5E JUMP JUMPDEST PUSH1 0x40 MLOAD DUP1 SWAP2 SUB SWAP1 RETURN JUMPDEST PUSH2 0x35F PUSH2 0x1400 JUMP JUMPDEST PUSH1 0x40 MLOAD PUSH2 0x36C SWAP2 SWAP1 PUSH2 0x1B9C JUMP JUMPDEST PUSH1 0x40 MLOAD DUP1 SWAP2 SUB SWAP1 RETURN JUMPDEST PUSH2 0x38F PUSH1 0x4 DUP1 CALLDATASIZE SUB DUP2 ADD SWAP1 PUSH2 0x38A SWAP2 SWAP1 PUSH2 0x1D79 JUMP JUMPDEST PUSH2 0x1413 JUMP JUMPDEST STOP JUMPDEST PUSH2 0x399 PUSH2 0x143C JUMP JUMPDEST PUSH1 0x40 MLOAD PUSH2 0x3A6 SWAP2 SWAP1 PUSH2 0x1E6B JUMP JUMPDEST PUSH1 0x40 MLOAD DUP1 SWAP2 SUB SWAP1 RETURN JUMPDEST PUSH2 0x3B7 PUSH2 0x1442 JUMP JUMPDEST PUSH1 0x40 MLOAD PUSH2 0x3C4 SWAP2 SWAP1 PUSH2 0x1E6B JUMP JUMPDEST PUSH1 0x40 MLOAD DUP1 SWAP2 SUB SWAP1 RETURN JUMPDEST PUSH2 0x3D5 PUSH2 0x1448 JUMP JUMPDEST PUSH1 0x40 MLOAD PUSH2 0x3E2 SWAP2 SWAP1 PUSH2 0x1D5E JUMP JUMPDEST PUSH1 0x40 MLOAD DUP1 SWAP2 SUB SWAP1 RETURN JUMPDEST PUSH1 0x0 PUSH32 0x7965DB0B00000000000000000000000000000000000000000000000000000000 PUSH28 0xFFFFFFFFFFFFFFFFFFFFFFFFFFFFFFFFFFFFFFFFFFFFFFFFFFFFFFFF NOT AND DUP3 PUSH28 0xFFFFFFFFFFFFFFFFFFFFFFFFFFFFFFFFFFFFFFFFFFFFFFFFFFFFFFFF NOT AND EQ DUP1 PUSH2 0x45E JUMPI POP PUSH2 0x45D DUP3 PUSH2 0x146C JUMP JUMPDEST JUMPDEST SWAP1 POP SWAP2 SWAP1 POP JUMP JUMPDEST PUSH2 0x472 PUSH1 0x0 DUP1 SHL CALLER PUSH2 0x1002 JUMP JUMPDEST PUSH2 0x47B JUMPI PUSH1 0x0 DUP1 REVERT JUMPDEST PUSH2 0x4A5 PUSH32 0xA9CDAF89344A3579F43CC1ECCBBE69EE73528D7C39B7F8AD0A660286F0C544AD DUP3 PUSH2 0x1413 JUMP JUMPDEST POP JUMP JUMPDEST PUSH1 0x6 DUP2 DUP2 SLOAD DUP2 LT PUSH2 0x4B8 JUMPI PUSH1 0x0 DUP1 REVERT JUMPDEST SWAP1 PUSH1 0x0 MSTORE PUSH1 0x20 PUSH1 0x0 KECCAK256 SWAP1 PUSH1 0x6 MUL ADD PUSH1 0x0 SWAP2 POP SWAP1 POP DUP1 PUSH1 0x0 ADD PUSH1 0x0 SWAP1 SLOAD SWAP1 PUSH2 0x100 EXP SWAP1 DIV PUSH20 0xFFFFFFFFFFFFFFFFFFFFFFFFFFFFFFFFFFFFFFFF AND SWAP1 DUP1 PUSH1 0x1 ADD SLOAD SWAP1 POP DUP3 JUMP JUMPDEST PUSH1 0x0 DUP1 PUSH1 0x0 DUP4 DUP2 MSTORE PUSH1 0x20 ADD SWAP1 DUP2 MSTORE PUSH1 0x20 ADD PUSH1 0x0 KECCAK256 PUSH1 0x1 ADD SLOAD SWAP1 POP SWAP2 SWAP1 POP JUMP JUMPDEST PUSH2 0x524 DUP3 PUSH2 0x4FC JUMP JUMPDEST PUSH2 0x535 DUP2 PUSH2 0x530 PUSH2 0x14D6 JUMP JUMPDEST PUSH2 0x14DE JUMP JUMPDEST PUSH2 0x53F DUP4 DUP4 PUSH2 0x157B JUMP JUMPDEST POP POP POP JUMP JUMPDEST PUSH2 0x54C PUSH2 0x14D6 JUMP JUMPDEST PUSH20 0xFFFFFFFFFFFFFFFFFFFFFFFFFFFFFFFFFFFFFFFF AND DUP2 PUSH20 0xFFFFFFFFFFFFFFFFFFFFFFFFFFFFFFFFFFFFFFFF AND EQ PUSH2 0x5B9 JUMPI PUSH1 0x40 MLOAD PUSH32 0x8C379A000000000000000000000000000000000000000000000000000000000 DUP2 MSTORE PUSH1 0x4 ADD PUSH2 0x5B0 SWAP1 PUSH2 0x1F09 JUMP JUMPDEST PUSH1 0x40 MLOAD DUP1 SWAP2 SUB SWAP1 REVERT JUMPDEST PUSH2 0x5C3 DUP3 DUP3 PUSH2 0x165B JUMP JUMPDEST POP POP JUMP JUMPDEST PUSH2 0x5F1 PUSH32 0x86A7396BBEB0581A4F317FFB5B19566E9ECAD105EE98E26D73CEC5F34249022 CALLER PUSH2 0x1002 JUMP JUMPDEST PUSH2 0x5FA JUMPI PUSH1 0x0 DUP1 REVERT JUMPDEST PUSH1 0x0 PUSH1 0x6 PUSH1 0x7 PUSH1 0x0 CALLER PUSH20 0xFFFFFFFFFFFFFFFFFFFFFFFFFFFFFFFFFFFFFFFF AND PUSH20 0xFFFFFFFFFFFFFFFFFFFFFFFFFFFFFFFFFFFFFFFF AND DUP2 MSTORE PUSH1 0x20 ADD SWAP1 DUP2 MSTORE PUSH1 0x20 ADD PUSH1 0x0 KECCAK256 SLOAD DUP2 SLOAD DUP2 LT PUSH2 0x64F JUMPI PUSH2 0x64E PUSH2 0x1F29 JUMP JUMPDEST JUMPDEST SWAP1 PUSH1 0x0 MSTORE PUSH1 0x20 PUSH1 0x0 KECCAK256 SWAP1 PUSH1 0x6 MUL ADD PUSH1 0x40 MLOAD DUP1 PUSH1 0xC0 ADD PUSH1 0x40 MSTORE SWAP1 DUP2 PUSH1 0x0 DUP3 ADD PUSH1 0x0 SWAP1 SLOAD SWAP1 PUSH2 0x100 EXP SWAP1 DIV PUSH20 0xFFFFFFFFFFFFFFFFFFFFFFFFFFFFFFFFFFFFFFFF AND PUSH20 0xFFFFFFFFFFFFFFFFFFFFFFFFFFFFFFFFFFFFFFFF AND PUSH20 0xFFFFFFFFFFFFFFFFFFFFFFFFFFFFFFFFFFFFFFFF AND DUP2 MSTORE PUSH1 0x20 ADD PUSH1 0x1 DUP3 ADD SLOAD DUP2 MSTORE PUSH1 0x20 ADD PUSH1 0x2 DUP3 ADD DUP1 SLOAD DUP1 PUSH1 0x20 MUL PUSH1 0x20 ADD PUSH1 0x40 MLOAD SWAP1 DUP2 ADD PUSH1 0x40 MSTORE DUP1 SWAP3 SWAP2 SWAP1 DUP2 DUP2 MSTORE PUSH1 0x20 ADD DUP3 DUP1 SLOAD DUP1 ISZERO PUSH2 0x717 JUMPI PUSH1 0x20 MUL DUP3 ADD SWAP2 SWAP1 PUSH1 0x0 MSTORE PUSH1 0x20 PUSH1 0x0 KECCAK256 SWAP1 JUMPDEST DUP2 SLOAD DUP2 MSTORE PUSH1 0x20 ADD SWAP1 PUSH1 0x1 ADD SWAP1 DUP1 DUP4 GT PUSH2 0x703 JUMPI JUMPDEST POP POP POP POP POP DUP2 MSTORE PUSH1 0x20 ADD PUSH1 0x3 DUP3 ADD DUP1 SLOAD DUP1 PUSH1 0x20 MUL PUSH1 0x20 ADD PUSH1 0x40 MLOAD SWAP1 DUP2 ADD PUSH1 0x40 MSTORE DUP1 SWAP3 SWAP2 SWAP1 DUP2 DUP2 MSTORE PUSH1 0x20 ADD DUP3 DUP1 SLOAD DUP1 ISZERO PUSH2 0x76F JUMPI PUSH1 0x20 MUL DUP3 ADD SWAP2 SWAP1 PUSH1 0x0 MSTORE PUSH1 0x20 PUSH1 0x0 KECCAK256 SWAP1 JUMPDEST DUP2 SLOAD DUP2 MSTORE PUSH1 0x20 ADD SWAP1 PUSH1 0x1 ADD SWAP1 DUP1 DUP4 GT PUSH2 0x75B JUMPI JUMPDEST POP POP POP POP POP DUP2 MSTORE PUSH1 0x20 ADD PUSH1 0x4 DUP3 ADD DUP1 SLOAD DUP1 PUSH1 0x20 MUL PUSH1 0x20 ADD PUSH1 0x40 MLOAD SWAP1 DUP2 ADD PUSH1 0x40 MSTORE DUP1 SWAP3 SWAP2 SWAP1 DUP2 DUP2 MSTORE PUSH1 0x20 ADD DUP3 DUP1 SLOAD DUP1 ISZERO PUSH2 0x7EC JUMPI PUSH1 0x20 MUL DUP3 ADD SWAP2 SWAP1 PUSH1 0x0 MSTORE PUSH1 0x20 PUSH1 0x0 KECCAK256 SWAP1 PUSH1 0x0 SWAP1 JUMPDEST DUP3 DUP3 SWAP1 SLOAD SWAP1 PUSH2 0x100 EXP SWAP1 DIV PUSH1 0xFF AND ISZERO ISZERO DUP2 MSTORE PUSH1 0x20 ADD SWAP1 PUSH1 0x1 ADD SWAP1 PUSH1 0x20 DUP3 PUSH1 0x0 ADD DIV SWAP3 DUP4 ADD SWAP3 PUSH1 0x1 SUB DUP3 MUL SWAP2 POP DUP1 DUP5 GT PUSH2 0x7B6 JUMPI SWAP1 POP JUMPDEST POP POP POP POP POP DUP2 MSTORE PUSH1 0x20 ADD PUSH1 0x5 DUP3 ADD DUP1 SLOAD DUP1 PUSH1 0x20 MUL PUSH1 0x20 ADD PUSH1 0x40 MLOAD SWAP1 DUP2 ADD PUSH1 0x40 MSTORE DUP1 SWAP3 SWAP2 SWAP1 DUP2 DUP2 MSTORE PUSH1 0x20 ADD DUP3 DUP1 SLOAD DUP1 ISZERO PUSH2 0x869 JUMPI PUSH1 0x20 MUL DUP3 ADD SWAP2 SWAP1 PUSH1 0x0 MSTORE PUSH1 0x20 PUSH1 0x0 KECCAK256 SWAP1 PUSH1 0x0 SWAP1 JUMPDEST DUP3 DUP3 SWAP1 SLOAD SWAP1 PUSH2 0x100 EXP SWAP1 DIV PUSH1 0xFF AND ISZERO ISZERO DUP2 MSTORE PUSH1 0x20 ADD SWAP1 PUSH1 0x1 ADD SWAP1 PUSH1 0x20 DUP3 PUSH1 0x0 ADD DIV SWAP3 DUP4 ADD SWAP3 PUSH1 0x1 SUB DUP3 MUL SWAP2 POP DUP1 DUP5 GT PUSH2 0x833 JUMPI SWAP1 POP JUMPDEST POP POP POP POP POP DUP2 MSTORE POP POP SWAP1 POP PUSH1 0x0 PUSH1 0x40 MLOAD DUP1 PUSH1 0xC0 ADD PUSH1 0x40 MSTORE DUP1 DUP4 PUSH1 0x0 ADD MLOAD PUSH20 0xFFFFFFFFFFFFFFFFFFFFFFFFFFFFFFFFFFFFFFFF AND DUP2 MSTORE PUSH1 0x20 ADD DUP6 DUP6 SWAP1 POP DUP2 MSTORE PUSH1 0x20 ADD DUP6 DUP6 DUP1 DUP1 PUSH1 0x20 MUL PUSH1 0x20 ADD PUSH1 0x40 MLOAD SWAP1 DUP2 ADD PUSH1 0x40 MSTORE DUP1 SWAP4 SWAP3 SWAP2 SWAP1 DUP2 DUP2 MSTORE PUSH1 0x20 ADD DUP4 DUP4 PUSH1 0x20 MUL DUP1 DUP3 DUP5 CALLDATACOPY PUSH1 0x0 DUP2 DUP5 ADD MSTORE PUSH1 0x1F NOT PUSH1 0x1F DUP3 ADD AND SWAP1 POP DUP1 DUP4 ADD SWAP3 POP POP POP POP POP POP POP DUP2 MSTORE PUSH1 0x20 ADD DUP6 DUP6 SWAP1 POP PUSH8 0xFFFFFFFFFFFFFFFF DUP2 GT ISZERO PUSH2 0x90E JUMPI PUSH2 0x90D PUSH2 0x1F58 JUMP JUMPDEST JUMPDEST PUSH1 0x40 MLOAD SWAP1 DUP1 DUP3 MSTORE DUP1 PUSH1 0x20 MUL PUSH1 0x20 ADD DUP3 ADD PUSH1 0x40 MSTORE DUP1 ISZERO PUSH2 0x93C JUMPI DUP2 PUSH1 0x20 ADD PUSH1 0x20 DUP3 MUL DUP1 CALLDATASIZE DUP4 CALLDATACOPY DUP1 DUP3 ADD SWAP2 POP POP SWAP1 POP JUMPDEST POP DUP2 MSTORE PUSH1 0x20 ADD DUP6 DUP6 SWAP1 POP PUSH8 0xFFFFFFFFFFFFFFFF DUP2 GT ISZERO PUSH2 0x95F JUMPI PUSH2 0x95E PUSH2 0x1F58 JUMP JUMPDEST JUMPDEST PUSH1 0x40 MLOAD SWAP1 DUP1 DUP3 MSTORE DUP1 PUSH1 0x20 MUL PUSH1 0x20 ADD DUP3 ADD PUSH1 0x40 MSTORE DUP1 ISZERO PUSH2 0x98D JUMPI DUP2 PUSH1 0x20 ADD PUSH1 0x20 DUP3 MUL DUP1 CALLDATASIZE DUP4 CALLDATACOPY DUP1 DUP3 ADD SWAP2 POP POP SWAP1 POP JUMPDEST POP DUP2 MSTORE PUSH1 0x20 ADD DUP6 DUP6 SWAP1 POP PUSH8 0xFFFFFFFFFFFFFFFF DUP2 GT ISZERO PUSH2 0x9B0 JUMPI PUSH2 0x9AF PUSH2 0x1F58 JUMP JUMPDEST JUMPDEST PUSH1 0x40 MLOAD SWAP1 DUP1 DUP3 MSTORE DUP1 PUSH1 0x20 MUL PUSH1 0x20 ADD DUP3 ADD PUSH1 0x40 MSTORE DUP1 ISZERO PUSH2 0x9DE JUMPI DUP2 PUSH1 0x20 ADD PUSH1 0x20 DUP3 MUL DUP1 CALLDATASIZE DUP4 CALLDATACOPY DUP1 DUP3 ADD SWAP2 POP POP SWAP1 POP JUMPDEST POP DUP2 MSTORE POP SWAP1 POP PUSH1 0x0 JUMPDEST DUP3 PUSH1 0x60 ADD MLOAD MLOAD DUP2 LT ISZERO PUSH2 0xA49 JUMPI DUP3 PUSH1 0x60 ADD MLOAD DUP2 DUP2 MLOAD DUP2 LT PUSH2 0xA0B JUMPI PUSH2 0xA0A PUSH2 0x1F29 JUMP JUMPDEST JUMPDEST PUSH1 0x20 MUL PUSH1 0x20 ADD ADD MLOAD DUP3 PUSH1 0x60 ADD MLOAD DUP3 DUP2 MLOAD DUP2 LT PUSH2 0xA2A JUMPI PUSH2 0xA29 PUSH2 0x1F29 JUMP JUMPDEST JUMPDEST PUSH1 0x20 MUL PUSH1 0x20 ADD ADD DUP2 DUP2 MSTORE POP POP DUP1 DUP1 PUSH2 0xA41 SWAP1 PUSH2 0x1FB6 JUMP JUMPDEST SWAP2 POP POP PUSH2 0x9E7 JUMP JUMPDEST POP PUSH1 0x0 JUMPDEST DUP5 DUP5 SWAP1 POP DUP2 LT ISZERO PUSH2 0xD0E JUMPI PUSH32 0xFFFFFFFFFFFFFFFFFFFFFFFFFFFFFFFFFFFFFFFFFFFFFFFFFFFFFFFFFFFE7960 DUP6 DUP6 DUP4 DUP2 DUP2 LT PUSH2 0xA8C JUMPI PUSH2 0xA8B PUSH2 0x1F29 JUMP JUMPDEST JUMPDEST SWAP1 POP PUSH1 0x20 MUL ADD CALLDATALOAD SUB PUSH2 0xAFC JUMPI PUSH1 0x1 DUP3 PUSH1 0x60 ADD MLOAD DUP3 DUP2 MLOAD DUP2 LT PUSH2 0xAB1 JUMPI PUSH2 0xAB0 PUSH2 0x1F29 JUMP JUMPDEST JUMPDEST PUSH1 0x20 MUL PUSH1 0x20 ADD ADD DUP2 DUP2 MLOAD PUSH2 0xAC5 SWAP2 SWAP1 PUSH2 0x1FFE JUMP JUMPDEST SWAP2 POP DUP2 DUP2 MSTORE POP POP PUSH1 0x0 DUP3 PUSH1 0xA0 ADD MLOAD DUP3 DUP2 MLOAD DUP2 LT PUSH2 0xAE5 JUMPI PUSH2 0xAE4 PUSH2 0x1F29 JUMP JUMPDEST JUMPDEST PUSH1 0x20 MUL PUSH1 0x20 ADD ADD SWAP1 ISZERO ISZERO SWAP1 DUP2 ISZERO ISZERO DUP2 MSTORE POP POP PUSH2 0xB78 JUMP JUMPDEST PUSH1 0x0 DUP3 PUSH1 0x60 ADD MLOAD DUP3 DUP2 MLOAD DUP2 LT PUSH2 0xB15 JUMPI PUSH2 0xB14 PUSH2 0x1F29 JUMP JUMPDEST JUMPDEST PUSH1 0x20 MUL PUSH1 0x20 ADD ADD DUP2 DUP2 MSTORE POP POP PUSH1 0x1 DUP3 PUSH1 0xA0 ADD MLOAD DUP3 DUP2 MLOAD DUP2 LT PUSH2 0xB3A JUMPI PUSH2 0xB39 PUSH2 0x1F29 JUMP JUMPDEST JUMPDEST PUSH1 0x20 MUL PUSH1 0x20 ADD ADD SWAP1 ISZERO ISZERO SWAP1 DUP2 ISZERO ISZERO DUP2 MSTORE POP POP PUSH1 0x0 DUP3 PUSH1 0x80 ADD MLOAD DUP3 DUP2 MLOAD DUP2 LT PUSH2 0xB65 JUMPI PUSH2 0xB64 PUSH2 0x1F29 JUMP JUMPDEST JUMPDEST PUSH1 0x20 MUL PUSH1 0x20 ADD ADD SWAP1 ISZERO ISZERO SWAP1 DUP2 ISZERO ISZERO DUP2 MSTORE POP POP JUMPDEST PUSH1 0x4 SLOAD DUP3 PUSH1 0x60 ADD MLOAD DUP3 DUP2 MLOAD DUP2 LT PUSH2 0xB92 JUMPI PUSH2 0xB91 PUSH2 0x1F29 JUMP JUMPDEST JUMPDEST PUSH1 0x20 MUL PUSH1 0x20 ADD ADD MLOAD LT PUSH2 0xBCB JUMPI PUSH1 0x1 DUP3 PUSH1 0x80 ADD MLOAD DUP3 DUP2 MLOAD DUP2 LT PUSH2 0xBB8 JUMPI PUSH2 0xBB7 PUSH2 0x1F29 JUMP JUMPDEST JUMPDEST PUSH1 0x20 MUL PUSH1 0x20 ADD ADD SWAP1 ISZERO ISZERO SWAP1 DUP2 ISZERO ISZERO DUP2 MSTORE POP POP JUMPDEST PUSH1 0x0 PUSH1 0x7 PUSH1 0x0 CALLER PUSH20 0xFFFFFFFFFFFFFFFFFFFFFFFFFFFFFFFFFFFFFFFF AND PUSH20 0xFFFFFFFFFFFFFFFFFFFFFFFFFFFFFFFFFFFFFFFF AND DUP2 MSTORE PUSH1 0x20 ADD SWAP1 DUP2 MSTORE PUSH1 0x20 ADD PUSH1 0x0 KECCAK256 SLOAD SWAP1 POP DUP3 PUSH1 0x6 DUP3 DUP2 SLOAD DUP2 LT PUSH2 0xC24 JUMPI PUSH2 0xC23 PUSH2 0x1F29 JUMP JUMPDEST JUMPDEST SWAP1 PUSH1 0x0 MSTORE PUSH1 0x20 PUSH1 0x0 KECCAK256 SWAP1 PUSH1 0x6 MUL ADD PUSH1 0x0 DUP3 ADD MLOAD DUP2 PUSH1 0x0 ADD PUSH1 0x0 PUSH2 0x100 EXP DUP2 SLOAD DUP2 PUSH20 0xFFFFFFFFFFFFFFFFFFFFFFFFFFFFFFFFFFFFFFFF MUL NOT AND SWAP1 DUP4 PUSH20 0xFFFFFFFFFFFFFFFFFFFFFFFFFFFFFFFFFFFFFFFF AND MUL OR SWAP1 SSTORE POP PUSH1 0x20 DUP3 ADD MLOAD DUP2 PUSH1 0x1 ADD SSTORE PUSH1 0x40 DUP3 ADD MLOAD DUP2 PUSH1 0x2 ADD SWAP1 DUP1 MLOAD SWAP1 PUSH1 0x20 ADD SWAP1 PUSH2 0xC9F SWAP3 SWAP2 SWAP1 PUSH2 0x1978 JUMP JUMPDEST POP PUSH1 0x60 DUP3 ADD MLOAD DUP2 PUSH1 0x3 ADD SWAP1 DUP1 MLOAD SWAP1 PUSH1 0x20 ADD SWAP1 PUSH2 0xCBC SWAP3 SWAP2 SWAP1 PUSH2 0x19C5 JUMP JUMPDEST POP PUSH1 0x80 DUP3 ADD MLOAD DUP2 PUSH1 0x4 ADD SWAP1 DUP1 MLOAD SWAP1 PUSH1 0x20 ADD SWAP1 PUSH2 0xCD9 SWAP3 SWAP2 SWAP1 PUSH2 0x1A12 JUMP JUMPDEST POP PUSH1 0xA0 DUP3 ADD MLOAD DUP2 PUSH1 0x5 ADD SWAP1 DUP1 MLOAD SWAP1 PUSH1 0x20 ADD SWAP1 PUSH2 0xCF6 SWAP3 SWAP2 SWAP1 PUSH2 0x1A12 JUMP JUMPDEST POP SWAP1 POP POP POP DUP1 DUP1 PUSH2 0xD06 SWAP1 PUSH2 0x1FB6 JUMP JUMPDEST SWAP2 POP POP PUSH2 0xA4D JUMP JUMPDEST POP PUSH1 0x0 PUSH1 0x1 SWAP1 POP PUSH1 0x0 DUP1 PUSH1 0x2 DUP2 SWAP1 SSTORE POP PUSH1 0x0 JUMPDEST PUSH1 0x6 DUP1 SLOAD SWAP1 POP DUP2 LT ISZERO PUSH2 0xF4C JUMPI PUSH1 0x6 DUP2 DUP2 SLOAD DUP2 LT PUSH2 0xD42 JUMPI PUSH2 0xD41 PUSH2 0x1F29 JUMP JUMPDEST JUMPDEST SWAP1 PUSH1 0x0 MSTORE PUSH1 0x20 PUSH1 0x0 KECCAK256 SWAP1 PUSH1 0x6 MUL ADD PUSH1 0x1 ADD SLOAD PUSH1 0x2 PUSH1 0x0 DUP3 DUP3 SLOAD PUSH2 0xD65 SWAP2 SWAP1 PUSH2 0x1FFE JUMP JUMPDEST SWAP3 POP POP DUP2 SWAP1 SSTORE POP PUSH1 0x0 JUMPDEST PUSH1 0x6 DUP3 DUP2 SLOAD DUP2 LT PUSH2 0xD83 JUMPI PUSH2 0xD82 PUSH2 0x1F29 JUMP JUMPDEST JUMPDEST SWAP1 PUSH1 0x0 MSTORE PUSH1 0x20 PUSH1 0x0 KECCAK256 SWAP1 PUSH1 0x6 MUL ADD PUSH1 0x1 ADD SLOAD DUP2 LT ISZERO PUSH2 0xF2B JUMPI PUSH1 0x0 ISZERO ISZERO PUSH1 0x6 DUP4 DUP2 SLOAD DUP2 LT PUSH2 0xDB4 JUMPI PUSH2 0xDB3 PUSH2 0x1F29 JUMP JUMPDEST JUMPDEST SWAP1 PUSH1 0x0 MSTORE PUSH1 0x20 PUSH1 0x0 KECCAK256 SWAP1 PUSH1 0x6 MUL ADD PUSH1 0x5 ADD DUP3 DUP2 SLOAD DUP2 LT PUSH2 0xDD7 JUMPI PUSH2 0xDD6 PUSH2 0x1F29 JUMP JUMPDEST JUMPDEST SWAP1 PUSH1 0x0 MSTORE PUSH1 0x20 PUSH1 0x0 KECCAK256 SWAP1 PUSH1 0x20 SWAP2 DUP3 DUP3 DIV ADD SWAP2 SWAP1 MOD SWAP1 SLOAD SWAP1 PUSH2 0x100 EXP SWAP1 DIV PUSH1 0xFF AND ISZERO ISZERO EQ DUP1 ISZERO PUSH2 0xE60 JUMPI POP PUSH1 0x0 ISZERO ISZERO PUSH1 0x6 DUP4 DUP2 SLOAD DUP2 LT PUSH2 0xE19 JUMPI PUSH2 0xE18 PUSH2 0x1F29 JUMP JUMPDEST JUMPDEST SWAP1 PUSH1 0x0 MSTORE PUSH1 0x20 PUSH1 0x0 KECCAK256 SWAP1 PUSH1 0x6 MUL ADD PUSH1 0x4 ADD DUP3 DUP2 SLOAD DUP2 LT PUSH2 0xE3C JUMPI PUSH2 0xE3B PUSH2 0x1F29 JUMP JUMPDEST JUMPDEST SWAP1 PUSH1 0x0 MSTORE PUSH1 0x20 PUSH1 0x0 KECCAK256 SWAP1 PUSH1 0x20 SWAP2 DUP3 DUP3 DIV ADD SWAP2 SWAP1 MOD SWAP1 SLOAD SWAP1 PUSH2 0x100 EXP SWAP1 DIV PUSH1 0xFF AND ISZERO ISZERO EQ JUMPDEST ISZERO PUSH2 0xE6E JUMPI PUSH1 0x0 SWAP4 POP PUSH2 0xF18 JUMP JUMPDEST PUSH2 0x1F40 PUSH1 0x6 DUP4 DUP2 SLOAD DUP2 LT PUSH2 0xE85 JUMPI PUSH2 0xE84 PUSH2 0x1F29 JUMP JUMPDEST JUMPDEST SWAP1 PUSH1 0x0 MSTORE PUSH1 0x20 PUSH1 0x0 KECCAK256 SWAP1 PUSH1 0x6 MUL ADD PUSH1 0x2 ADD DUP3 DUP2 SLOAD DUP2 LT PUSH2 0xEA8 JUMPI PUSH2 0xEA7 PUSH2 0x1F29 JUMP JUMPDEST JUMPDEST SWAP1 PUSH1 0x0 MSTORE PUSH1 0x20 PUSH1 0x0 KECCAK256 ADD SLOAD SLT DUP1 ISZERO PUSH2 0xF02 JUMPI POP PUSH2 0xFA0 PUSH1 0x6 DUP4 DUP2 SLOAD DUP2 LT PUSH2 0xED2 JUMPI PUSH2 0xED1 PUSH2 0x1F29 JUMP JUMPDEST JUMPDEST SWAP1 PUSH1 0x0 MSTORE PUSH1 0x20 PUSH1 0x0 KECCAK256 SWAP1 PUSH1 0x6 MUL ADD PUSH1 0x2 ADD DUP3 DUP2 SLOAD DUP2 LT PUSH2 0xEF5 JUMPI PUSH2 0xEF4 PUSH2 0x1F29 JUMP JUMPDEST JUMPDEST SWAP1 PUSH1 0x0 MSTORE PUSH1 0x20 PUSH1 0x0 KECCAK256 ADD SLOAD SGT JUMPDEST ISZERO PUSH2 0xF17 JUMPI PUSH1 0x1 DUP4 PUSH2 0xF14 SWAP2 SWAP1 PUSH2 0x1FFE JUMP JUMPDEST SWAP3 POP JUMPDEST JUMPDEST DUP1 DUP1 PUSH2 0xF23 SWAP1 PUSH2 0x1FB6 JUMP JUMPDEST SWAP2 POP POP PUSH2 0xD6F JUMP JUMPDEST POP PUSH1 0x0 ISZERO ISZERO DUP4 ISZERO ISZERO SUB ISZERO PUSH2 0xF4C JUMPI DUP1 DUP1 PUSH2 0xF44 SWAP1 PUSH2 0x1FB6 JUMP JUMPDEST SWAP2 POP POP PUSH2 0xD21 JUMP JUMPDEST POP PUSH1 0x3 SLOAD PUSH1 0x2 SLOAD PUSH1 0x64 DUP4 PUSH2 0xF60 SWAP2 SWAP1 PUSH2 0x2054 JUMP JUMPDEST PUSH2 0xF6A SWAP2 SWAP1 PUSH2 0x20DD JUMP JUMPDEST LT ISZERO PUSH2 0xF75 JUMPI PUSH1 0x0 SWAP2 POP JUMPDEST DUP2 ISZERO PUSH2 0xF9B JUMPI PUSH1 0x1 PUSH1 0x5 PUSH1 0x0 PUSH2 0x100 EXP DUP2 SLOAD DUP2 PUSH1 0xFF MUL NOT AND SWAP1 DUP4 ISZERO ISZERO MUL OR SWAP1 SSTORE POP PUSH2 0xFB7 JUMP JUMPDEST PUSH1 0x0 PUSH1 0x5 PUSH1 0x0 PUSH2 0x100 EXP DUP2 SLOAD DUP2 PUSH1 0xFF MUL NOT AND SWAP1 DUP4 ISZERO ISZERO MUL OR SWAP1 SSTORE POP JUMPDEST POP POP POP POP POP POP JUMP JUMPDEST PUSH2 0xFCC PUSH1 0x0 DUP1 SHL CALLER PUSH2 0x1002 JUMP JUMPDEST PUSH2 0xFD5 JUMPI PUSH1 0x0 DUP1 REVERT JUMPDEST PUSH2 0xFFF PUSH32 0xA9CDAF89344A3579F43CC1ECCBBE69EE73528D7C39B7F8AD0A660286F0C544AD DUP3 PUSH2 0x51B JUMP JUMPDEST POP JUMP JUMPDEST PUSH1 0x0 DUP1 PUSH1 0x0 DUP5 DUP2 MSTORE PUSH1 0x20 ADD SWAP1 DUP2 MSTORE PUSH1 0x20 ADD PUSH1 0x0 KECCAK256 PUSH1 0x0 ADD PUSH1 0x0 DUP4 PUSH20 0xFFFFFFFFFFFFFFFFFFFFFFFFFFFFFFFFFFFFFFFF AND PUSH20 0xFFFFFFFFFFFFFFFFFFFFFFFFFFFFFFFFFFFFFFFF AND DUP2 MSTORE PUSH1 0x20 ADD SWAP1 DUP2 MSTORE PUSH1 0x20 ADD PUSH1 0x0 KECCAK256 PUSH1 0x0 SWAP1 SLOAD SWAP1 PUSH2 0x100 EXP SWAP1 DIV PUSH1 0xFF AND SWAP1 POP SWAP3 SWAP2 POP POP JUMP JUMPDEST PUSH1 0x1 SLOAD DUP2 JUMP JUMPDEST PUSH2 0x109C PUSH32 0xA9CDAF89344A3579F43CC1ECCBBE69EE73528D7C39B7F8AD0A660286F0C544AD CALLER PUSH2 0x1002 JUMP JUMPDEST PUSH2 0x10A5 JUMPI PUSH1 0x0 DUP1 REVERT JUMPDEST PUSH2 0x10CF PUSH32 0x86A7396BBEB0581A4F317FFB5B19566E9ECAD105EE98E26D73CEC5F34249022 CALLER PUSH2 0x51B JUMP JUMPDEST PUSH1 0x1 DUP1 PUSH1 0x0 DUP3 DUP3 SLOAD PUSH2 0x10E1 SWAP2 SWAP1 PUSH2 0x1FFE JUMP JUMPDEST SWAP3 POP POP DUP2 SWAP1 SSTORE POP PUSH1 0x0 PUSH1 0x40 MLOAD DUP1 PUSH1 0xC0 ADD PUSH1 0x40 MSTORE DUP1 DUP4 PUSH20 0xFFFFFFFFFFFFFFFFFFFFFFFFFFFFFFFFFFFFFFFF AND DUP2 MSTORE PUSH1 0x20 ADD PUSH1 0x0 DUP2 MSTORE PUSH1 0x20 ADD PUSH1 0x0 PUSH8 0xFFFFFFFFFFFFFFFF DUP2 GT ISZERO PUSH2 0x1133 JUMPI PUSH2 0x1132 PUSH2 0x1F58 JUMP JUMPDEST JUMPDEST PUSH1 0x40 MLOAD SWAP1 DUP1 DUP3 MSTORE DUP1 PUSH1 0x20 MUL PUSH1 0x20 ADD DUP3 ADD PUSH1 0x40 MSTORE DUP1 ISZERO PUSH2 0x1161 JUMPI DUP2 PUSH1 0x20 ADD PUSH1 0x20 DUP3 MUL DUP1 CALLDATASIZE DUP4 CALLDATACOPY DUP1 DUP3 ADD SWAP2 POP POP SWAP1 POP JUMPDEST POP DUP2 MSTORE PUSH1 0x20 ADD PUSH1 0x0 PUSH8 0xFFFFFFFFFFFFFFFF DUP2 GT ISZERO PUSH2 0x1182 JUMPI PUSH2 0x1181 PUSH2 0x1F58 JUMP JUMPDEST JUMPDEST PUSH1 0x40 MLOAD SWAP1 DUP1 DUP3 MSTORE DUP1 PUSH1 0x20 MUL PUSH1 0x20 ADD DUP3 ADD PUSH1 0x40 MSTORE DUP1 ISZERO PUSH2 0x11B0 JUMPI DUP2 PUSH1 0x20 ADD PUSH1 0x20 DUP3 MUL DUP1 CALLDATASIZE DUP4 CALLDATACOPY DUP1 DUP3 ADD SWAP2 POP POP SWAP1 POP JUMPDEST POP DUP2 MSTORE PUSH1 0x20 ADD PUSH1 0x0 PUSH8 0xFFFFFFFFFFFFFFFF DUP2 GT ISZERO PUSH2 0x11D1 JUMPI PUSH2 0x11D0 PUSH2 0x1F58 JUMP JUMPDEST JUMPDEST PUSH1 0x40 MLOAD SWAP1 DUP1 DUP3 MSTORE DUP1 PUSH1 0x20 MUL PUSH1 0x20 ADD DUP3 ADD PUSH1 0x40 MSTORE DUP1 ISZERO PUSH2 0x11FF JUMPI DUP2 PUSH1 0x20 ADD PUSH1 0x20 DUP3 MUL DUP1 CALLDATASIZE DUP4 CALLDATACOPY DUP1 DUP3 ADD SWAP2 POP POP SWAP1 POP JUMPDEST POP DUP2 MSTORE PUSH1 0x20 ADD PUSH1 0x0 PUSH8 0xFFFFFFFFFFFFFFFF DUP2 GT ISZERO PUSH2 0x1220 JUMPI PUSH2 0x121F PUSH2 0x1F58 JUMP JUMPDEST JUMPDEST PUSH1 0x40 MLOAD SWAP1 DUP1 DUP3 MSTORE DUP1 PUSH1 0x20 MUL PUSH1 0x20 ADD DUP3 ADD PUSH1 0x40 MSTORE DUP1 ISZERO PUSH2 0x124E JUMPI DUP2 PUSH1 0x20 ADD PUSH1 0x20 DUP3 MUL DUP1 CALLDATASIZE DUP4 CALLDATACOPY DUP1 DUP3 ADD SWAP2 POP POP SWAP1 POP JUMPDEST POP DUP2 MSTORE POP SWAP1 POP PUSH1 0x6 DUP2 SWAP1 DUP1 PUSH1 0x1 DUP2 SLOAD ADD DUP1 DUP3 SSTORE DUP1 SWAP2 POP POP PUSH1 0x1 SWAP1 SUB SWAP1 PUSH1 0x0 MSTORE PUSH1 0x20 PUSH1 0x0 KECCAK256 SWAP1 PUSH1 0x6 MUL ADD PUSH1 0x0 SWAP1 SWAP2 SWAP1 SWAP2 SWAP1 SWAP2 POP PUSH1 0x0 DUP3 ADD MLOAD DUP2 PUSH1 0x0 ADD PUSH1 0x0 PUSH2 0x100 EXP DUP2 SLOAD DUP2 PUSH20 0xFFFFFFFFFFFFFFFFFFFFFFFFFFFFFFFFFFFFFFFF MUL NOT AND SWAP1 DUP4 PUSH20 0xFFFFFFFFFFFFFFFFFFFFFFFFFFFFFFFFFFFFFFFF AND MUL OR SWAP1 SSTORE POP PUSH1 0x20 DUP3 ADD MLOAD DUP2 PUSH1 0x1 ADD SSTORE PUSH1 0x40 DUP3 ADD MLOAD DUP2 PUSH1 0x2 ADD SWAP1 DUP1 MLOAD SWAP1 PUSH1 0x20 ADD SWAP1 PUSH2 0x12ED SWAP3 SWAP2 SWAP1 PUSH2 0x1978 JUMP JUMPDEST POP PUSH1 0x60 DUP3 ADD MLOAD DUP2 PUSH1 0x3 ADD SWAP1 DUP1 MLOAD SWAP1 PUSH1 0x20 ADD SWAP1 PUSH2 0x130A SWAP3 SWAP2 SWAP1 PUSH2 0x19C5 JUMP JUMPDEST POP PUSH1 0x80 DUP3 ADD MLOAD DUP2 PUSH1 0x4 ADD SWAP1 DUP1 MLOAD SWAP1 PUSH1 0x20 ADD SWAP1 PUSH2 0x1327 SWAP3 SWAP2 SWAP1 PUSH2 0x1A12 JUMP JUMPDEST POP PUSH1 0xA0 DUP3 ADD MLOAD DUP2 PUSH1 0x5 ADD SWAP1 DUP1 MLOAD SWAP1 PUSH1 0x20 ADD SWAP1 PUSH2 0x1344 SWAP3 SWAP2 SWAP1 PUSH2 0x1A12 JUMP JUMPDEST POP POP POP POP POP JUMP JUMPDEST PUSH1 0x0 DUP1 SHL DUP2 JUMP JUMPDEST PUSH2 0x137C PUSH32 0xA9CDAF89344A3579F43CC1ECCBBE69EE73528D7C39B7F8AD0A660286F0C544AD CALLER PUSH2 0x1002 JUMP JUMPDEST PUSH2 0x1385 JUMPI PUSH1 0x0 DUP1 REVERT JUMPDEST PUSH2 0x13AF PUSH32 0x86A7396BBEB0581A4F317FFB5B19566E9ECAD105EE98E26D73CEC5F34249022 DUP3 PUSH2 0x1413 JUMP JUMPDEST POP JUMP JUMPDEST PUSH32 0x86A7396BBEB0581A4F317FFB5B19566E9ECAD105EE98E26D73CEC5F34249022 DUP2 JUMP JUMPDEST PUSH1 0x4 SLOAD DUP2 JUMP JUMPDEST PUSH32 0xA9CDAF89344A3579F43CC1ECCBBE69EE73528D7C39B7F8AD0A660286F0C544AD DUP2 JUMP JUMPDEST PUSH1 0x5 PUSH1 0x0 SWAP1 SLOAD SWAP1 PUSH2 0x100 EXP SWAP1 DIV PUSH1 0xFF AND DUP2 JUMP JUMPDEST PUSH2 0x141C DUP3 PUSH2 0x4FC JUMP JUMPDEST PUSH2 0x142D DUP2 PUSH2 0x1428 PUSH2 0x14D6 JUMP JUMPDEST PUSH2 0x14DE JUMP JUMPDEST PUSH2 0x1437 DUP4 DUP4 PUSH2 0x165B JUMP JUMPDEST POP POP POP JUMP JUMPDEST PUSH1 0x3 SLOAD DUP2 JUMP JUMPDEST PUSH1 0x2 SLOAD DUP2 JUMP JUMPDEST PUSH32 0x3B5D4CC60D3EC3516EE8AE083BD60934F6EB2A6C54B1229985C41BFB092B2603 DUP2 JUMP JUMPDEST PUSH1 0x0 PUSH32 0x1FFC9A700000000000000000000000000000000000000000000000000000000 PUSH28 0xFFFFFFFFFFFFFFFFFFFFFFFFFFFFFFFFFFFFFFFFFFFFFFFFFFFFFFFF NOT AND DUP3 PUSH28 0xFFFFFFFFFFFFFFFFFFFFFFFFFFFFFFFFFFFFFFFFFFFFFFFFFFFFFFFF NOT AND EQ SWAP1 POP SWAP2 SWAP1 POP JUMP JUMPDEST PUSH1 0x0 CALLER SWAP1 POP SWAP1 JUMP JUMPDEST PUSH2 0x14E8 DUP3 DUP3 PUSH2 0x1002 JUMP JUMPDEST PUSH2 0x1577 JUMPI PUSH2 0x150D DUP2 PUSH20 0xFFFFFFFFFFFFFFFFFFFFFFFFFFFFFFFFFFFFFFFF AND PUSH1 0x14 PUSH2 0x173C JUMP JUMPDEST PUSH2 0x151B DUP4 PUSH1 0x0 SHR PUSH1 0x20 PUSH2 0x173C JUMP JUMPDEST PUSH1 0x40 MLOAD PUSH1 0x20 ADD PUSH2 0x152C SWAP3 SWAP2 SWAP1 PUSH2 0x2220 JUMP JUMPDEST PUSH1 0x40 MLOAD PUSH1 0x20 DUP2 DUP4 SUB SUB DUP2 MSTORE SWAP1 PUSH1 0x40 MSTORE PUSH1 0x40 MLOAD PUSH32 0x8C379A000000000000000000000000000000000000000000000000000000000 DUP2 MSTORE PUSH1 0x4 ADD PUSH2 0x156E SWAP2 SWAP1 PUSH2 0x22A4 JUMP JUMPDEST PUSH1 0x40 MLOAD DUP1 SWAP2 SUB SWAP1 REVERT JUMPDEST POP POP JUMP JUMPDEST PUSH2 0x1585 DUP3 DUP3 PUSH2 0x1002 JUMP JUMPDEST PUSH2 0x1657 JUMPI PUSH1 0x1 PUSH1 0x0 DUP1 DUP5 DUP2 MSTORE PUSH1 0x20 ADD SWAP1 DUP2 MSTORE PUSH1 0x20 ADD PUSH1 0x0 KECCAK256 PUSH1 0x0 ADD PUSH1 0x0 DUP4 PUSH20 0xFFFFFFFFFFFFFFFFFFFFFFFFFFFFFFFFFFFFFFFF AND PUSH20 0xFFFFFFFFFFFFFFFFFFFFFFFFFFFFFFFFFFFFFFFF AND DUP2 MSTORE PUSH1 0x20 ADD SWAP1 DUP2 MSTORE PUSH1 0x20 ADD PUSH1 0x0 KECCAK256 PUSH1 0x0 PUSH2 0x100 EXP DUP2 SLOAD DUP2 PUSH1 0xFF MUL NOT AND SWAP1 DUP4 ISZERO ISZERO MUL OR SWAP1 SSTORE POP PUSH2 0x15FC PUSH2 0x14D6 JUMP JUMPDEST PUSH20 0xFFFFFFFFFFFFFFFFFFFFFFFFFFFFFFFFFFFFFFFF AND DUP2 PUSH20 0xFFFFFFFFFFFFFFFFFFFFFFFFFFFFFFFFFFFFFFFF AND DUP4 PUSH32 0x2F8788117E7EFF1D82E926EC794901D17C78024A50270940304540A733656F0D PUSH1 0x40 MLOAD PUSH1 0x40 MLOAD DUP1 SWAP2 SUB SWAP1 LOG4 JUMPDEST POP POP JUMP JUMPDEST PUSH2 0x1665 DUP3 DUP3 PUSH2 0x1002 JUMP JUMPDEST ISZERO PUSH2 0x1738 JUMPI PUSH1 0x0 DUP1 PUSH1 0x0 DUP5 DUP2 MSTORE PUSH1 0x20 ADD SWAP1 DUP2 MSTORE PUSH1 0x20 ADD PUSH1 0x0 KECCAK256 PUSH1 0x0 ADD PUSH1 0x0 DUP4 PUSH20 0xFFFFFFFFFFFFFFFFFFFFFFFFFFFFFFFFFFFFFFFF AND PUSH20 0xFFFFFFFFFFFFFFFFFFFFFFFFFFFFFFFFFFFFFFFF AND DUP2 MSTORE PUSH1 0x20 ADD SWAP1 DUP2 MSTORE PUSH1 0x20 ADD PUSH1 0x0 KECCAK256 PUSH1 0x0 PUSH2 0x100 EXP DUP2 SLOAD DUP2 PUSH1 0xFF MUL NOT AND SWAP1 DUP4 ISZERO ISZERO MUL OR SWAP1 SSTORE POP PUSH2 0x16DD PUSH2 0x14D6 JUMP JUMPDEST PUSH20 0xFFFFFFFFFFFFFFFFFFFFFFFFFFFFFFFFFFFFFFFF AND DUP2 PUSH20 0xFFFFFFFFFFFFFFFFFFFFFFFFFFFFFFFFFFFFFFFF AND DUP4 PUSH32 0xF6391F5C32D9C69D2A47EA670B442974B53935D1EDC7FD64EB21E047A839171B PUSH1 0x40 MLOAD PUSH1 0x40 MLOAD DUP1 SWAP2 SUB SWAP1 LOG4 JUMPDEST POP POP JUMP JUMPDEST PUSH1 0x60 PUSH1 0x0 PUSH1 0x2 DUP4 PUSH1 0x2 PUSH2 0x174F SWAP2 SWAP1 PUSH2 0x2054 JUMP JUMPDEST PUSH2 0x1759 SWAP2 SWAP1 PUSH2 0x1FFE JUMP JUMPDEST PUSH8 0xFFFFFFFFFFFFFFFF DUP2 GT ISZERO PUSH2 0x1772 JUMPI PUSH2 0x1771 PUSH2 0x1F58 JUMP JUMPDEST JUMPDEST PUSH1 0x40 MLOAD SWAP1 DUP1 DUP3 MSTORE DUP1 PUSH1 0x1F ADD PUSH1 0x1F NOT AND PUSH1 0x20 ADD DUP3 ADD PUSH1 0x40 MSTORE DUP1 ISZERO PUSH2 0x17A4 JUMPI DUP2 PUSH1 0x20 ADD PUSH1 0x1 DUP3 MUL DUP1 CALLDATASIZE DUP4 CALLDATACOPY DUP1 DUP3 ADD SWAP2 POP POP SWAP1 POP JUMPDEST POP SWAP1 POP PUSH32 0x3000000000000000000000000000000000000000000000000000000000000000 DUP2 PUSH1 0x0 DUP2 MLOAD DUP2 LT PUSH2 0x17DC JUMPI PUSH2 0x17DB PUSH2 0x1F29 JUMP JUMPDEST JUMPDEST PUSH1 0x20 ADD ADD SWAP1 PUSH31 0xFFFFFFFFFFFFFFFFFFFFFFFFFFFFFFFFFFFFFFFFFFFFFFFFFFFFFFFFFFFFFF NOT AND SWAP1 DUP2 PUSH1 0x0 BYTE SWAP1 MSTORE8 POP PUSH32 0x7800000000000000000000000000000000000000000000000000000000000000 DUP2 PUSH1 0x1 DUP2 MLOAD DUP2 LT PUSH2 0x1840 JUMPI PUSH2 0x183F PUSH2 0x1F29 JUMP JUMPDEST JUMPDEST PUSH1 0x20 ADD ADD SWAP1 PUSH31 0xFFFFFFFFFFFFFFFFFFFFFFFFFFFFFFFFFFFFFFFFFFFFFFFFFFFFFFFFFFFFFF NOT AND SWAP1 DUP2 PUSH1 0x0 BYTE SWAP1 MSTORE8 POP PUSH1 0x0 PUSH1 0x1 DUP5 PUSH1 0x2 PUSH2 0x1880 SWAP2 SWAP1 PUSH2 0x2054 JUMP JUMPDEST PUSH2 0x188A SWAP2 SWAP1 PUSH2 0x1FFE JUMP JUMPDEST SWAP1 POP JUMPDEST PUSH1 0x1 DUP2 GT ISZERO PUSH2 0x192A JUMPI PUSH32 0x3031323334353637383961626364656600000000000000000000000000000000 PUSH1 0xF DUP7 AND PUSH1 0x10 DUP2 LT PUSH2 0x18CC JUMPI PUSH2 0x18CB PUSH2 0x1F29 JUMP JUMPDEST JUMPDEST BYTE PUSH1 0xF8 SHL DUP3 DUP3 DUP2 MLOAD DUP2 LT PUSH2 0x18E3 JUMPI PUSH2 0x18E2 PUSH2 0x1F29 JUMP JUMPDEST JUMPDEST PUSH1 0x20 ADD ADD SWAP1 PUSH31 0xFFFFFFFFFFFFFFFFFFFFFFFFFFFFFFFFFFFFFFFFFFFFFFFFFFFFFFFFFFFFFF NOT AND SWAP1 DUP2 PUSH1 0x0 BYTE SWAP1 MSTORE8 POP PUSH1 0x4 DUP6 SWAP1 SHR SWAP5 POP DUP1 PUSH2 0x1923 SWAP1 PUSH2 0x22C6 JUMP JUMPDEST SWAP1 POP PUSH2 0x188D JUMP JUMPDEST POP PUSH1 0x0 DUP5 EQ PUSH2 0x196E JUMPI PUSH1 0x40 MLOAD PUSH32 0x8C379A000000000000000000000000000000000000000000000000000000000 DUP2 MSTORE PUSH1 0x4 ADD PUSH2 0x1965 SWAP1 PUSH2 0x233B JUMP JUMPDEST PUSH1 0x40 MLOAD DUP1 SWAP2 SUB SWAP1 REVERT JUMPDEST DUP1 SWAP2 POP POP SWAP3 SWAP2 POP POP JUMP JUMPDEST DUP3 DUP1 SLOAD DUP3 DUP3 SSTORE SWAP1 PUSH1 0x0 MSTORE PUSH1 0x20 PUSH1 0x0 KECCAK256 SWAP1 DUP2 ADD SWAP3 DUP3 ISZERO PUSH2 0x19B4 JUMPI SWAP2 PUSH1 0x20 MUL DUP3 ADD JUMPDEST DUP3 DUP2 GT ISZERO PUSH2 0x19B3 JUMPI DUP3 MLOAD DUP3 SSTORE SWAP2 PUSH1 0x20 ADD SWAP2 SWAP1 PUSH1 0x1 ADD SWAP1 PUSH2 0x1998 JUMP JUMPDEST JUMPDEST POP SWAP1 POP PUSH2 0x19C1 SWAP2 SWAP1 PUSH2 0x1AB8 JUMP JUMPDEST POP SWAP1 JUMP JUMPDEST DUP3 DUP1 SLOAD DUP3 DUP3 SSTORE SWAP1 PUSH1 0x0 MSTORE PUSH1 0x20 PUSH1 0x0 KECCAK256 SWAP1 DUP2 ADD SWAP3 DUP3 ISZERO PUSH2 0x1A01 JUMPI SWAP2 PUSH1 0x20 MUL DUP3 ADD JUMPDEST DUP3 DUP2 GT ISZERO PUSH2 0x1A00 JUMPI DUP3 MLOAD DUP3 SSTORE SWAP2 PUSH1 0x20 ADD SWAP2 SWAP1 PUSH1 0x1 ADD SWAP1 PUSH2 0x19E5 JUMP JUMPDEST JUMPDEST POP SWAP1 POP PUSH2 0x1A0E SWAP2 SWAP1 PUSH2 0x1AD5 JUMP JUMPDEST POP SWAP1 JUMP JUMPDEST DUP3 DUP1 SLOAD DUP3 DUP3 SSTORE SWAP1 PUSH1 0x0 MSTORE PUSH1 0x20 PUSH1 0x0 KECCAK256 SWAP1 PUSH1 0x1F ADD PUSH1 0x20 SWAP1 DIV DUP2 ADD SWAP3 DUP3 ISZERO PUSH2 0x1AA7 JUMPI SWAP2 PUSH1 0x20 MUL DUP3 ADD PUSH1 0x0 JUMPDEST DUP4 DUP3 GT ISZERO PUSH2 0x1A78 JUMPI DUP4 MLOAD DUP4 DUP3 PUSH2 0x100 EXP DUP2 SLOAD DUP2 PUSH1 0xFF MUL NOT AND SWAP1 DUP4 ISZERO ISZERO MUL OR SWAP1 SSTORE POP SWAP3 PUSH1 0x20 ADD SWAP3 PUSH1 0x1 ADD PUSH1 0x20 DUP2 PUSH1 0x0 ADD DIV SWAP3 DUP4 ADD SWAP3 PUSH1 0x1 SUB MUL PUSH2 0x1A3B JUMP JUMPDEST DUP1 ISZERO PUSH2 0x1AA5 JUMPI DUP3 DUP2 PUSH2 0x100 EXP DUP2 SLOAD SWAP1 PUSH1 0xFF MUL NOT AND SWAP1 SSTORE PUSH1 0x1 ADD PUSH1 0x20 DUP2 PUSH1 0x0 ADD DIV SWAP3 DUP4 ADD SWAP3 PUSH1 0x1 SUB MUL PUSH2 0x1A78 JUMP JUMPDEST POP JUMPDEST POP SWAP1 POP PUSH2 0x1AB4 SWAP2 SWAP1 PUSH2 0x1AD5 JUMP JUMPDEST POP SWAP1 JUMP JUMPDEST JUMPDEST DUP1 DUP3 GT ISZERO PUSH2 0x1AD1 JUMPI PUSH1 0x0 DUP2 PUSH1 0x0 SWAP1 SSTORE POP PUSH1 0x1 ADD PUSH2 0x1AB9 JUMP JUMPDEST POP SWAP1 JUMP JUMPDEST JUMPDEST DUP1 DUP3 GT ISZERO PUSH2 0x1AEE JUMPI PUSH1 0x0 DUP2 PUSH1 0x0 SWAP1 SSTORE POP PUSH1 0x1 ADD PUSH2 0x1AD6 JUMP JUMPDEST POP SWAP1 JUMP JUMPDEST PUSH1 0x0 DUP1 REVERT JUMPDEST PUSH1 0x0 DUP1 REVERT JUMPDEST PUSH1 0x0 PUSH32 0xFFFFFFFF00000000000000000000000000000000000000000000000000000000 DUP3 AND SWAP1 POP SWAP2 SWAP1 POP JUMP JUMPDEST PUSH2 0x1B31 DUP2 PUSH2 0x1AFC JUMP JUMPDEST DUP2 EQ PUSH2 0x1B3C JUMPI PUSH1 0x0 DUP1 REVERT JUMPDEST POP JUMP JUMPDEST PUSH1 0x0 DUP2 CALLDATALOAD SWAP1 POP PUSH2 0x1B4E DUP2 PUSH2 0x1B28 JUMP JUMPDEST SWAP3 SWAP2 POP POP JUMP JUMPDEST PUSH1 0x0 PUSH1 0x20 DUP3 DUP5 SUB SLT ISZERO PUSH2 0x1B6A JUMPI PUSH2 0x1B69 PUSH2 0x1AF2 JUMP JUMPDEST JUMPDEST PUSH1 0x0 PUSH2 0x1B78 DUP5 DUP3 DUP6 ADD PUSH2 0x1B3F JUMP JUMPDEST SWAP2 POP POP SWAP3 SWAP2 POP POP JUMP JUMPDEST PUSH1 0x0 DUP2 ISZERO ISZERO SWAP1 POP SWAP2 SWAP1 POP JUMP JUMPDEST PUSH2 0x1B96 DUP2 PUSH2 0x1B81 JUMP JUMPDEST DUP3 MSTORE POP POP JUMP JUMPDEST PUSH1 0x0 PUSH1 0x20 DUP3 ADD SWAP1 POP PUSH2 0x1BB1 PUSH1 0x0 DUP4 ADD DUP5 PUSH2 0x1B8D JUMP JUMPDEST SWAP3 SWAP2 POP POP JUMP JUMPDEST PUSH1 0x0 PUSH20 0xFFFFFFFFFFFFFFFFFFFFFFFFFFFFFFFFFFFFFFFF DUP3 AND SWAP1 POP SWAP2 SWAP1 POP JUMP JUMPDEST PUSH1 0x0 PUSH2 0x1BE2 DUP3 PUSH2 0x1BB7 JUMP JUMPDEST SWAP1 POP SWAP2 SWAP1 POP JUMP JUMPDEST PUSH2 0x1BF2 DUP2 PUSH2 0x1BD7 JUMP JUMPDEST DUP2 EQ PUSH2 0x1BFD JUMPI PUSH1 0x0 DUP1 REVERT JUMPDEST POP JUMP JUMPDEST PUSH1 0x0 DUP2 CALLDATALOAD SWAP1 POP PUSH2 0x1C0F DUP2 PUSH2 0x1BE9 JUMP JUMPDEST SWAP3 SWAP2 POP POP JUMP JUMPDEST PUSH1 0x0 PUSH1 0x20 DUP3 DUP5 SUB SLT ISZERO PUSH2 0x1C2B JUMPI PUSH2 0x1C2A PUSH2 0x1AF2 JUMP JUMPDEST JUMPDEST PUSH1 0x0 PUSH2 0x1C39 DUP5 DUP3 DUP6 ADD PUSH2 0x1C00 JUMP JUMPDEST SWAP2 POP POP SWAP3 SWAP2 POP POP JUMP JUMPDEST PUSH1 0x0 DUP2 SWAP1 POP SWAP2 SWAP1 POP JUMP JUMPDEST PUSH2 0x1C55 DUP2 PUSH2 0x1C42 JUMP JUMPDEST DUP2 EQ PUSH2 0x1C60 JUMPI PUSH1 0x0 DUP1 REVERT JUMPDEST POP JUMP JUMPDEST PUSH1 0x0 DUP2 CALLDATALOAD SWAP1 POP PUSH2 0x1C72 DUP2 PUSH2 0x1C4C JUMP JUMPDEST SWAP3 SWAP2 POP POP JUMP JUMPDEST PUSH1 0x0 PUSH1 0x20 DUP3 DUP5 SUB SLT ISZERO PUSH2 0x1C8E JUMPI PUSH2 0x1C8D PUSH2 0x1AF2 JUMP JUMPDEST JUMPDEST PUSH1 0x0 PUSH2 0x1C9C DUP5 DUP3 DUP6 ADD PUSH2 0x1C63 JUMP JUMPDEST SWAP2 POP POP SWAP3 SWAP2 POP POP JUMP JUMPDEST PUSH2 0x1CAE DUP2 PUSH2 0x1BD7 JUMP JUMPDEST DUP3 MSTORE POP POP JUMP JUMPDEST PUSH2 0x1CBD DUP2 PUSH2 0x1C42 JUMP JUMPDEST DUP3 MSTORE POP POP JUMP JUMPDEST PUSH1 0x0 PUSH1 0x40 DUP3 ADD SWAP1 POP PUSH2 0x1CD8 PUSH1 0x0 DUP4 ADD DUP6 PUSH2 0x1CA5 JUMP JUMPDEST PUSH2 0x1CE5 PUSH1 0x20 DUP4 ADD DUP5 PUSH2 0x1CB4 JUMP JUMPDEST SWAP4 SWAP3 POP POP POP JUMP JUMPDEST PUSH1 0x0 DUP2 SWAP1 POP SWAP2 SWAP1 POP JUMP JUMPDEST PUSH2 0x1CFF DUP2 PUSH2 0x1CEC JUMP JUMPDEST DUP2 EQ PUSH2 0x1D0A JUMPI PUSH1 0x0 DUP1 REVERT JUMPDEST POP JUMP JUMPDEST PUSH1 0x0 DUP2 CALLDATALOAD SWAP1 POP PUSH2 0x1D1C DUP2 PUSH2 0x1CF6 JUMP JUMPDEST SWAP3 SWAP2 POP POP JUMP JUMPDEST PUSH1 0x0 PUSH1 0x20 DUP3 DUP5 SUB SLT ISZERO PUSH2 0x1D38 JUMPI PUSH2 0x1D37 PUSH2 0x1AF2 JUMP JUMPDEST JUMPDEST PUSH1 0x0 PUSH2 0x1D46 DUP5 DUP3 DUP6 ADD PUSH2 0x1D0D JUMP JUMPDEST SWAP2 POP POP SWAP3 SWAP2 POP POP JUMP JUMPDEST PUSH2 0x1D58 DUP2 PUSH2 0x1CEC JUMP JUMPDEST DUP3 MSTORE POP POP JUMP JUMPDEST PUSH1 0x0 PUSH1 0x20 DUP3 ADD SWAP1 POP PUSH2 0x1D73 PUSH1 0x0 DUP4 ADD DUP5 PUSH2 0x1D4F JUMP JUMPDEST SWAP3 SWAP2 POP POP JUMP JUMPDEST PUSH1 0x0 DUP1 PUSH1 0x40 DUP4 DUP6 SUB SLT ISZERO PUSH2 0x1D90 JUMPI PUSH2 0x1D8F PUSH2 0x1AF2 JUMP JUMPDEST JUMPDEST PUSH1 0x0 PUSH2 0x1D9E DUP6 DUP3 DUP7 ADD PUSH2 0x1D0D JUMP JUMPDEST SWAP3 POP POP PUSH1 0x20 PUSH2 0x1DAF DUP6 DUP3 DUP7 ADD PUSH2 0x1C00 JUMP JUMPDEST SWAP2 POP POP SWAP3 POP SWAP3 SWAP1 POP JUMP JUMPDEST PUSH1 0x0 DUP1 REVERT JUMPDEST PUSH1 0x0 DUP1 REVERT JUMPDEST PUSH1 0x0 DUP1 REVERT JUMPDEST PUSH1 0x0 DUP1 DUP4 PUSH1 0x1F DUP5 ADD SLT PUSH2 0x1DDE JUMPI PUSH2 0x1DDD PUSH2 0x1DB9 JUMP JUMPDEST JUMPDEST DUP3 CALLDATALOAD SWAP1 POP PUSH8 0xFFFFFFFFFFFFFFFF DUP2 GT ISZERO PUSH2 0x1DFB JUMPI PUSH2 0x1DFA PUSH2 0x1DBE JUMP JUMPDEST JUMPDEST PUSH1 0x20 DUP4 ADD SWAP2 POP DUP4 PUSH1 0x20 DUP3 MUL DUP4 ADD GT ISZERO PUSH2 0x1E17 JUMPI PUSH2 0x1E16 PUSH2 0x1DC3 JUMP JUMPDEST JUMPDEST SWAP3 POP SWAP3 SWAP1 POP JUMP JUMPDEST PUSH1 0x0 DUP1 PUSH1 0x20 DUP4 DUP6 SUB SLT ISZERO PUSH2 0x1E35 JUMPI PUSH2 0x1E34 PUSH2 0x1AF2 JUMP JUMPDEST JUMPDEST PUSH1 0x0 DUP4 ADD CALLDATALOAD PUSH8 0xFFFFFFFFFFFFFFFF DUP2 GT ISZERO PUSH2 0x1E53 JUMPI PUSH2 0x1E52 PUSH2 0x1AF7 JUMP JUMPDEST JUMPDEST PUSH2 0x1E5F DUP6 DUP3 DUP7 ADD PUSH2 0x1DC8 JUMP JUMPDEST SWAP3 POP SWAP3 POP POP SWAP3 POP SWAP3 SWAP1 POP JUMP JUMPDEST PUSH1 0x0 PUSH1 0x20 DUP3 ADD SWAP1 POP PUSH2 0x1E80 PUSH1 0x0 DUP4 ADD DUP5 PUSH2 0x1CB4 JUMP JUMPDEST SWAP3 SWAP2 POP POP JUMP JUMPDEST PUSH1 0x0 DUP3 DUP3 MSTORE PUSH1 0x20 DUP3 ADD SWAP1 POP SWAP3 SWAP2 POP POP JUMP JUMPDEST PUSH32 0x416363657373436F6E74726F6C3A2063616E206F6E6C792072656E6F756E6365 PUSH1 0x0 DUP3 ADD MSTORE PUSH32 0x20726F6C657320666F722073656C660000000000000000000000000000000000 PUSH1 0x20 DUP3 ADD MSTORE POP JUMP JUMPDEST PUSH1 0x0 PUSH2 0x1EF3 PUSH1 0x2F DUP4 PUSH2 0x1E86 JUMP JUMPDEST SWAP2 POP PUSH2 0x1EFE DUP3 PUSH2 0x1E97 JUMP JUMPDEST PUSH1 0x40 DUP3 ADD SWAP1 POP SWAP2 SWAP1 POP JUMP JUMPDEST PUSH1 0x0 PUSH1 0x20 DUP3 ADD SWAP1 POP DUP2 DUP2 SUB PUSH1 0x0 DUP4 ADD MSTORE PUSH2 0x1F22 DUP2 PUSH2 0x1EE6 JUMP JUMPDEST SWAP1 POP SWAP2 SWAP1 POP JUMP JUMPDEST PUSH32 0x4E487B7100000000000000000000000000000000000000000000000000000000 PUSH1 0x0 MSTORE PUSH1 0x32 PUSH1 0x4 MSTORE PUSH1 0x24 PUSH1 0x0 REVERT JUMPDEST PUSH32 0x4E487B7100000000000000000000000000000000000000000000000000000000 PUSH1 0x0 MSTORE PUSH1 0x41 PUSH1 0x4 MSTORE PUSH1 0x24 PUSH1 0x0 REVERT JUMPDEST PUSH32 0x4E487B7100000000000000000000000000000000000000000000000000000000 PUSH1 0x0 MSTORE PUSH1 0x11 PUSH1 0x4 MSTORE PUSH1 0x24 PUSH1 0x0 REVERT JUMPDEST PUSH1 0x0 PUSH2 0x1FC1 DUP3 PUSH2 0x1C42 JUMP JUMPDEST SWAP2 POP PUSH32 0xFFFFFFFFFFFFFFFFFFFFFFFFFFFFFFFFFFFFFFFFFFFFFFFFFFFFFFFFFFFFFFFF DUP3 SUB PUSH2 0x1FF3 JUMPI PUSH2 0x1FF2 PUSH2 0x1F87 JUMP JUMPDEST JUMPDEST PUSH1 0x1 DUP3 ADD SWAP1 POP SWAP2 SWAP1 POP JUMP JUMPDEST PUSH1 0x0 PUSH2 0x2009 DUP3 PUSH2 0x1C42 JUMP JUMPDEST SWAP2 POP PUSH2 0x2014 DUP4 PUSH2 0x1C42 JUMP JUMPDEST SWAP3 POP DUP3 PUSH32 0xFFFFFFFFFFFFFFFFFFFFFFFFFFFFFFFFFFFFFFFFFFFFFFFFFFFFFFFFFFFFFFFF SUB DUP3 GT ISZERO PUSH2 0x2049 JUMPI PUSH2 0x2048 PUSH2 0x1F87 JUMP JUMPDEST JUMPDEST DUP3 DUP3 ADD SWAP1 POP SWAP3 SWAP2 POP POP JUMP JUMPDEST PUSH1 0x0 PUSH2 0x205F DUP3 PUSH2 0x1C42 JUMP JUMPDEST SWAP2 POP PUSH2 0x206A DUP4 PUSH2 0x1C42 JUMP JUMPDEST SWAP3 POP DUP2 PUSH32 0xFFFFFFFFFFFFFFFFFFFFFFFFFFFFFFFFFFFFFFFFFFFFFFFFFFFFFFFFFFFFFFFF DIV DUP4 GT DUP3 ISZERO ISZERO AND ISZERO PUSH2 0x20A3 JUMPI PUSH2 0x20A2 PUSH2 0x1F87 JUMP JUMPDEST JUMPDEST DUP3 DUP3 MUL SWAP1 POP SWAP3 SWAP2 POP POP JUMP JUMPDEST PUSH32 0x4E487B7100000000000000000000000000000000000000000000000000000000 PUSH1 0x0 MSTORE PUSH1 0x12 PUSH1 0x4 MSTORE PUSH1 0x24 PUSH1 0x0 REVERT JUMPDEST PUSH1 0x0 PUSH2 0x20E8 DUP3 PUSH2 0x1C42 JUMP JUMPDEST SWAP2 POP PUSH2 0x20F3 DUP4 PUSH2 0x1C42 JUMP JUMPDEST SWAP3 POP DUP3 PUSH2 0x2103 JUMPI PUSH2 0x2102 PUSH2 0x20AE JUMP JUMPDEST JUMPDEST DUP3 DUP3 DIV SWAP1 POP SWAP3 SWAP2 POP POP JUMP JUMPDEST PUSH1 0x0 DUP2 SWAP1 POP SWAP3 SWAP2 POP POP JUMP JUMPDEST PUSH32 0x416363657373436F6E74726F6C3A206163636F756E7420000000000000000000 PUSH1 0x0 DUP3 ADD MSTORE POP JUMP JUMPDEST PUSH1 0x0 PUSH2 0x214F PUSH1 0x17 DUP4 PUSH2 0x210E JUMP JUMPDEST SWAP2 POP PUSH2 0x215A DUP3 PUSH2 0x2119 JUMP JUMPDEST PUSH1 0x17 DUP3 ADD SWAP1 POP SWAP2 SWAP1 POP JUMP JUMPDEST PUSH1 0x0 DUP2 MLOAD SWAP1 POP SWAP2 SWAP1 POP JUMP JUMPDEST PUSH1 0x0 JUMPDEST DUP4 DUP2 LT ISZERO PUSH2 0x218E JUMPI DUP1 DUP3 ADD MLOAD DUP2 DUP5 ADD MSTORE PUSH1 0x20 DUP2 ADD SWAP1 POP PUSH2 0x2173 JUMP JUMPDEST DUP4 DUP2 GT ISZERO PUSH2 0x219D JUMPI PUSH1 0x0 DUP5 DUP5 ADD MSTORE JUMPDEST POP POP POP POP JUMP JUMPDEST PUSH1 0x0 PUSH2 0x21AE DUP3 PUSH2 0x2165 JUMP JUMPDEST PUSH2 0x21B8 DUP2 DUP6 PUSH2 0x210E JUMP JUMPDEST SWAP4 POP PUSH2 0x21C8 DUP2 DUP6 PUSH1 0x20 DUP7 ADD PUSH2 0x2170 JUMP JUMPDEST DUP1 DUP5 ADD SWAP2 POP POP SWAP3 SWAP2 POP POP JUMP JUMPDEST PUSH32 0x206973206D697373696E6720726F6C6520000000000000000000000000000000 PUSH1 0x0 DUP3 ADD MSTORE POP JUMP JUMPDEST PUSH1 0x0 PUSH2 0x220A PUSH1 0x11 DUP4 PUSH2 0x210E JUMP JUMPDEST SWAP2 POP PUSH2 0x2215 DUP3 PUSH2 0x21D4 JUMP JUMPDEST PUSH1 0x11 DUP3 ADD SWAP1 POP SWAP2 SWAP1 POP JUMP JUMPDEST PUSH1 0x0 PUSH2 0x222B DUP3 PUSH2 0x2142 JUMP JUMPDEST SWAP2 POP PUSH2 0x2237 DUP3 DUP6 PUSH2 0x21A3 JUMP JUMPDEST SWAP2 POP PUSH2 0x2242 DUP3 PUSH2 0x21FD JUMP JUMPDEST SWAP2 POP PUSH2 0x224E DUP3 DUP5 PUSH2 0x21A3 JUMP JUMPDEST SWAP2 POP DUP2 SWAP1 POP SWAP4 SWAP3 POP POP POP JUMP JUMPDEST PUSH1 0x0 PUSH1 0x1F NOT PUSH1 0x1F DUP4 ADD AND SWAP1 POP SWAP2 SWAP1 POP JUMP JUMPDEST PUSH1 0x0 PUSH2 0x2276 DUP3 PUSH2 0x2165 JUMP JUMPDEST PUSH2 0x2280 DUP2 DUP6 PUSH2 0x1E86 JUMP JUMPDEST SWAP4 POP PUSH2 0x2290 DUP2 DUP6 PUSH1 0x20 DUP7 ADD PUSH2 0x2170 JUMP JUMPDEST PUSH2 0x2299 DUP2 PUSH2 0x225A JUMP JUMPDEST DUP5 ADD SWAP2 POP POP SWAP3 SWAP2 POP POP JUMP JUMPDEST PUSH1 0x0 PUSH1 0x20 DUP3 ADD SWAP1 POP DUP2 DUP2 SUB PUSH1 0x0 DUP4 ADD MSTORE PUSH2 0x22BE DUP2 DUP5 PUSH2 0x226B JUMP JUMPDEST SWAP1 POP SWAP3 SWAP2 POP POP JUMP JUMPDEST PUSH1 0x0 PUSH2 0x22D1 DUP3 PUSH2 0x1C42 JUMP JUMPDEST SWAP2 POP PUSH1 0x0 DUP3 SUB PUSH2 0x22E4 JUMPI PUSH2 0x22E3 PUSH2 0x1F87 JUMP JUMPDEST JUMPDEST PUSH1 0x1 DUP3 SUB SWAP1 POP SWAP2 SWAP1 POP JUMP JUMPDEST PUSH32 0x537472696E67733A20686578206C656E67746820696E73756666696369656E74 PUSH1 0x0 DUP3 ADD MSTORE POP JUMP JUMPDEST PUSH1 0x0 PUSH2 0x2325 PUSH1 0x20 DUP4 PUSH2 0x1E86 JUMP JUMPDEST SWAP2 POP PUSH2 0x2330 DUP3 PUSH2 0x22EF JUMP JUMPDEST PUSH1 0x20 DUP3 ADD SWAP1 POP SWAP2 SWAP1 POP JUMP JUMPDEST PUSH1 0x0 PUSH1 0x20 DUP3 ADD SWAP1 POP DUP2 DUP2 SUB PUSH1 0x0 DUP4 ADD MSTORE PUSH2 0x2354 DUP2 PUSH2 0x2318 JUMP JUMPDEST SWAP1 POP SWAP2 SWAP1 POP JUMP INVALID LOG2 PUSH5 0x6970667358 0x22 SLT KECCAK256 0xC4 DUP2 0xB7 0xE1 0xE7 XOR 0x2E 0xC3 0x2C 0xF8 MSIZE PUSH30 0x614B0FBD6E9AA19CC0A4FC3EC576BFE98CC9608A64736F6C634300080D00 CALLER "
				},
				"gasEstimates": {
					"creation": {
						"codeDepositCost": "1821000",
						"executionCost": "infinite",
						"totalCost": "infinite"
					},
					"external": {
						"DAO_ROLE()": "461",
						"DATA_SENDER_ROLE()": "418",
						"DEFAULT_ADMIN_ROLE()": "380",
						"NET_ADMIN_ROLE()": "351",
						"addAdmin(address)": "infinite",
						"addNode(address)": "infinite",
						"flightflag()": "2515",
						"getRoleAdmin(bytes32)": "infinite",
						"grantRole(bytes32,address)": "infinite",
						"hasRole(bytes32,address)": "3229",
						"nodeList(uint256)": "infinite",
						"removeAdmin(address)": "infinite",
						"removeNode(address)": "infinite",
						"renounceRole(bytes32,address)": "infinite",
						"reportData(int256[])": "infinite",
						"revokeRole(bytes32,address)": "infinite",
						"sensorTimeout()": "2540",
						"supportsInterface(bytes4)": "751",
						"targetPercentage()": "2517",
						"totalNodes()": "2540",
						"totalSensors()": "2539"
					},
					"internal": {
						"getNode(address)": "infinite"
					}
				},
				"methodIdentifiers": {
					"DAO_ROLE()": "e9c26518",
					"DATA_SENDER_ROLE()": "b9be532b",
					"DEFAULT_ADMIN_ROLE()": "a217fddf",
					"NET_ADMIN_ROLE()": "d048d58c",
					"addAdmin(address)": "70480275",
					"addNode(address)": "9d95f1cc",
					"flightflag()": "d1f43a4f",
					"getRoleAdmin(bytes32)": "248a9ca3",
					"grantRole(bytes32,address)": "2f2ff15d",
					"hasRole(bytes32,address)": "91d14854",
					"nodeList(uint256)": "208f2a31",
					"removeAdmin(address)": "1785f53c",
					"removeNode(address)": "b2b99ec9",
					"renounceRole(bytes32,address)": "36568abe",
					"reportData(int256[])": "676e7a99",
					"revokeRole(bytes32,address)": "d547741f",
					"sensorTimeout()": "c1bb0a5a",
					"supportsInterface(bytes4)": "01ffc9a7",
					"targetPercentage()": "d87855aa",
					"totalNodes()": "9592d424",
					"totalSensors()": "e690f6e1"
				}
			},
			"userdoc": {
				"kind": "user",
				"methods": {},
				"version": 1
			}
		}
	}
}